{
	"contracts/NFT/CertificateContract.sol": {
		"CertificateContract": {
			"abi": [
				{
					"inputs": [
						{
							"internalType": "string",
							"name": "name",
							"type": "string"
						},
						{
							"internalType": "string",
							"name": "symbol",
							"type": "string"
						},
						{
							"internalType": "address",
							"name": "initialOwner",
							"type": "address"
						}
					],
					"stateMutability": "nonpayable",
					"type": "constructor"
				},
				{
					"inputs": [
						{
							"internalType": "address",
							"name": "sender",
							"type": "address"
						},
						{
							"internalType": "uint256",
							"name": "tokenId",
							"type": "uint256"
						},
						{
							"internalType": "address",
							"name": "owner",
							"type": "address"
						}
					],
					"name": "ERC721IncorrectOwner",
					"type": "error"
				},
				{
					"inputs": [
						{
							"internalType": "address",
							"name": "operator",
							"type": "address"
						},
						{
							"internalType": "uint256",
							"name": "tokenId",
							"type": "uint256"
						}
					],
					"name": "ERC721InsufficientApproval",
					"type": "error"
				},
				{
					"inputs": [
						{
							"internalType": "address",
							"name": "approver",
							"type": "address"
						}
					],
					"name": "ERC721InvalidApprover",
					"type": "error"
				},
				{
					"inputs": [
						{
							"internalType": "address",
							"name": "operator",
							"type": "address"
						}
					],
					"name": "ERC721InvalidOperator",
					"type": "error"
				},
				{
					"inputs": [
						{
							"internalType": "address",
							"name": "owner",
							"type": "address"
						}
					],
					"name": "ERC721InvalidOwner",
					"type": "error"
				},
				{
					"inputs": [
						{
							"internalType": "address",
							"name": "receiver",
							"type": "address"
						}
					],
					"name": "ERC721InvalidReceiver",
					"type": "error"
				},
				{
					"inputs": [
						{
							"internalType": "address",
							"name": "sender",
							"type": "address"
						}
					],
					"name": "ERC721InvalidSender",
					"type": "error"
				},
				{
					"inputs": [
						{
							"internalType": "uint256",
							"name": "tokenId",
							"type": "uint256"
						}
					],
					"name": "ERC721NonexistentToken",
					"type": "error"
				},
				{
					"inputs": [
						{
							"internalType": "address",
							"name": "owner",
							"type": "address"
						}
					],
					"name": "OwnableInvalidOwner",
					"type": "error"
				},
				{
					"inputs": [
						{
							"internalType": "address",
							"name": "account",
							"type": "address"
						}
					],
					"name": "OwnableUnauthorizedAccount",
					"type": "error"
				},
				{
					"anonymous": false,
					"inputs": [
						{
							"indexed": true,
							"internalType": "address",
							"name": "owner",
							"type": "address"
						},
						{
							"indexed": true,
							"internalType": "address",
							"name": "approved",
							"type": "address"
						},
						{
							"indexed": true,
							"internalType": "uint256",
							"name": "tokenId",
							"type": "uint256"
						}
					],
					"name": "Approval",
					"type": "event"
				},
				{
					"anonymous": false,
					"inputs": [
						{
							"indexed": true,
							"internalType": "address",
							"name": "owner",
							"type": "address"
						},
						{
							"indexed": true,
							"internalType": "address",
							"name": "operator",
							"type": "address"
						},
						{
							"indexed": false,
							"internalType": "bool",
							"name": "approved",
							"type": "bool"
						}
					],
					"name": "ApprovalForAll",
					"type": "event"
				},
				{
					"anonymous": false,
					"inputs": [
						{
							"indexed": true,
							"internalType": "address",
							"name": "previousOwner",
							"type": "address"
						},
						{
							"indexed": true,
							"internalType": "address",
							"name": "newOwner",
							"type": "address"
						}
					],
					"name": "OwnershipTransferred",
					"type": "event"
				},
				{
					"anonymous": false,
					"inputs": [
						{
							"indexed": true,
							"internalType": "address",
							"name": "from",
							"type": "address"
						},
						{
							"indexed": true,
							"internalType": "address",
							"name": "to",
							"type": "address"
						},
						{
							"indexed": true,
							"internalType": "uint256",
							"name": "tokenId",
							"type": "uint256"
						}
					],
					"name": "Transfer",
					"type": "event"
				},
				{
					"inputs": [
						{
							"internalType": "address",
							"name": "to",
							"type": "address"
						},
						{
							"internalType": "uint256",
							"name": "tokenId",
							"type": "uint256"
						}
					],
					"name": "approve",
					"outputs": [],
					"stateMutability": "nonpayable",
					"type": "function"
				},
				{
					"inputs": [
						{
							"internalType": "address",
							"name": "owner",
							"type": "address"
						}
					],
					"name": "balanceOf",
					"outputs": [
						{
							"internalType": "uint256",
							"name": "",
							"type": "uint256"
						}
					],
					"stateMutability": "view",
					"type": "function"
				},
				{
					"inputs": [
						{
							"internalType": "uint256",
							"name": "tokenId",
							"type": "uint256"
						}
					],
					"name": "getApproved",
					"outputs": [
						{
							"internalType": "address",
							"name": "",
							"type": "address"
						}
					],
					"stateMutability": "view",
					"type": "function"
				},
				{
					"inputs": [
						{
							"internalType": "address",
							"name": "owner",
							"type": "address"
						},
						{
							"internalType": "address",
							"name": "operator",
							"type": "address"
						}
					],
					"name": "isApprovedForAll",
					"outputs": [
						{
							"internalType": "bool",
							"name": "",
							"type": "bool"
						}
					],
					"stateMutability": "view",
					"type": "function"
				},
				{
					"inputs": [
						{
							"internalType": "address",
							"name": "recipient",
							"type": "address"
						},
						{
							"internalType": "uint256",
							"name": "tokenId",
							"type": "uint256"
						},
						{
							"internalType": "string",
							"name": "uri",
							"type": "string"
						}
					],
					"name": "issueCertificate",
					"outputs": [],
					"stateMutability": "nonpayable",
					"type": "function"
				},
				{
					"inputs": [],
					"name": "name",
					"outputs": [
						{
							"internalType": "string",
							"name": "",
							"type": "string"
						}
					],
					"stateMutability": "view",
					"type": "function"
				},
				{
					"inputs": [],
					"name": "owner",
					"outputs": [
						{
							"internalType": "address",
							"name": "",
							"type": "address"
						}
					],
					"stateMutability": "view",
					"type": "function"
				},
				{
					"inputs": [
						{
							"internalType": "uint256",
							"name": "tokenId",
							"type": "uint256"
						}
					],
					"name": "ownerOf",
					"outputs": [
						{
							"internalType": "address",
							"name": "",
							"type": "address"
						}
					],
					"stateMutability": "view",
					"type": "function"
				},
				{
					"inputs": [],
					"name": "renounceOwnership",
					"outputs": [],
					"stateMutability": "nonpayable",
					"type": "function"
				},
				{
					"inputs": [
						{
							"internalType": "address",
							"name": "from",
							"type": "address"
						},
						{
							"internalType": "address",
							"name": "to",
							"type": "address"
						},
						{
							"internalType": "uint256",
							"name": "tokenId",
							"type": "uint256"
						}
					],
					"name": "safeTransferFrom",
					"outputs": [],
					"stateMutability": "nonpayable",
					"type": "function"
				},
				{
					"inputs": [
						{
							"internalType": "address",
							"name": "from",
							"type": "address"
						},
						{
							"internalType": "address",
							"name": "to",
							"type": "address"
						},
						{
							"internalType": "uint256",
							"name": "tokenId",
							"type": "uint256"
						},
						{
							"internalType": "bytes",
							"name": "data",
							"type": "bytes"
						}
					],
					"name": "safeTransferFrom",
					"outputs": [],
					"stateMutability": "nonpayable",
					"type": "function"
				},
				{
					"inputs": [
						{
							"internalType": "address",
							"name": "operator",
							"type": "address"
						},
						{
							"internalType": "bool",
							"name": "approved",
							"type": "bool"
						}
					],
					"name": "setApprovalForAll",
					"outputs": [],
					"stateMutability": "nonpayable",
					"type": "function"
				},
				{
					"inputs": [
						{
							"internalType": "uint256",
							"name": "tokenId",
							"type": "uint256"
						},
						{
							"internalType": "string",
							"name": "uri",
							"type": "string"
						}
					],
					"name": "setCertificateURI",
					"outputs": [],
					"stateMutability": "nonpayable",
					"type": "function"
				},
				{
					"inputs": [
						{
							"internalType": "bytes4",
							"name": "interfaceId",
							"type": "bytes4"
						}
					],
					"name": "supportsInterface",
					"outputs": [
						{
							"internalType": "bool",
							"name": "",
							"type": "bool"
						}
					],
					"stateMutability": "view",
					"type": "function"
				},
				{
					"inputs": [],
					"name": "symbol",
					"outputs": [
						{
							"internalType": "string",
							"name": "",
							"type": "string"
						}
					],
					"stateMutability": "view",
					"type": "function"
				},
				{
					"inputs": [
						{
							"internalType": "uint256",
							"name": "tokenId",
							"type": "uint256"
						}
					],
					"name": "tokenURI",
					"outputs": [
						{
							"internalType": "string",
							"name": "",
							"type": "string"
						}
					],
					"stateMutability": "view",
					"type": "function"
				},
				{
					"inputs": [
						{
							"internalType": "address",
							"name": "from",
							"type": "address"
						},
						{
							"internalType": "address",
							"name": "to",
							"type": "address"
						},
						{
							"internalType": "uint256",
							"name": "tokenId",
							"type": "uint256"
						}
					],
					"name": "transferFrom",
					"outputs": [],
					"stateMutability": "nonpayable",
					"type": "function"
				},
				{
					"inputs": [
						{
							"internalType": "address",
							"name": "newOwner",
							"type": "address"
						}
					],
					"name": "transferOwnership",
					"outputs": [],
					"stateMutability": "nonpayable",
					"type": "function"
				}
			],
			"devdoc": {
				"errors": {
					"ERC721IncorrectOwner(address,uint256,address)": [
						{
							"details": "Indicates an error related to the ownership over a particular token. Used in transfers.",
							"params": {
								"owner": "Address of the current owner of a token.",
								"sender": "Address whose tokens are being transferred.",
								"tokenId": "Identifier number of a token."
							}
						}
					],
					"ERC721InsufficientApproval(address,uint256)": [
						{
							"details": "Indicates a failure with the `operator`’s approval. Used in transfers.",
							"params": {
								"operator": "Address that may be allowed to operate on tokens without being their owner.",
								"tokenId": "Identifier number of a token."
							}
						}
					],
					"ERC721InvalidApprover(address)": [
						{
							"details": "Indicates a failure with the `approver` of a token to be approved. Used in approvals.",
							"params": {
								"approver": "Address initiating an approval operation."
							}
						}
					],
					"ERC721InvalidOperator(address)": [
						{
							"details": "Indicates a failure with the `operator` to be approved. Used in approvals.",
							"params": {
								"operator": "Address that may be allowed to operate on tokens without being their owner."
							}
						}
					],
					"ERC721InvalidOwner(address)": [
						{
							"details": "Indicates that an address can't be an owner. For example, `address(0)` is a forbidden owner in EIP-20. Used in balance queries.",
							"params": {
								"owner": "Address of the current owner of a token."
							}
						}
					],
					"ERC721InvalidReceiver(address)": [
						{
							"details": "Indicates a failure with the token `receiver`. Used in transfers.",
							"params": {
								"receiver": "Address to which tokens are being transferred."
							}
						}
					],
					"ERC721InvalidSender(address)": [
						{
							"details": "Indicates a failure with the token `sender`. Used in transfers.",
							"params": {
								"sender": "Address whose tokens are being transferred."
							}
						}
					],
					"ERC721NonexistentToken(uint256)": [
						{
							"details": "Indicates a `tokenId` whose `owner` is the zero address.",
							"params": {
								"tokenId": "Identifier number of a token."
							}
						}
					],
					"OwnableInvalidOwner(address)": [
						{
							"details": "The owner is not a valid owner account. (eg. `address(0)`)"
						}
					],
					"OwnableUnauthorizedAccount(address)": [
						{
							"details": "The caller account is not authorized to perform an operation."
						}
					]
				},
				"events": {
					"Approval(address,address,uint256)": {
						"details": "Emitted when `owner` enables `approved` to manage the `tokenId` token."
					},
					"ApprovalForAll(address,address,bool)": {
						"details": "Emitted when `owner` enables or disables (`approved`) `operator` to manage all of its assets."
					},
					"Transfer(address,address,uint256)": {
						"details": "Emitted when `tokenId` token is transferred from `from` to `to`."
					}
				},
				"kind": "dev",
				"methods": {
					"approve(address,uint256)": {
						"details": "See {IERC721-approve}."
					},
					"balanceOf(address)": {
						"details": "See {IERC721-balanceOf}."
					},
					"getApproved(uint256)": {
						"details": "See {IERC721-getApproved}."
					},
					"isApprovedForAll(address,address)": {
						"details": "See {IERC721-isApprovedForAll}."
					},
					"name()": {
						"details": "See {IERC721Metadata-name}."
					},
					"owner()": {
						"details": "Returns the address of the current owner."
					},
					"ownerOf(uint256)": {
						"details": "See {IERC721-ownerOf}."
					},
					"renounceOwnership()": {
						"details": "Leaves the contract without owner. It will not be possible to call `onlyOwner` functions. Can only be called by the current owner. NOTE: Renouncing ownership will leave the contract without an owner, thereby disabling any functionality that is only available to the owner."
					},
					"safeTransferFrom(address,address,uint256)": {
						"details": "See {IERC721-safeTransferFrom}."
					},
					"safeTransferFrom(address,address,uint256,bytes)": {
						"details": "See {IERC721-safeTransferFrom}."
					},
					"setApprovalForAll(address,bool)": {
						"details": "See {IERC721-setApprovalForAll}."
					},
					"supportsInterface(bytes4)": {
						"details": "See {IERC165-supportsInterface}."
					},
					"symbol()": {
						"details": "See {IERC721Metadata-symbol}."
					},
					"tokenURI(uint256)": {
						"details": "See {IERC721Metadata-tokenURI}."
					},
					"transferFrom(address,address,uint256)": {
						"details": "See {IERC721-transferFrom}."
					},
					"transferOwnership(address)": {
						"details": "Transfers ownership of the contract to a new account (`newOwner`). Can only be called by the current owner."
					}
				},
				"version": 1
			},
			"evm": {
				"assembly": "    /* \"contracts/NFT/CertificateContract.sol\":175:1166  contract CertificateContract is ERC721, Ownable {... */\n  mstore(0x40, 0x80)\n    /* \"contracts/NFT/CertificateContract.sol\":335:479  constructor(string memory name, string memory symbol, address initialOwner)... */\n  callvalue\n  dup1\n  iszero\n  tag_1\n  jumpi\n  0x00\n  dup1\n  revert\ntag_1:\n  pop\n  mload(0x40)\n  sub(codesize, bytecodeSize)\n  dup1\n  bytecodeSize\n  dup4\n  codecopy\n  dup2\n  dup2\n  add\n  0x40\n  mstore\n  dup2\n  add\n  swap1\n  tag_2\n  swap2\n  swap1\n  tag_3\n  jump\t// in\ntag_2:\n    /* \"contracts/NFT/CertificateContract.sol\":458:470  initialOwner */\n  dup1\n    /* \"contracts/NFT/CertificateContract.sol\":427:431  name */\n  dup4\n    /* \"contracts/NFT/CertificateContract.sol\":433:439  symbol */\n  dup4\n    /* \"@openzeppelin/contracts/token/ERC721/ERC721.sol\":1455:1460  name_ */\n  dup2\n    /* \"@openzeppelin/contracts/token/ERC721/ERC721.sol\":1447:1452  _name */\n  0x00\n    /* \"@openzeppelin/contracts/token/ERC721/ERC721.sol\":1447:1460  _name = name_ */\n  swap1\n  dup2\n  tag_8\n  swap2\n  swap1\n  tag_9\n  jump\t// in\ntag_8:\n  pop\n    /* \"@openzeppelin/contracts/token/ERC721/ERC721.sol\":1480:1487  symbol_ */\n  dup1\n    /* \"@openzeppelin/contracts/token/ERC721/ERC721.sol\":1470:1477  _symbol */\n  0x01\n    /* \"@openzeppelin/contracts/token/ERC721/ERC721.sol\":1470:1487  _symbol = symbol_ */\n  swap1\n  dup2\n  tag_10\n  swap2\n  swap1\n  tag_9\n  jump\t// in\ntag_10:\n  pop\n    /* \"@openzeppelin/contracts/token/ERC721/ERC721.sol\":1381:1494  constructor(string memory name_, string memory symbol_) {... */\n  pop\n  pop\n    /* \"@openzeppelin/contracts/access/Ownable.sol\":1297:1298  0 */\n  0x00\n    /* \"@openzeppelin/contracts/access/Ownable.sol\":1273:1299  initialOwner == address(0) */\n  0xffffffffffffffffffffffffffffffffffffffff\n  and\n    /* \"@openzeppelin/contracts/access/Ownable.sol\":1273:1285  initialOwner */\n  dup2\n    /* \"@openzeppelin/contracts/access/Ownable.sol\":1273:1299  initialOwner == address(0) */\n  0xffffffffffffffffffffffffffffffffffffffff\n  and\n  sub\n    /* \"@openzeppelin/contracts/access/Ownable.sol\":1269:1364  if (initialOwner == address(0)) {... */\n  tag_12\n  jumpi\n    /* \"@openzeppelin/contracts/access/Ownable.sol\":1350:1351  0 */\n  0x00\n    /* \"@openzeppelin/contracts/access/Ownable.sol\":1322:1353  OwnableInvalidOwner(address(0)) */\n  mload(0x40)\n  0x1e4fbdf700000000000000000000000000000000000000000000000000000000\n  dup2\n  mstore\n  0x04\n  add\n  tag_13\n  swap2\n  swap1\n  tag_14\n  jump\t// in\ntag_13:\n  mload(0x40)\n  dup1\n  swap2\n  sub\n  swap1\n  revert\n    /* \"@openzeppelin/contracts/access/Ownable.sol\":1269:1364  if (initialOwner == address(0)) {... */\ntag_12:\n    /* \"@openzeppelin/contracts/access/Ownable.sol\":1373:1405  _transferOwnership(initialOwner) */\n  tag_15\n    /* \"@openzeppelin/contracts/access/Ownable.sol\":1392:1404  initialOwner */\n  dup2\n    /* \"@openzeppelin/contracts/access/Ownable.sol\":1373:1391  _transferOwnership */\n  shl(0x20, tag_16)\n    /* \"@openzeppelin/contracts/access/Ownable.sol\":1373:1405  _transferOwnership(initialOwner) */\n  0x20\n  shr\n  jump\t// in\ntag_15:\n    /* \"@openzeppelin/contracts/access/Ownable.sol\":1225:1412  constructor(address initialOwner) {... */\n  pop\n    /* \"contracts/NFT/CertificateContract.sol\":335:479  constructor(string memory name, string memory symbol, address initialOwner)... */\n  pop\n  pop\n  pop\n    /* \"contracts/NFT/CertificateContract.sol\":175:1166  contract CertificateContract is ERC721, Ownable {... */\n  jump(tag_18)\n    /* \"@openzeppelin/contracts/access/Ownable.sol\":2912:3099  function _transferOwnership(address newOwner) internal virtual {... */\ntag_16:\n    /* \"@openzeppelin/contracts/access/Ownable.sol\":2985:3001  address oldOwner */\n  0x00\n    /* \"@openzeppelin/contracts/access/Ownable.sol\":3004:3010  _owner */\n  0x06\n  0x00\n  swap1\n  sload\n  swap1\n  0x0100\n  exp\n  swap1\n  div\n  0xffffffffffffffffffffffffffffffffffffffff\n  and\n    /* \"@openzeppelin/contracts/access/Ownable.sol\":2985:3010  address oldOwner = _owner */\n  swap1\n  pop\n    /* \"@openzeppelin/contracts/access/Ownable.sol\":3029:3037  newOwner */\n  dup2\n    /* \"@openzeppelin/contracts/access/Ownable.sol\":3020:3026  _owner */\n  0x06\n  0x00\n    /* \"@openzeppelin/contracts/access/Ownable.sol\":3020:3037  _owner = newOwner */\n  0x0100\n  exp\n  dup2\n  sload\n  dup2\n  0xffffffffffffffffffffffffffffffffffffffff\n  mul\n  not\n  and\n  swap1\n  dup4\n  0xffffffffffffffffffffffffffffffffffffffff\n  and\n  mul\n  or\n  swap1\n  sstore\n  pop\n    /* \"@openzeppelin/contracts/access/Ownable.sol\":3083:3091  newOwner */\n  dup2\n    /* \"@openzeppelin/contracts/access/Ownable.sol\":3052:3092  OwnershipTransferred(oldOwner, newOwner) */\n  0xffffffffffffffffffffffffffffffffffffffff\n  and\n    /* \"@openzeppelin/contracts/access/Ownable.sol\":3073:3081  oldOwner */\n  dup2\n    /* \"@openzeppelin/contracts/access/Ownable.sol\":3052:3092  OwnershipTransferred(oldOwner, newOwner) */\n  0xffffffffffffffffffffffffffffffffffffffff\n  and\n  0x8be0079c531659141344cd1fd0a4f28419497f9722a3daafe3b4186f6b6457e0\n  mload(0x40)\n  mload(0x40)\n  dup1\n  swap2\n  sub\n  swap1\n  log3\n    /* \"@openzeppelin/contracts/access/Ownable.sol\":2975:3099  {... */\n  pop\n    /* \"@openzeppelin/contracts/access/Ownable.sol\":2912:3099  function _transferOwnership(address newOwner) internal virtual {... */\n  pop\n  jump\t// out\n    /* \"#utility.yul\":7:82   */\ntag_20:\n    /* \"#utility.yul\":40:46   */\n  0x00\n    /* \"#utility.yul\":73:75   */\n  0x40\n    /* \"#utility.yul\":67:76   */\n  mload\n    /* \"#utility.yul\":57:76   */\n  swap1\n  pop\n    /* \"#utility.yul\":7:82   */\n  swap1\n  jump\t// out\n    /* \"#utility.yul\":88:205   */\ntag_21:\n    /* \"#utility.yul\":197:198   */\n  0x00\n    /* \"#utility.yul\":194:195   */\n  dup1\n    /* \"#utility.yul\":187:199   */\n  revert\n    /* \"#utility.yul\":211:328   */\ntag_22:\n    /* \"#utility.yul\":320:321   */\n  0x00\n    /* \"#utility.yul\":317:318   */\n  dup1\n    /* \"#utility.yul\":310:322   */\n  revert\n    /* \"#utility.yul\":334:451   */\ntag_23:\n    /* \"#utility.yul\":443:444   */\n  0x00\n    /* \"#utility.yul\":440:441   */\n  dup1\n    /* \"#utility.yul\":433:445   */\n  revert\n    /* \"#utility.yul\":457:574   */\ntag_24:\n    /* \"#utility.yul\":566:567   */\n  0x00\n    /* \"#utility.yul\":563:564   */\n  dup1\n    /* \"#utility.yul\":556:568   */\n  revert\n    /* \"#utility.yul\":580:682   */\ntag_25:\n    /* \"#utility.yul\":621:627   */\n  0x00\n    /* \"#utility.yul\":672:674   */\n  0x1f\n    /* \"#utility.yul\":668:675   */\n  not\n    /* \"#utility.yul\":663:665   */\n  0x1f\n    /* \"#utility.yul\":656:661   */\n  dup4\n    /* \"#utility.yul\":652:666   */\n  add\n    /* \"#utility.yul\":648:676   */\n  and\n    /* \"#utility.yul\":638:676   */\n  swap1\n  pop\n    /* \"#utility.yul\":580:682   */\n  swap2\n  swap1\n  pop\n  jump\t// out\n    /* \"#utility.yul\":688:868   */\ntag_26:\n    /* \"#utility.yul\":736:813   */\n  0x4e487b7100000000000000000000000000000000000000000000000000000000\n    /* \"#utility.yul\":733:734   */\n  0x00\n    /* \"#utility.yul\":726:814   */\n  mstore\n    /* \"#utility.yul\":833:837   */\n  0x41\n    /* \"#utility.yul\":830:831   */\n  0x04\n    /* \"#utility.yul\":823:838   */\n  mstore\n    /* \"#utility.yul\":857:861   */\n  0x24\n    /* \"#utility.yul\":854:855   */\n  0x00\n    /* \"#utility.yul\":847:862   */\n  revert\n    /* \"#utility.yul\":874:1155   */\ntag_27:\n    /* \"#utility.yul\":957:984   */\n  tag_66\n    /* \"#utility.yul\":979:983   */\n  dup3\n    /* \"#utility.yul\":957:984   */\n  tag_25\n  jump\t// in\ntag_66:\n    /* \"#utility.yul\":949:955   */\n  dup2\n    /* \"#utility.yul\":945:985   */\n  add\n    /* \"#utility.yul\":1087:1093   */\n  dup2\n    /* \"#utility.yul\":1075:1085   */\n  dup2\n    /* \"#utility.yul\":1072:1094   */\n  lt\n    /* \"#utility.yul\":1051:1069   */\n  0xffffffffffffffff\n    /* \"#utility.yul\":1039:1049   */\n  dup3\n    /* \"#utility.yul\":1036:1070   */\n  gt\n    /* \"#utility.yul\":1033:1095   */\n  or\n    /* \"#utility.yul\":1030:1118   */\n  iszero\n  tag_67\n  jumpi\n    /* \"#utility.yul\":1098:1116   */\n  tag_68\n  tag_26\n  jump\t// in\ntag_68:\n    /* \"#utility.yul\":1030:1118   */\ntag_67:\n    /* \"#utility.yul\":1138:1148   */\n  dup1\n    /* \"#utility.yul\":1134:1136   */\n  0x40\n    /* \"#utility.yul\":1127:1149   */\n  mstore\n    /* \"#utility.yul\":917:1155   */\n  pop\n    /* \"#utility.yul\":874:1155   */\n  pop\n  pop\n  jump\t// out\n    /* \"#utility.yul\":1161:1290   */\ntag_28:\n    /* \"#utility.yul\":1195:1201   */\n  0x00\n    /* \"#utility.yul\":1222:1242   */\n  tag_70\n  tag_20\n  jump\t// in\ntag_70:\n    /* \"#utility.yul\":1212:1242   */\n  swap1\n  pop\n    /* \"#utility.yul\":1251:1284   */\n  tag_71\n    /* \"#utility.yul\":1279:1283   */\n  dup3\n    /* \"#utility.yul\":1271:1277   */\n  dup3\n    /* \"#utility.yul\":1251:1284   */\n  tag_27\n  jump\t// in\ntag_71:\n    /* \"#utility.yul\":1161:1290   */\n  swap2\n  swap1\n  pop\n  jump\t// out\n    /* \"#utility.yul\":1296:1604   */\ntag_29:\n    /* \"#utility.yul\":1358:1362   */\n  0x00\n    /* \"#utility.yul\":1448:1466   */\n  0xffffffffffffffff\n    /* \"#utility.yul\":1440:1446   */\n  dup3\n    /* \"#utility.yul\":1437:1467   */\n  gt\n    /* \"#utility.yul\":1434:1490   */\n  iszero\n  tag_73\n  jumpi\n    /* \"#utility.yul\":1470:1488   */\n  tag_74\n  tag_26\n  jump\t// in\ntag_74:\n    /* \"#utility.yul\":1434:1490   */\ntag_73:\n    /* \"#utility.yul\":1508:1537   */\n  tag_75\n    /* \"#utility.yul\":1530:1536   */\n  dup3\n    /* \"#utility.yul\":1508:1537   */\n  tag_25\n  jump\t// in\ntag_75:\n    /* \"#utility.yul\":1500:1537   */\n  swap1\n  pop\n    /* \"#utility.yul\":1592:1596   */\n  0x20\n    /* \"#utility.yul\":1586:1590   */\n  dup2\n    /* \"#utility.yul\":1582:1597   */\n  add\n    /* \"#utility.yul\":1574:1597   */\n  swap1\n  pop\n    /* \"#utility.yul\":1296:1604   */\n  swap2\n  swap1\n  pop\n  jump\t// out\n    /* \"#utility.yul\":1610:1856   */\ntag_30:\n    /* \"#utility.yul\":1691:1692   */\n  0x00\n    /* \"#utility.yul\":1701:1814   */\ntag_77:\n    /* \"#utility.yul\":1715:1721   */\n  dup4\n    /* \"#utility.yul\":1712:1713   */\n  dup2\n    /* \"#utility.yul\":1709:1722   */\n  lt\n    /* \"#utility.yul\":1701:1814   */\n  iszero\n  tag_79\n  jumpi\n    /* \"#utility.yul\":1800:1801   */\n  dup1\n    /* \"#utility.yul\":1795:1798   */\n  dup3\n    /* \"#utility.yul\":1791:1802   */\n  add\n    /* \"#utility.yul\":1785:1803   */\n  mload\n    /* \"#utility.yul\":1781:1782   */\n  dup2\n    /* \"#utility.yul\":1776:1779   */\n  dup5\n    /* \"#utility.yul\":1772:1783   */\n  add\n    /* \"#utility.yul\":1765:1804   */\n  mstore\n    /* \"#utility.yul\":1737:1739   */\n  0x20\n    /* \"#utility.yul\":1734:1735   */\n  dup2\n    /* \"#utility.yul\":1730:1740   */\n  add\n    /* \"#utility.yul\":1725:1740   */\n  swap1\n  pop\n    /* \"#utility.yul\":1701:1814   */\n  jump(tag_77)\ntag_79:\n    /* \"#utility.yul\":1848:1849   */\n  0x00\n    /* \"#utility.yul\":1839:1845   */\n  dup5\n    /* \"#utility.yul\":1834:1837   */\n  dup5\n    /* \"#utility.yul\":1830:1846   */\n  add\n    /* \"#utility.yul\":1823:1850   */\n  mstore\n    /* \"#utility.yul\":1672:1856   */\n  pop\n    /* \"#utility.yul\":1610:1856   */\n  pop\n  pop\n  pop\n  jump\t// out\n    /* \"#utility.yul\":1862:2296   */\ntag_31:\n    /* \"#utility.yul\":1951:1956   */\n  0x00\n    /* \"#utility.yul\":1976:2042   */\n  tag_81\n    /* \"#utility.yul\":1992:2041   */\n  tag_82\n    /* \"#utility.yul\":2034:2040   */\n  dup5\n    /* \"#utility.yul\":1992:2041   */\n  tag_29\n  jump\t// in\ntag_82:\n    /* \"#utility.yul\":1976:2042   */\n  tag_28\n  jump\t// in\ntag_81:\n    /* \"#utility.yul\":1967:2042   */\n  swap1\n  pop\n    /* \"#utility.yul\":2065:2071   */\n  dup3\n    /* \"#utility.yul\":2058:2063   */\n  dup2\n    /* \"#utility.yul\":2051:2072   */\n  mstore\n    /* \"#utility.yul\":2103:2107   */\n  0x20\n    /* \"#utility.yul\":2096:2101   */\n  dup2\n    /* \"#utility.yul\":2092:2108   */\n  add\n    /* \"#utility.yul\":2141:2144   */\n  dup5\n    /* \"#utility.yul\":2132:2138   */\n  dup5\n    /* \"#utility.yul\":2127:2130   */\n  dup5\n    /* \"#utility.yul\":2123:2139   */\n  add\n    /* \"#utility.yul\":2120:2145   */\n  gt\n    /* \"#utility.yul\":2117:2229   */\n  iszero\n  tag_83\n  jumpi\n    /* \"#utility.yul\":2148:2227   */\n  tag_84\n  tag_24\n  jump\t// in\ntag_84:\n    /* \"#utility.yul\":2117:2229   */\ntag_83:\n    /* \"#utility.yul\":2238:2290   */\n  tag_85\n    /* \"#utility.yul\":2283:2289   */\n  dup5\n    /* \"#utility.yul\":2278:2281   */\n  dup3\n    /* \"#utility.yul\":2273:2276   */\n  dup6\n    /* \"#utility.yul\":2238:2290   */\n  tag_30\n  jump\t// in\ntag_85:\n    /* \"#utility.yul\":1957:2296   */\n  pop\n    /* \"#utility.yul\":1862:2296   */\n  swap4\n  swap3\n  pop\n  pop\n  pop\n  jump\t// out\n    /* \"#utility.yul\":2316:2671   */\ntag_32:\n    /* \"#utility.yul\":2383:2388   */\n  0x00\n    /* \"#utility.yul\":2432:2435   */\n  dup3\n    /* \"#utility.yul\":2425:2429   */\n  0x1f\n    /* \"#utility.yul\":2417:2423   */\n  dup4\n    /* \"#utility.yul\":2413:2430   */\n  add\n    /* \"#utility.yul\":2409:2436   */\n  slt\n    /* \"#utility.yul\":2399:2521   */\n  tag_87\n  jumpi\n    /* \"#utility.yul\":2440:2519   */\n  tag_88\n  tag_23\n  jump\t// in\ntag_88:\n    /* \"#utility.yul\":2399:2521   */\ntag_87:\n    /* \"#utility.yul\":2550:2556   */\n  dup2\n    /* \"#utility.yul\":2544:2557   */\n  mload\n    /* \"#utility.yul\":2575:2665   */\n  tag_89\n    /* \"#utility.yul\":2661:2664   */\n  dup5\n    /* \"#utility.yul\":2653:2659   */\n  dup3\n    /* \"#utility.yul\":2646:2650   */\n  0x20\n    /* \"#utility.yul\":2638:2644   */\n  dup7\n    /* \"#utility.yul\":2634:2651   */\n  add\n    /* \"#utility.yul\":2575:2665   */\n  tag_31\n  jump\t// in\ntag_89:\n    /* \"#utility.yul\":2566:2665   */\n  swap2\n  pop\n    /* \"#utility.yul\":2389:2671   */\n  pop\n    /* \"#utility.yul\":2316:2671   */\n  swap3\n  swap2\n  pop\n  pop\n  jump\t// out\n    /* \"#utility.yul\":2677:2803   */\ntag_33:\n    /* \"#utility.yul\":2714:2721   */\n  0x00\n    /* \"#utility.yul\":2754:2796   */\n  0xffffffffffffffffffffffffffffffffffffffff\n    /* \"#utility.yul\":2747:2752   */\n  dup3\n    /* \"#utility.yul\":2743:2797   */\n  and\n    /* \"#utility.yul\":2732:2797   */\n  swap1\n  pop\n    /* \"#utility.yul\":2677:2803   */\n  swap2\n  swap1\n  pop\n  jump\t// out\n    /* \"#utility.yul\":2809:2905   */\ntag_34:\n    /* \"#utility.yul\":2846:2853   */\n  0x00\n    /* \"#utility.yul\":2875:2899   */\n  tag_92\n    /* \"#utility.yul\":2893:2898   */\n  dup3\n    /* \"#utility.yul\":2875:2899   */\n  tag_33\n  jump\t// in\ntag_92:\n    /* \"#utility.yul\":2864:2899   */\n  swap1\n  pop\n    /* \"#utility.yul\":2809:2905   */\n  swap2\n  swap1\n  pop\n  jump\t// out\n    /* \"#utility.yul\":2911:3033   */\ntag_35:\n    /* \"#utility.yul\":2984:3008   */\n  tag_94\n    /* \"#utility.yul\":3002:3007   */\n  dup2\n    /* \"#utility.yul\":2984:3008   */\n  tag_34\n  jump\t// in\ntag_94:\n    /* \"#utility.yul\":2977:2982   */\n  dup2\n    /* \"#utility.yul\":2974:3009   */\n  eq\n    /* \"#utility.yul\":2964:3027   */\n  tag_95\n  jumpi\n    /* \"#utility.yul\":3023:3024   */\n  0x00\n    /* \"#utility.yul\":3020:3021   */\n  dup1\n    /* \"#utility.yul\":3013:3025   */\n  revert\n    /* \"#utility.yul\":2964:3027   */\ntag_95:\n    /* \"#utility.yul\":2911:3033   */\n  pop\n  jump\t// out\n    /* \"#utility.yul\":3039:3182   */\ntag_36:\n    /* \"#utility.yul\":3096:3101   */\n  0x00\n    /* \"#utility.yul\":3127:3133   */\n  dup2\n    /* \"#utility.yul\":3121:3134   */\n  mload\n    /* \"#utility.yul\":3112:3134   */\n  swap1\n  pop\n    /* \"#utility.yul\":3143:3176   */\n  tag_97\n    /* \"#utility.yul\":3170:3175   */\n  dup2\n    /* \"#utility.yul\":3143:3176   */\n  tag_35\n  jump\t// in\ntag_97:\n    /* \"#utility.yul\":3039:3182   */\n  swap3\n  swap2\n  pop\n  pop\n  jump\t// out\n    /* \"#utility.yul\":3188:4197   */\ntag_3:\n    /* \"#utility.yul\":3296:3302   */\n  0x00\n    /* \"#utility.yul\":3304:3310   */\n  dup1\n    /* \"#utility.yul\":3312:3318   */\n  0x00\n    /* \"#utility.yul\":3361:3363   */\n  0x60\n    /* \"#utility.yul\":3349:3358   */\n  dup5\n    /* \"#utility.yul\":3340:3347   */\n  dup7\n    /* \"#utility.yul\":3336:3359   */\n  sub\n    /* \"#utility.yul\":3332:3364   */\n  slt\n    /* \"#utility.yul\":3329:3448   */\n  iszero\n  tag_99\n  jumpi\n    /* \"#utility.yul\":3367:3446   */\n  tag_100\n  tag_21\n  jump\t// in\ntag_100:\n    /* \"#utility.yul\":3329:3448   */\ntag_99:\n    /* \"#utility.yul\":3508:3509   */\n  0x00\n    /* \"#utility.yul\":3497:3506   */\n  dup5\n    /* \"#utility.yul\":3493:3510   */\n  add\n    /* \"#utility.yul\":3487:3511   */\n  mload\n    /* \"#utility.yul\":3538:3556   */\n  0xffffffffffffffff\n    /* \"#utility.yul\":3530:3536   */\n  dup2\n    /* \"#utility.yul\":3527:3557   */\n  gt\n    /* \"#utility.yul\":3524:3641   */\n  iszero\n  tag_101\n  jumpi\n    /* \"#utility.yul\":3560:3639   */\n  tag_102\n  tag_22\n  jump\t// in\ntag_102:\n    /* \"#utility.yul\":3524:3641   */\ntag_101:\n    /* \"#utility.yul\":3665:3739   */\n  tag_103\n    /* \"#utility.yul\":3731:3738   */\n  dup7\n    /* \"#utility.yul\":3722:3728   */\n  dup3\n    /* \"#utility.yul\":3711:3720   */\n  dup8\n    /* \"#utility.yul\":3707:3729   */\n  add\n    /* \"#utility.yul\":3665:3739   */\n  tag_32\n  jump\t// in\ntag_103:\n    /* \"#utility.yul\":3655:3739   */\n  swap4\n  pop\n    /* \"#utility.yul\":3458:3749   */\n  pop\n    /* \"#utility.yul\":3809:3811   */\n  0x20\n    /* \"#utility.yul\":3798:3807   */\n  dup5\n    /* \"#utility.yul\":3794:3812   */\n  add\n    /* \"#utility.yul\":3788:3813   */\n  mload\n    /* \"#utility.yul\":3840:3858   */\n  0xffffffffffffffff\n    /* \"#utility.yul\":3832:3838   */\n  dup2\n    /* \"#utility.yul\":3829:3859   */\n  gt\n    /* \"#utility.yul\":3826:3943   */\n  iszero\n  tag_104\n  jumpi\n    /* \"#utility.yul\":3862:3941   */\n  tag_105\n  tag_22\n  jump\t// in\ntag_105:\n    /* \"#utility.yul\":3826:3943   */\ntag_104:\n    /* \"#utility.yul\":3967:4041   */\n  tag_106\n    /* \"#utility.yul\":4033:4040   */\n  dup7\n    /* \"#utility.yul\":4024:4030   */\n  dup3\n    /* \"#utility.yul\":4013:4022   */\n  dup8\n    /* \"#utility.yul\":4009:4031   */\n  add\n    /* \"#utility.yul\":3967:4041   */\n  tag_32\n  jump\t// in\ntag_106:\n    /* \"#utility.yul\":3957:4041   */\n  swap3\n  pop\n    /* \"#utility.yul\":3759:4051   */\n  pop\n    /* \"#utility.yul\":4090:4092   */\n  0x40\n    /* \"#utility.yul\":4116:4180   */\n  tag_107\n    /* \"#utility.yul\":4172:4179   */\n  dup7\n    /* \"#utility.yul\":4163:4169   */\n  dup3\n    /* \"#utility.yul\":4152:4161   */\n  dup8\n    /* \"#utility.yul\":4148:4170   */\n  add\n    /* \"#utility.yul\":4116:4180   */\n  tag_36\n  jump\t// in\ntag_107:\n    /* \"#utility.yul\":4106:4180   */\n  swap2\n  pop\n    /* \"#utility.yul\":4061:4190   */\n  pop\n    /* \"#utility.yul\":3188:4197   */\n  swap3\n  pop\n  swap3\n  pop\n  swap3\n  jump\t// out\n    /* \"#utility.yul\":4203:4302   */\ntag_37:\n    /* \"#utility.yul\":4255:4261   */\n  0x00\n    /* \"#utility.yul\":4289:4294   */\n  dup2\n    /* \"#utility.yul\":4283:4295   */\n  mload\n    /* \"#utility.yul\":4273:4295   */\n  swap1\n  pop\n    /* \"#utility.yul\":4203:4302   */\n  swap2\n  swap1\n  pop\n  jump\t// out\n    /* \"#utility.yul\":4308:4488   */\ntag_38:\n    /* \"#utility.yul\":4356:4433   */\n  0x4e487b7100000000000000000000000000000000000000000000000000000000\n    /* \"#utility.yul\":4353:4354   */\n  0x00\n    /* \"#utility.yul\":4346:4434   */\n  mstore\n    /* \"#utility.yul\":4453:4457   */\n  0x22\n    /* \"#utility.yul\":4450:4451   */\n  0x04\n    /* \"#utility.yul\":4443:4458   */\n  mstore\n    /* \"#utility.yul\":4477:4481   */\n  0x24\n    /* \"#utility.yul\":4474:4475   */\n  0x00\n    /* \"#utility.yul\":4467:4482   */\n  revert\n    /* \"#utility.yul\":4494:4814   */\ntag_39:\n    /* \"#utility.yul\":4538:4544   */\n  0x00\n    /* \"#utility.yul\":4575:4576   */\n  0x02\n    /* \"#utility.yul\":4569:4573   */\n  dup3\n    /* \"#utility.yul\":4565:4577   */\n  div\n    /* \"#utility.yul\":4555:4577   */\n  swap1\n  pop\n    /* \"#utility.yul\":4622:4623   */\n  0x01\n    /* \"#utility.yul\":4616:4620   */\n  dup3\n    /* \"#utility.yul\":4612:4624   */\n  and\n    /* \"#utility.yul\":4643:4661   */\n  dup1\n    /* \"#utility.yul\":4633:4714   */\n  tag_111\n  jumpi\n    /* \"#utility.yul\":4699:4703   */\n  0x7f\n    /* \"#utility.yul\":4691:4697   */\n  dup3\n    /* \"#utility.yul\":4687:4704   */\n  and\n    /* \"#utility.yul\":4677:4704   */\n  swap2\n  pop\n    /* \"#utility.yul\":4633:4714   */\ntag_111:\n    /* \"#utility.yul\":4761:4763   */\n  0x20\n    /* \"#utility.yul\":4753:4759   */\n  dup3\n    /* \"#utility.yul\":4750:4764   */\n  lt\n    /* \"#utility.yul\":4730:4748   */\n  dup2\n    /* \"#utility.yul\":4727:4765   */\n  sub\n    /* \"#utility.yul\":4724:4808   */\n  tag_112\n  jumpi\n    /* \"#utility.yul\":4780:4798   */\n  tag_113\n  tag_38\n  jump\t// in\ntag_113:\n    /* \"#utility.yul\":4724:4808   */\ntag_112:\n    /* \"#utility.yul\":4545:4814   */\n  pop\n    /* \"#utility.yul\":4494:4814   */\n  swap2\n  swap1\n  pop\n  jump\t// out\n    /* \"#utility.yul\":4820:4961   */\ntag_40:\n    /* \"#utility.yul\":4869:4873   */\n  0x00\n    /* \"#utility.yul\":4892:4895   */\n  dup2\n    /* \"#utility.yul\":4884:4895   */\n  swap1\n  pop\n    /* \"#utility.yul\":4915:4918   */\n  dup2\n    /* \"#utility.yul\":4912:4913   */\n  0x00\n    /* \"#utility.yul\":4905:4919   */\n  mstore\n    /* \"#utility.yul\":4949:4953   */\n  0x20\n    /* \"#utility.yul\":4946:4947   */\n  0x00\n    /* \"#utility.yul\":4936:4954   */\n  keccak256\n    /* \"#utility.yul\":4928:4954   */\n  swap1\n  pop\n    /* \"#utility.yul\":4820:4961   */\n  swap2\n  swap1\n  pop\n  jump\t// out\n    /* \"#utility.yul\":4967:5060   */\ntag_41:\n    /* \"#utility.yul\":5004:5010   */\n  0x00\n    /* \"#utility.yul\":5051:5053   */\n  0x20\n    /* \"#utility.yul\":5046:5048   */\n  0x1f\n    /* \"#utility.yul\":5039:5044   */\n  dup4\n    /* \"#utility.yul\":5035:5049   */\n  add\n    /* \"#utility.yul\":5031:5054   */\n  div\n    /* \"#utility.yul\":5021:5054   */\n  swap1\n  pop\n    /* \"#utility.yul\":4967:5060   */\n  swap2\n  swap1\n  pop\n  jump\t// out\n    /* \"#utility.yul\":5066:5173   */\ntag_42:\n    /* \"#utility.yul\":5110:5118   */\n  0x00\n    /* \"#utility.yul\":5160:5165   */\n  dup3\n    /* \"#utility.yul\":5154:5158   */\n  dup3\n    /* \"#utility.yul\":5150:5166   */\n  shl\n    /* \"#utility.yul\":5129:5166   */\n  swap1\n  pop\n    /* \"#utility.yul\":5066:5173   */\n  swap3\n  swap2\n  pop\n  pop\n  jump\t// out\n    /* \"#utility.yul\":5179:5572   */\ntag_43:\n    /* \"#utility.yul\":5248:5254   */\n  0x00\n    /* \"#utility.yul\":5298:5299   */\n  0x08\n    /* \"#utility.yul\":5286:5296   */\n  dup4\n    /* \"#utility.yul\":5282:5300   */\n  mul\n    /* \"#utility.yul\":5321:5418   */\n  tag_118\n    /* \"#utility.yul\":5351:5417   */\n  0xffffffffffffffffffffffffffffffffffffffffffffffffffffffffffffffff\n    /* \"#utility.yul\":5340:5349   */\n  dup3\n    /* \"#utility.yul\":5321:5418   */\n  tag_42\n  jump\t// in\ntag_118:\n    /* \"#utility.yul\":5439:5478   */\n  tag_119\n    /* \"#utility.yul\":5469:5477   */\n  dup7\n    /* \"#utility.yul\":5458:5467   */\n  dup4\n    /* \"#utility.yul\":5439:5478   */\n  tag_42\n  jump\t// in\ntag_119:\n    /* \"#utility.yul\":5427:5478   */\n  swap6\n  pop\n    /* \"#utility.yul\":5511:5515   */\n  dup1\n    /* \"#utility.yul\":5507:5516   */\n  not\n    /* \"#utility.yul\":5500:5505   */\n  dup5\n    /* \"#utility.yul\":5496:5517   */\n  and\n    /* \"#utility.yul\":5487:5517   */\n  swap4\n  pop\n    /* \"#utility.yul\":5560:5564   */\n  dup1\n    /* \"#utility.yul\":5550:5558   */\n  dup7\n    /* \"#utility.yul\":5546:5565   */\n  and\n    /* \"#utility.yul\":5539:5544   */\n  dup5\n    /* \"#utility.yul\":5536:5566   */\n  or\n    /* \"#utility.yul\":5526:5566   */\n  swap3\n  pop\n    /* \"#utility.yul\":5255:5572   */\n  pop\n  pop\n    /* \"#utility.yul\":5179:5572   */\n  swap4\n  swap3\n  pop\n  pop\n  pop\n  jump\t// out\n    /* \"#utility.yul\":5578:5655   */\ntag_44:\n    /* \"#utility.yul\":5615:5622   */\n  0x00\n    /* \"#utility.yul\":5644:5649   */\n  dup2\n    /* \"#utility.yul\":5633:5649   */\n  swap1\n  pop\n    /* \"#utility.yul\":5578:5655   */\n  swap2\n  swap1\n  pop\n  jump\t// out\n    /* \"#utility.yul\":5661:5721   */\ntag_45:\n    /* \"#utility.yul\":5689:5692   */\n  0x00\n    /* \"#utility.yul\":5710:5715   */\n  dup2\n    /* \"#utility.yul\":5703:5715   */\n  swap1\n  pop\n    /* \"#utility.yul\":5661:5721   */\n  swap2\n  swap1\n  pop\n  jump\t// out\n    /* \"#utility.yul\":5727:5869   */\ntag_46:\n    /* \"#utility.yul\":5777:5786   */\n  0x00\n    /* \"#utility.yul\":5810:5863   */\n  tag_123\n    /* \"#utility.yul\":5828:5862   */\n  tag_124\n    /* \"#utility.yul\":5837:5861   */\n  tag_125\n    /* \"#utility.yul\":5855:5860   */\n  dup5\n    /* \"#utility.yul\":5837:5861   */\n  tag_44\n  jump\t// in\ntag_125:\n    /* \"#utility.yul\":5828:5862   */\n  tag_45\n  jump\t// in\ntag_124:\n    /* \"#utility.yul\":5810:5863   */\n  tag_44\n  jump\t// in\ntag_123:\n    /* \"#utility.yul\":5797:5863   */\n  swap1\n  pop\n    /* \"#utility.yul\":5727:5869   */\n  swap2\n  swap1\n  pop\n  jump\t// out\n    /* \"#utility.yul\":5875:5950   */\ntag_47:\n    /* \"#utility.yul\":5918:5921   */\n  0x00\n    /* \"#utility.yul\":5939:5944   */\n  dup2\n    /* \"#utility.yul\":5932:5944   */\n  swap1\n  pop\n    /* \"#utility.yul\":5875:5950   */\n  swap2\n  swap1\n  pop\n  jump\t// out\n    /* \"#utility.yul\":5956:6225   */\ntag_48:\n    /* \"#utility.yul\":6066:6105   */\n  tag_128\n    /* \"#utility.yul\":6097:6104   */\n  dup4\n    /* \"#utility.yul\":6066:6105   */\n  tag_46\n  jump\t// in\ntag_128:\n    /* \"#utility.yul\":6127:6218   */\n  tag_129\n    /* \"#utility.yul\":6176:6217   */\n  tag_130\n    /* \"#utility.yul\":6200:6216   */\n  dup3\n    /* \"#utility.yul\":6176:6217   */\n  tag_47\n  jump\t// in\ntag_130:\n    /* \"#utility.yul\":6168:6174   */\n  dup5\n    /* \"#utility.yul\":6161:6165   */\n  dup5\n    /* \"#utility.yul\":6155:6166   */\n  sload\n    /* \"#utility.yul\":6127:6218   */\n  tag_43\n  jump\t// in\ntag_129:\n    /* \"#utility.yul\":6121:6125   */\n  dup3\n    /* \"#utility.yul\":6114:6219   */\n  sstore\n    /* \"#utility.yul\":6032:6225   */\n  pop\n    /* \"#utility.yul\":5956:6225   */\n  pop\n  pop\n  pop\n  jump\t// out\n    /* \"#utility.yul\":6231:6304   */\ntag_49:\n    /* \"#utility.yul\":6276:6279   */\n  0x00\n    /* \"#utility.yul\":6231:6304   */\n  swap1\n  jump\t// out\n    /* \"#utility.yul\":6310:6499   */\ntag_50:\n    /* \"#utility.yul\":6387:6419   */\n  tag_133\n  tag_49\n  jump\t// in\ntag_133:\n    /* \"#utility.yul\":6428:6493   */\n  tag_134\n    /* \"#utility.yul\":6486:6492   */\n  dup2\n    /* \"#utility.yul\":6478:6484   */\n  dup5\n    /* \"#utility.yul\":6472:6476   */\n  dup5\n    /* \"#utility.yul\":6428:6493   */\n  tag_48\n  jump\t// in\ntag_134:\n    /* \"#utility.yul\":6363:6499   */\n  pop\n    /* \"#utility.yul\":6310:6499   */\n  pop\n  pop\n  jump\t// out\n    /* \"#utility.yul\":6505:6691   */\ntag_51:\n    /* \"#utility.yul\":6565:6685   */\ntag_136:\n    /* \"#utility.yul\":6582:6585   */\n  dup2\n    /* \"#utility.yul\":6575:6580   */\n  dup2\n    /* \"#utility.yul\":6572:6586   */\n  lt\n    /* \"#utility.yul\":6565:6685   */\n  iszero\n  tag_138\n  jumpi\n    /* \"#utility.yul\":6636:6675   */\n  tag_139\n    /* \"#utility.yul\":6673:6674   */\n  0x00\n    /* \"#utility.yul\":6666:6671   */\n  dup3\n    /* \"#utility.yul\":6636:6675   */\n  tag_50\n  jump\t// in\ntag_139:\n    /* \"#utility.yul\":6609:6610   */\n  0x01\n    /* \"#utility.yul\":6602:6607   */\n  dup2\n    /* \"#utility.yul\":6598:6611   */\n  add\n    /* \"#utility.yul\":6589:6611   */\n  swap1\n  pop\n    /* \"#utility.yul\":6565:6685   */\n  jump(tag_136)\ntag_138:\n    /* \"#utility.yul\":6505:6691   */\n  pop\n  pop\n  jump\t// out\n    /* \"#utility.yul\":6697:7240   */\ntag_52:\n    /* \"#utility.yul\":6798:6800   */\n  0x1f\n    /* \"#utility.yul\":6793:6796   */\n  dup3\n    /* \"#utility.yul\":6790:6801   */\n  gt\n    /* \"#utility.yul\":6787:7233   */\n  iszero\n  tag_141\n  jumpi\n    /* \"#utility.yul\":6832:6870   */\n  tag_142\n    /* \"#utility.yul\":6864:6869   */\n  dup2\n    /* \"#utility.yul\":6832:6870   */\n  tag_40\n  jump\t// in\ntag_142:\n    /* \"#utility.yul\":6916:6945   */\n  tag_143\n    /* \"#utility.yul\":6934:6944   */\n  dup5\n    /* \"#utility.yul\":6916:6945   */\n  tag_41\n  jump\t// in\ntag_143:\n    /* \"#utility.yul\":6906:6914   */\n  dup2\n    /* \"#utility.yul\":6902:6946   */\n  add\n    /* \"#utility.yul\":7099:7101   */\n  0x20\n    /* \"#utility.yul\":7087:7097   */\n  dup6\n    /* \"#utility.yul\":7084:7102   */\n  lt\n    /* \"#utility.yul\":7081:7130   */\n  iszero\n  tag_144\n  jumpi\n    /* \"#utility.yul\":7120:7128   */\n  dup2\n    /* \"#utility.yul\":7105:7128   */\n  swap1\n  pop\n    /* \"#utility.yul\":7081:7130   */\ntag_144:\n    /* \"#utility.yul\":7143:7223   */\n  tag_145\n    /* \"#utility.yul\":7199:7221   */\n  tag_146\n    /* \"#utility.yul\":7217:7220   */\n  dup6\n    /* \"#utility.yul\":7199:7221   */\n  tag_41\n  jump\t// in\ntag_146:\n    /* \"#utility.yul\":7189:7197   */\n  dup4\n    /* \"#utility.yul\":7185:7222   */\n  add\n    /* \"#utility.yul\":7172:7183   */\n  dup3\n    /* \"#utility.yul\":7143:7223   */\n  tag_51\n  jump\t// in\ntag_145:\n    /* \"#utility.yul\":6802:7233   */\n  pop\n  pop\n    /* \"#utility.yul\":6787:7233   */\ntag_141:\n    /* \"#utility.yul\":6697:7240   */\n  pop\n  pop\n  pop\n  jump\t// out\n    /* \"#utility.yul\":7246:7363   */\ntag_53:\n    /* \"#utility.yul\":7300:7308   */\n  0x00\n    /* \"#utility.yul\":7350:7355   */\n  dup3\n    /* \"#utility.yul\":7344:7348   */\n  dup3\n    /* \"#utility.yul\":7340:7356   */\n  shr\n    /* \"#utility.yul\":7319:7356   */\n  swap1\n  pop\n    /* \"#utility.yul\":7246:7363   */\n  swap3\n  swap2\n  pop\n  pop\n  jump\t// out\n    /* \"#utility.yul\":7369:7538   */\ntag_54:\n    /* \"#utility.yul\":7413:7419   */\n  0x00\n    /* \"#utility.yul\":7446:7497   */\n  tag_149\n    /* \"#utility.yul\":7494:7495   */\n  0x00\n    /* \"#utility.yul\":7490:7496   */\n  not\n    /* \"#utility.yul\":7482:7487   */\n  dup5\n    /* \"#utility.yul\":7479:7480   */\n  0x08\n    /* \"#utility.yul\":7475:7488   */\n  mul\n    /* \"#utility.yul\":7446:7497   */\n  tag_53\n  jump\t// in\ntag_149:\n    /* \"#utility.yul\":7442:7498   */\n  not\n    /* \"#utility.yul\":7527:7531   */\n  dup1\n    /* \"#utility.yul\":7521:7525   */\n  dup4\n    /* \"#utility.yul\":7517:7532   */\n  and\n    /* \"#utility.yul\":7507:7532   */\n  swap2\n  pop\n    /* \"#utility.yul\":7420:7538   */\n  pop\n    /* \"#utility.yul\":7369:7538   */\n  swap3\n  swap2\n  pop\n  pop\n  jump\t// out\n    /* \"#utility.yul\":7543:7838   */\ntag_55:\n    /* \"#utility.yul\":7619:7623   */\n  0x00\n    /* \"#utility.yul\":7765:7794   */\n  tag_151\n    /* \"#utility.yul\":7790:7793   */\n  dup4\n    /* \"#utility.yul\":7784:7788   */\n  dup4\n    /* \"#utility.yul\":7765:7794   */\n  tag_54\n  jump\t// in\ntag_151:\n    /* \"#utility.yul\":7757:7794   */\n  swap2\n  pop\n    /* \"#utility.yul\":7827:7830   */\n  dup3\n    /* \"#utility.yul\":7824:7825   */\n  0x02\n    /* \"#utility.yul\":7820:7831   */\n  mul\n    /* \"#utility.yul\":7814:7818   */\n  dup3\n    /* \"#utility.yul\":7811:7832   */\n  or\n    /* \"#utility.yul\":7803:7832   */\n  swap1\n  pop\n    /* \"#utility.yul\":7543:7838   */\n  swap3\n  swap2\n  pop\n  pop\n  jump\t// out\n    /* \"#utility.yul\":7843:9238   */\ntag_9:\n    /* \"#utility.yul\":7960:7997   */\n  tag_153\n    /* \"#utility.yul\":7993:7996   */\n  dup3\n    /* \"#utility.yul\":7960:7997   */\n  tag_37\n  jump\t// in\ntag_153:\n    /* \"#utility.yul\":8062:8080   */\n  0xffffffffffffffff\n    /* \"#utility.yul\":8054:8060   */\n  dup2\n    /* \"#utility.yul\":8051:8081   */\n  gt\n    /* \"#utility.yul\":8048:8104   */\n  iszero\n  tag_154\n  jumpi\n    /* \"#utility.yul\":8084:8102   */\n  tag_155\n  tag_26\n  jump\t// in\ntag_155:\n    /* \"#utility.yul\":8048:8104   */\ntag_154:\n    /* \"#utility.yul\":8128:8166   */\n  tag_156\n    /* \"#utility.yul\":8160:8164   */\n  dup3\n    /* \"#utility.yul\":8154:8165   */\n  sload\n    /* \"#utility.yul\":8128:8166   */\n  tag_39\n  jump\t// in\ntag_156:\n    /* \"#utility.yul\":8213:8280   */\n  tag_157\n    /* \"#utility.yul\":8273:8279   */\n  dup3\n    /* \"#utility.yul\":8265:8271   */\n  dup3\n    /* \"#utility.yul\":8259:8263   */\n  dup6\n    /* \"#utility.yul\":8213:8280   */\n  tag_52\n  jump\t// in\ntag_157:\n    /* \"#utility.yul\":8307:8308   */\n  0x00\n    /* \"#utility.yul\":8331:8335   */\n  0x20\n    /* \"#utility.yul\":8318:8335   */\n  swap1\n  pop\n    /* \"#utility.yul\":8363:8365   */\n  0x1f\n    /* \"#utility.yul\":8355:8361   */\n  dup4\n    /* \"#utility.yul\":8352:8366   */\n  gt\n    /* \"#utility.yul\":8380:8381   */\n  0x01\n    /* \"#utility.yul\":8375:8993   */\n  dup2\n  eq\n  tag_159\n  jumpi\n    /* \"#utility.yul\":9037:9038   */\n  0x00\n    /* \"#utility.yul\":9054:9060   */\n  dup5\n    /* \"#utility.yul\":9051:9128   */\n  iszero\n  tag_160\n  jumpi\n    /* \"#utility.yul\":9103:9112   */\n  dup3\n    /* \"#utility.yul\":9098:9101   */\n  dup8\n    /* \"#utility.yul\":9094:9113   */\n  add\n    /* \"#utility.yul\":9088:9114   */\n  mload\n    /* \"#utility.yul\":9079:9114   */\n  swap1\n  pop\n    /* \"#utility.yul\":9051:9128   */\ntag_160:\n    /* \"#utility.yul\":9154:9221   */\n  tag_161\n    /* \"#utility.yul\":9214:9220   */\n  dup6\n    /* \"#utility.yul\":9207:9212   */\n  dup3\n    /* \"#utility.yul\":9154:9221   */\n  tag_55\n  jump\t// in\ntag_161:\n    /* \"#utility.yul\":9148:9152   */\n  dup7\n    /* \"#utility.yul\":9141:9222   */\n  sstore\n    /* \"#utility.yul\":9010:9232   */\n  pop\n    /* \"#utility.yul\":8345:9232   */\n  jump(tag_158)\n    /* \"#utility.yul\":8375:8993   */\ntag_159:\n    /* \"#utility.yul\":8427:8431   */\n  0x1f\n    /* \"#utility.yul\":8423:8432   */\n  not\n    /* \"#utility.yul\":8415:8421   */\n  dup5\n    /* \"#utility.yul\":8411:8433   */\n  and\n    /* \"#utility.yul\":8461:8498   */\n  tag_162\n    /* \"#utility.yul\":8493:8497   */\n  dup7\n    /* \"#utility.yul\":8461:8498   */\n  tag_40\n  jump\t// in\ntag_162:\n    /* \"#utility.yul\":8520:8521   */\n  0x00\n    /* \"#utility.yul\":8534:8742   */\ntag_163:\n    /* \"#utility.yul\":8548:8555   */\n  dup3\n    /* \"#utility.yul\":8545:8546   */\n  dup2\n    /* \"#utility.yul\":8542:8556   */\n  lt\n    /* \"#utility.yul\":8534:8742   */\n  iszero\n  tag_165\n  jumpi\n    /* \"#utility.yul\":8627:8636   */\n  dup5\n    /* \"#utility.yul\":8622:8625   */\n  dup10\n    /* \"#utility.yul\":8618:8637   */\n  add\n    /* \"#utility.yul\":8612:8638   */\n  mload\n    /* \"#utility.yul\":8604:8610   */\n  dup3\n    /* \"#utility.yul\":8597:8639   */\n  sstore\n    /* \"#utility.yul\":8678:8679   */\n  0x01\n    /* \"#utility.yul\":8670:8676   */\n  dup3\n    /* \"#utility.yul\":8666:8680   */\n  add\n    /* \"#utility.yul\":8656:8680   */\n  swap2\n  pop\n    /* \"#utility.yul\":8725:8727   */\n  0x20\n    /* \"#utility.yul\":8714:8723   */\n  dup6\n    /* \"#utility.yul\":8710:8728   */\n  add\n    /* \"#utility.yul\":8697:8728   */\n  swap5\n  pop\n    /* \"#utility.yul\":8571:8575   */\n  0x20\n    /* \"#utility.yul\":8568:8569   */\n  dup2\n    /* \"#utility.yul\":8564:8576   */\n  add\n    /* \"#utility.yul\":8559:8576   */\n  swap1\n  pop\n    /* \"#utility.yul\":8534:8742   */\n  jump(tag_163)\ntag_165:\n    /* \"#utility.yul\":8770:8776   */\n  dup7\n    /* \"#utility.yul\":8761:8768   */\n  dup4\n    /* \"#utility.yul\":8758:8777   */\n  lt\n    /* \"#utility.yul\":8755:8934   */\n  iszero\n  tag_166\n  jumpi\n    /* \"#utility.yul\":8828:8837   */\n  dup5\n    /* \"#utility.yul\":8823:8826   */\n  dup10\n    /* \"#utility.yul\":8819:8838   */\n  add\n    /* \"#utility.yul\":8813:8839   */\n  mload\n    /* \"#utility.yul\":8871:8919   */\n  tag_167\n    /* \"#utility.yul\":8913:8917   */\n  0x1f\n    /* \"#utility.yul\":8905:8911   */\n  dup10\n    /* \"#utility.yul\":8901:8918   */\n  and\n    /* \"#utility.yul\":8890:8899   */\n  dup3\n    /* \"#utility.yul\":8871:8919   */\n  tag_54\n  jump\t// in\ntag_167:\n    /* \"#utility.yul\":8863:8869   */\n  dup4\n    /* \"#utility.yul\":8856:8920   */\n  sstore\n    /* \"#utility.yul\":8778:8934   */\n  pop\n    /* \"#utility.yul\":8755:8934   */\ntag_166:\n    /* \"#utility.yul\":8980:8981   */\n  0x01\n    /* \"#utility.yul\":8976:8977   */\n  0x02\n    /* \"#utility.yul\":8968:8974   */\n  dup9\n    /* \"#utility.yul\":8964:8978   */\n  mul\n    /* \"#utility.yul\":8960:8982   */\n  add\n    /* \"#utility.yul\":8954:8958   */\n  dup9\n    /* \"#utility.yul\":8947:8983   */\n  sstore\n    /* \"#utility.yul\":8382:8993   */\n  pop\n  pop\n  pop\n    /* \"#utility.yul\":8345:9232   */\ntag_158:\n  pop\n    /* \"#utility.yul\":7935:9238   */\n  pop\n  pop\n  pop\n    /* \"#utility.yul\":7843:9238   */\n  pop\n  pop\n  jump\t// out\n    /* \"#utility.yul\":9244:9362   */\ntag_56:\n    /* \"#utility.yul\":9331:9355   */\n  tag_169\n    /* \"#utility.yul\":9349:9354   */\n  dup2\n    /* \"#utility.yul\":9331:9355   */\n  tag_34\n  jump\t// in\ntag_169:\n    /* \"#utility.yul\":9326:9329   */\n  dup3\n    /* \"#utility.yul\":9319:9356   */\n  mstore\n    /* \"#utility.yul\":9244:9362   */\n  pop\n  pop\n  jump\t// out\n    /* \"#utility.yul\":9368:9590   */\ntag_14:\n    /* \"#utility.yul\":9461:9465   */\n  0x00\n    /* \"#utility.yul\":9499:9501   */\n  0x20\n    /* \"#utility.yul\":9488:9497   */\n  dup3\n    /* \"#utility.yul\":9484:9502   */\n  add\n    /* \"#utility.yul\":9476:9502   */\n  swap1\n  pop\n    /* \"#utility.yul\":9512:9583   */\n  tag_171\n    /* \"#utility.yul\":9580:9581   */\n  0x00\n    /* \"#utility.yul\":9569:9578   */\n  dup4\n    /* \"#utility.yul\":9565:9582   */\n  add\n    /* \"#utility.yul\":9556:9562   */\n  dup5\n    /* \"#utility.yul\":9512:9583   */\n  tag_56\n  jump\t// in\ntag_171:\n    /* \"#utility.yul\":9368:9590   */\n  swap3\n  swap2\n  pop\n  pop\n  jump\t// out\n    /* \"contracts/NFT/CertificateContract.sol\":175:1166  contract CertificateContract is ERC721, Ownable {... */\ntag_18:\n  dataSize(sub_0)\n  dup1\n  dataOffset(sub_0)\n  0x00\n  codecopy\n  0x00\n  return\nstop\n\nsub_0: assembly {\n        /* \"contracts/NFT/CertificateContract.sol\":175:1166  contract CertificateContract is ERC721, Ownable {... */\n      mstore(0x40, 0x80)\n      callvalue\n      dup1\n      iszero\n      tag_1\n      jumpi\n      0x00\n      dup1\n      revert\n    tag_1:\n      pop\n      jumpi(tag_2, lt(calldatasize, 0x04))\n      shr(0xe0, calldataload(0x00))\n      dup1\n      0x715018a6\n      gt\n      tag_21\n      jumpi\n      dup1\n      0xa22cb465\n      gt\n      tag_22\n      jumpi\n      dup1\n      0xa22cb465\n      eq\n      tag_16\n      jumpi\n      dup1\n      0xb88d4fde\n      eq\n      tag_17\n      jumpi\n      dup1\n      0xc87b56dd\n      eq\n      tag_18\n      jumpi\n      dup1\n      0xe985e9c5\n      eq\n      tag_19\n      jumpi\n      dup1\n      0xf2fde38b\n      eq\n      tag_20\n      jumpi\n      jump(tag_2)\n    tag_22:\n      dup1\n      0x715018a6\n      eq\n      tag_12\n      jumpi\n      dup1\n      0x7a490fe1\n      eq\n      tag_13\n      jumpi\n      dup1\n      0x8da5cb5b\n      eq\n      tag_14\n      jumpi\n      dup1\n      0x95d89b41\n      eq\n      tag_15\n      jumpi\n      jump(tag_2)\n    tag_21:\n      dup1\n      0x0ce51f56\n      gt\n      tag_23\n      jumpi\n      dup1\n      0x0ce51f56\n      eq\n      tag_7\n      jumpi\n      dup1\n      0x23b872dd\n      eq\n      tag_8\n      jumpi\n      dup1\n      0x42842e0e\n      eq\n      tag_9\n      jumpi\n      dup1\n      0x6352211e\n      eq\n      tag_10\n      jumpi\n      dup1\n      0x70a08231\n      eq\n      tag_11\n      jumpi\n      jump(tag_2)\n    tag_23:\n      dup1\n      0x01ffc9a7\n      eq\n      tag_3\n      jumpi\n      dup1\n      0x06fdde03\n      eq\n      tag_4\n      jumpi\n      dup1\n      0x081812fc\n      eq\n      tag_5\n      jumpi\n      dup1\n      0x095ea7b3\n      eq\n      tag_6\n      jumpi\n    tag_2:\n      0x00\n      dup1\n      revert\n        /* \"@openzeppelin/contracts/token/ERC721/ERC721.sol\":1561:1861  function supportsInterface(bytes4 interfaceId) public view virtual override(ERC165, IERC165) returns (bool) {... */\n    tag_3:\n      tag_24\n      0x04\n      dup1\n      calldatasize\n      sub\n      dup2\n      add\n      swap1\n      tag_25\n      swap2\n      swap1\n      tag_26\n      jump\t// in\n    tag_25:\n      tag_27\n      jump\t// in\n    tag_24:\n      mload(0x40)\n      tag_28\n      swap2\n      swap1\n      tag_29\n      jump\t// in\n    tag_28:\n      mload(0x40)\n      dup1\n      swap2\n      sub\n      swap1\n      return\n        /* \"@openzeppelin/contracts/token/ERC721/ERC721.sol\":2365:2454  function name() public view virtual returns (string memory) {... */\n    tag_4:\n      tag_30\n      tag_31\n      jump\t// in\n    tag_30:\n      mload(0x40)\n      tag_32\n      swap2\n      swap1\n      tag_33\n      jump\t// in\n    tag_32:\n      mload(0x40)\n      dup1\n      swap2\n      sub\n      swap1\n      return\n        /* \"@openzeppelin/contracts/token/ERC721/ERC721.sol\":3497:3651  function getApproved(uint256 tokenId) public view virtual returns (address) {... */\n    tag_5:\n      tag_34\n      0x04\n      dup1\n      calldatasize\n      sub\n      dup2\n      add\n      swap1\n      tag_35\n      swap2\n      swap1\n      tag_36\n      jump\t// in\n    tag_35:\n      tag_37\n      jump\t// in\n    tag_34:\n      mload(0x40)\n      tag_38\n      swap2\n      swap1\n      tag_39\n      jump\t// in\n    tag_38:\n      mload(0x40)\n      dup1\n      swap2\n      sub\n      swap1\n      return\n        /* \"@openzeppelin/contracts/token/ERC721/ERC721.sol\":3323:3436  function approve(address to, uint256 tokenId) public virtual {... */\n    tag_6:\n      tag_40\n      0x04\n      dup1\n      calldatasize\n      sub\n      dup2\n      add\n      swap1\n      tag_41\n      swap2\n      swap1\n      tag_42\n      jump\t// in\n    tag_41:\n      tag_43\n      jump\t// in\n    tag_40:\n      stop\n        /* \"contracts/NFT/CertificateContract.sol\":882:1163  function issueCertificate(address recipient, uint256 tokenId, string memory uri) external onlyOwner {... */\n    tag_7:\n      tag_44\n      0x04\n      dup1\n      calldatasize\n      sub\n      dup2\n      add\n      swap1\n      tag_45\n      swap2\n      swap1\n      tag_46\n      jump\t// in\n    tag_45:\n      tag_47\n      jump\t// in\n    tag_44:\n      stop\n        /* \"@openzeppelin/contracts/token/ERC721/ERC721.sol\":4143:4721  function transferFrom(address from, address to, uint256 tokenId) public virtual {... */\n    tag_8:\n      tag_48\n      0x04\n      dup1\n      calldatasize\n      sub\n      dup2\n      add\n      swap1\n      tag_49\n      swap2\n      swap1\n      tag_50\n      jump\t// in\n    tag_49:\n      tag_51\n      jump\t// in\n    tag_48:\n      stop\n        /* \"@openzeppelin/contracts/token/ERC721/ERC721.sol\":4787:4919  function safeTransferFrom(address from, address to, uint256 tokenId) public {... */\n    tag_9:\n      tag_52\n      0x04\n      dup1\n      calldatasize\n      sub\n      dup2\n      add\n      swap1\n      tag_53\n      swap2\n      swap1\n      tag_50\n      jump\t// in\n    tag_53:\n      tag_54\n      jump\t// in\n    tag_52:\n      stop\n        /* \"@openzeppelin/contracts/token/ERC721/ERC721.sol\":2185:2303  function ownerOf(uint256 tokenId) public view virtual returns (address) {... */\n    tag_10:\n      tag_55\n      0x04\n      dup1\n      calldatasize\n      sub\n      dup2\n      add\n      swap1\n      tag_56\n      swap2\n      swap1\n      tag_36\n      jump\t// in\n    tag_56:\n      tag_57\n      jump\t// in\n    tag_55:\n      mload(0x40)\n      tag_58\n      swap2\n      swap1\n      tag_39\n      jump\t// in\n    tag_58:\n      mload(0x40)\n      dup1\n      swap2\n      sub\n      swap1\n      return\n        /* \"@openzeppelin/contracts/token/ERC721/ERC721.sol\":1920:2128  function balanceOf(address owner) public view virtual returns (uint256) {... */\n    tag_11:\n      tag_59\n      0x04\n      dup1\n      calldatasize\n      sub\n      dup2\n      add\n      swap1\n      tag_60\n      swap2\n      swap1\n      tag_61\n      jump\t// in\n    tag_60:\n      tag_62\n      jump\t// in\n    tag_59:\n      mload(0x40)\n      tag_63\n      swap2\n      swap1\n      tag_64\n      jump\t// in\n    tag_63:\n      mload(0x40)\n      dup1\n      swap2\n      sub\n      swap1\n      return\n        /* \"@openzeppelin/contracts/access/Ownable.sol\":2293:2394  function renounceOwnership() public virtual onlyOwner {... */\n    tag_12:\n      tag_65\n      tag_66\n      jump\t// in\n    tag_65:\n      stop\n        /* \"contracts/NFT/CertificateContract.sol\":487:677  function setCertificateURI(uint256 tokenId, string memory uri) external onlyOwner {... */\n    tag_13:\n      tag_67\n      0x04\n      dup1\n      calldatasize\n      sub\n      dup2\n      add\n      swap1\n      tag_68\n      swap2\n      swap1\n      tag_69\n      jump\t// in\n    tag_68:\n      tag_70\n      jump\t// in\n    tag_67:\n      stop\n        /* \"@openzeppelin/contracts/access/Ownable.sol\":1638:1723  function owner() public view virtual returns (address) {... */\n    tag_14:\n      tag_71\n      tag_72\n      jump\t// in\n    tag_71:\n      mload(0x40)\n      tag_73\n      swap2\n      swap1\n      tag_39\n      jump\t// in\n    tag_73:\n      mload(0x40)\n      dup1\n      swap2\n      sub\n      swap1\n      return\n        /* \"@openzeppelin/contracts/token/ERC721/ERC721.sol\":2518:2611  function symbol() public view virtual returns (string memory) {... */\n    tag_15:\n      tag_74\n      tag_75\n      jump\t// in\n    tag_74:\n      mload(0x40)\n      tag_76\n      swap2\n      swap1\n      tag_33\n      jump\t// in\n    tag_76:\n      mload(0x40)\n      dup1\n      swap2\n      sub\n      swap1\n      return\n        /* \"@openzeppelin/contracts/token/ERC721/ERC721.sol\":3718:3862  function setApprovalForAll(address operator, bool approved) public virtual {... */\n    tag_16:\n      tag_77\n      0x04\n      dup1\n      calldatasize\n      sub\n      dup2\n      add\n      swap1\n      tag_78\n      swap2\n      swap1\n      tag_79\n      jump\t// in\n    tag_78:\n      tag_80\n      jump\t// in\n    tag_77:\n      stop\n        /* \"@openzeppelin/contracts/token/ERC721/ERC721.sol\":4985:5193  function safeTransferFrom(address from, address to, uint256 tokenId, bytes memory data) public virtual {... */\n    tag_17:\n      tag_81\n      0x04\n      dup1\n      calldatasize\n      sub\n      dup2\n      add\n      swap1\n      tag_82\n      swap2\n      swap1\n      tag_83\n      jump\t// in\n    tag_82:\n      tag_84\n      jump\t// in\n    tag_81:\n      stop\n        /* \"contracts/NFT/CertificateContract.sol\":685:874  function tokenURI(uint256 tokenId) public view override returns (string memory) {... */\n    tag_18:\n      tag_85\n      0x04\n      dup1\n      calldatasize\n      sub\n      dup2\n      add\n      swap1\n      tag_86\n      swap2\n      swap1\n      tag_36\n      jump\t// in\n    tag_86:\n      tag_87\n      jump\t// in\n    tag_85:\n      mload(0x40)\n      tag_88\n      swap2\n      swap1\n      tag_33\n      jump\t// in\n    tag_88:\n      mload(0x40)\n      dup1\n      swap2\n      sub\n      swap1\n      return\n        /* \"@openzeppelin/contracts/token/ERC721/ERC721.sol\":3928:4081  function isApprovedForAll(address owner, address operator) public view virtual returns (bool) {... */\n    tag_19:\n      tag_89\n      0x04\n      dup1\n      calldatasize\n      sub\n      dup2\n      add\n      swap1\n      tag_90\n      swap2\n      swap1\n      tag_91\n      jump\t// in\n    tag_90:\n      tag_92\n      jump\t// in\n    tag_89:\n      mload(0x40)\n      tag_93\n      swap2\n      swap1\n      tag_29\n      jump\t// in\n    tag_93:\n      mload(0x40)\n      dup1\n      swap2\n      sub\n      swap1\n      return\n        /* \"@openzeppelin/contracts/access/Ownable.sol\":2543:2758  function transferOwnership(address newOwner) public virtual onlyOwner {... */\n    tag_20:\n      tag_94\n      0x04\n      dup1\n      calldatasize\n      sub\n      dup2\n      add\n      swap1\n      tag_95\n      swap2\n      swap1\n      tag_61\n      jump\t// in\n    tag_95:\n      tag_96\n      jump\t// in\n    tag_94:\n      stop\n        /* \"@openzeppelin/contracts/token/ERC721/ERC721.sol\":1561:1861  function supportsInterface(bytes4 interfaceId) public view virtual override(ERC165, IERC165) returns (bool) {... */\n    tag_27:\n        /* \"@openzeppelin/contracts/token/ERC721/ERC721.sol\":1663:1667  bool */\n      0x00\n        /* \"@openzeppelin/contracts/token/ERC721/ERC721.sol\":1713:1738  type(IERC721).interfaceId */\n      0x80ac58cd00000000000000000000000000000000000000000000000000000000\n        /* \"@openzeppelin/contracts/token/ERC721/ERC721.sol\":1698:1738  interfaceId == type(IERC721).interfaceId */\n      not(0xffffffffffffffffffffffffffffffffffffffffffffffffffffffff)\n      and\n        /* \"@openzeppelin/contracts/token/ERC721/ERC721.sol\":1698:1709  interfaceId */\n      dup3\n        /* \"@openzeppelin/contracts/token/ERC721/ERC721.sol\":1698:1738  interfaceId == type(IERC721).interfaceId */\n      not(0xffffffffffffffffffffffffffffffffffffffffffffffffffffffff)\n      and\n      eq\n        /* \"@openzeppelin/contracts/token/ERC721/ERC721.sol\":1698:1802  interfaceId == type(IERC721).interfaceId ||... */\n      dup1\n      tag_98\n      jumpi\n      pop\n        /* \"@openzeppelin/contracts/token/ERC721/ERC721.sol\":1769:1802  type(IERC721Metadata).interfaceId */\n      0x5b5e139f00000000000000000000000000000000000000000000000000000000\n        /* \"@openzeppelin/contracts/token/ERC721/ERC721.sol\":1754:1802  interfaceId == type(IERC721Metadata).interfaceId */\n      not(0xffffffffffffffffffffffffffffffffffffffffffffffffffffffff)\n      and\n        /* \"@openzeppelin/contracts/token/ERC721/ERC721.sol\":1754:1765  interfaceId */\n      dup3\n        /* \"@openzeppelin/contracts/token/ERC721/ERC721.sol\":1754:1802  interfaceId == type(IERC721Metadata).interfaceId */\n      not(0xffffffffffffffffffffffffffffffffffffffffffffffffffffffff)\n      and\n      eq\n        /* \"@openzeppelin/contracts/token/ERC721/ERC721.sol\":1698:1802  interfaceId == type(IERC721).interfaceId ||... */\n    tag_98:\n        /* \"@openzeppelin/contracts/token/ERC721/ERC721.sol\":1698:1854  interfaceId == type(IERC721).interfaceId ||... */\n      dup1\n      tag_99\n      jumpi\n      pop\n        /* \"@openzeppelin/contracts/token/ERC721/ERC721.sol\":1818:1854  super.supportsInterface(interfaceId) */\n      tag_100\n        /* \"@openzeppelin/contracts/token/ERC721/ERC721.sol\":1842:1853  interfaceId */\n      dup3\n        /* \"@openzeppelin/contracts/token/ERC721/ERC721.sol\":1818:1841  super.supportsInterface */\n      tag_101\n        /* \"@openzeppelin/contracts/token/ERC721/ERC721.sol\":1818:1854  super.supportsInterface(interfaceId) */\n      jump\t// in\n    tag_100:\n        /* \"@openzeppelin/contracts/token/ERC721/ERC721.sol\":1698:1854  interfaceId == type(IERC721).interfaceId ||... */\n    tag_99:\n        /* \"@openzeppelin/contracts/token/ERC721/ERC721.sol\":1679:1854  return... */\n      swap1\n      pop\n        /* \"@openzeppelin/contracts/token/ERC721/ERC721.sol\":1561:1861  function supportsInterface(bytes4 interfaceId) public view virtual override(ERC165, IERC165) returns (bool) {... */\n      swap2\n      swap1\n      pop\n      jump\t// out\n        /* \"@openzeppelin/contracts/token/ERC721/ERC721.sol\":2365:2454  function name() public view virtual returns (string memory) {... */\n    tag_31:\n        /* \"@openzeppelin/contracts/token/ERC721/ERC721.sol\":2410:2423  string memory */\n      0x60\n        /* \"@openzeppelin/contracts/token/ERC721/ERC721.sol\":2442:2447  _name */\n      0x00\n        /* \"@openzeppelin/contracts/token/ERC721/ERC721.sol\":2435:2447  return _name */\n      dup1\n      sload\n      tag_103\n      swap1\n      tag_104\n      jump\t// in\n    tag_103:\n      dup1\n      0x1f\n      add\n      0x20\n      dup1\n      swap2\n      div\n      mul\n      0x20\n      add\n      mload(0x40)\n      swap1\n      dup2\n      add\n      0x40\n      mstore\n      dup1\n      swap3\n      swap2\n      swap1\n      dup2\n      dup2\n      mstore\n      0x20\n      add\n      dup3\n      dup1\n      sload\n      tag_105\n      swap1\n      tag_104\n      jump\t// in\n    tag_105:\n      dup1\n      iszero\n      tag_106\n      jumpi\n      dup1\n      0x1f\n      lt\n      tag_107\n      jumpi\n      0x0100\n      dup1\n      dup4\n      sload\n      div\n      mul\n      dup4\n      mstore\n      swap2\n      0x20\n      add\n      swap2\n      jump(tag_106)\n    tag_107:\n      dup3\n      add\n      swap2\n      swap1\n      0x00\n      mstore\n      keccak256(0x00, 0x20)\n      swap1\n    tag_108:\n      dup2\n      sload\n      dup2\n      mstore\n      swap1\n      0x01\n      add\n      swap1\n      0x20\n      add\n      dup1\n      dup4\n      gt\n      tag_108\n      jumpi\n      dup3\n      swap1\n      sub\n      0x1f\n      and\n      dup3\n      add\n      swap2\n    tag_106:\n      pop\n      pop\n      pop\n      pop\n      pop\n      swap1\n      pop\n        /* \"@openzeppelin/contracts/token/ERC721/ERC721.sol\":2365:2454  function name() public view virtual returns (string memory) {... */\n      swap1\n      jump\t// out\n        /* \"@openzeppelin/contracts/token/ERC721/ERC721.sol\":3497:3651  function getApproved(uint256 tokenId) public view virtual returns (address) {... */\n    tag_37:\n        /* \"@openzeppelin/contracts/token/ERC721/ERC721.sol\":3564:3571  address */\n      0x00\n        /* \"@openzeppelin/contracts/token/ERC721/ERC721.sol\":3583:3605  _requireOwned(tokenId) */\n      tag_110\n        /* \"@openzeppelin/contracts/token/ERC721/ERC721.sol\":3597:3604  tokenId */\n      dup3\n        /* \"@openzeppelin/contracts/token/ERC721/ERC721.sol\":3583:3596  _requireOwned */\n      tag_111\n        /* \"@openzeppelin/contracts/token/ERC721/ERC721.sol\":3583:3605  _requireOwned(tokenId) */\n      jump\t// in\n    tag_110:\n      pop\n        /* \"@openzeppelin/contracts/token/ERC721/ERC721.sol\":3623:3644  _getApproved(tokenId) */\n      tag_112\n        /* \"@openzeppelin/contracts/token/ERC721/ERC721.sol\":3636:3643  tokenId */\n      dup3\n        /* \"@openzeppelin/contracts/token/ERC721/ERC721.sol\":3623:3635  _getApproved */\n      tag_113\n        /* \"@openzeppelin/contracts/token/ERC721/ERC721.sol\":3623:3644  _getApproved(tokenId) */\n      jump\t// in\n    tag_112:\n        /* \"@openzeppelin/contracts/token/ERC721/ERC721.sol\":3616:3644  return _getApproved(tokenId) */\n      swap1\n      pop\n        /* \"@openzeppelin/contracts/token/ERC721/ERC721.sol\":3497:3651  function getApproved(uint256 tokenId) public view virtual returns (address) {... */\n      swap2\n      swap1\n      pop\n      jump\t// out\n        /* \"@openzeppelin/contracts/token/ERC721/ERC721.sol\":3323:3436  function approve(address to, uint256 tokenId) public virtual {... */\n    tag_43:\n        /* \"@openzeppelin/contracts/token/ERC721/ERC721.sol\":3394:3429  _approve(to, tokenId, _msgSender()) */\n      tag_115\n        /* \"@openzeppelin/contracts/token/ERC721/ERC721.sol\":3403:3405  to */\n      dup3\n        /* \"@openzeppelin/contracts/token/ERC721/ERC721.sol\":3407:3414  tokenId */\n      dup3\n        /* \"@openzeppelin/contracts/token/ERC721/ERC721.sol\":3416:3428  _msgSender() */\n      tag_116\n        /* \"@openzeppelin/contracts/token/ERC721/ERC721.sol\":3416:3426  _msgSender */\n      tag_117\n        /* \"@openzeppelin/contracts/token/ERC721/ERC721.sol\":3416:3428  _msgSender() */\n      jump\t// in\n    tag_116:\n        /* \"@openzeppelin/contracts/token/ERC721/ERC721.sol\":3394:3402  _approve */\n      tag_118\n        /* \"@openzeppelin/contracts/token/ERC721/ERC721.sol\":3394:3429  _approve(to, tokenId, _msgSender()) */\n      jump\t// in\n    tag_115:\n        /* \"@openzeppelin/contracts/token/ERC721/ERC721.sol\":3323:3436  function approve(address to, uint256 tokenId) public virtual {... */\n      pop\n      pop\n      jump\t// out\n        /* \"contracts/NFT/CertificateContract.sol\":882:1163  function issueCertificate(address recipient, uint256 tokenId, string memory uri) external onlyOwner {... */\n    tag_47:\n        /* \"@openzeppelin/contracts/access/Ownable.sol\":1531:1544  _checkOwner() */\n      tag_120\n        /* \"@openzeppelin/contracts/access/Ownable.sol\":1531:1542  _checkOwner */\n      tag_121\n        /* \"@openzeppelin/contracts/access/Ownable.sol\":1531:1544  _checkOwner() */\n      jump\t// in\n    tag_120:\n        /* \"contracts/NFT/CertificateContract.sol\":1002:1008  exists */\n      0x08\n        /* \"contracts/NFT/CertificateContract.sol\":1002:1017  exists[tokenId] */\n      0x00\n        /* \"contracts/NFT/CertificateContract.sol\":1009:1016  tokenId */\n      dup4\n        /* \"contracts/NFT/CertificateContract.sol\":1002:1017  exists[tokenId] */\n      dup2\n      mstore\n      0x20\n      add\n      swap1\n      dup2\n      mstore\n      0x20\n      add\n      0x00\n      keccak256\n      0x00\n      swap1\n      sload\n      swap1\n      0x0100\n      exp\n      swap1\n      div\n      0xff\n      and\n        /* \"contracts/NFT/CertificateContract.sol\":1001:1017  !exists[tokenId] */\n      iszero\n        /* \"contracts/NFT/CertificateContract.sol\":993:1045  require(!exists[tokenId], \"Token ID already exists\") */\n      tag_123\n      jumpi\n      mload(0x40)\n      0x08c379a000000000000000000000000000000000000000000000000000000000\n      dup2\n      mstore\n      0x04\n      add\n      tag_124\n      swap1\n      tag_125\n      jump\t// in\n    tag_124:\n      mload(0x40)\n      dup1\n      swap2\n      sub\n      swap1\n      revert\n    tag_123:\n        /* \"contracts/NFT/CertificateContract.sol\":1056:1081  _mint(recipient, tokenId) */\n      tag_126\n        /* \"contracts/NFT/CertificateContract.sol\":1062:1071  recipient */\n      dup4\n        /* \"contracts/NFT/CertificateContract.sol\":1073:1080  tokenId */\n      dup4\n        /* \"contracts/NFT/CertificateContract.sol\":1056:1061  _mint */\n      tag_127\n        /* \"contracts/NFT/CertificateContract.sol\":1056:1081  _mint(recipient, tokenId) */\n      jump\t// in\n    tag_126:\n        /* \"contracts/NFT/CertificateContract.sol\":1119:1122  uri */\n      dup1\n        /* \"contracts/NFT/CertificateContract.sol\":1092:1107  certificateURIs */\n      0x07\n        /* \"contracts/NFT/CertificateContract.sol\":1092:1116  certificateURIs[tokenId] */\n      0x00\n        /* \"contracts/NFT/CertificateContract.sol\":1108:1115  tokenId */\n      dup5\n        /* \"contracts/NFT/CertificateContract.sol\":1092:1116  certificateURIs[tokenId] */\n      dup2\n      mstore\n      0x20\n      add\n      swap1\n      dup2\n      mstore\n      0x20\n      add\n      0x00\n      keccak256\n        /* \"contracts/NFT/CertificateContract.sol\":1092:1122  certificateURIs[tokenId] = uri */\n      swap1\n      dup2\n      tag_128\n      swap2\n      swap1\n      tag_129\n      jump\t// in\n    tag_128:\n      pop\n        /* \"contracts/NFT/CertificateContract.sol\":1151:1155  true */\n      0x01\n        /* \"contracts/NFT/CertificateContract.sol\":1133:1139  exists */\n      0x08\n        /* \"contracts/NFT/CertificateContract.sol\":1133:1148  exists[tokenId] */\n      0x00\n        /* \"contracts/NFT/CertificateContract.sol\":1140:1147  tokenId */\n      dup5\n        /* \"contracts/NFT/CertificateContract.sol\":1133:1148  exists[tokenId] */\n      dup2\n      mstore\n      0x20\n      add\n      swap1\n      dup2\n      mstore\n      0x20\n      add\n      0x00\n      keccak256\n      0x00\n        /* \"contracts/NFT/CertificateContract.sol\":1133:1155  exists[tokenId] = true */\n      0x0100\n      exp\n      dup2\n      sload\n      dup2\n      0xff\n      mul\n      not\n      and\n      swap1\n      dup4\n      iszero\n      iszero\n      mul\n      or\n      swap1\n      sstore\n      pop\n        /* \"contracts/NFT/CertificateContract.sol\":882:1163  function issueCertificate(address recipient, uint256 tokenId, string memory uri) external onlyOwner {... */\n      pop\n      pop\n      pop\n      jump\t// out\n        /* \"@openzeppelin/contracts/token/ERC721/ERC721.sol\":4143:4721  function transferFrom(address from, address to, uint256 tokenId) public virtual {... */\n    tag_51:\n        /* \"@openzeppelin/contracts/token/ERC721/ERC721.sol\":4251:4252  0 */\n      0x00\n        /* \"@openzeppelin/contracts/token/ERC721/ERC721.sol\":4237:4253  to == address(0) */\n      0xffffffffffffffffffffffffffffffffffffffff\n      and\n        /* \"@openzeppelin/contracts/token/ERC721/ERC721.sol\":4237:4239  to */\n      dup3\n        /* \"@openzeppelin/contracts/token/ERC721/ERC721.sol\":4237:4253  to == address(0) */\n      0xffffffffffffffffffffffffffffffffffffffff\n      and\n      sub\n        /* \"@openzeppelin/contracts/token/ERC721/ERC721.sol\":4233:4320  if (to == address(0)) {... */\n      tag_131\n      jumpi\n        /* \"@openzeppelin/contracts/token/ERC721/ERC721.sol\":4306:4307  0 */\n      0x00\n        /* \"@openzeppelin/contracts/token/ERC721/ERC721.sol\":4276:4309  ERC721InvalidReceiver(address(0)) */\n      mload(0x40)\n      0x64a0ae9200000000000000000000000000000000000000000000000000000000\n      dup2\n      mstore\n      0x04\n      add\n      tag_132\n      swap2\n      swap1\n      tag_39\n      jump\t// in\n    tag_132:\n      mload(0x40)\n      dup1\n      swap2\n      sub\n      swap1\n      revert\n        /* \"@openzeppelin/contracts/token/ERC721/ERC721.sol\":4233:4320  if (to == address(0)) {... */\n    tag_131:\n        /* \"@openzeppelin/contracts/token/ERC721/ERC721.sol\":4538:4559  address previousOwner */\n      0x00\n        /* \"@openzeppelin/contracts/token/ERC721/ERC721.sol\":4562:4596  _update(to, tokenId, _msgSender()) */\n      tag_133\n        /* \"@openzeppelin/contracts/token/ERC721/ERC721.sol\":4570:4572  to */\n      dup4\n        /* \"@openzeppelin/contracts/token/ERC721/ERC721.sol\":4574:4581  tokenId */\n      dup4\n        /* \"@openzeppelin/contracts/token/ERC721/ERC721.sol\":4583:4595  _msgSender() */\n      tag_134\n        /* \"@openzeppelin/contracts/token/ERC721/ERC721.sol\":4583:4593  _msgSender */\n      tag_117\n        /* \"@openzeppelin/contracts/token/ERC721/ERC721.sol\":4583:4595  _msgSender() */\n      jump\t// in\n    tag_134:\n        /* \"@openzeppelin/contracts/token/ERC721/ERC721.sol\":4562:4569  _update */\n      tag_135\n        /* \"@openzeppelin/contracts/token/ERC721/ERC721.sol\":4562:4596  _update(to, tokenId, _msgSender()) */\n      jump\t// in\n    tag_133:\n        /* \"@openzeppelin/contracts/token/ERC721/ERC721.sol\":4538:4596  address previousOwner = _update(to, tokenId, _msgSender()) */\n      swap1\n      pop\n        /* \"@openzeppelin/contracts/token/ERC721/ERC721.sol\":4627:4631  from */\n      dup4\n        /* \"@openzeppelin/contracts/token/ERC721/ERC721.sol\":4610:4631  previousOwner != from */\n      0xffffffffffffffffffffffffffffffffffffffff\n      and\n        /* \"@openzeppelin/contracts/token/ERC721/ERC721.sol\":4610:4623  previousOwner */\n      dup2\n        /* \"@openzeppelin/contracts/token/ERC721/ERC721.sol\":4610:4631  previousOwner != from */\n      0xffffffffffffffffffffffffffffffffffffffff\n      and\n      eq\n        /* \"@openzeppelin/contracts/token/ERC721/ERC721.sol\":4606:4715  if (previousOwner != from) {... */\n      tag_136\n      jumpi\n        /* \"@openzeppelin/contracts/token/ERC721/ERC721.sol\":4675:4679  from */\n      dup4\n        /* \"@openzeppelin/contracts/token/ERC721/ERC721.sol\":4681:4688  tokenId */\n      dup3\n        /* \"@openzeppelin/contracts/token/ERC721/ERC721.sol\":4690:4703  previousOwner */\n      dup3\n        /* \"@openzeppelin/contracts/token/ERC721/ERC721.sol\":4654:4704  ERC721IncorrectOwner(from, tokenId, previousOwner) */\n      mload(0x40)\n      0x64283d7b00000000000000000000000000000000000000000000000000000000\n      dup2\n      mstore\n      0x04\n      add\n      tag_137\n      swap4\n      swap3\n      swap2\n      swap1\n      tag_138\n      jump\t// in\n    tag_137:\n      mload(0x40)\n      dup1\n      swap2\n      sub\n      swap1\n      revert\n        /* \"@openzeppelin/contracts/token/ERC721/ERC721.sol\":4606:4715  if (previousOwner != from) {... */\n    tag_136:\n        /* \"@openzeppelin/contracts/token/ERC721/ERC721.sol\":4223:4721  {... */\n      pop\n        /* \"@openzeppelin/contracts/token/ERC721/ERC721.sol\":4143:4721  function transferFrom(address from, address to, uint256 tokenId) public virtual {... */\n      pop\n      pop\n      pop\n      jump\t// out\n        /* \"@openzeppelin/contracts/token/ERC721/ERC721.sol\":4787:4919  function safeTransferFrom(address from, address to, uint256 tokenId) public {... */\n    tag_54:\n        /* \"@openzeppelin/contracts/token/ERC721/ERC721.sol\":4873:4912  safeTransferFrom(from, to, tokenId, \"\") */\n      tag_140\n        /* \"@openzeppelin/contracts/token/ERC721/ERC721.sol\":4890:4894  from */\n      dup4\n        /* \"@openzeppelin/contracts/token/ERC721/ERC721.sol\":4896:4898  to */\n      dup4\n        /* \"@openzeppelin/contracts/token/ERC721/ERC721.sol\":4900:4907  tokenId */\n      dup4\n        /* \"@openzeppelin/contracts/token/ERC721/ERC721.sol\":4873:4912  safeTransferFrom(from, to, tokenId, \"\") */\n      mload(0x40)\n      dup1\n      0x20\n      add\n      0x40\n      mstore\n      dup1\n      0x00\n      dup2\n      mstore\n      pop\n        /* \"@openzeppelin/contracts/token/ERC721/ERC721.sol\":4873:4889  safeTransferFrom */\n      tag_84\n        /* \"@openzeppelin/contracts/token/ERC721/ERC721.sol\":4873:4912  safeTransferFrom(from, to, tokenId, \"\") */\n      jump\t// in\n    tag_140:\n        /* \"@openzeppelin/contracts/token/ERC721/ERC721.sol\":4787:4919  function safeTransferFrom(address from, address to, uint256 tokenId) public {... */\n      pop\n      pop\n      pop\n      jump\t// out\n        /* \"@openzeppelin/contracts/token/ERC721/ERC721.sol\":2185:2303  function ownerOf(uint256 tokenId) public view virtual returns (address) {... */\n    tag_57:\n        /* \"@openzeppelin/contracts/token/ERC721/ERC721.sol\":2248:2255  address */\n      0x00\n        /* \"@openzeppelin/contracts/token/ERC721/ERC721.sol\":2274:2296  _requireOwned(tokenId) */\n      tag_142\n        /* \"@openzeppelin/contracts/token/ERC721/ERC721.sol\":2288:2295  tokenId */\n      dup3\n        /* \"@openzeppelin/contracts/token/ERC721/ERC721.sol\":2274:2287  _requireOwned */\n      tag_111\n        /* \"@openzeppelin/contracts/token/ERC721/ERC721.sol\":2274:2296  _requireOwned(tokenId) */\n      jump\t// in\n    tag_142:\n        /* \"@openzeppelin/contracts/token/ERC721/ERC721.sol\":2267:2296  return _requireOwned(tokenId) */\n      swap1\n      pop\n        /* \"@openzeppelin/contracts/token/ERC721/ERC721.sol\":2185:2303  function ownerOf(uint256 tokenId) public view virtual returns (address) {... */\n      swap2\n      swap1\n      pop\n      jump\t// out\n        /* \"@openzeppelin/contracts/token/ERC721/ERC721.sol\":1920:2128  function balanceOf(address owner) public view virtual returns (uint256) {... */\n    tag_62:\n        /* \"@openzeppelin/contracts/token/ERC721/ERC721.sol\":1983:1990  uint256 */\n      0x00\n        /* \"@openzeppelin/contracts/token/ERC721/ERC721.sol\":2023:2024  0 */\n      dup1\n        /* \"@openzeppelin/contracts/token/ERC721/ERC721.sol\":2006:2025  owner == address(0) */\n      0xffffffffffffffffffffffffffffffffffffffff\n      and\n        /* \"@openzeppelin/contracts/token/ERC721/ERC721.sol\":2006:2011  owner */\n      dup3\n        /* \"@openzeppelin/contracts/token/ERC721/ERC721.sol\":2006:2025  owner == address(0) */\n      0xffffffffffffffffffffffffffffffffffffffff\n      and\n      sub\n        /* \"@openzeppelin/contracts/token/ERC721/ERC721.sol\":2002:2089  if (owner == address(0)) {... */\n      tag_144\n      jumpi\n        /* \"@openzeppelin/contracts/token/ERC721/ERC721.sol\":2075:2076  0 */\n      0x00\n        /* \"@openzeppelin/contracts/token/ERC721/ERC721.sol\":2048:2078  ERC721InvalidOwner(address(0)) */\n      mload(0x40)\n      0x89c62b6400000000000000000000000000000000000000000000000000000000\n      dup2\n      mstore\n      0x04\n      add\n      tag_145\n      swap2\n      swap1\n      tag_39\n      jump\t// in\n    tag_145:\n      mload(0x40)\n      dup1\n      swap2\n      sub\n      swap1\n      revert\n        /* \"@openzeppelin/contracts/token/ERC721/ERC721.sol\":2002:2089  if (owner == address(0)) {... */\n    tag_144:\n        /* \"@openzeppelin/contracts/token/ERC721/ERC721.sol\":2105:2114  _balances */\n      0x03\n        /* \"@openzeppelin/contracts/token/ERC721/ERC721.sol\":2105:2121  _balances[owner] */\n      0x00\n        /* \"@openzeppelin/contracts/token/ERC721/ERC721.sol\":2115:2120  owner */\n      dup4\n        /* \"@openzeppelin/contracts/token/ERC721/ERC721.sol\":2105:2121  _balances[owner] */\n      0xffffffffffffffffffffffffffffffffffffffff\n      and\n      0xffffffffffffffffffffffffffffffffffffffff\n      and\n      dup2\n      mstore\n      0x20\n      add\n      swap1\n      dup2\n      mstore\n      0x20\n      add\n      0x00\n      keccak256\n      sload\n        /* \"@openzeppelin/contracts/token/ERC721/ERC721.sol\":2098:2121  return _balances[owner] */\n      swap1\n      pop\n        /* \"@openzeppelin/contracts/token/ERC721/ERC721.sol\":1920:2128  function balanceOf(address owner) public view virtual returns (uint256) {... */\n      swap2\n      swap1\n      pop\n      jump\t// out\n        /* \"@openzeppelin/contracts/access/Ownable.sol\":2293:2394  function renounceOwnership() public virtual onlyOwner {... */\n    tag_66:\n        /* \"@openzeppelin/contracts/access/Ownable.sol\":1531:1544  _checkOwner() */\n      tag_147\n        /* \"@openzeppelin/contracts/access/Ownable.sol\":1531:1542  _checkOwner */\n      tag_121\n        /* \"@openzeppelin/contracts/access/Ownable.sol\":1531:1544  _checkOwner() */\n      jump\t// in\n    tag_147:\n        /* \"@openzeppelin/contracts/access/Ownable.sol\":2357:2387  _transferOwnership(address(0)) */\n      tag_149\n        /* \"@openzeppelin/contracts/access/Ownable.sol\":2384:2385  0 */\n      0x00\n        /* \"@openzeppelin/contracts/access/Ownable.sol\":2357:2375  _transferOwnership */\n      tag_150\n        /* \"@openzeppelin/contracts/access/Ownable.sol\":2357:2387  _transferOwnership(address(0)) */\n      jump\t// in\n    tag_149:\n        /* \"@openzeppelin/contracts/access/Ownable.sol\":2293:2394  function renounceOwnership() public virtual onlyOwner {... */\n      jump\t// out\n        /* \"contracts/NFT/CertificateContract.sol\":487:677  function setCertificateURI(uint256 tokenId, string memory uri) external onlyOwner {... */\n    tag_70:\n        /* \"@openzeppelin/contracts/access/Ownable.sol\":1531:1544  _checkOwner() */\n      tag_152\n        /* \"@openzeppelin/contracts/access/Ownable.sol\":1531:1542  _checkOwner */\n      tag_121\n        /* \"@openzeppelin/contracts/access/Ownable.sol\":1531:1544  _checkOwner() */\n      jump\t// in\n    tag_152:\n        /* \"contracts/NFT/CertificateContract.sol\":588:594  exists */\n      0x08\n        /* \"contracts/NFT/CertificateContract.sol\":588:603  exists[tokenId] */\n      0x00\n        /* \"contracts/NFT/CertificateContract.sol\":595:602  tokenId */\n      dup4\n        /* \"contracts/NFT/CertificateContract.sol\":588:603  exists[tokenId] */\n      dup2\n      mstore\n      0x20\n      add\n      swap1\n      dup2\n      mstore\n      0x20\n      add\n      0x00\n      keccak256\n      0x00\n      swap1\n      sload\n      swap1\n      0x0100\n      exp\n      swap1\n      div\n      0xff\n      and\n        /* \"contracts/NFT/CertificateContract.sol\":580:628  require(exists[tokenId], \"Token does not exist\") */\n      tag_154\n      jumpi\n      mload(0x40)\n      0x08c379a000000000000000000000000000000000000000000000000000000000\n      dup2\n      mstore\n      0x04\n      add\n      tag_155\n      swap1\n      tag_156\n      jump\t// in\n    tag_155:\n      mload(0x40)\n      dup1\n      swap2\n      sub\n      swap1\n      revert\n    tag_154:\n        /* \"contracts/NFT/CertificateContract.sol\":666:669  uri */\n      dup1\n        /* \"contracts/NFT/CertificateContract.sol\":639:654  certificateURIs */\n      0x07\n        /* \"contracts/NFT/CertificateContract.sol\":639:663  certificateURIs[tokenId] */\n      0x00\n        /* \"contracts/NFT/CertificateContract.sol\":655:662  tokenId */\n      dup5\n        /* \"contracts/NFT/CertificateContract.sol\":639:663  certificateURIs[tokenId] */\n      dup2\n      mstore\n      0x20\n      add\n      swap1\n      dup2\n      mstore\n      0x20\n      add\n      0x00\n      keccak256\n        /* \"contracts/NFT/CertificateContract.sol\":639:669  certificateURIs[tokenId] = uri */\n      swap1\n      dup2\n      tag_157\n      swap2\n      swap1\n      tag_129\n      jump\t// in\n    tag_157:\n      pop\n        /* \"contracts/NFT/CertificateContract.sol\":487:677  function setCertificateURI(uint256 tokenId, string memory uri) external onlyOwner {... */\n      pop\n      pop\n      jump\t// out\n        /* \"@openzeppelin/contracts/access/Ownable.sol\":1638:1723  function owner() public view virtual returns (address) {... */\n    tag_72:\n        /* \"@openzeppelin/contracts/access/Ownable.sol\":1684:1691  address */\n      0x00\n        /* \"@openzeppelin/contracts/access/Ownable.sol\":1710:1716  _owner */\n      0x06\n      0x00\n      swap1\n      sload\n      swap1\n      0x0100\n      exp\n      swap1\n      div\n      0xffffffffffffffffffffffffffffffffffffffff\n      and\n        /* \"@openzeppelin/contracts/access/Ownable.sol\":1703:1716  return _owner */\n      swap1\n      pop\n        /* \"@openzeppelin/contracts/access/Ownable.sol\":1638:1723  function owner() public view virtual returns (address) {... */\n      swap1\n      jump\t// out\n        /* \"@openzeppelin/contracts/token/ERC721/ERC721.sol\":2518:2611  function symbol() public view virtual returns (string memory) {... */\n    tag_75:\n        /* \"@openzeppelin/contracts/token/ERC721/ERC721.sol\":2565:2578  string memory */\n      0x60\n        /* \"@openzeppelin/contracts/token/ERC721/ERC721.sol\":2597:2604  _symbol */\n      0x01\n        /* \"@openzeppelin/contracts/token/ERC721/ERC721.sol\":2590:2604  return _symbol */\n      dup1\n      sload\n      tag_160\n      swap1\n      tag_104\n      jump\t// in\n    tag_160:\n      dup1\n      0x1f\n      add\n      0x20\n      dup1\n      swap2\n      div\n      mul\n      0x20\n      add\n      mload(0x40)\n      swap1\n      dup2\n      add\n      0x40\n      mstore\n      dup1\n      swap3\n      swap2\n      swap1\n      dup2\n      dup2\n      mstore\n      0x20\n      add\n      dup3\n      dup1\n      sload\n      tag_161\n      swap1\n      tag_104\n      jump\t// in\n    tag_161:\n      dup1\n      iszero\n      tag_162\n      jumpi\n      dup1\n      0x1f\n      lt\n      tag_163\n      jumpi\n      0x0100\n      dup1\n      dup4\n      sload\n      div\n      mul\n      dup4\n      mstore\n      swap2\n      0x20\n      add\n      swap2\n      jump(tag_162)\n    tag_163:\n      dup3\n      add\n      swap2\n      swap1\n      0x00\n      mstore\n      keccak256(0x00, 0x20)\n      swap1\n    tag_164:\n      dup2\n      sload\n      dup2\n      mstore\n      swap1\n      0x01\n      add\n      swap1\n      0x20\n      add\n      dup1\n      dup4\n      gt\n      tag_164\n      jumpi\n      dup3\n      swap1\n      sub\n      0x1f\n      and\n      dup3\n      add\n      swap2\n    tag_162:\n      pop\n      pop\n      pop\n      pop\n      pop\n      swap1\n      pop\n        /* \"@openzeppelin/contracts/token/ERC721/ERC721.sol\":2518:2611  function symbol() public view virtual returns (string memory) {... */\n      swap1\n      jump\t// out\n        /* \"@openzeppelin/contracts/token/ERC721/ERC721.sol\":3718:3862  function setApprovalForAll(address operator, bool approved) public virtual {... */\n    tag_80:\n        /* \"@openzeppelin/contracts/token/ERC721/ERC721.sol\":3803:3855  _setApprovalForAll(_msgSender(), operator, approved) */\n      tag_166\n        /* \"@openzeppelin/contracts/token/ERC721/ERC721.sol\":3822:3834  _msgSender() */\n      tag_167\n        /* \"@openzeppelin/contracts/token/ERC721/ERC721.sol\":3822:3832  _msgSender */\n      tag_117\n        /* \"@openzeppelin/contracts/token/ERC721/ERC721.sol\":3822:3834  _msgSender() */\n      jump\t// in\n    tag_167:\n        /* \"@openzeppelin/contracts/token/ERC721/ERC721.sol\":3836:3844  operator */\n      dup4\n        /* \"@openzeppelin/contracts/token/ERC721/ERC721.sol\":3846:3854  approved */\n      dup4\n        /* \"@openzeppelin/contracts/token/ERC721/ERC721.sol\":3803:3821  _setApprovalForAll */\n      tag_168\n        /* \"@openzeppelin/contracts/token/ERC721/ERC721.sol\":3803:3855  _setApprovalForAll(_msgSender(), operator, approved) */\n      jump\t// in\n    tag_166:\n        /* \"@openzeppelin/contracts/token/ERC721/ERC721.sol\":3718:3862  function setApprovalForAll(address operator, bool approved) public virtual {... */\n      pop\n      pop\n      jump\t// out\n        /* \"@openzeppelin/contracts/token/ERC721/ERC721.sol\":4985:5193  function safeTransferFrom(address from, address to, uint256 tokenId, bytes memory data) public virtual {... */\n    tag_84:\n        /* \"@openzeppelin/contracts/token/ERC721/ERC721.sol\":5098:5129  transferFrom(from, to, tokenId) */\n      tag_170\n        /* \"@openzeppelin/contracts/token/ERC721/ERC721.sol\":5111:5115  from */\n      dup5\n        /* \"@openzeppelin/contracts/token/ERC721/ERC721.sol\":5117:5119  to */\n      dup5\n        /* \"@openzeppelin/contracts/token/ERC721/ERC721.sol\":5121:5128  tokenId */\n      dup5\n        /* \"@openzeppelin/contracts/token/ERC721/ERC721.sol\":5098:5110  transferFrom */\n      tag_51\n        /* \"@openzeppelin/contracts/token/ERC721/ERC721.sol\":5098:5129  transferFrom(from, to, tokenId) */\n      jump\t// in\n    tag_170:\n        /* \"@openzeppelin/contracts/token/ERC721/ERC721.sol\":5139:5186  _checkOnERC721Received(from, to, tokenId, data) */\n      tag_171\n        /* \"@openzeppelin/contracts/token/ERC721/ERC721.sol\":5162:5166  from */\n      dup5\n        /* \"@openzeppelin/contracts/token/ERC721/ERC721.sol\":5168:5170  to */\n      dup5\n        /* \"@openzeppelin/contracts/token/ERC721/ERC721.sol\":5172:5179  tokenId */\n      dup5\n        /* \"@openzeppelin/contracts/token/ERC721/ERC721.sol\":5181:5185  data */\n      dup5\n        /* \"@openzeppelin/contracts/token/ERC721/ERC721.sol\":5139:5161  _checkOnERC721Received */\n      tag_172\n        /* \"@openzeppelin/contracts/token/ERC721/ERC721.sol\":5139:5186  _checkOnERC721Received(from, to, tokenId, data) */\n      jump\t// in\n    tag_171:\n        /* \"@openzeppelin/contracts/token/ERC721/ERC721.sol\":4985:5193  function safeTransferFrom(address from, address to, uint256 tokenId, bytes memory data) public virtual {... */\n      pop\n      pop\n      pop\n      pop\n      jump\t// out\n        /* \"contracts/NFT/CertificateContract.sol\":685:874  function tokenURI(uint256 tokenId) public view override returns (string memory) {... */\n    tag_87:\n        /* \"contracts/NFT/CertificateContract.sol\":750:763  string memory */\n      0x60\n        /* \"contracts/NFT/CertificateContract.sol\":784:790  exists */\n      0x08\n        /* \"contracts/NFT/CertificateContract.sol\":784:799  exists[tokenId] */\n      0x00\n        /* \"contracts/NFT/CertificateContract.sol\":791:798  tokenId */\n      dup4\n        /* \"contracts/NFT/CertificateContract.sol\":784:799  exists[tokenId] */\n      dup2\n      mstore\n      0x20\n      add\n      swap1\n      dup2\n      mstore\n      0x20\n      add\n      0x00\n      keccak256\n      0x00\n      swap1\n      sload\n      swap1\n      0x0100\n      exp\n      swap1\n      div\n      0xff\n      and\n        /* \"contracts/NFT/CertificateContract.sol\":776:824  require(exists[tokenId], \"Token does not exist\") */\n      tag_174\n      jumpi\n      mload(0x40)\n      0x08c379a000000000000000000000000000000000000000000000000000000000\n      dup2\n      mstore\n      0x04\n      add\n      tag_175\n      swap1\n      tag_156\n      jump\t// in\n    tag_175:\n      mload(0x40)\n      dup1\n      swap2\n      sub\n      swap1\n      revert\n    tag_174:\n        /* \"contracts/NFT/CertificateContract.sol\":842:857  certificateURIs */\n      0x07\n        /* \"contracts/NFT/CertificateContract.sol\":842:866  certificateURIs[tokenId] */\n      0x00\n        /* \"contracts/NFT/CertificateContract.sol\":858:865  tokenId */\n      dup4\n        /* \"contracts/NFT/CertificateContract.sol\":842:866  certificateURIs[tokenId] */\n      dup2\n      mstore\n      0x20\n      add\n      swap1\n      dup2\n      mstore\n      0x20\n      add\n      0x00\n      keccak256\n        /* \"contracts/NFT/CertificateContract.sol\":835:866  return certificateURIs[tokenId] */\n      dup1\n      sload\n      tag_176\n      swap1\n      tag_104\n      jump\t// in\n    tag_176:\n      dup1\n      0x1f\n      add\n      0x20\n      dup1\n      swap2\n      div\n      mul\n      0x20\n      add\n      mload(0x40)\n      swap1\n      dup2\n      add\n      0x40\n      mstore\n      dup1\n      swap3\n      swap2\n      swap1\n      dup2\n      dup2\n      mstore\n      0x20\n      add\n      dup3\n      dup1\n      sload\n      tag_177\n      swap1\n      tag_104\n      jump\t// in\n    tag_177:\n      dup1\n      iszero\n      tag_178\n      jumpi\n      dup1\n      0x1f\n      lt\n      tag_179\n      jumpi\n      0x0100\n      dup1\n      dup4\n      sload\n      div\n      mul\n      dup4\n      mstore\n      swap2\n      0x20\n      add\n      swap2\n      jump(tag_178)\n    tag_179:\n      dup3\n      add\n      swap2\n      swap1\n      0x00\n      mstore\n      keccak256(0x00, 0x20)\n      swap1\n    tag_180:\n      dup2\n      sload\n      dup2\n      mstore\n      swap1\n      0x01\n      add\n      swap1\n      0x20\n      add\n      dup1\n      dup4\n      gt\n      tag_180\n      jumpi\n      dup3\n      swap1\n      sub\n      0x1f\n      and\n      dup3\n      add\n      swap2\n    tag_178:\n      pop\n      pop\n      pop\n      pop\n      pop\n      swap1\n      pop\n        /* \"contracts/NFT/CertificateContract.sol\":685:874  function tokenURI(uint256 tokenId) public view override returns (string memory) {... */\n      swap2\n      swap1\n      pop\n      jump\t// out\n        /* \"@openzeppelin/contracts/token/ERC721/ERC721.sol\":3928:4081  function isApprovedForAll(address owner, address operator) public view virtual returns (bool) {... */\n    tag_92:\n        /* \"@openzeppelin/contracts/token/ERC721/ERC721.sol\":4016:4020  bool */\n      0x00\n        /* \"@openzeppelin/contracts/token/ERC721/ERC721.sol\":4039:4057  _operatorApprovals */\n      0x05\n        /* \"@openzeppelin/contracts/token/ERC721/ERC721.sol\":4039:4064  _operatorApprovals[owner] */\n      0x00\n        /* \"@openzeppelin/contracts/token/ERC721/ERC721.sol\":4058:4063  owner */\n      dup5\n        /* \"@openzeppelin/contracts/token/ERC721/ERC721.sol\":4039:4064  _operatorApprovals[owner] */\n      0xffffffffffffffffffffffffffffffffffffffff\n      and\n      0xffffffffffffffffffffffffffffffffffffffff\n      and\n      dup2\n      mstore\n      0x20\n      add\n      swap1\n      dup2\n      mstore\n      0x20\n      add\n      0x00\n      keccak256\n        /* \"@openzeppelin/contracts/token/ERC721/ERC721.sol\":4039:4074  _operatorApprovals[owner][operator] */\n      0x00\n        /* \"@openzeppelin/contracts/token/ERC721/ERC721.sol\":4065:4073  operator */\n      dup4\n        /* \"@openzeppelin/contracts/token/ERC721/ERC721.sol\":4039:4074  _operatorApprovals[owner][operator] */\n      0xffffffffffffffffffffffffffffffffffffffff\n      and\n      0xffffffffffffffffffffffffffffffffffffffff\n      and\n      dup2\n      mstore\n      0x20\n      add\n      swap1\n      dup2\n      mstore\n      0x20\n      add\n      0x00\n      keccak256\n      0x00\n      swap1\n      sload\n      swap1\n      0x0100\n      exp\n      swap1\n      div\n      0xff\n      and\n        /* \"@openzeppelin/contracts/token/ERC721/ERC721.sol\":4032:4074  return _operatorApprovals[owner][operator] */\n      swap1\n      pop\n        /* \"@openzeppelin/contracts/token/ERC721/ERC721.sol\":3928:4081  function isApprovedForAll(address owner, address operator) public view virtual returns (bool) {... */\n      swap3\n      swap2\n      pop\n      pop\n      jump\t// out\n        /* \"@openzeppelin/contracts/access/Ownable.sol\":2543:2758  function transferOwnership(address newOwner) public virtual onlyOwner {... */\n    tag_96:\n        /* \"@openzeppelin/contracts/access/Ownable.sol\":1531:1544  _checkOwner() */\n      tag_183\n        /* \"@openzeppelin/contracts/access/Ownable.sol\":1531:1542  _checkOwner */\n      tag_121\n        /* \"@openzeppelin/contracts/access/Ownable.sol\":1531:1544  _checkOwner() */\n      jump\t// in\n    tag_183:\n        /* \"@openzeppelin/contracts/access/Ownable.sol\":2647:2648  0 */\n      0x00\n        /* \"@openzeppelin/contracts/access/Ownable.sol\":2627:2649  newOwner == address(0) */\n      0xffffffffffffffffffffffffffffffffffffffff\n      and\n        /* \"@openzeppelin/contracts/access/Ownable.sol\":2627:2635  newOwner */\n      dup2\n        /* \"@openzeppelin/contracts/access/Ownable.sol\":2627:2649  newOwner == address(0) */\n      0xffffffffffffffffffffffffffffffffffffffff\n      and\n      sub\n        /* \"@openzeppelin/contracts/access/Ownable.sol\":2623:2714  if (newOwner == address(0)) {... */\n      tag_185\n      jumpi\n        /* \"@openzeppelin/contracts/access/Ownable.sol\":2700:2701  0 */\n      0x00\n        /* \"@openzeppelin/contracts/access/Ownable.sol\":2672:2703  OwnableInvalidOwner(address(0)) */\n      mload(0x40)\n      0x1e4fbdf700000000000000000000000000000000000000000000000000000000\n      dup2\n      mstore\n      0x04\n      add\n      tag_186\n      swap2\n      swap1\n      tag_39\n      jump\t// in\n    tag_186:\n      mload(0x40)\n      dup1\n      swap2\n      sub\n      swap1\n      revert\n        /* \"@openzeppelin/contracts/access/Ownable.sol\":2623:2714  if (newOwner == address(0)) {... */\n    tag_185:\n        /* \"@openzeppelin/contracts/access/Ownable.sol\":2723:2751  _transferOwnership(newOwner) */\n      tag_187\n        /* \"@openzeppelin/contracts/access/Ownable.sol\":2742:2750  newOwner */\n      dup2\n        /* \"@openzeppelin/contracts/access/Ownable.sol\":2723:2741  _transferOwnership */\n      tag_150\n        /* \"@openzeppelin/contracts/access/Ownable.sol\":2723:2751  _transferOwnership(newOwner) */\n      jump\t// in\n    tag_187:\n        /* \"@openzeppelin/contracts/access/Ownable.sol\":2543:2758  function transferOwnership(address newOwner) public virtual onlyOwner {... */\n      pop\n      jump\t// out\n        /* \"@openzeppelin/contracts/utils/introspection/ERC165.sol\":762:908  function supportsInterface(bytes4 interfaceId) public view virtual returns (bool) {... */\n    tag_101:\n        /* \"@openzeppelin/contracts/utils/introspection/ERC165.sol\":838:842  bool */\n      0x00\n        /* \"@openzeppelin/contracts/utils/introspection/ERC165.sol\":876:901  type(IERC165).interfaceId */\n      0x01ffc9a700000000000000000000000000000000000000000000000000000000\n        /* \"@openzeppelin/contracts/utils/introspection/ERC165.sol\":861:901  interfaceId == type(IERC165).interfaceId */\n      not(0xffffffffffffffffffffffffffffffffffffffffffffffffffffffff)\n      and\n        /* \"@openzeppelin/contracts/utils/introspection/ERC165.sol\":861:872  interfaceId */\n      dup3\n        /* \"@openzeppelin/contracts/utils/introspection/ERC165.sol\":861:901  interfaceId == type(IERC165).interfaceId */\n      not(0xffffffffffffffffffffffffffffffffffffffffffffffffffffffff)\n      and\n      eq\n        /* \"@openzeppelin/contracts/utils/introspection/ERC165.sol\":854:901  return interfaceId == type(IERC165).interfaceId */\n      swap1\n      pop\n        /* \"@openzeppelin/contracts/utils/introspection/ERC165.sol\":762:908  function supportsInterface(bytes4 interfaceId) public view virtual returns (bool) {... */\n      swap2\n      swap1\n      pop\n      jump\t// out\n        /* \"@openzeppelin/contracts/token/ERC721/ERC721.sol\":16138:16379  function _requireOwned(uint256 tokenId) internal view returns (address) {... */\n    tag_111:\n        /* \"@openzeppelin/contracts/token/ERC721/ERC721.sol\":16201:16208  address */\n      0x00\n        /* \"@openzeppelin/contracts/token/ERC721/ERC721.sol\":16220:16233  address owner */\n      dup1\n        /* \"@openzeppelin/contracts/token/ERC721/ERC721.sol\":16236:16253  _ownerOf(tokenId) */\n      tag_190\n        /* \"@openzeppelin/contracts/token/ERC721/ERC721.sol\":16245:16252  tokenId */\n      dup4\n        /* \"@openzeppelin/contracts/token/ERC721/ERC721.sol\":16236:16244  _ownerOf */\n      tag_191\n        /* \"@openzeppelin/contracts/token/ERC721/ERC721.sol\":16236:16253  _ownerOf(tokenId) */\n      jump\t// in\n    tag_190:\n        /* \"@openzeppelin/contracts/token/ERC721/ERC721.sol\":16220:16253  address owner = _ownerOf(tokenId) */\n      swap1\n      pop\n        /* \"@openzeppelin/contracts/token/ERC721/ERC721.sol\":16284:16285  0 */\n      0x00\n        /* \"@openzeppelin/contracts/token/ERC721/ERC721.sol\":16267:16286  owner == address(0) */\n      0xffffffffffffffffffffffffffffffffffffffff\n      and\n        /* \"@openzeppelin/contracts/token/ERC721/ERC721.sol\":16267:16272  owner */\n      dup2\n        /* \"@openzeppelin/contracts/token/ERC721/ERC721.sol\":16267:16286  owner == address(0) */\n      0xffffffffffffffffffffffffffffffffffffffff\n      and\n      sub\n        /* \"@openzeppelin/contracts/token/ERC721/ERC721.sol\":16263:16351  if (owner == address(0)) {... */\n      tag_192\n      jumpi\n        /* \"@openzeppelin/contracts/token/ERC721/ERC721.sol\":16332:16339  tokenId */\n      dup3\n        /* \"@openzeppelin/contracts/token/ERC721/ERC721.sol\":16309:16340  ERC721NonexistentToken(tokenId) */\n      mload(0x40)\n      0x7e27328900000000000000000000000000000000000000000000000000000000\n      dup2\n      mstore\n      0x04\n      add\n      tag_193\n      swap2\n      swap1\n      tag_64\n      jump\t// in\n    tag_193:\n      mload(0x40)\n      dup1\n      swap2\n      sub\n      swap1\n      revert\n        /* \"@openzeppelin/contracts/token/ERC721/ERC721.sol\":16263:16351  if (owner == address(0)) {... */\n    tag_192:\n        /* \"@openzeppelin/contracts/token/ERC721/ERC721.sol\":16367:16372  owner */\n      dup1\n        /* \"@openzeppelin/contracts/token/ERC721/ERC721.sol\":16360:16372  return owner */\n      swap2\n      pop\n      pop\n        /* \"@openzeppelin/contracts/token/ERC721/ERC721.sol\":16138:16379  function _requireOwned(uint256 tokenId) internal view returns (address) {... */\n      swap2\n      swap1\n      pop\n      jump\t// out\n        /* \"@openzeppelin/contracts/token/ERC721/ERC721.sol\":5938:6065  function _getApproved(uint256 tokenId) internal view virtual returns (address) {... */\n    tag_113:\n        /* \"@openzeppelin/contracts/token/ERC721/ERC721.sol\":6008:6015  address */\n      0x00\n        /* \"@openzeppelin/contracts/token/ERC721/ERC721.sol\":6034:6049  _tokenApprovals */\n      0x04\n        /* \"@openzeppelin/contracts/token/ERC721/ERC721.sol\":6034:6058  _tokenApprovals[tokenId] */\n      0x00\n        /* \"@openzeppelin/contracts/token/ERC721/ERC721.sol\":6050:6057  tokenId */\n      dup4\n        /* \"@openzeppelin/contracts/token/ERC721/ERC721.sol\":6034:6058  _tokenApprovals[tokenId] */\n      dup2\n      mstore\n      0x20\n      add\n      swap1\n      dup2\n      mstore\n      0x20\n      add\n      0x00\n      keccak256\n      0x00\n      swap1\n      sload\n      swap1\n      0x0100\n      exp\n      swap1\n      div\n      0xffffffffffffffffffffffffffffffffffffffff\n      and\n        /* \"@openzeppelin/contracts/token/ERC721/ERC721.sol\":6027:6058  return _tokenApprovals[tokenId] */\n      swap1\n      pop\n        /* \"@openzeppelin/contracts/token/ERC721/ERC721.sol\":5938:6065  function _getApproved(uint256 tokenId) internal view virtual returns (address) {... */\n      swap2\n      swap1\n      pop\n      jump\t// out\n        /* \"@openzeppelin/contracts/utils/Context.sol\":656:752  function _msgSender() internal view virtual returns (address) {... */\n    tag_117:\n        /* \"@openzeppelin/contracts/utils/Context.sol\":709:716  address */\n      0x00\n        /* \"@openzeppelin/contracts/utils/Context.sol\":735:745  msg.sender */\n      caller\n        /* \"@openzeppelin/contracts/utils/Context.sol\":728:745  return msg.sender */\n      swap1\n      pop\n        /* \"@openzeppelin/contracts/utils/Context.sol\":656:752  function _msgSender() internal view virtual returns (address) {... */\n      swap1\n      jump\t// out\n        /* \"@openzeppelin/contracts/token/ERC721/ERC721.sol\":14418:14538  function _approve(address to, uint256 tokenId, address auth) internal {... */\n    tag_118:\n        /* \"@openzeppelin/contracts/token/ERC721/ERC721.sol\":14498:14531  _approve(to, tokenId, auth, true) */\n      tag_197\n        /* \"@openzeppelin/contracts/token/ERC721/ERC721.sol\":14507:14509  to */\n      dup4\n        /* \"@openzeppelin/contracts/token/ERC721/ERC721.sol\":14511:14518  tokenId */\n      dup4\n        /* \"@openzeppelin/contracts/token/ERC721/ERC721.sol\":14520:14524  auth */\n      dup4\n        /* \"@openzeppelin/contracts/token/ERC721/ERC721.sol\":14526:14530  true */\n      0x01\n        /* \"@openzeppelin/contracts/token/ERC721/ERC721.sol\":14498:14506  _approve */\n      tag_198\n        /* \"@openzeppelin/contracts/token/ERC721/ERC721.sol\":14498:14531  _approve(to, tokenId, auth, true) */\n      jump\t// in\n    tag_197:\n        /* \"@openzeppelin/contracts/token/ERC721/ERC721.sol\":14418:14538  function _approve(address to, uint256 tokenId, address auth) internal {... */\n      pop\n      pop\n      pop\n      jump\t// out\n        /* \"@openzeppelin/contracts/access/Ownable.sol\":1796:1958  function _checkOwner() internal view virtual {... */\n    tag_121:\n        /* \"@openzeppelin/contracts/access/Ownable.sol\":1866:1878  _msgSender() */\n      tag_200\n        /* \"@openzeppelin/contracts/access/Ownable.sol\":1866:1876  _msgSender */\n      tag_117\n        /* \"@openzeppelin/contracts/access/Ownable.sol\":1866:1878  _msgSender() */\n      jump\t// in\n    tag_200:\n        /* \"@openzeppelin/contracts/access/Ownable.sol\":1855:1878  owner() != _msgSender() */\n      0xffffffffffffffffffffffffffffffffffffffff\n      and\n        /* \"@openzeppelin/contracts/access/Ownable.sol\":1855:1862  owner() */\n      tag_201\n        /* \"@openzeppelin/contracts/access/Ownable.sol\":1855:1860  owner */\n      tag_72\n        /* \"@openzeppelin/contracts/access/Ownable.sol\":1855:1862  owner() */\n      jump\t// in\n    tag_201:\n        /* \"@openzeppelin/contracts/access/Ownable.sol\":1855:1878  owner() != _msgSender() */\n      0xffffffffffffffffffffffffffffffffffffffff\n      and\n      eq\n        /* \"@openzeppelin/contracts/access/Ownable.sol\":1851:1952  if (owner() != _msgSender()) {... */\n      tag_202\n      jumpi\n        /* \"@openzeppelin/contracts/access/Ownable.sol\":1928:1940  _msgSender() */\n      tag_203\n        /* \"@openzeppelin/contracts/access/Ownable.sol\":1928:1938  _msgSender */\n      tag_117\n        /* \"@openzeppelin/contracts/access/Ownable.sol\":1928:1940  _msgSender() */\n      jump\t// in\n    tag_203:\n        /* \"@openzeppelin/contracts/access/Ownable.sol\":1901:1941  OwnableUnauthorizedAccount(_msgSender()) */\n      mload(0x40)\n      0x118cdaa700000000000000000000000000000000000000000000000000000000\n      dup2\n      mstore\n      0x04\n      add\n      tag_204\n      swap2\n      swap1\n      tag_39\n      jump\t// in\n    tag_204:\n      mload(0x40)\n      dup1\n      swap2\n      sub\n      swap1\n      revert\n        /* \"@openzeppelin/contracts/access/Ownable.sol\":1851:1952  if (owner() != _msgSender()) {... */\n    tag_202:\n        /* \"@openzeppelin/contracts/access/Ownable.sol\":1796:1958  function _checkOwner() internal view virtual {... */\n      jump\t// out\n        /* \"@openzeppelin/contracts/token/ERC721/ERC721.sol\":9955:10282  function _mint(address to, uint256 tokenId) internal {... */\n    tag_127:\n        /* \"@openzeppelin/contracts/token/ERC721/ERC721.sol\":10036:10037  0 */\n      0x00\n        /* \"@openzeppelin/contracts/token/ERC721/ERC721.sol\":10022:10038  to == address(0) */\n      0xffffffffffffffffffffffffffffffffffffffff\n      and\n        /* \"@openzeppelin/contracts/token/ERC721/ERC721.sol\":10022:10024  to */\n      dup3\n        /* \"@openzeppelin/contracts/token/ERC721/ERC721.sol\":10022:10038  to == address(0) */\n      0xffffffffffffffffffffffffffffffffffffffff\n      and\n      sub\n        /* \"@openzeppelin/contracts/token/ERC721/ERC721.sol\":10018:10105  if (to == address(0)) {... */\n      tag_206\n      jumpi\n        /* \"@openzeppelin/contracts/token/ERC721/ERC721.sol\":10091:10092  0 */\n      0x00\n        /* \"@openzeppelin/contracts/token/ERC721/ERC721.sol\":10061:10094  ERC721InvalidReceiver(address(0)) */\n      mload(0x40)\n      0x64a0ae9200000000000000000000000000000000000000000000000000000000\n      dup2\n      mstore\n      0x04\n      add\n      tag_207\n      swap2\n      swap1\n      tag_39\n      jump\t// in\n    tag_207:\n      mload(0x40)\n      dup1\n      swap2\n      sub\n      swap1\n      revert\n        /* \"@openzeppelin/contracts/token/ERC721/ERC721.sol\":10018:10105  if (to == address(0)) {... */\n    tag_206:\n        /* \"@openzeppelin/contracts/token/ERC721/ERC721.sol\":10114:10135  address previousOwner */\n      0x00\n        /* \"@openzeppelin/contracts/token/ERC721/ERC721.sol\":10138:10170  _update(to, tokenId, address(0)) */\n      tag_208\n        /* \"@openzeppelin/contracts/token/ERC721/ERC721.sol\":10146:10148  to */\n      dup4\n        /* \"@openzeppelin/contracts/token/ERC721/ERC721.sol\":10150:10157  tokenId */\n      dup4\n        /* \"@openzeppelin/contracts/token/ERC721/ERC721.sol\":10167:10168  0 */\n      0x00\n        /* \"@openzeppelin/contracts/token/ERC721/ERC721.sol\":10138:10145  _update */\n      tag_135\n        /* \"@openzeppelin/contracts/token/ERC721/ERC721.sol\":10138:10170  _update(to, tokenId, address(0)) */\n      jump\t// in\n    tag_208:\n        /* \"@openzeppelin/contracts/token/ERC721/ERC721.sol\":10114:10170  address previousOwner = _update(to, tokenId, address(0)) */\n      swap1\n      pop\n        /* \"@openzeppelin/contracts/token/ERC721/ERC721.sol\":10209:10210  0 */\n      0x00\n        /* \"@openzeppelin/contracts/token/ERC721/ERC721.sol\":10184:10211  previousOwner != address(0) */\n      0xffffffffffffffffffffffffffffffffffffffff\n      and\n        /* \"@openzeppelin/contracts/token/ERC721/ERC721.sol\":10184:10197  previousOwner */\n      dup2\n        /* \"@openzeppelin/contracts/token/ERC721/ERC721.sol\":10184:10211  previousOwner != address(0) */\n      0xffffffffffffffffffffffffffffffffffffffff\n      and\n      eq\n        /* \"@openzeppelin/contracts/token/ERC721/ERC721.sol\":10180:10276  if (previousOwner != address(0)) {... */\n      tag_209\n      jumpi\n        /* \"@openzeppelin/contracts/token/ERC721/ERC721.sol\":10262:10263  0 */\n      0x00\n        /* \"@openzeppelin/contracts/token/ERC721/ERC721.sol\":10234:10265  ERC721InvalidSender(address(0)) */\n      mload(0x40)\n      0x73c6ac6e00000000000000000000000000000000000000000000000000000000\n      dup2\n      mstore\n      0x04\n      add\n      tag_210\n      swap2\n      swap1\n      tag_39\n      jump\t// in\n    tag_210:\n      mload(0x40)\n      dup1\n      swap2\n      sub\n      swap1\n      revert\n        /* \"@openzeppelin/contracts/token/ERC721/ERC721.sol\":10180:10276  if (previousOwner != address(0)) {... */\n    tag_209:\n        /* \"@openzeppelin/contracts/token/ERC721/ERC721.sol\":10008:10282  {... */\n      pop\n        /* \"@openzeppelin/contracts/token/ERC721/ERC721.sol\":9955:10282  function _mint(address to, uint256 tokenId) internal {... */\n      pop\n      pop\n      jump\t// out\n        /* \"@openzeppelin/contracts/token/ERC721/ERC721.sol\":8838:9633  function _update(address to, uint256 tokenId, address auth) internal virtual returns (address) {... */\n    tag_135:\n        /* \"@openzeppelin/contracts/token/ERC721/ERC721.sol\":8924:8931  address */\n      0x00\n        /* \"@openzeppelin/contracts/token/ERC721/ERC721.sol\":8943:8955  address from */\n      dup1\n        /* \"@openzeppelin/contracts/token/ERC721/ERC721.sol\":8958:8975  _ownerOf(tokenId) */\n      tag_212\n        /* \"@openzeppelin/contracts/token/ERC721/ERC721.sol\":8967:8974  tokenId */\n      dup5\n        /* \"@openzeppelin/contracts/token/ERC721/ERC721.sol\":8958:8966  _ownerOf */\n      tag_191\n        /* \"@openzeppelin/contracts/token/ERC721/ERC721.sol\":8958:8975  _ownerOf(tokenId) */\n      jump\t// in\n    tag_212:\n        /* \"@openzeppelin/contracts/token/ERC721/ERC721.sol\":8943:8975  address from = _ownerOf(tokenId) */\n      swap1\n      pop\n        /* \"@openzeppelin/contracts/token/ERC721/ERC721.sol\":9051:9052  0 */\n      0x00\n        /* \"@openzeppelin/contracts/token/ERC721/ERC721.sol\":9035:9053  auth != address(0) */\n      0xffffffffffffffffffffffffffffffffffffffff\n      and\n        /* \"@openzeppelin/contracts/token/ERC721/ERC721.sol\":9035:9039  auth */\n      dup4\n        /* \"@openzeppelin/contracts/token/ERC721/ERC721.sol\":9035:9053  auth != address(0) */\n      0xffffffffffffffffffffffffffffffffffffffff\n      and\n      eq\n        /* \"@openzeppelin/contracts/token/ERC721/ERC721.sol\":9031:9117  if (auth != address(0)) {... */\n      tag_213\n      jumpi\n        /* \"@openzeppelin/contracts/token/ERC721/ERC721.sol\":9069:9106  _checkAuthorized(from, auth, tokenId) */\n      tag_214\n        /* \"@openzeppelin/contracts/token/ERC721/ERC721.sol\":9086:9090  from */\n      dup2\n        /* \"@openzeppelin/contracts/token/ERC721/ERC721.sol\":9092:9096  auth */\n      dup5\n        /* \"@openzeppelin/contracts/token/ERC721/ERC721.sol\":9098:9105  tokenId */\n      dup7\n        /* \"@openzeppelin/contracts/token/ERC721/ERC721.sol\":9069:9085  _checkAuthorized */\n      tag_215\n        /* \"@openzeppelin/contracts/token/ERC721/ERC721.sol\":9069:9106  _checkAuthorized(from, auth, tokenId) */\n      jump\t// in\n    tag_214:\n        /* \"@openzeppelin/contracts/token/ERC721/ERC721.sol\":9031:9117  if (auth != address(0)) {... */\n    tag_213:\n        /* \"@openzeppelin/contracts/token/ERC721/ERC721.sol\":9177:9178  0 */\n      0x00\n        /* \"@openzeppelin/contracts/token/ERC721/ERC721.sol\":9161:9179  from != address(0) */\n      0xffffffffffffffffffffffffffffffffffffffff\n      and\n        /* \"@openzeppelin/contracts/token/ERC721/ERC721.sol\":9161:9165  from */\n      dup2\n        /* \"@openzeppelin/contracts/token/ERC721/ERC721.sol\":9161:9179  from != address(0) */\n      0xffffffffffffffffffffffffffffffffffffffff\n      and\n      eq\n        /* \"@openzeppelin/contracts/token/ERC721/ERC721.sol\":9157:9413  if (from != address(0)) {... */\n      tag_216\n      jumpi\n        /* \"@openzeppelin/contracts/token/ERC721/ERC721.sol\":9277:9325  _approve(address(0), tokenId, address(0), false) */\n      tag_217\n        /* \"@openzeppelin/contracts/token/ERC721/ERC721.sol\":9294:9295  0 */\n      0x00\n        /* \"@openzeppelin/contracts/token/ERC721/ERC721.sol\":9298:9305  tokenId */\n      dup6\n        /* \"@openzeppelin/contracts/token/ERC721/ERC721.sol\":9315:9316  0 */\n      0x00\n        /* \"@openzeppelin/contracts/token/ERC721/ERC721.sol\":9319:9324  false */\n      dup1\n        /* \"@openzeppelin/contracts/token/ERC721/ERC721.sol\":9277:9285  _approve */\n      tag_198\n        /* \"@openzeppelin/contracts/token/ERC721/ERC721.sol\":9277:9325  _approve(address(0), tokenId, address(0), false) */\n      jump\t// in\n    tag_217:\n        /* \"@openzeppelin/contracts/token/ERC721/ERC721.sol\":9387:9388  1 */\n      0x01\n        /* \"@openzeppelin/contracts/token/ERC721/ERC721.sol\":9368:9377  _balances */\n      0x03\n        /* \"@openzeppelin/contracts/token/ERC721/ERC721.sol\":9368:9383  _balances[from] */\n      0x00\n        /* \"@openzeppelin/contracts/token/ERC721/ERC721.sol\":9378:9382  from */\n      dup4\n        /* \"@openzeppelin/contracts/token/ERC721/ERC721.sol\":9368:9383  _balances[from] */\n      0xffffffffffffffffffffffffffffffffffffffff\n      and\n      0xffffffffffffffffffffffffffffffffffffffff\n      and\n      dup2\n      mstore\n      0x20\n      add\n      swap1\n      dup2\n      mstore\n      0x20\n      add\n      0x00\n      keccak256\n      0x00\n        /* \"@openzeppelin/contracts/token/ERC721/ERC721.sol\":9368:9388  _balances[from] -= 1 */\n      dup3\n      dup3\n      sload\n      sub\n      swap3\n      pop\n      pop\n      dup2\n      swap1\n      sstore\n      pop\n        /* \"@openzeppelin/contracts/token/ERC721/ERC721.sol\":9157:9413  if (from != address(0)) {... */\n    tag_216:\n        /* \"@openzeppelin/contracts/token/ERC721/ERC721.sol\":9441:9442  0 */\n      0x00\n        /* \"@openzeppelin/contracts/token/ERC721/ERC721.sol\":9427:9443  to != address(0) */\n      0xffffffffffffffffffffffffffffffffffffffff\n      and\n        /* \"@openzeppelin/contracts/token/ERC721/ERC721.sol\":9427:9429  to */\n      dup6\n        /* \"@openzeppelin/contracts/token/ERC721/ERC721.sol\":9427:9443  to != address(0) */\n      0xffffffffffffffffffffffffffffffffffffffff\n      and\n      eq\n        /* \"@openzeppelin/contracts/token/ERC721/ERC721.sol\":9423:9530  if (to != address(0)) {... */\n      tag_218\n      jumpi\n        /* \"@openzeppelin/contracts/token/ERC721/ERC721.sol\":9504:9505  1 */\n      0x01\n        /* \"@openzeppelin/contracts/token/ERC721/ERC721.sol\":9487:9496  _balances */\n      0x03\n        /* \"@openzeppelin/contracts/token/ERC721/ERC721.sol\":9487:9500  _balances[to] */\n      0x00\n        /* \"@openzeppelin/contracts/token/ERC721/ERC721.sol\":9497:9499  to */\n      dup8\n        /* \"@openzeppelin/contracts/token/ERC721/ERC721.sol\":9487:9500  _balances[to] */\n      0xffffffffffffffffffffffffffffffffffffffff\n      and\n      0xffffffffffffffffffffffffffffffffffffffff\n      and\n      dup2\n      mstore\n      0x20\n      add\n      swap1\n      dup2\n      mstore\n      0x20\n      add\n      0x00\n      keccak256\n      0x00\n        /* \"@openzeppelin/contracts/token/ERC721/ERC721.sol\":9487:9505  _balances[to] += 1 */\n      dup3\n      dup3\n      sload\n      add\n      swap3\n      pop\n      pop\n      dup2\n      swap1\n      sstore\n      pop\n        /* \"@openzeppelin/contracts/token/ERC721/ERC721.sol\":9423:9530  if (to != address(0)) {... */\n    tag_218:\n        /* \"@openzeppelin/contracts/token/ERC721/ERC721.sol\":9559:9561  to */\n      dup5\n        /* \"@openzeppelin/contracts/token/ERC721/ERC721.sol\":9540:9547  _owners */\n      0x02\n        /* \"@openzeppelin/contracts/token/ERC721/ERC721.sol\":9540:9556  _owners[tokenId] */\n      0x00\n        /* \"@openzeppelin/contracts/token/ERC721/ERC721.sol\":9548:9555  tokenId */\n      dup7\n        /* \"@openzeppelin/contracts/token/ERC721/ERC721.sol\":9540:9556  _owners[tokenId] */\n      dup2\n      mstore\n      0x20\n      add\n      swap1\n      dup2\n      mstore\n      0x20\n      add\n      0x00\n      keccak256\n      0x00\n        /* \"@openzeppelin/contracts/token/ERC721/ERC721.sol\":9540:9561  _owners[tokenId] = to */\n      0x0100\n      exp\n      dup2\n      sload\n      dup2\n      0xffffffffffffffffffffffffffffffffffffffff\n      mul\n      not\n      and\n      swap1\n      dup4\n      0xffffffffffffffffffffffffffffffffffffffff\n      and\n      mul\n      or\n      swap1\n      sstore\n      pop\n        /* \"@openzeppelin/contracts/token/ERC721/ERC721.sol\":9596:9603  tokenId */\n      dup4\n        /* \"@openzeppelin/contracts/token/ERC721/ERC721.sol\":9592:9594  to */\n      dup6\n        /* \"@openzeppelin/contracts/token/ERC721/ERC721.sol\":9577:9604  Transfer(from, to, tokenId) */\n      0xffffffffffffffffffffffffffffffffffffffff\n      and\n        /* \"@openzeppelin/contracts/token/ERC721/ERC721.sol\":9586:9590  from */\n      dup3\n        /* \"@openzeppelin/contracts/token/ERC721/ERC721.sol\":9577:9604  Transfer(from, to, tokenId) */\n      0xffffffffffffffffffffffffffffffffffffffff\n      and\n      0xddf252ad1be2c89b69c2b068fc378daa952ba7f163c4a11628f55a4df523b3ef\n      mload(0x40)\n      mload(0x40)\n      dup1\n      swap2\n      sub\n      swap1\n      log4\n        /* \"@openzeppelin/contracts/token/ERC721/ERC721.sol\":9622:9626  from */\n      dup1\n        /* \"@openzeppelin/contracts/token/ERC721/ERC721.sol\":9615:9626  return from */\n      swap2\n      pop\n      pop\n        /* \"@openzeppelin/contracts/token/ERC721/ERC721.sol\":8838:9633  function _update(address to, uint256 tokenId, address auth) internal virtual returns (address) {... */\n      swap4\n      swap3\n      pop\n      pop\n      pop\n      jump\t// out\n        /* \"@openzeppelin/contracts/access/Ownable.sol\":2912:3099  function _transferOwnership(address newOwner) internal virtual {... */\n    tag_150:\n        /* \"@openzeppelin/contracts/access/Ownable.sol\":2985:3001  address oldOwner */\n      0x00\n        /* \"@openzeppelin/contracts/access/Ownable.sol\":3004:3010  _owner */\n      0x06\n      0x00\n      swap1\n      sload\n      swap1\n      0x0100\n      exp\n      swap1\n      div\n      0xffffffffffffffffffffffffffffffffffffffff\n      and\n        /* \"@openzeppelin/contracts/access/Ownable.sol\":2985:3010  address oldOwner = _owner */\n      swap1\n      pop\n        /* \"@openzeppelin/contracts/access/Ownable.sol\":3029:3037  newOwner */\n      dup2\n        /* \"@openzeppelin/contracts/access/Ownable.sol\":3020:3026  _owner */\n      0x06\n      0x00\n        /* \"@openzeppelin/contracts/access/Ownable.sol\":3020:3037  _owner = newOwner */\n      0x0100\n      exp\n      dup2\n      sload\n      dup2\n      0xffffffffffffffffffffffffffffffffffffffff\n      mul\n      not\n      and\n      swap1\n      dup4\n      0xffffffffffffffffffffffffffffffffffffffff\n      and\n      mul\n      or\n      swap1\n      sstore\n      pop\n        /* \"@openzeppelin/contracts/access/Ownable.sol\":3083:3091  newOwner */\n      dup2\n        /* \"@openzeppelin/contracts/access/Ownable.sol\":3052:3092  OwnershipTransferred(oldOwner, newOwner) */\n      0xffffffffffffffffffffffffffffffffffffffff\n      and\n        /* \"@openzeppelin/contracts/access/Ownable.sol\":3073:3081  oldOwner */\n      dup2\n        /* \"@openzeppelin/contracts/access/Ownable.sol\":3052:3092  OwnershipTransferred(oldOwner, newOwner) */\n      0xffffffffffffffffffffffffffffffffffffffff\n      and\n      0x8be0079c531659141344cd1fd0a4f28419497f9722a3daafe3b4186f6b6457e0\n      mload(0x40)\n      mload(0x40)\n      dup1\n      swap2\n      sub\n      swap1\n      log3\n        /* \"@openzeppelin/contracts/access/Ownable.sol\":2975:3099  {... */\n      pop\n        /* \"@openzeppelin/contracts/access/Ownable.sol\":2912:3099  function _transferOwnership(address newOwner) internal virtual {... */\n      pop\n      jump\t// out\n        /* \"@openzeppelin/contracts/token/ERC721/ERC721.sol\":15591:15903  function _setApprovalForAll(address owner, address operator, bool approved) internal virtual {... */\n    tag_168:\n        /* \"@openzeppelin/contracts/token/ERC721/ERC721.sol\":15718:15719  0 */\n      0x00\n        /* \"@openzeppelin/contracts/token/ERC721/ERC721.sol\":15698:15720  operator == address(0) */\n      0xffffffffffffffffffffffffffffffffffffffff\n      and\n        /* \"@openzeppelin/contracts/token/ERC721/ERC721.sol\":15698:15706  operator */\n      dup3\n        /* \"@openzeppelin/contracts/token/ERC721/ERC721.sol\":15698:15720  operator == address(0) */\n      0xffffffffffffffffffffffffffffffffffffffff\n      and\n      sub\n        /* \"@openzeppelin/contracts/token/ERC721/ERC721.sol\":15694:15785  if (operator == address(0)) {... */\n      tag_221\n      jumpi\n        /* \"@openzeppelin/contracts/token/ERC721/ERC721.sol\":15765:15773  operator */\n      dup2\n        /* \"@openzeppelin/contracts/token/ERC721/ERC721.sol\":15743:15774  ERC721InvalidOperator(operator) */\n      mload(0x40)\n      0x5b08ba1800000000000000000000000000000000000000000000000000000000\n      dup2\n      mstore\n      0x04\n      add\n      tag_222\n      swap2\n      swap1\n      tag_39\n      jump\t// in\n    tag_222:\n      mload(0x40)\n      dup1\n      swap2\n      sub\n      swap1\n      revert\n        /* \"@openzeppelin/contracts/token/ERC721/ERC721.sol\":15694:15785  if (operator == address(0)) {... */\n    tag_221:\n        /* \"@openzeppelin/contracts/token/ERC721/ERC721.sol\":15832:15840  approved */\n      dup1\n        /* \"@openzeppelin/contracts/token/ERC721/ERC721.sol\":15794:15812  _operatorApprovals */\n      0x05\n        /* \"@openzeppelin/contracts/token/ERC721/ERC721.sol\":15794:15819  _operatorApprovals[owner] */\n      0x00\n        /* \"@openzeppelin/contracts/token/ERC721/ERC721.sol\":15813:15818  owner */\n      dup6\n        /* \"@openzeppelin/contracts/token/ERC721/ERC721.sol\":15794:15819  _operatorApprovals[owner] */\n      0xffffffffffffffffffffffffffffffffffffffff\n      and\n      0xffffffffffffffffffffffffffffffffffffffff\n      and\n      dup2\n      mstore\n      0x20\n      add\n      swap1\n      dup2\n      mstore\n      0x20\n      add\n      0x00\n      keccak256\n        /* \"@openzeppelin/contracts/token/ERC721/ERC721.sol\":15794:15829  _operatorApprovals[owner][operator] */\n      0x00\n        /* \"@openzeppelin/contracts/token/ERC721/ERC721.sol\":15820:15828  operator */\n      dup5\n        /* \"@openzeppelin/contracts/token/ERC721/ERC721.sol\":15794:15829  _operatorApprovals[owner][operator] */\n      0xffffffffffffffffffffffffffffffffffffffff\n      and\n      0xffffffffffffffffffffffffffffffffffffffff\n      and\n      dup2\n      mstore\n      0x20\n      add\n      swap1\n      dup2\n      mstore\n      0x20\n      add\n      0x00\n      keccak256\n      0x00\n        /* \"@openzeppelin/contracts/token/ERC721/ERC721.sol\":15794:15840  _operatorApprovals[owner][operator] = approved */\n      0x0100\n      exp\n      dup2\n      sload\n      dup2\n      0xff\n      mul\n      not\n      and\n      swap1\n      dup4\n      iszero\n      iszero\n      mul\n      or\n      swap1\n      sstore\n      pop\n        /* \"@openzeppelin/contracts/token/ERC721/ERC721.sol\":15877:15885  operator */\n      dup2\n        /* \"@openzeppelin/contracts/token/ERC721/ERC721.sol\":15855:15896  ApprovalForAll(owner, operator, approved) */\n      0xffffffffffffffffffffffffffffffffffffffff\n      and\n        /* \"@openzeppelin/contracts/token/ERC721/ERC721.sol\":15870:15875  owner */\n      dup4\n        /* \"@openzeppelin/contracts/token/ERC721/ERC721.sol\":15855:15896  ApprovalForAll(owner, operator, approved) */\n      0xffffffffffffffffffffffffffffffffffffffff\n      and\n      0x17307eab39ab6107e8899845ad3d59bd9653f200f220920489ca2b5937696c31\n        /* \"@openzeppelin/contracts/token/ERC721/ERC721.sol\":15887:15895  approved */\n      dup4\n        /* \"@openzeppelin/contracts/token/ERC721/ERC721.sol\":15855:15896  ApprovalForAll(owner, operator, approved) */\n      mload(0x40)\n      tag_223\n      swap2\n      swap1\n      tag_29\n      jump\t// in\n    tag_223:\n      mload(0x40)\n      dup1\n      swap2\n      sub\n      swap1\n      log3\n        /* \"@openzeppelin/contracts/token/ERC721/ERC721.sol\":15591:15903  function _setApprovalForAll(address owner, address operator, bool approved) internal virtual {... */\n      pop\n      pop\n      pop\n      jump\t// out\n        /* \"@openzeppelin/contracts/token/ERC721/ERC721.sol\":16918:17700  function _checkOnERC721Received(address from, address to, uint256 tokenId, bytes memory data) private {... */\n    tag_172:\n        /* \"@openzeppelin/contracts/token/ERC721/ERC721.sol\":17051:17052  0 */\n      0x00\n        /* \"@openzeppelin/contracts/token/ERC721/ERC721.sol\":17034:17036  to */\n      dup4\n        /* \"@openzeppelin/contracts/token/ERC721/ERC721.sol\":17034:17048  to.code.length */\n      0xffffffffffffffffffffffffffffffffffffffff\n      and\n      extcodesize\n        /* \"@openzeppelin/contracts/token/ERC721/ERC721.sol\":17034:17052  to.code.length > 0 */\n      gt\n        /* \"@openzeppelin/contracts/token/ERC721/ERC721.sol\":17030:17694  if (to.code.length > 0) {... */\n      iszero\n      tag_225\n      jumpi\n        /* \"@openzeppelin/contracts/token/ERC721/ERC721.sol\":17088:17090  to */\n      dup3\n        /* \"@openzeppelin/contracts/token/ERC721/ERC721.sol\":17072:17108  IERC721Receiver(to).onERC721Received */\n      0xffffffffffffffffffffffffffffffffffffffff\n      and\n      0x150b7a02\n        /* \"@openzeppelin/contracts/token/ERC721/ERC721.sol\":17109:17121  _msgSender() */\n      tag_226\n        /* \"@openzeppelin/contracts/token/ERC721/ERC721.sol\":17109:17119  _msgSender */\n      tag_117\n        /* \"@openzeppelin/contracts/token/ERC721/ERC721.sol\":17109:17121  _msgSender() */\n      jump\t// in\n    tag_226:\n        /* \"@openzeppelin/contracts/token/ERC721/ERC721.sol\":17123:17127  from */\n      dup7\n        /* \"@openzeppelin/contracts/token/ERC721/ERC721.sol\":17129:17136  tokenId */\n      dup6\n        /* \"@openzeppelin/contracts/token/ERC721/ERC721.sol\":17138:17142  data */\n      dup6\n        /* \"@openzeppelin/contracts/token/ERC721/ERC721.sol\":17072:17143  IERC721Receiver(to).onERC721Received(_msgSender(), from, tokenId, data) */\n      mload(0x40)\n      dup6\n      0xffffffff\n      and\n      0xe0\n      shl\n      dup2\n      mstore\n      0x04\n      add\n      tag_227\n      swap5\n      swap4\n      swap3\n      swap2\n      swap1\n      tag_228\n      jump\t// in\n    tag_227:\n      0x20\n      mload(0x40)\n      dup1\n      dup4\n      sub\n      dup2\n      0x00\n      dup8\n      gas\n      call\n      swap3\n      pop\n      pop\n      pop\n      dup1\n      iszero\n      tag_229\n      jumpi\n      pop\n      mload(0x40)\n      returndatasize\n      not(0x1f)\n      0x1f\n      dup3\n      add\n      and\n      dup3\n      add\n      dup1\n      0x40\n      mstore\n      pop\n      dup2\n      add\n      swap1\n      tag_230\n      swap2\n      swap1\n      tag_231\n      jump\t// in\n    tag_230:\n      0x01\n    tag_229:\n        /* \"@openzeppelin/contracts/token/ERC721/ERC721.sol\":17068:17684  try IERC721Receiver(to).onERC721Received(_msgSender(), from, tokenId, data) returns (bytes4 retval) {... */\n      tag_232\n      jumpi\n      returndatasize\n      dup1\n      0x00\n      dup2\n      eq\n      tag_237\n      jumpi\n      mload(0x40)\n      swap2\n      pop\n      and(add(returndatasize, 0x3f), not(0x1f))\n      dup3\n      add\n      0x40\n      mstore\n      returndatasize\n      dup3\n      mstore\n      returndatasize\n      0x00\n      0x20\n      dup5\n      add\n      returndatacopy\n      jump(tag_236)\n    tag_237:\n      0x60\n      swap2\n      pop\n    tag_236:\n      pop\n        /* \"@openzeppelin/contracts/token/ERC721/ERC721.sol\":17398:17399  0 */\n      0x00\n        /* \"@openzeppelin/contracts/token/ERC721/ERC721.sol\":17381:17387  reason */\n      dup2\n        /* \"@openzeppelin/contracts/token/ERC721/ERC721.sol\":17381:17394  reason.length */\n      mload\n        /* \"@openzeppelin/contracts/token/ERC721/ERC721.sol\":17381:17399  reason.length == 0 */\n      sub\n        /* \"@openzeppelin/contracts/token/ERC721/ERC721.sol\":17377:17670  if (reason.length == 0) {... */\n      tag_238\n      jumpi\n        /* \"@openzeppelin/contracts/token/ERC721/ERC721.sol\":17452:17454  to */\n      dup4\n        /* \"@openzeppelin/contracts/token/ERC721/ERC721.sol\":17430:17455  ERC721InvalidReceiver(to) */\n      mload(0x40)\n      0x64a0ae9200000000000000000000000000000000000000000000000000000000\n      dup2\n      mstore\n      0x04\n      add\n      tag_239\n      swap2\n      swap1\n      tag_39\n      jump\t// in\n    tag_239:\n      mload(0x40)\n      dup1\n      swap2\n      sub\n      swap1\n      revert\n        /* \"@openzeppelin/contracts/token/ERC721/ERC721.sol\":17377:17670  if (reason.length == 0) {... */\n    tag_238:\n        /* \"@openzeppelin/contracts/token/ERC721/ERC721.sol\":17622:17628  reason */\n      dup1\n        /* \"@openzeppelin/contracts/token/ERC721/ERC721.sol\":17616:17629  mload(reason) */\n      mload\n        /* \"@openzeppelin/contracts/token/ERC721/ERC721.sol\":17607:17613  reason */\n      dup2\n        /* \"@openzeppelin/contracts/token/ERC721/ERC721.sol\":17603:17605  32 */\n      0x20\n        /* \"@openzeppelin/contracts/token/ERC721/ERC721.sol\":17599:17614  add(32, reason) */\n      add\n        /* \"@openzeppelin/contracts/token/ERC721/ERC721.sol\":17592:17630  revert(add(32, reason), mload(reason)) */\n      revert\n        /* \"@openzeppelin/contracts/token/ERC721/ERC721.sol\":17068:17684  try IERC721Receiver(to).onERC721Received(_msgSender(), from, tokenId, data) returns (bytes4 retval) {... */\n    tag_232:\n        /* \"@openzeppelin/contracts/token/ERC721/ERC721.sol\":17200:17241  IERC721Receiver.onERC721Received.selector */\n      shl(0xe0, 0x150b7a02)\n        /* \"@openzeppelin/contracts/token/ERC721/ERC721.sol\":17190:17241  retval != IERC721Receiver.onERC721Received.selector */\n      not(0xffffffffffffffffffffffffffffffffffffffffffffffffffffffff)\n      and\n        /* \"@openzeppelin/contracts/token/ERC721/ERC721.sol\":17190:17196  retval */\n      dup2\n        /* \"@openzeppelin/contracts/token/ERC721/ERC721.sol\":17190:17241  retval != IERC721Receiver.onERC721Received.selector */\n      not(0xffffffffffffffffffffffffffffffffffffffffffffffffffffffff)\n      and\n      eq\n        /* \"@openzeppelin/contracts/token/ERC721/ERC721.sol\":17186:17316  if (retval != IERC721Receiver.onERC721Received.selector) {... */\n      tag_242\n      jumpi\n        /* \"@openzeppelin/contracts/token/ERC721/ERC721.sol\":17294:17296  to */\n      dup4\n        /* \"@openzeppelin/contracts/token/ERC721/ERC721.sol\":17272:17297  ERC721InvalidReceiver(to) */\n      mload(0x40)\n      0x64a0ae9200000000000000000000000000000000000000000000000000000000\n      dup2\n      mstore\n      0x04\n      add\n      tag_243\n      swap2\n      swap1\n      tag_39\n      jump\t// in\n    tag_243:\n      mload(0x40)\n      dup1\n      swap2\n      sub\n      swap1\n      revert\n        /* \"@openzeppelin/contracts/token/ERC721/ERC721.sol\":17186:17316  if (retval != IERC721Receiver.onERC721Received.selector) {... */\n    tag_242:\n        /* \"@openzeppelin/contracts/token/ERC721/ERC721.sol\":17144:17330  returns (bytes4 retval) {... */\n      pop\n        /* \"@openzeppelin/contracts/token/ERC721/ERC721.sol\":17030:17694  if (to.code.length > 0) {... */\n    tag_225:\n        /* \"@openzeppelin/contracts/token/ERC721/ERC721.sol\":16918:17700  function _checkOnERC721Received(address from, address to, uint256 tokenId, bytes memory data) private {... */\n      pop\n      pop\n      pop\n      pop\n      jump\t// out\n        /* \"@openzeppelin/contracts/token/ERC721/ERC721.sol\":5707:5822  function _ownerOf(uint256 tokenId) internal view virtual returns (address) {... */\n    tag_191:\n        /* \"@openzeppelin/contracts/token/ERC721/ERC721.sol\":5773:5780  address */\n      0x00\n        /* \"@openzeppelin/contracts/token/ERC721/ERC721.sol\":5799:5806  _owners */\n      0x02\n        /* \"@openzeppelin/contracts/token/ERC721/ERC721.sol\":5799:5815  _owners[tokenId] */\n      0x00\n        /* \"@openzeppelin/contracts/token/ERC721/ERC721.sol\":5807:5814  tokenId */\n      dup4\n        /* \"@openzeppelin/contracts/token/ERC721/ERC721.sol\":5799:5815  _owners[tokenId] */\n      dup2\n      mstore\n      0x20\n      add\n      swap1\n      dup2\n      mstore\n      0x20\n      add\n      0x00\n      keccak256\n      0x00\n      swap1\n      sload\n      swap1\n      0x0100\n      exp\n      swap1\n      div\n      0xffffffffffffffffffffffffffffffffffffffff\n      and\n        /* \"@openzeppelin/contracts/token/ERC721/ERC721.sol\":5792:5815  return _owners[tokenId] */\n      swap1\n      pop\n        /* \"@openzeppelin/contracts/token/ERC721/ERC721.sol\":5707:5822  function _ownerOf(uint256 tokenId) internal view virtual returns (address) {... */\n      swap2\n      swap1\n      pop\n      jump\t// out\n        /* \"@openzeppelin/contracts/token/ERC721/ERC721.sol\":14720:15382  function _approve(address to, uint256 tokenId, address auth, bool emitEvent) internal virtual {... */\n    tag_198:\n        /* \"@openzeppelin/contracts/token/ERC721/ERC721.sol\":14880:14889  emitEvent */\n      dup1\n        /* \"@openzeppelin/contracts/token/ERC721/ERC721.sol\":14880:14911  emitEvent || auth != address(0) */\n      dup1\n      tag_246\n      jumpi\n      pop\n        /* \"@openzeppelin/contracts/token/ERC721/ERC721.sol\":14909:14910  0 */\n      0x00\n        /* \"@openzeppelin/contracts/token/ERC721/ERC721.sol\":14893:14911  auth != address(0) */\n      0xffffffffffffffffffffffffffffffffffffffff\n      and\n        /* \"@openzeppelin/contracts/token/ERC721/ERC721.sol\":14893:14897  auth */\n      dup3\n        /* \"@openzeppelin/contracts/token/ERC721/ERC721.sol\":14893:14911  auth != address(0) */\n      0xffffffffffffffffffffffffffffffffffffffff\n      and\n      eq\n      iszero\n        /* \"@openzeppelin/contracts/token/ERC721/ERC721.sol\":14880:14911  emitEvent || auth != address(0) */\n    tag_246:\n        /* \"@openzeppelin/contracts/token/ERC721/ERC721.sol\":14876:15336  if (emitEvent || auth != address(0)) {... */\n      iszero\n      tag_247\n      jumpi\n        /* \"@openzeppelin/contracts/token/ERC721/ERC721.sol\":14927:14940  address owner */\n      0x00\n        /* \"@openzeppelin/contracts/token/ERC721/ERC721.sol\":14943:14965  _requireOwned(tokenId) */\n      tag_248\n        /* \"@openzeppelin/contracts/token/ERC721/ERC721.sol\":14957:14964  tokenId */\n      dup5\n        /* \"@openzeppelin/contracts/token/ERC721/ERC721.sol\":14943:14956  _requireOwned */\n      tag_111\n        /* \"@openzeppelin/contracts/token/ERC721/ERC721.sol\":14943:14965  _requireOwned(tokenId) */\n      jump\t// in\n    tag_248:\n        /* \"@openzeppelin/contracts/token/ERC721/ERC721.sol\":14927:14965  address owner = _requireOwned(tokenId) */\n      swap1\n      pop\n        /* \"@openzeppelin/contracts/token/ERC721/ERC721.sol\":15109:15110  0 */\n      0x00\n        /* \"@openzeppelin/contracts/token/ERC721/ERC721.sol\":15093:15111  auth != address(0) */\n      0xffffffffffffffffffffffffffffffffffffffff\n      and\n        /* \"@openzeppelin/contracts/token/ERC721/ERC721.sol\":15093:15097  auth */\n      dup4\n        /* \"@openzeppelin/contracts/token/ERC721/ERC721.sol\":15093:15111  auth != address(0) */\n      0xffffffffffffffffffffffffffffffffffffffff\n      and\n      eq\n      iszero\n        /* \"@openzeppelin/contracts/token/ERC721/ERC721.sol\":15093:15128  auth != address(0) && owner != auth */\n      dup1\n      iszero\n      tag_249\n      jumpi\n      pop\n        /* \"@openzeppelin/contracts/token/ERC721/ERC721.sol\":15124:15128  auth */\n      dup3\n        /* \"@openzeppelin/contracts/token/ERC721/ERC721.sol\":15115:15128  owner != auth */\n      0xffffffffffffffffffffffffffffffffffffffff\n      and\n        /* \"@openzeppelin/contracts/token/ERC721/ERC721.sol\":15115:15120  owner */\n      dup2\n        /* \"@openzeppelin/contracts/token/ERC721/ERC721.sol\":15115:15128  owner != auth */\n      0xffffffffffffffffffffffffffffffffffffffff\n      and\n      eq\n      iszero\n        /* \"@openzeppelin/contracts/token/ERC721/ERC721.sol\":15093:15128  auth != address(0) && owner != auth */\n    tag_249:\n        /* \"@openzeppelin/contracts/token/ERC721/ERC721.sol\":15093:15162  auth != address(0) && owner != auth && !isApprovedForAll(owner, auth) */\n      dup1\n      iszero\n      tag_250\n      jumpi\n      pop\n        /* \"@openzeppelin/contracts/token/ERC721/ERC721.sol\":15133:15162  isApprovedForAll(owner, auth) */\n      tag_251\n        /* \"@openzeppelin/contracts/token/ERC721/ERC721.sol\":15150:15155  owner */\n      dup2\n        /* \"@openzeppelin/contracts/token/ERC721/ERC721.sol\":15157:15161  auth */\n      dup5\n        /* \"@openzeppelin/contracts/token/ERC721/ERC721.sol\":15133:15149  isApprovedForAll */\n      tag_92\n        /* \"@openzeppelin/contracts/token/ERC721/ERC721.sol\":15133:15162  isApprovedForAll(owner, auth) */\n      jump\t// in\n    tag_251:\n        /* \"@openzeppelin/contracts/token/ERC721/ERC721.sol\":15132:15162  !isApprovedForAll(owner, auth) */\n      iszero\n        /* \"@openzeppelin/contracts/token/ERC721/ERC721.sol\":15093:15162  auth != address(0) && owner != auth && !isApprovedForAll(owner, auth) */\n    tag_250:\n        /* \"@openzeppelin/contracts/token/ERC721/ERC721.sol\":15089:15231  if (auth != address(0) && owner != auth && !isApprovedForAll(owner, auth)) {... */\n      iszero\n      tag_252\n      jumpi\n        /* \"@openzeppelin/contracts/token/ERC721/ERC721.sol\":15211:15215  auth */\n      dup3\n        /* \"@openzeppelin/contracts/token/ERC721/ERC721.sol\":15189:15216  ERC721InvalidApprover(auth) */\n      mload(0x40)\n      0xa9fbf51f00000000000000000000000000000000000000000000000000000000\n      dup2\n      mstore\n      0x04\n      add\n      tag_253\n      swap2\n      swap1\n      tag_39\n      jump\t// in\n    tag_253:\n      mload(0x40)\n      dup1\n      swap2\n      sub\n      swap1\n      revert\n        /* \"@openzeppelin/contracts/token/ERC721/ERC721.sol\":15089:15231  if (auth != address(0) && owner != auth && !isApprovedForAll(owner, auth)) {... */\n    tag_252:\n        /* \"@openzeppelin/contracts/token/ERC721/ERC721.sol\":15249:15258  emitEvent */\n      dup2\n        /* \"@openzeppelin/contracts/token/ERC721/ERC721.sol\":15245:15326  if (emitEvent) {... */\n      iszero\n      tag_254\n      jumpi\n        /* \"@openzeppelin/contracts/token/ERC721/ERC721.sol\":15303:15310  tokenId */\n      dup4\n        /* \"@openzeppelin/contracts/token/ERC721/ERC721.sol\":15299:15301  to */\n      dup6\n        /* \"@openzeppelin/contracts/token/ERC721/ERC721.sol\":15283:15311  Approval(owner, to, tokenId) */\n      0xffffffffffffffffffffffffffffffffffffffff\n      and\n        /* \"@openzeppelin/contracts/token/ERC721/ERC721.sol\":15292:15297  owner */\n      dup3\n        /* \"@openzeppelin/contracts/token/ERC721/ERC721.sol\":15283:15311  Approval(owner, to, tokenId) */\n      0xffffffffffffffffffffffffffffffffffffffff\n      and\n      0x8c5be1e5ebec7d5bd14f71427d1e84f3dd0314c0f7b2291e5b200ac8c7c3b925\n      mload(0x40)\n      mload(0x40)\n      dup1\n      swap2\n      sub\n      swap1\n      log4\n        /* \"@openzeppelin/contracts/token/ERC721/ERC721.sol\":15245:15326  if (emitEvent) {... */\n    tag_254:\n        /* \"@openzeppelin/contracts/token/ERC721/ERC721.sol\":14913:15336  {... */\n      pop\n        /* \"@openzeppelin/contracts/token/ERC721/ERC721.sol\":14876:15336  if (emitEvent || auth != address(0)) {... */\n    tag_247:\n        /* \"@openzeppelin/contracts/token/ERC721/ERC721.sol\":15373:15375  to */\n      dup4\n        /* \"@openzeppelin/contracts/token/ERC721/ERC721.sol\":15346:15361  _tokenApprovals */\n      0x04\n        /* \"@openzeppelin/contracts/token/ERC721/ERC721.sol\":15346:15370  _tokenApprovals[tokenId] */\n      0x00\n        /* \"@openzeppelin/contracts/token/ERC721/ERC721.sol\":15362:15369  tokenId */\n      dup6\n        /* \"@openzeppelin/contracts/token/ERC721/ERC721.sol\":15346:15370  _tokenApprovals[tokenId] */\n      dup2\n      mstore\n      0x20\n      add\n      swap1\n      dup2\n      mstore\n      0x20\n      add\n      0x00\n      keccak256\n      0x00\n        /* \"@openzeppelin/contracts/token/ERC721/ERC721.sol\":15346:15375  _tokenApprovals[tokenId] = to */\n      0x0100\n      exp\n      dup2\n      sload\n      dup2\n      0xffffffffffffffffffffffffffffffffffffffff\n      mul\n      not\n      and\n      swap1\n      dup4\n      0xffffffffffffffffffffffffffffffffffffffff\n      and\n      mul\n      or\n      swap1\n      sstore\n      pop\n        /* \"@openzeppelin/contracts/token/ERC721/ERC721.sol\":14720:15382  function _approve(address to, uint256 tokenId, address auth, bool emitEvent) internal virtual {... */\n      pop\n      pop\n      pop\n      pop\n      jump\t// out\n        /* \"@openzeppelin/contracts/token/ERC721/ERC721.sol\":7082:7450  function _checkAuthorized(address owner, address spender, uint256 tokenId) internal view virtual {... */\n    tag_215:\n        /* \"@openzeppelin/contracts/token/ERC721/ERC721.sol\":7194:7232  _isAuthorized(owner, spender, tokenId) */\n      tag_256\n        /* \"@openzeppelin/contracts/token/ERC721/ERC721.sol\":7208:7213  owner */\n      dup4\n        /* \"@openzeppelin/contracts/token/ERC721/ERC721.sol\":7215:7222  spender */\n      dup4\n        /* \"@openzeppelin/contracts/token/ERC721/ERC721.sol\":7224:7231  tokenId */\n      dup4\n        /* \"@openzeppelin/contracts/token/ERC721/ERC721.sol\":7194:7207  _isAuthorized */\n      tag_257\n        /* \"@openzeppelin/contracts/token/ERC721/ERC721.sol\":7194:7232  _isAuthorized(owner, spender, tokenId) */\n      jump\t// in\n    tag_256:\n        /* \"@openzeppelin/contracts/token/ERC721/ERC721.sol\":7189:7444  if (!_isAuthorized(owner, spender, tokenId)) {... */\n      tag_258\n      jumpi\n        /* \"@openzeppelin/contracts/token/ERC721/ERC721.sol\":7269:7270  0 */\n      0x00\n        /* \"@openzeppelin/contracts/token/ERC721/ERC721.sol\":7252:7271  owner == address(0) */\n      0xffffffffffffffffffffffffffffffffffffffff\n      and\n        /* \"@openzeppelin/contracts/token/ERC721/ERC721.sol\":7252:7257  owner */\n      dup4\n        /* \"@openzeppelin/contracts/token/ERC721/ERC721.sol\":7252:7271  owner == address(0) */\n      0xffffffffffffffffffffffffffffffffffffffff\n      and\n      sub\n        /* \"@openzeppelin/contracts/token/ERC721/ERC721.sol\":7248:7434  if (owner == address(0)) {... */\n      tag_259\n      jumpi\n        /* \"@openzeppelin/contracts/token/ERC721/ERC721.sol\":7321:7328  tokenId */\n      dup1\n        /* \"@openzeppelin/contracts/token/ERC721/ERC721.sol\":7298:7329  ERC721NonexistentToken(tokenId) */\n      mload(0x40)\n      0x7e27328900000000000000000000000000000000000000000000000000000000\n      dup2\n      mstore\n      0x04\n      add\n      tag_260\n      swap2\n      swap1\n      tag_64\n      jump\t// in\n    tag_260:\n      mload(0x40)\n      dup1\n      swap2\n      sub\n      swap1\n      revert\n        /* \"@openzeppelin/contracts/token/ERC721/ERC721.sol\":7248:7434  if (owner == address(0)) {... */\n    tag_259:\n        /* \"@openzeppelin/contracts/token/ERC721/ERC721.sol\":7402:7409  spender */\n      dup2\n        /* \"@openzeppelin/contracts/token/ERC721/ERC721.sol\":7411:7418  tokenId */\n      dup2\n        /* \"@openzeppelin/contracts/token/ERC721/ERC721.sol\":7375:7419  ERC721InsufficientApproval(spender, tokenId) */\n      mload(0x40)\n      0x177e802f00000000000000000000000000000000000000000000000000000000\n      dup2\n      mstore\n      0x04\n      add\n      tag_262\n      swap3\n      swap2\n      swap1\n      tag_263\n      jump\t// in\n    tag_262:\n      mload(0x40)\n      dup1\n      swap2\n      sub\n      swap1\n      revert\n        /* \"@openzeppelin/contracts/token/ERC721/ERC721.sol\":7189:7444  if (!_isAuthorized(owner, spender, tokenId)) {... */\n    tag_258:\n        /* \"@openzeppelin/contracts/token/ERC721/ERC721.sol\":7082:7450  function _checkAuthorized(address owner, address spender, uint256 tokenId) internal view virtual {... */\n      pop\n      pop\n      pop\n      jump\t// out\n        /* \"@openzeppelin/contracts/token/ERC721/ERC721.sol\":6376:6648  function _isAuthorized(address owner, address spender, uint256 tokenId) internal view virtual returns (bool) {... */\n    tag_257:\n        /* \"@openzeppelin/contracts/token/ERC721/ERC721.sol\":6479:6483  bool */\n      0x00\n        /* \"@openzeppelin/contracts/token/ERC721/ERC721.sol\":6533:6534  0 */\n      dup1\n        /* \"@openzeppelin/contracts/token/ERC721/ERC721.sol\":6514:6535  spender != address(0) */\n      0xffffffffffffffffffffffffffffffffffffffff\n      and\n        /* \"@openzeppelin/contracts/token/ERC721/ERC721.sol\":6514:6521  spender */\n      dup4\n        /* \"@openzeppelin/contracts/token/ERC721/ERC721.sol\":6514:6535  spender != address(0) */\n      0xffffffffffffffffffffffffffffffffffffffff\n      and\n      eq\n      iszero\n        /* \"@openzeppelin/contracts/token/ERC721/ERC721.sol\":6514:6641  spender != address(0) &&... */\n      dup1\n      iszero\n      tag_265\n      jumpi\n      pop\n        /* \"@openzeppelin/contracts/token/ERC721/ERC721.sol\":6561:6568  spender */\n      dup3\n        /* \"@openzeppelin/contracts/token/ERC721/ERC721.sol\":6552:6568  owner == spender */\n      0xffffffffffffffffffffffffffffffffffffffff\n      and\n        /* \"@openzeppelin/contracts/token/ERC721/ERC721.sol\":6552:6557  owner */\n      dup5\n        /* \"@openzeppelin/contracts/token/ERC721/ERC721.sol\":6552:6568  owner == spender */\n      0xffffffffffffffffffffffffffffffffffffffff\n      and\n      eq\n        /* \"@openzeppelin/contracts/token/ERC721/ERC721.sol\":6552:6604  owner == spender || isApprovedForAll(owner, spender) */\n      dup1\n      tag_266\n      jumpi\n      pop\n        /* \"@openzeppelin/contracts/token/ERC721/ERC721.sol\":6572:6604  isApprovedForAll(owner, spender) */\n      tag_267\n        /* \"@openzeppelin/contracts/token/ERC721/ERC721.sol\":6589:6594  owner */\n      dup5\n        /* \"@openzeppelin/contracts/token/ERC721/ERC721.sol\":6596:6603  spender */\n      dup5\n        /* \"@openzeppelin/contracts/token/ERC721/ERC721.sol\":6572:6588  isApprovedForAll */\n      tag_92\n        /* \"@openzeppelin/contracts/token/ERC721/ERC721.sol\":6572:6604  isApprovedForAll(owner, spender) */\n      jump\t// in\n    tag_267:\n        /* \"@openzeppelin/contracts/token/ERC721/ERC721.sol\":6552:6604  owner == spender || isApprovedForAll(owner, spender) */\n    tag_266:\n        /* \"@openzeppelin/contracts/token/ERC721/ERC721.sol\":6552:6640  owner == spender || isApprovedForAll(owner, spender) || _getApproved(tokenId) == spender */\n      dup1\n      tag_268\n      jumpi\n      pop\n        /* \"@openzeppelin/contracts/token/ERC721/ERC721.sol\":6633:6640  spender */\n      dup3\n        /* \"@openzeppelin/contracts/token/ERC721/ERC721.sol\":6608:6640  _getApproved(tokenId) == spender */\n      0xffffffffffffffffffffffffffffffffffffffff\n      and\n        /* \"@openzeppelin/contracts/token/ERC721/ERC721.sol\":6608:6629  _getApproved(tokenId) */\n      tag_269\n        /* \"@openzeppelin/contracts/token/ERC721/ERC721.sol\":6621:6628  tokenId */\n      dup4\n        /* \"@openzeppelin/contracts/token/ERC721/ERC721.sol\":6608:6620  _getApproved */\n      tag_113\n        /* \"@openzeppelin/contracts/token/ERC721/ERC721.sol\":6608:6629  _getApproved(tokenId) */\n      jump\t// in\n    tag_269:\n        /* \"@openzeppelin/contracts/token/ERC721/ERC721.sol\":6608:6640  _getApproved(tokenId) == spender */\n      0xffffffffffffffffffffffffffffffffffffffff\n      and\n      eq\n        /* \"@openzeppelin/contracts/token/ERC721/ERC721.sol\":6552:6640  owner == spender || isApprovedForAll(owner, spender) || _getApproved(tokenId) == spender */\n    tag_268:\n        /* \"@openzeppelin/contracts/token/ERC721/ERC721.sol\":6514:6641  spender != address(0) &&... */\n    tag_265:\n        /* \"@openzeppelin/contracts/token/ERC721/ERC721.sol\":6495:6641  return... */\n      swap1\n      pop\n        /* \"@openzeppelin/contracts/token/ERC721/ERC721.sol\":6376:6648  function _isAuthorized(address owner, address spender, uint256 tokenId) internal view virtual returns (bool) {... */\n      swap4\n      swap3\n      pop\n      pop\n      pop\n      jump\t// out\n        /* \"#utility.yul\":7:82   */\n    tag_270:\n        /* \"#utility.yul\":40:46   */\n      0x00\n        /* \"#utility.yul\":73:75   */\n      0x40\n        /* \"#utility.yul\":67:76   */\n      mload\n        /* \"#utility.yul\":57:76   */\n      swap1\n      pop\n        /* \"#utility.yul\":7:82   */\n      swap1\n      jump\t// out\n        /* \"#utility.yul\":88:205   */\n    tag_271:\n        /* \"#utility.yul\":197:198   */\n      0x00\n        /* \"#utility.yul\":194:195   */\n      dup1\n        /* \"#utility.yul\":187:199   */\n      revert\n        /* \"#utility.yul\":211:328   */\n    tag_272:\n        /* \"#utility.yul\":320:321   */\n      0x00\n        /* \"#utility.yul\":317:318   */\n      dup1\n        /* \"#utility.yul\":310:322   */\n      revert\n        /* \"#utility.yul\":334:483   */\n    tag_273:\n        /* \"#utility.yul\":370:377   */\n      0x00\n        /* \"#utility.yul\":410:476   */\n      0xffffffff00000000000000000000000000000000000000000000000000000000\n        /* \"#utility.yul\":403:408   */\n      dup3\n        /* \"#utility.yul\":399:477   */\n      and\n        /* \"#utility.yul\":388:477   */\n      swap1\n      pop\n        /* \"#utility.yul\":334:483   */\n      swap2\n      swap1\n      pop\n      jump\t// out\n        /* \"#utility.yul\":489:609   */\n    tag_274:\n        /* \"#utility.yul\":561:584   */\n      tag_336\n        /* \"#utility.yul\":578:583   */\n      dup2\n        /* \"#utility.yul\":561:584   */\n      tag_273\n      jump\t// in\n    tag_336:\n        /* \"#utility.yul\":554:559   */\n      dup2\n        /* \"#utility.yul\":551:585   */\n      eq\n        /* \"#utility.yul\":541:603   */\n      tag_337\n      jumpi\n        /* \"#utility.yul\":599:600   */\n      0x00\n        /* \"#utility.yul\":596:597   */\n      dup1\n        /* \"#utility.yul\":589:601   */\n      revert\n        /* \"#utility.yul\":541:603   */\n    tag_337:\n        /* \"#utility.yul\":489:609   */\n      pop\n      jump\t// out\n        /* \"#utility.yul\":615:752   */\n    tag_275:\n        /* \"#utility.yul\":660:665   */\n      0x00\n        /* \"#utility.yul\":698:704   */\n      dup2\n        /* \"#utility.yul\":685:705   */\n      calldataload\n        /* \"#utility.yul\":676:705   */\n      swap1\n      pop\n        /* \"#utility.yul\":714:746   */\n      tag_339\n        /* \"#utility.yul\":740:745   */\n      dup2\n        /* \"#utility.yul\":714:746   */\n      tag_274\n      jump\t// in\n    tag_339:\n        /* \"#utility.yul\":615:752   */\n      swap3\n      swap2\n      pop\n      pop\n      jump\t// out\n        /* \"#utility.yul\":758:1085   */\n    tag_26:\n        /* \"#utility.yul\":816:822   */\n      0x00\n        /* \"#utility.yul\":865:867   */\n      0x20\n        /* \"#utility.yul\":853:862   */\n      dup3\n        /* \"#utility.yul\":844:851   */\n      dup5\n        /* \"#utility.yul\":840:863   */\n      sub\n        /* \"#utility.yul\":836:868   */\n      slt\n        /* \"#utility.yul\":833:952   */\n      iszero\n      tag_341\n      jumpi\n        /* \"#utility.yul\":871:950   */\n      tag_342\n      tag_271\n      jump\t// in\n    tag_342:\n        /* \"#utility.yul\":833:952   */\n    tag_341:\n        /* \"#utility.yul\":991:992   */\n      0x00\n        /* \"#utility.yul\":1016:1068   */\n      tag_343\n        /* \"#utility.yul\":1060:1067   */\n      dup5\n        /* \"#utility.yul\":1051:1057   */\n      dup3\n        /* \"#utility.yul\":1040:1049   */\n      dup6\n        /* \"#utility.yul\":1036:1058   */\n      add\n        /* \"#utility.yul\":1016:1068   */\n      tag_275\n      jump\t// in\n    tag_343:\n        /* \"#utility.yul\":1006:1068   */\n      swap2\n      pop\n        /* \"#utility.yul\":962:1078   */\n      pop\n        /* \"#utility.yul\":758:1085   */\n      swap3\n      swap2\n      pop\n      pop\n      jump\t// out\n        /* \"#utility.yul\":1091:1181   */\n    tag_276:\n        /* \"#utility.yul\":1125:1132   */\n      0x00\n        /* \"#utility.yul\":1168:1173   */\n      dup2\n        /* \"#utility.yul\":1161:1174   */\n      iszero\n        /* \"#utility.yul\":1154:1175   */\n      iszero\n        /* \"#utility.yul\":1143:1175   */\n      swap1\n      pop\n        /* \"#utility.yul\":1091:1181   */\n      swap2\n      swap1\n      pop\n      jump\t// out\n        /* \"#utility.yul\":1187:1296   */\n    tag_277:\n        /* \"#utility.yul\":1268:1289   */\n      tag_346\n        /* \"#utility.yul\":1283:1288   */\n      dup2\n        /* \"#utility.yul\":1268:1289   */\n      tag_276\n      jump\t// in\n    tag_346:\n        /* \"#utility.yul\":1263:1266   */\n      dup3\n        /* \"#utility.yul\":1256:1290   */\n      mstore\n        /* \"#utility.yul\":1187:1296   */\n      pop\n      pop\n      jump\t// out\n        /* \"#utility.yul\":1302:1512   */\n    tag_29:\n        /* \"#utility.yul\":1389:1393   */\n      0x00\n        /* \"#utility.yul\":1427:1429   */\n      0x20\n        /* \"#utility.yul\":1416:1425   */\n      dup3\n        /* \"#utility.yul\":1412:1430   */\n      add\n        /* \"#utility.yul\":1404:1430   */\n      swap1\n      pop\n        /* \"#utility.yul\":1440:1505   */\n      tag_348\n        /* \"#utility.yul\":1502:1503   */\n      0x00\n        /* \"#utility.yul\":1491:1500   */\n      dup4\n        /* \"#utility.yul\":1487:1504   */\n      add\n        /* \"#utility.yul\":1478:1484   */\n      dup5\n        /* \"#utility.yul\":1440:1505   */\n      tag_277\n      jump\t// in\n    tag_348:\n        /* \"#utility.yul\":1302:1512   */\n      swap3\n      swap2\n      pop\n      pop\n      jump\t// out\n        /* \"#utility.yul\":1518:1617   */\n    tag_278:\n        /* \"#utility.yul\":1570:1576   */\n      0x00\n        /* \"#utility.yul\":1604:1609   */\n      dup2\n        /* \"#utility.yul\":1598:1610   */\n      mload\n        /* \"#utility.yul\":1588:1610   */\n      swap1\n      pop\n        /* \"#utility.yul\":1518:1617   */\n      swap2\n      swap1\n      pop\n      jump\t// out\n        /* \"#utility.yul\":1623:1792   */\n    tag_279:\n        /* \"#utility.yul\":1707:1718   */\n      0x00\n        /* \"#utility.yul\":1741:1747   */\n      dup3\n        /* \"#utility.yul\":1736:1739   */\n      dup3\n        /* \"#utility.yul\":1729:1748   */\n      mstore\n        /* \"#utility.yul\":1781:1785   */\n      0x20\n        /* \"#utility.yul\":1776:1779   */\n      dup3\n        /* \"#utility.yul\":1772:1786   */\n      add\n        /* \"#utility.yul\":1757:1786   */\n      swap1\n      pop\n        /* \"#utility.yul\":1623:1792   */\n      swap3\n      swap2\n      pop\n      pop\n      jump\t// out\n        /* \"#utility.yul\":1798:2044   */\n    tag_280:\n        /* \"#utility.yul\":1879:1880   */\n      0x00\n        /* \"#utility.yul\":1889:2002   */\n    tag_352:\n        /* \"#utility.yul\":1903:1909   */\n      dup4\n        /* \"#utility.yul\":1900:1901   */\n      dup2\n        /* \"#utility.yul\":1897:1910   */\n      lt\n        /* \"#utility.yul\":1889:2002   */\n      iszero\n      tag_354\n      jumpi\n        /* \"#utility.yul\":1988:1989   */\n      dup1\n        /* \"#utility.yul\":1983:1986   */\n      dup3\n        /* \"#utility.yul\":1979:1990   */\n      add\n        /* \"#utility.yul\":1973:1991   */\n      mload\n        /* \"#utility.yul\":1969:1970   */\n      dup2\n        /* \"#utility.yul\":1964:1967   */\n      dup5\n        /* \"#utility.yul\":1960:1971   */\n      add\n        /* \"#utility.yul\":1953:1992   */\n      mstore\n        /* \"#utility.yul\":1925:1927   */\n      0x20\n        /* \"#utility.yul\":1922:1923   */\n      dup2\n        /* \"#utility.yul\":1918:1928   */\n      add\n        /* \"#utility.yul\":1913:1928   */\n      swap1\n      pop\n        /* \"#utility.yul\":1889:2002   */\n      jump(tag_352)\n    tag_354:\n        /* \"#utility.yul\":2036:2037   */\n      0x00\n        /* \"#utility.yul\":2027:2033   */\n      dup5\n        /* \"#utility.yul\":2022:2025   */\n      dup5\n        /* \"#utility.yul\":2018:2034   */\n      add\n        /* \"#utility.yul\":2011:2038   */\n      mstore\n        /* \"#utility.yul\":1860:2044   */\n      pop\n        /* \"#utility.yul\":1798:2044   */\n      pop\n      pop\n      pop\n      jump\t// out\n        /* \"#utility.yul\":2050:2152   */\n    tag_281:\n        /* \"#utility.yul\":2091:2097   */\n      0x00\n        /* \"#utility.yul\":2142:2144   */\n      0x1f\n        /* \"#utility.yul\":2138:2145   */\n      not\n        /* \"#utility.yul\":2133:2135   */\n      0x1f\n        /* \"#utility.yul\":2126:2131   */\n      dup4\n        /* \"#utility.yul\":2122:2136   */\n      add\n        /* \"#utility.yul\":2118:2146   */\n      and\n        /* \"#utility.yul\":2108:2146   */\n      swap1\n      pop\n        /* \"#utility.yul\":2050:2152   */\n      swap2\n      swap1\n      pop\n      jump\t// out\n        /* \"#utility.yul\":2158:2535   */\n    tag_282:\n        /* \"#utility.yul\":2246:2249   */\n      0x00\n        /* \"#utility.yul\":2274:2313   */\n      tag_357\n        /* \"#utility.yul\":2307:2312   */\n      dup3\n        /* \"#utility.yul\":2274:2313   */\n      tag_278\n      jump\t// in\n    tag_357:\n        /* \"#utility.yul\":2329:2400   */\n      tag_358\n        /* \"#utility.yul\":2393:2399   */\n      dup2\n        /* \"#utility.yul\":2388:2391   */\n      dup6\n        /* \"#utility.yul\":2329:2400   */\n      tag_279\n      jump\t// in\n    tag_358:\n        /* \"#utility.yul\":2322:2400   */\n      swap4\n      pop\n        /* \"#utility.yul\":2409:2474   */\n      tag_359\n        /* \"#utility.yul\":2467:2473   */\n      dup2\n        /* \"#utility.yul\":2462:2465   */\n      dup6\n        /* \"#utility.yul\":2455:2459   */\n      0x20\n        /* \"#utility.yul\":2448:2453   */\n      dup7\n        /* \"#utility.yul\":2444:2460   */\n      add\n        /* \"#utility.yul\":2409:2474   */\n      tag_280\n      jump\t// in\n    tag_359:\n        /* \"#utility.yul\":2499:2528   */\n      tag_360\n        /* \"#utility.yul\":2521:2527   */\n      dup2\n        /* \"#utility.yul\":2499:2528   */\n      tag_281\n      jump\t// in\n    tag_360:\n        /* \"#utility.yul\":2494:2497   */\n      dup5\n        /* \"#utility.yul\":2490:2529   */\n      add\n        /* \"#utility.yul\":2483:2529   */\n      swap2\n      pop\n        /* \"#utility.yul\":2250:2535   */\n      pop\n        /* \"#utility.yul\":2158:2535   */\n      swap3\n      swap2\n      pop\n      pop\n      jump\t// out\n        /* \"#utility.yul\":2541:2854   */\n    tag_33:\n        /* \"#utility.yul\":2654:2658   */\n      0x00\n        /* \"#utility.yul\":2692:2694   */\n      0x20\n        /* \"#utility.yul\":2681:2690   */\n      dup3\n        /* \"#utility.yul\":2677:2695   */\n      add\n        /* \"#utility.yul\":2669:2695   */\n      swap1\n      pop\n        /* \"#utility.yul\":2741:2750   */\n      dup2\n        /* \"#utility.yul\":2735:2739   */\n      dup2\n        /* \"#utility.yul\":2731:2751   */\n      sub\n        /* \"#utility.yul\":2727:2728   */\n      0x00\n        /* \"#utility.yul\":2716:2725   */\n      dup4\n        /* \"#utility.yul\":2712:2729   */\n      add\n        /* \"#utility.yul\":2705:2752   */\n      mstore\n        /* \"#utility.yul\":2769:2847   */\n      tag_362\n        /* \"#utility.yul\":2842:2846   */\n      dup2\n        /* \"#utility.yul\":2833:2839   */\n      dup5\n        /* \"#utility.yul\":2769:2847   */\n      tag_282\n      jump\t// in\n    tag_362:\n        /* \"#utility.yul\":2761:2847   */\n      swap1\n      pop\n        /* \"#utility.yul\":2541:2854   */\n      swap3\n      swap2\n      pop\n      pop\n      jump\t// out\n        /* \"#utility.yul\":2860:2937   */\n    tag_283:\n        /* \"#utility.yul\":2897:2904   */\n      0x00\n        /* \"#utility.yul\":2926:2931   */\n      dup2\n        /* \"#utility.yul\":2915:2931   */\n      swap1\n      pop\n        /* \"#utility.yul\":2860:2937   */\n      swap2\n      swap1\n      pop\n      jump\t// out\n        /* \"#utility.yul\":2943:3065   */\n    tag_284:\n        /* \"#utility.yul\":3016:3040   */\n      tag_365\n        /* \"#utility.yul\":3034:3039   */\n      dup2\n        /* \"#utility.yul\":3016:3040   */\n      tag_283\n      jump\t// in\n    tag_365:\n        /* \"#utility.yul\":3009:3014   */\n      dup2\n        /* \"#utility.yul\":3006:3041   */\n      eq\n        /* \"#utility.yul\":2996:3059   */\n      tag_366\n      jumpi\n        /* \"#utility.yul\":3055:3056   */\n      0x00\n        /* \"#utility.yul\":3052:3053   */\n      dup1\n        /* \"#utility.yul\":3045:3057   */\n      revert\n        /* \"#utility.yul\":2996:3059   */\n    tag_366:\n        /* \"#utility.yul\":2943:3065   */\n      pop\n      jump\t// out\n        /* \"#utility.yul\":3071:3210   */\n    tag_285:\n        /* \"#utility.yul\":3117:3122   */\n      0x00\n        /* \"#utility.yul\":3155:3161   */\n      dup2\n        /* \"#utility.yul\":3142:3162   */\n      calldataload\n        /* \"#utility.yul\":3133:3162   */\n      swap1\n      pop\n        /* \"#utility.yul\":3171:3204   */\n      tag_368\n        /* \"#utility.yul\":3198:3203   */\n      dup2\n        /* \"#utility.yul\":3171:3204   */\n      tag_284\n      jump\t// in\n    tag_368:\n        /* \"#utility.yul\":3071:3210   */\n      swap3\n      swap2\n      pop\n      pop\n      jump\t// out\n        /* \"#utility.yul\":3216:3545   */\n    tag_36:\n        /* \"#utility.yul\":3275:3281   */\n      0x00\n        /* \"#utility.yul\":3324:3326   */\n      0x20\n        /* \"#utility.yul\":3312:3321   */\n      dup3\n        /* \"#utility.yul\":3303:3310   */\n      dup5\n        /* \"#utility.yul\":3299:3322   */\n      sub\n        /* \"#utility.yul\":3295:3327   */\n      slt\n        /* \"#utility.yul\":3292:3411   */\n      iszero\n      tag_370\n      jumpi\n        /* \"#utility.yul\":3330:3409   */\n      tag_371\n      tag_271\n      jump\t// in\n    tag_371:\n        /* \"#utility.yul\":3292:3411   */\n    tag_370:\n        /* \"#utility.yul\":3450:3451   */\n      0x00\n        /* \"#utility.yul\":3475:3528   */\n      tag_372\n        /* \"#utility.yul\":3520:3527   */\n      dup5\n        /* \"#utility.yul\":3511:3517   */\n      dup3\n        /* \"#utility.yul\":3500:3509   */\n      dup6\n        /* \"#utility.yul\":3496:3518   */\n      add\n        /* \"#utility.yul\":3475:3528   */\n      tag_285\n      jump\t// in\n    tag_372:\n        /* \"#utility.yul\":3465:3528   */\n      swap2\n      pop\n        /* \"#utility.yul\":3421:3538   */\n      pop\n        /* \"#utility.yul\":3216:3545   */\n      swap3\n      swap2\n      pop\n      pop\n      jump\t// out\n        /* \"#utility.yul\":3551:3677   */\n    tag_286:\n        /* \"#utility.yul\":3588:3595   */\n      0x00\n        /* \"#utility.yul\":3628:3670   */\n      0xffffffffffffffffffffffffffffffffffffffff\n        /* \"#utility.yul\":3621:3626   */\n      dup3\n        /* \"#utility.yul\":3617:3671   */\n      and\n        /* \"#utility.yul\":3606:3671   */\n      swap1\n      pop\n        /* \"#utility.yul\":3551:3677   */\n      swap2\n      swap1\n      pop\n      jump\t// out\n        /* \"#utility.yul\":3683:3779   */\n    tag_287:\n        /* \"#utility.yul\":3720:3727   */\n      0x00\n        /* \"#utility.yul\":3749:3773   */\n      tag_375\n        /* \"#utility.yul\":3767:3772   */\n      dup3\n        /* \"#utility.yul\":3749:3773   */\n      tag_286\n      jump\t// in\n    tag_375:\n        /* \"#utility.yul\":3738:3773   */\n      swap1\n      pop\n        /* \"#utility.yul\":3683:3779   */\n      swap2\n      swap1\n      pop\n      jump\t// out\n        /* \"#utility.yul\":3785:3903   */\n    tag_288:\n        /* \"#utility.yul\":3872:3896   */\n      tag_377\n        /* \"#utility.yul\":3890:3895   */\n      dup2\n        /* \"#utility.yul\":3872:3896   */\n      tag_287\n      jump\t// in\n    tag_377:\n        /* \"#utility.yul\":3867:3870   */\n      dup3\n        /* \"#utility.yul\":3860:3897   */\n      mstore\n        /* \"#utility.yul\":3785:3903   */\n      pop\n      pop\n      jump\t// out\n        /* \"#utility.yul\":3909:4131   */\n    tag_39:\n        /* \"#utility.yul\":4002:4006   */\n      0x00\n        /* \"#utility.yul\":4040:4042   */\n      0x20\n        /* \"#utility.yul\":4029:4038   */\n      dup3\n        /* \"#utility.yul\":4025:4043   */\n      add\n        /* \"#utility.yul\":4017:4043   */\n      swap1\n      pop\n        /* \"#utility.yul\":4053:4124   */\n      tag_379\n        /* \"#utility.yul\":4121:4122   */\n      0x00\n        /* \"#utility.yul\":4110:4119   */\n      dup4\n        /* \"#utility.yul\":4106:4123   */\n      add\n        /* \"#utility.yul\":4097:4103   */\n      dup5\n        /* \"#utility.yul\":4053:4124   */\n      tag_288\n      jump\t// in\n    tag_379:\n        /* \"#utility.yul\":3909:4131   */\n      swap3\n      swap2\n      pop\n      pop\n      jump\t// out\n        /* \"#utility.yul\":4137:4259   */\n    tag_289:\n        /* \"#utility.yul\":4210:4234   */\n      tag_381\n        /* \"#utility.yul\":4228:4233   */\n      dup2\n        /* \"#utility.yul\":4210:4234   */\n      tag_287\n      jump\t// in\n    tag_381:\n        /* \"#utility.yul\":4203:4208   */\n      dup2\n        /* \"#utility.yul\":4200:4235   */\n      eq\n        /* \"#utility.yul\":4190:4253   */\n      tag_382\n      jumpi\n        /* \"#utility.yul\":4249:4250   */\n      0x00\n        /* \"#utility.yul\":4246:4247   */\n      dup1\n        /* \"#utility.yul\":4239:4251   */\n      revert\n        /* \"#utility.yul\":4190:4253   */\n    tag_382:\n        /* \"#utility.yul\":4137:4259   */\n      pop\n      jump\t// out\n        /* \"#utility.yul\":4265:4404   */\n    tag_290:\n        /* \"#utility.yul\":4311:4316   */\n      0x00\n        /* \"#utility.yul\":4349:4355   */\n      dup2\n        /* \"#utility.yul\":4336:4356   */\n      calldataload\n        /* \"#utility.yul\":4327:4356   */\n      swap1\n      pop\n        /* \"#utility.yul\":4365:4398   */\n      tag_384\n        /* \"#utility.yul\":4392:4397   */\n      dup2\n        /* \"#utility.yul\":4365:4398   */\n      tag_289\n      jump\t// in\n    tag_384:\n        /* \"#utility.yul\":4265:4404   */\n      swap3\n      swap2\n      pop\n      pop\n      jump\t// out\n        /* \"#utility.yul\":4410:4884   */\n    tag_42:\n        /* \"#utility.yul\":4478:4484   */\n      0x00\n        /* \"#utility.yul\":4486:4492   */\n      dup1\n        /* \"#utility.yul\":4535:4537   */\n      0x40\n        /* \"#utility.yul\":4523:4532   */\n      dup4\n        /* \"#utility.yul\":4514:4521   */\n      dup6\n        /* \"#utility.yul\":4510:4533   */\n      sub\n        /* \"#utility.yul\":4506:4538   */\n      slt\n        /* \"#utility.yul\":4503:4622   */\n      iszero\n      tag_386\n      jumpi\n        /* \"#utility.yul\":4541:4620   */\n      tag_387\n      tag_271\n      jump\t// in\n    tag_387:\n        /* \"#utility.yul\":4503:4622   */\n    tag_386:\n        /* \"#utility.yul\":4661:4662   */\n      0x00\n        /* \"#utility.yul\":4686:4739   */\n      tag_388\n        /* \"#utility.yul\":4731:4738   */\n      dup6\n        /* \"#utility.yul\":4722:4728   */\n      dup3\n        /* \"#utility.yul\":4711:4720   */\n      dup7\n        /* \"#utility.yul\":4707:4729   */\n      add\n        /* \"#utility.yul\":4686:4739   */\n      tag_290\n      jump\t// in\n    tag_388:\n        /* \"#utility.yul\":4676:4739   */\n      swap3\n      pop\n        /* \"#utility.yul\":4632:4749   */\n      pop\n        /* \"#utility.yul\":4788:4790   */\n      0x20\n        /* \"#utility.yul\":4814:4867   */\n      tag_389\n        /* \"#utility.yul\":4859:4866   */\n      dup6\n        /* \"#utility.yul\":4850:4856   */\n      dup3\n        /* \"#utility.yul\":4839:4848   */\n      dup7\n        /* \"#utility.yul\":4835:4857   */\n      add\n        /* \"#utility.yul\":4814:4867   */\n      tag_285\n      jump\t// in\n    tag_389:\n        /* \"#utility.yul\":4804:4867   */\n      swap2\n      pop\n        /* \"#utility.yul\":4759:4877   */\n      pop\n        /* \"#utility.yul\":4410:4884   */\n      swap3\n      pop\n      swap3\n      swap1\n      pop\n      jump\t// out\n        /* \"#utility.yul\":4890:5007   */\n    tag_291:\n        /* \"#utility.yul\":4999:5000   */\n      0x00\n        /* \"#utility.yul\":4996:4997   */\n      dup1\n        /* \"#utility.yul\":4989:5001   */\n      revert\n        /* \"#utility.yul\":5013:5130   */\n    tag_292:\n        /* \"#utility.yul\":5122:5123   */\n      0x00\n        /* \"#utility.yul\":5119:5120   */\n      dup1\n        /* \"#utility.yul\":5112:5124   */\n      revert\n        /* \"#utility.yul\":5136:5316   */\n    tag_293:\n        /* \"#utility.yul\":5184:5261   */\n      0x4e487b7100000000000000000000000000000000000000000000000000000000\n        /* \"#utility.yul\":5181:5182   */\n      0x00\n        /* \"#utility.yul\":5174:5262   */\n      mstore\n        /* \"#utility.yul\":5281:5285   */\n      0x41\n        /* \"#utility.yul\":5278:5279   */\n      0x04\n        /* \"#utility.yul\":5271:5286   */\n      mstore\n        /* \"#utility.yul\":5305:5309   */\n      0x24\n        /* \"#utility.yul\":5302:5303   */\n      0x00\n        /* \"#utility.yul\":5295:5310   */\n      revert\n        /* \"#utility.yul\":5322:5603   */\n    tag_294:\n        /* \"#utility.yul\":5405:5432   */\n      tag_394\n        /* \"#utility.yul\":5427:5431   */\n      dup3\n        /* \"#utility.yul\":5405:5432   */\n      tag_281\n      jump\t// in\n    tag_394:\n        /* \"#utility.yul\":5397:5403   */\n      dup2\n        /* \"#utility.yul\":5393:5433   */\n      add\n        /* \"#utility.yul\":5535:5541   */\n      dup2\n        /* \"#utility.yul\":5523:5533   */\n      dup2\n        /* \"#utility.yul\":5520:5542   */\n      lt\n        /* \"#utility.yul\":5499:5517   */\n      0xffffffffffffffff\n        /* \"#utility.yul\":5487:5497   */\n      dup3\n        /* \"#utility.yul\":5484:5518   */\n      gt\n        /* \"#utility.yul\":5481:5543   */\n      or\n        /* \"#utility.yul\":5478:5566   */\n      iszero\n      tag_395\n      jumpi\n        /* \"#utility.yul\":5546:5564   */\n      tag_396\n      tag_293\n      jump\t// in\n    tag_396:\n        /* \"#utility.yul\":5478:5566   */\n    tag_395:\n        /* \"#utility.yul\":5586:5596   */\n      dup1\n        /* \"#utility.yul\":5582:5584   */\n      0x40\n        /* \"#utility.yul\":5575:5597   */\n      mstore\n        /* \"#utility.yul\":5365:5603   */\n      pop\n        /* \"#utility.yul\":5322:5603   */\n      pop\n      pop\n      jump\t// out\n        /* \"#utility.yul\":5609:5738   */\n    tag_295:\n        /* \"#utility.yul\":5643:5649   */\n      0x00\n        /* \"#utility.yul\":5670:5690   */\n      tag_398\n      tag_270\n      jump\t// in\n    tag_398:\n        /* \"#utility.yul\":5660:5690   */\n      swap1\n      pop\n        /* \"#utility.yul\":5699:5732   */\n      tag_399\n        /* \"#utility.yul\":5727:5731   */\n      dup3\n        /* \"#utility.yul\":5719:5725   */\n      dup3\n        /* \"#utility.yul\":5699:5732   */\n      tag_294\n      jump\t// in\n    tag_399:\n        /* \"#utility.yul\":5609:5738   */\n      swap2\n      swap1\n      pop\n      jump\t// out\n        /* \"#utility.yul\":5744:6052   */\n    tag_296:\n        /* \"#utility.yul\":5806:5810   */\n      0x00\n        /* \"#utility.yul\":5896:5914   */\n      0xffffffffffffffff\n        /* \"#utility.yul\":5888:5894   */\n      dup3\n        /* \"#utility.yul\":5885:5915   */\n      gt\n        /* \"#utility.yul\":5882:5938   */\n      iszero\n      tag_401\n      jumpi\n        /* \"#utility.yul\":5918:5936   */\n      tag_402\n      tag_293\n      jump\t// in\n    tag_402:\n        /* \"#utility.yul\":5882:5938   */\n    tag_401:\n        /* \"#utility.yul\":5956:5985   */\n      tag_403\n        /* \"#utility.yul\":5978:5984   */\n      dup3\n        /* \"#utility.yul\":5956:5985   */\n      tag_281\n      jump\t// in\n    tag_403:\n        /* \"#utility.yul\":5948:5985   */\n      swap1\n      pop\n        /* \"#utility.yul\":6040:6044   */\n      0x20\n        /* \"#utility.yul\":6034:6038   */\n      dup2\n        /* \"#utility.yul\":6030:6045   */\n      add\n        /* \"#utility.yul\":6022:6045   */\n      swap1\n      pop\n        /* \"#utility.yul\":5744:6052   */\n      swap2\n      swap1\n      pop\n      jump\t// out\n        /* \"#utility.yul\":6058:6204   */\n    tag_297:\n        /* \"#utility.yul\":6155:6161   */\n      dup3\n        /* \"#utility.yul\":6150:6153   */\n      dup2\n        /* \"#utility.yul\":6145:6148   */\n      dup4\n        /* \"#utility.yul\":6132:6162   */\n      calldatacopy\n        /* \"#utility.yul\":6196:6197   */\n      0x00\n        /* \"#utility.yul\":6187:6193   */\n      dup4\n        /* \"#utility.yul\":6182:6185   */\n      dup4\n        /* \"#utility.yul\":6178:6194   */\n      add\n        /* \"#utility.yul\":6171:6198   */\n      mstore\n        /* \"#utility.yul\":6058:6204   */\n      pop\n      pop\n      pop\n      jump\t// out\n        /* \"#utility.yul\":6210:6635   */\n    tag_298:\n        /* \"#utility.yul\":6288:6293   */\n      0x00\n        /* \"#utility.yul\":6313:6379   */\n      tag_406\n        /* \"#utility.yul\":6329:6378   */\n      tag_407\n        /* \"#utility.yul\":6371:6377   */\n      dup5\n        /* \"#utility.yul\":6329:6378   */\n      tag_296\n      jump\t// in\n    tag_407:\n        /* \"#utility.yul\":6313:6379   */\n      tag_295\n      jump\t// in\n    tag_406:\n        /* \"#utility.yul\":6304:6379   */\n      swap1\n      pop\n        /* \"#utility.yul\":6402:6408   */\n      dup3\n        /* \"#utility.yul\":6395:6400   */\n      dup2\n        /* \"#utility.yul\":6388:6409   */\n      mstore\n        /* \"#utility.yul\":6440:6444   */\n      0x20\n        /* \"#utility.yul\":6433:6438   */\n      dup2\n        /* \"#utility.yul\":6429:6445   */\n      add\n        /* \"#utility.yul\":6478:6481   */\n      dup5\n        /* \"#utility.yul\":6469:6475   */\n      dup5\n        /* \"#utility.yul\":6464:6467   */\n      dup5\n        /* \"#utility.yul\":6460:6476   */\n      add\n        /* \"#utility.yul\":6457:6482   */\n      gt\n        /* \"#utility.yul\":6454:6566   */\n      iszero\n      tag_408\n      jumpi\n        /* \"#utility.yul\":6485:6564   */\n      tag_409\n      tag_292\n      jump\t// in\n    tag_409:\n        /* \"#utility.yul\":6454:6566   */\n    tag_408:\n        /* \"#utility.yul\":6575:6629   */\n      tag_410\n        /* \"#utility.yul\":6622:6628   */\n      dup5\n        /* \"#utility.yul\":6617:6620   */\n      dup3\n        /* \"#utility.yul\":6612:6615   */\n      dup6\n        /* \"#utility.yul\":6575:6629   */\n      tag_297\n      jump\t// in\n    tag_410:\n        /* \"#utility.yul\":6294:6635   */\n      pop\n        /* \"#utility.yul\":6210:6635   */\n      swap4\n      swap3\n      pop\n      pop\n      pop\n      jump\t// out\n        /* \"#utility.yul\":6655:6995   */\n    tag_299:\n        /* \"#utility.yul\":6711:6716   */\n      0x00\n        /* \"#utility.yul\":6760:6763   */\n      dup3\n        /* \"#utility.yul\":6753:6757   */\n      0x1f\n        /* \"#utility.yul\":6745:6751   */\n      dup4\n        /* \"#utility.yul\":6741:6758   */\n      add\n        /* \"#utility.yul\":6737:6764   */\n      slt\n        /* \"#utility.yul\":6727:6849   */\n      tag_412\n      jumpi\n        /* \"#utility.yul\":6768:6847   */\n      tag_413\n      tag_291\n      jump\t// in\n    tag_413:\n        /* \"#utility.yul\":6727:6849   */\n    tag_412:\n        /* \"#utility.yul\":6885:6891   */\n      dup2\n        /* \"#utility.yul\":6872:6892   */\n      calldataload\n        /* \"#utility.yul\":6910:6989   */\n      tag_414\n        /* \"#utility.yul\":6985:6988   */\n      dup5\n        /* \"#utility.yul\":6977:6983   */\n      dup3\n        /* \"#utility.yul\":6970:6974   */\n      0x20\n        /* \"#utility.yul\":6962:6968   */\n      dup7\n        /* \"#utility.yul\":6958:6975   */\n      add\n        /* \"#utility.yul\":6910:6989   */\n      tag_298\n      jump\t// in\n    tag_414:\n        /* \"#utility.yul\":6901:6989   */\n      swap2\n      pop\n        /* \"#utility.yul\":6717:6995   */\n      pop\n        /* \"#utility.yul\":6655:6995   */\n      swap3\n      swap2\n      pop\n      pop\n      jump\t// out\n        /* \"#utility.yul\":7001:7800   */\n    tag_46:\n        /* \"#utility.yul\":7088:7094   */\n      0x00\n        /* \"#utility.yul\":7096:7102   */\n      dup1\n        /* \"#utility.yul\":7104:7110   */\n      0x00\n        /* \"#utility.yul\":7153:7155   */\n      0x60\n        /* \"#utility.yul\":7141:7150   */\n      dup5\n        /* \"#utility.yul\":7132:7139   */\n      dup7\n        /* \"#utility.yul\":7128:7151   */\n      sub\n        /* \"#utility.yul\":7124:7156   */\n      slt\n        /* \"#utility.yul\":7121:7240   */\n      iszero\n      tag_416\n      jumpi\n        /* \"#utility.yul\":7159:7238   */\n      tag_417\n      tag_271\n      jump\t// in\n    tag_417:\n        /* \"#utility.yul\":7121:7240   */\n    tag_416:\n        /* \"#utility.yul\":7279:7280   */\n      0x00\n        /* \"#utility.yul\":7304:7357   */\n      tag_418\n        /* \"#utility.yul\":7349:7356   */\n      dup7\n        /* \"#utility.yul\":7340:7346   */\n      dup3\n        /* \"#utility.yul\":7329:7338   */\n      dup8\n        /* \"#utility.yul\":7325:7347   */\n      add\n        /* \"#utility.yul\":7304:7357   */\n      tag_290\n      jump\t// in\n    tag_418:\n        /* \"#utility.yul\":7294:7357   */\n      swap4\n      pop\n        /* \"#utility.yul\":7250:7367   */\n      pop\n        /* \"#utility.yul\":7406:7408   */\n      0x20\n        /* \"#utility.yul\":7432:7485   */\n      tag_419\n        /* \"#utility.yul\":7477:7484   */\n      dup7\n        /* \"#utility.yul\":7468:7474   */\n      dup3\n        /* \"#utility.yul\":7457:7466   */\n      dup8\n        /* \"#utility.yul\":7453:7475   */\n      add\n        /* \"#utility.yul\":7432:7485   */\n      tag_285\n      jump\t// in\n    tag_419:\n        /* \"#utility.yul\":7422:7485   */\n      swap3\n      pop\n        /* \"#utility.yul\":7377:7495   */\n      pop\n        /* \"#utility.yul\":7562:7564   */\n      0x40\n        /* \"#utility.yul\":7551:7560   */\n      dup5\n        /* \"#utility.yul\":7547:7565   */\n      add\n        /* \"#utility.yul\":7534:7566   */\n      calldataload\n        /* \"#utility.yul\":7593:7611   */\n      0xffffffffffffffff\n        /* \"#utility.yul\":7585:7591   */\n      dup2\n        /* \"#utility.yul\":7582:7612   */\n      gt\n        /* \"#utility.yul\":7579:7696   */\n      iszero\n      tag_420\n      jumpi\n        /* \"#utility.yul\":7615:7694   */\n      tag_421\n      tag_272\n      jump\t// in\n    tag_421:\n        /* \"#utility.yul\":7579:7696   */\n    tag_420:\n        /* \"#utility.yul\":7720:7783   */\n      tag_422\n        /* \"#utility.yul\":7775:7782   */\n      dup7\n        /* \"#utility.yul\":7766:7772   */\n      dup3\n        /* \"#utility.yul\":7755:7764   */\n      dup8\n        /* \"#utility.yul\":7751:7773   */\n      add\n        /* \"#utility.yul\":7720:7783   */\n      tag_299\n      jump\t// in\n    tag_422:\n        /* \"#utility.yul\":7710:7783   */\n      swap2\n      pop\n        /* \"#utility.yul\":7505:7793   */\n      pop\n        /* \"#utility.yul\":7001:7800   */\n      swap3\n      pop\n      swap3\n      pop\n      swap3\n      jump\t// out\n        /* \"#utility.yul\":7806:8425   */\n    tag_50:\n        /* \"#utility.yul\":7883:7889   */\n      0x00\n        /* \"#utility.yul\":7891:7897   */\n      dup1\n        /* \"#utility.yul\":7899:7905   */\n      0x00\n        /* \"#utility.yul\":7948:7950   */\n      0x60\n        /* \"#utility.yul\":7936:7945   */\n      dup5\n        /* \"#utility.yul\":7927:7934   */\n      dup7\n        /* \"#utility.yul\":7923:7946   */\n      sub\n        /* \"#utility.yul\":7919:7951   */\n      slt\n        /* \"#utility.yul\":7916:8035   */\n      iszero\n      tag_424\n      jumpi\n        /* \"#utility.yul\":7954:8033   */\n      tag_425\n      tag_271\n      jump\t// in\n    tag_425:\n        /* \"#utility.yul\":7916:8035   */\n    tag_424:\n        /* \"#utility.yul\":8074:8075   */\n      0x00\n        /* \"#utility.yul\":8099:8152   */\n      tag_426\n        /* \"#utility.yul\":8144:8151   */\n      dup7\n        /* \"#utility.yul\":8135:8141   */\n      dup3\n        /* \"#utility.yul\":8124:8133   */\n      dup8\n        /* \"#utility.yul\":8120:8142   */\n      add\n        /* \"#utility.yul\":8099:8152   */\n      tag_290\n      jump\t// in\n    tag_426:\n        /* \"#utility.yul\":8089:8152   */\n      swap4\n      pop\n        /* \"#utility.yul\":8045:8162   */\n      pop\n        /* \"#utility.yul\":8201:8203   */\n      0x20\n        /* \"#utility.yul\":8227:8280   */\n      tag_427\n        /* \"#utility.yul\":8272:8279   */\n      dup7\n        /* \"#utility.yul\":8263:8269   */\n      dup3\n        /* \"#utility.yul\":8252:8261   */\n      dup8\n        /* \"#utility.yul\":8248:8270   */\n      add\n        /* \"#utility.yul\":8227:8280   */\n      tag_290\n      jump\t// in\n    tag_427:\n        /* \"#utility.yul\":8217:8280   */\n      swap3\n      pop\n        /* \"#utility.yul\":8172:8290   */\n      pop\n        /* \"#utility.yul\":8329:8331   */\n      0x40\n        /* \"#utility.yul\":8355:8408   */\n      tag_428\n        /* \"#utility.yul\":8400:8407   */\n      dup7\n        /* \"#utility.yul\":8391:8397   */\n      dup3\n        /* \"#utility.yul\":8380:8389   */\n      dup8\n        /* \"#utility.yul\":8376:8398   */\n      add\n        /* \"#utility.yul\":8355:8408   */\n      tag_285\n      jump\t// in\n    tag_428:\n        /* \"#utility.yul\":8345:8408   */\n      swap2\n      pop\n        /* \"#utility.yul\":8300:8418   */\n      pop\n        /* \"#utility.yul\":7806:8425   */\n      swap3\n      pop\n      swap3\n      pop\n      swap3\n      jump\t// out\n        /* \"#utility.yul\":8431:8760   */\n    tag_61:\n        /* \"#utility.yul\":8490:8496   */\n      0x00\n        /* \"#utility.yul\":8539:8541   */\n      0x20\n        /* \"#utility.yul\":8527:8536   */\n      dup3\n        /* \"#utility.yul\":8518:8525   */\n      dup5\n        /* \"#utility.yul\":8514:8537   */\n      sub\n        /* \"#utility.yul\":8510:8542   */\n      slt\n        /* \"#utility.yul\":8507:8626   */\n      iszero\n      tag_430\n      jumpi\n        /* \"#utility.yul\":8545:8624   */\n      tag_431\n      tag_271\n      jump\t// in\n    tag_431:\n        /* \"#utility.yul\":8507:8626   */\n    tag_430:\n        /* \"#utility.yul\":8665:8666   */\n      0x00\n        /* \"#utility.yul\":8690:8743   */\n      tag_432\n        /* \"#utility.yul\":8735:8742   */\n      dup5\n        /* \"#utility.yul\":8726:8732   */\n      dup3\n        /* \"#utility.yul\":8715:8724   */\n      dup6\n        /* \"#utility.yul\":8711:8733   */\n      add\n        /* \"#utility.yul\":8690:8743   */\n      tag_290\n      jump\t// in\n    tag_432:\n        /* \"#utility.yul\":8680:8743   */\n      swap2\n      pop\n        /* \"#utility.yul\":8636:8753   */\n      pop\n        /* \"#utility.yul\":8431:8760   */\n      swap3\n      swap2\n      pop\n      pop\n      jump\t// out\n        /* \"#utility.yul\":8766:8884   */\n    tag_300:\n        /* \"#utility.yul\":8853:8877   */\n      tag_434\n        /* \"#utility.yul\":8871:8876   */\n      dup2\n        /* \"#utility.yul\":8853:8877   */\n      tag_283\n      jump\t// in\n    tag_434:\n        /* \"#utility.yul\":8848:8851   */\n      dup3\n        /* \"#utility.yul\":8841:8878   */\n      mstore\n        /* \"#utility.yul\":8766:8884   */\n      pop\n      pop\n      jump\t// out\n        /* \"#utility.yul\":8890:9112   */\n    tag_64:\n        /* \"#utility.yul\":8983:8987   */\n      0x00\n        /* \"#utility.yul\":9021:9023   */\n      0x20\n        /* \"#utility.yul\":9010:9019   */\n      dup3\n        /* \"#utility.yul\":9006:9024   */\n      add\n        /* \"#utility.yul\":8998:9024   */\n      swap1\n      pop\n        /* \"#utility.yul\":9034:9105   */\n      tag_436\n        /* \"#utility.yul\":9102:9103   */\n      0x00\n        /* \"#utility.yul\":9091:9100   */\n      dup4\n        /* \"#utility.yul\":9087:9104   */\n      add\n        /* \"#utility.yul\":9078:9084   */\n      dup5\n        /* \"#utility.yul\":9034:9105   */\n      tag_300\n      jump\t// in\n    tag_436:\n        /* \"#utility.yul\":8890:9112   */\n      swap3\n      swap2\n      pop\n      pop\n      jump\t// out\n        /* \"#utility.yul\":9118:9772   */\n    tag_69:\n        /* \"#utility.yul\":9196:9202   */\n      0x00\n        /* \"#utility.yul\":9204:9210   */\n      dup1\n        /* \"#utility.yul\":9253:9255   */\n      0x40\n        /* \"#utility.yul\":9241:9250   */\n      dup4\n        /* \"#utility.yul\":9232:9239   */\n      dup6\n        /* \"#utility.yul\":9228:9251   */\n      sub\n        /* \"#utility.yul\":9224:9256   */\n      slt\n        /* \"#utility.yul\":9221:9340   */\n      iszero\n      tag_438\n      jumpi\n        /* \"#utility.yul\":9259:9338   */\n      tag_439\n      tag_271\n      jump\t// in\n    tag_439:\n        /* \"#utility.yul\":9221:9340   */\n    tag_438:\n        /* \"#utility.yul\":9379:9380   */\n      0x00\n        /* \"#utility.yul\":9404:9457   */\n      tag_440\n        /* \"#utility.yul\":9449:9456   */\n      dup6\n        /* \"#utility.yul\":9440:9446   */\n      dup3\n        /* \"#utility.yul\":9429:9438   */\n      dup7\n        /* \"#utility.yul\":9425:9447   */\n      add\n        /* \"#utility.yul\":9404:9457   */\n      tag_285\n      jump\t// in\n    tag_440:\n        /* \"#utility.yul\":9394:9457   */\n      swap3\n      pop\n        /* \"#utility.yul\":9350:9467   */\n      pop\n        /* \"#utility.yul\":9534:9536   */\n      0x20\n        /* \"#utility.yul\":9523:9532   */\n      dup4\n        /* \"#utility.yul\":9519:9537   */\n      add\n        /* \"#utility.yul\":9506:9538   */\n      calldataload\n        /* \"#utility.yul\":9565:9583   */\n      0xffffffffffffffff\n        /* \"#utility.yul\":9557:9563   */\n      dup2\n        /* \"#utility.yul\":9554:9584   */\n      gt\n        /* \"#utility.yul\":9551:9668   */\n      iszero\n      tag_441\n      jumpi\n        /* \"#utility.yul\":9587:9666   */\n      tag_442\n      tag_272\n      jump\t// in\n    tag_442:\n        /* \"#utility.yul\":9551:9668   */\n    tag_441:\n        /* \"#utility.yul\":9692:9755   */\n      tag_443\n        /* \"#utility.yul\":9747:9754   */\n      dup6\n        /* \"#utility.yul\":9738:9744   */\n      dup3\n        /* \"#utility.yul\":9727:9736   */\n      dup7\n        /* \"#utility.yul\":9723:9745   */\n      add\n        /* \"#utility.yul\":9692:9755   */\n      tag_299\n      jump\t// in\n    tag_443:\n        /* \"#utility.yul\":9682:9755   */\n      swap2\n      pop\n        /* \"#utility.yul\":9477:9765   */\n      pop\n        /* \"#utility.yul\":9118:9772   */\n      swap3\n      pop\n      swap3\n      swap1\n      pop\n      jump\t// out\n        /* \"#utility.yul\":9778:9894   */\n    tag_301:\n        /* \"#utility.yul\":9848:9869   */\n      tag_445\n        /* \"#utility.yul\":9863:9868   */\n      dup2\n        /* \"#utility.yul\":9848:9869   */\n      tag_276\n      jump\t// in\n    tag_445:\n        /* \"#utility.yul\":9841:9846   */\n      dup2\n        /* \"#utility.yul\":9838:9870   */\n      eq\n        /* \"#utility.yul\":9828:9888   */\n      tag_446\n      jumpi\n        /* \"#utility.yul\":9884:9885   */\n      0x00\n        /* \"#utility.yul\":9881:9882   */\n      dup1\n        /* \"#utility.yul\":9874:9886   */\n      revert\n        /* \"#utility.yul\":9828:9888   */\n    tag_446:\n        /* \"#utility.yul\":9778:9894   */\n      pop\n      jump\t// out\n        /* \"#utility.yul\":9900:10033   */\n    tag_302:\n        /* \"#utility.yul\":9943:9948   */\n      0x00\n        /* \"#utility.yul\":9981:9987   */\n      dup2\n        /* \"#utility.yul\":9968:9988   */\n      calldataload\n        /* \"#utility.yul\":9959:9988   */\n      swap1\n      pop\n        /* \"#utility.yul\":9997:10027   */\n      tag_448\n        /* \"#utility.yul\":10021:10026   */\n      dup2\n        /* \"#utility.yul\":9997:10027   */\n      tag_301\n      jump\t// in\n    tag_448:\n        /* \"#utility.yul\":9900:10033   */\n      swap3\n      swap2\n      pop\n      pop\n      jump\t// out\n        /* \"#utility.yul\":10039:10507   */\n    tag_79:\n        /* \"#utility.yul\":10104:10110   */\n      0x00\n        /* \"#utility.yul\":10112:10118   */\n      dup1\n        /* \"#utility.yul\":10161:10163   */\n      0x40\n        /* \"#utility.yul\":10149:10158   */\n      dup4\n        /* \"#utility.yul\":10140:10147   */\n      dup6\n        /* \"#utility.yul\":10136:10159   */\n      sub\n        /* \"#utility.yul\":10132:10164   */\n      slt\n        /* \"#utility.yul\":10129:10248   */\n      iszero\n      tag_450\n      jumpi\n        /* \"#utility.yul\":10167:10246   */\n      tag_451\n      tag_271\n      jump\t// in\n    tag_451:\n        /* \"#utility.yul\":10129:10248   */\n    tag_450:\n        /* \"#utility.yul\":10287:10288   */\n      0x00\n        /* \"#utility.yul\":10312:10365   */\n      tag_452\n        /* \"#utility.yul\":10357:10364   */\n      dup6\n        /* \"#utility.yul\":10348:10354   */\n      dup3\n        /* \"#utility.yul\":10337:10346   */\n      dup7\n        /* \"#utility.yul\":10333:10355   */\n      add\n        /* \"#utility.yul\":10312:10365   */\n      tag_290\n      jump\t// in\n    tag_452:\n        /* \"#utility.yul\":10302:10365   */\n      swap3\n      pop\n        /* \"#utility.yul\":10258:10375   */\n      pop\n        /* \"#utility.yul\":10414:10416   */\n      0x20\n        /* \"#utility.yul\":10440:10490   */\n      tag_453\n        /* \"#utility.yul\":10482:10489   */\n      dup6\n        /* \"#utility.yul\":10473:10479   */\n      dup3\n        /* \"#utility.yul\":10462:10471   */\n      dup7\n        /* \"#utility.yul\":10458:10480   */\n      add\n        /* \"#utility.yul\":10440:10490   */\n      tag_302\n      jump\t// in\n    tag_453:\n        /* \"#utility.yul\":10430:10490   */\n      swap2\n      pop\n        /* \"#utility.yul\":10385:10500   */\n      pop\n        /* \"#utility.yul\":10039:10507   */\n      swap3\n      pop\n      swap3\n      swap1\n      pop\n      jump\t// out\n        /* \"#utility.yul\":10513:10820   */\n    tag_303:\n        /* \"#utility.yul\":10574:10578   */\n      0x00\n        /* \"#utility.yul\":10664:10682   */\n      0xffffffffffffffff\n        /* \"#utility.yul\":10656:10662   */\n      dup3\n        /* \"#utility.yul\":10653:10683   */\n      gt\n        /* \"#utility.yul\":10650:10706   */\n      iszero\n      tag_455\n      jumpi\n        /* \"#utility.yul\":10686:10704   */\n      tag_456\n      tag_293\n      jump\t// in\n    tag_456:\n        /* \"#utility.yul\":10650:10706   */\n    tag_455:\n        /* \"#utility.yul\":10724:10753   */\n      tag_457\n        /* \"#utility.yul\":10746:10752   */\n      dup3\n        /* \"#utility.yul\":10724:10753   */\n      tag_281\n      jump\t// in\n    tag_457:\n        /* \"#utility.yul\":10716:10753   */\n      swap1\n      pop\n        /* \"#utility.yul\":10808:10812   */\n      0x20\n        /* \"#utility.yul\":10802:10806   */\n      dup2\n        /* \"#utility.yul\":10798:10813   */\n      add\n        /* \"#utility.yul\":10790:10813   */\n      swap1\n      pop\n        /* \"#utility.yul\":10513:10820   */\n      swap2\n      swap1\n      pop\n      jump\t// out\n        /* \"#utility.yul\":10826:11249   */\n    tag_304:\n        /* \"#utility.yul\":10903:10908   */\n      0x00\n        /* \"#utility.yul\":10928:10993   */\n      tag_459\n        /* \"#utility.yul\":10944:10992   */\n      tag_460\n        /* \"#utility.yul\":10985:10991   */\n      dup5\n        /* \"#utility.yul\":10944:10992   */\n      tag_303\n      jump\t// in\n    tag_460:\n        /* \"#utility.yul\":10928:10993   */\n      tag_295\n      jump\t// in\n    tag_459:\n        /* \"#utility.yul\":10919:10993   */\n      swap1\n      pop\n        /* \"#utility.yul\":11016:11022   */\n      dup3\n        /* \"#utility.yul\":11009:11014   */\n      dup2\n        /* \"#utility.yul\":11002:11023   */\n      mstore\n        /* \"#utility.yul\":11054:11058   */\n      0x20\n        /* \"#utility.yul\":11047:11052   */\n      dup2\n        /* \"#utility.yul\":11043:11059   */\n      add\n        /* \"#utility.yul\":11092:11095   */\n      dup5\n        /* \"#utility.yul\":11083:11089   */\n      dup5\n        /* \"#utility.yul\":11078:11081   */\n      dup5\n        /* \"#utility.yul\":11074:11090   */\n      add\n        /* \"#utility.yul\":11071:11096   */\n      gt\n        /* \"#utility.yul\":11068:11180   */\n      iszero\n      tag_461\n      jumpi\n        /* \"#utility.yul\":11099:11178   */\n      tag_462\n      tag_292\n      jump\t// in\n    tag_462:\n        /* \"#utility.yul\":11068:11180   */\n    tag_461:\n        /* \"#utility.yul\":11189:11243   */\n      tag_463\n        /* \"#utility.yul\":11236:11242   */\n      dup5\n        /* \"#utility.yul\":11231:11234   */\n      dup3\n        /* \"#utility.yul\":11226:11229   */\n      dup6\n        /* \"#utility.yul\":11189:11243   */\n      tag_297\n      jump\t// in\n    tag_463:\n        /* \"#utility.yul\":10909:11249   */\n      pop\n        /* \"#utility.yul\":10826:11249   */\n      swap4\n      swap3\n      pop\n      pop\n      pop\n      jump\t// out\n        /* \"#utility.yul\":11268:11606   */\n    tag_305:\n        /* \"#utility.yul\":11323:11328   */\n      0x00\n        /* \"#utility.yul\":11372:11375   */\n      dup3\n        /* \"#utility.yul\":11365:11369   */\n      0x1f\n        /* \"#utility.yul\":11357:11363   */\n      dup4\n        /* \"#utility.yul\":11353:11370   */\n      add\n        /* \"#utility.yul\":11349:11376   */\n      slt\n        /* \"#utility.yul\":11339:11461   */\n      tag_465\n      jumpi\n        /* \"#utility.yul\":11380:11459   */\n      tag_466\n      tag_291\n      jump\t// in\n    tag_466:\n        /* \"#utility.yul\":11339:11461   */\n    tag_465:\n        /* \"#utility.yul\":11497:11503   */\n      dup2\n        /* \"#utility.yul\":11484:11504   */\n      calldataload\n        /* \"#utility.yul\":11522:11600   */\n      tag_467\n        /* \"#utility.yul\":11596:11599   */\n      dup5\n        /* \"#utility.yul\":11588:11594   */\n      dup3\n        /* \"#utility.yul\":11581:11585   */\n      0x20\n        /* \"#utility.yul\":11573:11579   */\n      dup7\n        /* \"#utility.yul\":11569:11586   */\n      add\n        /* \"#utility.yul\":11522:11600   */\n      tag_304\n      jump\t// in\n    tag_467:\n        /* \"#utility.yul\":11513:11600   */\n      swap2\n      pop\n        /* \"#utility.yul\":11329:11606   */\n      pop\n        /* \"#utility.yul\":11268:11606   */\n      swap3\n      swap2\n      pop\n      pop\n      jump\t// out\n        /* \"#utility.yul\":11612:12555   */\n    tag_83:\n        /* \"#utility.yul\":11707:11713   */\n      0x00\n        /* \"#utility.yul\":11715:11721   */\n      dup1\n        /* \"#utility.yul\":11723:11729   */\n      0x00\n        /* \"#utility.yul\":11731:11737   */\n      dup1\n        /* \"#utility.yul\":11780:11783   */\n      0x80\n        /* \"#utility.yul\":11768:11777   */\n      dup6\n        /* \"#utility.yul\":11759:11766   */\n      dup8\n        /* \"#utility.yul\":11755:11778   */\n      sub\n        /* \"#utility.yul\":11751:11784   */\n      slt\n        /* \"#utility.yul\":11748:11868   */\n      iszero\n      tag_469\n      jumpi\n        /* \"#utility.yul\":11787:11866   */\n      tag_470\n      tag_271\n      jump\t// in\n    tag_470:\n        /* \"#utility.yul\":11748:11868   */\n    tag_469:\n        /* \"#utility.yul\":11907:11908   */\n      0x00\n        /* \"#utility.yul\":11932:11985   */\n      tag_471\n        /* \"#utility.yul\":11977:11984   */\n      dup8\n        /* \"#utility.yul\":11968:11974   */\n      dup3\n        /* \"#utility.yul\":11957:11966   */\n      dup9\n        /* \"#utility.yul\":11953:11975   */\n      add\n        /* \"#utility.yul\":11932:11985   */\n      tag_290\n      jump\t// in\n    tag_471:\n        /* \"#utility.yul\":11922:11985   */\n      swap5\n      pop\n        /* \"#utility.yul\":11878:11995   */\n      pop\n        /* \"#utility.yul\":12034:12036   */\n      0x20\n        /* \"#utility.yul\":12060:12113   */\n      tag_472\n        /* \"#utility.yul\":12105:12112   */\n      dup8\n        /* \"#utility.yul\":12096:12102   */\n      dup3\n        /* \"#utility.yul\":12085:12094   */\n      dup9\n        /* \"#utility.yul\":12081:12103   */\n      add\n        /* \"#utility.yul\":12060:12113   */\n      tag_290\n      jump\t// in\n    tag_472:\n        /* \"#utility.yul\":12050:12113   */\n      swap4\n      pop\n        /* \"#utility.yul\":12005:12123   */\n      pop\n        /* \"#utility.yul\":12162:12164   */\n      0x40\n        /* \"#utility.yul\":12188:12241   */\n      tag_473\n        /* \"#utility.yul\":12233:12240   */\n      dup8\n        /* \"#utility.yul\":12224:12230   */\n      dup3\n        /* \"#utility.yul\":12213:12222   */\n      dup9\n        /* \"#utility.yul\":12209:12231   */\n      add\n        /* \"#utility.yul\":12188:12241   */\n      tag_285\n      jump\t// in\n    tag_473:\n        /* \"#utility.yul\":12178:12241   */\n      swap3\n      pop\n        /* \"#utility.yul\":12133:12251   */\n      pop\n        /* \"#utility.yul\":12318:12320   */\n      0x60\n        /* \"#utility.yul\":12307:12316   */\n      dup6\n        /* \"#utility.yul\":12303:12321   */\n      add\n        /* \"#utility.yul\":12290:12322   */\n      calldataload\n        /* \"#utility.yul\":12349:12367   */\n      0xffffffffffffffff\n        /* \"#utility.yul\":12341:12347   */\n      dup2\n        /* \"#utility.yul\":12338:12368   */\n      gt\n        /* \"#utility.yul\":12335:12452   */\n      iszero\n      tag_474\n      jumpi\n        /* \"#utility.yul\":12371:12450   */\n      tag_475\n      tag_272\n      jump\t// in\n    tag_475:\n        /* \"#utility.yul\":12335:12452   */\n    tag_474:\n        /* \"#utility.yul\":12476:12538   */\n      tag_476\n        /* \"#utility.yul\":12530:12537   */\n      dup8\n        /* \"#utility.yul\":12521:12527   */\n      dup3\n        /* \"#utility.yul\":12510:12519   */\n      dup9\n        /* \"#utility.yul\":12506:12528   */\n      add\n        /* \"#utility.yul\":12476:12538   */\n      tag_305\n      jump\t// in\n    tag_476:\n        /* \"#utility.yul\":12466:12538   */\n      swap2\n      pop\n        /* \"#utility.yul\":12261:12548   */\n      pop\n        /* \"#utility.yul\":11612:12555   */\n      swap3\n      swap6\n      swap2\n      swap5\n      pop\n      swap3\n      pop\n      jump\t// out\n        /* \"#utility.yul\":12561:13035   */\n    tag_91:\n        /* \"#utility.yul\":12629:12635   */\n      0x00\n        /* \"#utility.yul\":12637:12643   */\n      dup1\n        /* \"#utility.yul\":12686:12688   */\n      0x40\n        /* \"#utility.yul\":12674:12683   */\n      dup4\n        /* \"#utility.yul\":12665:12672   */\n      dup6\n        /* \"#utility.yul\":12661:12684   */\n      sub\n        /* \"#utility.yul\":12657:12689   */\n      slt\n        /* \"#utility.yul\":12654:12773   */\n      iszero\n      tag_478\n      jumpi\n        /* \"#utility.yul\":12692:12771   */\n      tag_479\n      tag_271\n      jump\t// in\n    tag_479:\n        /* \"#utility.yul\":12654:12773   */\n    tag_478:\n        /* \"#utility.yul\":12812:12813   */\n      0x00\n        /* \"#utility.yul\":12837:12890   */\n      tag_480\n        /* \"#utility.yul\":12882:12889   */\n      dup6\n        /* \"#utility.yul\":12873:12879   */\n      dup3\n        /* \"#utility.yul\":12862:12871   */\n      dup7\n        /* \"#utility.yul\":12858:12880   */\n      add\n        /* \"#utility.yul\":12837:12890   */\n      tag_290\n      jump\t// in\n    tag_480:\n        /* \"#utility.yul\":12827:12890   */\n      swap3\n      pop\n        /* \"#utility.yul\":12783:12900   */\n      pop\n        /* \"#utility.yul\":12939:12941   */\n      0x20\n        /* \"#utility.yul\":12965:13018   */\n      tag_481\n        /* \"#utility.yul\":13010:13017   */\n      dup6\n        /* \"#utility.yul\":13001:13007   */\n      dup3\n        /* \"#utility.yul\":12990:12999   */\n      dup7\n        /* \"#utility.yul\":12986:13008   */\n      add\n        /* \"#utility.yul\":12965:13018   */\n      tag_290\n      jump\t// in\n    tag_481:\n        /* \"#utility.yul\":12955:13018   */\n      swap2\n      pop\n        /* \"#utility.yul\":12910:13028   */\n      pop\n        /* \"#utility.yul\":12561:13035   */\n      swap3\n      pop\n      swap3\n      swap1\n      pop\n      jump\t// out\n        /* \"#utility.yul\":13041:13221   */\n    tag_306:\n        /* \"#utility.yul\":13089:13166   */\n      0x4e487b7100000000000000000000000000000000000000000000000000000000\n        /* \"#utility.yul\":13086:13087   */\n      0x00\n        /* \"#utility.yul\":13079:13167   */\n      mstore\n        /* \"#utility.yul\":13186:13190   */\n      0x22\n        /* \"#utility.yul\":13183:13184   */\n      0x04\n        /* \"#utility.yul\":13176:13191   */\n      mstore\n        /* \"#utility.yul\":13210:13214   */\n      0x24\n        /* \"#utility.yul\":13207:13208   */\n      0x00\n        /* \"#utility.yul\":13200:13215   */\n      revert\n        /* \"#utility.yul\":13227:13547   */\n    tag_104:\n        /* \"#utility.yul\":13271:13277   */\n      0x00\n        /* \"#utility.yul\":13308:13309   */\n      0x02\n        /* \"#utility.yul\":13302:13306   */\n      dup3\n        /* \"#utility.yul\":13298:13310   */\n      div\n        /* \"#utility.yul\":13288:13310   */\n      swap1\n      pop\n        /* \"#utility.yul\":13355:13356   */\n      0x01\n        /* \"#utility.yul\":13349:13353   */\n      dup3\n        /* \"#utility.yul\":13345:13357   */\n      and\n        /* \"#utility.yul\":13376:13394   */\n      dup1\n        /* \"#utility.yul\":13366:13447   */\n      tag_484\n      jumpi\n        /* \"#utility.yul\":13432:13436   */\n      0x7f\n        /* \"#utility.yul\":13424:13430   */\n      dup3\n        /* \"#utility.yul\":13420:13437   */\n      and\n        /* \"#utility.yul\":13410:13437   */\n      swap2\n      pop\n        /* \"#utility.yul\":13366:13447   */\n    tag_484:\n        /* \"#utility.yul\":13494:13496   */\n      0x20\n        /* \"#utility.yul\":13486:13492   */\n      dup3\n        /* \"#utility.yul\":13483:13497   */\n      lt\n        /* \"#utility.yul\":13463:13481   */\n      dup2\n        /* \"#utility.yul\":13460:13498   */\n      sub\n        /* \"#utility.yul\":13457:13541   */\n      tag_485\n      jumpi\n        /* \"#utility.yul\":13513:13531   */\n      tag_486\n      tag_306\n      jump\t// in\n    tag_486:\n        /* \"#utility.yul\":13457:13541   */\n    tag_485:\n        /* \"#utility.yul\":13278:13547   */\n      pop\n        /* \"#utility.yul\":13227:13547   */\n      swap2\n      swap1\n      pop\n      jump\t// out\n        /* \"#utility.yul\":13553:13726   */\n    tag_307:\n        /* \"#utility.yul\":13693:13718   */\n      0x546f6b656e20494420616c726561647920657869737473000000000000000000\n        /* \"#utility.yul\":13689:13690   */\n      0x00\n        /* \"#utility.yul\":13681:13687   */\n      dup3\n        /* \"#utility.yul\":13677:13691   */\n      add\n        /* \"#utility.yul\":13670:13719   */\n      mstore\n        /* \"#utility.yul\":13553:13726   */\n      pop\n      jump\t// out\n        /* \"#utility.yul\":13732:14098   */\n    tag_308:\n        /* \"#utility.yul\":13874:13877   */\n      0x00\n        /* \"#utility.yul\":13895:13962   */\n      tag_489\n        /* \"#utility.yul\":13959:13961   */\n      0x17\n        /* \"#utility.yul\":13954:13957   */\n      dup4\n        /* \"#utility.yul\":13895:13962   */\n      tag_279\n      jump\t// in\n    tag_489:\n        /* \"#utility.yul\":13888:13962   */\n      swap2\n      pop\n        /* \"#utility.yul\":13971:14064   */\n      tag_490\n        /* \"#utility.yul\":14060:14063   */\n      dup3\n        /* \"#utility.yul\":13971:14064   */\n      tag_307\n      jump\t// in\n    tag_490:\n        /* \"#utility.yul\":14089:14091   */\n      0x20\n        /* \"#utility.yul\":14084:14087   */\n      dup3\n        /* \"#utility.yul\":14080:14092   */\n      add\n        /* \"#utility.yul\":14073:14092   */\n      swap1\n      pop\n        /* \"#utility.yul\":13732:14098   */\n      swap2\n      swap1\n      pop\n      jump\t// out\n        /* \"#utility.yul\":14104:14523   */\n    tag_125:\n        /* \"#utility.yul\":14270:14274   */\n      0x00\n        /* \"#utility.yul\":14308:14310   */\n      0x20\n        /* \"#utility.yul\":14297:14306   */\n      dup3\n        /* \"#utility.yul\":14293:14311   */\n      add\n        /* \"#utility.yul\":14285:14311   */\n      swap1\n      pop\n        /* \"#utility.yul\":14357:14366   */\n      dup2\n        /* \"#utility.yul\":14351:14355   */\n      dup2\n        /* \"#utility.yul\":14347:14367   */\n      sub\n        /* \"#utility.yul\":14343:14344   */\n      0x00\n        /* \"#utility.yul\":14332:14341   */\n      dup4\n        /* \"#utility.yul\":14328:14345   */\n      add\n        /* \"#utility.yul\":14321:14368   */\n      mstore\n        /* \"#utility.yul\":14385:14516   */\n      tag_492\n        /* \"#utility.yul\":14511:14515   */\n      dup2\n        /* \"#utility.yul\":14385:14516   */\n      tag_308\n      jump\t// in\n    tag_492:\n        /* \"#utility.yul\":14377:14516   */\n      swap1\n      pop\n        /* \"#utility.yul\":14104:14523   */\n      swap2\n      swap1\n      pop\n      jump\t// out\n        /* \"#utility.yul\":14529:14670   */\n    tag_309:\n        /* \"#utility.yul\":14578:14582   */\n      0x00\n        /* \"#utility.yul\":14601:14604   */\n      dup2\n        /* \"#utility.yul\":14593:14604   */\n      swap1\n      pop\n        /* \"#utility.yul\":14624:14627   */\n      dup2\n        /* \"#utility.yul\":14621:14622   */\n      0x00\n        /* \"#utility.yul\":14614:14628   */\n      mstore\n        /* \"#utility.yul\":14658:14662   */\n      0x20\n        /* \"#utility.yul\":14655:14656   */\n      0x00\n        /* \"#utility.yul\":14645:14663   */\n      keccak256\n        /* \"#utility.yul\":14637:14663   */\n      swap1\n      pop\n        /* \"#utility.yul\":14529:14670   */\n      swap2\n      swap1\n      pop\n      jump\t// out\n        /* \"#utility.yul\":14676:14769   */\n    tag_310:\n        /* \"#utility.yul\":14713:14719   */\n      0x00\n        /* \"#utility.yul\":14760:14762   */\n      0x20\n        /* \"#utility.yul\":14755:14757   */\n      0x1f\n        /* \"#utility.yul\":14748:14753   */\n      dup4\n        /* \"#utility.yul\":14744:14758   */\n      add\n        /* \"#utility.yul\":14740:14763   */\n      div\n        /* \"#utility.yul\":14730:14763   */\n      swap1\n      pop\n        /* \"#utility.yul\":14676:14769   */\n      swap2\n      swap1\n      pop\n      jump\t// out\n        /* \"#utility.yul\":14775:14882   */\n    tag_311:\n        /* \"#utility.yul\":14819:14827   */\n      0x00\n        /* \"#utility.yul\":14869:14874   */\n      dup3\n        /* \"#utility.yul\":14863:14867   */\n      dup3\n        /* \"#utility.yul\":14859:14875   */\n      shl\n        /* \"#utility.yul\":14838:14875   */\n      swap1\n      pop\n        /* \"#utility.yul\":14775:14882   */\n      swap3\n      swap2\n      pop\n      pop\n      jump\t// out\n        /* \"#utility.yul\":14888:15281   */\n    tag_312:\n        /* \"#utility.yul\":14957:14963   */\n      0x00\n        /* \"#utility.yul\":15007:15008   */\n      0x08\n        /* \"#utility.yul\":14995:15005   */\n      dup4\n        /* \"#utility.yul\":14991:15009   */\n      mul\n        /* \"#utility.yul\":15030:15127   */\n      tag_497\n        /* \"#utility.yul\":15060:15126   */\n      0xffffffffffffffffffffffffffffffffffffffffffffffffffffffffffffffff\n        /* \"#utility.yul\":15049:15058   */\n      dup3\n        /* \"#utility.yul\":15030:15127   */\n      tag_311\n      jump\t// in\n    tag_497:\n        /* \"#utility.yul\":15148:15187   */\n      tag_498\n        /* \"#utility.yul\":15178:15186   */\n      dup7\n        /* \"#utility.yul\":15167:15176   */\n      dup4\n        /* \"#utility.yul\":15148:15187   */\n      tag_311\n      jump\t// in\n    tag_498:\n        /* \"#utility.yul\":15136:15187   */\n      swap6\n      pop\n        /* \"#utility.yul\":15220:15224   */\n      dup1\n        /* \"#utility.yul\":15216:15225   */\n      not\n        /* \"#utility.yul\":15209:15214   */\n      dup5\n        /* \"#utility.yul\":15205:15226   */\n      and\n        /* \"#utility.yul\":15196:15226   */\n      swap4\n      pop\n        /* \"#utility.yul\":15269:15273   */\n      dup1\n        /* \"#utility.yul\":15259:15267   */\n      dup7\n        /* \"#utility.yul\":15255:15274   */\n      and\n        /* \"#utility.yul\":15248:15253   */\n      dup5\n        /* \"#utility.yul\":15245:15275   */\n      or\n        /* \"#utility.yul\":15235:15275   */\n      swap3\n      pop\n        /* \"#utility.yul\":14964:15281   */\n      pop\n      pop\n        /* \"#utility.yul\":14888:15281   */\n      swap4\n      swap3\n      pop\n      pop\n      pop\n      jump\t// out\n        /* \"#utility.yul\":15287:15347   */\n    tag_313:\n        /* \"#utility.yul\":15315:15318   */\n      0x00\n        /* \"#utility.yul\":15336:15341   */\n      dup2\n        /* \"#utility.yul\":15329:15341   */\n      swap1\n      pop\n        /* \"#utility.yul\":15287:15347   */\n      swap2\n      swap1\n      pop\n      jump\t// out\n        /* \"#utility.yul\":15353:15495   */\n    tag_314:\n        /* \"#utility.yul\":15403:15412   */\n      0x00\n        /* \"#utility.yul\":15436:15489   */\n      tag_501\n        /* \"#utility.yul\":15454:15488   */\n      tag_502\n        /* \"#utility.yul\":15463:15487   */\n      tag_503\n        /* \"#utility.yul\":15481:15486   */\n      dup5\n        /* \"#utility.yul\":15463:15487   */\n      tag_283\n      jump\t// in\n    tag_503:\n        /* \"#utility.yul\":15454:15488   */\n      tag_313\n      jump\t// in\n    tag_502:\n        /* \"#utility.yul\":15436:15489   */\n      tag_283\n      jump\t// in\n    tag_501:\n        /* \"#utility.yul\":15423:15489   */\n      swap1\n      pop\n        /* \"#utility.yul\":15353:15495   */\n      swap2\n      swap1\n      pop\n      jump\t// out\n        /* \"#utility.yul\":15501:15576   */\n    tag_315:\n        /* \"#utility.yul\":15544:15547   */\n      0x00\n        /* \"#utility.yul\":15565:15570   */\n      dup2\n        /* \"#utility.yul\":15558:15570   */\n      swap1\n      pop\n        /* \"#utility.yul\":15501:15576   */\n      swap2\n      swap1\n      pop\n      jump\t// out\n        /* \"#utility.yul\":15582:15851   */\n    tag_316:\n        /* \"#utility.yul\":15692:15731   */\n      tag_506\n        /* \"#utility.yul\":15723:15730   */\n      dup4\n        /* \"#utility.yul\":15692:15731   */\n      tag_314\n      jump\t// in\n    tag_506:\n        /* \"#utility.yul\":15753:15844   */\n      tag_507\n        /* \"#utility.yul\":15802:15843   */\n      tag_508\n        /* \"#utility.yul\":15826:15842   */\n      dup3\n        /* \"#utility.yul\":15802:15843   */\n      tag_315\n      jump\t// in\n    tag_508:\n        /* \"#utility.yul\":15794:15800   */\n      dup5\n        /* \"#utility.yul\":15787:15791   */\n      dup5\n        /* \"#utility.yul\":15781:15792   */\n      sload\n        /* \"#utility.yul\":15753:15844   */\n      tag_312\n      jump\t// in\n    tag_507:\n        /* \"#utility.yul\":15747:15751   */\n      dup3\n        /* \"#utility.yul\":15740:15845   */\n      sstore\n        /* \"#utility.yul\":15658:15851   */\n      pop\n        /* \"#utility.yul\":15582:15851   */\n      pop\n      pop\n      pop\n      jump\t// out\n        /* \"#utility.yul\":15857:15930   */\n    tag_317:\n        /* \"#utility.yul\":15902:15905   */\n      0x00\n        /* \"#utility.yul\":15857:15930   */\n      swap1\n      jump\t// out\n        /* \"#utility.yul\":15936:16125   */\n    tag_318:\n        /* \"#utility.yul\":16013:16045   */\n      tag_511\n      tag_317\n      jump\t// in\n    tag_511:\n        /* \"#utility.yul\":16054:16119   */\n      tag_512\n        /* \"#utility.yul\":16112:16118   */\n      dup2\n        /* \"#utility.yul\":16104:16110   */\n      dup5\n        /* \"#utility.yul\":16098:16102   */\n      dup5\n        /* \"#utility.yul\":16054:16119   */\n      tag_316\n      jump\t// in\n    tag_512:\n        /* \"#utility.yul\":15989:16125   */\n      pop\n        /* \"#utility.yul\":15936:16125   */\n      pop\n      pop\n      jump\t// out\n        /* \"#utility.yul\":16131:16317   */\n    tag_319:\n        /* \"#utility.yul\":16191:16311   */\n    tag_514:\n        /* \"#utility.yul\":16208:16211   */\n      dup2\n        /* \"#utility.yul\":16201:16206   */\n      dup2\n        /* \"#utility.yul\":16198:16212   */\n      lt\n        /* \"#utility.yul\":16191:16311   */\n      iszero\n      tag_516\n      jumpi\n        /* \"#utility.yul\":16262:16301   */\n      tag_517\n        /* \"#utility.yul\":16299:16300   */\n      0x00\n        /* \"#utility.yul\":16292:16297   */\n      dup3\n        /* \"#utility.yul\":16262:16301   */\n      tag_318\n      jump\t// in\n    tag_517:\n        /* \"#utility.yul\":16235:16236   */\n      0x01\n        /* \"#utility.yul\":16228:16233   */\n      dup2\n        /* \"#utility.yul\":16224:16237   */\n      add\n        /* \"#utility.yul\":16215:16237   */\n      swap1\n      pop\n        /* \"#utility.yul\":16191:16311   */\n      jump(tag_514)\n    tag_516:\n        /* \"#utility.yul\":16131:16317   */\n      pop\n      pop\n      jump\t// out\n        /* \"#utility.yul\":16323:16866   */\n    tag_320:\n        /* \"#utility.yul\":16424:16426   */\n      0x1f\n        /* \"#utility.yul\":16419:16422   */\n      dup3\n        /* \"#utility.yul\":16416:16427   */\n      gt\n        /* \"#utility.yul\":16413:16859   */\n      iszero\n      tag_519\n      jumpi\n        /* \"#utility.yul\":16458:16496   */\n      tag_520\n        /* \"#utility.yul\":16490:16495   */\n      dup2\n        /* \"#utility.yul\":16458:16496   */\n      tag_309\n      jump\t// in\n    tag_520:\n        /* \"#utility.yul\":16542:16571   */\n      tag_521\n        /* \"#utility.yul\":16560:16570   */\n      dup5\n        /* \"#utility.yul\":16542:16571   */\n      tag_310\n      jump\t// in\n    tag_521:\n        /* \"#utility.yul\":16532:16540   */\n      dup2\n        /* \"#utility.yul\":16528:16572   */\n      add\n        /* \"#utility.yul\":16725:16727   */\n      0x20\n        /* \"#utility.yul\":16713:16723   */\n      dup6\n        /* \"#utility.yul\":16710:16728   */\n      lt\n        /* \"#utility.yul\":16707:16756   */\n      iszero\n      tag_522\n      jumpi\n        /* \"#utility.yul\":16746:16754   */\n      dup2\n        /* \"#utility.yul\":16731:16754   */\n      swap1\n      pop\n        /* \"#utility.yul\":16707:16756   */\n    tag_522:\n        /* \"#utility.yul\":16769:16849   */\n      tag_523\n        /* \"#utility.yul\":16825:16847   */\n      tag_524\n        /* \"#utility.yul\":16843:16846   */\n      dup6\n        /* \"#utility.yul\":16825:16847   */\n      tag_310\n      jump\t// in\n    tag_524:\n        /* \"#utility.yul\":16815:16823   */\n      dup4\n        /* \"#utility.yul\":16811:16848   */\n      add\n        /* \"#utility.yul\":16798:16809   */\n      dup3\n        /* \"#utility.yul\":16769:16849   */\n      tag_319\n      jump\t// in\n    tag_523:\n        /* \"#utility.yul\":16428:16859   */\n      pop\n      pop\n        /* \"#utility.yul\":16413:16859   */\n    tag_519:\n        /* \"#utility.yul\":16323:16866   */\n      pop\n      pop\n      pop\n      jump\t// out\n        /* \"#utility.yul\":16872:16989   */\n    tag_321:\n        /* \"#utility.yul\":16926:16934   */\n      0x00\n        /* \"#utility.yul\":16976:16981   */\n      dup3\n        /* \"#utility.yul\":16970:16974   */\n      dup3\n        /* \"#utility.yul\":16966:16982   */\n      shr\n        /* \"#utility.yul\":16945:16982   */\n      swap1\n      pop\n        /* \"#utility.yul\":16872:16989   */\n      swap3\n      swap2\n      pop\n      pop\n      jump\t// out\n        /* \"#utility.yul\":16995:17164   */\n    tag_322:\n        /* \"#utility.yul\":17039:17045   */\n      0x00\n        /* \"#utility.yul\":17072:17123   */\n      tag_527\n        /* \"#utility.yul\":17120:17121   */\n      0x00\n        /* \"#utility.yul\":17116:17122   */\n      not\n        /* \"#utility.yul\":17108:17113   */\n      dup5\n        /* \"#utility.yul\":17105:17106   */\n      0x08\n        /* \"#utility.yul\":17101:17114   */\n      mul\n        /* \"#utility.yul\":17072:17123   */\n      tag_321\n      jump\t// in\n    tag_527:\n        /* \"#utility.yul\":17068:17124   */\n      not\n        /* \"#utility.yul\":17153:17157   */\n      dup1\n        /* \"#utility.yul\":17147:17151   */\n      dup4\n        /* \"#utility.yul\":17143:17158   */\n      and\n        /* \"#utility.yul\":17133:17158   */\n      swap2\n      pop\n        /* \"#utility.yul\":17046:17164   */\n      pop\n        /* \"#utility.yul\":16995:17164   */\n      swap3\n      swap2\n      pop\n      pop\n      jump\t// out\n        /* \"#utility.yul\":17169:17464   */\n    tag_323:\n        /* \"#utility.yul\":17245:17249   */\n      0x00\n        /* \"#utility.yul\":17391:17420   */\n      tag_529\n        /* \"#utility.yul\":17416:17419   */\n      dup4\n        /* \"#utility.yul\":17410:17414   */\n      dup4\n        /* \"#utility.yul\":17391:17420   */\n      tag_322\n      jump\t// in\n    tag_529:\n        /* \"#utility.yul\":17383:17420   */\n      swap2\n      pop\n        /* \"#utility.yul\":17453:17456   */\n      dup3\n        /* \"#utility.yul\":17450:17451   */\n      0x02\n        /* \"#utility.yul\":17446:17457   */\n      mul\n        /* \"#utility.yul\":17440:17444   */\n      dup3\n        /* \"#utility.yul\":17437:17458   */\n      or\n        /* \"#utility.yul\":17429:17458   */\n      swap1\n      pop\n        /* \"#utility.yul\":17169:17464   */\n      swap3\n      swap2\n      pop\n      pop\n      jump\t// out\n        /* \"#utility.yul\":17469:18864   */\n    tag_129:\n        /* \"#utility.yul\":17586:17623   */\n      tag_531\n        /* \"#utility.yul\":17619:17622   */\n      dup3\n        /* \"#utility.yul\":17586:17623   */\n      tag_278\n      jump\t// in\n    tag_531:\n        /* \"#utility.yul\":17688:17706   */\n      0xffffffffffffffff\n        /* \"#utility.yul\":17680:17686   */\n      dup2\n        /* \"#utility.yul\":17677:17707   */\n      gt\n        /* \"#utility.yul\":17674:17730   */\n      iszero\n      tag_532\n      jumpi\n        /* \"#utility.yul\":17710:17728   */\n      tag_533\n      tag_293\n      jump\t// in\n    tag_533:\n        /* \"#utility.yul\":17674:17730   */\n    tag_532:\n        /* \"#utility.yul\":17754:17792   */\n      tag_534\n        /* \"#utility.yul\":17786:17790   */\n      dup3\n        /* \"#utility.yul\":17780:17791   */\n      sload\n        /* \"#utility.yul\":17754:17792   */\n      tag_104\n      jump\t// in\n    tag_534:\n        /* \"#utility.yul\":17839:17906   */\n      tag_535\n        /* \"#utility.yul\":17899:17905   */\n      dup3\n        /* \"#utility.yul\":17891:17897   */\n      dup3\n        /* \"#utility.yul\":17885:17889   */\n      dup6\n        /* \"#utility.yul\":17839:17906   */\n      tag_320\n      jump\t// in\n    tag_535:\n        /* \"#utility.yul\":17933:17934   */\n      0x00\n        /* \"#utility.yul\":17957:17961   */\n      0x20\n        /* \"#utility.yul\":17944:17961   */\n      swap1\n      pop\n        /* \"#utility.yul\":17989:17991   */\n      0x1f\n        /* \"#utility.yul\":17981:17987   */\n      dup4\n        /* \"#utility.yul\":17978:17992   */\n      gt\n        /* \"#utility.yul\":18006:18007   */\n      0x01\n        /* \"#utility.yul\":18001:18619   */\n      dup2\n      eq\n      tag_537\n      jumpi\n        /* \"#utility.yul\":18663:18664   */\n      0x00\n        /* \"#utility.yul\":18680:18686   */\n      dup5\n        /* \"#utility.yul\":18677:18754   */\n      iszero\n      tag_538\n      jumpi\n        /* \"#utility.yul\":18729:18738   */\n      dup3\n        /* \"#utility.yul\":18724:18727   */\n      dup8\n        /* \"#utility.yul\":18720:18739   */\n      add\n        /* \"#utility.yul\":18714:18740   */\n      mload\n        /* \"#utility.yul\":18705:18740   */\n      swap1\n      pop\n        /* \"#utility.yul\":18677:18754   */\n    tag_538:\n        /* \"#utility.yul\":18780:18847   */\n      tag_539\n        /* \"#utility.yul\":18840:18846   */\n      dup6\n        /* \"#utility.yul\":18833:18838   */\n      dup3\n        /* \"#utility.yul\":18780:18847   */\n      tag_323\n      jump\t// in\n    tag_539:\n        /* \"#utility.yul\":18774:18778   */\n      dup7\n        /* \"#utility.yul\":18767:18848   */\n      sstore\n        /* \"#utility.yul\":18636:18858   */\n      pop\n        /* \"#utility.yul\":17971:18858   */\n      jump(tag_536)\n        /* \"#utility.yul\":18001:18619   */\n    tag_537:\n        /* \"#utility.yul\":18053:18057   */\n      0x1f\n        /* \"#utility.yul\":18049:18058   */\n      not\n        /* \"#utility.yul\":18041:18047   */\n      dup5\n        /* \"#utility.yul\":18037:18059   */\n      and\n        /* \"#utility.yul\":18087:18124   */\n      tag_540\n        /* \"#utility.yul\":18119:18123   */\n      dup7\n        /* \"#utility.yul\":18087:18124   */\n      tag_309\n      jump\t// in\n    tag_540:\n        /* \"#utility.yul\":18146:18147   */\n      0x00\n        /* \"#utility.yul\":18160:18368   */\n    tag_541:\n        /* \"#utility.yul\":18174:18181   */\n      dup3\n        /* \"#utility.yul\":18171:18172   */\n      dup2\n        /* \"#utility.yul\":18168:18182   */\n      lt\n        /* \"#utility.yul\":18160:18368   */\n      iszero\n      tag_543\n      jumpi\n        /* \"#utility.yul\":18253:18262   */\n      dup5\n        /* \"#utility.yul\":18248:18251   */\n      dup10\n        /* \"#utility.yul\":18244:18263   */\n      add\n        /* \"#utility.yul\":18238:18264   */\n      mload\n        /* \"#utility.yul\":18230:18236   */\n      dup3\n        /* \"#utility.yul\":18223:18265   */\n      sstore\n        /* \"#utility.yul\":18304:18305   */\n      0x01\n        /* \"#utility.yul\":18296:18302   */\n      dup3\n        /* \"#utility.yul\":18292:18306   */\n      add\n        /* \"#utility.yul\":18282:18306   */\n      swap2\n      pop\n        /* \"#utility.yul\":18351:18353   */\n      0x20\n        /* \"#utility.yul\":18340:18349   */\n      dup6\n        /* \"#utility.yul\":18336:18354   */\n      add\n        /* \"#utility.yul\":18323:18354   */\n      swap5\n      pop\n        /* \"#utility.yul\":18197:18201   */\n      0x20\n        /* \"#utility.yul\":18194:18195   */\n      dup2\n        /* \"#utility.yul\":18190:18202   */\n      add\n        /* \"#utility.yul\":18185:18202   */\n      swap1\n      pop\n        /* \"#utility.yul\":18160:18368   */\n      jump(tag_541)\n    tag_543:\n        /* \"#utility.yul\":18396:18402   */\n      dup7\n        /* \"#utility.yul\":18387:18394   */\n      dup4\n        /* \"#utility.yul\":18384:18403   */\n      lt\n        /* \"#utility.yul\":18381:18560   */\n      iszero\n      tag_544\n      jumpi\n        /* \"#utility.yul\":18454:18463   */\n      dup5\n        /* \"#utility.yul\":18449:18452   */\n      dup10\n        /* \"#utility.yul\":18445:18464   */\n      add\n        /* \"#utility.yul\":18439:18465   */\n      mload\n        /* \"#utility.yul\":18497:18545   */\n      tag_545\n        /* \"#utility.yul\":18539:18543   */\n      0x1f\n        /* \"#utility.yul\":18531:18537   */\n      dup10\n        /* \"#utility.yul\":18527:18544   */\n      and\n        /* \"#utility.yul\":18516:18525   */\n      dup3\n        /* \"#utility.yul\":18497:18545   */\n      tag_322\n      jump\t// in\n    tag_545:\n        /* \"#utility.yul\":18489:18495   */\n      dup4\n        /* \"#utility.yul\":18482:18546   */\n      sstore\n        /* \"#utility.yul\":18404:18560   */\n      pop\n        /* \"#utility.yul\":18381:18560   */\n    tag_544:\n        /* \"#utility.yul\":18606:18607   */\n      0x01\n        /* \"#utility.yul\":18602:18603   */\n      0x02\n        /* \"#utility.yul\":18594:18600   */\n      dup9\n        /* \"#utility.yul\":18590:18604   */\n      mul\n        /* \"#utility.yul\":18586:18608   */\n      add\n        /* \"#utility.yul\":18580:18584   */\n      dup9\n        /* \"#utility.yul\":18573:18609   */\n      sstore\n        /* \"#utility.yul\":18008:18619   */\n      pop\n      pop\n      pop\n        /* \"#utility.yul\":17971:18858   */\n    tag_536:\n      pop\n        /* \"#utility.yul\":17561:18864   */\n      pop\n      pop\n      pop\n        /* \"#utility.yul\":17469:18864   */\n      pop\n      pop\n      jump\t// out\n        /* \"#utility.yul\":18870:19312   */\n    tag_138:\n        /* \"#utility.yul\":19019:19023   */\n      0x00\n        /* \"#utility.yul\":19057:19059   */\n      0x60\n        /* \"#utility.yul\":19046:19055   */\n      dup3\n        /* \"#utility.yul\":19042:19060   */\n      add\n        /* \"#utility.yul\":19034:19060   */\n      swap1\n      pop\n        /* \"#utility.yul\":19070:19141   */\n      tag_547\n        /* \"#utility.yul\":19138:19139   */\n      0x00\n        /* \"#utility.yul\":19127:19136   */\n      dup4\n        /* \"#utility.yul\":19123:19140   */\n      add\n        /* \"#utility.yul\":19114:19120   */\n      dup7\n        /* \"#utility.yul\":19070:19141   */\n      tag_288\n      jump\t// in\n    tag_547:\n        /* \"#utility.yul\":19151:19223   */\n      tag_548\n        /* \"#utility.yul\":19219:19221   */\n      0x20\n        /* \"#utility.yul\":19208:19217   */\n      dup4\n        /* \"#utility.yul\":19204:19222   */\n      add\n        /* \"#utility.yul\":19195:19201   */\n      dup6\n        /* \"#utility.yul\":19151:19223   */\n      tag_300\n      jump\t// in\n    tag_548:\n        /* \"#utility.yul\":19233:19305   */\n      tag_549\n        /* \"#utility.yul\":19301:19303   */\n      0x40\n        /* \"#utility.yul\":19290:19299   */\n      dup4\n        /* \"#utility.yul\":19286:19304   */\n      add\n        /* \"#utility.yul\":19277:19283   */\n      dup5\n        /* \"#utility.yul\":19233:19305   */\n      tag_288\n      jump\t// in\n    tag_549:\n        /* \"#utility.yul\":18870:19312   */\n      swap5\n      swap4\n      pop\n      pop\n      pop\n      pop\n      jump\t// out\n        /* \"#utility.yul\":19318:19488   */\n    tag_324:\n        /* \"#utility.yul\":19458:19480   */\n      0x546f6b656e20646f6573206e6f74206578697374000000000000000000000000\n        /* \"#utility.yul\":19454:19455   */\n      0x00\n        /* \"#utility.yul\":19446:19452   */\n      dup3\n        /* \"#utility.yul\":19442:19456   */\n      add\n        /* \"#utility.yul\":19435:19481   */\n      mstore\n        /* \"#utility.yul\":19318:19488   */\n      pop\n      jump\t// out\n        /* \"#utility.yul\":19494:19860   */\n    tag_325:\n        /* \"#utility.yul\":19636:19639   */\n      0x00\n        /* \"#utility.yul\":19657:19724   */\n      tag_552\n        /* \"#utility.yul\":19721:19723   */\n      0x14\n        /* \"#utility.yul\":19716:19719   */\n      dup4\n        /* \"#utility.yul\":19657:19724   */\n      tag_279\n      jump\t// in\n    tag_552:\n        /* \"#utility.yul\":19650:19724   */\n      swap2\n      pop\n        /* \"#utility.yul\":19733:19826   */\n      tag_553\n        /* \"#utility.yul\":19822:19825   */\n      dup3\n        /* \"#utility.yul\":19733:19826   */\n      tag_324\n      jump\t// in\n    tag_553:\n        /* \"#utility.yul\":19851:19853   */\n      0x20\n        /* \"#utility.yul\":19846:19849   */\n      dup3\n        /* \"#utility.yul\":19842:19854   */\n      add\n        /* \"#utility.yul\":19835:19854   */\n      swap1\n      pop\n        /* \"#utility.yul\":19494:19860   */\n      swap2\n      swap1\n      pop\n      jump\t// out\n        /* \"#utility.yul\":19866:20285   */\n    tag_156:\n        /* \"#utility.yul\":20032:20036   */\n      0x00\n        /* \"#utility.yul\":20070:20072   */\n      0x20\n        /* \"#utility.yul\":20059:20068   */\n      dup3\n        /* \"#utility.yul\":20055:20073   */\n      add\n        /* \"#utility.yul\":20047:20073   */\n      swap1\n      pop\n        /* \"#utility.yul\":20119:20128   */\n      dup2\n        /* \"#utility.yul\":20113:20117   */\n      dup2\n        /* \"#utility.yul\":20109:20129   */\n      sub\n        /* \"#utility.yul\":20105:20106   */\n      0x00\n        /* \"#utility.yul\":20094:20103   */\n      dup4\n        /* \"#utility.yul\":20090:20107   */\n      add\n        /* \"#utility.yul\":20083:20130   */\n      mstore\n        /* \"#utility.yul\":20147:20278   */\n      tag_555\n        /* \"#utility.yul\":20273:20277   */\n      dup2\n        /* \"#utility.yul\":20147:20278   */\n      tag_325\n      jump\t// in\n    tag_555:\n        /* \"#utility.yul\":20139:20278   */\n      swap1\n      pop\n        /* \"#utility.yul\":19866:20285   */\n      swap2\n      swap1\n      pop\n      jump\t// out\n        /* \"#utility.yul\":20291:20389   */\n    tag_326:\n        /* \"#utility.yul\":20342:20348   */\n      0x00\n        /* \"#utility.yul\":20376:20381   */\n      dup2\n        /* \"#utility.yul\":20370:20382   */\n      mload\n        /* \"#utility.yul\":20360:20382   */\n      swap1\n      pop\n        /* \"#utility.yul\":20291:20389   */\n      swap2\n      swap1\n      pop\n      jump\t// out\n        /* \"#utility.yul\":20395:20563   */\n    tag_327:\n        /* \"#utility.yul\":20478:20489   */\n      0x00\n        /* \"#utility.yul\":20512:20518   */\n      dup3\n        /* \"#utility.yul\":20507:20510   */\n      dup3\n        /* \"#utility.yul\":20500:20519   */\n      mstore\n        /* \"#utility.yul\":20552:20556   */\n      0x20\n        /* \"#utility.yul\":20547:20550   */\n      dup3\n        /* \"#utility.yul\":20543:20557   */\n      add\n        /* \"#utility.yul\":20528:20557   */\n      swap1\n      pop\n        /* \"#utility.yul\":20395:20563   */\n      swap3\n      swap2\n      pop\n      pop\n      jump\t// out\n        /* \"#utility.yul\":20569:20942   */\n    tag_328:\n        /* \"#utility.yul\":20655:20658   */\n      0x00\n        /* \"#utility.yul\":20683:20721   */\n      tag_559\n        /* \"#utility.yul\":20715:20720   */\n      dup3\n        /* \"#utility.yul\":20683:20721   */\n      tag_326\n      jump\t// in\n    tag_559:\n        /* \"#utility.yul\":20737:20807   */\n      tag_560\n        /* \"#utility.yul\":20800:20806   */\n      dup2\n        /* \"#utility.yul\":20795:20798   */\n      dup6\n        /* \"#utility.yul\":20737:20807   */\n      tag_327\n      jump\t// in\n    tag_560:\n        /* \"#utility.yul\":20730:20807   */\n      swap4\n      pop\n        /* \"#utility.yul\":20816:20881   */\n      tag_561\n        /* \"#utility.yul\":20874:20880   */\n      dup2\n        /* \"#utility.yul\":20869:20872   */\n      dup6\n        /* \"#utility.yul\":20862:20866   */\n      0x20\n        /* \"#utility.yul\":20855:20860   */\n      dup7\n        /* \"#utility.yul\":20851:20867   */\n      add\n        /* \"#utility.yul\":20816:20881   */\n      tag_280\n      jump\t// in\n    tag_561:\n        /* \"#utility.yul\":20906:20935   */\n      tag_562\n        /* \"#utility.yul\":20928:20934   */\n      dup2\n        /* \"#utility.yul\":20906:20935   */\n      tag_281\n      jump\t// in\n    tag_562:\n        /* \"#utility.yul\":20901:20904   */\n      dup5\n        /* \"#utility.yul\":20897:20936   */\n      add\n        /* \"#utility.yul\":20890:20936   */\n      swap2\n      pop\n        /* \"#utility.yul\":20659:20942   */\n      pop\n        /* \"#utility.yul\":20569:20942   */\n      swap3\n      swap2\n      pop\n      pop\n      jump\t// out\n        /* \"#utility.yul\":20948:21588   */\n    tag_228:\n        /* \"#utility.yul\":21143:21147   */\n      0x00\n        /* \"#utility.yul\":21181:21184   */\n      0x80\n        /* \"#utility.yul\":21170:21179   */\n      dup3\n        /* \"#utility.yul\":21166:21185   */\n      add\n        /* \"#utility.yul\":21158:21185   */\n      swap1\n      pop\n        /* \"#utility.yul\":21195:21266   */\n      tag_564\n        /* \"#utility.yul\":21263:21264   */\n      0x00\n        /* \"#utility.yul\":21252:21261   */\n      dup4\n        /* \"#utility.yul\":21248:21265   */\n      add\n        /* \"#utility.yul\":21239:21245   */\n      dup8\n        /* \"#utility.yul\":21195:21266   */\n      tag_288\n      jump\t// in\n    tag_564:\n        /* \"#utility.yul\":21276:21348   */\n      tag_565\n        /* \"#utility.yul\":21344:21346   */\n      0x20\n        /* \"#utility.yul\":21333:21342   */\n      dup4\n        /* \"#utility.yul\":21329:21347   */\n      add\n        /* \"#utility.yul\":21320:21326   */\n      dup7\n        /* \"#utility.yul\":21276:21348   */\n      tag_288\n      jump\t// in\n    tag_565:\n        /* \"#utility.yul\":21358:21430   */\n      tag_566\n        /* \"#utility.yul\":21426:21428   */\n      0x40\n        /* \"#utility.yul\":21415:21424   */\n      dup4\n        /* \"#utility.yul\":21411:21429   */\n      add\n        /* \"#utility.yul\":21402:21408   */\n      dup6\n        /* \"#utility.yul\":21358:21430   */\n      tag_300\n      jump\t// in\n    tag_566:\n        /* \"#utility.yul\":21477:21486   */\n      dup2\n        /* \"#utility.yul\":21471:21475   */\n      dup2\n        /* \"#utility.yul\":21467:21487   */\n      sub\n        /* \"#utility.yul\":21462:21464   */\n      0x60\n        /* \"#utility.yul\":21451:21460   */\n      dup4\n        /* \"#utility.yul\":21447:21465   */\n      add\n        /* \"#utility.yul\":21440:21488   */\n      mstore\n        /* \"#utility.yul\":21505:21581   */\n      tag_567\n        /* \"#utility.yul\":21576:21580   */\n      dup2\n        /* \"#utility.yul\":21567:21573   */\n      dup5\n        /* \"#utility.yul\":21505:21581   */\n      tag_328\n      jump\t// in\n    tag_567:\n        /* \"#utility.yul\":21497:21581   */\n      swap1\n      pop\n        /* \"#utility.yul\":20948:21588   */\n      swap6\n      swap5\n      pop\n      pop\n      pop\n      pop\n      pop\n      jump\t// out\n        /* \"#utility.yul\":21594:21735   */\n    tag_329:\n        /* \"#utility.yul\":21650:21655   */\n      0x00\n        /* \"#utility.yul\":21681:21687   */\n      dup2\n        /* \"#utility.yul\":21675:21688   */\n      mload\n        /* \"#utility.yul\":21666:21688   */\n      swap1\n      pop\n        /* \"#utility.yul\":21697:21729   */\n      tag_569\n        /* \"#utility.yul\":21723:21728   */\n      dup2\n        /* \"#utility.yul\":21697:21729   */\n      tag_274\n      jump\t// in\n    tag_569:\n        /* \"#utility.yul\":21594:21735   */\n      swap3\n      swap2\n      pop\n      pop\n      jump\t// out\n        /* \"#utility.yul\":21741:22090   */\n    tag_231:\n        /* \"#utility.yul\":21810:21816   */\n      0x00\n        /* \"#utility.yul\":21859:21861   */\n      0x20\n        /* \"#utility.yul\":21847:21856   */\n      dup3\n        /* \"#utility.yul\":21838:21845   */\n      dup5\n        /* \"#utility.yul\":21834:21857   */\n      sub\n        /* \"#utility.yul\":21830:21862   */\n      slt\n        /* \"#utility.yul\":21827:21946   */\n      iszero\n      tag_571\n      jumpi\n        /* \"#utility.yul\":21865:21944   */\n      tag_572\n      tag_271\n      jump\t// in\n    tag_572:\n        /* \"#utility.yul\":21827:21946   */\n    tag_571:\n        /* \"#utility.yul\":21985:21986   */\n      0x00\n        /* \"#utility.yul\":22010:22073   */\n      tag_573\n        /* \"#utility.yul\":22065:22072   */\n      dup5\n        /* \"#utility.yul\":22056:22062   */\n      dup3\n        /* \"#utility.yul\":22045:22054   */\n      dup6\n        /* \"#utility.yul\":22041:22063   */\n      add\n        /* \"#utility.yul\":22010:22073   */\n      tag_329\n      jump\t// in\n    tag_573:\n        /* \"#utility.yul\":22000:22073   */\n      swap2\n      pop\n        /* \"#utility.yul\":21956:22083   */\n      pop\n        /* \"#utility.yul\":21741:22090   */\n      swap3\n      swap2\n      pop\n      pop\n      jump\t// out\n        /* \"#utility.yul\":22096:22428   */\n    tag_263:\n        /* \"#utility.yul\":22217:22221   */\n      0x00\n        /* \"#utility.yul\":22255:22257   */\n      0x40\n        /* \"#utility.yul\":22244:22253   */\n      dup3\n        /* \"#utility.yul\":22240:22258   */\n      add\n        /* \"#utility.yul\":22232:22258   */\n      swap1\n      pop\n        /* \"#utility.yul\":22268:22339   */\n      tag_575\n        /* \"#utility.yul\":22336:22337   */\n      0x00\n        /* \"#utility.yul\":22325:22334   */\n      dup4\n        /* \"#utility.yul\":22321:22338   */\n      add\n        /* \"#utility.yul\":22312:22318   */\n      dup6\n        /* \"#utility.yul\":22268:22339   */\n      tag_288\n      jump\t// in\n    tag_575:\n        /* \"#utility.yul\":22349:22421   */\n      tag_576\n        /* \"#utility.yul\":22417:22419   */\n      0x20\n        /* \"#utility.yul\":22406:22415   */\n      dup4\n        /* \"#utility.yul\":22402:22420   */\n      add\n        /* \"#utility.yul\":22393:22399   */\n      dup5\n        /* \"#utility.yul\":22349:22421   */\n      tag_300\n      jump\t// in\n    tag_576:\n        /* \"#utility.yul\":22096:22428   */\n      swap4\n      swap3\n      pop\n      pop\n      pop\n      jump\t// out\n\n    auxdata: 0xa26469706673582212209617e4ac4e6ccf1a1847f4b91cf2dea6b8a3eaf11d19a2726baa76e8a6e6d80a64736f6c63430008140033\n}\n",
				"bytecode": {
					"linkReferences": {},
					"object": "608060405234801562000010575f80fd5b5060405162002ae038038062002ae0833981810160405281019062000036919062000395565b808383815f908162000049919062000663565b5080600190816200005b919062000663565b5050505f73ffffffffffffffffffffffffffffffffffffffff168173ffffffffffffffffffffffffffffffffffffffff1603620000d1575f6040517f1e4fbdf7000000000000000000000000000000000000000000000000000000008152600401620000c8919062000758565b60405180910390fd5b620000e281620000ec60201b60201c565b5050505062000773565b5f60065f9054906101000a900473ffffffffffffffffffffffffffffffffffffffff1690508160065f6101000a81548173ffffffffffffffffffffffffffffffffffffffff021916908373ffffffffffffffffffffffffffffffffffffffff1602179055508173ffffffffffffffffffffffffffffffffffffffff168173ffffffffffffffffffffffffffffffffffffffff167f8be0079c531659141344cd1fd0a4f28419497f9722a3daafe3b4186f6b6457e060405160405180910390a35050565b5f604051905090565b5f80fd5b5f80fd5b5f80fd5b5f80fd5b5f601f19601f8301169050919050565b7f4e487b71000000000000000000000000000000000000000000000000000000005f52604160045260245ffd5b6200021082620001c8565b810181811067ffffffffffffffff82111715620002325762000231620001d8565b5b80604052505050565b5f62000246620001af565b905062000254828262000205565b919050565b5f67ffffffffffffffff821115620002765762000275620001d8565b5b6200028182620001c8565b9050602081019050919050565b5f5b83811015620002ad57808201518184015260208101905062000290565b5f8484015250505050565b5f620002ce620002c88462000259565b6200023b565b905082815260208101848484011115620002ed57620002ec620001c4565b5b620002fa8482856200028e565b509392505050565b5f82601f830112620003195762000318620001c0565b5b81516200032b848260208601620002b8565b91505092915050565b5f73ffffffffffffffffffffffffffffffffffffffff82169050919050565b5f6200035f8262000334565b9050919050565b620003718162000353565b81146200037c575f80fd5b50565b5f815190506200038f8162000366565b92915050565b5f805f60608486031215620003af57620003ae620001b8565b5b5f84015167ffffffffffffffff811115620003cf57620003ce620001bc565b5b620003dd8682870162000302565b935050602084015167ffffffffffffffff811115620004015762000400620001bc565b5b6200040f8682870162000302565b925050604062000422868287016200037f565b9150509250925092565b5f81519050919050565b7f4e487b71000000000000000000000000000000000000000000000000000000005f52602260045260245ffd5b5f60028204905060018216806200047b57607f821691505b60208210810362000491576200049062000436565b5b50919050565b5f819050815f5260205f209050919050565b5f6020601f8301049050919050565b5f82821b905092915050565b5f60088302620004f57fffffffffffffffffffffffffffffffffffffffffffffffffffffffffffffffff82620004b8565b620005018683620004b8565b95508019841693508086168417925050509392505050565b5f819050919050565b5f819050919050565b5f6200054b620005456200053f8462000519565b62000522565b62000519565b9050919050565b5f819050919050565b62000566836200052b565b6200057e620005758262000552565b848454620004c4565b825550505050565b5f90565b6200059462000586565b620005a18184846200055b565b505050565b5b81811015620005c857620005bc5f826200058a565b600181019050620005a7565b5050565b601f8211156200061757620005e18162000497565b620005ec84620004a9565b81016020851015620005fc578190505b620006146200060b85620004a9565b830182620005a6565b50505b505050565b5f82821c905092915050565b5f620006395f19846008026200061c565b1980831691505092915050565b5f62000653838362000628565b9150826002028217905092915050565b6200066e826200042c565b67ffffffffffffffff8111156200068a5762000689620001d8565b5b62000696825462000463565b620006a3828285620005cc565b5f60209050601f831160018114620006d9575f8415620006c4578287015190505b620006d0858262000646565b8655506200073f565b601f198416620006e98662000497565b5f5b828110156200071257848901518255600182019150602085019450602081019050620006eb565b868310156200073257848901516200072e601f89168262000628565b8355505b6001600288020188555050505b505050505050565b620007528162000353565b82525050565b5f6020820190506200076d5f83018462000747565b92915050565b61235f80620007815f395ff3fe608060405234801561000f575f80fd5b5060043610610114575f3560e01c8063715018a6116100a0578063a22cb4651161006f578063a22cb465146102c8578063b88d4fde146102e4578063c87b56dd14610300578063e985e9c514610330578063f2fde38b1461036057610114565b8063715018a6146102665780637a490fe1146102705780638da5cb5b1461028c57806395d89b41146102aa57610114565b80630ce51f56116100e75780630ce51f56146101b257806323b872dd146101ce57806342842e0e146101ea5780636352211e1461020657806370a082311461023657610114565b806301ffc9a71461011857806306fdde0314610148578063081812fc14610166578063095ea7b314610196575b5f80fd5b610132600480360381019061012d91906117da565b61037c565b60405161013f919061181f565b60405180910390f35b61015061045d565b60405161015d91906118c2565b60405180910390f35b610180600480360381019061017b9190611915565b6104ec565b60405161018d919061197f565b60405180910390f35b6101b060048036038101906101ab91906119c2565b610507565b005b6101cc60048036038101906101c79190611b2c565b61051d565b005b6101e860048036038101906101e39190611b98565b6105da565b005b61020460048036038101906101ff9190611b98565b6106d9565b005b610220600480360381019061021b9190611915565b6106f8565b60405161022d919061197f565b60405180910390f35b610250600480360381019061024b9190611be8565b610709565b60405161025d9190611c22565b60405180910390f35b61026e6107bf565b005b61028a60048036038101906102859190611c3b565b6107d2565b005b61029461085a565b6040516102a1919061197f565b60405180910390f35b6102b2610882565b6040516102bf91906118c2565b60405180910390f35b6102e260048036038101906102dd9190611cbf565b610912565b005b6102fe60048036038101906102f99190611d9b565b610928565b005b61031a60048036038101906103159190611915565b610945565b60405161032791906118c2565b60405180910390f35b61034a60048036038101906103459190611e1b565b610a43565b604051610357919061181f565b60405180910390f35b61037a60048036038101906103759190611be8565b610ad1565b005b5f7f80ac58cd000000000000000000000000000000000000000000000000000000007bffffffffffffffffffffffffffffffffffffffffffffffffffffffff1916827bffffffffffffffffffffffffffffffffffffffffffffffffffffffff1916148061044657507f5b5e139f000000000000000000000000000000000000000000000000000000007bffffffffffffffffffffffffffffffffffffffffffffffffffffffff1916827bffffffffffffffffffffffffffffffffffffffffffffffffffffffff1916145b80610456575061045582610b55565b5b9050919050565b60605f805461046b90611e86565b80601f016020809104026020016040519081016040528092919081815260200182805461049790611e86565b80156104e25780601f106104b9576101008083540402835291602001916104e2565b820191905f5260205f20905b8154815290600101906020018083116104c557829003601f168201915b5050505050905090565b5f6104f682610bbe565b5061050082610c44565b9050919050565b6105198282610514610c7d565b610c84565b5050565b610525610c96565b60085f8381526020019081526020015f205f9054906101000a900460ff1615610583576040517f08c379a000000000000000000000000000000000000000000000000000000000815260040161057a90611f00565b60405180910390fd5b61058d8383610d1d565b8060075f8481526020019081526020015f2090816105ab91906120bb565b50600160085f8481526020019081526020015f205f6101000a81548160ff021916908315150217905550505050565b5f73ffffffffffffffffffffffffffffffffffffffff168273ffffffffffffffffffffffffffffffffffffffff160361064a575f6040517f64a0ae92000000000000000000000000000000000000000000000000000000008152600401610641919061197f565b60405180910390fd5b5f61065d8383610658610c7d565b610e10565b90508373ffffffffffffffffffffffffffffffffffffffff168173ffffffffffffffffffffffffffffffffffffffff16146106d3578382826040517f64283d7b0000000000000000000000000000000000000000000000000000000081526004016106ca9392919061218a565b60405180910390fd5b50505050565b6106f383838360405180602001604052805f815250610928565b505050565b5f61070282610bbe565b9050919050565b5f8073ffffffffffffffffffffffffffffffffffffffff168273ffffffffffffffffffffffffffffffffffffffff160361077a575f6040517f89c62b64000000000000000000000000000000000000000000000000000000008152600401610771919061197f565b60405180910390fd5b60035f8373ffffffffffffffffffffffffffffffffffffffff1673ffffffffffffffffffffffffffffffffffffffff1681526020019081526020015f20549050919050565b6107c7610c96565b6107d05f61101b565b565b6107da610c96565b60085f8381526020019081526020015f205f9054906101000a900460ff16610837576040517f08c379a000000000000000000000000000000000000000000000000000000000815260040161082e90612209565b60405180910390fd5b8060075f8481526020019081526020015f20908161085591906120bb565b505050565b5f60065f9054906101000a900473ffffffffffffffffffffffffffffffffffffffff16905090565b60606001805461089190611e86565b80601f01602080910402602001604051908101604052809291908181526020018280546108bd90611e86565b80156109085780601f106108df57610100808354040283529160200191610908565b820191905f5260205f20905b8154815290600101906020018083116108eb57829003601f168201915b5050505050905090565b61092461091d610c7d565b83836110de565b5050565b6109338484846105da565b61093f84848484611247565b50505050565b606060085f8381526020019081526020015f205f9054906101000a900460ff166109a4576040517f08c379a000000000000000000000000000000000000000000000000000000000815260040161099b90612209565b60405180910390fd5b60075f8381526020019081526020015f2080546109c090611e86565b80601f01602080910402602001604051908101604052809291908181526020018280546109ec90611e86565b8015610a375780601f10610a0e57610100808354040283529160200191610a37565b820191905f5260205f20905b815481529060010190602001808311610a1a57829003601f168201915b50505050509050919050565b5f60055f8473ffffffffffffffffffffffffffffffffffffffff1673ffffffffffffffffffffffffffffffffffffffff1681526020019081526020015f205f8373ffffffffffffffffffffffffffffffffffffffff1673ffffffffffffffffffffffffffffffffffffffff1681526020019081526020015f205f9054906101000a900460ff16905092915050565b610ad9610c96565b5f73ffffffffffffffffffffffffffffffffffffffff168173ffffffffffffffffffffffffffffffffffffffff1603610b49575f6040517f1e4fbdf7000000000000000000000000000000000000000000000000000000008152600401610b40919061197f565b60405180910390fd5b610b528161101b565b50565b5f7f01ffc9a7000000000000000000000000000000000000000000000000000000007bffffffffffffffffffffffffffffffffffffffffffffffffffffffff1916827bffffffffffffffffffffffffffffffffffffffffffffffffffffffff1916149050919050565b5f80610bc9836113f9565b90505f73ffffffffffffffffffffffffffffffffffffffff168173ffffffffffffffffffffffffffffffffffffffff1603610c3b57826040517f7e273289000000000000000000000000000000000000000000000000000000008152600401610c329190611c22565b60405180910390fd5b80915050919050565b5f60045f8381526020019081526020015f205f9054906101000a900473ffffffffffffffffffffffffffffffffffffffff169050919050565b5f33905090565b610c918383836001611432565b505050565b610c9e610c7d565b73ffffffffffffffffffffffffffffffffffffffff16610cbc61085a565b73ffffffffffffffffffffffffffffffffffffffff1614610d1b57610cdf610c7d565b6040517f118cdaa7000000000000000000000000000000000000000000000000000000008152600401610d12919061197f565b60405180910390fd5b565b5f73ffffffffffffffffffffffffffffffffffffffff168273ffffffffffffffffffffffffffffffffffffffff1603610d8d575f6040517f64a0ae92000000000000000000000000000000000000000000000000000000008152600401610d84919061197f565b60405180910390fd5b5f610d9983835f610e10565b90505f73ffffffffffffffffffffffffffffffffffffffff168173ffffffffffffffffffffffffffffffffffffffff1614610e0b575f6040517f73c6ac6e000000000000000000000000000000000000000000000000000000008152600401610e02919061197f565b60405180910390fd5b505050565b5f80610e1b846113f9565b90505f73ffffffffffffffffffffffffffffffffffffffff168373ffffffffffffffffffffffffffffffffffffffff1614610e5c57610e5b8184866115f1565b5b5f73ffffffffffffffffffffffffffffffffffffffff168173ffffffffffffffffffffffffffffffffffffffff1614610ee757610e9b5f855f80611432565b600160035f8373ffffffffffffffffffffffffffffffffffffffff1673ffffffffffffffffffffffffffffffffffffffff1681526020019081526020015f205f82825403925050819055505b5f73ffffffffffffffffffffffffffffffffffffffff168573ffffffffffffffffffffffffffffffffffffffff1614610f6657600160035f8773ffffffffffffffffffffffffffffffffffffffff1673ffffffffffffffffffffffffffffffffffffffff1681526020019081526020015f205f82825401925050819055505b8460025f8681526020019081526020015f205f6101000a81548173ffffffffffffffffffffffffffffffffffffffff021916908373ffffffffffffffffffffffffffffffffffffffff160217905550838573ffffffffffffffffffffffffffffffffffffffff168273ffffffffffffffffffffffffffffffffffffffff167fddf252ad1be2c89b69c2b068fc378daa952ba7f163c4a11628f55a4df523b3ef60405160405180910390a4809150509392505050565b5f60065f9054906101000a900473ffffffffffffffffffffffffffffffffffffffff1690508160065f6101000a81548173ffffffffffffffffffffffffffffffffffffffff021916908373ffffffffffffffffffffffffffffffffffffffff1602179055508173ffffffffffffffffffffffffffffffffffffffff168173ffffffffffffffffffffffffffffffffffffffff167f8be0079c531659141344cd1fd0a4f28419497f9722a3daafe3b4186f6b6457e060405160405180910390a35050565b5f73ffffffffffffffffffffffffffffffffffffffff168273ffffffffffffffffffffffffffffffffffffffff160361114e57816040517f5b08ba18000000000000000000000000000000000000000000000000000000008152600401611145919061197f565b60405180910390fd5b8060055f8573ffffffffffffffffffffffffffffffffffffffff1673ffffffffffffffffffffffffffffffffffffffff1681526020019081526020015f205f8473ffffffffffffffffffffffffffffffffffffffff1673ffffffffffffffffffffffffffffffffffffffff1681526020019081526020015f205f6101000a81548160ff0219169083151502179055508173ffffffffffffffffffffffffffffffffffffffff168373ffffffffffffffffffffffffffffffffffffffff167f17307eab39ab6107e8899845ad3d59bd9653f200f220920489ca2b5937696c318360405161123a919061181f565b60405180910390a3505050565b5f8373ffffffffffffffffffffffffffffffffffffffff163b11156113f3578273ffffffffffffffffffffffffffffffffffffffff1663150b7a0261128a610c7d565b8685856040518563ffffffff1660e01b81526004016112ac9493929190612279565b6020604051808303815f875af19250505080156112e757506040513d601f19601f820116820180604052508101906112e491906122d7565b60015b611368573d805f8114611315576040519150601f19603f3d011682016040523d82523d5f602084013e61131a565b606091505b505f81510361136057836040517f64a0ae92000000000000000000000000000000000000000000000000000000008152600401611357919061197f565b60405180910390fd5b805181602001fd5b63150b7a0260e01b7bffffffffffffffffffffffffffffffffffffffffffffffffffffffff1916817bffffffffffffffffffffffffffffffffffffffffffffffffffffffff1916146113f157836040517f64a0ae920000000000000000000000000000000000000000000000000000000081526004016113e8919061197f565b60405180910390fd5b505b50505050565b5f60025f8381526020019081526020015f205f9054906101000a900473ffffffffffffffffffffffffffffffffffffffff169050919050565b808061146a57505f73ffffffffffffffffffffffffffffffffffffffff168273ffffffffffffffffffffffffffffffffffffffff1614155b1561159c575f61147984610bbe565b90505f73ffffffffffffffffffffffffffffffffffffffff168373ffffffffffffffffffffffffffffffffffffffff16141580156114e357508273ffffffffffffffffffffffffffffffffffffffff168173ffffffffffffffffffffffffffffffffffffffff1614155b80156114f657506114f48184610a43565b155b1561153857826040517fa9fbf51f00000000000000000000000000000000000000000000000000000000815260040161152f919061197f565b60405180910390fd5b811561159a57838573ffffffffffffffffffffffffffffffffffffffff168273ffffffffffffffffffffffffffffffffffffffff167f8c5be1e5ebec7d5bd14f71427d1e84f3dd0314c0f7b2291e5b200ac8c7c3b92560405160405180910390a45b505b8360045f8581526020019081526020015f205f6101000a81548173ffffffffffffffffffffffffffffffffffffffff021916908373ffffffffffffffffffffffffffffffffffffffff16021790555050505050565b6115fc8383836116b4565b6116af575f73ffffffffffffffffffffffffffffffffffffffff168373ffffffffffffffffffffffffffffffffffffffff160361167057806040517f7e2732890000000000000000000000000000000000000000000000000000000081526004016116679190611c22565b60405180910390fd5b81816040517f177e802f0000000000000000000000000000000000000000000000000000000081526004016116a6929190612302565b60405180910390fd5b505050565b5f8073ffffffffffffffffffffffffffffffffffffffff168373ffffffffffffffffffffffffffffffffffffffff161415801561176b57508273ffffffffffffffffffffffffffffffffffffffff168473ffffffffffffffffffffffffffffffffffffffff16148061172c575061172b8484610a43565b5b8061176a57508273ffffffffffffffffffffffffffffffffffffffff1661175283610c44565b73ffffffffffffffffffffffffffffffffffffffff16145b5b90509392505050565b5f604051905090565b5f80fd5b5f80fd5b5f7fffffffff0000000000000000000000000000000000000000000000000000000082169050919050565b6117b981611785565b81146117c3575f80fd5b50565b5f813590506117d4816117b0565b92915050565b5f602082840312156117ef576117ee61177d565b5b5f6117fc848285016117c6565b91505092915050565b5f8115159050919050565b61181981611805565b82525050565b5f6020820190506118325f830184611810565b92915050565b5f81519050919050565b5f82825260208201905092915050565b5f5b8381101561186f578082015181840152602081019050611854565b5f8484015250505050565b5f601f19601f8301169050919050565b5f61189482611838565b61189e8185611842565b93506118ae818560208601611852565b6118b78161187a565b840191505092915050565b5f6020820190508181035f8301526118da818461188a565b905092915050565b5f819050919050565b6118f4816118e2565b81146118fe575f80fd5b50565b5f8135905061190f816118eb565b92915050565b5f6020828403121561192a5761192961177d565b5b5f61193784828501611901565b91505092915050565b5f73ffffffffffffffffffffffffffffffffffffffff82169050919050565b5f61196982611940565b9050919050565b6119798161195f565b82525050565b5f6020820190506119925f830184611970565b92915050565b6119a18161195f565b81146119ab575f80fd5b50565b5f813590506119bc81611998565b92915050565b5f80604083850312156119d8576119d761177d565b5b5f6119e5858286016119ae565b92505060206119f685828601611901565b9150509250929050565b5f80fd5b5f80fd5b7f4e487b71000000000000000000000000000000000000000000000000000000005f52604160045260245ffd5b611a3e8261187a565b810181811067ffffffffffffffff82111715611a5d57611a5c611a08565b5b80604052505050565b5f611a6f611774565b9050611a7b8282611a35565b919050565b5f67ffffffffffffffff821115611a9a57611a99611a08565b5b611aa38261187a565b9050602081019050919050565b828183375f83830152505050565b5f611ad0611acb84611a80565b611a66565b905082815260208101848484011115611aec57611aeb611a04565b5b611af7848285611ab0565b509392505050565b5f82601f830112611b1357611b12611a00565b5b8135611b23848260208601611abe565b91505092915050565b5f805f60608486031215611b4357611b4261177d565b5b5f611b50868287016119ae565b9350506020611b6186828701611901565b925050604084013567ffffffffffffffff811115611b8257611b81611781565b5b611b8e86828701611aff565b9150509250925092565b5f805f60608486031215611baf57611bae61177d565b5b5f611bbc868287016119ae565b9350506020611bcd868287016119ae565b9250506040611bde86828701611901565b9150509250925092565b5f60208284031215611bfd57611bfc61177d565b5b5f611c0a848285016119ae565b91505092915050565b611c1c816118e2565b82525050565b5f602082019050611c355f830184611c13565b92915050565b5f8060408385031215611c5157611c5061177d565b5b5f611c5e85828601611901565b925050602083013567ffffffffffffffff811115611c7f57611c7e611781565b5b611c8b85828601611aff565b9150509250929050565b611c9e81611805565b8114611ca8575f80fd5b50565b5f81359050611cb981611c95565b92915050565b5f8060408385031215611cd557611cd461177d565b5b5f611ce2858286016119ae565b9250506020611cf385828601611cab565b9150509250929050565b5f67ffffffffffffffff821115611d1757611d16611a08565b5b611d208261187a565b9050602081019050919050565b5f611d3f611d3a84611cfd565b611a66565b905082815260208101848484011115611d5b57611d5a611a04565b5b611d66848285611ab0565b509392505050565b5f82601f830112611d8257611d81611a00565b5b8135611d92848260208601611d2d565b91505092915050565b5f805f8060808587031215611db357611db261177d565b5b5f611dc0878288016119ae565b9450506020611dd1878288016119ae565b9350506040611de287828801611901565b925050606085013567ffffffffffffffff811115611e0357611e02611781565b5b611e0f87828801611d6e565b91505092959194509250565b5f8060408385031215611e3157611e3061177d565b5b5f611e3e858286016119ae565b9250506020611e4f858286016119ae565b9150509250929050565b7f4e487b71000000000000000000000000000000000000000000000000000000005f52602260045260245ffd5b5f6002820490506001821680611e9d57607f821691505b602082108103611eb057611eaf611e59565b5b50919050565b7f546f6b656e20494420616c7265616479206578697374730000000000000000005f82015250565b5f611eea601783611842565b9150611ef582611eb6565b602082019050919050565b5f6020820190508181035f830152611f1781611ede565b9050919050565b5f819050815f5260205f209050919050565b5f6020601f8301049050919050565b5f82821b905092915050565b5f60088302611f7a7fffffffffffffffffffffffffffffffffffffffffffffffffffffffffffffffff82611f3f565b611f848683611f3f565b95508019841693508086168417925050509392505050565b5f819050919050565b5f611fbf611fba611fb5846118e2565b611f9c565b6118e2565b9050919050565b5f819050919050565b611fd883611fa5565b611fec611fe482611fc6565b848454611f4b565b825550505050565b5f90565b612000611ff4565b61200b818484611fcf565b505050565b5b8181101561202e576120235f82611ff8565b600181019050612011565b5050565b601f8211156120735761204481611f1e565b61204d84611f30565b8101602085101561205c578190505b61207061206885611f30565b830182612010565b50505b505050565b5f82821c905092915050565b5f6120935f1984600802612078565b1980831691505092915050565b5f6120ab8383612084565b9150826002028217905092915050565b6120c482611838565b67ffffffffffffffff8111156120dd576120dc611a08565b5b6120e78254611e86565b6120f2828285612032565b5f60209050601f831160018114612123575f8415612111578287015190505b61211b85826120a0565b865550612182565b601f19841661213186611f1e565b5f5b8281101561215857848901518255600182019150602085019450602081019050612133565b868310156121755784890151612171601f891682612084565b8355505b6001600288020188555050505b505050505050565b5f60608201905061219d5f830186611970565b6121aa6020830185611c13565b6121b76040830184611970565b949350505050565b7f546f6b656e20646f6573206e6f742065786973740000000000000000000000005f82015250565b5f6121f3601483611842565b91506121fe826121bf565b602082019050919050565b5f6020820190508181035f830152612220816121e7565b9050919050565b5f81519050919050565b5f82825260208201905092915050565b5f61224b82612227565b6122558185612231565b9350612265818560208601611852565b61226e8161187a565b840191505092915050565b5f60808201905061228c5f830187611970565b6122996020830186611970565b6122a66040830185611c13565b81810360608301526122b88184612241565b905095945050505050565b5f815190506122d1816117b0565b92915050565b5f602082840312156122ec576122eb61177d565b5b5f6122f9848285016122c3565b91505092915050565b5f6040820190506123155f830185611970565b6123226020830184611c13565b939250505056fea26469706673582212209617e4ac4e6ccf1a1847f4b91cf2dea6b8a3eaf11d19a2726baa76e8a6e6d80a64736f6c63430008140033",
					"opcodes": "PUSH1 0x80 PUSH1 0x40 MSTORE CALLVALUE DUP1 ISZERO PUSH3 0x10 JUMPI PUSH0 DUP1 REVERT JUMPDEST POP PUSH1 0x40 MLOAD PUSH3 0x2AE0 CODESIZE SUB DUP1 PUSH3 0x2AE0 DUP4 CODECOPY DUP2 DUP2 ADD PUSH1 0x40 MSTORE DUP2 ADD SWAP1 PUSH3 0x36 SWAP2 SWAP1 PUSH3 0x395 JUMP JUMPDEST DUP1 DUP4 DUP4 DUP2 PUSH0 SWAP1 DUP2 PUSH3 0x49 SWAP2 SWAP1 PUSH3 0x663 JUMP JUMPDEST POP DUP1 PUSH1 0x1 SWAP1 DUP2 PUSH3 0x5B SWAP2 SWAP1 PUSH3 0x663 JUMP JUMPDEST POP POP POP PUSH0 PUSH20 0xFFFFFFFFFFFFFFFFFFFFFFFFFFFFFFFFFFFFFFFF AND DUP2 PUSH20 0xFFFFFFFFFFFFFFFFFFFFFFFFFFFFFFFFFFFFFFFF AND SUB PUSH3 0xD1 JUMPI PUSH0 PUSH1 0x40 MLOAD PUSH32 0x1E4FBDF700000000000000000000000000000000000000000000000000000000 DUP2 MSTORE PUSH1 0x4 ADD PUSH3 0xC8 SWAP2 SWAP1 PUSH3 0x758 JUMP JUMPDEST PUSH1 0x40 MLOAD DUP1 SWAP2 SUB SWAP1 REVERT JUMPDEST PUSH3 0xE2 DUP2 PUSH3 0xEC PUSH1 0x20 SHL PUSH1 0x20 SHR JUMP JUMPDEST POP POP POP POP PUSH3 0x773 JUMP JUMPDEST PUSH0 PUSH1 0x6 PUSH0 SWAP1 SLOAD SWAP1 PUSH2 0x100 EXP SWAP1 DIV PUSH20 0xFFFFFFFFFFFFFFFFFFFFFFFFFFFFFFFFFFFFFFFF AND SWAP1 POP DUP2 PUSH1 0x6 PUSH0 PUSH2 0x100 EXP DUP2 SLOAD DUP2 PUSH20 0xFFFFFFFFFFFFFFFFFFFFFFFFFFFFFFFFFFFFFFFF MUL NOT AND SWAP1 DUP4 PUSH20 0xFFFFFFFFFFFFFFFFFFFFFFFFFFFFFFFFFFFFFFFF AND MUL OR SWAP1 SSTORE POP DUP2 PUSH20 0xFFFFFFFFFFFFFFFFFFFFFFFFFFFFFFFFFFFFFFFF AND DUP2 PUSH20 0xFFFFFFFFFFFFFFFFFFFFFFFFFFFFFFFFFFFFFFFF AND PUSH32 0x8BE0079C531659141344CD1FD0A4F28419497F9722A3DAAFE3B4186F6B6457E0 PUSH1 0x40 MLOAD PUSH1 0x40 MLOAD DUP1 SWAP2 SUB SWAP1 LOG3 POP POP JUMP JUMPDEST PUSH0 PUSH1 0x40 MLOAD SWAP1 POP SWAP1 JUMP JUMPDEST PUSH0 DUP1 REVERT JUMPDEST PUSH0 DUP1 REVERT JUMPDEST PUSH0 DUP1 REVERT JUMPDEST PUSH0 DUP1 REVERT JUMPDEST PUSH0 PUSH1 0x1F NOT PUSH1 0x1F DUP4 ADD AND SWAP1 POP SWAP2 SWAP1 POP JUMP JUMPDEST PUSH32 0x4E487B7100000000000000000000000000000000000000000000000000000000 PUSH0 MSTORE PUSH1 0x41 PUSH1 0x4 MSTORE PUSH1 0x24 PUSH0 REVERT JUMPDEST PUSH3 0x210 DUP3 PUSH3 0x1C8 JUMP JUMPDEST DUP2 ADD DUP2 DUP2 LT PUSH8 0xFFFFFFFFFFFFFFFF DUP3 GT OR ISZERO PUSH3 0x232 JUMPI PUSH3 0x231 PUSH3 0x1D8 JUMP JUMPDEST JUMPDEST DUP1 PUSH1 0x40 MSTORE POP POP POP JUMP JUMPDEST PUSH0 PUSH3 0x246 PUSH3 0x1AF JUMP JUMPDEST SWAP1 POP PUSH3 0x254 DUP3 DUP3 PUSH3 0x205 JUMP JUMPDEST SWAP2 SWAP1 POP JUMP JUMPDEST PUSH0 PUSH8 0xFFFFFFFFFFFFFFFF DUP3 GT ISZERO PUSH3 0x276 JUMPI PUSH3 0x275 PUSH3 0x1D8 JUMP JUMPDEST JUMPDEST PUSH3 0x281 DUP3 PUSH3 0x1C8 JUMP JUMPDEST SWAP1 POP PUSH1 0x20 DUP2 ADD SWAP1 POP SWAP2 SWAP1 POP JUMP JUMPDEST PUSH0 JUMPDEST DUP4 DUP2 LT ISZERO PUSH3 0x2AD JUMPI DUP1 DUP3 ADD MLOAD DUP2 DUP5 ADD MSTORE PUSH1 0x20 DUP2 ADD SWAP1 POP PUSH3 0x290 JUMP JUMPDEST PUSH0 DUP5 DUP5 ADD MSTORE POP POP POP POP JUMP JUMPDEST PUSH0 PUSH3 0x2CE PUSH3 0x2C8 DUP5 PUSH3 0x259 JUMP JUMPDEST PUSH3 0x23B JUMP JUMPDEST SWAP1 POP DUP3 DUP2 MSTORE PUSH1 0x20 DUP2 ADD DUP5 DUP5 DUP5 ADD GT ISZERO PUSH3 0x2ED JUMPI PUSH3 0x2EC PUSH3 0x1C4 JUMP JUMPDEST JUMPDEST PUSH3 0x2FA DUP5 DUP3 DUP6 PUSH3 0x28E JUMP JUMPDEST POP SWAP4 SWAP3 POP POP POP JUMP JUMPDEST PUSH0 DUP3 PUSH1 0x1F DUP4 ADD SLT PUSH3 0x319 JUMPI PUSH3 0x318 PUSH3 0x1C0 JUMP JUMPDEST JUMPDEST DUP2 MLOAD PUSH3 0x32B DUP5 DUP3 PUSH1 0x20 DUP7 ADD PUSH3 0x2B8 JUMP JUMPDEST SWAP2 POP POP SWAP3 SWAP2 POP POP JUMP JUMPDEST PUSH0 PUSH20 0xFFFFFFFFFFFFFFFFFFFFFFFFFFFFFFFFFFFFFFFF DUP3 AND SWAP1 POP SWAP2 SWAP1 POP JUMP JUMPDEST PUSH0 PUSH3 0x35F DUP3 PUSH3 0x334 JUMP JUMPDEST SWAP1 POP SWAP2 SWAP1 POP JUMP JUMPDEST PUSH3 0x371 DUP2 PUSH3 0x353 JUMP JUMPDEST DUP2 EQ PUSH3 0x37C JUMPI PUSH0 DUP1 REVERT JUMPDEST POP JUMP JUMPDEST PUSH0 DUP2 MLOAD SWAP1 POP PUSH3 0x38F DUP2 PUSH3 0x366 JUMP JUMPDEST SWAP3 SWAP2 POP POP JUMP JUMPDEST PUSH0 DUP1 PUSH0 PUSH1 0x60 DUP5 DUP7 SUB SLT ISZERO PUSH3 0x3AF JUMPI PUSH3 0x3AE PUSH3 0x1B8 JUMP JUMPDEST JUMPDEST PUSH0 DUP5 ADD MLOAD PUSH8 0xFFFFFFFFFFFFFFFF DUP2 GT ISZERO PUSH3 0x3CF JUMPI PUSH3 0x3CE PUSH3 0x1BC JUMP JUMPDEST JUMPDEST PUSH3 0x3DD DUP7 DUP3 DUP8 ADD PUSH3 0x302 JUMP JUMPDEST SWAP4 POP POP PUSH1 0x20 DUP5 ADD MLOAD PUSH8 0xFFFFFFFFFFFFFFFF DUP2 GT ISZERO PUSH3 0x401 JUMPI PUSH3 0x400 PUSH3 0x1BC JUMP JUMPDEST JUMPDEST PUSH3 0x40F DUP7 DUP3 DUP8 ADD PUSH3 0x302 JUMP JUMPDEST SWAP3 POP POP PUSH1 0x40 PUSH3 0x422 DUP7 DUP3 DUP8 ADD PUSH3 0x37F JUMP JUMPDEST SWAP2 POP POP SWAP3 POP SWAP3 POP SWAP3 JUMP JUMPDEST PUSH0 DUP2 MLOAD SWAP1 POP SWAP2 SWAP1 POP JUMP JUMPDEST PUSH32 0x4E487B7100000000000000000000000000000000000000000000000000000000 PUSH0 MSTORE PUSH1 0x22 PUSH1 0x4 MSTORE PUSH1 0x24 PUSH0 REVERT JUMPDEST PUSH0 PUSH1 0x2 DUP3 DIV SWAP1 POP PUSH1 0x1 DUP3 AND DUP1 PUSH3 0x47B JUMPI PUSH1 0x7F DUP3 AND SWAP2 POP JUMPDEST PUSH1 0x20 DUP3 LT DUP2 SUB PUSH3 0x491 JUMPI PUSH3 0x490 PUSH3 0x436 JUMP JUMPDEST JUMPDEST POP SWAP2 SWAP1 POP JUMP JUMPDEST PUSH0 DUP2 SWAP1 POP DUP2 PUSH0 MSTORE PUSH1 0x20 PUSH0 KECCAK256 SWAP1 POP SWAP2 SWAP1 POP JUMP JUMPDEST PUSH0 PUSH1 0x20 PUSH1 0x1F DUP4 ADD DIV SWAP1 POP SWAP2 SWAP1 POP JUMP JUMPDEST PUSH0 DUP3 DUP3 SHL SWAP1 POP SWAP3 SWAP2 POP POP JUMP JUMPDEST PUSH0 PUSH1 0x8 DUP4 MUL PUSH3 0x4F5 PUSH32 0xFFFFFFFFFFFFFFFFFFFFFFFFFFFFFFFFFFFFFFFFFFFFFFFFFFFFFFFFFFFFFFFF DUP3 PUSH3 0x4B8 JUMP JUMPDEST PUSH3 0x501 DUP7 DUP4 PUSH3 0x4B8 JUMP JUMPDEST SWAP6 POP DUP1 NOT DUP5 AND SWAP4 POP DUP1 DUP7 AND DUP5 OR SWAP3 POP POP POP SWAP4 SWAP3 POP POP POP JUMP JUMPDEST PUSH0 DUP2 SWAP1 POP SWAP2 SWAP1 POP JUMP JUMPDEST PUSH0 DUP2 SWAP1 POP SWAP2 SWAP1 POP JUMP JUMPDEST PUSH0 PUSH3 0x54B PUSH3 0x545 PUSH3 0x53F DUP5 PUSH3 0x519 JUMP JUMPDEST PUSH3 0x522 JUMP JUMPDEST PUSH3 0x519 JUMP JUMPDEST SWAP1 POP SWAP2 SWAP1 POP JUMP JUMPDEST PUSH0 DUP2 SWAP1 POP SWAP2 SWAP1 POP JUMP JUMPDEST PUSH3 0x566 DUP4 PUSH3 0x52B JUMP JUMPDEST PUSH3 0x57E PUSH3 0x575 DUP3 PUSH3 0x552 JUMP JUMPDEST DUP5 DUP5 SLOAD PUSH3 0x4C4 JUMP JUMPDEST DUP3 SSTORE POP POP POP POP JUMP JUMPDEST PUSH0 SWAP1 JUMP JUMPDEST PUSH3 0x594 PUSH3 0x586 JUMP JUMPDEST PUSH3 0x5A1 DUP2 DUP5 DUP5 PUSH3 0x55B JUMP JUMPDEST POP POP POP JUMP JUMPDEST JUMPDEST DUP2 DUP2 LT ISZERO PUSH3 0x5C8 JUMPI PUSH3 0x5BC PUSH0 DUP3 PUSH3 0x58A JUMP JUMPDEST PUSH1 0x1 DUP2 ADD SWAP1 POP PUSH3 0x5A7 JUMP JUMPDEST POP POP JUMP JUMPDEST PUSH1 0x1F DUP3 GT ISZERO PUSH3 0x617 JUMPI PUSH3 0x5E1 DUP2 PUSH3 0x497 JUMP JUMPDEST PUSH3 0x5EC DUP5 PUSH3 0x4A9 JUMP JUMPDEST DUP2 ADD PUSH1 0x20 DUP6 LT ISZERO PUSH3 0x5FC JUMPI DUP2 SWAP1 POP JUMPDEST PUSH3 0x614 PUSH3 0x60B DUP6 PUSH3 0x4A9 JUMP JUMPDEST DUP4 ADD DUP3 PUSH3 0x5A6 JUMP JUMPDEST POP POP JUMPDEST POP POP POP JUMP JUMPDEST PUSH0 DUP3 DUP3 SHR SWAP1 POP SWAP3 SWAP2 POP POP JUMP JUMPDEST PUSH0 PUSH3 0x639 PUSH0 NOT DUP5 PUSH1 0x8 MUL PUSH3 0x61C JUMP JUMPDEST NOT DUP1 DUP4 AND SWAP2 POP POP SWAP3 SWAP2 POP POP JUMP JUMPDEST PUSH0 PUSH3 0x653 DUP4 DUP4 PUSH3 0x628 JUMP JUMPDEST SWAP2 POP DUP3 PUSH1 0x2 MUL DUP3 OR SWAP1 POP SWAP3 SWAP2 POP POP JUMP JUMPDEST PUSH3 0x66E DUP3 PUSH3 0x42C JUMP JUMPDEST PUSH8 0xFFFFFFFFFFFFFFFF DUP2 GT ISZERO PUSH3 0x68A JUMPI PUSH3 0x689 PUSH3 0x1D8 JUMP JUMPDEST JUMPDEST PUSH3 0x696 DUP3 SLOAD PUSH3 0x463 JUMP JUMPDEST PUSH3 0x6A3 DUP3 DUP3 DUP6 PUSH3 0x5CC JUMP JUMPDEST PUSH0 PUSH1 0x20 SWAP1 POP PUSH1 0x1F DUP4 GT PUSH1 0x1 DUP2 EQ PUSH3 0x6D9 JUMPI PUSH0 DUP5 ISZERO PUSH3 0x6C4 JUMPI DUP3 DUP8 ADD MLOAD SWAP1 POP JUMPDEST PUSH3 0x6D0 DUP6 DUP3 PUSH3 0x646 JUMP JUMPDEST DUP7 SSTORE POP PUSH3 0x73F JUMP JUMPDEST PUSH1 0x1F NOT DUP5 AND PUSH3 0x6E9 DUP7 PUSH3 0x497 JUMP JUMPDEST PUSH0 JUMPDEST DUP3 DUP2 LT ISZERO PUSH3 0x712 JUMPI DUP5 DUP10 ADD MLOAD DUP3 SSTORE PUSH1 0x1 DUP3 ADD SWAP2 POP PUSH1 0x20 DUP6 ADD SWAP5 POP PUSH1 0x20 DUP2 ADD SWAP1 POP PUSH3 0x6EB JUMP JUMPDEST DUP7 DUP4 LT ISZERO PUSH3 0x732 JUMPI DUP5 DUP10 ADD MLOAD PUSH3 0x72E PUSH1 0x1F DUP10 AND DUP3 PUSH3 0x628 JUMP JUMPDEST DUP4 SSTORE POP JUMPDEST PUSH1 0x1 PUSH1 0x2 DUP9 MUL ADD DUP9 SSTORE POP POP POP JUMPDEST POP POP POP POP POP POP JUMP JUMPDEST PUSH3 0x752 DUP2 PUSH3 0x353 JUMP JUMPDEST DUP3 MSTORE POP POP JUMP JUMPDEST PUSH0 PUSH1 0x20 DUP3 ADD SWAP1 POP PUSH3 0x76D PUSH0 DUP4 ADD DUP5 PUSH3 0x747 JUMP JUMPDEST SWAP3 SWAP2 POP POP JUMP JUMPDEST PUSH2 0x235F DUP1 PUSH3 0x781 PUSH0 CODECOPY PUSH0 RETURN INVALID PUSH1 0x80 PUSH1 0x40 MSTORE CALLVALUE DUP1 ISZERO PUSH2 0xF JUMPI PUSH0 DUP1 REVERT JUMPDEST POP PUSH1 0x4 CALLDATASIZE LT PUSH2 0x114 JUMPI PUSH0 CALLDATALOAD PUSH1 0xE0 SHR DUP1 PUSH4 0x715018A6 GT PUSH2 0xA0 JUMPI DUP1 PUSH4 0xA22CB465 GT PUSH2 0x6F JUMPI DUP1 PUSH4 0xA22CB465 EQ PUSH2 0x2C8 JUMPI DUP1 PUSH4 0xB88D4FDE EQ PUSH2 0x2E4 JUMPI DUP1 PUSH4 0xC87B56DD EQ PUSH2 0x300 JUMPI DUP1 PUSH4 0xE985E9C5 EQ PUSH2 0x330 JUMPI DUP1 PUSH4 0xF2FDE38B EQ PUSH2 0x360 JUMPI PUSH2 0x114 JUMP JUMPDEST DUP1 PUSH4 0x715018A6 EQ PUSH2 0x266 JUMPI DUP1 PUSH4 0x7A490FE1 EQ PUSH2 0x270 JUMPI DUP1 PUSH4 0x8DA5CB5B EQ PUSH2 0x28C JUMPI DUP1 PUSH4 0x95D89B41 EQ PUSH2 0x2AA JUMPI PUSH2 0x114 JUMP JUMPDEST DUP1 PUSH4 0xCE51F56 GT PUSH2 0xE7 JUMPI DUP1 PUSH4 0xCE51F56 EQ PUSH2 0x1B2 JUMPI DUP1 PUSH4 0x23B872DD EQ PUSH2 0x1CE JUMPI DUP1 PUSH4 0x42842E0E EQ PUSH2 0x1EA JUMPI DUP1 PUSH4 0x6352211E EQ PUSH2 0x206 JUMPI DUP1 PUSH4 0x70A08231 EQ PUSH2 0x236 JUMPI PUSH2 0x114 JUMP JUMPDEST DUP1 PUSH4 0x1FFC9A7 EQ PUSH2 0x118 JUMPI DUP1 PUSH4 0x6FDDE03 EQ PUSH2 0x148 JUMPI DUP1 PUSH4 0x81812FC EQ PUSH2 0x166 JUMPI DUP1 PUSH4 0x95EA7B3 EQ PUSH2 0x196 JUMPI JUMPDEST PUSH0 DUP1 REVERT JUMPDEST PUSH2 0x132 PUSH1 0x4 DUP1 CALLDATASIZE SUB DUP2 ADD SWAP1 PUSH2 0x12D SWAP2 SWAP1 PUSH2 0x17DA JUMP JUMPDEST PUSH2 0x37C JUMP JUMPDEST PUSH1 0x40 MLOAD PUSH2 0x13F SWAP2 SWAP1 PUSH2 0x181F JUMP JUMPDEST PUSH1 0x40 MLOAD DUP1 SWAP2 SUB SWAP1 RETURN JUMPDEST PUSH2 0x150 PUSH2 0x45D JUMP JUMPDEST PUSH1 0x40 MLOAD PUSH2 0x15D SWAP2 SWAP1 PUSH2 0x18C2 JUMP JUMPDEST PUSH1 0x40 MLOAD DUP1 SWAP2 SUB SWAP1 RETURN JUMPDEST PUSH2 0x180 PUSH1 0x4 DUP1 CALLDATASIZE SUB DUP2 ADD SWAP1 PUSH2 0x17B SWAP2 SWAP1 PUSH2 0x1915 JUMP JUMPDEST PUSH2 0x4EC JUMP JUMPDEST PUSH1 0x40 MLOAD PUSH2 0x18D SWAP2 SWAP1 PUSH2 0x197F JUMP JUMPDEST PUSH1 0x40 MLOAD DUP1 SWAP2 SUB SWAP1 RETURN JUMPDEST PUSH2 0x1B0 PUSH1 0x4 DUP1 CALLDATASIZE SUB DUP2 ADD SWAP1 PUSH2 0x1AB SWAP2 SWAP1 PUSH2 0x19C2 JUMP JUMPDEST PUSH2 0x507 JUMP JUMPDEST STOP JUMPDEST PUSH2 0x1CC PUSH1 0x4 DUP1 CALLDATASIZE SUB DUP2 ADD SWAP1 PUSH2 0x1C7 SWAP2 SWAP1 PUSH2 0x1B2C JUMP JUMPDEST PUSH2 0x51D JUMP JUMPDEST STOP JUMPDEST PUSH2 0x1E8 PUSH1 0x4 DUP1 CALLDATASIZE SUB DUP2 ADD SWAP1 PUSH2 0x1E3 SWAP2 SWAP1 PUSH2 0x1B98 JUMP JUMPDEST PUSH2 0x5DA JUMP JUMPDEST STOP JUMPDEST PUSH2 0x204 PUSH1 0x4 DUP1 CALLDATASIZE SUB DUP2 ADD SWAP1 PUSH2 0x1FF SWAP2 SWAP1 PUSH2 0x1B98 JUMP JUMPDEST PUSH2 0x6D9 JUMP JUMPDEST STOP JUMPDEST PUSH2 0x220 PUSH1 0x4 DUP1 CALLDATASIZE SUB DUP2 ADD SWAP1 PUSH2 0x21B SWAP2 SWAP1 PUSH2 0x1915 JUMP JUMPDEST PUSH2 0x6F8 JUMP JUMPDEST PUSH1 0x40 MLOAD PUSH2 0x22D SWAP2 SWAP1 PUSH2 0x197F JUMP JUMPDEST PUSH1 0x40 MLOAD DUP1 SWAP2 SUB SWAP1 RETURN JUMPDEST PUSH2 0x250 PUSH1 0x4 DUP1 CALLDATASIZE SUB DUP2 ADD SWAP1 PUSH2 0x24B SWAP2 SWAP1 PUSH2 0x1BE8 JUMP JUMPDEST PUSH2 0x709 JUMP JUMPDEST PUSH1 0x40 MLOAD PUSH2 0x25D SWAP2 SWAP1 PUSH2 0x1C22 JUMP JUMPDEST PUSH1 0x40 MLOAD DUP1 SWAP2 SUB SWAP1 RETURN JUMPDEST PUSH2 0x26E PUSH2 0x7BF JUMP JUMPDEST STOP JUMPDEST PUSH2 0x28A PUSH1 0x4 DUP1 CALLDATASIZE SUB DUP2 ADD SWAP1 PUSH2 0x285 SWAP2 SWAP1 PUSH2 0x1C3B JUMP JUMPDEST PUSH2 0x7D2 JUMP JUMPDEST STOP JUMPDEST PUSH2 0x294 PUSH2 0x85A JUMP JUMPDEST PUSH1 0x40 MLOAD PUSH2 0x2A1 SWAP2 SWAP1 PUSH2 0x197F JUMP JUMPDEST PUSH1 0x40 MLOAD DUP1 SWAP2 SUB SWAP1 RETURN JUMPDEST PUSH2 0x2B2 PUSH2 0x882 JUMP JUMPDEST PUSH1 0x40 MLOAD PUSH2 0x2BF SWAP2 SWAP1 PUSH2 0x18C2 JUMP JUMPDEST PUSH1 0x40 MLOAD DUP1 SWAP2 SUB SWAP1 RETURN JUMPDEST PUSH2 0x2E2 PUSH1 0x4 DUP1 CALLDATASIZE SUB DUP2 ADD SWAP1 PUSH2 0x2DD SWAP2 SWAP1 PUSH2 0x1CBF JUMP JUMPDEST PUSH2 0x912 JUMP JUMPDEST STOP JUMPDEST PUSH2 0x2FE PUSH1 0x4 DUP1 CALLDATASIZE SUB DUP2 ADD SWAP1 PUSH2 0x2F9 SWAP2 SWAP1 PUSH2 0x1D9B JUMP JUMPDEST PUSH2 0x928 JUMP JUMPDEST STOP JUMPDEST PUSH2 0x31A PUSH1 0x4 DUP1 CALLDATASIZE SUB DUP2 ADD SWAP1 PUSH2 0x315 SWAP2 SWAP1 PUSH2 0x1915 JUMP JUMPDEST PUSH2 0x945 JUMP JUMPDEST PUSH1 0x40 MLOAD PUSH2 0x327 SWAP2 SWAP1 PUSH2 0x18C2 JUMP JUMPDEST PUSH1 0x40 MLOAD DUP1 SWAP2 SUB SWAP1 RETURN JUMPDEST PUSH2 0x34A PUSH1 0x4 DUP1 CALLDATASIZE SUB DUP2 ADD SWAP1 PUSH2 0x345 SWAP2 SWAP1 PUSH2 0x1E1B JUMP JUMPDEST PUSH2 0xA43 JUMP JUMPDEST PUSH1 0x40 MLOAD PUSH2 0x357 SWAP2 SWAP1 PUSH2 0x181F JUMP JUMPDEST PUSH1 0x40 MLOAD DUP1 SWAP2 SUB SWAP1 RETURN JUMPDEST PUSH2 0x37A PUSH1 0x4 DUP1 CALLDATASIZE SUB DUP2 ADD SWAP1 PUSH2 0x375 SWAP2 SWAP1 PUSH2 0x1BE8 JUMP JUMPDEST PUSH2 0xAD1 JUMP JUMPDEST STOP JUMPDEST PUSH0 PUSH32 0x80AC58CD00000000000000000000000000000000000000000000000000000000 PUSH28 0xFFFFFFFFFFFFFFFFFFFFFFFFFFFFFFFFFFFFFFFFFFFFFFFFFFFFFFFF NOT AND DUP3 PUSH28 0xFFFFFFFFFFFFFFFFFFFFFFFFFFFFFFFFFFFFFFFFFFFFFFFFFFFFFFFF NOT AND EQ DUP1 PUSH2 0x446 JUMPI POP PUSH32 0x5B5E139F00000000000000000000000000000000000000000000000000000000 PUSH28 0xFFFFFFFFFFFFFFFFFFFFFFFFFFFFFFFFFFFFFFFFFFFFFFFFFFFFFFFF NOT AND DUP3 PUSH28 0xFFFFFFFFFFFFFFFFFFFFFFFFFFFFFFFFFFFFFFFFFFFFFFFFFFFFFFFF NOT AND EQ JUMPDEST DUP1 PUSH2 0x456 JUMPI POP PUSH2 0x455 DUP3 PUSH2 0xB55 JUMP JUMPDEST JUMPDEST SWAP1 POP SWAP2 SWAP1 POP JUMP JUMPDEST PUSH1 0x60 PUSH0 DUP1 SLOAD PUSH2 0x46B SWAP1 PUSH2 0x1E86 JUMP JUMPDEST DUP1 PUSH1 0x1F ADD PUSH1 0x20 DUP1 SWAP2 DIV MUL PUSH1 0x20 ADD PUSH1 0x40 MLOAD SWAP1 DUP2 ADD PUSH1 0x40 MSTORE DUP1 SWAP3 SWAP2 SWAP1 DUP2 DUP2 MSTORE PUSH1 0x20 ADD DUP3 DUP1 SLOAD PUSH2 0x497 SWAP1 PUSH2 0x1E86 JUMP JUMPDEST DUP1 ISZERO PUSH2 0x4E2 JUMPI DUP1 PUSH1 0x1F LT PUSH2 0x4B9 JUMPI PUSH2 0x100 DUP1 DUP4 SLOAD DIV MUL DUP4 MSTORE SWAP2 PUSH1 0x20 ADD SWAP2 PUSH2 0x4E2 JUMP JUMPDEST DUP3 ADD SWAP2 SWAP1 PUSH0 MSTORE PUSH1 0x20 PUSH0 KECCAK256 SWAP1 JUMPDEST DUP2 SLOAD DUP2 MSTORE SWAP1 PUSH1 0x1 ADD SWAP1 PUSH1 0x20 ADD DUP1 DUP4 GT PUSH2 0x4C5 JUMPI DUP3 SWAP1 SUB PUSH1 0x1F AND DUP3 ADD SWAP2 JUMPDEST POP POP POP POP POP SWAP1 POP SWAP1 JUMP JUMPDEST PUSH0 PUSH2 0x4F6 DUP3 PUSH2 0xBBE JUMP JUMPDEST POP PUSH2 0x500 DUP3 PUSH2 0xC44 JUMP JUMPDEST SWAP1 POP SWAP2 SWAP1 POP JUMP JUMPDEST PUSH2 0x519 DUP3 DUP3 PUSH2 0x514 PUSH2 0xC7D JUMP JUMPDEST PUSH2 0xC84 JUMP JUMPDEST POP POP JUMP JUMPDEST PUSH2 0x525 PUSH2 0xC96 JUMP JUMPDEST PUSH1 0x8 PUSH0 DUP4 DUP2 MSTORE PUSH1 0x20 ADD SWAP1 DUP2 MSTORE PUSH1 0x20 ADD PUSH0 KECCAK256 PUSH0 SWAP1 SLOAD SWAP1 PUSH2 0x100 EXP SWAP1 DIV PUSH1 0xFF AND ISZERO PUSH2 0x583 JUMPI PUSH1 0x40 MLOAD PUSH32 0x8C379A000000000000000000000000000000000000000000000000000000000 DUP2 MSTORE PUSH1 0x4 ADD PUSH2 0x57A SWAP1 PUSH2 0x1F00 JUMP JUMPDEST PUSH1 0x40 MLOAD DUP1 SWAP2 SUB SWAP1 REVERT JUMPDEST PUSH2 0x58D DUP4 DUP4 PUSH2 0xD1D JUMP JUMPDEST DUP1 PUSH1 0x7 PUSH0 DUP5 DUP2 MSTORE PUSH1 0x20 ADD SWAP1 DUP2 MSTORE PUSH1 0x20 ADD PUSH0 KECCAK256 SWAP1 DUP2 PUSH2 0x5AB SWAP2 SWAP1 PUSH2 0x20BB JUMP JUMPDEST POP PUSH1 0x1 PUSH1 0x8 PUSH0 DUP5 DUP2 MSTORE PUSH1 0x20 ADD SWAP1 DUP2 MSTORE PUSH1 0x20 ADD PUSH0 KECCAK256 PUSH0 PUSH2 0x100 EXP DUP2 SLOAD DUP2 PUSH1 0xFF MUL NOT AND SWAP1 DUP4 ISZERO ISZERO MUL OR SWAP1 SSTORE POP POP POP POP JUMP JUMPDEST PUSH0 PUSH20 0xFFFFFFFFFFFFFFFFFFFFFFFFFFFFFFFFFFFFFFFF AND DUP3 PUSH20 0xFFFFFFFFFFFFFFFFFFFFFFFFFFFFFFFFFFFFFFFF AND SUB PUSH2 0x64A JUMPI PUSH0 PUSH1 0x40 MLOAD PUSH32 0x64A0AE9200000000000000000000000000000000000000000000000000000000 DUP2 MSTORE PUSH1 0x4 ADD PUSH2 0x641 SWAP2 SWAP1 PUSH2 0x197F JUMP JUMPDEST PUSH1 0x40 MLOAD DUP1 SWAP2 SUB SWAP1 REVERT JUMPDEST PUSH0 PUSH2 0x65D DUP4 DUP4 PUSH2 0x658 PUSH2 0xC7D JUMP JUMPDEST PUSH2 0xE10 JUMP JUMPDEST SWAP1 POP DUP4 PUSH20 0xFFFFFFFFFFFFFFFFFFFFFFFFFFFFFFFFFFFFFFFF AND DUP2 PUSH20 0xFFFFFFFFFFFFFFFFFFFFFFFFFFFFFFFFFFFFFFFF AND EQ PUSH2 0x6D3 JUMPI DUP4 DUP3 DUP3 PUSH1 0x40 MLOAD PUSH32 0x64283D7B00000000000000000000000000000000000000000000000000000000 DUP2 MSTORE PUSH1 0x4 ADD PUSH2 0x6CA SWAP4 SWAP3 SWAP2 SWAP1 PUSH2 0x218A JUMP JUMPDEST PUSH1 0x40 MLOAD DUP1 SWAP2 SUB SWAP1 REVERT JUMPDEST POP POP POP POP JUMP JUMPDEST PUSH2 0x6F3 DUP4 DUP4 DUP4 PUSH1 0x40 MLOAD DUP1 PUSH1 0x20 ADD PUSH1 0x40 MSTORE DUP1 PUSH0 DUP2 MSTORE POP PUSH2 0x928 JUMP JUMPDEST POP POP POP JUMP JUMPDEST PUSH0 PUSH2 0x702 DUP3 PUSH2 0xBBE JUMP JUMPDEST SWAP1 POP SWAP2 SWAP1 POP JUMP JUMPDEST PUSH0 DUP1 PUSH20 0xFFFFFFFFFFFFFFFFFFFFFFFFFFFFFFFFFFFFFFFF AND DUP3 PUSH20 0xFFFFFFFFFFFFFFFFFFFFFFFFFFFFFFFFFFFFFFFF AND SUB PUSH2 0x77A JUMPI PUSH0 PUSH1 0x40 MLOAD PUSH32 0x89C62B6400000000000000000000000000000000000000000000000000000000 DUP2 MSTORE PUSH1 0x4 ADD PUSH2 0x771 SWAP2 SWAP1 PUSH2 0x197F JUMP JUMPDEST PUSH1 0x40 MLOAD DUP1 SWAP2 SUB SWAP1 REVERT JUMPDEST PUSH1 0x3 PUSH0 DUP4 PUSH20 0xFFFFFFFFFFFFFFFFFFFFFFFFFFFFFFFFFFFFFFFF AND PUSH20 0xFFFFFFFFFFFFFFFFFFFFFFFFFFFFFFFFFFFFFFFF AND DUP2 MSTORE PUSH1 0x20 ADD SWAP1 DUP2 MSTORE PUSH1 0x20 ADD PUSH0 KECCAK256 SLOAD SWAP1 POP SWAP2 SWAP1 POP JUMP JUMPDEST PUSH2 0x7C7 PUSH2 0xC96 JUMP JUMPDEST PUSH2 0x7D0 PUSH0 PUSH2 0x101B JUMP JUMPDEST JUMP JUMPDEST PUSH2 0x7DA PUSH2 0xC96 JUMP JUMPDEST PUSH1 0x8 PUSH0 DUP4 DUP2 MSTORE PUSH1 0x20 ADD SWAP1 DUP2 MSTORE PUSH1 0x20 ADD PUSH0 KECCAK256 PUSH0 SWAP1 SLOAD SWAP1 PUSH2 0x100 EXP SWAP1 DIV PUSH1 0xFF AND PUSH2 0x837 JUMPI PUSH1 0x40 MLOAD PUSH32 0x8C379A000000000000000000000000000000000000000000000000000000000 DUP2 MSTORE PUSH1 0x4 ADD PUSH2 0x82E SWAP1 PUSH2 0x2209 JUMP JUMPDEST PUSH1 0x40 MLOAD DUP1 SWAP2 SUB SWAP1 REVERT JUMPDEST DUP1 PUSH1 0x7 PUSH0 DUP5 DUP2 MSTORE PUSH1 0x20 ADD SWAP1 DUP2 MSTORE PUSH1 0x20 ADD PUSH0 KECCAK256 SWAP1 DUP2 PUSH2 0x855 SWAP2 SWAP1 PUSH2 0x20BB JUMP JUMPDEST POP POP POP JUMP JUMPDEST PUSH0 PUSH1 0x6 PUSH0 SWAP1 SLOAD SWAP1 PUSH2 0x100 EXP SWAP1 DIV PUSH20 0xFFFFFFFFFFFFFFFFFFFFFFFFFFFFFFFFFFFFFFFF AND SWAP1 POP SWAP1 JUMP JUMPDEST PUSH1 0x60 PUSH1 0x1 DUP1 SLOAD PUSH2 0x891 SWAP1 PUSH2 0x1E86 JUMP JUMPDEST DUP1 PUSH1 0x1F ADD PUSH1 0x20 DUP1 SWAP2 DIV MUL PUSH1 0x20 ADD PUSH1 0x40 MLOAD SWAP1 DUP2 ADD PUSH1 0x40 MSTORE DUP1 SWAP3 SWAP2 SWAP1 DUP2 DUP2 MSTORE PUSH1 0x20 ADD DUP3 DUP1 SLOAD PUSH2 0x8BD SWAP1 PUSH2 0x1E86 JUMP JUMPDEST DUP1 ISZERO PUSH2 0x908 JUMPI DUP1 PUSH1 0x1F LT PUSH2 0x8DF JUMPI PUSH2 0x100 DUP1 DUP4 SLOAD DIV MUL DUP4 MSTORE SWAP2 PUSH1 0x20 ADD SWAP2 PUSH2 0x908 JUMP JUMPDEST DUP3 ADD SWAP2 SWAP1 PUSH0 MSTORE PUSH1 0x20 PUSH0 KECCAK256 SWAP1 JUMPDEST DUP2 SLOAD DUP2 MSTORE SWAP1 PUSH1 0x1 ADD SWAP1 PUSH1 0x20 ADD DUP1 DUP4 GT PUSH2 0x8EB JUMPI DUP3 SWAP1 SUB PUSH1 0x1F AND DUP3 ADD SWAP2 JUMPDEST POP POP POP POP POP SWAP1 POP SWAP1 JUMP JUMPDEST PUSH2 0x924 PUSH2 0x91D PUSH2 0xC7D JUMP JUMPDEST DUP4 DUP4 PUSH2 0x10DE JUMP JUMPDEST POP POP JUMP JUMPDEST PUSH2 0x933 DUP5 DUP5 DUP5 PUSH2 0x5DA JUMP JUMPDEST PUSH2 0x93F DUP5 DUP5 DUP5 DUP5 PUSH2 0x1247 JUMP JUMPDEST POP POP POP POP JUMP JUMPDEST PUSH1 0x60 PUSH1 0x8 PUSH0 DUP4 DUP2 MSTORE PUSH1 0x20 ADD SWAP1 DUP2 MSTORE PUSH1 0x20 ADD PUSH0 KECCAK256 PUSH0 SWAP1 SLOAD SWAP1 PUSH2 0x100 EXP SWAP1 DIV PUSH1 0xFF AND PUSH2 0x9A4 JUMPI PUSH1 0x40 MLOAD PUSH32 0x8C379A000000000000000000000000000000000000000000000000000000000 DUP2 MSTORE PUSH1 0x4 ADD PUSH2 0x99B SWAP1 PUSH2 0x2209 JUMP JUMPDEST PUSH1 0x40 MLOAD DUP1 SWAP2 SUB SWAP1 REVERT JUMPDEST PUSH1 0x7 PUSH0 DUP4 DUP2 MSTORE PUSH1 0x20 ADD SWAP1 DUP2 MSTORE PUSH1 0x20 ADD PUSH0 KECCAK256 DUP1 SLOAD PUSH2 0x9C0 SWAP1 PUSH2 0x1E86 JUMP JUMPDEST DUP1 PUSH1 0x1F ADD PUSH1 0x20 DUP1 SWAP2 DIV MUL PUSH1 0x20 ADD PUSH1 0x40 MLOAD SWAP1 DUP2 ADD PUSH1 0x40 MSTORE DUP1 SWAP3 SWAP2 SWAP1 DUP2 DUP2 MSTORE PUSH1 0x20 ADD DUP3 DUP1 SLOAD PUSH2 0x9EC SWAP1 PUSH2 0x1E86 JUMP JUMPDEST DUP1 ISZERO PUSH2 0xA37 JUMPI DUP1 PUSH1 0x1F LT PUSH2 0xA0E JUMPI PUSH2 0x100 DUP1 DUP4 SLOAD DIV MUL DUP4 MSTORE SWAP2 PUSH1 0x20 ADD SWAP2 PUSH2 0xA37 JUMP JUMPDEST DUP3 ADD SWAP2 SWAP1 PUSH0 MSTORE PUSH1 0x20 PUSH0 KECCAK256 SWAP1 JUMPDEST DUP2 SLOAD DUP2 MSTORE SWAP1 PUSH1 0x1 ADD SWAP1 PUSH1 0x20 ADD DUP1 DUP4 GT PUSH2 0xA1A JUMPI DUP3 SWAP1 SUB PUSH1 0x1F AND DUP3 ADD SWAP2 JUMPDEST POP POP POP POP POP SWAP1 POP SWAP2 SWAP1 POP JUMP JUMPDEST PUSH0 PUSH1 0x5 PUSH0 DUP5 PUSH20 0xFFFFFFFFFFFFFFFFFFFFFFFFFFFFFFFFFFFFFFFF AND PUSH20 0xFFFFFFFFFFFFFFFFFFFFFFFFFFFFFFFFFFFFFFFF AND DUP2 MSTORE PUSH1 0x20 ADD SWAP1 DUP2 MSTORE PUSH1 0x20 ADD PUSH0 KECCAK256 PUSH0 DUP4 PUSH20 0xFFFFFFFFFFFFFFFFFFFFFFFFFFFFFFFFFFFFFFFF AND PUSH20 0xFFFFFFFFFFFFFFFFFFFFFFFFFFFFFFFFFFFFFFFF AND DUP2 MSTORE PUSH1 0x20 ADD SWAP1 DUP2 MSTORE PUSH1 0x20 ADD PUSH0 KECCAK256 PUSH0 SWAP1 SLOAD SWAP1 PUSH2 0x100 EXP SWAP1 DIV PUSH1 0xFF AND SWAP1 POP SWAP3 SWAP2 POP POP JUMP JUMPDEST PUSH2 0xAD9 PUSH2 0xC96 JUMP JUMPDEST PUSH0 PUSH20 0xFFFFFFFFFFFFFFFFFFFFFFFFFFFFFFFFFFFFFFFF AND DUP2 PUSH20 0xFFFFFFFFFFFFFFFFFFFFFFFFFFFFFFFFFFFFFFFF AND SUB PUSH2 0xB49 JUMPI PUSH0 PUSH1 0x40 MLOAD PUSH32 0x1E4FBDF700000000000000000000000000000000000000000000000000000000 DUP2 MSTORE PUSH1 0x4 ADD PUSH2 0xB40 SWAP2 SWAP1 PUSH2 0x197F JUMP JUMPDEST PUSH1 0x40 MLOAD DUP1 SWAP2 SUB SWAP1 REVERT JUMPDEST PUSH2 0xB52 DUP2 PUSH2 0x101B JUMP JUMPDEST POP JUMP JUMPDEST PUSH0 PUSH32 0x1FFC9A700000000000000000000000000000000000000000000000000000000 PUSH28 0xFFFFFFFFFFFFFFFFFFFFFFFFFFFFFFFFFFFFFFFFFFFFFFFFFFFFFFFF NOT AND DUP3 PUSH28 0xFFFFFFFFFFFFFFFFFFFFFFFFFFFFFFFFFFFFFFFFFFFFFFFFFFFFFFFF NOT AND EQ SWAP1 POP SWAP2 SWAP1 POP JUMP JUMPDEST PUSH0 DUP1 PUSH2 0xBC9 DUP4 PUSH2 0x13F9 JUMP JUMPDEST SWAP1 POP PUSH0 PUSH20 0xFFFFFFFFFFFFFFFFFFFFFFFFFFFFFFFFFFFFFFFF AND DUP2 PUSH20 0xFFFFFFFFFFFFFFFFFFFFFFFFFFFFFFFFFFFFFFFF AND SUB PUSH2 0xC3B JUMPI DUP3 PUSH1 0x40 MLOAD PUSH32 0x7E27328900000000000000000000000000000000000000000000000000000000 DUP2 MSTORE PUSH1 0x4 ADD PUSH2 0xC32 SWAP2 SWAP1 PUSH2 0x1C22 JUMP JUMPDEST PUSH1 0x40 MLOAD DUP1 SWAP2 SUB SWAP1 REVERT JUMPDEST DUP1 SWAP2 POP POP SWAP2 SWAP1 POP JUMP JUMPDEST PUSH0 PUSH1 0x4 PUSH0 DUP4 DUP2 MSTORE PUSH1 0x20 ADD SWAP1 DUP2 MSTORE PUSH1 0x20 ADD PUSH0 KECCAK256 PUSH0 SWAP1 SLOAD SWAP1 PUSH2 0x100 EXP SWAP1 DIV PUSH20 0xFFFFFFFFFFFFFFFFFFFFFFFFFFFFFFFFFFFFFFFF AND SWAP1 POP SWAP2 SWAP1 POP JUMP JUMPDEST PUSH0 CALLER SWAP1 POP SWAP1 JUMP JUMPDEST PUSH2 0xC91 DUP4 DUP4 DUP4 PUSH1 0x1 PUSH2 0x1432 JUMP JUMPDEST POP POP POP JUMP JUMPDEST PUSH2 0xC9E PUSH2 0xC7D JUMP JUMPDEST PUSH20 0xFFFFFFFFFFFFFFFFFFFFFFFFFFFFFFFFFFFFFFFF AND PUSH2 0xCBC PUSH2 0x85A JUMP JUMPDEST PUSH20 0xFFFFFFFFFFFFFFFFFFFFFFFFFFFFFFFFFFFFFFFF AND EQ PUSH2 0xD1B JUMPI PUSH2 0xCDF PUSH2 0xC7D JUMP JUMPDEST PUSH1 0x40 MLOAD PUSH32 0x118CDAA700000000000000000000000000000000000000000000000000000000 DUP2 MSTORE PUSH1 0x4 ADD PUSH2 0xD12 SWAP2 SWAP1 PUSH2 0x197F JUMP JUMPDEST PUSH1 0x40 MLOAD DUP1 SWAP2 SUB SWAP1 REVERT JUMPDEST JUMP JUMPDEST PUSH0 PUSH20 0xFFFFFFFFFFFFFFFFFFFFFFFFFFFFFFFFFFFFFFFF AND DUP3 PUSH20 0xFFFFFFFFFFFFFFFFFFFFFFFFFFFFFFFFFFFFFFFF AND SUB PUSH2 0xD8D JUMPI PUSH0 PUSH1 0x40 MLOAD PUSH32 0x64A0AE9200000000000000000000000000000000000000000000000000000000 DUP2 MSTORE PUSH1 0x4 ADD PUSH2 0xD84 SWAP2 SWAP1 PUSH2 0x197F JUMP JUMPDEST PUSH1 0x40 MLOAD DUP1 SWAP2 SUB SWAP1 REVERT JUMPDEST PUSH0 PUSH2 0xD99 DUP4 DUP4 PUSH0 PUSH2 0xE10 JUMP JUMPDEST SWAP1 POP PUSH0 PUSH20 0xFFFFFFFFFFFFFFFFFFFFFFFFFFFFFFFFFFFFFFFF AND DUP2 PUSH20 0xFFFFFFFFFFFFFFFFFFFFFFFFFFFFFFFFFFFFFFFF AND EQ PUSH2 0xE0B JUMPI PUSH0 PUSH1 0x40 MLOAD PUSH32 0x73C6AC6E00000000000000000000000000000000000000000000000000000000 DUP2 MSTORE PUSH1 0x4 ADD PUSH2 0xE02 SWAP2 SWAP1 PUSH2 0x197F JUMP JUMPDEST PUSH1 0x40 MLOAD DUP1 SWAP2 SUB SWAP1 REVERT JUMPDEST POP POP POP JUMP JUMPDEST PUSH0 DUP1 PUSH2 0xE1B DUP5 PUSH2 0x13F9 JUMP JUMPDEST SWAP1 POP PUSH0 PUSH20 0xFFFFFFFFFFFFFFFFFFFFFFFFFFFFFFFFFFFFFFFF AND DUP4 PUSH20 0xFFFFFFFFFFFFFFFFFFFFFFFFFFFFFFFFFFFFFFFF AND EQ PUSH2 0xE5C JUMPI PUSH2 0xE5B DUP2 DUP5 DUP7 PUSH2 0x15F1 JUMP JUMPDEST JUMPDEST PUSH0 PUSH20 0xFFFFFFFFFFFFFFFFFFFFFFFFFFFFFFFFFFFFFFFF AND DUP2 PUSH20 0xFFFFFFFFFFFFFFFFFFFFFFFFFFFFFFFFFFFFFFFF AND EQ PUSH2 0xEE7 JUMPI PUSH2 0xE9B PUSH0 DUP6 PUSH0 DUP1 PUSH2 0x1432 JUMP JUMPDEST PUSH1 0x1 PUSH1 0x3 PUSH0 DUP4 PUSH20 0xFFFFFFFFFFFFFFFFFFFFFFFFFFFFFFFFFFFFFFFF AND PUSH20 0xFFFFFFFFFFFFFFFFFFFFFFFFFFFFFFFFFFFFFFFF AND DUP2 MSTORE PUSH1 0x20 ADD SWAP1 DUP2 MSTORE PUSH1 0x20 ADD PUSH0 KECCAK256 PUSH0 DUP3 DUP3 SLOAD SUB SWAP3 POP POP DUP2 SWAP1 SSTORE POP JUMPDEST PUSH0 PUSH20 0xFFFFFFFFFFFFFFFFFFFFFFFFFFFFFFFFFFFFFFFF AND DUP6 PUSH20 0xFFFFFFFFFFFFFFFFFFFFFFFFFFFFFFFFFFFFFFFF AND EQ PUSH2 0xF66 JUMPI PUSH1 0x1 PUSH1 0x3 PUSH0 DUP8 PUSH20 0xFFFFFFFFFFFFFFFFFFFFFFFFFFFFFFFFFFFFFFFF AND PUSH20 0xFFFFFFFFFFFFFFFFFFFFFFFFFFFFFFFFFFFFFFFF AND DUP2 MSTORE PUSH1 0x20 ADD SWAP1 DUP2 MSTORE PUSH1 0x20 ADD PUSH0 KECCAK256 PUSH0 DUP3 DUP3 SLOAD ADD SWAP3 POP POP DUP2 SWAP1 SSTORE POP JUMPDEST DUP5 PUSH1 0x2 PUSH0 DUP7 DUP2 MSTORE PUSH1 0x20 ADD SWAP1 DUP2 MSTORE PUSH1 0x20 ADD PUSH0 KECCAK256 PUSH0 PUSH2 0x100 EXP DUP2 SLOAD DUP2 PUSH20 0xFFFFFFFFFFFFFFFFFFFFFFFFFFFFFFFFFFFFFFFF MUL NOT AND SWAP1 DUP4 PUSH20 0xFFFFFFFFFFFFFFFFFFFFFFFFFFFFFFFFFFFFFFFF AND MUL OR SWAP1 SSTORE POP DUP4 DUP6 PUSH20 0xFFFFFFFFFFFFFFFFFFFFFFFFFFFFFFFFFFFFFFFF AND DUP3 PUSH20 0xFFFFFFFFFFFFFFFFFFFFFFFFFFFFFFFFFFFFFFFF AND PUSH32 0xDDF252AD1BE2C89B69C2B068FC378DAA952BA7F163C4A11628F55A4DF523B3EF PUSH1 0x40 MLOAD PUSH1 0x40 MLOAD DUP1 SWAP2 SUB SWAP1 LOG4 DUP1 SWAP2 POP POP SWAP4 SWAP3 POP POP POP JUMP JUMPDEST PUSH0 PUSH1 0x6 PUSH0 SWAP1 SLOAD SWAP1 PUSH2 0x100 EXP SWAP1 DIV PUSH20 0xFFFFFFFFFFFFFFFFFFFFFFFFFFFFFFFFFFFFFFFF AND SWAP1 POP DUP2 PUSH1 0x6 PUSH0 PUSH2 0x100 EXP DUP2 SLOAD DUP2 PUSH20 0xFFFFFFFFFFFFFFFFFFFFFFFFFFFFFFFFFFFFFFFF MUL NOT AND SWAP1 DUP4 PUSH20 0xFFFFFFFFFFFFFFFFFFFFFFFFFFFFFFFFFFFFFFFF AND MUL OR SWAP1 SSTORE POP DUP2 PUSH20 0xFFFFFFFFFFFFFFFFFFFFFFFFFFFFFFFFFFFFFFFF AND DUP2 PUSH20 0xFFFFFFFFFFFFFFFFFFFFFFFFFFFFFFFFFFFFFFFF AND PUSH32 0x8BE0079C531659141344CD1FD0A4F28419497F9722A3DAAFE3B4186F6B6457E0 PUSH1 0x40 MLOAD PUSH1 0x40 MLOAD DUP1 SWAP2 SUB SWAP1 LOG3 POP POP JUMP JUMPDEST PUSH0 PUSH20 0xFFFFFFFFFFFFFFFFFFFFFFFFFFFFFFFFFFFFFFFF AND DUP3 PUSH20 0xFFFFFFFFFFFFFFFFFFFFFFFFFFFFFFFFFFFFFFFF AND SUB PUSH2 0x114E JUMPI DUP2 PUSH1 0x40 MLOAD PUSH32 0x5B08BA1800000000000000000000000000000000000000000000000000000000 DUP2 MSTORE PUSH1 0x4 ADD PUSH2 0x1145 SWAP2 SWAP1 PUSH2 0x197F JUMP JUMPDEST PUSH1 0x40 MLOAD DUP1 SWAP2 SUB SWAP1 REVERT JUMPDEST DUP1 PUSH1 0x5 PUSH0 DUP6 PUSH20 0xFFFFFFFFFFFFFFFFFFFFFFFFFFFFFFFFFFFFFFFF AND PUSH20 0xFFFFFFFFFFFFFFFFFFFFFFFFFFFFFFFFFFFFFFFF AND DUP2 MSTORE PUSH1 0x20 ADD SWAP1 DUP2 MSTORE PUSH1 0x20 ADD PUSH0 KECCAK256 PUSH0 DUP5 PUSH20 0xFFFFFFFFFFFFFFFFFFFFFFFFFFFFFFFFFFFFFFFF AND PUSH20 0xFFFFFFFFFFFFFFFFFFFFFFFFFFFFFFFFFFFFFFFF AND DUP2 MSTORE PUSH1 0x20 ADD SWAP1 DUP2 MSTORE PUSH1 0x20 ADD PUSH0 KECCAK256 PUSH0 PUSH2 0x100 EXP DUP2 SLOAD DUP2 PUSH1 0xFF MUL NOT AND SWAP1 DUP4 ISZERO ISZERO MUL OR SWAP1 SSTORE POP DUP2 PUSH20 0xFFFFFFFFFFFFFFFFFFFFFFFFFFFFFFFFFFFFFFFF AND DUP4 PUSH20 0xFFFFFFFFFFFFFFFFFFFFFFFFFFFFFFFFFFFFFFFF AND PUSH32 0x17307EAB39AB6107E8899845AD3D59BD9653F200F220920489CA2B5937696C31 DUP4 PUSH1 0x40 MLOAD PUSH2 0x123A SWAP2 SWAP1 PUSH2 0x181F JUMP JUMPDEST PUSH1 0x40 MLOAD DUP1 SWAP2 SUB SWAP1 LOG3 POP POP POP JUMP JUMPDEST PUSH0 DUP4 PUSH20 0xFFFFFFFFFFFFFFFFFFFFFFFFFFFFFFFFFFFFFFFF AND EXTCODESIZE GT ISZERO PUSH2 0x13F3 JUMPI DUP3 PUSH20 0xFFFFFFFFFFFFFFFFFFFFFFFFFFFFFFFFFFFFFFFF AND PUSH4 0x150B7A02 PUSH2 0x128A PUSH2 0xC7D JUMP JUMPDEST DUP7 DUP6 DUP6 PUSH1 0x40 MLOAD DUP6 PUSH4 0xFFFFFFFF AND PUSH1 0xE0 SHL DUP2 MSTORE PUSH1 0x4 ADD PUSH2 0x12AC SWAP5 SWAP4 SWAP3 SWAP2 SWAP1 PUSH2 0x2279 JUMP JUMPDEST PUSH1 0x20 PUSH1 0x40 MLOAD DUP1 DUP4 SUB DUP2 PUSH0 DUP8 GAS CALL SWAP3 POP POP POP DUP1 ISZERO PUSH2 0x12E7 JUMPI POP PUSH1 0x40 MLOAD RETURNDATASIZE PUSH1 0x1F NOT PUSH1 0x1F DUP3 ADD AND DUP3 ADD DUP1 PUSH1 0x40 MSTORE POP DUP2 ADD SWAP1 PUSH2 0x12E4 SWAP2 SWAP1 PUSH2 0x22D7 JUMP JUMPDEST PUSH1 0x1 JUMPDEST PUSH2 0x1368 JUMPI RETURNDATASIZE DUP1 PUSH0 DUP2 EQ PUSH2 0x1315 JUMPI PUSH1 0x40 MLOAD SWAP2 POP PUSH1 0x1F NOT PUSH1 0x3F RETURNDATASIZE ADD AND DUP3 ADD PUSH1 0x40 MSTORE RETURNDATASIZE DUP3 MSTORE RETURNDATASIZE PUSH0 PUSH1 0x20 DUP5 ADD RETURNDATACOPY PUSH2 0x131A JUMP JUMPDEST PUSH1 0x60 SWAP2 POP JUMPDEST POP PUSH0 DUP2 MLOAD SUB PUSH2 0x1360 JUMPI DUP4 PUSH1 0x40 MLOAD PUSH32 0x64A0AE9200000000000000000000000000000000000000000000000000000000 DUP2 MSTORE PUSH1 0x4 ADD PUSH2 0x1357 SWAP2 SWAP1 PUSH2 0x197F JUMP JUMPDEST PUSH1 0x40 MLOAD DUP1 SWAP2 SUB SWAP1 REVERT JUMPDEST DUP1 MLOAD DUP2 PUSH1 0x20 ADD REVERT JUMPDEST PUSH4 0x150B7A02 PUSH1 0xE0 SHL PUSH28 0xFFFFFFFFFFFFFFFFFFFFFFFFFFFFFFFFFFFFFFFFFFFFFFFFFFFFFFFF NOT AND DUP2 PUSH28 0xFFFFFFFFFFFFFFFFFFFFFFFFFFFFFFFFFFFFFFFFFFFFFFFFFFFFFFFF NOT AND EQ PUSH2 0x13F1 JUMPI DUP4 PUSH1 0x40 MLOAD PUSH32 0x64A0AE9200000000000000000000000000000000000000000000000000000000 DUP2 MSTORE PUSH1 0x4 ADD PUSH2 0x13E8 SWAP2 SWAP1 PUSH2 0x197F JUMP JUMPDEST PUSH1 0x40 MLOAD DUP1 SWAP2 SUB SWAP1 REVERT JUMPDEST POP JUMPDEST POP POP POP POP JUMP JUMPDEST PUSH0 PUSH1 0x2 PUSH0 DUP4 DUP2 MSTORE PUSH1 0x20 ADD SWAP1 DUP2 MSTORE PUSH1 0x20 ADD PUSH0 KECCAK256 PUSH0 SWAP1 SLOAD SWAP1 PUSH2 0x100 EXP SWAP1 DIV PUSH20 0xFFFFFFFFFFFFFFFFFFFFFFFFFFFFFFFFFFFFFFFF AND SWAP1 POP SWAP2 SWAP1 POP JUMP JUMPDEST DUP1 DUP1 PUSH2 0x146A JUMPI POP PUSH0 PUSH20 0xFFFFFFFFFFFFFFFFFFFFFFFFFFFFFFFFFFFFFFFF AND DUP3 PUSH20 0xFFFFFFFFFFFFFFFFFFFFFFFFFFFFFFFFFFFFFFFF AND EQ ISZERO JUMPDEST ISZERO PUSH2 0x159C JUMPI PUSH0 PUSH2 0x1479 DUP5 PUSH2 0xBBE JUMP JUMPDEST SWAP1 POP PUSH0 PUSH20 0xFFFFFFFFFFFFFFFFFFFFFFFFFFFFFFFFFFFFFFFF AND DUP4 PUSH20 0xFFFFFFFFFFFFFFFFFFFFFFFFFFFFFFFFFFFFFFFF AND EQ ISZERO DUP1 ISZERO PUSH2 0x14E3 JUMPI POP DUP3 PUSH20 0xFFFFFFFFFFFFFFFFFFFFFFFFFFFFFFFFFFFFFFFF AND DUP2 PUSH20 0xFFFFFFFFFFFFFFFFFFFFFFFFFFFFFFFFFFFFFFFF AND EQ ISZERO JUMPDEST DUP1 ISZERO PUSH2 0x14F6 JUMPI POP PUSH2 0x14F4 DUP2 DUP5 PUSH2 0xA43 JUMP JUMPDEST ISZERO JUMPDEST ISZERO PUSH2 0x1538 JUMPI DUP3 PUSH1 0x40 MLOAD PUSH32 0xA9FBF51F00000000000000000000000000000000000000000000000000000000 DUP2 MSTORE PUSH1 0x4 ADD PUSH2 0x152F SWAP2 SWAP1 PUSH2 0x197F JUMP JUMPDEST PUSH1 0x40 MLOAD DUP1 SWAP2 SUB SWAP1 REVERT JUMPDEST DUP2 ISZERO PUSH2 0x159A JUMPI DUP4 DUP6 PUSH20 0xFFFFFFFFFFFFFFFFFFFFFFFFFFFFFFFFFFFFFFFF AND DUP3 PUSH20 0xFFFFFFFFFFFFFFFFFFFFFFFFFFFFFFFFFFFFFFFF AND PUSH32 0x8C5BE1E5EBEC7D5BD14F71427D1E84F3DD0314C0F7B2291E5B200AC8C7C3B925 PUSH1 0x40 MLOAD PUSH1 0x40 MLOAD DUP1 SWAP2 SUB SWAP1 LOG4 JUMPDEST POP JUMPDEST DUP4 PUSH1 0x4 PUSH0 DUP6 DUP2 MSTORE PUSH1 0x20 ADD SWAP1 DUP2 MSTORE PUSH1 0x20 ADD PUSH0 KECCAK256 PUSH0 PUSH2 0x100 EXP DUP2 SLOAD DUP2 PUSH20 0xFFFFFFFFFFFFFFFFFFFFFFFFFFFFFFFFFFFFFFFF MUL NOT AND SWAP1 DUP4 PUSH20 0xFFFFFFFFFFFFFFFFFFFFFFFFFFFFFFFFFFFFFFFF AND MUL OR SWAP1 SSTORE POP POP POP POP POP JUMP JUMPDEST PUSH2 0x15FC DUP4 DUP4 DUP4 PUSH2 0x16B4 JUMP JUMPDEST PUSH2 0x16AF JUMPI PUSH0 PUSH20 0xFFFFFFFFFFFFFFFFFFFFFFFFFFFFFFFFFFFFFFFF AND DUP4 PUSH20 0xFFFFFFFFFFFFFFFFFFFFFFFFFFFFFFFFFFFFFFFF AND SUB PUSH2 0x1670 JUMPI DUP1 PUSH1 0x40 MLOAD PUSH32 0x7E27328900000000000000000000000000000000000000000000000000000000 DUP2 MSTORE PUSH1 0x4 ADD PUSH2 0x1667 SWAP2 SWAP1 PUSH2 0x1C22 JUMP JUMPDEST PUSH1 0x40 MLOAD DUP1 SWAP2 SUB SWAP1 REVERT JUMPDEST DUP2 DUP2 PUSH1 0x40 MLOAD PUSH32 0x177E802F00000000000000000000000000000000000000000000000000000000 DUP2 MSTORE PUSH1 0x4 ADD PUSH2 0x16A6 SWAP3 SWAP2 SWAP1 PUSH2 0x2302 JUMP JUMPDEST PUSH1 0x40 MLOAD DUP1 SWAP2 SUB SWAP1 REVERT JUMPDEST POP POP POP JUMP JUMPDEST PUSH0 DUP1 PUSH20 0xFFFFFFFFFFFFFFFFFFFFFFFFFFFFFFFFFFFFFFFF AND DUP4 PUSH20 0xFFFFFFFFFFFFFFFFFFFFFFFFFFFFFFFFFFFFFFFF AND EQ ISZERO DUP1 ISZERO PUSH2 0x176B JUMPI POP DUP3 PUSH20 0xFFFFFFFFFFFFFFFFFFFFFFFFFFFFFFFFFFFFFFFF AND DUP5 PUSH20 0xFFFFFFFFFFFFFFFFFFFFFFFFFFFFFFFFFFFFFFFF AND EQ DUP1 PUSH2 0x172C JUMPI POP PUSH2 0x172B DUP5 DUP5 PUSH2 0xA43 JUMP JUMPDEST JUMPDEST DUP1 PUSH2 0x176A JUMPI POP DUP3 PUSH20 0xFFFFFFFFFFFFFFFFFFFFFFFFFFFFFFFFFFFFFFFF AND PUSH2 0x1752 DUP4 PUSH2 0xC44 JUMP JUMPDEST PUSH20 0xFFFFFFFFFFFFFFFFFFFFFFFFFFFFFFFFFFFFFFFF AND EQ JUMPDEST JUMPDEST SWAP1 POP SWAP4 SWAP3 POP POP POP JUMP JUMPDEST PUSH0 PUSH1 0x40 MLOAD SWAP1 POP SWAP1 JUMP JUMPDEST PUSH0 DUP1 REVERT JUMPDEST PUSH0 DUP1 REVERT JUMPDEST PUSH0 PUSH32 0xFFFFFFFF00000000000000000000000000000000000000000000000000000000 DUP3 AND SWAP1 POP SWAP2 SWAP1 POP JUMP JUMPDEST PUSH2 0x17B9 DUP2 PUSH2 0x1785 JUMP JUMPDEST DUP2 EQ PUSH2 0x17C3 JUMPI PUSH0 DUP1 REVERT JUMPDEST POP JUMP JUMPDEST PUSH0 DUP2 CALLDATALOAD SWAP1 POP PUSH2 0x17D4 DUP2 PUSH2 0x17B0 JUMP JUMPDEST SWAP3 SWAP2 POP POP JUMP JUMPDEST PUSH0 PUSH1 0x20 DUP3 DUP5 SUB SLT ISZERO PUSH2 0x17EF JUMPI PUSH2 0x17EE PUSH2 0x177D JUMP JUMPDEST JUMPDEST PUSH0 PUSH2 0x17FC DUP5 DUP3 DUP6 ADD PUSH2 0x17C6 JUMP JUMPDEST SWAP2 POP POP SWAP3 SWAP2 POP POP JUMP JUMPDEST PUSH0 DUP2 ISZERO ISZERO SWAP1 POP SWAP2 SWAP1 POP JUMP JUMPDEST PUSH2 0x1819 DUP2 PUSH2 0x1805 JUMP JUMPDEST DUP3 MSTORE POP POP JUMP JUMPDEST PUSH0 PUSH1 0x20 DUP3 ADD SWAP1 POP PUSH2 0x1832 PUSH0 DUP4 ADD DUP5 PUSH2 0x1810 JUMP JUMPDEST SWAP3 SWAP2 POP POP JUMP JUMPDEST PUSH0 DUP2 MLOAD SWAP1 POP SWAP2 SWAP1 POP JUMP JUMPDEST PUSH0 DUP3 DUP3 MSTORE PUSH1 0x20 DUP3 ADD SWAP1 POP SWAP3 SWAP2 POP POP JUMP JUMPDEST PUSH0 JUMPDEST DUP4 DUP2 LT ISZERO PUSH2 0x186F JUMPI DUP1 DUP3 ADD MLOAD DUP2 DUP5 ADD MSTORE PUSH1 0x20 DUP2 ADD SWAP1 POP PUSH2 0x1854 JUMP JUMPDEST PUSH0 DUP5 DUP5 ADD MSTORE POP POP POP POP JUMP JUMPDEST PUSH0 PUSH1 0x1F NOT PUSH1 0x1F DUP4 ADD AND SWAP1 POP SWAP2 SWAP1 POP JUMP JUMPDEST PUSH0 PUSH2 0x1894 DUP3 PUSH2 0x1838 JUMP JUMPDEST PUSH2 0x189E DUP2 DUP6 PUSH2 0x1842 JUMP JUMPDEST SWAP4 POP PUSH2 0x18AE DUP2 DUP6 PUSH1 0x20 DUP7 ADD PUSH2 0x1852 JUMP JUMPDEST PUSH2 0x18B7 DUP2 PUSH2 0x187A JUMP JUMPDEST DUP5 ADD SWAP2 POP POP SWAP3 SWAP2 POP POP JUMP JUMPDEST PUSH0 PUSH1 0x20 DUP3 ADD SWAP1 POP DUP2 DUP2 SUB PUSH0 DUP4 ADD MSTORE PUSH2 0x18DA DUP2 DUP5 PUSH2 0x188A JUMP JUMPDEST SWAP1 POP SWAP3 SWAP2 POP POP JUMP JUMPDEST PUSH0 DUP2 SWAP1 POP SWAP2 SWAP1 POP JUMP JUMPDEST PUSH2 0x18F4 DUP2 PUSH2 0x18E2 JUMP JUMPDEST DUP2 EQ PUSH2 0x18FE JUMPI PUSH0 DUP1 REVERT JUMPDEST POP JUMP JUMPDEST PUSH0 DUP2 CALLDATALOAD SWAP1 POP PUSH2 0x190F DUP2 PUSH2 0x18EB JUMP JUMPDEST SWAP3 SWAP2 POP POP JUMP JUMPDEST PUSH0 PUSH1 0x20 DUP3 DUP5 SUB SLT ISZERO PUSH2 0x192A JUMPI PUSH2 0x1929 PUSH2 0x177D JUMP JUMPDEST JUMPDEST PUSH0 PUSH2 0x1937 DUP5 DUP3 DUP6 ADD PUSH2 0x1901 JUMP JUMPDEST SWAP2 POP POP SWAP3 SWAP2 POP POP JUMP JUMPDEST PUSH0 PUSH20 0xFFFFFFFFFFFFFFFFFFFFFFFFFFFFFFFFFFFFFFFF DUP3 AND SWAP1 POP SWAP2 SWAP1 POP JUMP JUMPDEST PUSH0 PUSH2 0x1969 DUP3 PUSH2 0x1940 JUMP JUMPDEST SWAP1 POP SWAP2 SWAP1 POP JUMP JUMPDEST PUSH2 0x1979 DUP2 PUSH2 0x195F JUMP JUMPDEST DUP3 MSTORE POP POP JUMP JUMPDEST PUSH0 PUSH1 0x20 DUP3 ADD SWAP1 POP PUSH2 0x1992 PUSH0 DUP4 ADD DUP5 PUSH2 0x1970 JUMP JUMPDEST SWAP3 SWAP2 POP POP JUMP JUMPDEST PUSH2 0x19A1 DUP2 PUSH2 0x195F JUMP JUMPDEST DUP2 EQ PUSH2 0x19AB JUMPI PUSH0 DUP1 REVERT JUMPDEST POP JUMP JUMPDEST PUSH0 DUP2 CALLDATALOAD SWAP1 POP PUSH2 0x19BC DUP2 PUSH2 0x1998 JUMP JUMPDEST SWAP3 SWAP2 POP POP JUMP JUMPDEST PUSH0 DUP1 PUSH1 0x40 DUP4 DUP6 SUB SLT ISZERO PUSH2 0x19D8 JUMPI PUSH2 0x19D7 PUSH2 0x177D JUMP JUMPDEST JUMPDEST PUSH0 PUSH2 0x19E5 DUP6 DUP3 DUP7 ADD PUSH2 0x19AE JUMP JUMPDEST SWAP3 POP POP PUSH1 0x20 PUSH2 0x19F6 DUP6 DUP3 DUP7 ADD PUSH2 0x1901 JUMP JUMPDEST SWAP2 POP POP SWAP3 POP SWAP3 SWAP1 POP JUMP JUMPDEST PUSH0 DUP1 REVERT JUMPDEST PUSH0 DUP1 REVERT JUMPDEST PUSH32 0x4E487B7100000000000000000000000000000000000000000000000000000000 PUSH0 MSTORE PUSH1 0x41 PUSH1 0x4 MSTORE PUSH1 0x24 PUSH0 REVERT JUMPDEST PUSH2 0x1A3E DUP3 PUSH2 0x187A JUMP JUMPDEST DUP2 ADD DUP2 DUP2 LT PUSH8 0xFFFFFFFFFFFFFFFF DUP3 GT OR ISZERO PUSH2 0x1A5D JUMPI PUSH2 0x1A5C PUSH2 0x1A08 JUMP JUMPDEST JUMPDEST DUP1 PUSH1 0x40 MSTORE POP POP POP JUMP JUMPDEST PUSH0 PUSH2 0x1A6F PUSH2 0x1774 JUMP JUMPDEST SWAP1 POP PUSH2 0x1A7B DUP3 DUP3 PUSH2 0x1A35 JUMP JUMPDEST SWAP2 SWAP1 POP JUMP JUMPDEST PUSH0 PUSH8 0xFFFFFFFFFFFFFFFF DUP3 GT ISZERO PUSH2 0x1A9A JUMPI PUSH2 0x1A99 PUSH2 0x1A08 JUMP JUMPDEST JUMPDEST PUSH2 0x1AA3 DUP3 PUSH2 0x187A JUMP JUMPDEST SWAP1 POP PUSH1 0x20 DUP2 ADD SWAP1 POP SWAP2 SWAP1 POP JUMP JUMPDEST DUP3 DUP2 DUP4 CALLDATACOPY PUSH0 DUP4 DUP4 ADD MSTORE POP POP POP JUMP JUMPDEST PUSH0 PUSH2 0x1AD0 PUSH2 0x1ACB DUP5 PUSH2 0x1A80 JUMP JUMPDEST PUSH2 0x1A66 JUMP JUMPDEST SWAP1 POP DUP3 DUP2 MSTORE PUSH1 0x20 DUP2 ADD DUP5 DUP5 DUP5 ADD GT ISZERO PUSH2 0x1AEC JUMPI PUSH2 0x1AEB PUSH2 0x1A04 JUMP JUMPDEST JUMPDEST PUSH2 0x1AF7 DUP5 DUP3 DUP6 PUSH2 0x1AB0 JUMP JUMPDEST POP SWAP4 SWAP3 POP POP POP JUMP JUMPDEST PUSH0 DUP3 PUSH1 0x1F DUP4 ADD SLT PUSH2 0x1B13 JUMPI PUSH2 0x1B12 PUSH2 0x1A00 JUMP JUMPDEST JUMPDEST DUP2 CALLDATALOAD PUSH2 0x1B23 DUP5 DUP3 PUSH1 0x20 DUP7 ADD PUSH2 0x1ABE JUMP JUMPDEST SWAP2 POP POP SWAP3 SWAP2 POP POP JUMP JUMPDEST PUSH0 DUP1 PUSH0 PUSH1 0x60 DUP5 DUP7 SUB SLT ISZERO PUSH2 0x1B43 JUMPI PUSH2 0x1B42 PUSH2 0x177D JUMP JUMPDEST JUMPDEST PUSH0 PUSH2 0x1B50 DUP7 DUP3 DUP8 ADD PUSH2 0x19AE JUMP JUMPDEST SWAP4 POP POP PUSH1 0x20 PUSH2 0x1B61 DUP7 DUP3 DUP8 ADD PUSH2 0x1901 JUMP JUMPDEST SWAP3 POP POP PUSH1 0x40 DUP5 ADD CALLDATALOAD PUSH8 0xFFFFFFFFFFFFFFFF DUP2 GT ISZERO PUSH2 0x1B82 JUMPI PUSH2 0x1B81 PUSH2 0x1781 JUMP JUMPDEST JUMPDEST PUSH2 0x1B8E DUP7 DUP3 DUP8 ADD PUSH2 0x1AFF JUMP JUMPDEST SWAP2 POP POP SWAP3 POP SWAP3 POP SWAP3 JUMP JUMPDEST PUSH0 DUP1 PUSH0 PUSH1 0x60 DUP5 DUP7 SUB SLT ISZERO PUSH2 0x1BAF JUMPI PUSH2 0x1BAE PUSH2 0x177D JUMP JUMPDEST JUMPDEST PUSH0 PUSH2 0x1BBC DUP7 DUP3 DUP8 ADD PUSH2 0x19AE JUMP JUMPDEST SWAP4 POP POP PUSH1 0x20 PUSH2 0x1BCD DUP7 DUP3 DUP8 ADD PUSH2 0x19AE JUMP JUMPDEST SWAP3 POP POP PUSH1 0x40 PUSH2 0x1BDE DUP7 DUP3 DUP8 ADD PUSH2 0x1901 JUMP JUMPDEST SWAP2 POP POP SWAP3 POP SWAP3 POP SWAP3 JUMP JUMPDEST PUSH0 PUSH1 0x20 DUP3 DUP5 SUB SLT ISZERO PUSH2 0x1BFD JUMPI PUSH2 0x1BFC PUSH2 0x177D JUMP JUMPDEST JUMPDEST PUSH0 PUSH2 0x1C0A DUP5 DUP3 DUP6 ADD PUSH2 0x19AE JUMP JUMPDEST SWAP2 POP POP SWAP3 SWAP2 POP POP JUMP JUMPDEST PUSH2 0x1C1C DUP2 PUSH2 0x18E2 JUMP JUMPDEST DUP3 MSTORE POP POP JUMP JUMPDEST PUSH0 PUSH1 0x20 DUP3 ADD SWAP1 POP PUSH2 0x1C35 PUSH0 DUP4 ADD DUP5 PUSH2 0x1C13 JUMP JUMPDEST SWAP3 SWAP2 POP POP JUMP JUMPDEST PUSH0 DUP1 PUSH1 0x40 DUP4 DUP6 SUB SLT ISZERO PUSH2 0x1C51 JUMPI PUSH2 0x1C50 PUSH2 0x177D JUMP JUMPDEST JUMPDEST PUSH0 PUSH2 0x1C5E DUP6 DUP3 DUP7 ADD PUSH2 0x1901 JUMP JUMPDEST SWAP3 POP POP PUSH1 0x20 DUP4 ADD CALLDATALOAD PUSH8 0xFFFFFFFFFFFFFFFF DUP2 GT ISZERO PUSH2 0x1C7F JUMPI PUSH2 0x1C7E PUSH2 0x1781 JUMP JUMPDEST JUMPDEST PUSH2 0x1C8B DUP6 DUP3 DUP7 ADD PUSH2 0x1AFF JUMP JUMPDEST SWAP2 POP POP SWAP3 POP SWAP3 SWAP1 POP JUMP JUMPDEST PUSH2 0x1C9E DUP2 PUSH2 0x1805 JUMP JUMPDEST DUP2 EQ PUSH2 0x1CA8 JUMPI PUSH0 DUP1 REVERT JUMPDEST POP JUMP JUMPDEST PUSH0 DUP2 CALLDATALOAD SWAP1 POP PUSH2 0x1CB9 DUP2 PUSH2 0x1C95 JUMP JUMPDEST SWAP3 SWAP2 POP POP JUMP JUMPDEST PUSH0 DUP1 PUSH1 0x40 DUP4 DUP6 SUB SLT ISZERO PUSH2 0x1CD5 JUMPI PUSH2 0x1CD4 PUSH2 0x177D JUMP JUMPDEST JUMPDEST PUSH0 PUSH2 0x1CE2 DUP6 DUP3 DUP7 ADD PUSH2 0x19AE JUMP JUMPDEST SWAP3 POP POP PUSH1 0x20 PUSH2 0x1CF3 DUP6 DUP3 DUP7 ADD PUSH2 0x1CAB JUMP JUMPDEST SWAP2 POP POP SWAP3 POP SWAP3 SWAP1 POP JUMP JUMPDEST PUSH0 PUSH8 0xFFFFFFFFFFFFFFFF DUP3 GT ISZERO PUSH2 0x1D17 JUMPI PUSH2 0x1D16 PUSH2 0x1A08 JUMP JUMPDEST JUMPDEST PUSH2 0x1D20 DUP3 PUSH2 0x187A JUMP JUMPDEST SWAP1 POP PUSH1 0x20 DUP2 ADD SWAP1 POP SWAP2 SWAP1 POP JUMP JUMPDEST PUSH0 PUSH2 0x1D3F PUSH2 0x1D3A DUP5 PUSH2 0x1CFD JUMP JUMPDEST PUSH2 0x1A66 JUMP JUMPDEST SWAP1 POP DUP3 DUP2 MSTORE PUSH1 0x20 DUP2 ADD DUP5 DUP5 DUP5 ADD GT ISZERO PUSH2 0x1D5B JUMPI PUSH2 0x1D5A PUSH2 0x1A04 JUMP JUMPDEST JUMPDEST PUSH2 0x1D66 DUP5 DUP3 DUP6 PUSH2 0x1AB0 JUMP JUMPDEST POP SWAP4 SWAP3 POP POP POP JUMP JUMPDEST PUSH0 DUP3 PUSH1 0x1F DUP4 ADD SLT PUSH2 0x1D82 JUMPI PUSH2 0x1D81 PUSH2 0x1A00 JUMP JUMPDEST JUMPDEST DUP2 CALLDATALOAD PUSH2 0x1D92 DUP5 DUP3 PUSH1 0x20 DUP7 ADD PUSH2 0x1D2D JUMP JUMPDEST SWAP2 POP POP SWAP3 SWAP2 POP POP JUMP JUMPDEST PUSH0 DUP1 PUSH0 DUP1 PUSH1 0x80 DUP6 DUP8 SUB SLT ISZERO PUSH2 0x1DB3 JUMPI PUSH2 0x1DB2 PUSH2 0x177D JUMP JUMPDEST JUMPDEST PUSH0 PUSH2 0x1DC0 DUP8 DUP3 DUP9 ADD PUSH2 0x19AE JUMP JUMPDEST SWAP5 POP POP PUSH1 0x20 PUSH2 0x1DD1 DUP8 DUP3 DUP9 ADD PUSH2 0x19AE JUMP JUMPDEST SWAP4 POP POP PUSH1 0x40 PUSH2 0x1DE2 DUP8 DUP3 DUP9 ADD PUSH2 0x1901 JUMP JUMPDEST SWAP3 POP POP PUSH1 0x60 DUP6 ADD CALLDATALOAD PUSH8 0xFFFFFFFFFFFFFFFF DUP2 GT ISZERO PUSH2 0x1E03 JUMPI PUSH2 0x1E02 PUSH2 0x1781 JUMP JUMPDEST JUMPDEST PUSH2 0x1E0F DUP8 DUP3 DUP9 ADD PUSH2 0x1D6E JUMP JUMPDEST SWAP2 POP POP SWAP3 SWAP6 SWAP2 SWAP5 POP SWAP3 POP JUMP JUMPDEST PUSH0 DUP1 PUSH1 0x40 DUP4 DUP6 SUB SLT ISZERO PUSH2 0x1E31 JUMPI PUSH2 0x1E30 PUSH2 0x177D JUMP JUMPDEST JUMPDEST PUSH0 PUSH2 0x1E3E DUP6 DUP3 DUP7 ADD PUSH2 0x19AE JUMP JUMPDEST SWAP3 POP POP PUSH1 0x20 PUSH2 0x1E4F DUP6 DUP3 DUP7 ADD PUSH2 0x19AE JUMP JUMPDEST SWAP2 POP POP SWAP3 POP SWAP3 SWAP1 POP JUMP JUMPDEST PUSH32 0x4E487B7100000000000000000000000000000000000000000000000000000000 PUSH0 MSTORE PUSH1 0x22 PUSH1 0x4 MSTORE PUSH1 0x24 PUSH0 REVERT JUMPDEST PUSH0 PUSH1 0x2 DUP3 DIV SWAP1 POP PUSH1 0x1 DUP3 AND DUP1 PUSH2 0x1E9D JUMPI PUSH1 0x7F DUP3 AND SWAP2 POP JUMPDEST PUSH1 0x20 DUP3 LT DUP2 SUB PUSH2 0x1EB0 JUMPI PUSH2 0x1EAF PUSH2 0x1E59 JUMP JUMPDEST JUMPDEST POP SWAP2 SWAP1 POP JUMP JUMPDEST PUSH32 0x546F6B656E20494420616C726561647920657869737473000000000000000000 PUSH0 DUP3 ADD MSTORE POP JUMP JUMPDEST PUSH0 PUSH2 0x1EEA PUSH1 0x17 DUP4 PUSH2 0x1842 JUMP JUMPDEST SWAP2 POP PUSH2 0x1EF5 DUP3 PUSH2 0x1EB6 JUMP JUMPDEST PUSH1 0x20 DUP3 ADD SWAP1 POP SWAP2 SWAP1 POP JUMP JUMPDEST PUSH0 PUSH1 0x20 DUP3 ADD SWAP1 POP DUP2 DUP2 SUB PUSH0 DUP4 ADD MSTORE PUSH2 0x1F17 DUP2 PUSH2 0x1EDE JUMP JUMPDEST SWAP1 POP SWAP2 SWAP1 POP JUMP JUMPDEST PUSH0 DUP2 SWAP1 POP DUP2 PUSH0 MSTORE PUSH1 0x20 PUSH0 KECCAK256 SWAP1 POP SWAP2 SWAP1 POP JUMP JUMPDEST PUSH0 PUSH1 0x20 PUSH1 0x1F DUP4 ADD DIV SWAP1 POP SWAP2 SWAP1 POP JUMP JUMPDEST PUSH0 DUP3 DUP3 SHL SWAP1 POP SWAP3 SWAP2 POP POP JUMP JUMPDEST PUSH0 PUSH1 0x8 DUP4 MUL PUSH2 0x1F7A PUSH32 0xFFFFFFFFFFFFFFFFFFFFFFFFFFFFFFFFFFFFFFFFFFFFFFFFFFFFFFFFFFFFFFFF DUP3 PUSH2 0x1F3F JUMP JUMPDEST PUSH2 0x1F84 DUP7 DUP4 PUSH2 0x1F3F JUMP JUMPDEST SWAP6 POP DUP1 NOT DUP5 AND SWAP4 POP DUP1 DUP7 AND DUP5 OR SWAP3 POP POP POP SWAP4 SWAP3 POP POP POP JUMP JUMPDEST PUSH0 DUP2 SWAP1 POP SWAP2 SWAP1 POP JUMP JUMPDEST PUSH0 PUSH2 0x1FBF PUSH2 0x1FBA PUSH2 0x1FB5 DUP5 PUSH2 0x18E2 JUMP JUMPDEST PUSH2 0x1F9C JUMP JUMPDEST PUSH2 0x18E2 JUMP JUMPDEST SWAP1 POP SWAP2 SWAP1 POP JUMP JUMPDEST PUSH0 DUP2 SWAP1 POP SWAP2 SWAP1 POP JUMP JUMPDEST PUSH2 0x1FD8 DUP4 PUSH2 0x1FA5 JUMP JUMPDEST PUSH2 0x1FEC PUSH2 0x1FE4 DUP3 PUSH2 0x1FC6 JUMP JUMPDEST DUP5 DUP5 SLOAD PUSH2 0x1F4B JUMP JUMPDEST DUP3 SSTORE POP POP POP POP JUMP JUMPDEST PUSH0 SWAP1 JUMP JUMPDEST PUSH2 0x2000 PUSH2 0x1FF4 JUMP JUMPDEST PUSH2 0x200B DUP2 DUP5 DUP5 PUSH2 0x1FCF JUMP JUMPDEST POP POP POP JUMP JUMPDEST JUMPDEST DUP2 DUP2 LT ISZERO PUSH2 0x202E JUMPI PUSH2 0x2023 PUSH0 DUP3 PUSH2 0x1FF8 JUMP JUMPDEST PUSH1 0x1 DUP2 ADD SWAP1 POP PUSH2 0x2011 JUMP JUMPDEST POP POP JUMP JUMPDEST PUSH1 0x1F DUP3 GT ISZERO PUSH2 0x2073 JUMPI PUSH2 0x2044 DUP2 PUSH2 0x1F1E JUMP JUMPDEST PUSH2 0x204D DUP5 PUSH2 0x1F30 JUMP JUMPDEST DUP2 ADD PUSH1 0x20 DUP6 LT ISZERO PUSH2 0x205C JUMPI DUP2 SWAP1 POP JUMPDEST PUSH2 0x2070 PUSH2 0x2068 DUP6 PUSH2 0x1F30 JUMP JUMPDEST DUP4 ADD DUP3 PUSH2 0x2010 JUMP JUMPDEST POP POP JUMPDEST POP POP POP JUMP JUMPDEST PUSH0 DUP3 DUP3 SHR SWAP1 POP SWAP3 SWAP2 POP POP JUMP JUMPDEST PUSH0 PUSH2 0x2093 PUSH0 NOT DUP5 PUSH1 0x8 MUL PUSH2 0x2078 JUMP JUMPDEST NOT DUP1 DUP4 AND SWAP2 POP POP SWAP3 SWAP2 POP POP JUMP JUMPDEST PUSH0 PUSH2 0x20AB DUP4 DUP4 PUSH2 0x2084 JUMP JUMPDEST SWAP2 POP DUP3 PUSH1 0x2 MUL DUP3 OR SWAP1 POP SWAP3 SWAP2 POP POP JUMP JUMPDEST PUSH2 0x20C4 DUP3 PUSH2 0x1838 JUMP JUMPDEST PUSH8 0xFFFFFFFFFFFFFFFF DUP2 GT ISZERO PUSH2 0x20DD JUMPI PUSH2 0x20DC PUSH2 0x1A08 JUMP JUMPDEST JUMPDEST PUSH2 0x20E7 DUP3 SLOAD PUSH2 0x1E86 JUMP JUMPDEST PUSH2 0x20F2 DUP3 DUP3 DUP6 PUSH2 0x2032 JUMP JUMPDEST PUSH0 PUSH1 0x20 SWAP1 POP PUSH1 0x1F DUP4 GT PUSH1 0x1 DUP2 EQ PUSH2 0x2123 JUMPI PUSH0 DUP5 ISZERO PUSH2 0x2111 JUMPI DUP3 DUP8 ADD MLOAD SWAP1 POP JUMPDEST PUSH2 0x211B DUP6 DUP3 PUSH2 0x20A0 JUMP JUMPDEST DUP7 SSTORE POP PUSH2 0x2182 JUMP JUMPDEST PUSH1 0x1F NOT DUP5 AND PUSH2 0x2131 DUP7 PUSH2 0x1F1E JUMP JUMPDEST PUSH0 JUMPDEST DUP3 DUP2 LT ISZERO PUSH2 0x2158 JUMPI DUP5 DUP10 ADD MLOAD DUP3 SSTORE PUSH1 0x1 DUP3 ADD SWAP2 POP PUSH1 0x20 DUP6 ADD SWAP5 POP PUSH1 0x20 DUP2 ADD SWAP1 POP PUSH2 0x2133 JUMP JUMPDEST DUP7 DUP4 LT ISZERO PUSH2 0x2175 JUMPI DUP5 DUP10 ADD MLOAD PUSH2 0x2171 PUSH1 0x1F DUP10 AND DUP3 PUSH2 0x2084 JUMP JUMPDEST DUP4 SSTORE POP JUMPDEST PUSH1 0x1 PUSH1 0x2 DUP9 MUL ADD DUP9 SSTORE POP POP POP JUMPDEST POP POP POP POP POP POP JUMP JUMPDEST PUSH0 PUSH1 0x60 DUP3 ADD SWAP1 POP PUSH2 0x219D PUSH0 DUP4 ADD DUP7 PUSH2 0x1970 JUMP JUMPDEST PUSH2 0x21AA PUSH1 0x20 DUP4 ADD DUP6 PUSH2 0x1C13 JUMP JUMPDEST PUSH2 0x21B7 PUSH1 0x40 DUP4 ADD DUP5 PUSH2 0x1970 JUMP JUMPDEST SWAP5 SWAP4 POP POP POP POP JUMP JUMPDEST PUSH32 0x546F6B656E20646F6573206E6F74206578697374000000000000000000000000 PUSH0 DUP3 ADD MSTORE POP JUMP JUMPDEST PUSH0 PUSH2 0x21F3 PUSH1 0x14 DUP4 PUSH2 0x1842 JUMP JUMPDEST SWAP2 POP PUSH2 0x21FE DUP3 PUSH2 0x21BF JUMP JUMPDEST PUSH1 0x20 DUP3 ADD SWAP1 POP SWAP2 SWAP1 POP JUMP JUMPDEST PUSH0 PUSH1 0x20 DUP3 ADD SWAP1 POP DUP2 DUP2 SUB PUSH0 DUP4 ADD MSTORE PUSH2 0x2220 DUP2 PUSH2 0x21E7 JUMP JUMPDEST SWAP1 POP SWAP2 SWAP1 POP JUMP JUMPDEST PUSH0 DUP2 MLOAD SWAP1 POP SWAP2 SWAP1 POP JUMP JUMPDEST PUSH0 DUP3 DUP3 MSTORE PUSH1 0x20 DUP3 ADD SWAP1 POP SWAP3 SWAP2 POP POP JUMP JUMPDEST PUSH0 PUSH2 0x224B DUP3 PUSH2 0x2227 JUMP JUMPDEST PUSH2 0x2255 DUP2 DUP6 PUSH2 0x2231 JUMP JUMPDEST SWAP4 POP PUSH2 0x2265 DUP2 DUP6 PUSH1 0x20 DUP7 ADD PUSH2 0x1852 JUMP JUMPDEST PUSH2 0x226E DUP2 PUSH2 0x187A JUMP JUMPDEST DUP5 ADD SWAP2 POP POP SWAP3 SWAP2 POP POP JUMP JUMPDEST PUSH0 PUSH1 0x80 DUP3 ADD SWAP1 POP PUSH2 0x228C PUSH0 DUP4 ADD DUP8 PUSH2 0x1970 JUMP JUMPDEST PUSH2 0x2299 PUSH1 0x20 DUP4 ADD DUP7 PUSH2 0x1970 JUMP JUMPDEST PUSH2 0x22A6 PUSH1 0x40 DUP4 ADD DUP6 PUSH2 0x1C13 JUMP JUMPDEST DUP2 DUP2 SUB PUSH1 0x60 DUP4 ADD MSTORE PUSH2 0x22B8 DUP2 DUP5 PUSH2 0x2241 JUMP JUMPDEST SWAP1 POP SWAP6 SWAP5 POP POP POP POP POP JUMP JUMPDEST PUSH0 DUP2 MLOAD SWAP1 POP PUSH2 0x22D1 DUP2 PUSH2 0x17B0 JUMP JUMPDEST SWAP3 SWAP2 POP POP JUMP JUMPDEST PUSH0 PUSH1 0x20 DUP3 DUP5 SUB SLT ISZERO PUSH2 0x22EC JUMPI PUSH2 0x22EB PUSH2 0x177D JUMP JUMPDEST JUMPDEST PUSH0 PUSH2 0x22F9 DUP5 DUP3 DUP6 ADD PUSH2 0x22C3 JUMP JUMPDEST SWAP2 POP POP SWAP3 SWAP2 POP POP JUMP JUMPDEST PUSH0 PUSH1 0x40 DUP3 ADD SWAP1 POP PUSH2 0x2315 PUSH0 DUP4 ADD DUP6 PUSH2 0x1970 JUMP JUMPDEST PUSH2 0x2322 PUSH1 0x20 DUP4 ADD DUP5 PUSH2 0x1C13 JUMP JUMPDEST SWAP4 SWAP3 POP POP POP JUMP INVALID LOG2 PUSH5 0x6970667358 0x22 SLT KECCAK256 SWAP7 OR 0xE4 0xAC 0x4E PUSH13 0xCF1A1847F4B91CF2DEA6B8A3EA CALL SAR NOT LOG2 PUSH19 0x6BAA76E8A6E6D80A64736F6C63430008140033 "
				},
				"gasEstimates": {
					"creation": {
						"codeDepositCost": "1811000",
						"executionCost": "infinite",
						"totalCost": "infinite"
					},
					"external": {
						"approve(address,uint256)": "infinite",
						"balanceOf(address)": "infinite",
						"getApproved(uint256)": "infinite",
						"isApprovedForAll(address,address)": "infinite",
						"issueCertificate(address,uint256,string)": "infinite",
						"name()": "infinite",
						"owner()": "2582",
						"ownerOf(uint256)": "infinite",
						"renounceOwnership()": "infinite",
						"safeTransferFrom(address,address,uint256)": "infinite",
						"safeTransferFrom(address,address,uint256,bytes)": "infinite",
						"setApprovalForAll(address,bool)": "infinite",
						"setCertificateURI(uint256,string)": "infinite",
						"supportsInterface(bytes4)": "787",
						"symbol()": "infinite",
						"tokenURI(uint256)": "infinite",
						"transferFrom(address,address,uint256)": "infinite",
						"transferOwnership(address)": "infinite"
					}
				},
				"methodIdentifiers": {
					"approve(address,uint256)": "095ea7b3",
					"balanceOf(address)": "70a08231",
					"getApproved(uint256)": "081812fc",
					"isApprovedForAll(address,address)": "e985e9c5",
					"issueCertificate(address,uint256,string)": "0ce51f56",
					"name()": "06fdde03",
					"owner()": "8da5cb5b",
					"ownerOf(uint256)": "6352211e",
					"renounceOwnership()": "715018a6",
					"safeTransferFrom(address,address,uint256)": "42842e0e",
					"safeTransferFrom(address,address,uint256,bytes)": "b88d4fde",
					"setApprovalForAll(address,bool)": "a22cb465",
					"setCertificateURI(uint256,string)": "7a490fe1",
					"supportsInterface(bytes4)": "01ffc9a7",
					"symbol()": "95d89b41",
					"tokenURI(uint256)": "c87b56dd",
					"transferFrom(address,address,uint256)": "23b872dd",
					"transferOwnership(address)": "f2fde38b"
				}
			},
			"storageLayout": {
				"storage": [
					{
						"astId": 317,
						"contract": "contracts/NFT/CertificateContract.sol:CertificateContract",
						"label": "_name",
						"offset": 0,
						"slot": "0",
						"type": "t_string_storage"
					},
					{
						"astId": 319,
						"contract": "contracts/NFT/CertificateContract.sol:CertificateContract",
						"label": "_symbol",
						"offset": 0,
						"slot": "1",
						"type": "t_string_storage"
					},
					{
						"astId": 323,
						"contract": "contracts/NFT/CertificateContract.sol:CertificateContract",
						"label": "_owners",
						"offset": 0,
						"slot": "2",
						"type": "t_mapping(t_uint256,t_address)"
					},
					{
						"astId": 327,
						"contract": "contracts/NFT/CertificateContract.sol:CertificateContract",
						"label": "_balances",
						"offset": 0,
						"slot": "3",
						"type": "t_mapping(t_address,t_uint256)"
					},
					{
						"astId": 331,
						"contract": "contracts/NFT/CertificateContract.sol:CertificateContract",
						"label": "_tokenApprovals",
						"offset": 0,
						"slot": "4",
						"type": "t_mapping(t_uint256,t_address)"
					},
					{
						"astId": 337,
						"contract": "contracts/NFT/CertificateContract.sol:CertificateContract",
						"label": "_operatorApprovals",
						"offset": 0,
						"slot": "5",
						"type": "t_mapping(t_address,t_mapping(t_address,t_bool))"
					},
					{
						"astId": 8,
						"contract": "contracts/NFT/CertificateContract.sol:CertificateContract",
						"label": "_owner",
						"offset": 0,
						"slot": "6",
						"type": "t_address"
					},
					{
						"astId": 2940,
						"contract": "contracts/NFT/CertificateContract.sol:CertificateContract",
						"label": "certificateURIs",
						"offset": 0,
						"slot": "7",
						"type": "t_mapping(t_uint256,t_string_storage)"
					},
					{
						"astId": 2944,
						"contract": "contracts/NFT/CertificateContract.sol:CertificateContract",
						"label": "exists",
						"offset": 0,
						"slot": "8",
						"type": "t_mapping(t_uint256,t_bool)"
					}
				],
				"types": {
					"t_address": {
						"encoding": "inplace",
						"label": "address",
						"numberOfBytes": "20"
					},
					"t_bool": {
						"encoding": "inplace",
						"label": "bool",
						"numberOfBytes": "1"
					},
					"t_mapping(t_address,t_bool)": {
						"encoding": "mapping",
						"key": "t_address",
						"label": "mapping(address => bool)",
						"numberOfBytes": "32",
						"value": "t_bool"
					},
					"t_mapping(t_address,t_mapping(t_address,t_bool))": {
						"encoding": "mapping",
						"key": "t_address",
						"label": "mapping(address => mapping(address => bool))",
						"numberOfBytes": "32",
						"value": "t_mapping(t_address,t_bool)"
					},
					"t_mapping(t_address,t_uint256)": {
						"encoding": "mapping",
						"key": "t_address",
						"label": "mapping(address => uint256)",
						"numberOfBytes": "32",
						"value": "t_uint256"
					},
					"t_mapping(t_uint256,t_address)": {
						"encoding": "mapping",
						"key": "t_uint256",
						"label": "mapping(uint256 => address)",
						"numberOfBytes": "32",
						"value": "t_address"
					},
					"t_mapping(t_uint256,t_bool)": {
						"encoding": "mapping",
						"key": "t_uint256",
						"label": "mapping(uint256 => bool)",
						"numberOfBytes": "32",
						"value": "t_bool"
					},
					"t_mapping(t_uint256,t_string_storage)": {
						"encoding": "mapping",
						"key": "t_uint256",
						"label": "mapping(uint256 => string)",
						"numberOfBytes": "32",
						"value": "t_string_storage"
					},
					"t_string_storage": {
						"encoding": "bytes",
						"label": "string",
						"numberOfBytes": "32"
					},
					"t_uint256": {
						"encoding": "inplace",
						"label": "uint256",
						"numberOfBytes": "32"
					}
				}
			},
			"userdoc": {
				"kind": "user",
				"methods": {},
				"version": 1
			}
		}
	}
}