{
	"contracts/NNTHToken.sol": {
		"NNTHToken": {
			"abi": [
				{
					"inputs": [
						{
							"internalType": "string",
							"name": "name",
							"type": "string"
						},
						{
							"internalType": "string",
							"name": "symbol",
							"type": "string"
						},
						{
							"internalType": "uint256",
							"name": "totalSupply",
							"type": "uint256"
						},
						{
							"internalType": "address",
							"name": "initialOwner",
							"type": "address"
						}
					],
					"stateMutability": "nonpayable",
					"type": "constructor"
				},
				{
					"inputs": [
						{
							"internalType": "address",
							"name": "spender",
							"type": "address"
						},
						{
							"internalType": "uint256",
							"name": "allowance",
							"type": "uint256"
						},
						{
							"internalType": "uint256",
							"name": "needed",
							"type": "uint256"
						}
					],
					"name": "ERC20InsufficientAllowance",
					"type": "error"
				},
				{
					"inputs": [
						{
							"internalType": "address",
							"name": "sender",
							"type": "address"
						},
						{
							"internalType": "uint256",
							"name": "balance",
							"type": "uint256"
						},
						{
							"internalType": "uint256",
							"name": "needed",
							"type": "uint256"
						}
					],
					"name": "ERC20InsufficientBalance",
					"type": "error"
				},
				{
					"inputs": [
						{
							"internalType": "address",
							"name": "approver",
							"type": "address"
						}
					],
					"name": "ERC20InvalidApprover",
					"type": "error"
				},
				{
					"inputs": [
						{
							"internalType": "address",
							"name": "receiver",
							"type": "address"
						}
					],
					"name": "ERC20InvalidReceiver",
					"type": "error"
				},
				{
					"inputs": [
						{
							"internalType": "address",
							"name": "sender",
							"type": "address"
						}
					],
					"name": "ERC20InvalidSender",
					"type": "error"
				},
				{
					"inputs": [
						{
							"internalType": "address",
							"name": "spender",
							"type": "address"
						}
					],
					"name": "ERC20InvalidSpender",
					"type": "error"
				},
				{
					"inputs": [
						{
							"internalType": "address",
							"name": "owner",
							"type": "address"
						}
					],
					"name": "OwnableInvalidOwner",
					"type": "error"
				},
				{
					"inputs": [
						{
							"internalType": "address",
							"name": "account",
							"type": "address"
						}
					],
					"name": "OwnableUnauthorizedAccount",
					"type": "error"
				},
				{
					"anonymous": false,
					"inputs": [
						{
							"indexed": true,
							"internalType": "address",
							"name": "owner",
							"type": "address"
						},
						{
							"indexed": true,
							"internalType": "address",
							"name": "spender",
							"type": "address"
						},
						{
							"indexed": false,
							"internalType": "uint256",
							"name": "value",
							"type": "uint256"
						}
					],
					"name": "Approval",
					"type": "event"
				},
				{
					"anonymous": false,
					"inputs": [
						{
							"indexed": true,
							"internalType": "address",
							"name": "owner",
							"type": "address"
						},
						{
							"indexed": true,
							"internalType": "address",
							"name": "spender",
							"type": "address"
						},
						{
							"indexed": false,
							"internalType": "uint256",
							"name": "value",
							"type": "uint256"
						}
					],
					"name": "ApprovalLog",
					"type": "event"
				},
				{
					"anonymous": false,
					"inputs": [
						{
							"indexed": false,
							"internalType": "uint256",
							"name": "newBaseRate",
							"type": "uint256"
						},
						{
							"indexed": false,
							"internalType": "uint256",
							"name": "newAdoptionFactor",
							"type": "uint256"
						},
						{
							"indexed": false,
							"internalType": "uint256",
							"name": "newAdoptionPercentage",
							"type": "uint256"
						}
					],
					"name": "GeneralFeeChanged",
					"type": "event"
				},
				{
					"anonymous": false,
					"inputs": [
						{
							"indexed": true,
							"internalType": "address",
							"name": "account",
							"type": "address"
						},
						{
							"indexed": false,
							"internalType": "bool",
							"name": "isLocked",
							"type": "bool"
						}
					],
					"name": "LockSet",
					"type": "event"
				},
				{
					"anonymous": false,
					"inputs": [
						{
							"indexed": true,
							"internalType": "address",
							"name": "previousOwner",
							"type": "address"
						},
						{
							"indexed": true,
							"internalType": "address",
							"name": "newOwner",
							"type": "address"
						}
					],
					"name": "OwnershipTransferred",
					"type": "event"
				},
				{
					"anonymous": false,
					"inputs": [
						{
							"indexed": false,
							"internalType": "address",
							"name": "account",
							"type": "address"
						}
					],
					"name": "Paused",
					"type": "event"
				},
				{
					"anonymous": false,
					"inputs": [
						{
							"indexed": true,
							"internalType": "address",
							"name": "from",
							"type": "address"
						},
						{
							"indexed": true,
							"internalType": "address",
							"name": "to",
							"type": "address"
						},
						{
							"indexed": false,
							"internalType": "uint256",
							"name": "value",
							"type": "uint256"
						}
					],
					"name": "Transfer",
					"type": "event"
				},
				{
					"anonymous": false,
					"inputs": [
						{
							"indexed": false,
							"internalType": "address",
							"name": "account",
							"type": "address"
						}
					],
					"name": "Unpaused",
					"type": "event"
				},
				{
					"inputs": [],
					"name": "adoptionFactor",
					"outputs": [
						{
							"internalType": "uint256",
							"name": "",
							"type": "uint256"
						}
					],
					"stateMutability": "view",
					"type": "function"
				},
				{
					"inputs": [],
					"name": "adoptionPercentage",
					"outputs": [
						{
							"internalType": "uint256",
							"name": "",
							"type": "uint256"
						}
					],
					"stateMutability": "view",
					"type": "function"
				},
				{
					"inputs": [
						{
							"internalType": "address",
							"name": "owner",
							"type": "address"
						},
						{
							"internalType": "address",
							"name": "spender",
							"type": "address"
						}
					],
					"name": "allowance",
					"outputs": [
						{
							"internalType": "uint256",
							"name": "",
							"type": "uint256"
						}
					],
					"stateMutability": "view",
					"type": "function"
				},
				{
					"inputs": [
						{
							"internalType": "address",
							"name": "spender",
							"type": "address"
						},
						{
							"internalType": "uint256",
							"name": "value",
							"type": "uint256"
						}
					],
					"name": "approve",
					"outputs": [
						{
							"internalType": "bool",
							"name": "",
							"type": "bool"
						}
					],
					"stateMutability": "nonpayable",
					"type": "function"
				},
				{
					"inputs": [
						{
							"internalType": "address",
							"name": "account",
							"type": "address"
						}
					],
					"name": "balanceOf",
					"outputs": [
						{
							"internalType": "uint256",
							"name": "",
							"type": "uint256"
						}
					],
					"stateMutability": "view",
					"type": "function"
				},
				{
					"inputs": [],
					"name": "baseRate",
					"outputs": [
						{
							"internalType": "uint256",
							"name": "",
							"type": "uint256"
						}
					],
					"stateMutability": "view",
					"type": "function"
				},
				{
					"inputs": [
						{
							"internalType": "uint256",
							"name": "amount",
							"type": "uint256"
						}
					],
					"name": "burn",
					"outputs": [],
					"stateMutability": "nonpayable",
					"type": "function"
				},
				{
					"inputs": [],
					"name": "decimals",
					"outputs": [
						{
							"internalType": "uint8",
							"name": "",
							"type": "uint8"
						}
					],
					"stateMutability": "view",
					"type": "function"
				},
				{
					"inputs": [
						{
							"internalType": "address",
							"name": "account",
							"type": "address"
						}
					],
					"name": "isAccountLocked",
					"outputs": [
						{
							"internalType": "bool",
							"name": "",
							"type": "bool"
						}
					],
					"stateMutability": "view",
					"type": "function"
				},
				{
					"inputs": [
						{
							"internalType": "address",
							"name": "account",
							"type": "address"
						}
					],
					"name": "lockAccount",
					"outputs": [],
					"stateMutability": "nonpayable",
					"type": "function"
				},
				{
					"inputs": [
						{
							"internalType": "address",
							"name": "to",
							"type": "address"
						},
						{
							"internalType": "uint256",
							"name": "amount",
							"type": "uint256"
						}
					],
					"name": "mint",
					"outputs": [],
					"stateMutability": "nonpayable",
					"type": "function"
				},
				{
					"inputs": [],
					"name": "name",
					"outputs": [
						{
							"internalType": "string",
							"name": "",
							"type": "string"
						}
					],
					"stateMutability": "view",
					"type": "function"
				},
				{
					"inputs": [],
					"name": "owner",
					"outputs": [
						{
							"internalType": "address",
							"name": "",
							"type": "address"
						}
					],
					"stateMutability": "view",
					"type": "function"
				},
				{
					"inputs": [],
					"name": "pause",
					"outputs": [],
					"stateMutability": "nonpayable",
					"type": "function"
				},
				{
					"inputs": [],
					"name": "paused",
					"outputs": [
						{
							"internalType": "bool",
							"name": "",
							"type": "bool"
						}
					],
					"stateMutability": "view",
					"type": "function"
				},
				{
					"inputs": [],
					"name": "renounceOwnership",
					"outputs": [],
					"stateMutability": "nonpayable",
					"type": "function"
				},
				{
					"inputs": [
						{
							"internalType": "uint256",
							"name": "newBaseRate",
							"type": "uint256"
						},
						{
							"internalType": "uint256",
							"name": "newAdoptionFactor",
							"type": "uint256"
						},
						{
							"internalType": "uint256",
							"name": "newAdoptionPercentage",
							"type": "uint256"
						}
					],
					"name": "setGeneralFee",
					"outputs": [],
					"stateMutability": "nonpayable",
					"type": "function"
				},
				{
					"inputs": [
						{
							"internalType": "uint256",
							"name": "lockDuration",
							"type": "uint256"
						}
					],
					"name": "setTransferLock",
					"outputs": [],
					"stateMutability": "nonpayable",
					"type": "function"
				},
				{
					"inputs": [],
					"name": "setTransferUnlock",
					"outputs": [],
					"stateMutability": "nonpayable",
					"type": "function"
				},
				{
					"inputs": [],
					"name": "symbol",
					"outputs": [
						{
							"internalType": "string",
							"name": "",
							"type": "string"
						}
					],
					"stateMutability": "view",
					"type": "function"
				},
				{
					"inputs": [],
					"name": "totalSupply",
					"outputs": [
						{
							"internalType": "uint256",
							"name": "",
							"type": "uint256"
						}
					],
					"stateMutability": "view",
					"type": "function"
				},
				{
					"inputs": [
						{
							"internalType": "address",
							"name": "recipient",
							"type": "address"
						},
						{
							"internalType": "uint256",
							"name": "amount",
							"type": "uint256"
						}
					],
					"name": "transfer",
					"outputs": [
						{
							"internalType": "bool",
							"name": "",
							"type": "bool"
						}
					],
					"stateMutability": "nonpayable",
					"type": "function"
				},
				{
					"inputs": [
						{
							"internalType": "address",
							"name": "sender",
							"type": "address"
						},
						{
							"internalType": "address",
							"name": "recipient",
							"type": "address"
						},
						{
							"internalType": "uint256",
							"name": "amount",
							"type": "uint256"
						}
					],
					"name": "transferFrom",
					"outputs": [
						{
							"internalType": "bool",
							"name": "",
							"type": "bool"
						}
					],
					"stateMutability": "nonpayable",
					"type": "function"
				},
				{
					"inputs": [
						{
							"internalType": "address",
							"name": "newOwner",
							"type": "address"
						}
					],
					"name": "transferOwnership",
					"outputs": [],
					"stateMutability": "nonpayable",
					"type": "function"
				},
				{
					"inputs": [
						{
							"internalType": "address",
							"name": "account",
							"type": "address"
						}
					],
					"name": "unlockAccount",
					"outputs": [],
					"stateMutability": "nonpayable",
					"type": "function"
				},
				{
					"inputs": [],
					"name": "unpause",
					"outputs": [],
					"stateMutability": "nonpayable",
					"type": "function"
				}
			],
			"devdoc": {
				"errors": {
					"ERC20InsufficientAllowance(address,uint256,uint256)": [
						{
							"details": "Indicates a failure with the `spender`’s `allowance`. Used in transfers.",
							"params": {
								"allowance": "Amount of tokens a `spender` is allowed to operate with.",
								"needed": "Minimum amount required to perform a transfer.",
								"spender": "Address that may be allowed to operate on tokens without being their owner."
							}
						}
					],
					"ERC20InsufficientBalance(address,uint256,uint256)": [
						{
							"details": "Indicates an error related to the current `balance` of a `sender`. Used in transfers.",
							"params": {
								"balance": "Current balance for the interacting account.",
								"needed": "Minimum amount required to perform a transfer.",
								"sender": "Address whose tokens are being transferred."
							}
						}
					],
					"ERC20InvalidApprover(address)": [
						{
							"details": "Indicates a failure with the `approver` of a token to be approved. Used in approvals.",
							"params": {
								"approver": "Address initiating an approval operation."
							}
						}
					],
					"ERC20InvalidReceiver(address)": [
						{
							"details": "Indicates a failure with the token `receiver`. Used in transfers.",
							"params": {
								"receiver": "Address to which tokens are being transferred."
							}
						}
					],
					"ERC20InvalidSender(address)": [
						{
							"details": "Indicates a failure with the token `sender`. Used in transfers.",
							"params": {
								"sender": "Address whose tokens are being transferred."
							}
						}
					],
					"ERC20InvalidSpender(address)": [
						{
							"details": "Indicates a failure with the `spender` to be approved. Used in approvals.",
							"params": {
								"spender": "Address that may be allowed to operate on tokens without being their owner."
							}
						}
					],
					"OwnableInvalidOwner(address)": [
						{
							"details": "The owner is not a valid owner account. (eg. `address(0)`)"
						}
					],
					"OwnableUnauthorizedAccount(address)": [
						{
							"details": "The caller account is not authorized to perform an operation."
						}
					]
				},
				"events": {
					"Approval(address,address,uint256)": {
						"details": "Emitted when the allowance of a `spender` for an `owner` is set by a call to {approve}. `value` is the new allowance."
					},
					"Paused(address)": {
						"details": "Emitted when the pause is triggered by `account`."
					},
					"Transfer(address,address,uint256)": {
						"details": "Emitted when `value` tokens are moved from one account (`from`) to another (`to`). Note that `value` may be zero."
					},
					"Unpaused(address)": {
						"details": "Emitted when the pause is lifted by `account`."
					}
				},
				"kind": "dev",
				"methods": {
					"allowance(address,address)": {
						"details": "See {IERC20-allowance}."
					},
					"approve(address,uint256)": {
						"details": "See {IERC20-approve}. NOTE: If `value` is the maximum `uint256`, the allowance is not updated on `transferFrom`. This is semantically equivalent to an infinite approval. Requirements: - `spender` cannot be the zero address."
					},
					"balanceOf(address)": {
						"details": "See {IERC20-balanceOf}."
					},
					"decimals()": {
						"details": "Returns the number of decimals used to get its user representation. For example, if `decimals` equals `2`, a balance of `505` tokens should be displayed to a user as `5.05` (`505 / 10 ** 2`). Tokens usually opt for a value of 18, imitating the relationship between Ether and Wei. This is the default value returned by this function, unless it's overridden. NOTE: This information is only used for _display_ purposes: it in no way affects any of the arithmetic of the contract, including {IERC20-balanceOf} and {IERC20-transfer}."
					},
					"name()": {
						"details": "Returns the name of the token."
					},
					"owner()": {
						"details": "Returns the address of the current owner."
					},
					"paused()": {
						"details": "Returns true if the contract is paused, and false otherwise."
					},
					"renounceOwnership()": {
						"details": "Leaves the contract without owner. It will not be possible to call `onlyOwner` functions. Can only be called by the current owner. NOTE: Renouncing ownership will leave the contract without an owner, thereby disabling any functionality that is only available to the owner."
					},
					"symbol()": {
						"details": "Returns the symbol of the token, usually a shorter version of the name."
					},
					"totalSupply()": {
						"details": "See {IERC20-totalSupply}."
					},
					"transferOwnership(address)": {
						"details": "Transfers ownership of the contract to a new account (`newOwner`). Can only be called by the current owner."
					}
				},
				"version": 1
			},
			"evm": {
				"assembly": "    /* \"contracts/NNTHToken.sol\":223:5133  contract NNTHToken is ERC20, Ownable, Pausable {... */\n  mstore(0x40, 0x80)\n    /* \"contracts/NNTHToken.sol\":394:395  1 */\n  0x01\n    /* \"contracts/NNTHToken.sol\":368:395  uint256 public baseRate = 1 */\n  0x08\n  sstore\n    /* \"contracts/NNTHToken.sol\":465:466  1 */\n  0x01\n    /* \"contracts/NNTHToken.sol\":433:466  uint256 public adoptionFactor = 1 */\n  0x09\n  sstore\n    /* \"contracts/NNTHToken.sol\":527:528  0 */\n  0x00\n    /* \"contracts/NNTHToken.sol\":491:528  uint256 public adoptionPercentage = 0 */\n  0x0a\n  sstore\n    /* \"contracts/NNTHToken.sol\":1748:2067  constructor(... */\n  callvalue\n  dup1\n  iszero\n  tag_1\n  jumpi\n  0x00\n  dup1\n  revert\ntag_1:\n  pop\n  mload(0x40)\n  sub(codesize, bytecodeSize)\n  dup1\n  bytecodeSize\n  dup4\n  codecopy\n  dup2\n  dup2\n  add\n  0x40\n  mstore\n  dup2\n  add\n  swap1\n  tag_2\n  swap2\n  swap1\n  tag_3\n  jump\t// in\ntag_2:\n    /* \"contracts/NNTHToken.sol\":1927:1939  initialOwner */\n  dup1\n    /* \"contracts/NNTHToken.sol\":1897:1901  name */\n  dup5\n    /* \"contracts/NNTHToken.sol\":1903:1909  symbol */\n  dup5\n    /* \"@openzeppelin/contracts/token/ERC20/ERC20.sol\":1970:1975  name_ */\n  dup2\n    /* \"@openzeppelin/contracts/token/ERC20/ERC20.sol\":1962:1967  _name */\n  0x03\n    /* \"@openzeppelin/contracts/token/ERC20/ERC20.sol\":1962:1975  _name = name_ */\n  swap1\n  dup2\n  tag_9\n  swap2\n  swap1\n  tag_10\n  jump\t// in\ntag_9:\n  pop\n    /* \"@openzeppelin/contracts/token/ERC20/ERC20.sol\":1995:2002  symbol_ */\n  dup1\n    /* \"@openzeppelin/contracts/token/ERC20/ERC20.sol\":1985:1992  _symbol */\n  0x04\n    /* \"@openzeppelin/contracts/token/ERC20/ERC20.sol\":1985:2002  _symbol = symbol_ */\n  swap1\n  dup2\n  tag_11\n  swap2\n  swap1\n  tag_10\n  jump\t// in\ntag_11:\n  pop\n    /* \"@openzeppelin/contracts/token/ERC20/ERC20.sol\":1896:2009  constructor(string memory name_, string memory symbol_) {... */\n  pop\n  pop\n    /* \"@openzeppelin/contracts/access/Ownable.sol\":1297:1298  0 */\n  0x00\n    /* \"@openzeppelin/contracts/access/Ownable.sol\":1273:1299  initialOwner == address(0) */\n  0xffffffffffffffffffffffffffffffffffffffff\n  and\n    /* \"@openzeppelin/contracts/access/Ownable.sol\":1273:1285  initialOwner */\n  dup2\n    /* \"@openzeppelin/contracts/access/Ownable.sol\":1273:1299  initialOwner == address(0) */\n  0xffffffffffffffffffffffffffffffffffffffff\n  and\n  sub\n    /* \"@openzeppelin/contracts/access/Ownable.sol\":1269:1364  if (initialOwner == address(0)) {... */\n  tag_13\n  jumpi\n    /* \"@openzeppelin/contracts/access/Ownable.sol\":1350:1351  0 */\n  0x00\n    /* \"@openzeppelin/contracts/access/Ownable.sol\":1322:1353  OwnableInvalidOwner(address(0)) */\n  mload(0x40)\n  0x1e4fbdf700000000000000000000000000000000000000000000000000000000\n  dup2\n  mstore\n  0x04\n  add\n  tag_14\n  swap2\n  swap1\n  tag_15\n  jump\t// in\ntag_14:\n  mload(0x40)\n  dup1\n  swap2\n  sub\n  swap1\n  revert\n    /* \"@openzeppelin/contracts/access/Ownable.sol\":1269:1364  if (initialOwner == address(0)) {... */\ntag_13:\n    /* \"@openzeppelin/contracts/access/Ownable.sol\":1373:1405  _transferOwnership(initialOwner) */\n  tag_16\n    /* \"@openzeppelin/contracts/access/Ownable.sol\":1392:1404  initialOwner */\n  dup2\n    /* \"@openzeppelin/contracts/access/Ownable.sol\":1373:1391  _transferOwnership */\n  shl(0x20, tag_17)\n    /* \"@openzeppelin/contracts/access/Ownable.sol\":1373:1405  _transferOwnership(initialOwner) */\n  0x20\n  shr\n  jump\t// in\ntag_16:\n    /* \"@openzeppelin/contracts/access/Ownable.sol\":1225:1412  constructor(address initialOwner) {... */\n  pop\n    /* \"@openzeppelin/contracts/security/Pausable.sol\":1006:1011  false */\n  0x00\n    /* \"@openzeppelin/contracts/security/Pausable.sol\":996:1003  _paused */\n  0x05\n  0x14\n    /* \"@openzeppelin/contracts/security/Pausable.sol\":996:1011  _paused = false */\n  0x0100\n  exp\n  dup2\n  sload\n  dup2\n  0xff\n  mul\n  not\n  and\n  swap1\n  dup4\n  iszero\n  iszero\n  mul\n  or\n  swap1\n  sstore\n  pop\n    /* \"contracts/NNTHToken.sol\":1955:1976  uint256 initialSupply */\n  0x00\n    /* \"contracts/NNTHToken.sol\":2005:2015  decimals() */\n  tag_20\n    /* \"contracts/NNTHToken.sol\":2005:2013  decimals */\n  shl(0x20, tag_21)\n    /* \"contracts/NNTHToken.sol\":2005:2015  decimals() */\n  0x20\n  shr\n  jump\t// in\ntag_20:\n    /* \"contracts/NNTHToken.sol\":1997:2016  uint256(decimals()) */\n  0xff\n  and\n    /* \"contracts/NNTHToken.sol\":1993:1995  10 */\n  0x0a\n    /* \"contracts/NNTHToken.sol\":1993:2016  10**uint256(decimals()) */\n  tag_22\n  swap2\n  swap1\n  tag_23\n  jump\t// in\ntag_22:\n    /* \"contracts/NNTHToken.sol\":1979:1990  totalSupply */\n  dup4\n    /* \"contracts/NNTHToken.sol\":1979:2016  totalSupply * 10**uint256(decimals()) */\n  tag_24\n  swap2\n  swap1\n  tag_25\n  jump\t// in\ntag_24:\n    /* \"contracts/NNTHToken.sol\":1955:2016  uint256 initialSupply = totalSupply * 10**uint256(decimals()) */\n  swap1\n  pop\n    /* \"contracts/NNTHToken.sol\":2026:2060  _mint(initialOwner, initialSupply) */\n  tag_26\n    /* \"contracts/NNTHToken.sol\":2032:2044  initialOwner */\n  dup3\n    /* \"contracts/NNTHToken.sol\":2046:2059  initialSupply */\n  dup3\n    /* \"contracts/NNTHToken.sol\":2026:2031  _mint */\n  shl(0x20, tag_27)\n    /* \"contracts/NNTHToken.sol\":2026:2060  _mint(initialOwner, initialSupply) */\n  0x20\n  shr\n  jump\t// in\ntag_26:\n    /* \"contracts/NNTHToken.sol\":1945:2067  {... */\n  pop\n    /* \"contracts/NNTHToken.sol\":1748:2067  constructor(... */\n  pop\n  pop\n  pop\n  pop\n    /* \"contracts/NNTHToken.sol\":223:5133  contract NNTHToken is ERC20, Ownable, Pausable {... */\n  jump(tag_28)\n    /* \"@openzeppelin/contracts/access/Ownable.sol\":2912:3099  function _transferOwnership(address newOwner) internal virtual {... */\ntag_17:\n    /* \"@openzeppelin/contracts/access/Ownable.sol\":2985:3001  address oldOwner */\n  0x00\n    /* \"@openzeppelin/contracts/access/Ownable.sol\":3004:3010  _owner */\n  0x05\n  0x00\n  swap1\n  sload\n  swap1\n  0x0100\n  exp\n  swap1\n  div\n  0xffffffffffffffffffffffffffffffffffffffff\n  and\n    /* \"@openzeppelin/contracts/access/Ownable.sol\":2985:3010  address oldOwner = _owner */\n  swap1\n  pop\n    /* \"@openzeppelin/contracts/access/Ownable.sol\":3029:3037  newOwner */\n  dup2\n    /* \"@openzeppelin/contracts/access/Ownable.sol\":3020:3026  _owner */\n  0x05\n  0x00\n    /* \"@openzeppelin/contracts/access/Ownable.sol\":3020:3037  _owner = newOwner */\n  0x0100\n  exp\n  dup2\n  sload\n  dup2\n  0xffffffffffffffffffffffffffffffffffffffff\n  mul\n  not\n  and\n  swap1\n  dup4\n  0xffffffffffffffffffffffffffffffffffffffff\n  and\n  mul\n  or\n  swap1\n  sstore\n  pop\n    /* \"@openzeppelin/contracts/access/Ownable.sol\":3083:3091  newOwner */\n  dup2\n    /* \"@openzeppelin/contracts/access/Ownable.sol\":3052:3092  OwnershipTransferred(oldOwner, newOwner) */\n  0xffffffffffffffffffffffffffffffffffffffff\n  and\n    /* \"@openzeppelin/contracts/access/Ownable.sol\":3073:3081  oldOwner */\n  dup2\n    /* \"@openzeppelin/contracts/access/Ownable.sol\":3052:3092  OwnershipTransferred(oldOwner, newOwner) */\n  0xffffffffffffffffffffffffffffffffffffffff\n  and\n  0x8be0079c531659141344cd1fd0a4f28419497f9722a3daafe3b4186f6b6457e0\n  mload(0x40)\n  mload(0x40)\n  dup1\n  swap2\n  sub\n  swap1\n  log3\n    /* \"@openzeppelin/contracts/access/Ownable.sol\":2975:3099  {... */\n  pop\n    /* \"@openzeppelin/contracts/access/Ownable.sol\":2912:3099  function _transferOwnership(address newOwner) internal virtual {... */\n  pop\n  jump\t// out\n    /* \"@openzeppelin/contracts/token/ERC20/ERC20.sol\":3002:3084  function decimals() public view virtual returns (uint8) {... */\ntag_21:\n    /* \"@openzeppelin/contracts/token/ERC20/ERC20.sol\":3051:3056  uint8 */\n  0x00\n    /* \"@openzeppelin/contracts/token/ERC20/ERC20.sol\":3075:3077  18 */\n  0x12\n    /* \"@openzeppelin/contracts/token/ERC20/ERC20.sol\":3068:3077  return 18 */\n  swap1\n  pop\n    /* \"@openzeppelin/contracts/token/ERC20/ERC20.sol\":3002:3084  function decimals() public view virtual returns (uint8) {... */\n  swap1\n  jump\t// out\n    /* \"@openzeppelin/contracts/token/ERC20/ERC20.sol\":7721:7929  function _mint(address account, uint256 value) internal {... */\ntag_27:\n    /* \"@openzeppelin/contracts/token/ERC20/ERC20.sol\":7810:7811  0 */\n  0x00\n    /* \"@openzeppelin/contracts/token/ERC20/ERC20.sol\":7791:7812  account == address(0) */\n  0xffffffffffffffffffffffffffffffffffffffff\n  and\n    /* \"@openzeppelin/contracts/token/ERC20/ERC20.sol\":7791:7798  account */\n  dup3\n    /* \"@openzeppelin/contracts/token/ERC20/ERC20.sol\":7791:7812  account == address(0) */\n  0xffffffffffffffffffffffffffffffffffffffff\n  and\n  sub\n    /* \"@openzeppelin/contracts/token/ERC20/ERC20.sol\":7787:7878  if (account == address(0)) {... */\n  tag_32\n  jumpi\n    /* \"@openzeppelin/contracts/token/ERC20/ERC20.sol\":7864:7865  0 */\n  0x00\n    /* \"@openzeppelin/contracts/token/ERC20/ERC20.sol\":7835:7867  ERC20InvalidReceiver(address(0)) */\n  mload(0x40)\n  0xec442f0500000000000000000000000000000000000000000000000000000000\n  dup2\n  mstore\n  0x04\n  add\n  tag_33\n  swap2\n  swap1\n  tag_15\n  jump\t// in\ntag_33:\n  mload(0x40)\n  dup1\n  swap2\n  sub\n  swap1\n  revert\n    /* \"@openzeppelin/contracts/token/ERC20/ERC20.sol\":7787:7878  if (account == address(0)) {... */\ntag_32:\n    /* \"@openzeppelin/contracts/token/ERC20/ERC20.sol\":7887:7922  _update(address(0), account, value) */\n  tag_34\n    /* \"@openzeppelin/contracts/token/ERC20/ERC20.sol\":7903:7904  0 */\n  0x00\n    /* \"@openzeppelin/contracts/token/ERC20/ERC20.sol\":7907:7914  account */\n  dup4\n    /* \"@openzeppelin/contracts/token/ERC20/ERC20.sol\":7916:7921  value */\n  dup4\n    /* \"@openzeppelin/contracts/token/ERC20/ERC20.sol\":7887:7894  _update */\n  shl(0x20, tag_35)\n    /* \"@openzeppelin/contracts/token/ERC20/ERC20.sol\":7887:7922  _update(address(0), account, value) */\n  0x20\n  shr\n  jump\t// in\ntag_34:\n    /* \"@openzeppelin/contracts/token/ERC20/ERC20.sol\":7721:7929  function _mint(address account, uint256 value) internal {... */\n  pop\n  pop\n  jump\t// out\n    /* \"@openzeppelin/contracts/token/ERC20/ERC20.sol\":6271:7378  function _update(address from, address to, uint256 value) internal virtual {... */\ntag_35:\n    /* \"@openzeppelin/contracts/token/ERC20/ERC20.sol\":6376:6377  0 */\n  0x00\n    /* \"@openzeppelin/contracts/token/ERC20/ERC20.sol\":6360:6378  from == address(0) */\n  0xffffffffffffffffffffffffffffffffffffffff\n  and\n    /* \"@openzeppelin/contracts/token/ERC20/ERC20.sol\":6360:6364  from */\n  dup4\n    /* \"@openzeppelin/contracts/token/ERC20/ERC20.sol\":6360:6378  from == address(0) */\n  0xffffffffffffffffffffffffffffffffffffffff\n  and\n  sub\n    /* \"@openzeppelin/contracts/token/ERC20/ERC20.sol\":6356:6896  if (from == address(0)) {... */\n  tag_37\n  jumpi\n    /* \"@openzeppelin/contracts/token/ERC20/ERC20.sol\":6512:6517  value */\n  dup1\n    /* \"@openzeppelin/contracts/token/ERC20/ERC20.sol\":6496:6508  _totalSupply */\n  0x02\n  0x00\n    /* \"@openzeppelin/contracts/token/ERC20/ERC20.sol\":6496:6517  _totalSupply += value */\n  dup3\n  dup3\n  sload\n  tag_38\n  swap2\n  swap1\n  tag_39\n  jump\t// in\ntag_38:\n  swap3\n  pop\n  pop\n  dup2\n  swap1\n  sstore\n  pop\n    /* \"@openzeppelin/contracts/token/ERC20/ERC20.sol\":6356:6896  if (from == address(0)) {... */\n  jump(tag_40)\ntag_37:\n    /* \"@openzeppelin/contracts/token/ERC20/ERC20.sol\":6548:6567  uint256 fromBalance */\n  0x00\n    /* \"@openzeppelin/contracts/token/ERC20/ERC20.sol\":6570:6579  _balances */\n  dup1\n    /* \"@openzeppelin/contracts/token/ERC20/ERC20.sol\":6570:6585  _balances[from] */\n  0x00\n    /* \"@openzeppelin/contracts/token/ERC20/ERC20.sol\":6580:6584  from */\n  dup6\n    /* \"@openzeppelin/contracts/token/ERC20/ERC20.sol\":6570:6585  _balances[from] */\n  0xffffffffffffffffffffffffffffffffffffffff\n  and\n  0xffffffffffffffffffffffffffffffffffffffff\n  and\n  dup2\n  mstore\n  0x20\n  add\n  swap1\n  dup2\n  mstore\n  0x20\n  add\n  0x00\n  keccak256\n  sload\n    /* \"@openzeppelin/contracts/token/ERC20/ERC20.sol\":6548:6585  uint256 fromBalance = _balances[from] */\n  swap1\n  pop\n    /* \"@openzeppelin/contracts/token/ERC20/ERC20.sol\":6617:6622  value */\n  dup2\n    /* \"@openzeppelin/contracts/token/ERC20/ERC20.sol\":6603:6614  fromBalance */\n  dup2\n    /* \"@openzeppelin/contracts/token/ERC20/ERC20.sol\":6603:6622  fromBalance < value */\n  lt\n    /* \"@openzeppelin/contracts/token/ERC20/ERC20.sol\":6599:6714  if (fromBalance < value) {... */\n  iszero\n  tag_41\n  jumpi\n    /* \"@openzeppelin/contracts/token/ERC20/ERC20.sol\":6674:6678  from */\n  dup4\n    /* \"@openzeppelin/contracts/token/ERC20/ERC20.sol\":6680:6691  fromBalance */\n  dup2\n    /* \"@openzeppelin/contracts/token/ERC20/ERC20.sol\":6693:6698  value */\n  dup4\n    /* \"@openzeppelin/contracts/token/ERC20/ERC20.sol\":6649:6699  ERC20InsufficientBalance(from, fromBalance, value) */\n  mload(0x40)\n  0xe450d38c00000000000000000000000000000000000000000000000000000000\n  dup2\n  mstore\n  0x04\n  add\n  tag_42\n  swap4\n  swap3\n  swap2\n  swap1\n  tag_43\n  jump\t// in\ntag_42:\n  mload(0x40)\n  dup1\n  swap2\n  sub\n  swap1\n  revert\n    /* \"@openzeppelin/contracts/token/ERC20/ERC20.sol\":6599:6714  if (fromBalance < value) {... */\ntag_41:\n    /* \"@openzeppelin/contracts/token/ERC20/ERC20.sol\":6866:6871  value */\n  dup2\n    /* \"@openzeppelin/contracts/token/ERC20/ERC20.sol\":6852:6863  fromBalance */\n  dup2\n    /* \"@openzeppelin/contracts/token/ERC20/ERC20.sol\":6852:6871  fromBalance - value */\n  sub\n    /* \"@openzeppelin/contracts/token/ERC20/ERC20.sol\":6834:6843  _balances */\n  0x00\n    /* \"@openzeppelin/contracts/token/ERC20/ERC20.sol\":6834:6849  _balances[from] */\n  dup1\n    /* \"@openzeppelin/contracts/token/ERC20/ERC20.sol\":6844:6848  from */\n  dup7\n    /* \"@openzeppelin/contracts/token/ERC20/ERC20.sol\":6834:6849  _balances[from] */\n  0xffffffffffffffffffffffffffffffffffffffff\n  and\n  0xffffffffffffffffffffffffffffffffffffffff\n  and\n  dup2\n  mstore\n  0x20\n  add\n  swap1\n  dup2\n  mstore\n  0x20\n  add\n  0x00\n  keccak256\n    /* \"@openzeppelin/contracts/token/ERC20/ERC20.sol\":6834:6871  _balances[from] = fromBalance - value */\n  dup2\n  swap1\n  sstore\n  pop\n    /* \"@openzeppelin/contracts/token/ERC20/ERC20.sol\":6534:6896  {... */\n  pop\n    /* \"@openzeppelin/contracts/token/ERC20/ERC20.sol\":6356:6896  if (from == address(0)) {... */\ntag_40:\n    /* \"@openzeppelin/contracts/token/ERC20/ERC20.sol\":6924:6925  0 */\n  0x00\n    /* \"@openzeppelin/contracts/token/ERC20/ERC20.sol\":6910:6926  to == address(0) */\n  0xffffffffffffffffffffffffffffffffffffffff\n  and\n    /* \"@openzeppelin/contracts/token/ERC20/ERC20.sol\":6910:6912  to */\n  dup3\n    /* \"@openzeppelin/contracts/token/ERC20/ERC20.sol\":6910:6926  to == address(0) */\n  0xffffffffffffffffffffffffffffffffffffffff\n  and\n  sub\n    /* \"@openzeppelin/contracts/token/ERC20/ERC20.sol\":6906:7331  if (to == address(0)) {... */\n  tag_44\n  jumpi\n    /* \"@openzeppelin/contracts/token/ERC20/ERC20.sol\":7089:7094  value */\n  dup1\n    /* \"@openzeppelin/contracts/token/ERC20/ERC20.sol\":7073:7085  _totalSupply */\n  0x02\n  0x00\n    /* \"@openzeppelin/contracts/token/ERC20/ERC20.sol\":7073:7094  _totalSupply -= value */\n  dup3\n  dup3\n  sload\n  sub\n  swap3\n  pop\n  pop\n  dup2\n  swap1\n  sstore\n  pop\n    /* \"@openzeppelin/contracts/token/ERC20/ERC20.sol\":6906:7331  if (to == address(0)) {... */\n  jump(tag_45)\ntag_44:\n    /* \"@openzeppelin/contracts/token/ERC20/ERC20.sol\":7301:7306  value */\n  dup1\n    /* \"@openzeppelin/contracts/token/ERC20/ERC20.sol\":7284:7293  _balances */\n  0x00\n    /* \"@openzeppelin/contracts/token/ERC20/ERC20.sol\":7284:7297  _balances[to] */\n  dup1\n    /* \"@openzeppelin/contracts/token/ERC20/ERC20.sol\":7294:7296  to */\n  dup5\n    /* \"@openzeppelin/contracts/token/ERC20/ERC20.sol\":7284:7297  _balances[to] */\n  0xffffffffffffffffffffffffffffffffffffffff\n  and\n  0xffffffffffffffffffffffffffffffffffffffff\n  and\n  dup2\n  mstore\n  0x20\n  add\n  swap1\n  dup2\n  mstore\n  0x20\n  add\n  0x00\n  keccak256\n  0x00\n    /* \"@openzeppelin/contracts/token/ERC20/ERC20.sol\":7284:7306  _balances[to] += value */\n  dup3\n  dup3\n  sload\n  add\n  swap3\n  pop\n  pop\n  dup2\n  swap1\n  sstore\n  pop\n    /* \"@openzeppelin/contracts/token/ERC20/ERC20.sol\":6906:7331  if (to == address(0)) {... */\ntag_45:\n    /* \"@openzeppelin/contracts/token/ERC20/ERC20.sol\":7361:7363  to */\n  dup2\n    /* \"@openzeppelin/contracts/token/ERC20/ERC20.sol\":7346:7371  Transfer(from, to, value) */\n  0xffffffffffffffffffffffffffffffffffffffff\n  and\n    /* \"@openzeppelin/contracts/token/ERC20/ERC20.sol\":7355:7359  from */\n  dup4\n    /* \"@openzeppelin/contracts/token/ERC20/ERC20.sol\":7346:7371  Transfer(from, to, value) */\n  0xffffffffffffffffffffffffffffffffffffffff\n  and\n  0xddf252ad1be2c89b69c2b068fc378daa952ba7f163c4a11628f55a4df523b3ef\n    /* \"@openzeppelin/contracts/token/ERC20/ERC20.sol\":7365:7370  value */\n  dup4\n    /* \"@openzeppelin/contracts/token/ERC20/ERC20.sol\":7346:7371  Transfer(from, to, value) */\n  mload(0x40)\n  tag_46\n  swap2\n  swap1\n  tag_47\n  jump\t// in\ntag_46:\n  mload(0x40)\n  dup1\n  swap2\n  sub\n  swap1\n  log3\n    /* \"@openzeppelin/contracts/token/ERC20/ERC20.sol\":6271:7378  function _update(address from, address to, uint256 value) internal virtual {... */\n  pop\n  pop\n  pop\n  jump\t// out\n    /* \"#utility.yul\":7:82   */\ntag_48:\n    /* \"#utility.yul\":40:46   */\n  0x00\n    /* \"#utility.yul\":73:75   */\n  0x40\n    /* \"#utility.yul\":67:76   */\n  mload\n    /* \"#utility.yul\":57:76   */\n  swap1\n  pop\n    /* \"#utility.yul\":7:82   */\n  swap1\n  jump\t// out\n    /* \"#utility.yul\":88:205   */\ntag_49:\n    /* \"#utility.yul\":197:198   */\n  0x00\n    /* \"#utility.yul\":194:195   */\n  dup1\n    /* \"#utility.yul\":187:199   */\n  revert\n    /* \"#utility.yul\":211:328   */\ntag_50:\n    /* \"#utility.yul\":320:321   */\n  0x00\n    /* \"#utility.yul\":317:318   */\n  dup1\n    /* \"#utility.yul\":310:322   */\n  revert\n    /* \"#utility.yul\":334:451   */\ntag_51:\n    /* \"#utility.yul\":443:444   */\n  0x00\n    /* \"#utility.yul\":440:441   */\n  dup1\n    /* \"#utility.yul\":433:445   */\n  revert\n    /* \"#utility.yul\":457:574   */\ntag_52:\n    /* \"#utility.yul\":566:567   */\n  0x00\n    /* \"#utility.yul\":563:564   */\n  dup1\n    /* \"#utility.yul\":556:568   */\n  revert\n    /* \"#utility.yul\":580:682   */\ntag_53:\n    /* \"#utility.yul\":621:627   */\n  0x00\n    /* \"#utility.yul\":672:674   */\n  0x1f\n    /* \"#utility.yul\":668:675   */\n  not\n    /* \"#utility.yul\":663:665   */\n  0x1f\n    /* \"#utility.yul\":656:661   */\n  dup4\n    /* \"#utility.yul\":652:666   */\n  add\n    /* \"#utility.yul\":648:676   */\n  and\n    /* \"#utility.yul\":638:676   */\n  swap1\n  pop\n    /* \"#utility.yul\":580:682   */\n  swap2\n  swap1\n  pop\n  jump\t// out\n    /* \"#utility.yul\":688:868   */\ntag_54:\n    /* \"#utility.yul\":736:813   */\n  0x4e487b7100000000000000000000000000000000000000000000000000000000\n    /* \"#utility.yul\":733:734   */\n  0x00\n    /* \"#utility.yul\":726:814   */\n  mstore\n    /* \"#utility.yul\":833:837   */\n  0x41\n    /* \"#utility.yul\":830:831   */\n  0x04\n    /* \"#utility.yul\":823:838   */\n  mstore\n    /* \"#utility.yul\":857:861   */\n  0x24\n    /* \"#utility.yul\":854:855   */\n  0x00\n    /* \"#utility.yul\":847:862   */\n  revert\n    /* \"#utility.yul\":874:1155   */\ntag_55:\n    /* \"#utility.yul\":957:984   */\n  tag_101\n    /* \"#utility.yul\":979:983   */\n  dup3\n    /* \"#utility.yul\":957:984   */\n  tag_53\n  jump\t// in\ntag_101:\n    /* \"#utility.yul\":949:955   */\n  dup2\n    /* \"#utility.yul\":945:985   */\n  add\n    /* \"#utility.yul\":1087:1093   */\n  dup2\n    /* \"#utility.yul\":1075:1085   */\n  dup2\n    /* \"#utility.yul\":1072:1094   */\n  lt\n    /* \"#utility.yul\":1051:1069   */\n  0xffffffffffffffff\n    /* \"#utility.yul\":1039:1049   */\n  dup3\n    /* \"#utility.yul\":1036:1070   */\n  gt\n    /* \"#utility.yul\":1033:1095   */\n  or\n    /* \"#utility.yul\":1030:1118   */\n  iszero\n  tag_102\n  jumpi\n    /* \"#utility.yul\":1098:1116   */\n  tag_103\n  tag_54\n  jump\t// in\ntag_103:\n    /* \"#utility.yul\":1030:1118   */\ntag_102:\n    /* \"#utility.yul\":1138:1148   */\n  dup1\n    /* \"#utility.yul\":1134:1136   */\n  0x40\n    /* \"#utility.yul\":1127:1149   */\n  mstore\n    /* \"#utility.yul\":917:1155   */\n  pop\n    /* \"#utility.yul\":874:1155   */\n  pop\n  pop\n  jump\t// out\n    /* \"#utility.yul\":1161:1290   */\ntag_56:\n    /* \"#utility.yul\":1195:1201   */\n  0x00\n    /* \"#utility.yul\":1222:1242   */\n  tag_105\n  tag_48\n  jump\t// in\ntag_105:\n    /* \"#utility.yul\":1212:1242   */\n  swap1\n  pop\n    /* \"#utility.yul\":1251:1284   */\n  tag_106\n    /* \"#utility.yul\":1279:1283   */\n  dup3\n    /* \"#utility.yul\":1271:1277   */\n  dup3\n    /* \"#utility.yul\":1251:1284   */\n  tag_55\n  jump\t// in\ntag_106:\n    /* \"#utility.yul\":1161:1290   */\n  swap2\n  swap1\n  pop\n  jump\t// out\n    /* \"#utility.yul\":1296:1604   */\ntag_57:\n    /* \"#utility.yul\":1358:1362   */\n  0x00\n    /* \"#utility.yul\":1448:1466   */\n  0xffffffffffffffff\n    /* \"#utility.yul\":1440:1446   */\n  dup3\n    /* \"#utility.yul\":1437:1467   */\n  gt\n    /* \"#utility.yul\":1434:1490   */\n  iszero\n  tag_108\n  jumpi\n    /* \"#utility.yul\":1470:1488   */\n  tag_109\n  tag_54\n  jump\t// in\ntag_109:\n    /* \"#utility.yul\":1434:1490   */\ntag_108:\n    /* \"#utility.yul\":1508:1537   */\n  tag_110\n    /* \"#utility.yul\":1530:1536   */\n  dup3\n    /* \"#utility.yul\":1508:1537   */\n  tag_53\n  jump\t// in\ntag_110:\n    /* \"#utility.yul\":1500:1537   */\n  swap1\n  pop\n    /* \"#utility.yul\":1592:1596   */\n  0x20\n    /* \"#utility.yul\":1586:1590   */\n  dup2\n    /* \"#utility.yul\":1582:1597   */\n  add\n    /* \"#utility.yul\":1574:1597   */\n  swap1\n  pop\n    /* \"#utility.yul\":1296:1604   */\n  swap2\n  swap1\n  pop\n  jump\t// out\n    /* \"#utility.yul\":1610:1856   */\ntag_58:\n    /* \"#utility.yul\":1691:1692   */\n  0x00\n    /* \"#utility.yul\":1701:1814   */\ntag_112:\n    /* \"#utility.yul\":1715:1721   */\n  dup4\n    /* \"#utility.yul\":1712:1713   */\n  dup2\n    /* \"#utility.yul\":1709:1722   */\n  lt\n    /* \"#utility.yul\":1701:1814   */\n  iszero\n  tag_114\n  jumpi\n    /* \"#utility.yul\":1800:1801   */\n  dup1\n    /* \"#utility.yul\":1795:1798   */\n  dup3\n    /* \"#utility.yul\":1791:1802   */\n  add\n    /* \"#utility.yul\":1785:1803   */\n  mload\n    /* \"#utility.yul\":1781:1782   */\n  dup2\n    /* \"#utility.yul\":1776:1779   */\n  dup5\n    /* \"#utility.yul\":1772:1783   */\n  add\n    /* \"#utility.yul\":1765:1804   */\n  mstore\n    /* \"#utility.yul\":1737:1739   */\n  0x20\n    /* \"#utility.yul\":1734:1735   */\n  dup2\n    /* \"#utility.yul\":1730:1740   */\n  add\n    /* \"#utility.yul\":1725:1740   */\n  swap1\n  pop\n    /* \"#utility.yul\":1701:1814   */\n  jump(tag_112)\ntag_114:\n    /* \"#utility.yul\":1848:1849   */\n  0x00\n    /* \"#utility.yul\":1839:1845   */\n  dup5\n    /* \"#utility.yul\":1834:1837   */\n  dup5\n    /* \"#utility.yul\":1830:1846   */\n  add\n    /* \"#utility.yul\":1823:1850   */\n  mstore\n    /* \"#utility.yul\":1672:1856   */\n  pop\n    /* \"#utility.yul\":1610:1856   */\n  pop\n  pop\n  pop\n  jump\t// out\n    /* \"#utility.yul\":1862:2296   */\ntag_59:\n    /* \"#utility.yul\":1951:1956   */\n  0x00\n    /* \"#utility.yul\":1976:2042   */\n  tag_116\n    /* \"#utility.yul\":1992:2041   */\n  tag_117\n    /* \"#utility.yul\":2034:2040   */\n  dup5\n    /* \"#utility.yul\":1992:2041   */\n  tag_57\n  jump\t// in\ntag_117:\n    /* \"#utility.yul\":1976:2042   */\n  tag_56\n  jump\t// in\ntag_116:\n    /* \"#utility.yul\":1967:2042   */\n  swap1\n  pop\n    /* \"#utility.yul\":2065:2071   */\n  dup3\n    /* \"#utility.yul\":2058:2063   */\n  dup2\n    /* \"#utility.yul\":2051:2072   */\n  mstore\n    /* \"#utility.yul\":2103:2107   */\n  0x20\n    /* \"#utility.yul\":2096:2101   */\n  dup2\n    /* \"#utility.yul\":2092:2108   */\n  add\n    /* \"#utility.yul\":2141:2144   */\n  dup5\n    /* \"#utility.yul\":2132:2138   */\n  dup5\n    /* \"#utility.yul\":2127:2130   */\n  dup5\n    /* \"#utility.yul\":2123:2139   */\n  add\n    /* \"#utility.yul\":2120:2145   */\n  gt\n    /* \"#utility.yul\":2117:2229   */\n  iszero\n  tag_118\n  jumpi\n    /* \"#utility.yul\":2148:2227   */\n  tag_119\n  tag_52\n  jump\t// in\ntag_119:\n    /* \"#utility.yul\":2117:2229   */\ntag_118:\n    /* \"#utility.yul\":2238:2290   */\n  tag_120\n    /* \"#utility.yul\":2283:2289   */\n  dup5\n    /* \"#utility.yul\":2278:2281   */\n  dup3\n    /* \"#utility.yul\":2273:2276   */\n  dup6\n    /* \"#utility.yul\":2238:2290   */\n  tag_58\n  jump\t// in\ntag_120:\n    /* \"#utility.yul\":1957:2296   */\n  pop\n    /* \"#utility.yul\":1862:2296   */\n  swap4\n  swap3\n  pop\n  pop\n  pop\n  jump\t// out\n    /* \"#utility.yul\":2316:2671   */\ntag_60:\n    /* \"#utility.yul\":2383:2388   */\n  0x00\n    /* \"#utility.yul\":2432:2435   */\n  dup3\n    /* \"#utility.yul\":2425:2429   */\n  0x1f\n    /* \"#utility.yul\":2417:2423   */\n  dup4\n    /* \"#utility.yul\":2413:2430   */\n  add\n    /* \"#utility.yul\":2409:2436   */\n  slt\n    /* \"#utility.yul\":2399:2521   */\n  tag_122\n  jumpi\n    /* \"#utility.yul\":2440:2519   */\n  tag_123\n  tag_51\n  jump\t// in\ntag_123:\n    /* \"#utility.yul\":2399:2521   */\ntag_122:\n    /* \"#utility.yul\":2550:2556   */\n  dup2\n    /* \"#utility.yul\":2544:2557   */\n  mload\n    /* \"#utility.yul\":2575:2665   */\n  tag_124\n    /* \"#utility.yul\":2661:2664   */\n  dup5\n    /* \"#utility.yul\":2653:2659   */\n  dup3\n    /* \"#utility.yul\":2646:2650   */\n  0x20\n    /* \"#utility.yul\":2638:2644   */\n  dup7\n    /* \"#utility.yul\":2634:2651   */\n  add\n    /* \"#utility.yul\":2575:2665   */\n  tag_59\n  jump\t// in\ntag_124:\n    /* \"#utility.yul\":2566:2665   */\n  swap2\n  pop\n    /* \"#utility.yul\":2389:2671   */\n  pop\n    /* \"#utility.yul\":2316:2671   */\n  swap3\n  swap2\n  pop\n  pop\n  jump\t// out\n    /* \"#utility.yul\":2677:2754   */\ntag_61:\n    /* \"#utility.yul\":2714:2721   */\n  0x00\n    /* \"#utility.yul\":2743:2748   */\n  dup2\n    /* \"#utility.yul\":2732:2748   */\n  swap1\n  pop\n    /* \"#utility.yul\":2677:2754   */\n  swap2\n  swap1\n  pop\n  jump\t// out\n    /* \"#utility.yul\":2760:2882   */\ntag_62:\n    /* \"#utility.yul\":2833:2857   */\n  tag_127\n    /* \"#utility.yul\":2851:2856   */\n  dup2\n    /* \"#utility.yul\":2833:2857   */\n  tag_61\n  jump\t// in\ntag_127:\n    /* \"#utility.yul\":2826:2831   */\n  dup2\n    /* \"#utility.yul\":2823:2858   */\n  eq\n    /* \"#utility.yul\":2813:2876   */\n  tag_128\n  jumpi\n    /* \"#utility.yul\":2872:2873   */\n  0x00\n    /* \"#utility.yul\":2869:2870   */\n  dup1\n    /* \"#utility.yul\":2862:2874   */\n  revert\n    /* \"#utility.yul\":2813:2876   */\ntag_128:\n    /* \"#utility.yul\":2760:2882   */\n  pop\n  jump\t// out\n    /* \"#utility.yul\":2888:3031   */\ntag_63:\n    /* \"#utility.yul\":2945:2950   */\n  0x00\n    /* \"#utility.yul\":2976:2982   */\n  dup2\n    /* \"#utility.yul\":2970:2983   */\n  mload\n    /* \"#utility.yul\":2961:2983   */\n  swap1\n  pop\n    /* \"#utility.yul\":2992:3025   */\n  tag_130\n    /* \"#utility.yul\":3019:3024   */\n  dup2\n    /* \"#utility.yul\":2992:3025   */\n  tag_62\n  jump\t// in\ntag_130:\n    /* \"#utility.yul\":2888:3031   */\n  swap3\n  swap2\n  pop\n  pop\n  jump\t// out\n    /* \"#utility.yul\":3037:3163   */\ntag_64:\n    /* \"#utility.yul\":3074:3081   */\n  0x00\n    /* \"#utility.yul\":3114:3156   */\n  0xffffffffffffffffffffffffffffffffffffffff\n    /* \"#utility.yul\":3107:3112   */\n  dup3\n    /* \"#utility.yul\":3103:3157   */\n  and\n    /* \"#utility.yul\":3092:3157   */\n  swap1\n  pop\n    /* \"#utility.yul\":3037:3163   */\n  swap2\n  swap1\n  pop\n  jump\t// out\n    /* \"#utility.yul\":3169:3265   */\ntag_65:\n    /* \"#utility.yul\":3206:3213   */\n  0x00\n    /* \"#utility.yul\":3235:3259   */\n  tag_133\n    /* \"#utility.yul\":3253:3258   */\n  dup3\n    /* \"#utility.yul\":3235:3259   */\n  tag_64\n  jump\t// in\ntag_133:\n    /* \"#utility.yul\":3224:3259   */\n  swap1\n  pop\n    /* \"#utility.yul\":3169:3265   */\n  swap2\n  swap1\n  pop\n  jump\t// out\n    /* \"#utility.yul\":3271:3393   */\ntag_66:\n    /* \"#utility.yul\":3344:3368   */\n  tag_135\n    /* \"#utility.yul\":3362:3367   */\n  dup2\n    /* \"#utility.yul\":3344:3368   */\n  tag_65\n  jump\t// in\ntag_135:\n    /* \"#utility.yul\":3337:3342   */\n  dup2\n    /* \"#utility.yul\":3334:3369   */\n  eq\n    /* \"#utility.yul\":3324:3387   */\n  tag_136\n  jumpi\n    /* \"#utility.yul\":3383:3384   */\n  0x00\n    /* \"#utility.yul\":3380:3381   */\n  dup1\n    /* \"#utility.yul\":3373:3385   */\n  revert\n    /* \"#utility.yul\":3324:3387   */\ntag_136:\n    /* \"#utility.yul\":3271:3393   */\n  pop\n  jump\t// out\n    /* \"#utility.yul\":3399:3542   */\ntag_67:\n    /* \"#utility.yul\":3456:3461   */\n  0x00\n    /* \"#utility.yul\":3487:3493   */\n  dup2\n    /* \"#utility.yul\":3481:3494   */\n  mload\n    /* \"#utility.yul\":3472:3494   */\n  swap1\n  pop\n    /* \"#utility.yul\":3503:3536   */\n  tag_138\n    /* \"#utility.yul\":3530:3535   */\n  dup2\n    /* \"#utility.yul\":3503:3536   */\n  tag_66\n  jump\t// in\ntag_138:\n    /* \"#utility.yul\":3399:3542   */\n  swap3\n  swap2\n  pop\n  pop\n  jump\t// out\n    /* \"#utility.yul\":3548:4714   */\ntag_3:\n    /* \"#utility.yul\":3665:3671   */\n  0x00\n    /* \"#utility.yul\":3673:3679   */\n  dup1\n    /* \"#utility.yul\":3681:3687   */\n  0x00\n    /* \"#utility.yul\":3689:3695   */\n  dup1\n    /* \"#utility.yul\":3738:3741   */\n  0x80\n    /* \"#utility.yul\":3726:3735   */\n  dup6\n    /* \"#utility.yul\":3717:3724   */\n  dup8\n    /* \"#utility.yul\":3713:3736   */\n  sub\n    /* \"#utility.yul\":3709:3742   */\n  slt\n    /* \"#utility.yul\":3706:3826   */\n  iszero\n  tag_140\n  jumpi\n    /* \"#utility.yul\":3745:3824   */\n  tag_141\n  tag_49\n  jump\t// in\ntag_141:\n    /* \"#utility.yul\":3706:3826   */\ntag_140:\n    /* \"#utility.yul\":3886:3887   */\n  0x00\n    /* \"#utility.yul\":3875:3884   */\n  dup6\n    /* \"#utility.yul\":3871:3888   */\n  add\n    /* \"#utility.yul\":3865:3889   */\n  mload\n    /* \"#utility.yul\":3916:3934   */\n  0xffffffffffffffff\n    /* \"#utility.yul\":3908:3914   */\n  dup2\n    /* \"#utility.yul\":3905:3935   */\n  gt\n    /* \"#utility.yul\":3902:4019   */\n  iszero\n  tag_142\n  jumpi\n    /* \"#utility.yul\":3938:4017   */\n  tag_143\n  tag_50\n  jump\t// in\ntag_143:\n    /* \"#utility.yul\":3902:4019   */\ntag_142:\n    /* \"#utility.yul\":4043:4117   */\n  tag_144\n    /* \"#utility.yul\":4109:4116   */\n  dup8\n    /* \"#utility.yul\":4100:4106   */\n  dup3\n    /* \"#utility.yul\":4089:4098   */\n  dup9\n    /* \"#utility.yul\":4085:4107   */\n  add\n    /* \"#utility.yul\":4043:4117   */\n  tag_60\n  jump\t// in\ntag_144:\n    /* \"#utility.yul\":4033:4117   */\n  swap5\n  pop\n    /* \"#utility.yul\":3836:4127   */\n  pop\n    /* \"#utility.yul\":4187:4189   */\n  0x20\n    /* \"#utility.yul\":4176:4185   */\n  dup6\n    /* \"#utility.yul\":4172:4190   */\n  add\n    /* \"#utility.yul\":4166:4191   */\n  mload\n    /* \"#utility.yul\":4218:4236   */\n  0xffffffffffffffff\n    /* \"#utility.yul\":4210:4216   */\n  dup2\n    /* \"#utility.yul\":4207:4237   */\n  gt\n    /* \"#utility.yul\":4204:4321   */\n  iszero\n  tag_145\n  jumpi\n    /* \"#utility.yul\":4240:4319   */\n  tag_146\n  tag_50\n  jump\t// in\ntag_146:\n    /* \"#utility.yul\":4204:4321   */\ntag_145:\n    /* \"#utility.yul\":4345:4419   */\n  tag_147\n    /* \"#utility.yul\":4411:4418   */\n  dup8\n    /* \"#utility.yul\":4402:4408   */\n  dup3\n    /* \"#utility.yul\":4391:4400   */\n  dup9\n    /* \"#utility.yul\":4387:4409   */\n  add\n    /* \"#utility.yul\":4345:4419   */\n  tag_60\n  jump\t// in\ntag_147:\n    /* \"#utility.yul\":4335:4419   */\n  swap4\n  pop\n    /* \"#utility.yul\":4137:4429   */\n  pop\n    /* \"#utility.yul\":4468:4470   */\n  0x40\n    /* \"#utility.yul\":4494:4558   */\n  tag_148\n    /* \"#utility.yul\":4550:4557   */\n  dup8\n    /* \"#utility.yul\":4541:4547   */\n  dup3\n    /* \"#utility.yul\":4530:4539   */\n  dup9\n    /* \"#utility.yul\":4526:4548   */\n  add\n    /* \"#utility.yul\":4494:4558   */\n  tag_63\n  jump\t// in\ntag_148:\n    /* \"#utility.yul\":4484:4558   */\n  swap3\n  pop\n    /* \"#utility.yul\":4439:4568   */\n  pop\n    /* \"#utility.yul\":4607:4609   */\n  0x60\n    /* \"#utility.yul\":4633:4697   */\n  tag_149\n    /* \"#utility.yul\":4689:4696   */\n  dup8\n    /* \"#utility.yul\":4680:4686   */\n  dup3\n    /* \"#utility.yul\":4669:4678   */\n  dup9\n    /* \"#utility.yul\":4665:4687   */\n  add\n    /* \"#utility.yul\":4633:4697   */\n  tag_67\n  jump\t// in\ntag_149:\n    /* \"#utility.yul\":4623:4697   */\n  swap2\n  pop\n    /* \"#utility.yul\":4578:4707   */\n  pop\n    /* \"#utility.yul\":3548:4714   */\n  swap3\n  swap6\n  swap2\n  swap5\n  pop\n  swap3\n  pop\n  jump\t// out\n    /* \"#utility.yul\":4720:4819   */\ntag_68:\n    /* \"#utility.yul\":4772:4778   */\n  0x00\n    /* \"#utility.yul\":4806:4811   */\n  dup2\n    /* \"#utility.yul\":4800:4812   */\n  mload\n    /* \"#utility.yul\":4790:4812   */\n  swap1\n  pop\n    /* \"#utility.yul\":4720:4819   */\n  swap2\n  swap1\n  pop\n  jump\t// out\n    /* \"#utility.yul\":4825:5005   */\ntag_69:\n    /* \"#utility.yul\":4873:4950   */\n  0x4e487b7100000000000000000000000000000000000000000000000000000000\n    /* \"#utility.yul\":4870:4871   */\n  0x00\n    /* \"#utility.yul\":4863:4951   */\n  mstore\n    /* \"#utility.yul\":4970:4974   */\n  0x22\n    /* \"#utility.yul\":4967:4968   */\n  0x04\n    /* \"#utility.yul\":4960:4975   */\n  mstore\n    /* \"#utility.yul\":4994:4998   */\n  0x24\n    /* \"#utility.yul\":4991:4992   */\n  0x00\n    /* \"#utility.yul\":4984:4999   */\n  revert\n    /* \"#utility.yul\":5011:5331   */\ntag_70:\n    /* \"#utility.yul\":5055:5061   */\n  0x00\n    /* \"#utility.yul\":5092:5093   */\n  0x02\n    /* \"#utility.yul\":5086:5090   */\n  dup3\n    /* \"#utility.yul\":5082:5094   */\n  div\n    /* \"#utility.yul\":5072:5094   */\n  swap1\n  pop\n    /* \"#utility.yul\":5139:5140   */\n  0x01\n    /* \"#utility.yul\":5133:5137   */\n  dup3\n    /* \"#utility.yul\":5129:5141   */\n  and\n    /* \"#utility.yul\":5160:5178   */\n  dup1\n    /* \"#utility.yul\":5150:5231   */\n  tag_153\n  jumpi\n    /* \"#utility.yul\":5216:5220   */\n  0x7f\n    /* \"#utility.yul\":5208:5214   */\n  dup3\n    /* \"#utility.yul\":5204:5221   */\n  and\n    /* \"#utility.yul\":5194:5221   */\n  swap2\n  pop\n    /* \"#utility.yul\":5150:5231   */\ntag_153:\n    /* \"#utility.yul\":5278:5280   */\n  0x20\n    /* \"#utility.yul\":5270:5276   */\n  dup3\n    /* \"#utility.yul\":5267:5281   */\n  lt\n    /* \"#utility.yul\":5247:5265   */\n  dup2\n    /* \"#utility.yul\":5244:5282   */\n  sub\n    /* \"#utility.yul\":5241:5325   */\n  tag_154\n  jumpi\n    /* \"#utility.yul\":5297:5315   */\n  tag_155\n  tag_69\n  jump\t// in\ntag_155:\n    /* \"#utility.yul\":5241:5325   */\ntag_154:\n    /* \"#utility.yul\":5062:5331   */\n  pop\n    /* \"#utility.yul\":5011:5331   */\n  swap2\n  swap1\n  pop\n  jump\t// out\n    /* \"#utility.yul\":5337:5478   */\ntag_71:\n    /* \"#utility.yul\":5386:5390   */\n  0x00\n    /* \"#utility.yul\":5409:5412   */\n  dup2\n    /* \"#utility.yul\":5401:5412   */\n  swap1\n  pop\n    /* \"#utility.yul\":5432:5435   */\n  dup2\n    /* \"#utility.yul\":5429:5430   */\n  0x00\n    /* \"#utility.yul\":5422:5436   */\n  mstore\n    /* \"#utility.yul\":5466:5470   */\n  0x20\n    /* \"#utility.yul\":5463:5464   */\n  0x00\n    /* \"#utility.yul\":5453:5471   */\n  keccak256\n    /* \"#utility.yul\":5445:5471   */\n  swap1\n  pop\n    /* \"#utility.yul\":5337:5478   */\n  swap2\n  swap1\n  pop\n  jump\t// out\n    /* \"#utility.yul\":5484:5577   */\ntag_72:\n    /* \"#utility.yul\":5521:5527   */\n  0x00\n    /* \"#utility.yul\":5568:5570   */\n  0x20\n    /* \"#utility.yul\":5563:5565   */\n  0x1f\n    /* \"#utility.yul\":5556:5561   */\n  dup4\n    /* \"#utility.yul\":5552:5566   */\n  add\n    /* \"#utility.yul\":5548:5571   */\n  div\n    /* \"#utility.yul\":5538:5571   */\n  swap1\n  pop\n    /* \"#utility.yul\":5484:5577   */\n  swap2\n  swap1\n  pop\n  jump\t// out\n    /* \"#utility.yul\":5583:5690   */\ntag_73:\n    /* \"#utility.yul\":5627:5635   */\n  0x00\n    /* \"#utility.yul\":5677:5682   */\n  dup3\n    /* \"#utility.yul\":5671:5675   */\n  dup3\n    /* \"#utility.yul\":5667:5683   */\n  shl\n    /* \"#utility.yul\":5646:5683   */\n  swap1\n  pop\n    /* \"#utility.yul\":5583:5690   */\n  swap3\n  swap2\n  pop\n  pop\n  jump\t// out\n    /* \"#utility.yul\":5696:6089   */\ntag_74:\n    /* \"#utility.yul\":5765:5771   */\n  0x00\n    /* \"#utility.yul\":5815:5816   */\n  0x08\n    /* \"#utility.yul\":5803:5813   */\n  dup4\n    /* \"#utility.yul\":5799:5817   */\n  mul\n    /* \"#utility.yul\":5838:5935   */\n  tag_160\n    /* \"#utility.yul\":5868:5934   */\n  0xffffffffffffffffffffffffffffffffffffffffffffffffffffffffffffffff\n    /* \"#utility.yul\":5857:5866   */\n  dup3\n    /* \"#utility.yul\":5838:5935   */\n  tag_73\n  jump\t// in\ntag_160:\n    /* \"#utility.yul\":5956:5995   */\n  tag_161\n    /* \"#utility.yul\":5986:5994   */\n  dup7\n    /* \"#utility.yul\":5975:5984   */\n  dup4\n    /* \"#utility.yul\":5956:5995   */\n  tag_73\n  jump\t// in\ntag_161:\n    /* \"#utility.yul\":5944:5995   */\n  swap6\n  pop\n    /* \"#utility.yul\":6028:6032   */\n  dup1\n    /* \"#utility.yul\":6024:6033   */\n  not\n    /* \"#utility.yul\":6017:6022   */\n  dup5\n    /* \"#utility.yul\":6013:6034   */\n  and\n    /* \"#utility.yul\":6004:6034   */\n  swap4\n  pop\n    /* \"#utility.yul\":6077:6081   */\n  dup1\n    /* \"#utility.yul\":6067:6075   */\n  dup7\n    /* \"#utility.yul\":6063:6082   */\n  and\n    /* \"#utility.yul\":6056:6061   */\n  dup5\n    /* \"#utility.yul\":6053:6083   */\n  or\n    /* \"#utility.yul\":6043:6083   */\n  swap3\n  pop\n    /* \"#utility.yul\":5772:6089   */\n  pop\n  pop\n    /* \"#utility.yul\":5696:6089   */\n  swap4\n  swap3\n  pop\n  pop\n  pop\n  jump\t// out\n    /* \"#utility.yul\":6095:6155   */\ntag_75:\n    /* \"#utility.yul\":6123:6126   */\n  0x00\n    /* \"#utility.yul\":6144:6149   */\n  dup2\n    /* \"#utility.yul\":6137:6149   */\n  swap1\n  pop\n    /* \"#utility.yul\":6095:6155   */\n  swap2\n  swap1\n  pop\n  jump\t// out\n    /* \"#utility.yul\":6161:6303   */\ntag_76:\n    /* \"#utility.yul\":6211:6220   */\n  0x00\n    /* \"#utility.yul\":6244:6297   */\n  tag_164\n    /* \"#utility.yul\":6262:6296   */\n  tag_165\n    /* \"#utility.yul\":6271:6295   */\n  tag_166\n    /* \"#utility.yul\":6289:6294   */\n  dup5\n    /* \"#utility.yul\":6271:6295   */\n  tag_61\n  jump\t// in\ntag_166:\n    /* \"#utility.yul\":6262:6296   */\n  tag_75\n  jump\t// in\ntag_165:\n    /* \"#utility.yul\":6244:6297   */\n  tag_61\n  jump\t// in\ntag_164:\n    /* \"#utility.yul\":6231:6297   */\n  swap1\n  pop\n    /* \"#utility.yul\":6161:6303   */\n  swap2\n  swap1\n  pop\n  jump\t// out\n    /* \"#utility.yul\":6309:6384   */\ntag_77:\n    /* \"#utility.yul\":6352:6355   */\n  0x00\n    /* \"#utility.yul\":6373:6378   */\n  dup2\n    /* \"#utility.yul\":6366:6378   */\n  swap1\n  pop\n    /* \"#utility.yul\":6309:6384   */\n  swap2\n  swap1\n  pop\n  jump\t// out\n    /* \"#utility.yul\":6390:6659   */\ntag_78:\n    /* \"#utility.yul\":6500:6539   */\n  tag_169\n    /* \"#utility.yul\":6531:6538   */\n  dup4\n    /* \"#utility.yul\":6500:6539   */\n  tag_76\n  jump\t// in\ntag_169:\n    /* \"#utility.yul\":6561:6652   */\n  tag_170\n    /* \"#utility.yul\":6610:6651   */\n  tag_171\n    /* \"#utility.yul\":6634:6650   */\n  dup3\n    /* \"#utility.yul\":6610:6651   */\n  tag_77\n  jump\t// in\ntag_171:\n    /* \"#utility.yul\":6602:6608   */\n  dup5\n    /* \"#utility.yul\":6595:6599   */\n  dup5\n    /* \"#utility.yul\":6589:6600   */\n  sload\n    /* \"#utility.yul\":6561:6652   */\n  tag_74\n  jump\t// in\ntag_170:\n    /* \"#utility.yul\":6555:6559   */\n  dup3\n    /* \"#utility.yul\":6548:6653   */\n  sstore\n    /* \"#utility.yul\":6466:6659   */\n  pop\n    /* \"#utility.yul\":6390:6659   */\n  pop\n  pop\n  pop\n  jump\t// out\n    /* \"#utility.yul\":6665:6738   */\ntag_79:\n    /* \"#utility.yul\":6710:6713   */\n  0x00\n    /* \"#utility.yul\":6665:6738   */\n  swap1\n  jump\t// out\n    /* \"#utility.yul\":6744:6933   */\ntag_80:\n    /* \"#utility.yul\":6821:6853   */\n  tag_174\n  tag_79\n  jump\t// in\ntag_174:\n    /* \"#utility.yul\":6862:6927   */\n  tag_175\n    /* \"#utility.yul\":6920:6926   */\n  dup2\n    /* \"#utility.yul\":6912:6918   */\n  dup5\n    /* \"#utility.yul\":6906:6910   */\n  dup5\n    /* \"#utility.yul\":6862:6927   */\n  tag_78\n  jump\t// in\ntag_175:\n    /* \"#utility.yul\":6797:6933   */\n  pop\n    /* \"#utility.yul\":6744:6933   */\n  pop\n  pop\n  jump\t// out\n    /* \"#utility.yul\":6939:7125   */\ntag_81:\n    /* \"#utility.yul\":6999:7119   */\ntag_177:\n    /* \"#utility.yul\":7016:7019   */\n  dup2\n    /* \"#utility.yul\":7009:7014   */\n  dup2\n    /* \"#utility.yul\":7006:7020   */\n  lt\n    /* \"#utility.yul\":6999:7119   */\n  iszero\n  tag_179\n  jumpi\n    /* \"#utility.yul\":7070:7109   */\n  tag_180\n    /* \"#utility.yul\":7107:7108   */\n  0x00\n    /* \"#utility.yul\":7100:7105   */\n  dup3\n    /* \"#utility.yul\":7070:7109   */\n  tag_80\n  jump\t// in\ntag_180:\n    /* \"#utility.yul\":7043:7044   */\n  0x01\n    /* \"#utility.yul\":7036:7041   */\n  dup2\n    /* \"#utility.yul\":7032:7045   */\n  add\n    /* \"#utility.yul\":7023:7045   */\n  swap1\n  pop\n    /* \"#utility.yul\":6999:7119   */\n  jump(tag_177)\ntag_179:\n    /* \"#utility.yul\":6939:7125   */\n  pop\n  pop\n  jump\t// out\n    /* \"#utility.yul\":7131:7674   */\ntag_82:\n    /* \"#utility.yul\":7232:7234   */\n  0x1f\n    /* \"#utility.yul\":7227:7230   */\n  dup3\n    /* \"#utility.yul\":7224:7235   */\n  gt\n    /* \"#utility.yul\":7221:7667   */\n  iszero\n  tag_182\n  jumpi\n    /* \"#utility.yul\":7266:7304   */\n  tag_183\n    /* \"#utility.yul\":7298:7303   */\n  dup2\n    /* \"#utility.yul\":7266:7304   */\n  tag_71\n  jump\t// in\ntag_183:\n    /* \"#utility.yul\":7350:7379   */\n  tag_184\n    /* \"#utility.yul\":7368:7378   */\n  dup5\n    /* \"#utility.yul\":7350:7379   */\n  tag_72\n  jump\t// in\ntag_184:\n    /* \"#utility.yul\":7340:7348   */\n  dup2\n    /* \"#utility.yul\":7336:7380   */\n  add\n    /* \"#utility.yul\":7533:7535   */\n  0x20\n    /* \"#utility.yul\":7521:7531   */\n  dup6\n    /* \"#utility.yul\":7518:7536   */\n  lt\n    /* \"#utility.yul\":7515:7564   */\n  iszero\n  tag_185\n  jumpi\n    /* \"#utility.yul\":7554:7562   */\n  dup2\n    /* \"#utility.yul\":7539:7562   */\n  swap1\n  pop\n    /* \"#utility.yul\":7515:7564   */\ntag_185:\n    /* \"#utility.yul\":7577:7657   */\n  tag_186\n    /* \"#utility.yul\":7633:7655   */\n  tag_187\n    /* \"#utility.yul\":7651:7654   */\n  dup6\n    /* \"#utility.yul\":7633:7655   */\n  tag_72\n  jump\t// in\ntag_187:\n    /* \"#utility.yul\":7623:7631   */\n  dup4\n    /* \"#utility.yul\":7619:7656   */\n  add\n    /* \"#utility.yul\":7606:7617   */\n  dup3\n    /* \"#utility.yul\":7577:7657   */\n  tag_81\n  jump\t// in\ntag_186:\n    /* \"#utility.yul\":7236:7667   */\n  pop\n  pop\n    /* \"#utility.yul\":7221:7667   */\ntag_182:\n    /* \"#utility.yul\":7131:7674   */\n  pop\n  pop\n  pop\n  jump\t// out\n    /* \"#utility.yul\":7680:7797   */\ntag_83:\n    /* \"#utility.yul\":7734:7742   */\n  0x00\n    /* \"#utility.yul\":7784:7789   */\n  dup3\n    /* \"#utility.yul\":7778:7782   */\n  dup3\n    /* \"#utility.yul\":7774:7790   */\n  shr\n    /* \"#utility.yul\":7753:7790   */\n  swap1\n  pop\n    /* \"#utility.yul\":7680:7797   */\n  swap3\n  swap2\n  pop\n  pop\n  jump\t// out\n    /* \"#utility.yul\":7803:7972   */\ntag_84:\n    /* \"#utility.yul\":7847:7853   */\n  0x00\n    /* \"#utility.yul\":7880:7931   */\n  tag_190\n    /* \"#utility.yul\":7928:7929   */\n  0x00\n    /* \"#utility.yul\":7924:7930   */\n  not\n    /* \"#utility.yul\":7916:7921   */\n  dup5\n    /* \"#utility.yul\":7913:7914   */\n  0x08\n    /* \"#utility.yul\":7909:7922   */\n  mul\n    /* \"#utility.yul\":7880:7931   */\n  tag_83\n  jump\t// in\ntag_190:\n    /* \"#utility.yul\":7876:7932   */\n  not\n    /* \"#utility.yul\":7961:7965   */\n  dup1\n    /* \"#utility.yul\":7955:7959   */\n  dup4\n    /* \"#utility.yul\":7951:7966   */\n  and\n    /* \"#utility.yul\":7941:7966   */\n  swap2\n  pop\n    /* \"#utility.yul\":7854:7972   */\n  pop\n    /* \"#utility.yul\":7803:7972   */\n  swap3\n  swap2\n  pop\n  pop\n  jump\t// out\n    /* \"#utility.yul\":7977:8272   */\ntag_85:\n    /* \"#utility.yul\":8053:8057   */\n  0x00\n    /* \"#utility.yul\":8199:8228   */\n  tag_192\n    /* \"#utility.yul\":8224:8227   */\n  dup4\n    /* \"#utility.yul\":8218:8222   */\n  dup4\n    /* \"#utility.yul\":8199:8228   */\n  tag_84\n  jump\t// in\ntag_192:\n    /* \"#utility.yul\":8191:8228   */\n  swap2\n  pop\n    /* \"#utility.yul\":8261:8264   */\n  dup3\n    /* \"#utility.yul\":8258:8259   */\n  0x02\n    /* \"#utility.yul\":8254:8265   */\n  mul\n    /* \"#utility.yul\":8248:8252   */\n  dup3\n    /* \"#utility.yul\":8245:8266   */\n  or\n    /* \"#utility.yul\":8237:8266   */\n  swap1\n  pop\n    /* \"#utility.yul\":7977:8272   */\n  swap3\n  swap2\n  pop\n  pop\n  jump\t// out\n    /* \"#utility.yul\":8277:9672   */\ntag_10:\n    /* \"#utility.yul\":8394:8431   */\n  tag_194\n    /* \"#utility.yul\":8427:8430   */\n  dup3\n    /* \"#utility.yul\":8394:8431   */\n  tag_68\n  jump\t// in\ntag_194:\n    /* \"#utility.yul\":8496:8514   */\n  0xffffffffffffffff\n    /* \"#utility.yul\":8488:8494   */\n  dup2\n    /* \"#utility.yul\":8485:8515   */\n  gt\n    /* \"#utility.yul\":8482:8538   */\n  iszero\n  tag_195\n  jumpi\n    /* \"#utility.yul\":8518:8536   */\n  tag_196\n  tag_54\n  jump\t// in\ntag_196:\n    /* \"#utility.yul\":8482:8538   */\ntag_195:\n    /* \"#utility.yul\":8562:8600   */\n  tag_197\n    /* \"#utility.yul\":8594:8598   */\n  dup3\n    /* \"#utility.yul\":8588:8599   */\n  sload\n    /* \"#utility.yul\":8562:8600   */\n  tag_70\n  jump\t// in\ntag_197:\n    /* \"#utility.yul\":8647:8714   */\n  tag_198\n    /* \"#utility.yul\":8707:8713   */\n  dup3\n    /* \"#utility.yul\":8699:8705   */\n  dup3\n    /* \"#utility.yul\":8693:8697   */\n  dup6\n    /* \"#utility.yul\":8647:8714   */\n  tag_82\n  jump\t// in\ntag_198:\n    /* \"#utility.yul\":8741:8742   */\n  0x00\n    /* \"#utility.yul\":8765:8769   */\n  0x20\n    /* \"#utility.yul\":8752:8769   */\n  swap1\n  pop\n    /* \"#utility.yul\":8797:8799   */\n  0x1f\n    /* \"#utility.yul\":8789:8795   */\n  dup4\n    /* \"#utility.yul\":8786:8800   */\n  gt\n    /* \"#utility.yul\":8814:8815   */\n  0x01\n    /* \"#utility.yul\":8809:9427   */\n  dup2\n  eq\n  tag_200\n  jumpi\n    /* \"#utility.yul\":9471:9472   */\n  0x00\n    /* \"#utility.yul\":9488:9494   */\n  dup5\n    /* \"#utility.yul\":9485:9562   */\n  iszero\n  tag_201\n  jumpi\n    /* \"#utility.yul\":9537:9546   */\n  dup3\n    /* \"#utility.yul\":9532:9535   */\n  dup8\n    /* \"#utility.yul\":9528:9547   */\n  add\n    /* \"#utility.yul\":9522:9548   */\n  mload\n    /* \"#utility.yul\":9513:9548   */\n  swap1\n  pop\n    /* \"#utility.yul\":9485:9562   */\ntag_201:\n    /* \"#utility.yul\":9588:9655   */\n  tag_202\n    /* \"#utility.yul\":9648:9654   */\n  dup6\n    /* \"#utility.yul\":9641:9646   */\n  dup3\n    /* \"#utility.yul\":9588:9655   */\n  tag_85\n  jump\t// in\ntag_202:\n    /* \"#utility.yul\":9582:9586   */\n  dup7\n    /* \"#utility.yul\":9575:9656   */\n  sstore\n    /* \"#utility.yul\":9444:9666   */\n  pop\n    /* \"#utility.yul\":8779:9666   */\n  jump(tag_199)\n    /* \"#utility.yul\":8809:9427   */\ntag_200:\n    /* \"#utility.yul\":8861:8865   */\n  0x1f\n    /* \"#utility.yul\":8857:8866   */\n  not\n    /* \"#utility.yul\":8849:8855   */\n  dup5\n    /* \"#utility.yul\":8845:8867   */\n  and\n    /* \"#utility.yul\":8895:8932   */\n  tag_203\n    /* \"#utility.yul\":8927:8931   */\n  dup7\n    /* \"#utility.yul\":8895:8932   */\n  tag_71\n  jump\t// in\ntag_203:\n    /* \"#utility.yul\":8954:8955   */\n  0x00\n    /* \"#utility.yul\":8968:9176   */\ntag_204:\n    /* \"#utility.yul\":8982:8989   */\n  dup3\n    /* \"#utility.yul\":8979:8980   */\n  dup2\n    /* \"#utility.yul\":8976:8990   */\n  lt\n    /* \"#utility.yul\":8968:9176   */\n  iszero\n  tag_206\n  jumpi\n    /* \"#utility.yul\":9061:9070   */\n  dup5\n    /* \"#utility.yul\":9056:9059   */\n  dup10\n    /* \"#utility.yul\":9052:9071   */\n  add\n    /* \"#utility.yul\":9046:9072   */\n  mload\n    /* \"#utility.yul\":9038:9044   */\n  dup3\n    /* \"#utility.yul\":9031:9073   */\n  sstore\n    /* \"#utility.yul\":9112:9113   */\n  0x01\n    /* \"#utility.yul\":9104:9110   */\n  dup3\n    /* \"#utility.yul\":9100:9114   */\n  add\n    /* \"#utility.yul\":9090:9114   */\n  swap2\n  pop\n    /* \"#utility.yul\":9159:9161   */\n  0x20\n    /* \"#utility.yul\":9148:9157   */\n  dup6\n    /* \"#utility.yul\":9144:9162   */\n  add\n    /* \"#utility.yul\":9131:9162   */\n  swap5\n  pop\n    /* \"#utility.yul\":9005:9009   */\n  0x20\n    /* \"#utility.yul\":9002:9003   */\n  dup2\n    /* \"#utility.yul\":8998:9010   */\n  add\n    /* \"#utility.yul\":8993:9010   */\n  swap1\n  pop\n    /* \"#utility.yul\":8968:9176   */\n  jump(tag_204)\ntag_206:\n    /* \"#utility.yul\":9204:9210   */\n  dup7\n    /* \"#utility.yul\":9195:9202   */\n  dup4\n    /* \"#utility.yul\":9192:9211   */\n  lt\n    /* \"#utility.yul\":9189:9368   */\n  iszero\n  tag_207\n  jumpi\n    /* \"#utility.yul\":9262:9271   */\n  dup5\n    /* \"#utility.yul\":9257:9260   */\n  dup10\n    /* \"#utility.yul\":9253:9272   */\n  add\n    /* \"#utility.yul\":9247:9273   */\n  mload\n    /* \"#utility.yul\":9305:9353   */\n  tag_208\n    /* \"#utility.yul\":9347:9351   */\n  0x1f\n    /* \"#utility.yul\":9339:9345   */\n  dup10\n    /* \"#utility.yul\":9335:9352   */\n  and\n    /* \"#utility.yul\":9324:9333   */\n  dup3\n    /* \"#utility.yul\":9305:9353   */\n  tag_84\n  jump\t// in\ntag_208:\n    /* \"#utility.yul\":9297:9303   */\n  dup4\n    /* \"#utility.yul\":9290:9354   */\n  sstore\n    /* \"#utility.yul\":9212:9368   */\n  pop\n    /* \"#utility.yul\":9189:9368   */\ntag_207:\n    /* \"#utility.yul\":9414:9415   */\n  0x01\n    /* \"#utility.yul\":9410:9411   */\n  0x02\n    /* \"#utility.yul\":9402:9408   */\n  dup9\n    /* \"#utility.yul\":9398:9412   */\n  mul\n    /* \"#utility.yul\":9394:9416   */\n  add\n    /* \"#utility.yul\":9388:9392   */\n  dup9\n    /* \"#utility.yul\":9381:9417   */\n  sstore\n    /* \"#utility.yul\":8816:9427   */\n  pop\n  pop\n  pop\n    /* \"#utility.yul\":8779:9666   */\ntag_199:\n  pop\n    /* \"#utility.yul\":8369:9672   */\n  pop\n  pop\n  pop\n    /* \"#utility.yul\":8277:9672   */\n  pop\n  pop\n  jump\t// out\n    /* \"#utility.yul\":9678:9796   */\ntag_86:\n    /* \"#utility.yul\":9765:9789   */\n  tag_210\n    /* \"#utility.yul\":9783:9788   */\n  dup2\n    /* \"#utility.yul\":9765:9789   */\n  tag_65\n  jump\t// in\ntag_210:\n    /* \"#utility.yul\":9760:9763   */\n  dup3\n    /* \"#utility.yul\":9753:9790   */\n  mstore\n    /* \"#utility.yul\":9678:9796   */\n  pop\n  pop\n  jump\t// out\n    /* \"#utility.yul\":9802:10024   */\ntag_15:\n    /* \"#utility.yul\":9895:9899   */\n  0x00\n    /* \"#utility.yul\":9933:9935   */\n  0x20\n    /* \"#utility.yul\":9922:9931   */\n  dup3\n    /* \"#utility.yul\":9918:9936   */\n  add\n    /* \"#utility.yul\":9910:9936   */\n  swap1\n  pop\n    /* \"#utility.yul\":9946:10017   */\n  tag_212\n    /* \"#utility.yul\":10014:10015   */\n  0x00\n    /* \"#utility.yul\":10003:10012   */\n  dup4\n    /* \"#utility.yul\":9999:10016   */\n  add\n    /* \"#utility.yul\":9990:9996   */\n  dup5\n    /* \"#utility.yul\":9946:10017   */\n  tag_86\n  jump\t// in\ntag_212:\n    /* \"#utility.yul\":9802:10024   */\n  swap3\n  swap2\n  pop\n  pop\n  jump\t// out\n    /* \"#utility.yul\":10030:10210   */\ntag_87:\n    /* \"#utility.yul\":10078:10155   */\n  0x4e487b7100000000000000000000000000000000000000000000000000000000\n    /* \"#utility.yul\":10075:10076   */\n  0x00\n    /* \"#utility.yul\":10068:10156   */\n  mstore\n    /* \"#utility.yul\":10175:10179   */\n  0x11\n    /* \"#utility.yul\":10172:10173   */\n  0x04\n    /* \"#utility.yul\":10165:10180   */\n  mstore\n    /* \"#utility.yul\":10199:10203   */\n  0x24\n    /* \"#utility.yul\":10196:10197   */\n  0x00\n    /* \"#utility.yul\":10189:10204   */\n  revert\n    /* \"#utility.yul\":10216:10318   */\ntag_88:\n    /* \"#utility.yul\":10258:10266   */\n  0x00\n    /* \"#utility.yul\":10305:10310   */\n  dup2\n    /* \"#utility.yul\":10302:10303   */\n  0x01\n    /* \"#utility.yul\":10298:10311   */\n  shr\n    /* \"#utility.yul\":10277:10311   */\n  swap1\n  pop\n    /* \"#utility.yul\":10216:10318   */\n  swap2\n  swap1\n  pop\n  jump\t// out\n    /* \"#utility.yul\":10324:11172   */\ntag_89:\n    /* \"#utility.yul\":10385:10390   */\n  0x00\n    /* \"#utility.yul\":10392:10396   */\n  dup1\n    /* \"#utility.yul\":10416:10422   */\n  dup3\n    /* \"#utility.yul\":10407:10422   */\n  swap2\n  pop\n    /* \"#utility.yul\":10440:10445   */\n  dup4\n    /* \"#utility.yul\":10431:10445   */\n  swap1\n  pop\n    /* \"#utility.yul\":10454:11166   */\ntag_216:\n    /* \"#utility.yul\":10475:10476   */\n  0x01\n    /* \"#utility.yul\":10465:10473   */\n  dup6\n    /* \"#utility.yul\":10462:10477   */\n  gt\n    /* \"#utility.yul\":10454:11166   */\n  iszero\n  tag_218\n  jumpi\n    /* \"#utility.yul\":10570:10574   */\n  dup1\n    /* \"#utility.yul\":10565:10568   */\n  dup7\n    /* \"#utility.yul\":10561:10575   */\n  div\n    /* \"#utility.yul\":10555:10559   */\n  dup2\n    /* \"#utility.yul\":10552:10576   */\n  gt\n    /* \"#utility.yul\":10549:10599   */\n  iszero\n  tag_219\n  jumpi\n    /* \"#utility.yul\":10579:10597   */\n  tag_220\n  tag_87\n  jump\t// in\ntag_220:\n    /* \"#utility.yul\":10549:10599   */\ntag_219:\n    /* \"#utility.yul\":10629:10630   */\n  0x01\n    /* \"#utility.yul\":10619:10627   */\n  dup6\n    /* \"#utility.yul\":10615:10631   */\n  and\n    /* \"#utility.yul\":10612:11063   */\n  iszero\n  tag_221\n  jumpi\n    /* \"#utility.yul\":11044:11048   */\n  dup1\n    /* \"#utility.yul\":11037:11042   */\n  dup3\n    /* \"#utility.yul\":11033:11049   */\n  mul\n    /* \"#utility.yul\":11024:11049   */\n  swap2\n  pop\n    /* \"#utility.yul\":10612:11063   */\ntag_221:\n    /* \"#utility.yul\":11094:11098   */\n  dup1\n    /* \"#utility.yul\":11088:11092   */\n  dup2\n    /* \"#utility.yul\":11084:11099   */\n  mul\n    /* \"#utility.yul\":11076:11099   */\n  swap1\n  pop\n    /* \"#utility.yul\":11124:11156   */\n  tag_222\n    /* \"#utility.yul\":11147:11155   */\n  dup6\n    /* \"#utility.yul\":11124:11156   */\n  tag_88\n  jump\t// in\ntag_222:\n    /* \"#utility.yul\":11112:11156   */\n  swap5\n  pop\n    /* \"#utility.yul\":10454:11166   */\n  jump(tag_216)\ntag_218:\n    /* \"#utility.yul\":10324:11172   */\n  swap5\n  pop\n  swap5\n  swap3\n  pop\n  pop\n  pop\n  jump\t// out\n    /* \"#utility.yul\":11178:12251   */\ntag_90:\n    /* \"#utility.yul\":11232:11237   */\n  0x00\n    /* \"#utility.yul\":11423:11431   */\n  dup3\n    /* \"#utility.yul\":11413:11453   */\n  tag_224\n  jumpi\n    /* \"#utility.yul\":11444:11445   */\n  0x01\n    /* \"#utility.yul\":11435:11445   */\n  swap1\n  pop\n    /* \"#utility.yul\":11446:11451   */\n  jump(tag_223)\n    /* \"#utility.yul\":11413:11453   */\ntag_224:\n    /* \"#utility.yul\":11472:11476   */\n  dup2\n    /* \"#utility.yul\":11462:11498   */\n  tag_225\n  jumpi\n    /* \"#utility.yul\":11489:11490   */\n  0x00\n    /* \"#utility.yul\":11480:11490   */\n  swap1\n  pop\n    /* \"#utility.yul\":11491:11496   */\n  jump(tag_223)\n    /* \"#utility.yul\":11462:11498   */\ntag_225:\n    /* \"#utility.yul\":11558:11562   */\n  dup2\n    /* \"#utility.yul\":11606:11607   */\n  0x01\n    /* \"#utility.yul\":11601:11628   */\n  dup2\n  eq\n  tag_227\n  jumpi\n    /* \"#utility.yul\":11642:11643   */\n  0x02\n    /* \"#utility.yul\":11637:11828   */\n  dup2\n  eq\n  tag_228\n  jumpi\n    /* \"#utility.yul\":11551:11828   */\n  jump(tag_226)\n    /* \"#utility.yul\":11601:11628   */\ntag_227:\n    /* \"#utility.yul\":11619:11620   */\n  0x01\n    /* \"#utility.yul\":11610:11620   */\n  swap2\n  pop\n    /* \"#utility.yul\":11621:11626   */\n  pop\n  jump(tag_223)\n    /* \"#utility.yul\":11637:11828   */\ntag_228:\n    /* \"#utility.yul\":11682:11685   */\n  0xff\n    /* \"#utility.yul\":11672:11680   */\n  dup5\n    /* \"#utility.yul\":11669:11686   */\n  gt\n    /* \"#utility.yul\":11666:11709   */\n  iszero\n  tag_229\n  jumpi\n    /* \"#utility.yul\":11689:11707   */\n  tag_230\n  tag_87\n  jump\t// in\ntag_230:\n    /* \"#utility.yul\":11666:11709   */\ntag_229:\n    /* \"#utility.yul\":11738:11746   */\n  dup4\n    /* \"#utility.yul\":11735:11736   */\n  0x02\n    /* \"#utility.yul\":11731:11747   */\n  exp\n    /* \"#utility.yul\":11722:11747   */\n  swap2\n  pop\n    /* \"#utility.yul\":11773:11776   */\n  dup5\n    /* \"#utility.yul\":11766:11771   */\n  dup3\n    /* \"#utility.yul\":11763:11777   */\n  gt\n    /* \"#utility.yul\":11760:11800   */\n  iszero\n  tag_231\n  jumpi\n    /* \"#utility.yul\":11780:11798   */\n  tag_232\n  tag_87\n  jump\t// in\ntag_232:\n    /* \"#utility.yul\":11760:11800   */\ntag_231:\n    /* \"#utility.yul\":11813:11818   */\n  pop\n  jump(tag_223)\n    /* \"#utility.yul\":11551:11828   */\ntag_226:\n  pop\n    /* \"#utility.yul\":11937:11939   */\n  0x20\n    /* \"#utility.yul\":11927:11935   */\n  dup4\n    /* \"#utility.yul\":11924:11940   */\n  lt\n    /* \"#utility.yul\":11918:11921   */\n  0x0133\n    /* \"#utility.yul\":11912:11916   */\n  dup4\n    /* \"#utility.yul\":11909:11922   */\n  lt\n    /* \"#utility.yul\":11905:11941   */\n  and\n    /* \"#utility.yul\":11887:11889   */\n  0x4e\n    /* \"#utility.yul\":11877:11885   */\n  dup5\n    /* \"#utility.yul\":11874:11890   */\n  lt\n    /* \"#utility.yul\":11869:11871   */\n  0x0b\n    /* \"#utility.yul\":11863:11867   */\n  dup5\n    /* \"#utility.yul\":11860:11872   */\n  lt\n    /* \"#utility.yul\":11856:11891   */\n  and\n    /* \"#utility.yul\":11840:11951   */\n  or\n    /* \"#utility.yul\":11837:12083   */\n  iszero\n  tag_233\n  jumpi\n    /* \"#utility.yul\":11993:12001   */\n  dup3\n    /* \"#utility.yul\":11987:11991   */\n  dup3\n    /* \"#utility.yul\":11983:12002   */\n  exp\n    /* \"#utility.yul\":11974:12002   */\n  swap1\n  pop\n    /* \"#utility.yul\":12028:12031   */\n  dup4\n    /* \"#utility.yul\":12021:12026   */\n  dup2\n    /* \"#utility.yul\":12018:12032   */\n  gt\n    /* \"#utility.yul\":12015:12055   */\n  iszero\n  tag_234\n  jumpi\n    /* \"#utility.yul\":12035:12053   */\n  tag_235\n  tag_87\n  jump\t// in\ntag_235:\n    /* \"#utility.yul\":12015:12055   */\ntag_234:\n    /* \"#utility.yul\":12068:12073   */\n  jump(tag_223)\n    /* \"#utility.yul\":11837:12083   */\ntag_233:\n    /* \"#utility.yul\":12108:12150   */\n  tag_236\n    /* \"#utility.yul\":12146:12149   */\n  dup5\n    /* \"#utility.yul\":12136:12144   */\n  dup5\n    /* \"#utility.yul\":12130:12134   */\n  dup5\n    /* \"#utility.yul\":12127:12128   */\n  0x01\n    /* \"#utility.yul\":12108:12150   */\n  tag_89\n  jump\t// in\ntag_236:\n    /* \"#utility.yul\":12093:12150   */\n  swap3\n  pop\n  swap1\n  pop\n    /* \"#utility.yul\":12182:12186   */\n  dup2\n    /* \"#utility.yul\":12177:12180   */\n  dup5\n    /* \"#utility.yul\":12173:12187   */\n  div\n    /* \"#utility.yul\":12166:12171   */\n  dup2\n    /* \"#utility.yul\":12163:12188   */\n  gt\n    /* \"#utility.yul\":12160:12211   */\n  iszero\n  tag_237\n  jumpi\n    /* \"#utility.yul\":12191:12209   */\n  tag_238\n  tag_87\n  jump\t// in\ntag_238:\n    /* \"#utility.yul\":12160:12211   */\ntag_237:\n    /* \"#utility.yul\":12240:12244   */\n  dup2\n    /* \"#utility.yul\":12233:12238   */\n  dup2\n    /* \"#utility.yul\":12229:12245   */\n  mul\n    /* \"#utility.yul\":12220:12245   */\n  swap1\n  pop\n    /* \"#utility.yul\":11178:12251   */\ntag_223:\n  swap4\n  swap3\n  pop\n  pop\n  pop\n  jump\t// out\n    /* \"#utility.yul\":12257:12542   */\ntag_23:\n    /* \"#utility.yul\":12317:12322   */\n  0x00\n    /* \"#utility.yul\":12341:12364   */\n  tag_240\n    /* \"#utility.yul\":12359:12363   */\n  dup3\n    /* \"#utility.yul\":12341:12364   */\n  tag_61\n  jump\t// in\ntag_240:\n    /* \"#utility.yul\":12333:12364   */\n  swap2\n  pop\n    /* \"#utility.yul\":12385:12412   */\n  tag_241\n    /* \"#utility.yul\":12403:12411   */\n  dup4\n    /* \"#utility.yul\":12385:12412   */\n  tag_61\n  jump\t// in\ntag_241:\n    /* \"#utility.yul\":12373:12412   */\n  swap3\n  pop\n    /* \"#utility.yul\":12431:12535   */\n  tag_242\n    /* \"#utility.yul\":12468:12534   */\n  0xffffffffffffffffffffffffffffffffffffffffffffffffffffffffffffffff\n    /* \"#utility.yul\":12458:12466   */\n  dup5\n    /* \"#utility.yul\":12452:12456   */\n  dup5\n    /* \"#utility.yul\":12431:12535   */\n  tag_90\n  jump\t// in\ntag_242:\n    /* \"#utility.yul\":12422:12535   */\n  swap1\n  pop\n    /* \"#utility.yul\":12257:12542   */\n  swap3\n  swap2\n  pop\n  pop\n  jump\t// out\n    /* \"#utility.yul\":12548:12958   */\ntag_25:\n    /* \"#utility.yul\":12588:12595   */\n  0x00\n    /* \"#utility.yul\":12611:12631   */\n  tag_244\n    /* \"#utility.yul\":12629:12630   */\n  dup3\n    /* \"#utility.yul\":12611:12631   */\n  tag_61\n  jump\t// in\ntag_244:\n    /* \"#utility.yul\":12606:12631   */\n  swap2\n  pop\n    /* \"#utility.yul\":12645:12665   */\n  tag_245\n    /* \"#utility.yul\":12663:12664   */\n  dup4\n    /* \"#utility.yul\":12645:12665   */\n  tag_61\n  jump\t// in\ntag_245:\n    /* \"#utility.yul\":12640:12665   */\n  swap3\n  pop\n    /* \"#utility.yul\":12700:12701   */\n  dup3\n    /* \"#utility.yul\":12697:12698   */\n  dup3\n    /* \"#utility.yul\":12693:12702   */\n  mul\n    /* \"#utility.yul\":12722:12752   */\n  tag_246\n    /* \"#utility.yul\":12740:12751   */\n  dup2\n    /* \"#utility.yul\":12722:12752   */\n  tag_61\n  jump\t// in\ntag_246:\n    /* \"#utility.yul\":12711:12752   */\n  swap2\n  pop\n    /* \"#utility.yul\":12901:12902   */\n  dup3\n    /* \"#utility.yul\":12892:12899   */\n  dup3\n    /* \"#utility.yul\":12888:12903   */\n  div\n    /* \"#utility.yul\":12885:12886   */\n  dup5\n    /* \"#utility.yul\":12882:12904   */\n  eq\n    /* \"#utility.yul\":12862:12863   */\n  dup4\n    /* \"#utility.yul\":12855:12864   */\n  iszero\n    /* \"#utility.yul\":12835:12918   */\n  or\n    /* \"#utility.yul\":12812:12951   */\n  tag_247\n  jumpi\n    /* \"#utility.yul\":12931:12949   */\n  tag_248\n  tag_87\n  jump\t// in\ntag_248:\n    /* \"#utility.yul\":12812:12951   */\ntag_247:\n    /* \"#utility.yul\":12596:12958   */\n  pop\n    /* \"#utility.yul\":12548:12958   */\n  swap3\n  swap2\n  pop\n  pop\n  jump\t// out\n    /* \"#utility.yul\":12964:13155   */\ntag_39:\n    /* \"#utility.yul\":13004:13007   */\n  0x00\n    /* \"#utility.yul\":13023:13043   */\n  tag_250\n    /* \"#utility.yul\":13041:13042   */\n  dup3\n    /* \"#utility.yul\":13023:13043   */\n  tag_61\n  jump\t// in\ntag_250:\n    /* \"#utility.yul\":13018:13043   */\n  swap2\n  pop\n    /* \"#utility.yul\":13057:13077   */\n  tag_251\n    /* \"#utility.yul\":13075:13076   */\n  dup4\n    /* \"#utility.yul\":13057:13077   */\n  tag_61\n  jump\t// in\ntag_251:\n    /* \"#utility.yul\":13052:13077   */\n  swap3\n  pop\n    /* \"#utility.yul\":13100:13101   */\n  dup3\n    /* \"#utility.yul\":13097:13098   */\n  dup3\n    /* \"#utility.yul\":13093:13102   */\n  add\n    /* \"#utility.yul\":13086:13102   */\n  swap1\n  pop\n    /* \"#utility.yul\":13121:13124   */\n  dup1\n    /* \"#utility.yul\":13118:13119   */\n  dup3\n    /* \"#utility.yul\":13115:13125   */\n  gt\n    /* \"#utility.yul\":13112:13148   */\n  iszero\n  tag_252\n  jumpi\n    /* \"#utility.yul\":13128:13146   */\n  tag_253\n  tag_87\n  jump\t// in\ntag_253:\n    /* \"#utility.yul\":13112:13148   */\ntag_252:\n    /* \"#utility.yul\":12964:13155   */\n  swap3\n  swap2\n  pop\n  pop\n  jump\t// out\n    /* \"#utility.yul\":13161:13279   */\ntag_91:\n    /* \"#utility.yul\":13248:13272   */\n  tag_255\n    /* \"#utility.yul\":13266:13271   */\n  dup2\n    /* \"#utility.yul\":13248:13272   */\n  tag_61\n  jump\t// in\ntag_255:\n    /* \"#utility.yul\":13243:13246   */\n  dup3\n    /* \"#utility.yul\":13236:13273   */\n  mstore\n    /* \"#utility.yul\":13161:13279   */\n  pop\n  pop\n  jump\t// out\n    /* \"#utility.yul\":13285:13727   */\ntag_43:\n    /* \"#utility.yul\":13434:13438   */\n  0x00\n    /* \"#utility.yul\":13472:13474   */\n  0x60\n    /* \"#utility.yul\":13461:13470   */\n  dup3\n    /* \"#utility.yul\":13457:13475   */\n  add\n    /* \"#utility.yul\":13449:13475   */\n  swap1\n  pop\n    /* \"#utility.yul\":13485:13556   */\n  tag_257\n    /* \"#utility.yul\":13553:13554   */\n  0x00\n    /* \"#utility.yul\":13542:13551   */\n  dup4\n    /* \"#utility.yul\":13538:13555   */\n  add\n    /* \"#utility.yul\":13529:13535   */\n  dup7\n    /* \"#utility.yul\":13485:13556   */\n  tag_86\n  jump\t// in\ntag_257:\n    /* \"#utility.yul\":13566:13638   */\n  tag_258\n    /* \"#utility.yul\":13634:13636   */\n  0x20\n    /* \"#utility.yul\":13623:13632   */\n  dup4\n    /* \"#utility.yul\":13619:13637   */\n  add\n    /* \"#utility.yul\":13610:13616   */\n  dup6\n    /* \"#utility.yul\":13566:13638   */\n  tag_91\n  jump\t// in\ntag_258:\n    /* \"#utility.yul\":13648:13720   */\n  tag_259\n    /* \"#utility.yul\":13716:13718   */\n  0x40\n    /* \"#utility.yul\":13705:13714   */\n  dup4\n    /* \"#utility.yul\":13701:13719   */\n  add\n    /* \"#utility.yul\":13692:13698   */\n  dup5\n    /* \"#utility.yul\":13648:13720   */\n  tag_91\n  jump\t// in\ntag_259:\n    /* \"#utility.yul\":13285:13727   */\n  swap5\n  swap4\n  pop\n  pop\n  pop\n  pop\n  jump\t// out\n    /* \"#utility.yul\":13733:13955   */\ntag_47:\n    /* \"#utility.yul\":13826:13830   */\n  0x00\n    /* \"#utility.yul\":13864:13866   */\n  0x20\n    /* \"#utility.yul\":13853:13862   */\n  dup3\n    /* \"#utility.yul\":13849:13867   */\n  add\n    /* \"#utility.yul\":13841:13867   */\n  swap1\n  pop\n    /* \"#utility.yul\":13877:13948   */\n  tag_261\n    /* \"#utility.yul\":13945:13946   */\n  0x00\n    /* \"#utility.yul\":13934:13943   */\n  dup4\n    /* \"#utility.yul\":13930:13947   */\n  add\n    /* \"#utility.yul\":13921:13927   */\n  dup5\n    /* \"#utility.yul\":13877:13948   */\n  tag_91\n  jump\t// in\ntag_261:\n    /* \"#utility.yul\":13733:13955   */\n  swap3\n  swap2\n  pop\n  pop\n  jump\t// out\n    /* \"contracts/NNTHToken.sol\":223:5133  contract NNTHToken is ERC20, Ownable, Pausable {... */\ntag_28:\n  dataSize(sub_0)\n  dup1\n  dataOffset(sub_0)\n  0x00\n  codecopy\n  0x00\n  return\nstop\n\nsub_0: assembly {\n        /* \"contracts/NNTHToken.sol\":223:5133  contract NNTHToken is ERC20, Ownable, Pausable {... */\n      mstore(0x40, 0x80)\n      callvalue\n      dup1\n      iszero\n      tag_1\n      jumpi\n      0x00\n      dup1\n      revert\n    tag_1:\n      pop\n      jumpi(tag_2, lt(calldatasize, 0x04))\n      shr(0xe0, calldataload(0x00))\n      dup1\n      0x715018a6\n      gt\n      tag_29\n      jumpi\n      dup1\n      0x95d89b41\n      gt\n      tag_30\n      jumpi\n      dup1\n      0xdaf82428\n      gt\n      tag_31\n      jumpi\n      dup1\n      0xdaf82428\n      eq\n      tag_25\n      jumpi\n      dup1\n      0xdd62ed3e\n      eq\n      tag_26\n      jumpi\n      dup1\n      0xf0122bf6\n      eq\n      tag_27\n      jumpi\n      dup1\n      0xf2fde38b\n      eq\n      tag_28\n      jumpi\n      jump(tag_2)\n    tag_31:\n      dup1\n      0x95d89b41\n      eq\n      tag_22\n      jumpi\n      dup1\n      0xa9059cbb\n      eq\n      tag_23\n      jumpi\n      dup1\n      0xac618323\n      eq\n      tag_24\n      jumpi\n      jump(tag_2)\n    tag_30:\n      dup1\n      0x715018a6\n      eq\n      tag_16\n      jumpi\n      dup1\n      0x74eb9b68\n      eq\n      tag_17\n      jumpi\n      dup1\n      0x7f81f0b9\n      eq\n      tag_18\n      jumpi\n      dup1\n      0x8456cb59\n      eq\n      tag_19\n      jumpi\n      dup1\n      0x8da5cb5b\n      eq\n      tag_20\n      jumpi\n      dup1\n      0x905295e3\n      eq\n      tag_21\n      jumpi\n      jump(tag_2)\n    tag_29:\n      dup1\n      0x3f4ba83a\n      gt\n      tag_32\n      jumpi\n      dup1\n      0x47a64f44\n      gt\n      tag_33\n      jumpi\n      dup1\n      0x47a64f44\n      eq\n      tag_12\n      jumpi\n      dup1\n      0x5c975abb\n      eq\n      tag_13\n      jumpi\n      dup1\n      0x66da7827\n      eq\n      tag_14\n      jumpi\n      dup1\n      0x70a08231\n      eq\n      tag_15\n      jumpi\n      jump(tag_2)\n    tag_33:\n      dup1\n      0x3f4ba83a\n      eq\n      tag_9\n      jumpi\n      dup1\n      0x40c10f19\n      eq\n      tag_10\n      jumpi\n      dup1\n      0x42966c68\n      eq\n      tag_11\n      jumpi\n      jump(tag_2)\n    tag_32:\n      dup1\n      0x06fdde03\n      eq\n      tag_3\n      jumpi\n      dup1\n      0x095ea7b3\n      eq\n      tag_4\n      jumpi\n      dup1\n      0x18160ddd\n      eq\n      tag_5\n      jumpi\n      dup1\n      0x1f68f20a\n      eq\n      tag_6\n      jumpi\n      dup1\n      0x23b872dd\n      eq\n      tag_7\n      jumpi\n      dup1\n      0x313ce567\n      eq\n      tag_8\n      jumpi\n    tag_2:\n      0x00\n      dup1\n      revert\n        /* \"@openzeppelin/contracts/token/ERC20/ERC20.sol\":2074:2163  function name() public view virtual returns (string memory) {... */\n    tag_3:\n      tag_34\n      tag_35\n      jump\t// in\n    tag_34:\n      mload(0x40)\n      tag_36\n      swap2\n      swap1\n      tag_37\n      jump\t// in\n    tag_36:\n      mload(0x40)\n      dup1\n      swap2\n      sub\n      swap1\n      return\n        /* \"@openzeppelin/contracts/token/ERC20/ERC20.sol\":4293:4479  function approve(address spender, uint256 value) public virtual returns (bool) {... */\n    tag_4:\n      tag_38\n      0x04\n      dup1\n      calldatasize\n      sub\n      dup2\n      add\n      swap1\n      tag_39\n      swap2\n      swap1\n      tag_40\n      jump\t// in\n    tag_39:\n      tag_41\n      jump\t// in\n    tag_38:\n      mload(0x40)\n      tag_42\n      swap2\n      swap1\n      tag_43\n      jump\t// in\n    tag_42:\n      mload(0x40)\n      dup1\n      swap2\n      sub\n      swap1\n      return\n        /* \"@openzeppelin/contracts/token/ERC20/ERC20.sol\":3144:3241  function totalSupply() public view virtual returns (uint256) {... */\n    tag_5:\n      tag_44\n      tag_45\n      jump\t// in\n    tag_44:\n      mload(0x40)\n      tag_46\n      swap2\n      swap1\n      tag_47\n      jump\t// in\n    tag_46:\n      mload(0x40)\n      dup1\n      swap2\n      sub\n      swap1\n      return\n        /* \"contracts/NNTHToken.sol\":368:395  uint256 public baseRate = 1 */\n    tag_6:\n      tag_48\n      tag_49\n      jump\t// in\n    tag_48:\n      mload(0x40)\n      tag_50\n      swap2\n      swap1\n      tag_47\n      jump\t// in\n    tag_50:\n      mload(0x40)\n      dup1\n      swap2\n      sub\n      swap1\n      return\n        /* \"contracts/NNTHToken.sol\":3795:4058  function transferFrom(address sender, address recipient, uint256 amount) public override returns (bool) {... */\n    tag_7:\n      tag_51\n      0x04\n      dup1\n      calldatasize\n      sub\n      dup2\n      add\n      swap1\n      tag_52\n      swap2\n      swap1\n      tag_53\n      jump\t// in\n    tag_52:\n      tag_54\n      jump\t// in\n    tag_51:\n      mload(0x40)\n      tag_55\n      swap2\n      swap1\n      tag_43\n      jump\t// in\n    tag_55:\n      mload(0x40)\n      dup1\n      swap2\n      sub\n      swap1\n      return\n        /* \"@openzeppelin/contracts/token/ERC20/ERC20.sol\":3002:3084  function decimals() public view virtual returns (uint8) {... */\n    tag_8:\n      tag_56\n      tag_57\n      jump\t// in\n    tag_56:\n      mload(0x40)\n      tag_58\n      swap2\n      swap1\n      tag_59\n      jump\t// in\n    tag_58:\n      mload(0x40)\n      dup1\n      swap2\n      sub\n      swap1\n      return\n        /* \"contracts/NNTHToken.sol\":5013:5131  function unpause() external onlyOwner {... */\n    tag_9:\n      tag_60\n      tag_61\n      jump\t// in\n    tag_60:\n      stop\n        /* \"contracts/NNTHToken.sol\":4064:4173  function mint(address to, uint256 amount) external onlyOwner onlyNotPaused {... */\n    tag_10:\n      tag_62\n      0x04\n      dup1\n      calldatasize\n      sub\n      dup2\n      add\n      swap1\n      tag_63\n      swap2\n      swap1\n      tag_40\n      jump\t// in\n    tag_63:\n      tag_64\n      jump\t// in\n    tag_62:\n      stop\n        /* \"contracts/NNTHToken.sol\":4179:4284  function burn(uint256 amount) external onlyOwner onlyNotPaused {... */\n    tag_11:\n      tag_65\n      0x04\n      dup1\n      calldatasize\n      sub\n      dup2\n      add\n      swap1\n      tag_66\n      swap2\n      swap1\n      tag_67\n      jump\t// in\n    tag_66:\n      tag_68\n      jump\t// in\n    tag_65:\n      stop\n        /* \"contracts/NNTHToken.sol\":4290:4507  function lockAccount(address account) external onlyOwner onlyNotPaused {... */\n    tag_12:\n      tag_69\n      0x04\n      dup1\n      calldatasize\n      sub\n      dup2\n      add\n      swap1\n      tag_70\n      swap2\n      swap1\n      tag_71\n      jump\t// in\n    tag_70:\n      tag_72\n      jump\t// in\n    tag_69:\n      stop\n        /* \"@openzeppelin/contracts/security/Pausable.sol\":1615:1699  function paused() public view virtual returns (bool) {... */\n    tag_13:\n      tag_73\n      tag_74\n      jump\t// in\n    tag_73:\n      mload(0x40)\n      tag_75\n      swap2\n      swap1\n      tag_43\n      jump\t// in\n    tag_75:\n      mload(0x40)\n      dup1\n      swap2\n      sub\n      swap1\n      return\n        /* \"contracts/NNTHToken.sol\":491:528  uint256 public adoptionPercentage = 0 */\n    tag_14:\n      tag_76\n      tag_77\n      jump\t// in\n    tag_76:\n      mload(0x40)\n      tag_78\n      swap2\n      swap1\n      tag_47\n      jump\t// in\n    tag_78:\n      mload(0x40)\n      dup1\n      swap2\n      sub\n      swap1\n      return\n        /* \"@openzeppelin/contracts/token/ERC20/ERC20.sol\":3299:3415  function balanceOf(address account) public view virtual returns (uint256) {... */\n    tag_15:\n      tag_79\n      0x04\n      dup1\n      calldatasize\n      sub\n      dup2\n      add\n      swap1\n      tag_80\n      swap2\n      swap1\n      tag_71\n      jump\t// in\n    tag_80:\n      tag_81\n      jump\t// in\n    tag_79:\n      mload(0x40)\n      tag_82\n      swap2\n      swap1\n      tag_47\n      jump\t// in\n    tag_82:\n      mload(0x40)\n      dup1\n      swap2\n      sub\n      swap1\n      return\n        /* \"@openzeppelin/contracts/access/Ownable.sol\":2293:2394  function renounceOwnership() public virtual onlyOwner {... */\n    tag_16:\n      tag_83\n      tag_84\n      jump\t// in\n    tag_83:\n      stop\n        /* \"contracts/NNTHToken.sol\":4735:4848  function isAccountLocked(address account) external view returns (bool) {... */\n    tag_17:\n      tag_85\n      0x04\n      dup1\n      calldatasize\n      sub\n      dup2\n      add\n      swap1\n      tag_86\n      swap2\n      swap1\n      tag_71\n      jump\t// in\n    tag_86:\n      tag_87\n      jump\t// in\n    tag_85:\n      mload(0x40)\n      tag_88\n      swap2\n      swap1\n      tag_43\n      jump\t// in\n    tag_88:\n      mload(0x40)\n      dup1\n      swap2\n      sub\n      swap1\n      return\n        /* \"contracts/NNTHToken.sol\":2073:2235  function setTransferLock(uint256 lockDuration) external onlyOwnerOrAuthorized onlyNotPaused {... */\n    tag_18:\n      tag_89\n      0x04\n      dup1\n      calldatasize\n      sub\n      dup2\n      add\n      swap1\n      tag_90\n      swap2\n      swap1\n      tag_67\n      jump\t// in\n    tag_90:\n      tag_91\n      jump\t// in\n    tag_89:\n      stop\n        /* \"contracts/NNTHToken.sol\":4892:4967  function pause() external onlyOwner onlyNotPaused {... */\n    tag_19:\n      tag_92\n      tag_93\n      jump\t// in\n    tag_92:\n      stop\n        /* \"@openzeppelin/contracts/access/Ownable.sol\":1638:1723  function owner() public view virtual returns (address) {... */\n    tag_20:\n      tag_94\n      tag_95\n      jump\t// in\n    tag_94:\n      mload(0x40)\n      tag_96\n      swap2\n      swap1\n      tag_97\n      jump\t// in\n    tag_96:\n      mload(0x40)\n      dup1\n      swap2\n      sub\n      swap1\n      return\n        /* \"contracts/NNTHToken.sol\":4513:4729  function unlockAccount(address account) external onlyOwner onlyNotPaused {... */\n    tag_21:\n      tag_98\n      0x04\n      dup1\n      calldatasize\n      sub\n      dup2\n      add\n      swap1\n      tag_99\n      swap2\n      swap1\n      tag_71\n      jump\t// in\n    tag_99:\n      tag_100\n      jump\t// in\n    tag_98:\n      stop\n        /* \"@openzeppelin/contracts/token/ERC20/ERC20.sol\":2276:2369  function symbol() public view virtual returns (string memory) {... */\n    tag_22:\n      tag_101\n      tag_102\n      jump\t// in\n    tag_101:\n      mload(0x40)\n      tag_103\n      swap2\n      swap1\n      tag_37\n      jump\t// in\n    tag_103:\n      mload(0x40)\n      dup1\n      swap2\n      sub\n      swap1\n      return\n        /* \"contracts/NNTHToken.sol\":3620:3789  function transfer(address recipient, uint256 amount) public override returns (bool) {... */\n    tag_23:\n      tag_104\n      0x04\n      dup1\n      calldatasize\n      sub\n      dup2\n      add\n      swap1\n      tag_105\n      swap2\n      swap1\n      tag_40\n      jump\t// in\n    tag_105:\n      tag_106\n      jump\t// in\n    tag_104:\n      mload(0x40)\n      tag_107\n      swap2\n      swap1\n      tag_43\n      jump\t// in\n    tag_107:\n      mload(0x40)\n      dup1\n      swap2\n      sub\n      swap1\n      return\n        /* \"contracts/NNTHToken.sol\":2362:2875  function setGeneralFee(uint256 newBaseRate, uint256 newAdoptionFactor, uint256 newAdoptionPercentage) external ... */\n    tag_24:\n      tag_108\n      0x04\n      dup1\n      calldatasize\n      sub\n      dup2\n      add\n      swap1\n      tag_109\n      swap2\n      swap1\n      tag_110\n      jump\t// in\n    tag_109:\n      tag_111\n      jump\t// in\n    tag_108:\n      stop\n        /* \"contracts/NNTHToken.sol\":433:466  uint256 public adoptionFactor = 1 */\n    tag_25:\n      tag_112\n      tag_113\n      jump\t// in\n    tag_112:\n      mload(0x40)\n      tag_114\n      swap2\n      swap1\n      tag_47\n      jump\t// in\n    tag_114:\n      mload(0x40)\n      dup1\n      swap2\n      sub\n      swap1\n      return\n        /* \"@openzeppelin/contracts/token/ERC20/ERC20.sol\":3846:3986  function allowance(address owner, address spender) public view virtual returns (uint256) {... */\n    tag_26:\n      tag_115\n      0x04\n      dup1\n      calldatasize\n      sub\n      dup2\n      add\n      swap1\n      tag_116\n      swap2\n      swap1\n      tag_117\n      jump\t// in\n    tag_116:\n      tag_118\n      jump\t// in\n    tag_115:\n      mload(0x40)\n      tag_119\n      swap2\n      swap1\n      tag_47\n      jump\t// in\n    tag_119:\n      mload(0x40)\n      dup1\n      swap2\n      sub\n      swap1\n      return\n        /* \"contracts/NNTHToken.sol\":2241:2356  function setTransferUnlock() external onlyOwnerOrAuthorized onlyNotPaused {... */\n    tag_27:\n      tag_120\n      tag_121\n      jump\t// in\n    tag_120:\n      stop\n        /* \"@openzeppelin/contracts/access/Ownable.sol\":2543:2758  function transferOwnership(address newOwner) public virtual onlyOwner {... */\n    tag_28:\n      tag_122\n      0x04\n      dup1\n      calldatasize\n      sub\n      dup2\n      add\n      swap1\n      tag_123\n      swap2\n      swap1\n      tag_71\n      jump\t// in\n    tag_123:\n      tag_124\n      jump\t// in\n    tag_122:\n      stop\n        /* \"@openzeppelin/contracts/token/ERC20/ERC20.sol\":2074:2163  function name() public view virtual returns (string memory) {... */\n    tag_35:\n        /* \"@openzeppelin/contracts/token/ERC20/ERC20.sol\":2119:2132  string memory */\n      0x60\n        /* \"@openzeppelin/contracts/token/ERC20/ERC20.sol\":2151:2156  _name */\n      0x03\n        /* \"@openzeppelin/contracts/token/ERC20/ERC20.sol\":2144:2156  return _name */\n      dup1\n      sload\n      tag_126\n      swap1\n      tag_127\n      jump\t// in\n    tag_126:\n      dup1\n      0x1f\n      add\n      0x20\n      dup1\n      swap2\n      div\n      mul\n      0x20\n      add\n      mload(0x40)\n      swap1\n      dup2\n      add\n      0x40\n      mstore\n      dup1\n      swap3\n      swap2\n      swap1\n      dup2\n      dup2\n      mstore\n      0x20\n      add\n      dup3\n      dup1\n      sload\n      tag_128\n      swap1\n      tag_127\n      jump\t// in\n    tag_128:\n      dup1\n      iszero\n      tag_129\n      jumpi\n      dup1\n      0x1f\n      lt\n      tag_130\n      jumpi\n      0x0100\n      dup1\n      dup4\n      sload\n      div\n      mul\n      dup4\n      mstore\n      swap2\n      0x20\n      add\n      swap2\n      jump(tag_129)\n    tag_130:\n      dup3\n      add\n      swap2\n      swap1\n      0x00\n      mstore\n      keccak256(0x00, 0x20)\n      swap1\n    tag_131:\n      dup2\n      sload\n      dup2\n      mstore\n      swap1\n      0x01\n      add\n      swap1\n      0x20\n      add\n      dup1\n      dup4\n      gt\n      tag_131\n      jumpi\n      dup3\n      swap1\n      sub\n      0x1f\n      and\n      dup3\n      add\n      swap2\n    tag_129:\n      pop\n      pop\n      pop\n      pop\n      pop\n      swap1\n      pop\n        /* \"@openzeppelin/contracts/token/ERC20/ERC20.sol\":2074:2163  function name() public view virtual returns (string memory) {... */\n      swap1\n      jump\t// out\n        /* \"@openzeppelin/contracts/token/ERC20/ERC20.sol\":4293:4479  function approve(address spender, uint256 value) public virtual returns (bool) {... */\n    tag_41:\n        /* \"@openzeppelin/contracts/token/ERC20/ERC20.sol\":4366:4370  bool */\n      0x00\n        /* \"@openzeppelin/contracts/token/ERC20/ERC20.sol\":4382:4395  address owner */\n      dup1\n        /* \"@openzeppelin/contracts/token/ERC20/ERC20.sol\":4398:4410  _msgSender() */\n      tag_133\n        /* \"@openzeppelin/contracts/token/ERC20/ERC20.sol\":4398:4408  _msgSender */\n      tag_134\n        /* \"@openzeppelin/contracts/token/ERC20/ERC20.sol\":4398:4410  _msgSender() */\n      jump\t// in\n    tag_133:\n        /* \"@openzeppelin/contracts/token/ERC20/ERC20.sol\":4382:4410  address owner = _msgSender() */\n      swap1\n      pop\n        /* \"@openzeppelin/contracts/token/ERC20/ERC20.sol\":4420:4451  _approve(owner, spender, value) */\n      tag_135\n        /* \"@openzeppelin/contracts/token/ERC20/ERC20.sol\":4429:4434  owner */\n      dup2\n        /* \"@openzeppelin/contracts/token/ERC20/ERC20.sol\":4436:4443  spender */\n      dup6\n        /* \"@openzeppelin/contracts/token/ERC20/ERC20.sol\":4445:4450  value */\n      dup6\n        /* \"@openzeppelin/contracts/token/ERC20/ERC20.sol\":4420:4428  _approve */\n      tag_136\n        /* \"@openzeppelin/contracts/token/ERC20/ERC20.sol\":4420:4451  _approve(owner, spender, value) */\n      jump\t// in\n    tag_135:\n        /* \"@openzeppelin/contracts/token/ERC20/ERC20.sol\":4468:4472  true */\n      0x01\n        /* \"@openzeppelin/contracts/token/ERC20/ERC20.sol\":4461:4472  return true */\n      swap2\n      pop\n      pop\n        /* \"@openzeppelin/contracts/token/ERC20/ERC20.sol\":4293:4479  function approve(address spender, uint256 value) public virtual returns (bool) {... */\n      swap3\n      swap2\n      pop\n      pop\n      jump\t// out\n        /* \"@openzeppelin/contracts/token/ERC20/ERC20.sol\":3144:3241  function totalSupply() public view virtual returns (uint256) {... */\n    tag_45:\n        /* \"@openzeppelin/contracts/token/ERC20/ERC20.sol\":3196:3203  uint256 */\n      0x00\n        /* \"@openzeppelin/contracts/token/ERC20/ERC20.sol\":3222:3234  _totalSupply */\n      sload(0x02)\n        /* \"@openzeppelin/contracts/token/ERC20/ERC20.sol\":3215:3234  return _totalSupply */\n      swap1\n      pop\n        /* \"@openzeppelin/contracts/token/ERC20/ERC20.sol\":3144:3241  function totalSupply() public view virtual returns (uint256) {... */\n      swap1\n      jump\t// out\n        /* \"contracts/NNTHToken.sol\":368:395  uint256 public baseRate = 1 */\n    tag_49:\n      sload(0x08)\n      dup2\n      jump\t// out\n        /* \"contracts/NNTHToken.sol\":3795:4058  function transferFrom(address sender, address recipient, uint256 amount) public override returns (bool) {... */\n    tag_54:\n        /* \"contracts/NNTHToken.sol\":3893:3897  bool */\n      0x00\n        /* \"contracts/NNTHToken.sol\":3909:3952  _transferWithFee(sender, recipient, amount) */\n      tag_139\n        /* \"contracts/NNTHToken.sol\":3926:3932  sender */\n      dup5\n        /* \"contracts/NNTHToken.sol\":3934:3943  recipient */\n      dup5\n        /* \"contracts/NNTHToken.sol\":3945:3951  amount */\n      dup5\n        /* \"contracts/NNTHToken.sol\":3909:3925  _transferWithFee */\n      tag_140\n        /* \"contracts/NNTHToken.sol\":3909:3952  _transferWithFee(sender, recipient, amount) */\n      jump\t// in\n    tag_139:\n        /* \"contracts/NNTHToken.sol\":3962:4030  _approve(sender, msg.sender, allowance(sender, msg.sender) - amount) */\n      tag_141\n        /* \"contracts/NNTHToken.sol\":3971:3977  sender */\n      dup5\n        /* \"contracts/NNTHToken.sol\":3979:3989  msg.sender */\n      caller\n        /* \"contracts/NNTHToken.sol\":4023:4029  amount */\n      dup5\n        /* \"contracts/NNTHToken.sol\":3991:4020  allowance(sender, msg.sender) */\n      tag_142\n        /* \"contracts/NNTHToken.sol\":4001:4007  sender */\n      dup9\n        /* \"contracts/NNTHToken.sol\":4009:4019  msg.sender */\n      caller\n        /* \"contracts/NNTHToken.sol\":3991:4000  allowance */\n      tag_118\n        /* \"contracts/NNTHToken.sol\":3991:4020  allowance(sender, msg.sender) */\n      jump\t// in\n    tag_142:\n        /* \"contracts/NNTHToken.sol\":3991:4029  allowance(sender, msg.sender) - amount */\n      tag_143\n      swap2\n      swap1\n      tag_144\n      jump\t// in\n    tag_143:\n        /* \"contracts/NNTHToken.sol\":3962:3970  _approve */\n      tag_136\n        /* \"contracts/NNTHToken.sol\":3962:4030  _approve(sender, msg.sender, allowance(sender, msg.sender) - amount) */\n      jump\t// in\n    tag_141:\n        /* \"contracts/NNTHToken.sol\":4047:4051  true */\n      0x01\n        /* \"contracts/NNTHToken.sol\":4040:4051  return true */\n      swap1\n      pop\n        /* \"contracts/NNTHToken.sol\":3795:4058  function transferFrom(address sender, address recipient, uint256 amount) public override returns (bool) {... */\n      swap4\n      swap3\n      pop\n      pop\n      pop\n      jump\t// out\n        /* \"@openzeppelin/contracts/token/ERC20/ERC20.sol\":3002:3084  function decimals() public view virtual returns (uint8) {... */\n    tag_57:\n        /* \"@openzeppelin/contracts/token/ERC20/ERC20.sol\":3051:3056  uint8 */\n      0x00\n        /* \"@openzeppelin/contracts/token/ERC20/ERC20.sol\":3075:3077  18 */\n      0x12\n        /* \"@openzeppelin/contracts/token/ERC20/ERC20.sol\":3068:3077  return 18 */\n      swap1\n      pop\n        /* \"@openzeppelin/contracts/token/ERC20/ERC20.sol\":3002:3084  function decimals() public view virtual returns (uint8) {... */\n      swap1\n      jump\t// out\n        /* \"contracts/NNTHToken.sol\":5013:5131  function unpause() external onlyOwner {... */\n    tag_61:\n        /* \"@openzeppelin/contracts/access/Ownable.sol\":1531:1544  _checkOwner() */\n      tag_147\n        /* \"@openzeppelin/contracts/access/Ownable.sol\":1531:1542  _checkOwner */\n      tag_148\n        /* \"@openzeppelin/contracts/access/Ownable.sol\":1531:1544  _checkOwner() */\n      jump\t// in\n    tag_147:\n        /* \"contracts/NNTHToken.sol\":5069:5077  paused() */\n      tag_150\n        /* \"contracts/NNTHToken.sol\":5069:5075  paused */\n      tag_74\n        /* \"contracts/NNTHToken.sol\":5069:5077  paused() */\n      jump\t// in\n    tag_150:\n        /* \"contracts/NNTHToken.sol\":5061:5104  require(paused(), \"Contract is not paused\") */\n      tag_151\n      jumpi\n      mload(0x40)\n      0x08c379a000000000000000000000000000000000000000000000000000000000\n      dup2\n      mstore\n      0x04\n      add\n      tag_152\n      swap1\n      tag_153\n      jump\t// in\n    tag_152:\n      mload(0x40)\n      dup1\n      swap2\n      sub\n      swap1\n      revert\n    tag_151:\n        /* \"contracts/NNTHToken.sol\":5114:5124  _unpause() */\n      tag_154\n        /* \"contracts/NNTHToken.sol\":5114:5122  _unpause */\n      tag_155\n        /* \"contracts/NNTHToken.sol\":5114:5124  _unpause() */\n      jump\t// in\n    tag_154:\n        /* \"contracts/NNTHToken.sol\":5013:5131  function unpause() external onlyOwner {... */\n      jump\t// out\n        /* \"contracts/NNTHToken.sol\":4064:4173  function mint(address to, uint256 amount) external onlyOwner onlyNotPaused {... */\n    tag_64:\n        /* \"@openzeppelin/contracts/access/Ownable.sol\":1531:1544  _checkOwner() */\n      tag_157\n        /* \"@openzeppelin/contracts/access/Ownable.sol\":1531:1542  _checkOwner */\n      tag_148\n        /* \"@openzeppelin/contracts/access/Ownable.sol\":1531:1544  _checkOwner() */\n      jump\t// in\n    tag_157:\n        /* \"contracts/NNTHToken.sol\":986:994  paused() */\n      tag_159\n        /* \"contracts/NNTHToken.sol\":986:992  paused */\n      tag_74\n        /* \"contracts/NNTHToken.sol\":986:994  paused() */\n      jump\t// in\n    tag_159:\n        /* \"contracts/NNTHToken.sol\":985:994  !paused() */\n      iszero\n        /* \"contracts/NNTHToken.sol\":977:1017  require(!paused(), \"Contract is paused\") */\n      tag_160\n      jumpi\n      mload(0x40)\n      0x08c379a000000000000000000000000000000000000000000000000000000000\n      dup2\n      mstore\n      0x04\n      add\n      tag_161\n      swap1\n      tag_162\n      jump\t// in\n    tag_161:\n      mload(0x40)\n      dup1\n      swap2\n      sub\n      swap1\n      revert\n    tag_160:\n        /* \"contracts/NNTHToken.sol\":4149:4166  _mint(to, amount) */\n      tag_164\n        /* \"contracts/NNTHToken.sol\":4155:4157  to */\n      dup3\n        /* \"contracts/NNTHToken.sol\":4159:4165  amount */\n      dup3\n        /* \"contracts/NNTHToken.sol\":4149:4154  _mint */\n      tag_165\n        /* \"contracts/NNTHToken.sol\":4149:4166  _mint(to, amount) */\n      jump\t// in\n    tag_164:\n        /* \"contracts/NNTHToken.sol\":4064:4173  function mint(address to, uint256 amount) external onlyOwner onlyNotPaused {... */\n      pop\n      pop\n      jump\t// out\n        /* \"contracts/NNTHToken.sol\":4179:4284  function burn(uint256 amount) external onlyOwner onlyNotPaused {... */\n    tag_68:\n        /* \"@openzeppelin/contracts/access/Ownable.sol\":1531:1544  _checkOwner() */\n      tag_167\n        /* \"@openzeppelin/contracts/access/Ownable.sol\":1531:1542  _checkOwner */\n      tag_148\n        /* \"@openzeppelin/contracts/access/Ownable.sol\":1531:1544  _checkOwner() */\n      jump\t// in\n    tag_167:\n        /* \"contracts/NNTHToken.sol\":986:994  paused() */\n      tag_169\n        /* \"contracts/NNTHToken.sol\":986:992  paused */\n      tag_74\n        /* \"contracts/NNTHToken.sol\":986:994  paused() */\n      jump\t// in\n    tag_169:\n        /* \"contracts/NNTHToken.sol\":985:994  !paused() */\n      iszero\n        /* \"contracts/NNTHToken.sol\":977:1017  require(!paused(), \"Contract is paused\") */\n      tag_170\n      jumpi\n      mload(0x40)\n      0x08c379a000000000000000000000000000000000000000000000000000000000\n      dup2\n      mstore\n      0x04\n      add\n      tag_171\n      swap1\n      tag_162\n      jump\t// in\n    tag_171:\n      mload(0x40)\n      dup1\n      swap2\n      sub\n      swap1\n      revert\n    tag_170:\n        /* \"contracts/NNTHToken.sol\":4252:4277  _burn(msg.sender, amount) */\n      tag_173\n        /* \"contracts/NNTHToken.sol\":4258:4268  msg.sender */\n      caller\n        /* \"contracts/NNTHToken.sol\":4270:4276  amount */\n      dup3\n        /* \"contracts/NNTHToken.sol\":4252:4257  _burn */\n      tag_174\n        /* \"contracts/NNTHToken.sol\":4252:4277  _burn(msg.sender, amount) */\n      jump\t// in\n    tag_173:\n        /* \"contracts/NNTHToken.sol\":4179:4284  function burn(uint256 amount) external onlyOwner onlyNotPaused {... */\n      pop\n      jump\t// out\n        /* \"contracts/NNTHToken.sol\":4290:4507  function lockAccount(address account) external onlyOwner onlyNotPaused {... */\n    tag_72:\n        /* \"@openzeppelin/contracts/access/Ownable.sol\":1531:1544  _checkOwner() */\n      tag_176\n        /* \"@openzeppelin/contracts/access/Ownable.sol\":1531:1542  _checkOwner */\n      tag_148\n        /* \"@openzeppelin/contracts/access/Ownable.sol\":1531:1544  _checkOwner() */\n      jump\t// in\n    tag_176:\n        /* \"contracts/NNTHToken.sol\":986:994  paused() */\n      tag_178\n        /* \"contracts/NNTHToken.sol\":986:992  paused */\n      tag_74\n        /* \"contracts/NNTHToken.sol\":986:994  paused() */\n      jump\t// in\n    tag_178:\n        /* \"contracts/NNTHToken.sol\":985:994  !paused() */\n      iszero\n        /* \"contracts/NNTHToken.sol\":977:1017  require(!paused(), \"Contract is paused\") */\n      tag_179\n      jumpi\n      mload(0x40)\n      0x08c379a000000000000000000000000000000000000000000000000000000000\n      dup2\n      mstore\n      0x04\n      add\n      tag_180\n      swap1\n      tag_162\n      jump\t// in\n    tag_180:\n      mload(0x40)\n      dup1\n      swap2\n      sub\n      swap1\n      revert\n    tag_179:\n        /* \"contracts/NNTHToken.sol\":4380:4389  _isLocked */\n      0x07\n        /* \"contracts/NNTHToken.sol\":4380:4398  _isLocked[account] */\n      0x00\n        /* \"contracts/NNTHToken.sol\":4390:4397  account */\n      dup3\n        /* \"contracts/NNTHToken.sol\":4380:4398  _isLocked[account] */\n      0xffffffffffffffffffffffffffffffffffffffff\n      and\n      0xffffffffffffffffffffffffffffffffffffffff\n      and\n      dup2\n      mstore\n      0x20\n      add\n      swap1\n      dup2\n      mstore\n      0x20\n      add\n      0x00\n      keccak256\n      0x00\n      swap1\n      sload\n      swap1\n      0x0100\n      exp\n      swap1\n      div\n      0xff\n      and\n        /* \"contracts/NNTHToken.sol\":4379:4398  !_isLocked[account] */\n      iszero\n        /* \"contracts/NNTHToken.sol\":4371:4428  require(!_isLocked[account], \"Account is already locked\") */\n      tag_182\n      jumpi\n      mload(0x40)\n      0x08c379a000000000000000000000000000000000000000000000000000000000\n      dup2\n      mstore\n      0x04\n      add\n      tag_183\n      swap1\n      tag_184\n      jump\t// in\n    tag_183:\n      mload(0x40)\n      dup1\n      swap2\n      sub\n      swap1\n      revert\n    tag_182:\n        /* \"contracts/NNTHToken.sol\":4459:4463  true */\n      0x01\n        /* \"contracts/NNTHToken.sol\":4438:4447  _isLocked */\n      0x07\n        /* \"contracts/NNTHToken.sol\":4438:4456  _isLocked[account] */\n      0x00\n        /* \"contracts/NNTHToken.sol\":4448:4455  account */\n      dup4\n        /* \"contracts/NNTHToken.sol\":4438:4456  _isLocked[account] */\n      0xffffffffffffffffffffffffffffffffffffffff\n      and\n      0xffffffffffffffffffffffffffffffffffffffff\n      and\n      dup2\n      mstore\n      0x20\n      add\n      swap1\n      dup2\n      mstore\n      0x20\n      add\n      0x00\n      keccak256\n      0x00\n        /* \"contracts/NNTHToken.sol\":4438:4463  _isLocked[account] = true */\n      0x0100\n      exp\n      dup2\n      sload\n      dup2\n      0xff\n      mul\n      not\n      and\n      swap1\n      dup4\n      iszero\n      iszero\n      mul\n      or\n      swap1\n      sstore\n      pop\n        /* \"contracts/NNTHToken.sol\":4486:4493  account */\n      dup1\n        /* \"contracts/NNTHToken.sol\":4478:4500  LockSet(account, true) */\n      0xffffffffffffffffffffffffffffffffffffffff\n      and\n      0x57ff75194cb51b1933c5aa7b9fb0db5a6e5f2e168467c29076eaa30a38fbb52b\n        /* \"contracts/NNTHToken.sol\":4495:4499  true */\n      0x01\n        /* \"contracts/NNTHToken.sol\":4478:4500  LockSet(account, true) */\n      mload(0x40)\n      tag_185\n      swap2\n      swap1\n      tag_43\n      jump\t// in\n    tag_185:\n      mload(0x40)\n      dup1\n      swap2\n      sub\n      swap1\n      log2\n        /* \"contracts/NNTHToken.sol\":4290:4507  function lockAccount(address account) external onlyOwner onlyNotPaused {... */\n      pop\n      jump\t// out\n        /* \"@openzeppelin/contracts/security/Pausable.sol\":1615:1699  function paused() public view virtual returns (bool) {... */\n    tag_74:\n        /* \"@openzeppelin/contracts/security/Pausable.sol\":1662:1666  bool */\n      0x00\n        /* \"@openzeppelin/contracts/security/Pausable.sol\":1685:1692  _paused */\n      0x05\n      0x14\n      swap1\n      sload\n      swap1\n      0x0100\n      exp\n      swap1\n      div\n      0xff\n      and\n        /* \"@openzeppelin/contracts/security/Pausable.sol\":1678:1692  return _paused */\n      swap1\n      pop\n        /* \"@openzeppelin/contracts/security/Pausable.sol\":1615:1699  function paused() public view virtual returns (bool) {... */\n      swap1\n      jump\t// out\n        /* \"contracts/NNTHToken.sol\":491:528  uint256 public adoptionPercentage = 0 */\n    tag_77:\n      sload(0x0a)\n      dup2\n      jump\t// out\n        /* \"@openzeppelin/contracts/token/ERC20/ERC20.sol\":3299:3415  function balanceOf(address account) public view virtual returns (uint256) {... */\n    tag_81:\n        /* \"@openzeppelin/contracts/token/ERC20/ERC20.sol\":3364:3371  uint256 */\n      0x00\n        /* \"@openzeppelin/contracts/token/ERC20/ERC20.sol\":3390:3399  _balances */\n      dup1\n        /* \"@openzeppelin/contracts/token/ERC20/ERC20.sol\":3390:3408  _balances[account] */\n      0x00\n        /* \"@openzeppelin/contracts/token/ERC20/ERC20.sol\":3400:3407  account */\n      dup4\n        /* \"@openzeppelin/contracts/token/ERC20/ERC20.sol\":3390:3408  _balances[account] */\n      0xffffffffffffffffffffffffffffffffffffffff\n      and\n      0xffffffffffffffffffffffffffffffffffffffff\n      and\n      dup2\n      mstore\n      0x20\n      add\n      swap1\n      dup2\n      mstore\n      0x20\n      add\n      0x00\n      keccak256\n      sload\n        /* \"@openzeppelin/contracts/token/ERC20/ERC20.sol\":3383:3408  return _balances[account] */\n      swap1\n      pop\n        /* \"@openzeppelin/contracts/token/ERC20/ERC20.sol\":3299:3415  function balanceOf(address account) public view virtual returns (uint256) {... */\n      swap2\n      swap1\n      pop\n      jump\t// out\n        /* \"@openzeppelin/contracts/access/Ownable.sol\":2293:2394  function renounceOwnership() public virtual onlyOwner {... */\n    tag_84:\n        /* \"@openzeppelin/contracts/access/Ownable.sol\":1531:1544  _checkOwner() */\n      tag_189\n        /* \"@openzeppelin/contracts/access/Ownable.sol\":1531:1542  _checkOwner */\n      tag_148\n        /* \"@openzeppelin/contracts/access/Ownable.sol\":1531:1544  _checkOwner() */\n      jump\t// in\n    tag_189:\n        /* \"@openzeppelin/contracts/access/Ownable.sol\":2357:2387  _transferOwnership(address(0)) */\n      tag_191\n        /* \"@openzeppelin/contracts/access/Ownable.sol\":2384:2385  0 */\n      0x00\n        /* \"@openzeppelin/contracts/access/Ownable.sol\":2357:2375  _transferOwnership */\n      tag_192\n        /* \"@openzeppelin/contracts/access/Ownable.sol\":2357:2387  _transferOwnership(address(0)) */\n      jump\t// in\n    tag_191:\n        /* \"@openzeppelin/contracts/access/Ownable.sol\":2293:2394  function renounceOwnership() public virtual onlyOwner {... */\n      jump\t// out\n        /* \"contracts/NNTHToken.sol\":4735:4848  function isAccountLocked(address account) external view returns (bool) {... */\n    tag_87:\n        /* \"contracts/NNTHToken.sol\":4800:4804  bool */\n      0x00\n        /* \"contracts/NNTHToken.sol\":4823:4832  _isLocked */\n      0x07\n        /* \"contracts/NNTHToken.sol\":4823:4841  _isLocked[account] */\n      0x00\n        /* \"contracts/NNTHToken.sol\":4833:4840  account */\n      dup4\n        /* \"contracts/NNTHToken.sol\":4823:4841  _isLocked[account] */\n      0xffffffffffffffffffffffffffffffffffffffff\n      and\n      0xffffffffffffffffffffffffffffffffffffffff\n      and\n      dup2\n      mstore\n      0x20\n      add\n      swap1\n      dup2\n      mstore\n      0x20\n      add\n      0x00\n      keccak256\n      0x00\n      swap1\n      sload\n      swap1\n      0x0100\n      exp\n      swap1\n      div\n      0xff\n      and\n        /* \"contracts/NNTHToken.sol\":4816:4841  return _isLocked[account] */\n      swap1\n      pop\n        /* \"contracts/NNTHToken.sol\":4735:4848  function isAccountLocked(address account) external view returns (bool) {... */\n      swap2\n      swap1\n      pop\n      jump\t// out\n        /* \"contracts/NNTHToken.sol\":2073:2235  function setTransferLock(uint256 lockDuration) external onlyOwnerOrAuthorized onlyNotPaused {... */\n    tag_91:\n        /* \"contracts/NNTHToken.sol\":1394:1401  owner() */\n      tag_195\n        /* \"contracts/NNTHToken.sol\":1394:1399  owner */\n      tag_95\n        /* \"contracts/NNTHToken.sol\":1394:1401  owner() */\n      jump\t// in\n    tag_195:\n        /* \"contracts/NNTHToken.sol\":1380:1401  msg.sender == owner() */\n      0xffffffffffffffffffffffffffffffffffffffff\n      and\n        /* \"contracts/NNTHToken.sol\":1380:1390  msg.sender */\n      caller\n        /* \"contracts/NNTHToken.sol\":1380:1401  msg.sender == owner() */\n      0xffffffffffffffffffffffffffffffffffffffff\n      and\n      eq\n        /* \"contracts/NNTHToken.sol\":1380:1432  msg.sender == owner() || msg.sender == address(this) */\n      dup1\n      tag_196\n      jumpi\n      pop\n        /* \"contracts/NNTHToken.sol\":1427:1431  this */\n      address\n        /* \"contracts/NNTHToken.sol\":1405:1432  msg.sender == address(this) */\n      0xffffffffffffffffffffffffffffffffffffffff\n      and\n        /* \"contracts/NNTHToken.sol\":1405:1415  msg.sender */\n      caller\n        /* \"contracts/NNTHToken.sol\":1405:1432  msg.sender == address(this) */\n      0xffffffffffffffffffffffffffffffffffffffff\n      and\n      eq\n        /* \"contracts/NNTHToken.sol\":1380:1432  msg.sender == owner() || msg.sender == address(this) */\n    tag_196:\n        /* \"contracts/NNTHToken.sol\":1372:1451  require(msg.sender == owner() || msg.sender == address(this), \"Not authorized\") */\n      tag_197\n      jumpi\n      mload(0x40)\n      0x08c379a000000000000000000000000000000000000000000000000000000000\n      dup2\n      mstore\n      0x04\n      add\n      tag_198\n      swap1\n      tag_199\n      jump\t// in\n    tag_198:\n      mload(0x40)\n      dup1\n      swap2\n      sub\n      swap1\n      revert\n    tag_197:\n        /* \"contracts/NNTHToken.sol\":986:994  paused() */\n      tag_201\n        /* \"contracts/NNTHToken.sol\":986:992  paused */\n      tag_74\n        /* \"contracts/NNTHToken.sol\":986:994  paused() */\n      jump\t// in\n    tag_201:\n        /* \"contracts/NNTHToken.sol\":985:994  !paused() */\n      iszero\n        /* \"contracts/NNTHToken.sol\":977:1017  require(!paused(), \"Contract is paused\") */\n      tag_202\n      jumpi\n      mload(0x40)\n      0x08c379a000000000000000000000000000000000000000000000000000000000\n      dup2\n      mstore\n      0x04\n      add\n      tag_203\n      swap1\n      tag_162\n      jump\t// in\n    tag_203:\n      mload(0x40)\n      dup1\n      swap2\n      sub\n      swap1\n      revert\n    tag_202:\n        /* \"contracts/NNTHToken.sol\":2216:2228  lockDuration */\n      dup1\n        /* \"contracts/NNTHToken.sol\":2198:2213  block.timestamp */\n      timestamp\n        /* \"contracts/NNTHToken.sol\":2198:2228  block.timestamp + lockDuration */\n      tag_205\n      swap2\n      swap1\n      tag_206\n      jump\t// in\n    tag_205:\n        /* \"contracts/NNTHToken.sol\":2175:2195  _transferLockEndTime */\n      0x06\n        /* \"contracts/NNTHToken.sol\":2175:2228  _transferLockEndTime = block.timestamp + lockDuration */\n      dup2\n      swap1\n      sstore\n      pop\n        /* \"contracts/NNTHToken.sol\":2073:2235  function setTransferLock(uint256 lockDuration) external onlyOwnerOrAuthorized onlyNotPaused {... */\n      pop\n      jump\t// out\n        /* \"contracts/NNTHToken.sol\":4892:4967  function pause() external onlyOwner onlyNotPaused {... */\n    tag_93:\n        /* \"@openzeppelin/contracts/access/Ownable.sol\":1531:1544  _checkOwner() */\n      tag_208\n        /* \"@openzeppelin/contracts/access/Ownable.sol\":1531:1542  _checkOwner */\n      tag_148\n        /* \"@openzeppelin/contracts/access/Ownable.sol\":1531:1544  _checkOwner() */\n      jump\t// in\n    tag_208:\n        /* \"contracts/NNTHToken.sol\":986:994  paused() */\n      tag_210\n        /* \"contracts/NNTHToken.sol\":986:992  paused */\n      tag_74\n        /* \"contracts/NNTHToken.sol\":986:994  paused() */\n      jump\t// in\n    tag_210:\n        /* \"contracts/NNTHToken.sol\":985:994  !paused() */\n      iszero\n        /* \"contracts/NNTHToken.sol\":977:1017  require(!paused(), \"Contract is paused\") */\n      tag_211\n      jumpi\n      mload(0x40)\n      0x08c379a000000000000000000000000000000000000000000000000000000000\n      dup2\n      mstore\n      0x04\n      add\n      tag_212\n      swap1\n      tag_162\n      jump\t// in\n    tag_212:\n      mload(0x40)\n      dup1\n      swap2\n      sub\n      swap1\n      revert\n    tag_211:\n        /* \"contracts/NNTHToken.sol\":4952:4960  _pause() */\n      tag_214\n        /* \"contracts/NNTHToken.sol\":4952:4958  _pause */\n      tag_215\n        /* \"contracts/NNTHToken.sol\":4952:4960  _pause() */\n      jump\t// in\n    tag_214:\n        /* \"contracts/NNTHToken.sol\":4892:4967  function pause() external onlyOwner onlyNotPaused {... */\n      jump\t// out\n        /* \"@openzeppelin/contracts/access/Ownable.sol\":1638:1723  function owner() public view virtual returns (address) {... */\n    tag_95:\n        /* \"@openzeppelin/contracts/access/Ownable.sol\":1684:1691  address */\n      0x00\n        /* \"@openzeppelin/contracts/access/Ownable.sol\":1710:1716  _owner */\n      0x05\n      0x00\n      swap1\n      sload\n      swap1\n      0x0100\n      exp\n      swap1\n      div\n      0xffffffffffffffffffffffffffffffffffffffff\n      and\n        /* \"@openzeppelin/contracts/access/Ownable.sol\":1703:1716  return _owner */\n      swap1\n      pop\n        /* \"@openzeppelin/contracts/access/Ownable.sol\":1638:1723  function owner() public view virtual returns (address) {... */\n      swap1\n      jump\t// out\n        /* \"contracts/NNTHToken.sol\":4513:4729  function unlockAccount(address account) external onlyOwner onlyNotPaused {... */\n    tag_100:\n        /* \"@openzeppelin/contracts/access/Ownable.sol\":1531:1544  _checkOwner() */\n      tag_218\n        /* \"@openzeppelin/contracts/access/Ownable.sol\":1531:1542  _checkOwner */\n      tag_148\n        /* \"@openzeppelin/contracts/access/Ownable.sol\":1531:1544  _checkOwner() */\n      jump\t// in\n    tag_218:\n        /* \"contracts/NNTHToken.sol\":986:994  paused() */\n      tag_220\n        /* \"contracts/NNTHToken.sol\":986:992  paused */\n      tag_74\n        /* \"contracts/NNTHToken.sol\":986:994  paused() */\n      jump\t// in\n    tag_220:\n        /* \"contracts/NNTHToken.sol\":985:994  !paused() */\n      iszero\n        /* \"contracts/NNTHToken.sol\":977:1017  require(!paused(), \"Contract is paused\") */\n      tag_221\n      jumpi\n      mload(0x40)\n      0x08c379a000000000000000000000000000000000000000000000000000000000\n      dup2\n      mstore\n      0x04\n      add\n      tag_222\n      swap1\n      tag_162\n      jump\t// in\n    tag_222:\n      mload(0x40)\n      dup1\n      swap2\n      sub\n      swap1\n      revert\n    tag_221:\n        /* \"contracts/NNTHToken.sol\":4604:4613  _isLocked */\n      0x07\n        /* \"contracts/NNTHToken.sol\":4604:4622  _isLocked[account] */\n      0x00\n        /* \"contracts/NNTHToken.sol\":4614:4621  account */\n      dup3\n        /* \"contracts/NNTHToken.sol\":4604:4622  _isLocked[account] */\n      0xffffffffffffffffffffffffffffffffffffffff\n      and\n      0xffffffffffffffffffffffffffffffffffffffff\n      and\n      dup2\n      mstore\n      0x20\n      add\n      swap1\n      dup2\n      mstore\n      0x20\n      add\n      0x00\n      keccak256\n      0x00\n      swap1\n      sload\n      swap1\n      0x0100\n      exp\n      swap1\n      div\n      0xff\n      and\n        /* \"contracts/NNTHToken.sol\":4596:4648  require(_isLocked[account], \"Account is not locked\") */\n      tag_224\n      jumpi\n      mload(0x40)\n      0x08c379a000000000000000000000000000000000000000000000000000000000\n      dup2\n      mstore\n      0x04\n      add\n      tag_225\n      swap1\n      tag_226\n      jump\t// in\n    tag_225:\n      mload(0x40)\n      dup1\n      swap2\n      sub\n      swap1\n      revert\n    tag_224:\n        /* \"contracts/NNTHToken.sol\":4679:4684  false */\n      0x00\n        /* \"contracts/NNTHToken.sol\":4658:4667  _isLocked */\n      0x07\n        /* \"contracts/NNTHToken.sol\":4658:4676  _isLocked[account] */\n      0x00\n        /* \"contracts/NNTHToken.sol\":4668:4675  account */\n      dup4\n        /* \"contracts/NNTHToken.sol\":4658:4676  _isLocked[account] */\n      0xffffffffffffffffffffffffffffffffffffffff\n      and\n      0xffffffffffffffffffffffffffffffffffffffff\n      and\n      dup2\n      mstore\n      0x20\n      add\n      swap1\n      dup2\n      mstore\n      0x20\n      add\n      0x00\n      keccak256\n      0x00\n        /* \"contracts/NNTHToken.sol\":4658:4684  _isLocked[account] = false */\n      0x0100\n      exp\n      dup2\n      sload\n      dup2\n      0xff\n      mul\n      not\n      and\n      swap1\n      dup4\n      iszero\n      iszero\n      mul\n      or\n      swap1\n      sstore\n      pop\n        /* \"contracts/NNTHToken.sol\":4707:4714  account */\n      dup1\n        /* \"contracts/NNTHToken.sol\":4699:4722  LockSet(account, false) */\n      0xffffffffffffffffffffffffffffffffffffffff\n      and\n      0x57ff75194cb51b1933c5aa7b9fb0db5a6e5f2e168467c29076eaa30a38fbb52b\n        /* \"contracts/NNTHToken.sol\":4716:4721  false */\n      0x00\n        /* \"contracts/NNTHToken.sol\":4699:4722  LockSet(account, false) */\n      mload(0x40)\n      tag_227\n      swap2\n      swap1\n      tag_43\n      jump\t// in\n    tag_227:\n      mload(0x40)\n      dup1\n      swap2\n      sub\n      swap1\n      log2\n        /* \"contracts/NNTHToken.sol\":4513:4729  function unlockAccount(address account) external onlyOwner onlyNotPaused {... */\n      pop\n      jump\t// out\n        /* \"@openzeppelin/contracts/token/ERC20/ERC20.sol\":2276:2369  function symbol() public view virtual returns (string memory) {... */\n    tag_102:\n        /* \"@openzeppelin/contracts/token/ERC20/ERC20.sol\":2323:2336  string memory */\n      0x60\n        /* \"@openzeppelin/contracts/token/ERC20/ERC20.sol\":2355:2362  _symbol */\n      0x04\n        /* \"@openzeppelin/contracts/token/ERC20/ERC20.sol\":2348:2362  return _symbol */\n      dup1\n      sload\n      tag_229\n      swap1\n      tag_127\n      jump\t// in\n    tag_229:\n      dup1\n      0x1f\n      add\n      0x20\n      dup1\n      swap2\n      div\n      mul\n      0x20\n      add\n      mload(0x40)\n      swap1\n      dup2\n      add\n      0x40\n      mstore\n      dup1\n      swap3\n      swap2\n      swap1\n      dup2\n      dup2\n      mstore\n      0x20\n      add\n      dup3\n      dup1\n      sload\n      tag_230\n      swap1\n      tag_127\n      jump\t// in\n    tag_230:\n      dup1\n      iszero\n      tag_231\n      jumpi\n      dup1\n      0x1f\n      lt\n      tag_232\n      jumpi\n      0x0100\n      dup1\n      dup4\n      sload\n      div\n      mul\n      dup4\n      mstore\n      swap2\n      0x20\n      add\n      swap2\n      jump(tag_231)\n    tag_232:\n      dup3\n      add\n      swap2\n      swap1\n      0x00\n      mstore\n      keccak256(0x00, 0x20)\n      swap1\n    tag_233:\n      dup2\n      sload\n      dup2\n      mstore\n      swap1\n      0x01\n      add\n      swap1\n      0x20\n      add\n      dup1\n      dup4\n      gt\n      tag_233\n      jumpi\n      dup3\n      swap1\n      sub\n      0x1f\n      and\n      dup3\n      add\n      swap2\n    tag_231:\n      pop\n      pop\n      pop\n      pop\n      pop\n      swap1\n      pop\n        /* \"@openzeppelin/contracts/token/ERC20/ERC20.sol\":2276:2369  function symbol() public view virtual returns (string memory) {... */\n      swap1\n      jump\t// out\n        /* \"contracts/NNTHToken.sol\":3620:3789  function transfer(address recipient, uint256 amount) public override returns (bool) {... */\n    tag_106:\n        /* \"contracts/NNTHToken.sol\":3698:3702  bool */\n      0x00\n        /* \"contracts/NNTHToken.sol\":3714:3761  _transferWithFee(msg.sender, recipient, amount) */\n      tag_235\n        /* \"contracts/NNTHToken.sol\":3731:3741  msg.sender */\n      caller\n        /* \"contracts/NNTHToken.sol\":3743:3752  recipient */\n      dup5\n        /* \"contracts/NNTHToken.sol\":3754:3760  amount */\n      dup5\n        /* \"contracts/NNTHToken.sol\":3714:3730  _transferWithFee */\n      tag_140\n        /* \"contracts/NNTHToken.sol\":3714:3761  _transferWithFee(msg.sender, recipient, amount) */\n      jump\t// in\n    tag_235:\n        /* \"contracts/NNTHToken.sol\":3778:3782  true */\n      0x01\n        /* \"contracts/NNTHToken.sol\":3771:3782  return true */\n      swap1\n      pop\n        /* \"contracts/NNTHToken.sol\":3620:3789  function transfer(address recipient, uint256 amount) public override returns (bool) {... */\n      swap3\n      swap2\n      pop\n      pop\n      jump\t// out\n        /* \"contracts/NNTHToken.sol\":2362:2875  function setGeneralFee(uint256 newBaseRate, uint256 newAdoptionFactor, uint256 newAdoptionPercentage) external ... */\n    tag_111:\n        /* \"@openzeppelin/contracts/access/Ownable.sol\":1531:1544  _checkOwner() */\n      tag_237\n        /* \"@openzeppelin/contracts/access/Ownable.sol\":1531:1542  _checkOwner */\n      tag_148\n        /* \"@openzeppelin/contracts/access/Ownable.sol\":1531:1544  _checkOwner() */\n      jump\t// in\n    tag_237:\n        /* \"contracts/NNTHToken.sol\":986:994  paused() */\n      tag_239\n        /* \"contracts/NNTHToken.sol\":986:992  paused */\n      tag_74\n        /* \"contracts/NNTHToken.sol\":986:994  paused() */\n      jump\t// in\n    tag_239:\n        /* \"contracts/NNTHToken.sol\":985:994  !paused() */\n      iszero\n        /* \"contracts/NNTHToken.sol\":977:1017  require(!paused(), \"Contract is paused\") */\n      tag_240\n      jumpi\n      mload(0x40)\n      0x08c379a000000000000000000000000000000000000000000000000000000000\n      dup2\n      mstore\n      0x04\n      add\n      tag_241\n      swap1\n      tag_162\n      jump\t// in\n    tag_241:\n      mload(0x40)\n      dup1\n      swap2\n      sub\n      swap1\n      revert\n    tag_240:\n        /* \"contracts/NNTHToken.sol\":2540:2551  newBaseRate */\n      dup3\n        /* \"contracts/NNTHToken.sol\":1109:1110  0 */\n      0x00\n        /* \"contracts/NNTHToken.sol\":1101:1106  value */\n      dup2\n        /* \"contracts/NNTHToken.sol\":1101:1110  value > 0 */\n      gt\n        /* \"contracts/NNTHToken.sol\":1093:1137  require(value > 0, \"Value must be positive\") */\n      tag_243\n      jumpi\n      mload(0x40)\n      0x08c379a000000000000000000000000000000000000000000000000000000000\n      dup2\n      mstore\n      0x04\n      add\n      tag_244\n      swap1\n      tag_245\n      jump\t// in\n    tag_244:\n      mload(0x40)\n      dup1\n      swap2\n      sub\n      swap1\n      revert\n    tag_243:\n        /* \"contracts/NNTHToken.sol\":2579:2596  newAdoptionFactor */\n      dup3\n        /* \"contracts/NNTHToken.sol\":1109:1110  0 */\n      0x00\n        /* \"contracts/NNTHToken.sol\":1101:1106  value */\n      dup2\n        /* \"contracts/NNTHToken.sol\":1101:1110  value > 0 */\n      gt\n        /* \"contracts/NNTHToken.sol\":1093:1137  require(value > 0, \"Value must be positive\") */\n      tag_247\n      jumpi\n      mload(0x40)\n      0x08c379a000000000000000000000000000000000000000000000000000000000\n      dup2\n      mstore\n      0x04\n      add\n      tag_248\n      swap1\n      tag_245\n      jump\t// in\n    tag_248:\n      mload(0x40)\n      dup1\n      swap2\n      sub\n      swap1\n      revert\n    tag_247:\n        /* \"contracts/NNTHToken.sol\":2626:2647  newAdoptionPercentage */\n      dup3\n        /* \"contracts/NNTHToken.sol\":1242:1243  0 */\n      0x00\n        /* \"contracts/NNTHToken.sol\":1228:1238  percentage */\n      dup2\n        /* \"contracts/NNTHToken.sol\":1228:1243  percentage >= 0 */\n      lt\n      iszero\n        /* \"contracts/NNTHToken.sol\":1228:1264  percentage >= 0 && percentage <= 100 */\n      dup1\n      iszero\n      tag_250\n      jumpi\n      pop\n        /* \"contracts/NNTHToken.sol\":1261:1264  100 */\n      0x64\n        /* \"contracts/NNTHToken.sol\":1247:1257  percentage */\n      dup2\n        /* \"contracts/NNTHToken.sol\":1247:1264  percentage <= 100 */\n      gt\n      iszero\n        /* \"contracts/NNTHToken.sol\":1228:1264  percentage >= 0 && percentage <= 100 */\n    tag_250:\n        /* \"contracts/NNTHToken.sol\":1220:1305  require(percentage >= 0 && percentage <= 100, \"Percentage must be between 0 and 100\") */\n      tag_251\n      jumpi\n      mload(0x40)\n      0x08c379a000000000000000000000000000000000000000000000000000000000\n      dup2\n      mstore\n      0x04\n      add\n      tag_252\n      swap1\n      tag_253\n      jump\t// in\n    tag_252:\n      mload(0x40)\n      dup1\n      swap2\n      sub\n      swap1\n      revert\n    tag_251:\n        /* \"contracts/NNTHToken.sol\":2674:2685  newBaseRate */\n      dup6\n        /* \"contracts/NNTHToken.sol\":2663:2671  baseRate */\n      0x08\n        /* \"contracts/NNTHToken.sol\":2663:2685  baseRate = newBaseRate */\n      dup2\n      swap1\n      sstore\n      pop\n        /* \"contracts/NNTHToken.sol\":2712:2729  newAdoptionFactor */\n      dup5\n        /* \"contracts/NNTHToken.sol\":2695:2709  adoptionFactor */\n      0x09\n        /* \"contracts/NNTHToken.sol\":2695:2729  adoptionFactor = newAdoptionFactor */\n      dup2\n      swap1\n      sstore\n      pop\n        /* \"contracts/NNTHToken.sol\":2760:2781  newAdoptionPercentage */\n      dup4\n        /* \"contracts/NNTHToken.sol\":2739:2757  adoptionPercentage */\n      0x0a\n        /* \"contracts/NNTHToken.sol\":2739:2781  adoptionPercentage = newAdoptionPercentage */\n      dup2\n      swap1\n      sstore\n      pop\n        /* \"contracts/NNTHToken.sol\":2796:2868  GeneralFeeChanged(newBaseRate, newAdoptionFactor, newAdoptionPercentage) */\n      0x3e57aa3e8d0e68b0f330004600cbb803a94a7b63b8f8c99bd79f40fc9a309c3f\n        /* \"contracts/NNTHToken.sol\":2814:2825  newBaseRate */\n      dup7\n        /* \"contracts/NNTHToken.sol\":2827:2844  newAdoptionFactor */\n      dup7\n        /* \"contracts/NNTHToken.sol\":2846:2867  newAdoptionPercentage */\n      dup7\n        /* \"contracts/NNTHToken.sol\":2796:2868  GeneralFeeChanged(newBaseRate, newAdoptionFactor, newAdoptionPercentage) */\n      mload(0x40)\n      tag_255\n      swap4\n      swap3\n      swap2\n      swap1\n      tag_256\n      jump\t// in\n    tag_255:\n      mload(0x40)\n      dup1\n      swap2\n      sub\n      swap1\n      log1\n        /* \"contracts/NNTHToken.sol\":1147:1148  _ */\n      pop\n      pop\n        /* \"contracts/NNTHToken.sol\":1027:1028  _ */\n      pop\n        /* \"contracts/NNTHToken.sol\":2362:2875  function setGeneralFee(uint256 newBaseRate, uint256 newAdoptionFactor, uint256 newAdoptionPercentage) external ... */\n      pop\n      pop\n      pop\n      jump\t// out\n        /* \"contracts/NNTHToken.sol\":433:466  uint256 public adoptionFactor = 1 */\n    tag_113:\n      sload(0x09)\n      dup2\n      jump\t// out\n        /* \"@openzeppelin/contracts/token/ERC20/ERC20.sol\":3846:3986  function allowance(address owner, address spender) public view virtual returns (uint256) {... */\n    tag_118:\n        /* \"@openzeppelin/contracts/token/ERC20/ERC20.sol\":3926:3933  uint256 */\n      0x00\n        /* \"@openzeppelin/contracts/token/ERC20/ERC20.sol\":3952:3963  _allowances */\n      0x01\n        /* \"@openzeppelin/contracts/token/ERC20/ERC20.sol\":3952:3970  _allowances[owner] */\n      0x00\n        /* \"@openzeppelin/contracts/token/ERC20/ERC20.sol\":3964:3969  owner */\n      dup5\n        /* \"@openzeppelin/contracts/token/ERC20/ERC20.sol\":3952:3970  _allowances[owner] */\n      0xffffffffffffffffffffffffffffffffffffffff\n      and\n      0xffffffffffffffffffffffffffffffffffffffff\n      and\n      dup2\n      mstore\n      0x20\n      add\n      swap1\n      dup2\n      mstore\n      0x20\n      add\n      0x00\n      keccak256\n        /* \"@openzeppelin/contracts/token/ERC20/ERC20.sol\":3952:3979  _allowances[owner][spender] */\n      0x00\n        /* \"@openzeppelin/contracts/token/ERC20/ERC20.sol\":3971:3978  spender */\n      dup4\n        /* \"@openzeppelin/contracts/token/ERC20/ERC20.sol\":3952:3979  _allowances[owner][spender] */\n      0xffffffffffffffffffffffffffffffffffffffff\n      and\n      0xffffffffffffffffffffffffffffffffffffffff\n      and\n      dup2\n      mstore\n      0x20\n      add\n      swap1\n      dup2\n      mstore\n      0x20\n      add\n      0x00\n      keccak256\n      sload\n        /* \"@openzeppelin/contracts/token/ERC20/ERC20.sol\":3945:3979  return _allowances[owner][spender] */\n      swap1\n      pop\n        /* \"@openzeppelin/contracts/token/ERC20/ERC20.sol\":3846:3986  function allowance(address owner, address spender) public view virtual returns (uint256) {... */\n      swap3\n      swap2\n      pop\n      pop\n      jump\t// out\n        /* \"contracts/NNTHToken.sol\":2241:2356  function setTransferUnlock() external onlyOwnerOrAuthorized onlyNotPaused {... */\n    tag_121:\n        /* \"contracts/NNTHToken.sol\":1394:1401  owner() */\n      tag_259\n        /* \"contracts/NNTHToken.sol\":1394:1399  owner */\n      tag_95\n        /* \"contracts/NNTHToken.sol\":1394:1401  owner() */\n      jump\t// in\n    tag_259:\n        /* \"contracts/NNTHToken.sol\":1380:1401  msg.sender == owner() */\n      0xffffffffffffffffffffffffffffffffffffffff\n      and\n        /* \"contracts/NNTHToken.sol\":1380:1390  msg.sender */\n      caller\n        /* \"contracts/NNTHToken.sol\":1380:1401  msg.sender == owner() */\n      0xffffffffffffffffffffffffffffffffffffffff\n      and\n      eq\n        /* \"contracts/NNTHToken.sol\":1380:1432  msg.sender == owner() || msg.sender == address(this) */\n      dup1\n      tag_260\n      jumpi\n      pop\n        /* \"contracts/NNTHToken.sol\":1427:1431  this */\n      address\n        /* \"contracts/NNTHToken.sol\":1405:1432  msg.sender == address(this) */\n      0xffffffffffffffffffffffffffffffffffffffff\n      and\n        /* \"contracts/NNTHToken.sol\":1405:1415  msg.sender */\n      caller\n        /* \"contracts/NNTHToken.sol\":1405:1432  msg.sender == address(this) */\n      0xffffffffffffffffffffffffffffffffffffffff\n      and\n      eq\n        /* \"contracts/NNTHToken.sol\":1380:1432  msg.sender == owner() || msg.sender == address(this) */\n    tag_260:\n        /* \"contracts/NNTHToken.sol\":1372:1451  require(msg.sender == owner() || msg.sender == address(this), \"Not authorized\") */\n      tag_261\n      jumpi\n      mload(0x40)\n      0x08c379a000000000000000000000000000000000000000000000000000000000\n      dup2\n      mstore\n      0x04\n      add\n      tag_262\n      swap1\n      tag_199\n      jump\t// in\n    tag_262:\n      mload(0x40)\n      dup1\n      swap2\n      sub\n      swap1\n      revert\n    tag_261:\n        /* \"contracts/NNTHToken.sol\":986:994  paused() */\n      tag_264\n        /* \"contracts/NNTHToken.sol\":986:992  paused */\n      tag_74\n        /* \"contracts/NNTHToken.sol\":986:994  paused() */\n      jump\t// in\n    tag_264:\n        /* \"contracts/NNTHToken.sol\":985:994  !paused() */\n      iszero\n        /* \"contracts/NNTHToken.sol\":977:1017  require(!paused(), \"Contract is paused\") */\n      tag_265\n      jumpi\n      mload(0x40)\n      0x08c379a000000000000000000000000000000000000000000000000000000000\n      dup2\n      mstore\n      0x04\n      add\n      tag_266\n      swap1\n      tag_162\n      jump\t// in\n    tag_266:\n      mload(0x40)\n      dup1\n      swap2\n      sub\n      swap1\n      revert\n    tag_265:\n        /* \"contracts/NNTHToken.sol\":2348:2349  0 */\n      0x00\n        /* \"contracts/NNTHToken.sol\":2325:2345  _transferLockEndTime */\n      0x06\n        /* \"contracts/NNTHToken.sol\":2325:2349  _transferLockEndTime = 0 */\n      dup2\n      swap1\n      sstore\n      pop\n        /* \"contracts/NNTHToken.sol\":2241:2356  function setTransferUnlock() external onlyOwnerOrAuthorized onlyNotPaused {... */\n      jump\t// out\n        /* \"@openzeppelin/contracts/access/Ownable.sol\":2543:2758  function transferOwnership(address newOwner) public virtual onlyOwner {... */\n    tag_124:\n        /* \"@openzeppelin/contracts/access/Ownable.sol\":1531:1544  _checkOwner() */\n      tag_269\n        /* \"@openzeppelin/contracts/access/Ownable.sol\":1531:1542  _checkOwner */\n      tag_148\n        /* \"@openzeppelin/contracts/access/Ownable.sol\":1531:1544  _checkOwner() */\n      jump\t// in\n    tag_269:\n        /* \"@openzeppelin/contracts/access/Ownable.sol\":2647:2648  0 */\n      0x00\n        /* \"@openzeppelin/contracts/access/Ownable.sol\":2627:2649  newOwner == address(0) */\n      0xffffffffffffffffffffffffffffffffffffffff\n      and\n        /* \"@openzeppelin/contracts/access/Ownable.sol\":2627:2635  newOwner */\n      dup2\n        /* \"@openzeppelin/contracts/access/Ownable.sol\":2627:2649  newOwner == address(0) */\n      0xffffffffffffffffffffffffffffffffffffffff\n      and\n      sub\n        /* \"@openzeppelin/contracts/access/Ownable.sol\":2623:2714  if (newOwner == address(0)) {... */\n      tag_271\n      jumpi\n        /* \"@openzeppelin/contracts/access/Ownable.sol\":2700:2701  0 */\n      0x00\n        /* \"@openzeppelin/contracts/access/Ownable.sol\":2672:2703  OwnableInvalidOwner(address(0)) */\n      mload(0x40)\n      0x1e4fbdf700000000000000000000000000000000000000000000000000000000\n      dup2\n      mstore\n      0x04\n      add\n      tag_272\n      swap2\n      swap1\n      tag_97\n      jump\t// in\n    tag_272:\n      mload(0x40)\n      dup1\n      swap2\n      sub\n      swap1\n      revert\n        /* \"@openzeppelin/contracts/access/Ownable.sol\":2623:2714  if (newOwner == address(0)) {... */\n    tag_271:\n        /* \"@openzeppelin/contracts/access/Ownable.sol\":2723:2751  _transferOwnership(newOwner) */\n      tag_273\n        /* \"@openzeppelin/contracts/access/Ownable.sol\":2742:2750  newOwner */\n      dup2\n        /* \"@openzeppelin/contracts/access/Ownable.sol\":2723:2741  _transferOwnership */\n      tag_192\n        /* \"@openzeppelin/contracts/access/Ownable.sol\":2723:2751  _transferOwnership(newOwner) */\n      jump\t// in\n    tag_273:\n        /* \"@openzeppelin/contracts/access/Ownable.sol\":2543:2758  function transferOwnership(address newOwner) public virtual onlyOwner {... */\n      pop\n      jump\t// out\n        /* \"@openzeppelin/contracts/utils/Context.sol\":656:752  function _msgSender() internal view virtual returns (address) {... */\n    tag_134:\n        /* \"@openzeppelin/contracts/utils/Context.sol\":709:716  address */\n      0x00\n        /* \"@openzeppelin/contracts/utils/Context.sol\":735:745  msg.sender */\n      caller\n        /* \"@openzeppelin/contracts/utils/Context.sol\":728:745  return msg.sender */\n      swap1\n      pop\n        /* \"@openzeppelin/contracts/utils/Context.sol\":656:752  function _msgSender() internal view virtual returns (address) {... */\n      swap1\n      jump\t// out\n        /* \"@openzeppelin/contracts/token/ERC20/ERC20.sol\":8989:9117  function _approve(address owner, address spender, uint256 value) internal {... */\n    tag_136:\n        /* \"@openzeppelin/contracts/token/ERC20/ERC20.sol\":9073:9110  _approve(owner, spender, value, true) */\n      tag_276\n        /* \"@openzeppelin/contracts/token/ERC20/ERC20.sol\":9082:9087  owner */\n      dup4\n        /* \"@openzeppelin/contracts/token/ERC20/ERC20.sol\":9089:9096  spender */\n      dup4\n        /* \"@openzeppelin/contracts/token/ERC20/ERC20.sol\":9098:9103  value */\n      dup4\n        /* \"@openzeppelin/contracts/token/ERC20/ERC20.sol\":9105:9109  true */\n      0x01\n        /* \"@openzeppelin/contracts/token/ERC20/ERC20.sol\":9073:9081  _approve */\n      tag_277\n        /* \"@openzeppelin/contracts/token/ERC20/ERC20.sol\":9073:9110  _approve(owner, spender, value, true) */\n      jump\t// in\n    tag_276:\n        /* \"@openzeppelin/contracts/token/ERC20/ERC20.sol\":8989:9117  function _approve(address owner, address spender, uint256 value) internal {... */\n      pop\n      pop\n      pop\n      jump\t// out\n        /* \"contracts/NNTHToken.sol\":3112:3614  function _transferWithFee(address sender, address recipient, uint256 amount) internal ... */\n    tag_140:\n        /* \"contracts/NNTHToken.sol\":3220:3230  msg.sender */\n      caller\n        /* \"contracts/NNTHToken.sol\":878:887  _isLocked */\n      0x07\n        /* \"contracts/NNTHToken.sol\":878:896  _isLocked[account] */\n      0x00\n        /* \"contracts/NNTHToken.sol\":888:895  account */\n      dup3\n        /* \"contracts/NNTHToken.sol\":878:896  _isLocked[account] */\n      0xffffffffffffffffffffffffffffffffffffffff\n      and\n      0xffffffffffffffffffffffffffffffffffffffff\n      and\n      dup2\n      mstore\n      0x20\n      add\n      swap1\n      dup2\n      mstore\n      0x20\n      add\n      0x00\n      keccak256\n      0x00\n      swap1\n      sload\n      swap1\n      0x0100\n      exp\n      swap1\n      div\n      0xff\n      and\n        /* \"contracts/NNTHToken.sol\":877:896  !_isLocked[account] */\n      iszero\n        /* \"contracts/NNTHToken.sol\":869:918  require(!_isLocked[account], \"Account is locked\") */\n      tag_279\n      jumpi\n      mload(0x40)\n      0x08c379a000000000000000000000000000000000000000000000000000000000\n      dup2\n      mstore\n      0x04\n      add\n      tag_280\n      swap1\n      tag_281\n      jump\t// in\n    tag_280:\n      mload(0x40)\n      dup1\n      swap2\n      sub\n      swap1\n      revert\n    tag_279:\n        /* \"contracts/NNTHToken.sol\":3253:3262  recipient */\n      dup3\n        /* \"contracts/NNTHToken.sol\":878:887  _isLocked */\n      0x07\n        /* \"contracts/NNTHToken.sol\":878:896  _isLocked[account] */\n      0x00\n        /* \"contracts/NNTHToken.sol\":888:895  account */\n      dup3\n        /* \"contracts/NNTHToken.sol\":878:896  _isLocked[account] */\n      0xffffffffffffffffffffffffffffffffffffffff\n      and\n      0xffffffffffffffffffffffffffffffffffffffff\n      and\n      dup2\n      mstore\n      0x20\n      add\n      swap1\n      dup2\n      mstore\n      0x20\n      add\n      0x00\n      keccak256\n      0x00\n      swap1\n      sload\n      swap1\n      0x0100\n      exp\n      swap1\n      div\n      0xff\n      and\n        /* \"contracts/NNTHToken.sol\":877:896  !_isLocked[account] */\n      iszero\n        /* \"contracts/NNTHToken.sol\":869:918  require(!_isLocked[account], \"Account is locked\") */\n      tag_283\n      jumpi\n      mload(0x40)\n      0x08c379a000000000000000000000000000000000000000000000000000000000\n      dup2\n      mstore\n      0x04\n      add\n      tag_284\n      swap1\n      tag_281\n      jump\t// in\n    tag_284:\n      mload(0x40)\n      dup1\n      swap2\n      sub\n      swap1\n      revert\n    tag_283:\n        /* \"contracts/NNTHToken.sol\":986:994  paused() */\n      tag_286\n        /* \"contracts/NNTHToken.sol\":986:992  paused */\n      tag_74\n        /* \"contracts/NNTHToken.sol\":986:994  paused() */\n      jump\t// in\n    tag_286:\n        /* \"contracts/NNTHToken.sol\":985:994  !paused() */\n      iszero\n        /* \"contracts/NNTHToken.sol\":977:1017  require(!paused(), \"Contract is paused\") */\n      tag_287\n      jumpi\n      mload(0x40)\n      0x08c379a000000000000000000000000000000000000000000000000000000000\n      dup2\n      mstore\n      0x04\n      add\n      tag_288\n      swap1\n      tag_162\n      jump\t// in\n    tag_288:\n      mload(0x40)\n      dup1\n      swap2\n      sub\n      swap1\n      revert\n    tag_287:\n        /* \"contracts/NNTHToken.sol\":3311:3317  sender */\n      dup5\n        /* \"contracts/NNTHToken.sol\":3319:3328  recipient */\n      dup5\n        /* \"contracts/NNTHToken.sol\":1591:1606  block.timestamp */\n      timestamp\n        /* \"contracts/NNTHToken.sol\":1567:1587  _transferLockEndTime */\n      sload(0x06)\n        /* \"contracts/NNTHToken.sol\":1567:1606  _transferLockEndTime <= block.timestamp */\n      gt\n      iszero\n        /* \"contracts/NNTHToken.sol\":1567:1627  _transferLockEndTime <= block.timestamp || owner() == sender */\n      dup1\n      tag_290\n      jumpi\n      pop\n        /* \"contracts/NNTHToken.sol\":1621:1627  sender */\n      dup2\n        /* \"contracts/NNTHToken.sol\":1610:1627  owner() == sender */\n      0xffffffffffffffffffffffffffffffffffffffff\n      and\n        /* \"contracts/NNTHToken.sol\":1610:1617  owner() */\n      tag_291\n        /* \"contracts/NNTHToken.sol\":1610:1615  owner */\n      tag_95\n        /* \"contracts/NNTHToken.sol\":1610:1617  owner() */\n      jump\t// in\n    tag_291:\n        /* \"contracts/NNTHToken.sol\":1610:1627  owner() == sender */\n      0xffffffffffffffffffffffffffffffffffffffff\n      and\n      eq\n        /* \"contracts/NNTHToken.sol\":1567:1627  _transferLockEndTime <= block.timestamp || owner() == sender */\n    tag_290:\n        /* \"contracts/NNTHToken.sol\":1567:1651  _transferLockEndTime <= block.timestamp || owner() == sender || owner() == recipient */\n      dup1\n      tag_292\n      jumpi\n      pop\n        /* \"contracts/NNTHToken.sol\":1642:1651  recipient */\n      dup1\n        /* \"contracts/NNTHToken.sol\":1631:1651  owner() == recipient */\n      0xffffffffffffffffffffffffffffffffffffffff\n      and\n        /* \"contracts/NNTHToken.sol\":1631:1638  owner() */\n      tag_293\n        /* \"contracts/NNTHToken.sol\":1631:1636  owner */\n      tag_95\n        /* \"contracts/NNTHToken.sol\":1631:1638  owner() */\n      jump\t// in\n    tag_293:\n        /* \"contracts/NNTHToken.sol\":1631:1651  owner() == recipient */\n      0xffffffffffffffffffffffffffffffffffffffff\n      and\n      eq\n        /* \"contracts/NNTHToken.sol\":1567:1651  _transferLockEndTime <= block.timestamp || owner() == sender || owner() == recipient */\n    tag_292:\n        /* \"contracts/NNTHToken.sol\":1545:1724  require(... */\n      tag_294\n      jumpi\n      mload(0x40)\n      0x08c379a000000000000000000000000000000000000000000000000000000000\n      dup2\n      mstore\n      0x04\n      add\n      tag_295\n      swap1\n      tag_296\n      jump\t// in\n    tag_295:\n      mload(0x40)\n      dup1\n      swap2\n      sub\n      swap1\n      revert\n    tag_294:\n        /* \"contracts/NNTHToken.sol\":3340:3351  uint256 fee */\n      0x00\n        /* \"contracts/NNTHToken.sol\":3354:3385  calculateTransactionFee(amount) */\n      tag_298\n        /* \"contracts/NNTHToken.sol\":3378:3384  amount */\n      dup7\n        /* \"contracts/NNTHToken.sol\":3354:3377  calculateTransactionFee */\n      tag_299\n        /* \"contracts/NNTHToken.sol\":3354:3385  calculateTransactionFee(amount) */\n      jump\t// in\n    tag_298:\n        /* \"contracts/NNTHToken.sol\":3340:3385  uint256 fee = calculateTransactionFee(amount) */\n      swap1\n      pop\n        /* \"contracts/NNTHToken.sol\":3395:3412  uint256 netAmount */\n      0x00\n        /* \"contracts/NNTHToken.sol\":3424:3427  fee */\n      dup2\n        /* \"contracts/NNTHToken.sol\":3415:3421  amount */\n      dup8\n        /* \"contracts/NNTHToken.sol\":3415:3427  amount - fee */\n      tag_300\n      swap2\n      swap1\n      tag_144\n      jump\t// in\n    tag_300:\n        /* \"contracts/NNTHToken.sol\":3395:3427  uint256 netAmount = amount - fee */\n      swap1\n      pop\n        /* \"contracts/NNTHToken.sol\":3438:3477  _transfer(sender, recipient, netAmount) */\n      tag_301\n        /* \"contracts/NNTHToken.sol\":3448:3454  sender */\n      dup10\n        /* \"contracts/NNTHToken.sol\":3456:3465  recipient */\n      dup10\n        /* \"contracts/NNTHToken.sol\":3467:3476  netAmount */\n      dup4\n        /* \"contracts/NNTHToken.sol\":3438:3447  _transfer */\n      tag_302\n        /* \"contracts/NNTHToken.sol\":3438:3477  _transfer(sender, recipient, netAmount) */\n      jump\t// in\n    tag_301:\n        /* \"contracts/NNTHToken.sol\":3487:3505  _burn(sender, fee) */\n      tag_303\n        /* \"contracts/NNTHToken.sol\":3493:3499  sender */\n      dup10\n        /* \"contracts/NNTHToken.sol\":3501:3504  fee */\n      dup4\n        /* \"contracts/NNTHToken.sol\":3487:3492  _burn */\n      tag_174\n        /* \"contracts/NNTHToken.sol\":3487:3505  _burn(sender, fee) */\n      jump\t// in\n    tag_303:\n        /* \"contracts/NNTHToken.sol\":3538:3547  recipient */\n      dup8\n        /* \"contracts/NNTHToken.sol\":3521:3559  Transfer(sender, recipient, netAmount) */\n      0xffffffffffffffffffffffffffffffffffffffff\n      and\n        /* \"contracts/NNTHToken.sol\":3530:3536  sender */\n      dup10\n        /* \"contracts/NNTHToken.sol\":3521:3559  Transfer(sender, recipient, netAmount) */\n      0xffffffffffffffffffffffffffffffffffffffff\n      and\n      0xddf252ad1be2c89b69c2b068fc378daa952ba7f163c4a11628f55a4df523b3ef\n        /* \"contracts/NNTHToken.sol\":3549:3558  netAmount */\n      dup4\n        /* \"contracts/NNTHToken.sol\":3521:3559  Transfer(sender, recipient, netAmount) */\n      mload(0x40)\n      tag_304\n      swap2\n      swap1\n      tag_47\n      jump\t// in\n    tag_304:\n      mload(0x40)\n      dup1\n      swap2\n      sub\n      swap1\n      log3\n        /* \"contracts/NNTHToken.sol\":3599:3600  0 */\n      0x00\n        /* \"contracts/NNTHToken.sol\":3574:3607  Transfer(sender, address(0), fee) */\n      0xffffffffffffffffffffffffffffffffffffffff\n      and\n        /* \"contracts/NNTHToken.sol\":3583:3589  sender */\n      dup10\n        /* \"contracts/NNTHToken.sol\":3574:3607  Transfer(sender, address(0), fee) */\n      0xffffffffffffffffffffffffffffffffffffffff\n      and\n      0xddf252ad1be2c89b69c2b068fc378daa952ba7f163c4a11628f55a4df523b3ef\n        /* \"contracts/NNTHToken.sol\":3603:3606  fee */\n      dup5\n        /* \"contracts/NNTHToken.sol\":3574:3607  Transfer(sender, address(0), fee) */\n      mload(0x40)\n      tag_305\n      swap2\n      swap1\n      tag_47\n      jump\t// in\n    tag_305:\n      mload(0x40)\n      dup1\n      swap2\n      sub\n      swap1\n      log3\n        /* \"contracts/NNTHToken.sol\":3330:3614  {... */\n      pop\n      pop\n        /* \"contracts/NNTHToken.sol\":1027:1028  _ */\n      pop\n      pop\n        /* \"contracts/NNTHToken.sol\":928:929  _ */\n      pop\n        /* \"contracts/NNTHToken.sol\":3112:3614  function _transferWithFee(address sender, address recipient, uint256 amount) internal ... */\n      pop\n      pop\n      pop\n      pop\n      jump\t// out\n        /* \"@openzeppelin/contracts/access/Ownable.sol\":1796:1958  function _checkOwner() internal view virtual {... */\n    tag_148:\n        /* \"@openzeppelin/contracts/access/Ownable.sol\":1866:1878  _msgSender() */\n      tag_307\n        /* \"@openzeppelin/contracts/access/Ownable.sol\":1866:1876  _msgSender */\n      tag_134\n        /* \"@openzeppelin/contracts/access/Ownable.sol\":1866:1878  _msgSender() */\n      jump\t// in\n    tag_307:\n        /* \"@openzeppelin/contracts/access/Ownable.sol\":1855:1878  owner() != _msgSender() */\n      0xffffffffffffffffffffffffffffffffffffffff\n      and\n        /* \"@openzeppelin/contracts/access/Ownable.sol\":1855:1862  owner() */\n      tag_308\n        /* \"@openzeppelin/contracts/access/Ownable.sol\":1855:1860  owner */\n      tag_95\n        /* \"@openzeppelin/contracts/access/Ownable.sol\":1855:1862  owner() */\n      jump\t// in\n    tag_308:\n        /* \"@openzeppelin/contracts/access/Ownable.sol\":1855:1878  owner() != _msgSender() */\n      0xffffffffffffffffffffffffffffffffffffffff\n      and\n      eq\n        /* \"@openzeppelin/contracts/access/Ownable.sol\":1851:1952  if (owner() != _msgSender()) {... */\n      tag_309\n      jumpi\n        /* \"@openzeppelin/contracts/access/Ownable.sol\":1928:1940  _msgSender() */\n      tag_310\n        /* \"@openzeppelin/contracts/access/Ownable.sol\":1928:1938  _msgSender */\n      tag_134\n        /* \"@openzeppelin/contracts/access/Ownable.sol\":1928:1940  _msgSender() */\n      jump\t// in\n    tag_310:\n        /* \"@openzeppelin/contracts/access/Ownable.sol\":1901:1941  OwnableUnauthorizedAccount(_msgSender()) */\n      mload(0x40)\n      0x118cdaa700000000000000000000000000000000000000000000000000000000\n      dup2\n      mstore\n      0x04\n      add\n      tag_311\n      swap2\n      swap1\n      tag_97\n      jump\t// in\n    tag_311:\n      mload(0x40)\n      dup1\n      swap2\n      sub\n      swap1\n      revert\n        /* \"@openzeppelin/contracts/access/Ownable.sol\":1851:1952  if (owner() != _msgSender()) {... */\n    tag_309:\n        /* \"@openzeppelin/contracts/access/Ownable.sol\":1796:1958  function _checkOwner() internal view virtual {... */\n      jump\t// out\n        /* \"@openzeppelin/contracts/security/Pausable.sol\":2433:2550  function _unpause() internal virtual whenPaused {... */\n    tag_155:\n        /* \"@openzeppelin/contracts/security/Pausable.sol\":1486:1502  _requirePaused() */\n      tag_313\n        /* \"@openzeppelin/contracts/security/Pausable.sol\":1486:1500  _requirePaused */\n      tag_314\n        /* \"@openzeppelin/contracts/security/Pausable.sol\":1486:1502  _requirePaused() */\n      jump\t// in\n    tag_313:\n        /* \"@openzeppelin/contracts/security/Pausable.sol\":2501:2506  false */\n      0x00\n        /* \"@openzeppelin/contracts/security/Pausable.sol\":2491:2498  _paused */\n      0x05\n      0x14\n        /* \"@openzeppelin/contracts/security/Pausable.sol\":2491:2506  _paused = false */\n      0x0100\n      exp\n      dup2\n      sload\n      dup2\n      0xff\n      mul\n      not\n      and\n      swap1\n      dup4\n      iszero\n      iszero\n      mul\n      or\n      swap1\n      sstore\n      pop\n        /* \"@openzeppelin/contracts/security/Pausable.sol\":2521:2543  Unpaused(_msgSender()) */\n      0x5db9ee0a495bf2e6ff9c91a7834c1ba4fdd244a5e8aa4e537bd38aeae4b073aa\n        /* \"@openzeppelin/contracts/security/Pausable.sol\":2530:2542  _msgSender() */\n      tag_316\n        /* \"@openzeppelin/contracts/security/Pausable.sol\":2530:2540  _msgSender */\n      tag_134\n        /* \"@openzeppelin/contracts/security/Pausable.sol\":2530:2542  _msgSender() */\n      jump\t// in\n    tag_316:\n        /* \"@openzeppelin/contracts/security/Pausable.sol\":2521:2543  Unpaused(_msgSender()) */\n      mload(0x40)\n      tag_317\n      swap2\n      swap1\n      tag_97\n      jump\t// in\n    tag_317:\n      mload(0x40)\n      dup1\n      swap2\n      sub\n      swap1\n      log1\n        /* \"@openzeppelin/contracts/security/Pausable.sol\":2433:2550  function _unpause() internal virtual whenPaused {... */\n      jump\t// out\n        /* \"@openzeppelin/contracts/token/ERC20/ERC20.sol\":7721:7929  function _mint(address account, uint256 value) internal {... */\n    tag_165:\n        /* \"@openzeppelin/contracts/token/ERC20/ERC20.sol\":7810:7811  0 */\n      0x00\n        /* \"@openzeppelin/contracts/token/ERC20/ERC20.sol\":7791:7812  account == address(0) */\n      0xffffffffffffffffffffffffffffffffffffffff\n      and\n        /* \"@openzeppelin/contracts/token/ERC20/ERC20.sol\":7791:7798  account */\n      dup3\n        /* \"@openzeppelin/contracts/token/ERC20/ERC20.sol\":7791:7812  account == address(0) */\n      0xffffffffffffffffffffffffffffffffffffffff\n      and\n      sub\n        /* \"@openzeppelin/contracts/token/ERC20/ERC20.sol\":7787:7878  if (account == address(0)) {... */\n      tag_319\n      jumpi\n        /* \"@openzeppelin/contracts/token/ERC20/ERC20.sol\":7864:7865  0 */\n      0x00\n        /* \"@openzeppelin/contracts/token/ERC20/ERC20.sol\":7835:7867  ERC20InvalidReceiver(address(0)) */\n      mload(0x40)\n      0xec442f0500000000000000000000000000000000000000000000000000000000\n      dup2\n      mstore\n      0x04\n      add\n      tag_320\n      swap2\n      swap1\n      tag_97\n      jump\t// in\n    tag_320:\n      mload(0x40)\n      dup1\n      swap2\n      sub\n      swap1\n      revert\n        /* \"@openzeppelin/contracts/token/ERC20/ERC20.sol\":7787:7878  if (account == address(0)) {... */\n    tag_319:\n        /* \"@openzeppelin/contracts/token/ERC20/ERC20.sol\":7887:7922  _update(address(0), account, value) */\n      tag_321\n        /* \"@openzeppelin/contracts/token/ERC20/ERC20.sol\":7903:7904  0 */\n      0x00\n        /* \"@openzeppelin/contracts/token/ERC20/ERC20.sol\":7907:7914  account */\n      dup4\n        /* \"@openzeppelin/contracts/token/ERC20/ERC20.sol\":7916:7921  value */\n      dup4\n        /* \"@openzeppelin/contracts/token/ERC20/ERC20.sol\":7887:7894  _update */\n      tag_322\n        /* \"@openzeppelin/contracts/token/ERC20/ERC20.sol\":7887:7922  _update(address(0), account, value) */\n      jump\t// in\n    tag_321:\n        /* \"@openzeppelin/contracts/token/ERC20/ERC20.sol\":7721:7929  function _mint(address account, uint256 value) internal {... */\n      pop\n      pop\n      jump\t// out\n        /* \"@openzeppelin/contracts/token/ERC20/ERC20.sol\":8247:8453  function _burn(address account, uint256 value) internal {... */\n    tag_174:\n        /* \"@openzeppelin/contracts/token/ERC20/ERC20.sol\":8336:8337  0 */\n      0x00\n        /* \"@openzeppelin/contracts/token/ERC20/ERC20.sol\":8317:8338  account == address(0) */\n      0xffffffffffffffffffffffffffffffffffffffff\n      and\n        /* \"@openzeppelin/contracts/token/ERC20/ERC20.sol\":8317:8324  account */\n      dup3\n        /* \"@openzeppelin/contracts/token/ERC20/ERC20.sol\":8317:8338  account == address(0) */\n      0xffffffffffffffffffffffffffffffffffffffff\n      and\n      sub\n        /* \"@openzeppelin/contracts/token/ERC20/ERC20.sol\":8313:8402  if (account == address(0)) {... */\n      tag_324\n      jumpi\n        /* \"@openzeppelin/contracts/token/ERC20/ERC20.sol\":8388:8389  0 */\n      0x00\n        /* \"@openzeppelin/contracts/token/ERC20/ERC20.sol\":8361:8391  ERC20InvalidSender(address(0)) */\n      mload(0x40)\n      0x96c6fd1e00000000000000000000000000000000000000000000000000000000\n      dup2\n      mstore\n      0x04\n      add\n      tag_325\n      swap2\n      swap1\n      tag_97\n      jump\t// in\n    tag_325:\n      mload(0x40)\n      dup1\n      swap2\n      sub\n      swap1\n      revert\n        /* \"@openzeppelin/contracts/token/ERC20/ERC20.sol\":8313:8402  if (account == address(0)) {... */\n    tag_324:\n        /* \"@openzeppelin/contracts/token/ERC20/ERC20.sol\":8411:8446  _update(account, address(0), value) */\n      tag_326\n        /* \"@openzeppelin/contracts/token/ERC20/ERC20.sol\":8419:8426  account */\n      dup3\n        /* \"@openzeppelin/contracts/token/ERC20/ERC20.sol\":8436:8437  0 */\n      0x00\n        /* \"@openzeppelin/contracts/token/ERC20/ERC20.sol\":8440:8445  value */\n      dup4\n        /* \"@openzeppelin/contracts/token/ERC20/ERC20.sol\":8411:8418  _update */\n      tag_322\n        /* \"@openzeppelin/contracts/token/ERC20/ERC20.sol\":8411:8446  _update(account, address(0), value) */\n      jump\t// in\n    tag_326:\n        /* \"@openzeppelin/contracts/token/ERC20/ERC20.sol\":8247:8453  function _burn(address account, uint256 value) internal {... */\n      pop\n      pop\n      jump\t// out\n        /* \"@openzeppelin/contracts/access/Ownable.sol\":2912:3099  function _transferOwnership(address newOwner) internal virtual {... */\n    tag_192:\n        /* \"@openzeppelin/contracts/access/Ownable.sol\":2985:3001  address oldOwner */\n      0x00\n        /* \"@openzeppelin/contracts/access/Ownable.sol\":3004:3010  _owner */\n      0x05\n      0x00\n      swap1\n      sload\n      swap1\n      0x0100\n      exp\n      swap1\n      div\n      0xffffffffffffffffffffffffffffffffffffffff\n      and\n        /* \"@openzeppelin/contracts/access/Ownable.sol\":2985:3010  address oldOwner = _owner */\n      swap1\n      pop\n        /* \"@openzeppelin/contracts/access/Ownable.sol\":3029:3037  newOwner */\n      dup2\n        /* \"@openzeppelin/contracts/access/Ownable.sol\":3020:3026  _owner */\n      0x05\n      0x00\n        /* \"@openzeppelin/contracts/access/Ownable.sol\":3020:3037  _owner = newOwner */\n      0x0100\n      exp\n      dup2\n      sload\n      dup2\n      0xffffffffffffffffffffffffffffffffffffffff\n      mul\n      not\n      and\n      swap1\n      dup4\n      0xffffffffffffffffffffffffffffffffffffffff\n      and\n      mul\n      or\n      swap1\n      sstore\n      pop\n        /* \"@openzeppelin/contracts/access/Ownable.sol\":3083:3091  newOwner */\n      dup2\n        /* \"@openzeppelin/contracts/access/Ownable.sol\":3052:3092  OwnershipTransferred(oldOwner, newOwner) */\n      0xffffffffffffffffffffffffffffffffffffffff\n      and\n        /* \"@openzeppelin/contracts/access/Ownable.sol\":3073:3081  oldOwner */\n      dup2\n        /* \"@openzeppelin/contracts/access/Ownable.sol\":3052:3092  OwnershipTransferred(oldOwner, newOwner) */\n      0xffffffffffffffffffffffffffffffffffffffff\n      and\n      0x8be0079c531659141344cd1fd0a4f28419497f9722a3daafe3b4186f6b6457e0\n      mload(0x40)\n      mload(0x40)\n      dup1\n      swap2\n      sub\n      swap1\n      log3\n        /* \"@openzeppelin/contracts/access/Ownable.sol\":2975:3099  {... */\n      pop\n        /* \"@openzeppelin/contracts/access/Ownable.sol\":2912:3099  function _transferOwnership(address newOwner) internal virtual {... */\n      pop\n      jump\t// out\n        /* \"@openzeppelin/contracts/security/Pausable.sol\":2186:2301  function _pause() internal virtual whenNotPaused {... */\n    tag_215:\n        /* \"@openzeppelin/contracts/security/Pausable.sol\":1239:1258  _requireNotPaused() */\n      tag_329\n        /* \"@openzeppelin/contracts/security/Pausable.sol\":1239:1256  _requireNotPaused */\n      tag_330\n        /* \"@openzeppelin/contracts/security/Pausable.sol\":1239:1258  _requireNotPaused() */\n      jump\t// in\n    tag_329:\n        /* \"@openzeppelin/contracts/security/Pausable.sol\":2255:2259  true */\n      0x01\n        /* \"@openzeppelin/contracts/security/Pausable.sol\":2245:2252  _paused */\n      0x05\n      0x14\n        /* \"@openzeppelin/contracts/security/Pausable.sol\":2245:2259  _paused = true */\n      0x0100\n      exp\n      dup2\n      sload\n      dup2\n      0xff\n      mul\n      not\n      and\n      swap1\n      dup4\n      iszero\n      iszero\n      mul\n      or\n      swap1\n      sstore\n      pop\n        /* \"@openzeppelin/contracts/security/Pausable.sol\":2274:2294  Paused(_msgSender()) */\n      0x62e78cea01bee320cd4e420270b5ea74000d11b0c9f74754ebdbfc544b05a258\n        /* \"@openzeppelin/contracts/security/Pausable.sol\":2281:2293  _msgSender() */\n      tag_332\n        /* \"@openzeppelin/contracts/security/Pausable.sol\":2281:2291  _msgSender */\n      tag_134\n        /* \"@openzeppelin/contracts/security/Pausable.sol\":2281:2293  _msgSender() */\n      jump\t// in\n    tag_332:\n        /* \"@openzeppelin/contracts/security/Pausable.sol\":2274:2294  Paused(_msgSender()) */\n      mload(0x40)\n      tag_333\n      swap2\n      swap1\n      tag_97\n      jump\t// in\n    tag_333:\n      mload(0x40)\n      dup1\n      swap2\n      sub\n      swap1\n      log1\n        /* \"@openzeppelin/contracts/security/Pausable.sol\":2186:2301  function _pause() internal virtual whenNotPaused {... */\n      jump\t// out\n        /* \"@openzeppelin/contracts/token/ERC20/ERC20.sol\":9949:10381  function _approve(address owner, address spender, uint256 value, bool emitEvent) internal virtual {... */\n    tag_277:\n        /* \"@openzeppelin/contracts/token/ERC20/ERC20.sol\":10078:10079  0 */\n      0x00\n        /* \"@openzeppelin/contracts/token/ERC20/ERC20.sol\":10061:10080  owner == address(0) */\n      0xffffffffffffffffffffffffffffffffffffffff\n      and\n        /* \"@openzeppelin/contracts/token/ERC20/ERC20.sol\":10061:10066  owner */\n      dup5\n        /* \"@openzeppelin/contracts/token/ERC20/ERC20.sol\":10061:10080  owner == address(0) */\n      0xffffffffffffffffffffffffffffffffffffffff\n      and\n      sub\n        /* \"@openzeppelin/contracts/token/ERC20/ERC20.sol\":10057:10146  if (owner == address(0)) {... */\n      tag_335\n      jumpi\n        /* \"@openzeppelin/contracts/token/ERC20/ERC20.sol\":10132:10133  0 */\n      0x00\n        /* \"@openzeppelin/contracts/token/ERC20/ERC20.sol\":10103:10135  ERC20InvalidApprover(address(0)) */\n      mload(0x40)\n      0xe602df0500000000000000000000000000000000000000000000000000000000\n      dup2\n      mstore\n      0x04\n      add\n      tag_336\n      swap2\n      swap1\n      tag_97\n      jump\t// in\n    tag_336:\n      mload(0x40)\n      dup1\n      swap2\n      sub\n      swap1\n      revert\n        /* \"@openzeppelin/contracts/token/ERC20/ERC20.sol\":10057:10146  if (owner == address(0)) {... */\n    tag_335:\n        /* \"@openzeppelin/contracts/token/ERC20/ERC20.sol\":10178:10179  0 */\n      0x00\n        /* \"@openzeppelin/contracts/token/ERC20/ERC20.sol\":10159:10180  spender == address(0) */\n      0xffffffffffffffffffffffffffffffffffffffff\n      and\n        /* \"@openzeppelin/contracts/token/ERC20/ERC20.sol\":10159:10166  spender */\n      dup4\n        /* \"@openzeppelin/contracts/token/ERC20/ERC20.sol\":10159:10180  spender == address(0) */\n      0xffffffffffffffffffffffffffffffffffffffff\n      and\n      sub\n        /* \"@openzeppelin/contracts/token/ERC20/ERC20.sol\":10155:10245  if (spender == address(0)) {... */\n      tag_337\n      jumpi\n        /* \"@openzeppelin/contracts/token/ERC20/ERC20.sol\":10231:10232  0 */\n      0x00\n        /* \"@openzeppelin/contracts/token/ERC20/ERC20.sol\":10203:10234  ERC20InvalidSpender(address(0)) */\n      mload(0x40)\n      0x94280d6200000000000000000000000000000000000000000000000000000000\n      dup2\n      mstore\n      0x04\n      add\n      tag_338\n      swap2\n      swap1\n      tag_97\n      jump\t// in\n    tag_338:\n      mload(0x40)\n      dup1\n      swap2\n      sub\n      swap1\n      revert\n        /* \"@openzeppelin/contracts/token/ERC20/ERC20.sol\":10155:10245  if (spender == address(0)) {... */\n    tag_337:\n        /* \"@openzeppelin/contracts/token/ERC20/ERC20.sol\":10284:10289  value */\n      dup2\n        /* \"@openzeppelin/contracts/token/ERC20/ERC20.sol\":10254:10265  _allowances */\n      0x01\n        /* \"@openzeppelin/contracts/token/ERC20/ERC20.sol\":10254:10272  _allowances[owner] */\n      0x00\n        /* \"@openzeppelin/contracts/token/ERC20/ERC20.sol\":10266:10271  owner */\n      dup7\n        /* \"@openzeppelin/contracts/token/ERC20/ERC20.sol\":10254:10272  _allowances[owner] */\n      0xffffffffffffffffffffffffffffffffffffffff\n      and\n      0xffffffffffffffffffffffffffffffffffffffff\n      and\n      dup2\n      mstore\n      0x20\n      add\n      swap1\n      dup2\n      mstore\n      0x20\n      add\n      0x00\n      keccak256\n        /* \"@openzeppelin/contracts/token/ERC20/ERC20.sol\":10254:10281  _allowances[owner][spender] */\n      0x00\n        /* \"@openzeppelin/contracts/token/ERC20/ERC20.sol\":10273:10280  spender */\n      dup6\n        /* \"@openzeppelin/contracts/token/ERC20/ERC20.sol\":10254:10281  _allowances[owner][spender] */\n      0xffffffffffffffffffffffffffffffffffffffff\n      and\n      0xffffffffffffffffffffffffffffffffffffffff\n      and\n      dup2\n      mstore\n      0x20\n      add\n      swap1\n      dup2\n      mstore\n      0x20\n      add\n      0x00\n      keccak256\n        /* \"@openzeppelin/contracts/token/ERC20/ERC20.sol\":10254:10289  _allowances[owner][spender] = value */\n      dup2\n      swap1\n      sstore\n      pop\n        /* \"@openzeppelin/contracts/token/ERC20/ERC20.sol\":10303:10312  emitEvent */\n      dup1\n        /* \"@openzeppelin/contracts/token/ERC20/ERC20.sol\":10299:10375  if (emitEvent) {... */\n      iszero\n      tag_339\n      jumpi\n        /* \"@openzeppelin/contracts/token/ERC20/ERC20.sol\":10349:10356  spender */\n      dup3\n        /* \"@openzeppelin/contracts/token/ERC20/ERC20.sol\":10333:10364  Approval(owner, spender, value) */\n      0xffffffffffffffffffffffffffffffffffffffff\n      and\n        /* \"@openzeppelin/contracts/token/ERC20/ERC20.sol\":10342:10347  owner */\n      dup5\n        /* \"@openzeppelin/contracts/token/ERC20/ERC20.sol\":10333:10364  Approval(owner, spender, value) */\n      0xffffffffffffffffffffffffffffffffffffffff\n      and\n      0x8c5be1e5ebec7d5bd14f71427d1e84f3dd0314c0f7b2291e5b200ac8c7c3b925\n        /* \"@openzeppelin/contracts/token/ERC20/ERC20.sol\":10358:10363  value */\n      dup5\n        /* \"@openzeppelin/contracts/token/ERC20/ERC20.sol\":10333:10364  Approval(owner, spender, value) */\n      mload(0x40)\n      tag_340\n      swap2\n      swap1\n      tag_47\n      jump\t// in\n    tag_340:\n      mload(0x40)\n      dup1\n      swap2\n      sub\n      swap1\n      log3\n        /* \"@openzeppelin/contracts/token/ERC20/ERC20.sol\":10299:10375  if (emitEvent) {... */\n    tag_339:\n        /* \"@openzeppelin/contracts/token/ERC20/ERC20.sol\":9949:10381  function _approve(address owner, address spender, uint256 value, bool emitEvent) internal virtual {... */\n      pop\n      pop\n      pop\n      pop\n      jump\t// out\n        /* \"contracts/NNTHToken.sol\":2881:3106  function calculateTransactionFee(uint256 amount) internal view returns (uint256) {... */\n    tag_299:\n        /* \"contracts/NNTHToken.sol\":2953:2960  uint256 */\n      0x00\n        /* \"contracts/NNTHToken.sol\":2972:2992  uint256 adjustedRate */\n      dup1\n        /* \"contracts/NNTHToken.sol\":3049:3052  100 */\n      0x64\n        /* \"contracts/NNTHToken.sol\":3028:3046  adoptionPercentage */\n      sload(0x0a)\n        /* \"contracts/NNTHToken.sol\":3011:3025  adoptionFactor */\n      sload(0x09)\n        /* \"contracts/NNTHToken.sol\":3011:3046  adoptionFactor * adoptionPercentage */\n      tag_342\n      swap2\n      swap1\n      tag_343\n      jump\t// in\n    tag_342:\n        /* \"contracts/NNTHToken.sol\":3011:3052  adoptionFactor * adoptionPercentage / 100 */\n      tag_344\n      swap2\n      swap1\n      tag_345\n      jump\t// in\n    tag_344:\n        /* \"contracts/NNTHToken.sol\":3007:3008  1 */\n      0x01\n        /* \"contracts/NNTHToken.sol\":3007:3052  1 + adoptionFactor * adoptionPercentage / 100 */\n      tag_346\n      swap2\n      swap1\n      tag_206\n      jump\t// in\n    tag_346:\n        /* \"contracts/NNTHToken.sol\":2995:3003  baseRate */\n      sload(0x08)\n        /* \"contracts/NNTHToken.sol\":2995:3053  baseRate / (1 + adoptionFactor * adoptionPercentage / 100) */\n      tag_347\n      swap2\n      swap1\n      tag_345\n      jump\t// in\n    tag_347:\n        /* \"contracts/NNTHToken.sol\":2972:3053  uint256 adjustedRate = baseRate / (1 + adoptionFactor * adoptionPercentage / 100) */\n      swap1\n      pop\n        /* \"contracts/NNTHToken.sol\":3096:3099  100 */\n      0x64\n        /* \"contracts/NNTHToken.sol\":3080:3092  adjustedRate */\n      dup2\n        /* \"contracts/NNTHToken.sol\":3071:3077  amount */\n      dup5\n        /* \"contracts/NNTHToken.sol\":3071:3092  amount * adjustedRate */\n      tag_348\n      swap2\n      swap1\n      tag_343\n      jump\t// in\n    tag_348:\n        /* \"contracts/NNTHToken.sol\":3070:3099  (amount * adjustedRate) / 100 */\n      tag_349\n      swap2\n      swap1\n      tag_345\n      jump\t// in\n    tag_349:\n        /* \"contracts/NNTHToken.sol\":3063:3099  return (amount * adjustedRate) / 100 */\n      swap2\n      pop\n      pop\n        /* \"contracts/NNTHToken.sol\":2881:3106  function calculateTransactionFee(uint256 amount) internal view returns (uint256) {... */\n      swap2\n      swap1\n      pop\n      jump\t// out\n        /* \"@openzeppelin/contracts/token/ERC20/ERC20.sol\":5656:5956  function _transfer(address from, address to, uint256 value) internal {... */\n    tag_302:\n        /* \"@openzeppelin/contracts/token/ERC20/ERC20.sol\":5755:5756  0 */\n      0x00\n        /* \"@openzeppelin/contracts/token/ERC20/ERC20.sol\":5739:5757  from == address(0) */\n      0xffffffffffffffffffffffffffffffffffffffff\n      and\n        /* \"@openzeppelin/contracts/token/ERC20/ERC20.sol\":5739:5743  from */\n      dup4\n        /* \"@openzeppelin/contracts/token/ERC20/ERC20.sol\":5739:5757  from == address(0) */\n      0xffffffffffffffffffffffffffffffffffffffff\n      and\n      sub\n        /* \"@openzeppelin/contracts/token/ERC20/ERC20.sol\":5735:5821  if (from == address(0)) {... */\n      tag_351\n      jumpi\n        /* \"@openzeppelin/contracts/token/ERC20/ERC20.sol\":5807:5808  0 */\n      0x00\n        /* \"@openzeppelin/contracts/token/ERC20/ERC20.sol\":5780:5810  ERC20InvalidSender(address(0)) */\n      mload(0x40)\n      0x96c6fd1e00000000000000000000000000000000000000000000000000000000\n      dup2\n      mstore\n      0x04\n      add\n      tag_352\n      swap2\n      swap1\n      tag_97\n      jump\t// in\n    tag_352:\n      mload(0x40)\n      dup1\n      swap2\n      sub\n      swap1\n      revert\n        /* \"@openzeppelin/contracts/token/ERC20/ERC20.sol\":5735:5821  if (from == address(0)) {... */\n    tag_351:\n        /* \"@openzeppelin/contracts/token/ERC20/ERC20.sol\":5848:5849  0 */\n      0x00\n        /* \"@openzeppelin/contracts/token/ERC20/ERC20.sol\":5834:5850  to == address(0) */\n      0xffffffffffffffffffffffffffffffffffffffff\n      and\n        /* \"@openzeppelin/contracts/token/ERC20/ERC20.sol\":5834:5836  to */\n      dup3\n        /* \"@openzeppelin/contracts/token/ERC20/ERC20.sol\":5834:5850  to == address(0) */\n      0xffffffffffffffffffffffffffffffffffffffff\n      and\n      sub\n        /* \"@openzeppelin/contracts/token/ERC20/ERC20.sol\":5830:5916  if (to == address(0)) {... */\n      tag_353\n      jumpi\n        /* \"@openzeppelin/contracts/token/ERC20/ERC20.sol\":5902:5903  0 */\n      0x00\n        /* \"@openzeppelin/contracts/token/ERC20/ERC20.sol\":5873:5905  ERC20InvalidReceiver(address(0)) */\n      mload(0x40)\n      0xec442f0500000000000000000000000000000000000000000000000000000000\n      dup2\n      mstore\n      0x04\n      add\n      tag_354\n      swap2\n      swap1\n      tag_97\n      jump\t// in\n    tag_354:\n      mload(0x40)\n      dup1\n      swap2\n      sub\n      swap1\n      revert\n        /* \"@openzeppelin/contracts/token/ERC20/ERC20.sol\":5830:5916  if (to == address(0)) {... */\n    tag_353:\n        /* \"@openzeppelin/contracts/token/ERC20/ERC20.sol\":5925:5949  _update(from, to, value) */\n      tag_355\n        /* \"@openzeppelin/contracts/token/ERC20/ERC20.sol\":5933:5937  from */\n      dup4\n        /* \"@openzeppelin/contracts/token/ERC20/ERC20.sol\":5939:5941  to */\n      dup4\n        /* \"@openzeppelin/contracts/token/ERC20/ERC20.sol\":5943:5948  value */\n      dup4\n        /* \"@openzeppelin/contracts/token/ERC20/ERC20.sol\":5925:5932  _update */\n      tag_322\n        /* \"@openzeppelin/contracts/token/ERC20/ERC20.sol\":5925:5949  _update(from, to, value) */\n      jump\t// in\n    tag_355:\n        /* \"@openzeppelin/contracts/token/ERC20/ERC20.sol\":5656:5956  function _transfer(address from, address to, uint256 value) internal {... */\n      pop\n      pop\n      pop\n      jump\t// out\n        /* \"@openzeppelin/contracts/security/Pausable.sol\":1945:2051  function _requirePaused() internal view virtual {... */\n    tag_314:\n        /* \"@openzeppelin/contracts/security/Pausable.sol\":2011:2019  paused() */\n      tag_357\n        /* \"@openzeppelin/contracts/security/Pausable.sol\":2011:2017  paused */\n      tag_74\n        /* \"@openzeppelin/contracts/security/Pausable.sol\":2011:2019  paused() */\n      jump\t// in\n    tag_357:\n        /* \"@openzeppelin/contracts/security/Pausable.sol\":2003:2044  require(paused(), \"Pausable: not paused\") */\n      tag_358\n      jumpi\n      mload(0x40)\n      0x08c379a000000000000000000000000000000000000000000000000000000000\n      dup2\n      mstore\n      0x04\n      add\n      tag_359\n      swap1\n      tag_360\n      jump\t// in\n    tag_359:\n      mload(0x40)\n      dup1\n      swap2\n      sub\n      swap1\n      revert\n    tag_358:\n        /* \"@openzeppelin/contracts/security/Pausable.sol\":1945:2051  function _requirePaused() internal view virtual {... */\n      jump\t// out\n        /* \"@openzeppelin/contracts/token/ERC20/ERC20.sol\":6271:7378  function _update(address from, address to, uint256 value) internal virtual {... */\n    tag_322:\n        /* \"@openzeppelin/contracts/token/ERC20/ERC20.sol\":6376:6377  0 */\n      0x00\n        /* \"@openzeppelin/contracts/token/ERC20/ERC20.sol\":6360:6378  from == address(0) */\n      0xffffffffffffffffffffffffffffffffffffffff\n      and\n        /* \"@openzeppelin/contracts/token/ERC20/ERC20.sol\":6360:6364  from */\n      dup4\n        /* \"@openzeppelin/contracts/token/ERC20/ERC20.sol\":6360:6378  from == address(0) */\n      0xffffffffffffffffffffffffffffffffffffffff\n      and\n      sub\n        /* \"@openzeppelin/contracts/token/ERC20/ERC20.sol\":6356:6896  if (from == address(0)) {... */\n      tag_362\n      jumpi\n        /* \"@openzeppelin/contracts/token/ERC20/ERC20.sol\":6512:6517  value */\n      dup1\n        /* \"@openzeppelin/contracts/token/ERC20/ERC20.sol\":6496:6508  _totalSupply */\n      0x02\n      0x00\n        /* \"@openzeppelin/contracts/token/ERC20/ERC20.sol\":6496:6517  _totalSupply += value */\n      dup3\n      dup3\n      sload\n      tag_363\n      swap2\n      swap1\n      tag_206\n      jump\t// in\n    tag_363:\n      swap3\n      pop\n      pop\n      dup2\n      swap1\n      sstore\n      pop\n        /* \"@openzeppelin/contracts/token/ERC20/ERC20.sol\":6356:6896  if (from == address(0)) {... */\n      jump(tag_364)\n    tag_362:\n        /* \"@openzeppelin/contracts/token/ERC20/ERC20.sol\":6548:6567  uint256 fromBalance */\n      0x00\n        /* \"@openzeppelin/contracts/token/ERC20/ERC20.sol\":6570:6579  _balances */\n      dup1\n        /* \"@openzeppelin/contracts/token/ERC20/ERC20.sol\":6570:6585  _balances[from] */\n      0x00\n        /* \"@openzeppelin/contracts/token/ERC20/ERC20.sol\":6580:6584  from */\n      dup6\n        /* \"@openzeppelin/contracts/token/ERC20/ERC20.sol\":6570:6585  _balances[from] */\n      0xffffffffffffffffffffffffffffffffffffffff\n      and\n      0xffffffffffffffffffffffffffffffffffffffff\n      and\n      dup2\n      mstore\n      0x20\n      add\n      swap1\n      dup2\n      mstore\n      0x20\n      add\n      0x00\n      keccak256\n      sload\n        /* \"@openzeppelin/contracts/token/ERC20/ERC20.sol\":6548:6585  uint256 fromBalance = _balances[from] */\n      swap1\n      pop\n        /* \"@openzeppelin/contracts/token/ERC20/ERC20.sol\":6617:6622  value */\n      dup2\n        /* \"@openzeppelin/contracts/token/ERC20/ERC20.sol\":6603:6614  fromBalance */\n      dup2\n        /* \"@openzeppelin/contracts/token/ERC20/ERC20.sol\":6603:6622  fromBalance < value */\n      lt\n        /* \"@openzeppelin/contracts/token/ERC20/ERC20.sol\":6599:6714  if (fromBalance < value) {... */\n      iszero\n      tag_365\n      jumpi\n        /* \"@openzeppelin/contracts/token/ERC20/ERC20.sol\":6674:6678  from */\n      dup4\n        /* \"@openzeppelin/contracts/token/ERC20/ERC20.sol\":6680:6691  fromBalance */\n      dup2\n        /* \"@openzeppelin/contracts/token/ERC20/ERC20.sol\":6693:6698  value */\n      dup4\n        /* \"@openzeppelin/contracts/token/ERC20/ERC20.sol\":6649:6699  ERC20InsufficientBalance(from, fromBalance, value) */\n      mload(0x40)\n      0xe450d38c00000000000000000000000000000000000000000000000000000000\n      dup2\n      mstore\n      0x04\n      add\n      tag_366\n      swap4\n      swap3\n      swap2\n      swap1\n      tag_367\n      jump\t// in\n    tag_366:\n      mload(0x40)\n      dup1\n      swap2\n      sub\n      swap1\n      revert\n        /* \"@openzeppelin/contracts/token/ERC20/ERC20.sol\":6599:6714  if (fromBalance < value) {... */\n    tag_365:\n        /* \"@openzeppelin/contracts/token/ERC20/ERC20.sol\":6866:6871  value */\n      dup2\n        /* \"@openzeppelin/contracts/token/ERC20/ERC20.sol\":6852:6863  fromBalance */\n      dup2\n        /* \"@openzeppelin/contracts/token/ERC20/ERC20.sol\":6852:6871  fromBalance - value */\n      sub\n        /* \"@openzeppelin/contracts/token/ERC20/ERC20.sol\":6834:6843  _balances */\n      0x00\n        /* \"@openzeppelin/contracts/token/ERC20/ERC20.sol\":6834:6849  _balances[from] */\n      dup1\n        /* \"@openzeppelin/contracts/token/ERC20/ERC20.sol\":6844:6848  from */\n      dup7\n        /* \"@openzeppelin/contracts/token/ERC20/ERC20.sol\":6834:6849  _balances[from] */\n      0xffffffffffffffffffffffffffffffffffffffff\n      and\n      0xffffffffffffffffffffffffffffffffffffffff\n      and\n      dup2\n      mstore\n      0x20\n      add\n      swap1\n      dup2\n      mstore\n      0x20\n      add\n      0x00\n      keccak256\n        /* \"@openzeppelin/contracts/token/ERC20/ERC20.sol\":6834:6871  _balances[from] = fromBalance - value */\n      dup2\n      swap1\n      sstore\n      pop\n        /* \"@openzeppelin/contracts/token/ERC20/ERC20.sol\":6534:6896  {... */\n      pop\n        /* \"@openzeppelin/contracts/token/ERC20/ERC20.sol\":6356:6896  if (from == address(0)) {... */\n    tag_364:\n        /* \"@openzeppelin/contracts/token/ERC20/ERC20.sol\":6924:6925  0 */\n      0x00\n        /* \"@openzeppelin/contracts/token/ERC20/ERC20.sol\":6910:6926  to == address(0) */\n      0xffffffffffffffffffffffffffffffffffffffff\n      and\n        /* \"@openzeppelin/contracts/token/ERC20/ERC20.sol\":6910:6912  to */\n      dup3\n        /* \"@openzeppelin/contracts/token/ERC20/ERC20.sol\":6910:6926  to == address(0) */\n      0xffffffffffffffffffffffffffffffffffffffff\n      and\n      sub\n        /* \"@openzeppelin/contracts/token/ERC20/ERC20.sol\":6906:7331  if (to == address(0)) {... */\n      tag_368\n      jumpi\n        /* \"@openzeppelin/contracts/token/ERC20/ERC20.sol\":7089:7094  value */\n      dup1\n        /* \"@openzeppelin/contracts/token/ERC20/ERC20.sol\":7073:7085  _totalSupply */\n      0x02\n      0x00\n        /* \"@openzeppelin/contracts/token/ERC20/ERC20.sol\":7073:7094  _totalSupply -= value */\n      dup3\n      dup3\n      sload\n      sub\n      swap3\n      pop\n      pop\n      dup2\n      swap1\n      sstore\n      pop\n        /* \"@openzeppelin/contracts/token/ERC20/ERC20.sol\":6906:7331  if (to == address(0)) {... */\n      jump(tag_369)\n    tag_368:\n        /* \"@openzeppelin/contracts/token/ERC20/ERC20.sol\":7301:7306  value */\n      dup1\n        /* \"@openzeppelin/contracts/token/ERC20/ERC20.sol\":7284:7293  _balances */\n      0x00\n        /* \"@openzeppelin/contracts/token/ERC20/ERC20.sol\":7284:7297  _balances[to] */\n      dup1\n        /* \"@openzeppelin/contracts/token/ERC20/ERC20.sol\":7294:7296  to */\n      dup5\n        /* \"@openzeppelin/contracts/token/ERC20/ERC20.sol\":7284:7297  _balances[to] */\n      0xffffffffffffffffffffffffffffffffffffffff\n      and\n      0xffffffffffffffffffffffffffffffffffffffff\n      and\n      dup2\n      mstore\n      0x20\n      add\n      swap1\n      dup2\n      mstore\n      0x20\n      add\n      0x00\n      keccak256\n      0x00\n        /* \"@openzeppelin/contracts/token/ERC20/ERC20.sol\":7284:7306  _balances[to] += value */\n      dup3\n      dup3\n      sload\n      add\n      swap3\n      pop\n      pop\n      dup2\n      swap1\n      sstore\n      pop\n        /* \"@openzeppelin/contracts/token/ERC20/ERC20.sol\":6906:7331  if (to == address(0)) {... */\n    tag_369:\n        /* \"@openzeppelin/contracts/token/ERC20/ERC20.sol\":7361:7363  to */\n      dup2\n        /* \"@openzeppelin/contracts/token/ERC20/ERC20.sol\":7346:7371  Transfer(from, to, value) */\n      0xffffffffffffffffffffffffffffffffffffffff\n      and\n        /* \"@openzeppelin/contracts/token/ERC20/ERC20.sol\":7355:7359  from */\n      dup4\n        /* \"@openzeppelin/contracts/token/ERC20/ERC20.sol\":7346:7371  Transfer(from, to, value) */\n      0xffffffffffffffffffffffffffffffffffffffff\n      and\n      0xddf252ad1be2c89b69c2b068fc378daa952ba7f163c4a11628f55a4df523b3ef\n        /* \"@openzeppelin/contracts/token/ERC20/ERC20.sol\":7365:7370  value */\n      dup4\n        /* \"@openzeppelin/contracts/token/ERC20/ERC20.sol\":7346:7371  Transfer(from, to, value) */\n      mload(0x40)\n      tag_370\n      swap2\n      swap1\n      tag_47\n      jump\t// in\n    tag_370:\n      mload(0x40)\n      dup1\n      swap2\n      sub\n      swap1\n      log3\n        /* \"@openzeppelin/contracts/token/ERC20/ERC20.sol\":6271:7378  function _update(address from, address to, uint256 value) internal virtual {... */\n      pop\n      pop\n      pop\n      jump\t// out\n        /* \"@openzeppelin/contracts/security/Pausable.sol\":1767:1873  function _requireNotPaused() internal view virtual {... */\n    tag_330:\n        /* \"@openzeppelin/contracts/security/Pausable.sol\":1837:1845  paused() */\n      tag_372\n        /* \"@openzeppelin/contracts/security/Pausable.sol\":1837:1843  paused */\n      tag_74\n        /* \"@openzeppelin/contracts/security/Pausable.sol\":1837:1845  paused() */\n      jump\t// in\n    tag_372:\n        /* \"@openzeppelin/contracts/security/Pausable.sol\":1836:1845  !paused() */\n      iszero\n        /* \"@openzeppelin/contracts/security/Pausable.sol\":1828:1866  require(!paused(), \"Pausable: paused\") */\n      tag_373\n      jumpi\n      mload(0x40)\n      0x08c379a000000000000000000000000000000000000000000000000000000000\n      dup2\n      mstore\n      0x04\n      add\n      tag_374\n      swap1\n      tag_375\n      jump\t// in\n    tag_374:\n      mload(0x40)\n      dup1\n      swap2\n      sub\n      swap1\n      revert\n    tag_373:\n        /* \"@openzeppelin/contracts/security/Pausable.sol\":1767:1873  function _requireNotPaused() internal view virtual {... */\n      jump\t// out\n        /* \"#utility.yul\":7:106   */\n    tag_376:\n        /* \"#utility.yul\":59:65   */\n      0x00\n        /* \"#utility.yul\":93:98   */\n      dup2\n        /* \"#utility.yul\":87:99   */\n      mload\n        /* \"#utility.yul\":77:99   */\n      swap1\n      pop\n        /* \"#utility.yul\":7:106   */\n      swap2\n      swap1\n      pop\n      jump\t// out\n        /* \"#utility.yul\":112:281   */\n    tag_377:\n        /* \"#utility.yul\":196:207   */\n      0x00\n        /* \"#utility.yul\":230:236   */\n      dup3\n        /* \"#utility.yul\":225:228   */\n      dup3\n        /* \"#utility.yul\":218:237   */\n      mstore\n        /* \"#utility.yul\":270:274   */\n      0x20\n        /* \"#utility.yul\":265:268   */\n      dup3\n        /* \"#utility.yul\":261:275   */\n      add\n        /* \"#utility.yul\":246:275   */\n      swap1\n      pop\n        /* \"#utility.yul\":112:281   */\n      swap3\n      swap2\n      pop\n      pop\n      jump\t// out\n        /* \"#utility.yul\":287:533   */\n    tag_378:\n        /* \"#utility.yul\":368:369   */\n      0x00\n        /* \"#utility.yul\":378:491   */\n    tag_426:\n        /* \"#utility.yul\":392:398   */\n      dup4\n        /* \"#utility.yul\":389:390   */\n      dup2\n        /* \"#utility.yul\":386:399   */\n      lt\n        /* \"#utility.yul\":378:491   */\n      iszero\n      tag_428\n      jumpi\n        /* \"#utility.yul\":477:478   */\n      dup1\n        /* \"#utility.yul\":472:475   */\n      dup3\n        /* \"#utility.yul\":468:479   */\n      add\n        /* \"#utility.yul\":462:480   */\n      mload\n        /* \"#utility.yul\":458:459   */\n      dup2\n        /* \"#utility.yul\":453:456   */\n      dup5\n        /* \"#utility.yul\":449:460   */\n      add\n        /* \"#utility.yul\":442:481   */\n      mstore\n        /* \"#utility.yul\":414:416   */\n      0x20\n        /* \"#utility.yul\":411:412   */\n      dup2\n        /* \"#utility.yul\":407:417   */\n      add\n        /* \"#utility.yul\":402:417   */\n      swap1\n      pop\n        /* \"#utility.yul\":378:491   */\n      jump(tag_426)\n    tag_428:\n        /* \"#utility.yul\":525:526   */\n      0x00\n        /* \"#utility.yul\":516:522   */\n      dup5\n        /* \"#utility.yul\":511:514   */\n      dup5\n        /* \"#utility.yul\":507:523   */\n      add\n        /* \"#utility.yul\":500:527   */\n      mstore\n        /* \"#utility.yul\":349:533   */\n      pop\n        /* \"#utility.yul\":287:533   */\n      pop\n      pop\n      pop\n      jump\t// out\n        /* \"#utility.yul\":539:641   */\n    tag_379:\n        /* \"#utility.yul\":580:586   */\n      0x00\n        /* \"#utility.yul\":631:633   */\n      0x1f\n        /* \"#utility.yul\":627:634   */\n      not\n        /* \"#utility.yul\":622:624   */\n      0x1f\n        /* \"#utility.yul\":615:620   */\n      dup4\n        /* \"#utility.yul\":611:625   */\n      add\n        /* \"#utility.yul\":607:635   */\n      and\n        /* \"#utility.yul\":597:635   */\n      swap1\n      pop\n        /* \"#utility.yul\":539:641   */\n      swap2\n      swap1\n      pop\n      jump\t// out\n        /* \"#utility.yul\":647:1024   */\n    tag_380:\n        /* \"#utility.yul\":735:738   */\n      0x00\n        /* \"#utility.yul\":763:802   */\n      tag_431\n        /* \"#utility.yul\":796:801   */\n      dup3\n        /* \"#utility.yul\":763:802   */\n      tag_376\n      jump\t// in\n    tag_431:\n        /* \"#utility.yul\":818:889   */\n      tag_432\n        /* \"#utility.yul\":882:888   */\n      dup2\n        /* \"#utility.yul\":877:880   */\n      dup6\n        /* \"#utility.yul\":818:889   */\n      tag_377\n      jump\t// in\n    tag_432:\n        /* \"#utility.yul\":811:889   */\n      swap4\n      pop\n        /* \"#utility.yul\":898:963   */\n      tag_433\n        /* \"#utility.yul\":956:962   */\n      dup2\n        /* \"#utility.yul\":951:954   */\n      dup6\n        /* \"#utility.yul\":944:948   */\n      0x20\n        /* \"#utility.yul\":937:942   */\n      dup7\n        /* \"#utility.yul\":933:949   */\n      add\n        /* \"#utility.yul\":898:963   */\n      tag_378\n      jump\t// in\n    tag_433:\n        /* \"#utility.yul\":988:1017   */\n      tag_434\n        /* \"#utility.yul\":1010:1016   */\n      dup2\n        /* \"#utility.yul\":988:1017   */\n      tag_379\n      jump\t// in\n    tag_434:\n        /* \"#utility.yul\":983:986   */\n      dup5\n        /* \"#utility.yul\":979:1018   */\n      add\n        /* \"#utility.yul\":972:1018   */\n      swap2\n      pop\n        /* \"#utility.yul\":739:1024   */\n      pop\n        /* \"#utility.yul\":647:1024   */\n      swap3\n      swap2\n      pop\n      pop\n      jump\t// out\n        /* \"#utility.yul\":1030:1343   */\n    tag_37:\n        /* \"#utility.yul\":1143:1147   */\n      0x00\n        /* \"#utility.yul\":1181:1183   */\n      0x20\n        /* \"#utility.yul\":1170:1179   */\n      dup3\n        /* \"#utility.yul\":1166:1184   */\n      add\n        /* \"#utility.yul\":1158:1184   */\n      swap1\n      pop\n        /* \"#utility.yul\":1230:1239   */\n      dup2\n        /* \"#utility.yul\":1224:1228   */\n      dup2\n        /* \"#utility.yul\":1220:1240   */\n      sub\n        /* \"#utility.yul\":1216:1217   */\n      0x00\n        /* \"#utility.yul\":1205:1214   */\n      dup4\n        /* \"#utility.yul\":1201:1218   */\n      add\n        /* \"#utility.yul\":1194:1241   */\n      mstore\n        /* \"#utility.yul\":1258:1336   */\n      tag_436\n        /* \"#utility.yul\":1331:1335   */\n      dup2\n        /* \"#utility.yul\":1322:1328   */\n      dup5\n        /* \"#utility.yul\":1258:1336   */\n      tag_380\n      jump\t// in\n    tag_436:\n        /* \"#utility.yul\":1250:1336   */\n      swap1\n      pop\n        /* \"#utility.yul\":1030:1343   */\n      swap3\n      swap2\n      pop\n      pop\n      jump\t// out\n        /* \"#utility.yul\":1430:1547   */\n    tag_382:\n        /* \"#utility.yul\":1539:1540   */\n      0x00\n        /* \"#utility.yul\":1536:1537   */\n      dup1\n        /* \"#utility.yul\":1529:1541   */\n      revert\n        /* \"#utility.yul\":1676:1802   */\n    tag_384:\n        /* \"#utility.yul\":1713:1720   */\n      0x00\n        /* \"#utility.yul\":1753:1795   */\n      0xffffffffffffffffffffffffffffffffffffffff\n        /* \"#utility.yul\":1746:1751   */\n      dup3\n        /* \"#utility.yul\":1742:1796   */\n      and\n        /* \"#utility.yul\":1731:1796   */\n      swap1\n      pop\n        /* \"#utility.yul\":1676:1802   */\n      swap2\n      swap1\n      pop\n      jump\t// out\n        /* \"#utility.yul\":1808:1904   */\n    tag_385:\n        /* \"#utility.yul\":1845:1852   */\n      0x00\n        /* \"#utility.yul\":1874:1898   */\n      tag_442\n        /* \"#utility.yul\":1892:1897   */\n      dup3\n        /* \"#utility.yul\":1874:1898   */\n      tag_384\n      jump\t// in\n    tag_442:\n        /* \"#utility.yul\":1863:1898   */\n      swap1\n      pop\n        /* \"#utility.yul\":1808:1904   */\n      swap2\n      swap1\n      pop\n      jump\t// out\n        /* \"#utility.yul\":1910:2032   */\n    tag_386:\n        /* \"#utility.yul\":1983:2007   */\n      tag_444\n        /* \"#utility.yul\":2001:2006   */\n      dup2\n        /* \"#utility.yul\":1983:2007   */\n      tag_385\n      jump\t// in\n    tag_444:\n        /* \"#utility.yul\":1976:1981   */\n      dup2\n        /* \"#utility.yul\":1973:2008   */\n      eq\n        /* \"#utility.yul\":1963:2026   */\n      tag_445\n      jumpi\n        /* \"#utility.yul\":2022:2023   */\n      0x00\n        /* \"#utility.yul\":2019:2020   */\n      dup1\n        /* \"#utility.yul\":2012:2024   */\n      revert\n        /* \"#utility.yul\":1963:2026   */\n    tag_445:\n        /* \"#utility.yul\":1910:2032   */\n      pop\n      jump\t// out\n        /* \"#utility.yul\":2038:2177   */\n    tag_387:\n        /* \"#utility.yul\":2084:2089   */\n      0x00\n        /* \"#utility.yul\":2122:2128   */\n      dup2\n        /* \"#utility.yul\":2109:2129   */\n      calldataload\n        /* \"#utility.yul\":2100:2129   */\n      swap1\n      pop\n        /* \"#utility.yul\":2138:2171   */\n      tag_447\n        /* \"#utility.yul\":2165:2170   */\n      dup2\n        /* \"#utility.yul\":2138:2171   */\n      tag_386\n      jump\t// in\n    tag_447:\n        /* \"#utility.yul\":2038:2177   */\n      swap3\n      swap2\n      pop\n      pop\n      jump\t// out\n        /* \"#utility.yul\":2183:2260   */\n    tag_388:\n        /* \"#utility.yul\":2220:2227   */\n      0x00\n        /* \"#utility.yul\":2249:2254   */\n      dup2\n        /* \"#utility.yul\":2238:2254   */\n      swap1\n      pop\n        /* \"#utility.yul\":2183:2260   */\n      swap2\n      swap1\n      pop\n      jump\t// out\n        /* \"#utility.yul\":2266:2388   */\n    tag_389:\n        /* \"#utility.yul\":2339:2363   */\n      tag_450\n        /* \"#utility.yul\":2357:2362   */\n      dup2\n        /* \"#utility.yul\":2339:2363   */\n      tag_388\n      jump\t// in\n    tag_450:\n        /* \"#utility.yul\":2332:2337   */\n      dup2\n        /* \"#utility.yul\":2329:2364   */\n      eq\n        /* \"#utility.yul\":2319:2382   */\n      tag_451\n      jumpi\n        /* \"#utility.yul\":2378:2379   */\n      0x00\n        /* \"#utility.yul\":2375:2376   */\n      dup1\n        /* \"#utility.yul\":2368:2380   */\n      revert\n        /* \"#utility.yul\":2319:2382   */\n    tag_451:\n        /* \"#utility.yul\":2266:2388   */\n      pop\n      jump\t// out\n        /* \"#utility.yul\":2394:2533   */\n    tag_390:\n        /* \"#utility.yul\":2440:2445   */\n      0x00\n        /* \"#utility.yul\":2478:2484   */\n      dup2\n        /* \"#utility.yul\":2465:2485   */\n      calldataload\n        /* \"#utility.yul\":2456:2485   */\n      swap1\n      pop\n        /* \"#utility.yul\":2494:2527   */\n      tag_453\n        /* \"#utility.yul\":2521:2526   */\n      dup2\n        /* \"#utility.yul\":2494:2527   */\n      tag_389\n      jump\t// in\n    tag_453:\n        /* \"#utility.yul\":2394:2533   */\n      swap3\n      swap2\n      pop\n      pop\n      jump\t// out\n        /* \"#utility.yul\":2539:3013   */\n    tag_40:\n        /* \"#utility.yul\":2607:2613   */\n      0x00\n        /* \"#utility.yul\":2615:2621   */\n      dup1\n        /* \"#utility.yul\":2664:2666   */\n      0x40\n        /* \"#utility.yul\":2652:2661   */\n      dup4\n        /* \"#utility.yul\":2643:2650   */\n      dup6\n        /* \"#utility.yul\":2639:2662   */\n      sub\n        /* \"#utility.yul\":2635:2667   */\n      slt\n        /* \"#utility.yul\":2632:2751   */\n      iszero\n      tag_455\n      jumpi\n        /* \"#utility.yul\":2670:2749   */\n      tag_456\n      tag_382\n      jump\t// in\n    tag_456:\n        /* \"#utility.yul\":2632:2751   */\n    tag_455:\n        /* \"#utility.yul\":2790:2791   */\n      0x00\n        /* \"#utility.yul\":2815:2868   */\n      tag_457\n        /* \"#utility.yul\":2860:2867   */\n      dup6\n        /* \"#utility.yul\":2851:2857   */\n      dup3\n        /* \"#utility.yul\":2840:2849   */\n      dup7\n        /* \"#utility.yul\":2836:2858   */\n      add\n        /* \"#utility.yul\":2815:2868   */\n      tag_387\n      jump\t// in\n    tag_457:\n        /* \"#utility.yul\":2805:2868   */\n      swap3\n      pop\n        /* \"#utility.yul\":2761:2878   */\n      pop\n        /* \"#utility.yul\":2917:2919   */\n      0x20\n        /* \"#utility.yul\":2943:2996   */\n      tag_458\n        /* \"#utility.yul\":2988:2995   */\n      dup6\n        /* \"#utility.yul\":2979:2985   */\n      dup3\n        /* \"#utility.yul\":2968:2977   */\n      dup7\n        /* \"#utility.yul\":2964:2986   */\n      add\n        /* \"#utility.yul\":2943:2996   */\n      tag_390\n      jump\t// in\n    tag_458:\n        /* \"#utility.yul\":2933:2996   */\n      swap2\n      pop\n        /* \"#utility.yul\":2888:3006   */\n      pop\n        /* \"#utility.yul\":2539:3013   */\n      swap3\n      pop\n      swap3\n      swap1\n      pop\n      jump\t// out\n        /* \"#utility.yul\":3019:3109   */\n    tag_391:\n        /* \"#utility.yul\":3053:3060   */\n      0x00\n        /* \"#utility.yul\":3096:3101   */\n      dup2\n        /* \"#utility.yul\":3089:3102   */\n      iszero\n        /* \"#utility.yul\":3082:3103   */\n      iszero\n        /* \"#utility.yul\":3071:3103   */\n      swap1\n      pop\n        /* \"#utility.yul\":3019:3109   */\n      swap2\n      swap1\n      pop\n      jump\t// out\n        /* \"#utility.yul\":3115:3224   */\n    tag_392:\n        /* \"#utility.yul\":3196:3217   */\n      tag_461\n        /* \"#utility.yul\":3211:3216   */\n      dup2\n        /* \"#utility.yul\":3196:3217   */\n      tag_391\n      jump\t// in\n    tag_461:\n        /* \"#utility.yul\":3191:3194   */\n      dup3\n        /* \"#utility.yul\":3184:3218   */\n      mstore\n        /* \"#utility.yul\":3115:3224   */\n      pop\n      pop\n      jump\t// out\n        /* \"#utility.yul\":3230:3440   */\n    tag_43:\n        /* \"#utility.yul\":3317:3321   */\n      0x00\n        /* \"#utility.yul\":3355:3357   */\n      0x20\n        /* \"#utility.yul\":3344:3353   */\n      dup3\n        /* \"#utility.yul\":3340:3358   */\n      add\n        /* \"#utility.yul\":3332:3358   */\n      swap1\n      pop\n        /* \"#utility.yul\":3368:3433   */\n      tag_463\n        /* \"#utility.yul\":3430:3431   */\n      0x00\n        /* \"#utility.yul\":3419:3428   */\n      dup4\n        /* \"#utility.yul\":3415:3432   */\n      add\n        /* \"#utility.yul\":3406:3412   */\n      dup5\n        /* \"#utility.yul\":3368:3433   */\n      tag_392\n      jump\t// in\n    tag_463:\n        /* \"#utility.yul\":3230:3440   */\n      swap3\n      swap2\n      pop\n      pop\n      jump\t// out\n        /* \"#utility.yul\":3446:3564   */\n    tag_393:\n        /* \"#utility.yul\":3533:3557   */\n      tag_465\n        /* \"#utility.yul\":3551:3556   */\n      dup2\n        /* \"#utility.yul\":3533:3557   */\n      tag_388\n      jump\t// in\n    tag_465:\n        /* \"#utility.yul\":3528:3531   */\n      dup3\n        /* \"#utility.yul\":3521:3558   */\n      mstore\n        /* \"#utility.yul\":3446:3564   */\n      pop\n      pop\n      jump\t// out\n        /* \"#utility.yul\":3570:3792   */\n    tag_47:\n        /* \"#utility.yul\":3663:3667   */\n      0x00\n        /* \"#utility.yul\":3701:3703   */\n      0x20\n        /* \"#utility.yul\":3690:3699   */\n      dup3\n        /* \"#utility.yul\":3686:3704   */\n      add\n        /* \"#utility.yul\":3678:3704   */\n      swap1\n      pop\n        /* \"#utility.yul\":3714:3785   */\n      tag_467\n        /* \"#utility.yul\":3782:3783   */\n      0x00\n        /* \"#utility.yul\":3771:3780   */\n      dup4\n        /* \"#utility.yul\":3767:3784   */\n      add\n        /* \"#utility.yul\":3758:3764   */\n      dup5\n        /* \"#utility.yul\":3714:3785   */\n      tag_393\n      jump\t// in\n    tag_467:\n        /* \"#utility.yul\":3570:3792   */\n      swap3\n      swap2\n      pop\n      pop\n      jump\t// out\n        /* \"#utility.yul\":3798:4417   */\n    tag_53:\n        /* \"#utility.yul\":3875:3881   */\n      0x00\n        /* \"#utility.yul\":3883:3889   */\n      dup1\n        /* \"#utility.yul\":3891:3897   */\n      0x00\n        /* \"#utility.yul\":3940:3942   */\n      0x60\n        /* \"#utility.yul\":3928:3937   */\n      dup5\n        /* \"#utility.yul\":3919:3926   */\n      dup7\n        /* \"#utility.yul\":3915:3938   */\n      sub\n        /* \"#utility.yul\":3911:3943   */\n      slt\n        /* \"#utility.yul\":3908:4027   */\n      iszero\n      tag_469\n      jumpi\n        /* \"#utility.yul\":3946:4025   */\n      tag_470\n      tag_382\n      jump\t// in\n    tag_470:\n        /* \"#utility.yul\":3908:4027   */\n    tag_469:\n        /* \"#utility.yul\":4066:4067   */\n      0x00\n        /* \"#utility.yul\":4091:4144   */\n      tag_471\n        /* \"#utility.yul\":4136:4143   */\n      dup7\n        /* \"#utility.yul\":4127:4133   */\n      dup3\n        /* \"#utility.yul\":4116:4125   */\n      dup8\n        /* \"#utility.yul\":4112:4134   */\n      add\n        /* \"#utility.yul\":4091:4144   */\n      tag_387\n      jump\t// in\n    tag_471:\n        /* \"#utility.yul\":4081:4144   */\n      swap4\n      pop\n        /* \"#utility.yul\":4037:4154   */\n      pop\n        /* \"#utility.yul\":4193:4195   */\n      0x20\n        /* \"#utility.yul\":4219:4272   */\n      tag_472\n        /* \"#utility.yul\":4264:4271   */\n      dup7\n        /* \"#utility.yul\":4255:4261   */\n      dup3\n        /* \"#utility.yul\":4244:4253   */\n      dup8\n        /* \"#utility.yul\":4240:4262   */\n      add\n        /* \"#utility.yul\":4219:4272   */\n      tag_387\n      jump\t// in\n    tag_472:\n        /* \"#utility.yul\":4209:4272   */\n      swap3\n      pop\n        /* \"#utility.yul\":4164:4282   */\n      pop\n        /* \"#utility.yul\":4321:4323   */\n      0x40\n        /* \"#utility.yul\":4347:4400   */\n      tag_473\n        /* \"#utility.yul\":4392:4399   */\n      dup7\n        /* \"#utility.yul\":4383:4389   */\n      dup3\n        /* \"#utility.yul\":4372:4381   */\n      dup8\n        /* \"#utility.yul\":4368:4390   */\n      add\n        /* \"#utility.yul\":4347:4400   */\n      tag_390\n      jump\t// in\n    tag_473:\n        /* \"#utility.yul\":4337:4400   */\n      swap2\n      pop\n        /* \"#utility.yul\":4292:4410   */\n      pop\n        /* \"#utility.yul\":3798:4417   */\n      swap3\n      pop\n      swap3\n      pop\n      swap3\n      jump\t// out\n        /* \"#utility.yul\":4423:4509   */\n    tag_394:\n        /* \"#utility.yul\":4458:4465   */\n      0x00\n        /* \"#utility.yul\":4498:4502   */\n      0xff\n        /* \"#utility.yul\":4491:4496   */\n      dup3\n        /* \"#utility.yul\":4487:4503   */\n      and\n        /* \"#utility.yul\":4476:4503   */\n      swap1\n      pop\n        /* \"#utility.yul\":4423:4509   */\n      swap2\n      swap1\n      pop\n      jump\t// out\n        /* \"#utility.yul\":4515:4627   */\n    tag_395:\n        /* \"#utility.yul\":4598:4620   */\n      tag_476\n        /* \"#utility.yul\":4614:4619   */\n      dup2\n        /* \"#utility.yul\":4598:4620   */\n      tag_394\n      jump\t// in\n    tag_476:\n        /* \"#utility.yul\":4593:4596   */\n      dup3\n        /* \"#utility.yul\":4586:4621   */\n      mstore\n        /* \"#utility.yul\":4515:4627   */\n      pop\n      pop\n      jump\t// out\n        /* \"#utility.yul\":4633:4847   */\n    tag_59:\n        /* \"#utility.yul\":4722:4726   */\n      0x00\n        /* \"#utility.yul\":4760:4762   */\n      0x20\n        /* \"#utility.yul\":4749:4758   */\n      dup3\n        /* \"#utility.yul\":4745:4763   */\n      add\n        /* \"#utility.yul\":4737:4763   */\n      swap1\n      pop\n        /* \"#utility.yul\":4773:4840   */\n      tag_478\n        /* \"#utility.yul\":4837:4838   */\n      0x00\n        /* \"#utility.yul\":4826:4835   */\n      dup4\n        /* \"#utility.yul\":4822:4839   */\n      add\n        /* \"#utility.yul\":4813:4819   */\n      dup5\n        /* \"#utility.yul\":4773:4840   */\n      tag_395\n      jump\t// in\n    tag_478:\n        /* \"#utility.yul\":4633:4847   */\n      swap3\n      swap2\n      pop\n      pop\n      jump\t// out\n        /* \"#utility.yul\":4853:5182   */\n    tag_67:\n        /* \"#utility.yul\":4912:4918   */\n      0x00\n        /* \"#utility.yul\":4961:4963   */\n      0x20\n        /* \"#utility.yul\":4949:4958   */\n      dup3\n        /* \"#utility.yul\":4940:4947   */\n      dup5\n        /* \"#utility.yul\":4936:4959   */\n      sub\n        /* \"#utility.yul\":4932:4964   */\n      slt\n        /* \"#utility.yul\":4929:5048   */\n      iszero\n      tag_480\n      jumpi\n        /* \"#utility.yul\":4967:5046   */\n      tag_481\n      tag_382\n      jump\t// in\n    tag_481:\n        /* \"#utility.yul\":4929:5048   */\n    tag_480:\n        /* \"#utility.yul\":5087:5088   */\n      0x00\n        /* \"#utility.yul\":5112:5165   */\n      tag_482\n        /* \"#utility.yul\":5157:5164   */\n      dup5\n        /* \"#utility.yul\":5148:5154   */\n      dup3\n        /* \"#utility.yul\":5137:5146   */\n      dup6\n        /* \"#utility.yul\":5133:5155   */\n      add\n        /* \"#utility.yul\":5112:5165   */\n      tag_390\n      jump\t// in\n    tag_482:\n        /* \"#utility.yul\":5102:5165   */\n      swap2\n      pop\n        /* \"#utility.yul\":5058:5175   */\n      pop\n        /* \"#utility.yul\":4853:5182   */\n      swap3\n      swap2\n      pop\n      pop\n      jump\t// out\n        /* \"#utility.yul\":5188:5517   */\n    tag_71:\n        /* \"#utility.yul\":5247:5253   */\n      0x00\n        /* \"#utility.yul\":5296:5298   */\n      0x20\n        /* \"#utility.yul\":5284:5293   */\n      dup3\n        /* \"#utility.yul\":5275:5282   */\n      dup5\n        /* \"#utility.yul\":5271:5294   */\n      sub\n        /* \"#utility.yul\":5267:5299   */\n      slt\n        /* \"#utility.yul\":5264:5383   */\n      iszero\n      tag_484\n      jumpi\n        /* \"#utility.yul\":5302:5381   */\n      tag_485\n      tag_382\n      jump\t// in\n    tag_485:\n        /* \"#utility.yul\":5264:5383   */\n    tag_484:\n        /* \"#utility.yul\":5422:5423   */\n      0x00\n        /* \"#utility.yul\":5447:5500   */\n      tag_486\n        /* \"#utility.yul\":5492:5499   */\n      dup5\n        /* \"#utility.yul\":5483:5489   */\n      dup3\n        /* \"#utility.yul\":5472:5481   */\n      dup6\n        /* \"#utility.yul\":5468:5490   */\n      add\n        /* \"#utility.yul\":5447:5500   */\n      tag_387\n      jump\t// in\n    tag_486:\n        /* \"#utility.yul\":5437:5500   */\n      swap2\n      pop\n        /* \"#utility.yul\":5393:5510   */\n      pop\n        /* \"#utility.yul\":5188:5517   */\n      swap3\n      swap2\n      pop\n      pop\n      jump\t// out\n        /* \"#utility.yul\":5523:5641   */\n    tag_396:\n        /* \"#utility.yul\":5610:5634   */\n      tag_488\n        /* \"#utility.yul\":5628:5633   */\n      dup2\n        /* \"#utility.yul\":5610:5634   */\n      tag_385\n      jump\t// in\n    tag_488:\n        /* \"#utility.yul\":5605:5608   */\n      dup3\n        /* \"#utility.yul\":5598:5635   */\n      mstore\n        /* \"#utility.yul\":5523:5641   */\n      pop\n      pop\n      jump\t// out\n        /* \"#utility.yul\":5647:5869   */\n    tag_97:\n        /* \"#utility.yul\":5740:5744   */\n      0x00\n        /* \"#utility.yul\":5778:5780   */\n      0x20\n        /* \"#utility.yul\":5767:5776   */\n      dup3\n        /* \"#utility.yul\":5763:5781   */\n      add\n        /* \"#utility.yul\":5755:5781   */\n      swap1\n      pop\n        /* \"#utility.yul\":5791:5862   */\n      tag_490\n        /* \"#utility.yul\":5859:5860   */\n      0x00\n        /* \"#utility.yul\":5848:5857   */\n      dup4\n        /* \"#utility.yul\":5844:5861   */\n      add\n        /* \"#utility.yul\":5835:5841   */\n      dup5\n        /* \"#utility.yul\":5791:5862   */\n      tag_396\n      jump\t// in\n    tag_490:\n        /* \"#utility.yul\":5647:5869   */\n      swap3\n      swap2\n      pop\n      pop\n      jump\t// out\n        /* \"#utility.yul\":5875:6494   */\n    tag_110:\n        /* \"#utility.yul\":5952:5958   */\n      0x00\n        /* \"#utility.yul\":5960:5966   */\n      dup1\n        /* \"#utility.yul\":5968:5974   */\n      0x00\n        /* \"#utility.yul\":6017:6019   */\n      0x60\n        /* \"#utility.yul\":6005:6014   */\n      dup5\n        /* \"#utility.yul\":5996:6003   */\n      dup7\n        /* \"#utility.yul\":5992:6015   */\n      sub\n        /* \"#utility.yul\":5988:6020   */\n      slt\n        /* \"#utility.yul\":5985:6104   */\n      iszero\n      tag_492\n      jumpi\n        /* \"#utility.yul\":6023:6102   */\n      tag_493\n      tag_382\n      jump\t// in\n    tag_493:\n        /* \"#utility.yul\":5985:6104   */\n    tag_492:\n        /* \"#utility.yul\":6143:6144   */\n      0x00\n        /* \"#utility.yul\":6168:6221   */\n      tag_494\n        /* \"#utility.yul\":6213:6220   */\n      dup7\n        /* \"#utility.yul\":6204:6210   */\n      dup3\n        /* \"#utility.yul\":6193:6202   */\n      dup8\n        /* \"#utility.yul\":6189:6211   */\n      add\n        /* \"#utility.yul\":6168:6221   */\n      tag_390\n      jump\t// in\n    tag_494:\n        /* \"#utility.yul\":6158:6221   */\n      swap4\n      pop\n        /* \"#utility.yul\":6114:6231   */\n      pop\n        /* \"#utility.yul\":6270:6272   */\n      0x20\n        /* \"#utility.yul\":6296:6349   */\n      tag_495\n        /* \"#utility.yul\":6341:6348   */\n      dup7\n        /* \"#utility.yul\":6332:6338   */\n      dup3\n        /* \"#utility.yul\":6321:6330   */\n      dup8\n        /* \"#utility.yul\":6317:6339   */\n      add\n        /* \"#utility.yul\":6296:6349   */\n      tag_390\n      jump\t// in\n    tag_495:\n        /* \"#utility.yul\":6286:6349   */\n      swap3\n      pop\n        /* \"#utility.yul\":6241:6359   */\n      pop\n        /* \"#utility.yul\":6398:6400   */\n      0x40\n        /* \"#utility.yul\":6424:6477   */\n      tag_496\n        /* \"#utility.yul\":6469:6476   */\n      dup7\n        /* \"#utility.yul\":6460:6466   */\n      dup3\n        /* \"#utility.yul\":6449:6458   */\n      dup8\n        /* \"#utility.yul\":6445:6467   */\n      add\n        /* \"#utility.yul\":6424:6477   */\n      tag_390\n      jump\t// in\n    tag_496:\n        /* \"#utility.yul\":6414:6477   */\n      swap2\n      pop\n        /* \"#utility.yul\":6369:6487   */\n      pop\n        /* \"#utility.yul\":5875:6494   */\n      swap3\n      pop\n      swap3\n      pop\n      swap3\n      jump\t// out\n        /* \"#utility.yul\":6500:6974   */\n    tag_117:\n        /* \"#utility.yul\":6568:6574   */\n      0x00\n        /* \"#utility.yul\":6576:6582   */\n      dup1\n        /* \"#utility.yul\":6625:6627   */\n      0x40\n        /* \"#utility.yul\":6613:6622   */\n      dup4\n        /* \"#utility.yul\":6604:6611   */\n      dup6\n        /* \"#utility.yul\":6600:6623   */\n      sub\n        /* \"#utility.yul\":6596:6628   */\n      slt\n        /* \"#utility.yul\":6593:6712   */\n      iszero\n      tag_498\n      jumpi\n        /* \"#utility.yul\":6631:6710   */\n      tag_499\n      tag_382\n      jump\t// in\n    tag_499:\n        /* \"#utility.yul\":6593:6712   */\n    tag_498:\n        /* \"#utility.yul\":6751:6752   */\n      0x00\n        /* \"#utility.yul\":6776:6829   */\n      tag_500\n        /* \"#utility.yul\":6821:6828   */\n      dup6\n        /* \"#utility.yul\":6812:6818   */\n      dup3\n        /* \"#utility.yul\":6801:6810   */\n      dup7\n        /* \"#utility.yul\":6797:6819   */\n      add\n        /* \"#utility.yul\":6776:6829   */\n      tag_387\n      jump\t// in\n    tag_500:\n        /* \"#utility.yul\":6766:6829   */\n      swap3\n      pop\n        /* \"#utility.yul\":6722:6839   */\n      pop\n        /* \"#utility.yul\":6878:6880   */\n      0x20\n        /* \"#utility.yul\":6904:6957   */\n      tag_501\n        /* \"#utility.yul\":6949:6956   */\n      dup6\n        /* \"#utility.yul\":6940:6946   */\n      dup3\n        /* \"#utility.yul\":6929:6938   */\n      dup7\n        /* \"#utility.yul\":6925:6947   */\n      add\n        /* \"#utility.yul\":6904:6957   */\n      tag_387\n      jump\t// in\n    tag_501:\n        /* \"#utility.yul\":6894:6957   */\n      swap2\n      pop\n        /* \"#utility.yul\":6849:6967   */\n      pop\n        /* \"#utility.yul\":6500:6974   */\n      swap3\n      pop\n      swap3\n      swap1\n      pop\n      jump\t// out\n        /* \"#utility.yul\":6980:7160   */\n    tag_397:\n        /* \"#utility.yul\":7028:7105   */\n      0x4e487b7100000000000000000000000000000000000000000000000000000000\n        /* \"#utility.yul\":7025:7026   */\n      0x00\n        /* \"#utility.yul\":7018:7106   */\n      mstore\n        /* \"#utility.yul\":7125:7129   */\n      0x22\n        /* \"#utility.yul\":7122:7123   */\n      0x04\n        /* \"#utility.yul\":7115:7130   */\n      mstore\n        /* \"#utility.yul\":7149:7153   */\n      0x24\n        /* \"#utility.yul\":7146:7147   */\n      0x00\n        /* \"#utility.yul\":7139:7154   */\n      revert\n        /* \"#utility.yul\":7166:7486   */\n    tag_127:\n        /* \"#utility.yul\":7210:7216   */\n      0x00\n        /* \"#utility.yul\":7247:7248   */\n      0x02\n        /* \"#utility.yul\":7241:7245   */\n      dup3\n        /* \"#utility.yul\":7237:7249   */\n      div\n        /* \"#utility.yul\":7227:7249   */\n      swap1\n      pop\n        /* \"#utility.yul\":7294:7295   */\n      0x01\n        /* \"#utility.yul\":7288:7292   */\n      dup3\n        /* \"#utility.yul\":7284:7296   */\n      and\n        /* \"#utility.yul\":7315:7333   */\n      dup1\n        /* \"#utility.yul\":7305:7386   */\n      tag_504\n      jumpi\n        /* \"#utility.yul\":7371:7375   */\n      0x7f\n        /* \"#utility.yul\":7363:7369   */\n      dup3\n        /* \"#utility.yul\":7359:7376   */\n      and\n        /* \"#utility.yul\":7349:7376   */\n      swap2\n      pop\n        /* \"#utility.yul\":7305:7386   */\n    tag_504:\n        /* \"#utility.yul\":7433:7435   */\n      0x20\n        /* \"#utility.yul\":7425:7431   */\n      dup3\n        /* \"#utility.yul\":7422:7436   */\n      lt\n        /* \"#utility.yul\":7402:7420   */\n      dup2\n        /* \"#utility.yul\":7399:7437   */\n      sub\n        /* \"#utility.yul\":7396:7480   */\n      tag_505\n      jumpi\n        /* \"#utility.yul\":7452:7470   */\n      tag_506\n      tag_397\n      jump\t// in\n    tag_506:\n        /* \"#utility.yul\":7396:7480   */\n    tag_505:\n        /* \"#utility.yul\":7217:7486   */\n      pop\n        /* \"#utility.yul\":7166:7486   */\n      swap2\n      swap1\n      pop\n      jump\t// out\n        /* \"#utility.yul\":7492:7672   */\n    tag_398:\n        /* \"#utility.yul\":7540:7617   */\n      0x4e487b7100000000000000000000000000000000000000000000000000000000\n        /* \"#utility.yul\":7537:7538   */\n      0x00\n        /* \"#utility.yul\":7530:7618   */\n      mstore\n        /* \"#utility.yul\":7637:7641   */\n      0x11\n        /* \"#utility.yul\":7634:7635   */\n      0x04\n        /* \"#utility.yul\":7627:7642   */\n      mstore\n        /* \"#utility.yul\":7661:7665   */\n      0x24\n        /* \"#utility.yul\":7658:7659   */\n      0x00\n        /* \"#utility.yul\":7651:7666   */\n      revert\n        /* \"#utility.yul\":7678:7872   */\n    tag_144:\n        /* \"#utility.yul\":7718:7722   */\n      0x00\n        /* \"#utility.yul\":7738:7758   */\n      tag_509\n        /* \"#utility.yul\":7756:7757   */\n      dup3\n        /* \"#utility.yul\":7738:7758   */\n      tag_388\n      jump\t// in\n    tag_509:\n        /* \"#utility.yul\":7733:7758   */\n      swap2\n      pop\n        /* \"#utility.yul\":7772:7792   */\n      tag_510\n        /* \"#utility.yul\":7790:7791   */\n      dup4\n        /* \"#utility.yul\":7772:7792   */\n      tag_388\n      jump\t// in\n    tag_510:\n        /* \"#utility.yul\":7767:7792   */\n      swap3\n      pop\n        /* \"#utility.yul\":7816:7817   */\n      dup3\n        /* \"#utility.yul\":7813:7814   */\n      dup3\n        /* \"#utility.yul\":7809:7818   */\n      sub\n        /* \"#utility.yul\":7801:7818   */\n      swap1\n      pop\n        /* \"#utility.yul\":7840:7841   */\n      dup2\n        /* \"#utility.yul\":7834:7838   */\n      dup2\n        /* \"#utility.yul\":7831:7842   */\n      gt\n        /* \"#utility.yul\":7828:7865   */\n      iszero\n      tag_511\n      jumpi\n        /* \"#utility.yul\":7845:7863   */\n      tag_512\n      tag_398\n      jump\t// in\n    tag_512:\n        /* \"#utility.yul\":7828:7865   */\n    tag_511:\n        /* \"#utility.yul\":7678:7872   */\n      swap3\n      swap2\n      pop\n      pop\n      jump\t// out\n        /* \"#utility.yul\":7878:8050   */\n    tag_399:\n        /* \"#utility.yul\":8018:8042   */\n      0x436f6e7472616374206973206e6f742070617573656400000000000000000000\n        /* \"#utility.yul\":8014:8015   */\n      0x00\n        /* \"#utility.yul\":8006:8012   */\n      dup3\n        /* \"#utility.yul\":8002:8016   */\n      add\n        /* \"#utility.yul\":7995:8043   */\n      mstore\n        /* \"#utility.yul\":7878:8050   */\n      pop\n      jump\t// out\n        /* \"#utility.yul\":8056:8422   */\n    tag_400:\n        /* \"#utility.yul\":8198:8201   */\n      0x00\n        /* \"#utility.yul\":8219:8286   */\n      tag_515\n        /* \"#utility.yul\":8283:8285   */\n      0x16\n        /* \"#utility.yul\":8278:8281   */\n      dup4\n        /* \"#utility.yul\":8219:8286   */\n      tag_377\n      jump\t// in\n    tag_515:\n        /* \"#utility.yul\":8212:8286   */\n      swap2\n      pop\n        /* \"#utility.yul\":8295:8388   */\n      tag_516\n        /* \"#utility.yul\":8384:8387   */\n      dup3\n        /* \"#utility.yul\":8295:8388   */\n      tag_399\n      jump\t// in\n    tag_516:\n        /* \"#utility.yul\":8413:8415   */\n      0x20\n        /* \"#utility.yul\":8408:8411   */\n      dup3\n        /* \"#utility.yul\":8404:8416   */\n      add\n        /* \"#utility.yul\":8397:8416   */\n      swap1\n      pop\n        /* \"#utility.yul\":8056:8422   */\n      swap2\n      swap1\n      pop\n      jump\t// out\n        /* \"#utility.yul\":8428:8847   */\n    tag_153:\n        /* \"#utility.yul\":8594:8598   */\n      0x00\n        /* \"#utility.yul\":8632:8634   */\n      0x20\n        /* \"#utility.yul\":8621:8630   */\n      dup3\n        /* \"#utility.yul\":8617:8635   */\n      add\n        /* \"#utility.yul\":8609:8635   */\n      swap1\n      pop\n        /* \"#utility.yul\":8681:8690   */\n      dup2\n        /* \"#utility.yul\":8675:8679   */\n      dup2\n        /* \"#utility.yul\":8671:8691   */\n      sub\n        /* \"#utility.yul\":8667:8668   */\n      0x00\n        /* \"#utility.yul\":8656:8665   */\n      dup4\n        /* \"#utility.yul\":8652:8669   */\n      add\n        /* \"#utility.yul\":8645:8692   */\n      mstore\n        /* \"#utility.yul\":8709:8840   */\n      tag_518\n        /* \"#utility.yul\":8835:8839   */\n      dup2\n        /* \"#utility.yul\":8709:8840   */\n      tag_400\n      jump\t// in\n    tag_518:\n        /* \"#utility.yul\":8701:8840   */\n      swap1\n      pop\n        /* \"#utility.yul\":8428:8847   */\n      swap2\n      swap1\n      pop\n      jump\t// out\n        /* \"#utility.yul\":8853:9021   */\n    tag_401:\n        /* \"#utility.yul\":8993:9013   */\n      0x436f6e7472616374206973207061757365640000000000000000000000000000\n        /* \"#utility.yul\":8989:8990   */\n      0x00\n        /* \"#utility.yul\":8981:8987   */\n      dup3\n        /* \"#utility.yul\":8977:8991   */\n      add\n        /* \"#utility.yul\":8970:9014   */\n      mstore\n        /* \"#utility.yul\":8853:9021   */\n      pop\n      jump\t// out\n        /* \"#utility.yul\":9027:9393   */\n    tag_402:\n        /* \"#utility.yul\":9169:9172   */\n      0x00\n        /* \"#utility.yul\":9190:9257   */\n      tag_521\n        /* \"#utility.yul\":9254:9256   */\n      0x12\n        /* \"#utility.yul\":9249:9252   */\n      dup4\n        /* \"#utility.yul\":9190:9257   */\n      tag_377\n      jump\t// in\n    tag_521:\n        /* \"#utility.yul\":9183:9257   */\n      swap2\n      pop\n        /* \"#utility.yul\":9266:9359   */\n      tag_522\n        /* \"#utility.yul\":9355:9358   */\n      dup3\n        /* \"#utility.yul\":9266:9359   */\n      tag_401\n      jump\t// in\n    tag_522:\n        /* \"#utility.yul\":9384:9386   */\n      0x20\n        /* \"#utility.yul\":9379:9382   */\n      dup3\n        /* \"#utility.yul\":9375:9387   */\n      add\n        /* \"#utility.yul\":9368:9387   */\n      swap1\n      pop\n        /* \"#utility.yul\":9027:9393   */\n      swap2\n      swap1\n      pop\n      jump\t// out\n        /* \"#utility.yul\":9399:9818   */\n    tag_162:\n        /* \"#utility.yul\":9565:9569   */\n      0x00\n        /* \"#utility.yul\":9603:9605   */\n      0x20\n        /* \"#utility.yul\":9592:9601   */\n      dup3\n        /* \"#utility.yul\":9588:9606   */\n      add\n        /* \"#utility.yul\":9580:9606   */\n      swap1\n      pop\n        /* \"#utility.yul\":9652:9661   */\n      dup2\n        /* \"#utility.yul\":9646:9650   */\n      dup2\n        /* \"#utility.yul\":9642:9662   */\n      sub\n        /* \"#utility.yul\":9638:9639   */\n      0x00\n        /* \"#utility.yul\":9627:9636   */\n      dup4\n        /* \"#utility.yul\":9623:9640   */\n      add\n        /* \"#utility.yul\":9616:9663   */\n      mstore\n        /* \"#utility.yul\":9680:9811   */\n      tag_524\n        /* \"#utility.yul\":9806:9810   */\n      dup2\n        /* \"#utility.yul\":9680:9811   */\n      tag_402\n      jump\t// in\n    tag_524:\n        /* \"#utility.yul\":9672:9811   */\n      swap1\n      pop\n        /* \"#utility.yul\":9399:9818   */\n      swap2\n      swap1\n      pop\n      jump\t// out\n        /* \"#utility.yul\":9824:9999   */\n    tag_403:\n        /* \"#utility.yul\":9964:9991   */\n      0x4163636f756e7420697320616c7265616479206c6f636b656400000000000000\n        /* \"#utility.yul\":9960:9961   */\n      0x00\n        /* \"#utility.yul\":9952:9958   */\n      dup3\n        /* \"#utility.yul\":9948:9962   */\n      add\n        /* \"#utility.yul\":9941:9992   */\n      mstore\n        /* \"#utility.yul\":9824:9999   */\n      pop\n      jump\t// out\n        /* \"#utility.yul\":10005:10371   */\n    tag_404:\n        /* \"#utility.yul\":10147:10150   */\n      0x00\n        /* \"#utility.yul\":10168:10235   */\n      tag_527\n        /* \"#utility.yul\":10232:10234   */\n      0x19\n        /* \"#utility.yul\":10227:10230   */\n      dup4\n        /* \"#utility.yul\":10168:10235   */\n      tag_377\n      jump\t// in\n    tag_527:\n        /* \"#utility.yul\":10161:10235   */\n      swap2\n      pop\n        /* \"#utility.yul\":10244:10337   */\n      tag_528\n        /* \"#utility.yul\":10333:10336   */\n      dup3\n        /* \"#utility.yul\":10244:10337   */\n      tag_403\n      jump\t// in\n    tag_528:\n        /* \"#utility.yul\":10362:10364   */\n      0x20\n        /* \"#utility.yul\":10357:10360   */\n      dup3\n        /* \"#utility.yul\":10353:10365   */\n      add\n        /* \"#utility.yul\":10346:10365   */\n      swap1\n      pop\n        /* \"#utility.yul\":10005:10371   */\n      swap2\n      swap1\n      pop\n      jump\t// out\n        /* \"#utility.yul\":10377:10796   */\n    tag_184:\n        /* \"#utility.yul\":10543:10547   */\n      0x00\n        /* \"#utility.yul\":10581:10583   */\n      0x20\n        /* \"#utility.yul\":10570:10579   */\n      dup3\n        /* \"#utility.yul\":10566:10584   */\n      add\n        /* \"#utility.yul\":10558:10584   */\n      swap1\n      pop\n        /* \"#utility.yul\":10630:10639   */\n      dup2\n        /* \"#utility.yul\":10624:10628   */\n      dup2\n        /* \"#utility.yul\":10620:10640   */\n      sub\n        /* \"#utility.yul\":10616:10617   */\n      0x00\n        /* \"#utility.yul\":10605:10614   */\n      dup4\n        /* \"#utility.yul\":10601:10618   */\n      add\n        /* \"#utility.yul\":10594:10641   */\n      mstore\n        /* \"#utility.yul\":10658:10789   */\n      tag_530\n        /* \"#utility.yul\":10784:10788   */\n      dup2\n        /* \"#utility.yul\":10658:10789   */\n      tag_404\n      jump\t// in\n    tag_530:\n        /* \"#utility.yul\":10650:10789   */\n      swap1\n      pop\n        /* \"#utility.yul\":10377:10796   */\n      swap2\n      swap1\n      pop\n      jump\t// out\n        /* \"#utility.yul\":10802:10966   */\n    tag_405:\n        /* \"#utility.yul\":10942:10958   */\n      0x4e6f7420617574686f72697a6564000000000000000000000000000000000000\n        /* \"#utility.yul\":10938:10939   */\n      0x00\n        /* \"#utility.yul\":10930:10936   */\n      dup3\n        /* \"#utility.yul\":10926:10940   */\n      add\n        /* \"#utility.yul\":10919:10959   */\n      mstore\n        /* \"#utility.yul\":10802:10966   */\n      pop\n      jump\t// out\n        /* \"#utility.yul\":10972:11338   */\n    tag_406:\n        /* \"#utility.yul\":11114:11117   */\n      0x00\n        /* \"#utility.yul\":11135:11202   */\n      tag_533\n        /* \"#utility.yul\":11199:11201   */\n      0x0e\n        /* \"#utility.yul\":11194:11197   */\n      dup4\n        /* \"#utility.yul\":11135:11202   */\n      tag_377\n      jump\t// in\n    tag_533:\n        /* \"#utility.yul\":11128:11202   */\n      swap2\n      pop\n        /* \"#utility.yul\":11211:11304   */\n      tag_534\n        /* \"#utility.yul\":11300:11303   */\n      dup3\n        /* \"#utility.yul\":11211:11304   */\n      tag_405\n      jump\t// in\n    tag_534:\n        /* \"#utility.yul\":11329:11331   */\n      0x20\n        /* \"#utility.yul\":11324:11327   */\n      dup3\n        /* \"#utility.yul\":11320:11332   */\n      add\n        /* \"#utility.yul\":11313:11332   */\n      swap1\n      pop\n        /* \"#utility.yul\":10972:11338   */\n      swap2\n      swap1\n      pop\n      jump\t// out\n        /* \"#utility.yul\":11344:11763   */\n    tag_199:\n        /* \"#utility.yul\":11510:11514   */\n      0x00\n        /* \"#utility.yul\":11548:11550   */\n      0x20\n        /* \"#utility.yul\":11537:11546   */\n      dup3\n        /* \"#utility.yul\":11533:11551   */\n      add\n        /* \"#utility.yul\":11525:11551   */\n      swap1\n      pop\n        /* \"#utility.yul\":11597:11606   */\n      dup2\n        /* \"#utility.yul\":11591:11595   */\n      dup2\n        /* \"#utility.yul\":11587:11607   */\n      sub\n        /* \"#utility.yul\":11583:11584   */\n      0x00\n        /* \"#utility.yul\":11572:11581   */\n      dup4\n        /* \"#utility.yul\":11568:11585   */\n      add\n        /* \"#utility.yul\":11561:11608   */\n      mstore\n        /* \"#utility.yul\":11625:11756   */\n      tag_536\n        /* \"#utility.yul\":11751:11755   */\n      dup2\n        /* \"#utility.yul\":11625:11756   */\n      tag_406\n      jump\t// in\n    tag_536:\n        /* \"#utility.yul\":11617:11756   */\n      swap1\n      pop\n        /* \"#utility.yul\":11344:11763   */\n      swap2\n      swap1\n      pop\n      jump\t// out\n        /* \"#utility.yul\":11769:11960   */\n    tag_206:\n        /* \"#utility.yul\":11809:11812   */\n      0x00\n        /* \"#utility.yul\":11828:11848   */\n      tag_538\n        /* \"#utility.yul\":11846:11847   */\n      dup3\n        /* \"#utility.yul\":11828:11848   */\n      tag_388\n      jump\t// in\n    tag_538:\n        /* \"#utility.yul\":11823:11848   */\n      swap2\n      pop\n        /* \"#utility.yul\":11862:11882   */\n      tag_539\n        /* \"#utility.yul\":11880:11881   */\n      dup4\n        /* \"#utility.yul\":11862:11882   */\n      tag_388\n      jump\t// in\n    tag_539:\n        /* \"#utility.yul\":11857:11882   */\n      swap3\n      pop\n        /* \"#utility.yul\":11905:11906   */\n      dup3\n        /* \"#utility.yul\":11902:11903   */\n      dup3\n        /* \"#utility.yul\":11898:11907   */\n      add\n        /* \"#utility.yul\":11891:11907   */\n      swap1\n      pop\n        /* \"#utility.yul\":11926:11929   */\n      dup1\n        /* \"#utility.yul\":11923:11924   */\n      dup3\n        /* \"#utility.yul\":11920:11930   */\n      gt\n        /* \"#utility.yul\":11917:11953   */\n      iszero\n      tag_540\n      jumpi\n        /* \"#utility.yul\":11933:11951   */\n      tag_541\n      tag_398\n      jump\t// in\n    tag_541:\n        /* \"#utility.yul\":11917:11953   */\n    tag_540:\n        /* \"#utility.yul\":11769:11960   */\n      swap3\n      swap2\n      pop\n      pop\n      jump\t// out\n        /* \"#utility.yul\":11966:12137   */\n    tag_407:\n        /* \"#utility.yul\":12106:12129   */\n      0x4163636f756e74206973206e6f74206c6f636b65640000000000000000000000\n        /* \"#utility.yul\":12102:12103   */\n      0x00\n        /* \"#utility.yul\":12094:12100   */\n      dup3\n        /* \"#utility.yul\":12090:12104   */\n      add\n        /* \"#utility.yul\":12083:12130   */\n      mstore\n        /* \"#utility.yul\":11966:12137   */\n      pop\n      jump\t// out\n        /* \"#utility.yul\":12143:12509   */\n    tag_408:\n        /* \"#utility.yul\":12285:12288   */\n      0x00\n        /* \"#utility.yul\":12306:12373   */\n      tag_544\n        /* \"#utility.yul\":12370:12372   */\n      0x15\n        /* \"#utility.yul\":12365:12368   */\n      dup4\n        /* \"#utility.yul\":12306:12373   */\n      tag_377\n      jump\t// in\n    tag_544:\n        /* \"#utility.yul\":12299:12373   */\n      swap2\n      pop\n        /* \"#utility.yul\":12382:12475   */\n      tag_545\n        /* \"#utility.yul\":12471:12474   */\n      dup3\n        /* \"#utility.yul\":12382:12475   */\n      tag_407\n      jump\t// in\n    tag_545:\n        /* \"#utility.yul\":12500:12502   */\n      0x20\n        /* \"#utility.yul\":12495:12498   */\n      dup3\n        /* \"#utility.yul\":12491:12503   */\n      add\n        /* \"#utility.yul\":12484:12503   */\n      swap1\n      pop\n        /* \"#utility.yul\":12143:12509   */\n      swap2\n      swap1\n      pop\n      jump\t// out\n        /* \"#utility.yul\":12515:12934   */\n    tag_226:\n        /* \"#utility.yul\":12681:12685   */\n      0x00\n        /* \"#utility.yul\":12719:12721   */\n      0x20\n        /* \"#utility.yul\":12708:12717   */\n      dup3\n        /* \"#utility.yul\":12704:12722   */\n      add\n        /* \"#utility.yul\":12696:12722   */\n      swap1\n      pop\n        /* \"#utility.yul\":12768:12777   */\n      dup2\n        /* \"#utility.yul\":12762:12766   */\n      dup2\n        /* \"#utility.yul\":12758:12778   */\n      sub\n        /* \"#utility.yul\":12754:12755   */\n      0x00\n        /* \"#utility.yul\":12743:12752   */\n      dup4\n        /* \"#utility.yul\":12739:12756   */\n      add\n        /* \"#utility.yul\":12732:12779   */\n      mstore\n        /* \"#utility.yul\":12796:12927   */\n      tag_547\n        /* \"#utility.yul\":12922:12926   */\n      dup2\n        /* \"#utility.yul\":12796:12927   */\n      tag_408\n      jump\t// in\n    tag_547:\n        /* \"#utility.yul\":12788:12927   */\n      swap1\n      pop\n        /* \"#utility.yul\":12515:12934   */\n      swap2\n      swap1\n      pop\n      jump\t// out\n        /* \"#utility.yul\":12940:13112   */\n    tag_409:\n        /* \"#utility.yul\":13080:13104   */\n      0x56616c7565206d75737420626520706f73697469766500000000000000000000\n        /* \"#utility.yul\":13076:13077   */\n      0x00\n        /* \"#utility.yul\":13068:13074   */\n      dup3\n        /* \"#utility.yul\":13064:13078   */\n      add\n        /* \"#utility.yul\":13057:13105   */\n      mstore\n        /* \"#utility.yul\":12940:13112   */\n      pop\n      jump\t// out\n        /* \"#utility.yul\":13118:13484   */\n    tag_410:\n        /* \"#utility.yul\":13260:13263   */\n      0x00\n        /* \"#utility.yul\":13281:13348   */\n      tag_550\n        /* \"#utility.yul\":13345:13347   */\n      0x16\n        /* \"#utility.yul\":13340:13343   */\n      dup4\n        /* \"#utility.yul\":13281:13348   */\n      tag_377\n      jump\t// in\n    tag_550:\n        /* \"#utility.yul\":13274:13348   */\n      swap2\n      pop\n        /* \"#utility.yul\":13357:13450   */\n      tag_551\n        /* \"#utility.yul\":13446:13449   */\n      dup3\n        /* \"#utility.yul\":13357:13450   */\n      tag_409\n      jump\t// in\n    tag_551:\n        /* \"#utility.yul\":13475:13477   */\n      0x20\n        /* \"#utility.yul\":13470:13473   */\n      dup3\n        /* \"#utility.yul\":13466:13478   */\n      add\n        /* \"#utility.yul\":13459:13478   */\n      swap1\n      pop\n        /* \"#utility.yul\":13118:13484   */\n      swap2\n      swap1\n      pop\n      jump\t// out\n        /* \"#utility.yul\":13490:13909   */\n    tag_245:\n        /* \"#utility.yul\":13656:13660   */\n      0x00\n        /* \"#utility.yul\":13694:13696   */\n      0x20\n        /* \"#utility.yul\":13683:13692   */\n      dup3\n        /* \"#utility.yul\":13679:13697   */\n      add\n        /* \"#utility.yul\":13671:13697   */\n      swap1\n      pop\n        /* \"#utility.yul\":13743:13752   */\n      dup2\n        /* \"#utility.yul\":13737:13741   */\n      dup2\n        /* \"#utility.yul\":13733:13753   */\n      sub\n        /* \"#utility.yul\":13729:13730   */\n      0x00\n        /* \"#utility.yul\":13718:13727   */\n      dup4\n        /* \"#utility.yul\":13714:13731   */\n      add\n        /* \"#utility.yul\":13707:13754   */\n      mstore\n        /* \"#utility.yul\":13771:13902   */\n      tag_553\n        /* \"#utility.yul\":13897:13901   */\n      dup2\n        /* \"#utility.yul\":13771:13902   */\n      tag_410\n      jump\t// in\n    tag_553:\n        /* \"#utility.yul\":13763:13902   */\n      swap1\n      pop\n        /* \"#utility.yul\":13490:13909   */\n      swap2\n      swap1\n      pop\n      jump\t// out\n        /* \"#utility.yul\":13915:14138   */\n    tag_411:\n        /* \"#utility.yul\":14055:14089   */\n      0x50657263656e74616765206d757374206265206265747765656e203020616e64\n        /* \"#utility.yul\":14051:14052   */\n      0x00\n        /* \"#utility.yul\":14043:14049   */\n      dup3\n        /* \"#utility.yul\":14039:14053   */\n      add\n        /* \"#utility.yul\":14032:14090   */\n      mstore\n        /* \"#utility.yul\":14124:14130   */\n      0x2031303000000000000000000000000000000000000000000000000000000000\n        /* \"#utility.yul\":14119:14121   */\n      0x20\n        /* \"#utility.yul\":14111:14117   */\n      dup3\n        /* \"#utility.yul\":14107:14122   */\n      add\n        /* \"#utility.yul\":14100:14131   */\n      mstore\n        /* \"#utility.yul\":13915:14138   */\n      pop\n      jump\t// out\n        /* \"#utility.yul\":14144:14510   */\n    tag_412:\n        /* \"#utility.yul\":14286:14289   */\n      0x00\n        /* \"#utility.yul\":14307:14374   */\n      tag_556\n        /* \"#utility.yul\":14371:14373   */\n      0x24\n        /* \"#utility.yul\":14366:14369   */\n      dup4\n        /* \"#utility.yul\":14307:14374   */\n      tag_377\n      jump\t// in\n    tag_556:\n        /* \"#utility.yul\":14300:14374   */\n      swap2\n      pop\n        /* \"#utility.yul\":14383:14476   */\n      tag_557\n        /* \"#utility.yul\":14472:14475   */\n      dup3\n        /* \"#utility.yul\":14383:14476   */\n      tag_411\n      jump\t// in\n    tag_557:\n        /* \"#utility.yul\":14501:14503   */\n      0x40\n        /* \"#utility.yul\":14496:14499   */\n      dup3\n        /* \"#utility.yul\":14492:14504   */\n      add\n        /* \"#utility.yul\":14485:14504   */\n      swap1\n      pop\n        /* \"#utility.yul\":14144:14510   */\n      swap2\n      swap1\n      pop\n      jump\t// out\n        /* \"#utility.yul\":14516:14935   */\n    tag_253:\n        /* \"#utility.yul\":14682:14686   */\n      0x00\n        /* \"#utility.yul\":14720:14722   */\n      0x20\n        /* \"#utility.yul\":14709:14718   */\n      dup3\n        /* \"#utility.yul\":14705:14723   */\n      add\n        /* \"#utility.yul\":14697:14723   */\n      swap1\n      pop\n        /* \"#utility.yul\":14769:14778   */\n      dup2\n        /* \"#utility.yul\":14763:14767   */\n      dup2\n        /* \"#utility.yul\":14759:14779   */\n      sub\n        /* \"#utility.yul\":14755:14756   */\n      0x00\n        /* \"#utility.yul\":14744:14753   */\n      dup4\n        /* \"#utility.yul\":14740:14757   */\n      add\n        /* \"#utility.yul\":14733:14780   */\n      mstore\n        /* \"#utility.yul\":14797:14928   */\n      tag_559\n        /* \"#utility.yul\":14923:14927   */\n      dup2\n        /* \"#utility.yul\":14797:14928   */\n      tag_412\n      jump\t// in\n    tag_559:\n        /* \"#utility.yul\":14789:14928   */\n      swap1\n      pop\n        /* \"#utility.yul\":14516:14935   */\n      swap2\n      swap1\n      pop\n      jump\t// out\n        /* \"#utility.yul\":14941:15383   */\n    tag_256:\n        /* \"#utility.yul\":15090:15094   */\n      0x00\n        /* \"#utility.yul\":15128:15130   */\n      0x60\n        /* \"#utility.yul\":15117:15126   */\n      dup3\n        /* \"#utility.yul\":15113:15131   */\n      add\n        /* \"#utility.yul\":15105:15131   */\n      swap1\n      pop\n        /* \"#utility.yul\":15141:15212   */\n      tag_561\n        /* \"#utility.yul\":15209:15210   */\n      0x00\n        /* \"#utility.yul\":15198:15207   */\n      dup4\n        /* \"#utility.yul\":15194:15211   */\n      add\n        /* \"#utility.yul\":15185:15191   */\n      dup7\n        /* \"#utility.yul\":15141:15212   */\n      tag_393\n      jump\t// in\n    tag_561:\n        /* \"#utility.yul\":15222:15294   */\n      tag_562\n        /* \"#utility.yul\":15290:15292   */\n      0x20\n        /* \"#utility.yul\":15279:15288   */\n      dup4\n        /* \"#utility.yul\":15275:15293   */\n      add\n        /* \"#utility.yul\":15266:15272   */\n      dup6\n        /* \"#utility.yul\":15222:15294   */\n      tag_393\n      jump\t// in\n    tag_562:\n        /* \"#utility.yul\":15304:15376   */\n      tag_563\n        /* \"#utility.yul\":15372:15374   */\n      0x40\n        /* \"#utility.yul\":15361:15370   */\n      dup4\n        /* \"#utility.yul\":15357:15375   */\n      add\n        /* \"#utility.yul\":15348:15354   */\n      dup5\n        /* \"#utility.yul\":15304:15376   */\n      tag_393\n      jump\t// in\n    tag_563:\n        /* \"#utility.yul\":14941:15383   */\n      swap5\n      swap4\n      pop\n      pop\n      pop\n      pop\n      jump\t// out\n        /* \"#utility.yul\":15389:15556   */\n    tag_413:\n        /* \"#utility.yul\":15529:15548   */\n      0x4163636f756e74206973206c6f636b6564000000000000000000000000000000\n        /* \"#utility.yul\":15525:15526   */\n      0x00\n        /* \"#utility.yul\":15517:15523   */\n      dup3\n        /* \"#utility.yul\":15513:15527   */\n      add\n        /* \"#utility.yul\":15506:15549   */\n      mstore\n        /* \"#utility.yul\":15389:15556   */\n      pop\n      jump\t// out\n        /* \"#utility.yul\":15562:15928   */\n    tag_414:\n        /* \"#utility.yul\":15704:15707   */\n      0x00\n        /* \"#utility.yul\":15725:15792   */\n      tag_566\n        /* \"#utility.yul\":15789:15791   */\n      0x11\n        /* \"#utility.yul\":15784:15787   */\n      dup4\n        /* \"#utility.yul\":15725:15792   */\n      tag_377\n      jump\t// in\n    tag_566:\n        /* \"#utility.yul\":15718:15792   */\n      swap2\n      pop\n        /* \"#utility.yul\":15801:15894   */\n      tag_567\n        /* \"#utility.yul\":15890:15893   */\n      dup3\n        /* \"#utility.yul\":15801:15894   */\n      tag_413\n      jump\t// in\n    tag_567:\n        /* \"#utility.yul\":15919:15921   */\n      0x20\n        /* \"#utility.yul\":15914:15917   */\n      dup3\n        /* \"#utility.yul\":15910:15922   */\n      add\n        /* \"#utility.yul\":15903:15922   */\n      swap1\n      pop\n        /* \"#utility.yul\":15562:15928   */\n      swap2\n      swap1\n      pop\n      jump\t// out\n        /* \"#utility.yul\":15934:16353   */\n    tag_281:\n        /* \"#utility.yul\":16100:16104   */\n      0x00\n        /* \"#utility.yul\":16138:16140   */\n      0x20\n        /* \"#utility.yul\":16127:16136   */\n      dup3\n        /* \"#utility.yul\":16123:16141   */\n      add\n        /* \"#utility.yul\":16115:16141   */\n      swap1\n      pop\n        /* \"#utility.yul\":16187:16196   */\n      dup2\n        /* \"#utility.yul\":16181:16185   */\n      dup2\n        /* \"#utility.yul\":16177:16197   */\n      sub\n        /* \"#utility.yul\":16173:16174   */\n      0x00\n        /* \"#utility.yul\":16162:16171   */\n      dup4\n        /* \"#utility.yul\":16158:16175   */\n      add\n        /* \"#utility.yul\":16151:16198   */\n      mstore\n        /* \"#utility.yul\":16215:16346   */\n      tag_569\n        /* \"#utility.yul\":16341:16345   */\n      dup2\n        /* \"#utility.yul\":16215:16346   */\n      tag_414\n      jump\t// in\n    tag_569:\n        /* \"#utility.yul\":16207:16346   */\n      swap1\n      pop\n        /* \"#utility.yul\":15934:16353   */\n      swap2\n      swap1\n      pop\n      jump\t// out\n        /* \"#utility.yul\":16359:16592   */\n    tag_415:\n        /* \"#utility.yul\":16499:16533   */\n      0x5472616e7366657273206172652063757272656e746c79206c6f636b6564206f\n        /* \"#utility.yul\":16495:16496   */\n      0x00\n        /* \"#utility.yul\":16487:16493   */\n      dup3\n        /* \"#utility.yul\":16483:16497   */\n      add\n        /* \"#utility.yul\":16476:16534   */\n      mstore\n        /* \"#utility.yul\":16568:16584   */\n      0x72206e6f7420616c6c6f7765642e000000000000000000000000000000000000\n        /* \"#utility.yul\":16563:16565   */\n      0x20\n        /* \"#utility.yul\":16555:16561   */\n      dup3\n        /* \"#utility.yul\":16551:16566   */\n      add\n        /* \"#utility.yul\":16544:16585   */\n      mstore\n        /* \"#utility.yul\":16359:16592   */\n      pop\n      jump\t// out\n        /* \"#utility.yul\":16598:16964   */\n    tag_416:\n        /* \"#utility.yul\":16740:16743   */\n      0x00\n        /* \"#utility.yul\":16761:16828   */\n      tag_572\n        /* \"#utility.yul\":16825:16827   */\n      0x2e\n        /* \"#utility.yul\":16820:16823   */\n      dup4\n        /* \"#utility.yul\":16761:16828   */\n      tag_377\n      jump\t// in\n    tag_572:\n        /* \"#utility.yul\":16754:16828   */\n      swap2\n      pop\n        /* \"#utility.yul\":16837:16930   */\n      tag_573\n        /* \"#utility.yul\":16926:16929   */\n      dup3\n        /* \"#utility.yul\":16837:16930   */\n      tag_415\n      jump\t// in\n    tag_573:\n        /* \"#utility.yul\":16955:16957   */\n      0x40\n        /* \"#utility.yul\":16950:16953   */\n      dup3\n        /* \"#utility.yul\":16946:16958   */\n      add\n        /* \"#utility.yul\":16939:16958   */\n      swap1\n      pop\n        /* \"#utility.yul\":16598:16964   */\n      swap2\n      swap1\n      pop\n      jump\t// out\n        /* \"#utility.yul\":16970:17389   */\n    tag_296:\n        /* \"#utility.yul\":17136:17140   */\n      0x00\n        /* \"#utility.yul\":17174:17176   */\n      0x20\n        /* \"#utility.yul\":17163:17172   */\n      dup3\n        /* \"#utility.yul\":17159:17177   */\n      add\n        /* \"#utility.yul\":17151:17177   */\n      swap1\n      pop\n        /* \"#utility.yul\":17223:17232   */\n      dup2\n        /* \"#utility.yul\":17217:17221   */\n      dup2\n        /* \"#utility.yul\":17213:17233   */\n      sub\n        /* \"#utility.yul\":17209:17210   */\n      0x00\n        /* \"#utility.yul\":17198:17207   */\n      dup4\n        /* \"#utility.yul\":17194:17211   */\n      add\n        /* \"#utility.yul\":17187:17234   */\n      mstore\n        /* \"#utility.yul\":17251:17382   */\n      tag_575\n        /* \"#utility.yul\":17377:17381   */\n      dup2\n        /* \"#utility.yul\":17251:17382   */\n      tag_416\n      jump\t// in\n    tag_575:\n        /* \"#utility.yul\":17243:17382   */\n      swap1\n      pop\n        /* \"#utility.yul\":16970:17389   */\n      swap2\n      swap1\n      pop\n      jump\t// out\n        /* \"#utility.yul\":17395:17805   */\n    tag_343:\n        /* \"#utility.yul\":17435:17442   */\n      0x00\n        /* \"#utility.yul\":17458:17478   */\n      tag_577\n        /* \"#utility.yul\":17476:17477   */\n      dup3\n        /* \"#utility.yul\":17458:17478   */\n      tag_388\n      jump\t// in\n    tag_577:\n        /* \"#utility.yul\":17453:17478   */\n      swap2\n      pop\n        /* \"#utility.yul\":17492:17512   */\n      tag_578\n        /* \"#utility.yul\":17510:17511   */\n      dup4\n        /* \"#utility.yul\":17492:17512   */\n      tag_388\n      jump\t// in\n    tag_578:\n        /* \"#utility.yul\":17487:17512   */\n      swap3\n      pop\n        /* \"#utility.yul\":17547:17548   */\n      dup3\n        /* \"#utility.yul\":17544:17545   */\n      dup3\n        /* \"#utility.yul\":17540:17549   */\n      mul\n        /* \"#utility.yul\":17569:17599   */\n      tag_579\n        /* \"#utility.yul\":17587:17598   */\n      dup2\n        /* \"#utility.yul\":17569:17599   */\n      tag_388\n      jump\t// in\n    tag_579:\n        /* \"#utility.yul\":17558:17599   */\n      swap2\n      pop\n        /* \"#utility.yul\":17748:17749   */\n      dup3\n        /* \"#utility.yul\":17739:17746   */\n      dup3\n        /* \"#utility.yul\":17735:17750   */\n      div\n        /* \"#utility.yul\":17732:17733   */\n      dup5\n        /* \"#utility.yul\":17729:17751   */\n      eq\n        /* \"#utility.yul\":17709:17710   */\n      dup4\n        /* \"#utility.yul\":17702:17711   */\n      iszero\n        /* \"#utility.yul\":17682:17765   */\n      or\n        /* \"#utility.yul\":17659:17798   */\n      tag_580\n      jumpi\n        /* \"#utility.yul\":17778:17796   */\n      tag_581\n      tag_398\n      jump\t// in\n    tag_581:\n        /* \"#utility.yul\":17659:17798   */\n    tag_580:\n        /* \"#utility.yul\":17443:17805   */\n      pop\n        /* \"#utility.yul\":17395:17805   */\n      swap3\n      swap2\n      pop\n      pop\n      jump\t// out\n        /* \"#utility.yul\":17811:17991   */\n    tag_417:\n        /* \"#utility.yul\":17859:17936   */\n      0x4e487b7100000000000000000000000000000000000000000000000000000000\n        /* \"#utility.yul\":17856:17857   */\n      0x00\n        /* \"#utility.yul\":17849:17937   */\n      mstore\n        /* \"#utility.yul\":17956:17960   */\n      0x12\n        /* \"#utility.yul\":17953:17954   */\n      0x04\n        /* \"#utility.yul\":17946:17961   */\n      mstore\n        /* \"#utility.yul\":17980:17984   */\n      0x24\n        /* \"#utility.yul\":17977:17978   */\n      0x00\n        /* \"#utility.yul\":17970:17985   */\n      revert\n        /* \"#utility.yul\":17997:18182   */\n    tag_345:\n        /* \"#utility.yul\":18037:18038   */\n      0x00\n        /* \"#utility.yul\":18054:18074   */\n      tag_584\n        /* \"#utility.yul\":18072:18073   */\n      dup3\n        /* \"#utility.yul\":18054:18074   */\n      tag_388\n      jump\t// in\n    tag_584:\n        /* \"#utility.yul\":18049:18074   */\n      swap2\n      pop\n        /* \"#utility.yul\":18088:18108   */\n      tag_585\n        /* \"#utility.yul\":18106:18107   */\n      dup4\n        /* \"#utility.yul\":18088:18108   */\n      tag_388\n      jump\t// in\n    tag_585:\n        /* \"#utility.yul\":18083:18108   */\n      swap3\n      pop\n        /* \"#utility.yul\":18127:18128   */\n      dup3\n        /* \"#utility.yul\":18117:18152   */\n      tag_586\n      jumpi\n        /* \"#utility.yul\":18132:18150   */\n      tag_587\n      tag_417\n      jump\t// in\n    tag_587:\n        /* \"#utility.yul\":18117:18152   */\n    tag_586:\n        /* \"#utility.yul\":18174:18175   */\n      dup3\n        /* \"#utility.yul\":18171:18172   */\n      dup3\n        /* \"#utility.yul\":18167:18176   */\n      div\n        /* \"#utility.yul\":18162:18176   */\n      swap1\n      pop\n        /* \"#utility.yul\":17997:18182   */\n      swap3\n      swap2\n      pop\n      pop\n      jump\t// out\n        /* \"#utility.yul\":18188:18358   */\n    tag_418:\n        /* \"#utility.yul\":18328:18350   */\n      0x5061757361626c653a206e6f7420706175736564000000000000000000000000\n        /* \"#utility.yul\":18324:18325   */\n      0x00\n        /* \"#utility.yul\":18316:18322   */\n      dup3\n        /* \"#utility.yul\":18312:18326   */\n      add\n        /* \"#utility.yul\":18305:18351   */\n      mstore\n        /* \"#utility.yul\":18188:18358   */\n      pop\n      jump\t// out\n        /* \"#utility.yul\":18364:18730   */\n    tag_419:\n        /* \"#utility.yul\":18506:18509   */\n      0x00\n        /* \"#utility.yul\":18527:18594   */\n      tag_590\n        /* \"#utility.yul\":18591:18593   */\n      0x14\n        /* \"#utility.yul\":18586:18589   */\n      dup4\n        /* \"#utility.yul\":18527:18594   */\n      tag_377\n      jump\t// in\n    tag_590:\n        /* \"#utility.yul\":18520:18594   */\n      swap2\n      pop\n        /* \"#utility.yul\":18603:18696   */\n      tag_591\n        /* \"#utility.yul\":18692:18695   */\n      dup3\n        /* \"#utility.yul\":18603:18696   */\n      tag_418\n      jump\t// in\n    tag_591:\n        /* \"#utility.yul\":18721:18723   */\n      0x20\n        /* \"#utility.yul\":18716:18719   */\n      dup3\n        /* \"#utility.yul\":18712:18724   */\n      add\n        /* \"#utility.yul\":18705:18724   */\n      swap1\n      pop\n        /* \"#utility.yul\":18364:18730   */\n      swap2\n      swap1\n      pop\n      jump\t// out\n        /* \"#utility.yul\":18736:19155   */\n    tag_360:\n        /* \"#utility.yul\":18902:18906   */\n      0x00\n        /* \"#utility.yul\":18940:18942   */\n      0x20\n        /* \"#utility.yul\":18929:18938   */\n      dup3\n        /* \"#utility.yul\":18925:18943   */\n      add\n        /* \"#utility.yul\":18917:18943   */\n      swap1\n      pop\n        /* \"#utility.yul\":18989:18998   */\n      dup2\n        /* \"#utility.yul\":18983:18987   */\n      dup2\n        /* \"#utility.yul\":18979:18999   */\n      sub\n        /* \"#utility.yul\":18975:18976   */\n      0x00\n        /* \"#utility.yul\":18964:18973   */\n      dup4\n        /* \"#utility.yul\":18960:18977   */\n      add\n        /* \"#utility.yul\":18953:19000   */\n      mstore\n        /* \"#utility.yul\":19017:19148   */\n      tag_593\n        /* \"#utility.yul\":19143:19147   */\n      dup2\n        /* \"#utility.yul\":19017:19148   */\n      tag_419\n      jump\t// in\n    tag_593:\n        /* \"#utility.yul\":19009:19148   */\n      swap1\n      pop\n        /* \"#utility.yul\":18736:19155   */\n      swap2\n      swap1\n      pop\n      jump\t// out\n        /* \"#utility.yul\":19161:19603   */\n    tag_367:\n        /* \"#utility.yul\":19310:19314   */\n      0x00\n        /* \"#utility.yul\":19348:19350   */\n      0x60\n        /* \"#utility.yul\":19337:19346   */\n      dup3\n        /* \"#utility.yul\":19333:19351   */\n      add\n        /* \"#utility.yul\":19325:19351   */\n      swap1\n      pop\n        /* \"#utility.yul\":19361:19432   */\n      tag_595\n        /* \"#utility.yul\":19429:19430   */\n      0x00\n        /* \"#utility.yul\":19418:19427   */\n      dup4\n        /* \"#utility.yul\":19414:19431   */\n      add\n        /* \"#utility.yul\":19405:19411   */\n      dup7\n        /* \"#utility.yul\":19361:19432   */\n      tag_396\n      jump\t// in\n    tag_595:\n        /* \"#utility.yul\":19442:19514   */\n      tag_596\n        /* \"#utility.yul\":19510:19512   */\n      0x20\n        /* \"#utility.yul\":19499:19508   */\n      dup4\n        /* \"#utility.yul\":19495:19513   */\n      add\n        /* \"#utility.yul\":19486:19492   */\n      dup6\n        /* \"#utility.yul\":19442:19514   */\n      tag_393\n      jump\t// in\n    tag_596:\n        /* \"#utility.yul\":19524:19596   */\n      tag_597\n        /* \"#utility.yul\":19592:19594   */\n      0x40\n        /* \"#utility.yul\":19581:19590   */\n      dup4\n        /* \"#utility.yul\":19577:19595   */\n      add\n        /* \"#utility.yul\":19568:19574   */\n      dup5\n        /* \"#utility.yul\":19524:19596   */\n      tag_393\n      jump\t// in\n    tag_597:\n        /* \"#utility.yul\":19161:19603   */\n      swap5\n      swap4\n      pop\n      pop\n      pop\n      pop\n      jump\t// out\n        /* \"#utility.yul\":19609:19775   */\n    tag_420:\n        /* \"#utility.yul\":19749:19767   */\n      0x5061757361626c653a2070617573656400000000000000000000000000000000\n        /* \"#utility.yul\":19745:19746   */\n      0x00\n        /* \"#utility.yul\":19737:19743   */\n      dup3\n        /* \"#utility.yul\":19733:19747   */\n      add\n        /* \"#utility.yul\":19726:19768   */\n      mstore\n        /* \"#utility.yul\":19609:19775   */\n      pop\n      jump\t// out\n        /* \"#utility.yul\":19781:20147   */\n    tag_421:\n        /* \"#utility.yul\":19923:19926   */\n      0x00\n        /* \"#utility.yul\":19944:20011   */\n      tag_600\n        /* \"#utility.yul\":20008:20010   */\n      0x10\n        /* \"#utility.yul\":20003:20006   */\n      dup4\n        /* \"#utility.yul\":19944:20011   */\n      tag_377\n      jump\t// in\n    tag_600:\n        /* \"#utility.yul\":19937:20011   */\n      swap2\n      pop\n        /* \"#utility.yul\":20020:20113   */\n      tag_601\n        /* \"#utility.yul\":20109:20112   */\n      dup3\n        /* \"#utility.yul\":20020:20113   */\n      tag_420\n      jump\t// in\n    tag_601:\n        /* \"#utility.yul\":20138:20140   */\n      0x20\n        /* \"#utility.yul\":20133:20136   */\n      dup3\n        /* \"#utility.yul\":20129:20141   */\n      add\n        /* \"#utility.yul\":20122:20141   */\n      swap1\n      pop\n        /* \"#utility.yul\":19781:20147   */\n      swap2\n      swap1\n      pop\n      jump\t// out\n        /* \"#utility.yul\":20153:20572   */\n    tag_375:\n        /* \"#utility.yul\":20319:20323   */\n      0x00\n        /* \"#utility.yul\":20357:20359   */\n      0x20\n        /* \"#utility.yul\":20346:20355   */\n      dup3\n        /* \"#utility.yul\":20342:20360   */\n      add\n        /* \"#utility.yul\":20334:20360   */\n      swap1\n      pop\n        /* \"#utility.yul\":20406:20415   */\n      dup2\n        /* \"#utility.yul\":20400:20404   */\n      dup2\n        /* \"#utility.yul\":20396:20416   */\n      sub\n        /* \"#utility.yul\":20392:20393   */\n      0x00\n        /* \"#utility.yul\":20381:20390   */\n      dup4\n        /* \"#utility.yul\":20377:20394   */\n      add\n        /* \"#utility.yul\":20370:20417   */\n      mstore\n        /* \"#utility.yul\":20434:20565   */\n      tag_603\n        /* \"#utility.yul\":20560:20564   */\n      dup2\n        /* \"#utility.yul\":20434:20565   */\n      tag_421\n      jump\t// in\n    tag_603:\n        /* \"#utility.yul\":20426:20565   */\n      swap1\n      pop\n        /* \"#utility.yul\":20153:20572   */\n      swap2\n      swap1\n      pop\n      jump\t// out\n\n    auxdata: 0xa26469706673582212207e7129fe67a98043d1693fc69c06e1687552ed3669d03e6a545c16a176b3fd3c64736f6c63430008140033\n}\n",
				"bytecode": {
					"linkReferences": {},
					"object": "6080604052600160085560016009555f600a553480156200001e575f80fd5b506040516200343f3803806200343f8339818101604052810190620000449190620006f1565b8084848160039081620000589190620009cc565b5080600490816200006a9190620009cc565b5050505f73ffffffffffffffffffffffffffffffffffffffff168173ffffffffffffffffffffffffffffffffffffffff1603620000e0575f6040517f1e4fbdf7000000000000000000000000000000000000000000000000000000008152600401620000d7919062000ac1565b60405180910390fd5b620000f1816200015a60201b60201c565b505f600560146101000a81548160ff0219169083151502179055505f6200011d6200021d60201b60201c565b60ff16600a6200012e919062000c59565b836200013b919062000ca9565b90506200014f82826200022560201b60201c565b505050505062000d94565b5f60055f9054906101000a900473ffffffffffffffffffffffffffffffffffffffff1690508160055f6101000a81548173ffffffffffffffffffffffffffffffffffffffff021916908373ffffffffffffffffffffffffffffffffffffffff1602179055508173ffffffffffffffffffffffffffffffffffffffff168173ffffffffffffffffffffffffffffffffffffffff167f8be0079c531659141344cd1fd0a4f28419497f9722a3daafe3b4186f6b6457e060405160405180910390a35050565b5f6012905090565b5f73ffffffffffffffffffffffffffffffffffffffff168273ffffffffffffffffffffffffffffffffffffffff160362000298575f6040517fec442f050000000000000000000000000000000000000000000000000000000081526004016200028f919062000ac1565b60405180910390fd5b620002ab5f8383620002af60201b60201c565b5050565b5f73ffffffffffffffffffffffffffffffffffffffff168373ffffffffffffffffffffffffffffffffffffffff160362000303578060025f828254620002f6919062000cf3565b92505081905550620003d4565b5f805f8573ffffffffffffffffffffffffffffffffffffffff1673ffffffffffffffffffffffffffffffffffffffff1681526020019081526020015f20549050818110156200038f578381836040517fe450d38c000000000000000000000000000000000000000000000000000000008152600401620003869392919062000d3e565b60405180910390fd5b8181035f808673ffffffffffffffffffffffffffffffffffffffff1673ffffffffffffffffffffffffffffffffffffffff1681526020019081526020015f2081905550505b5f73ffffffffffffffffffffffffffffffffffffffff168273ffffffffffffffffffffffffffffffffffffffff16036200041d578060025f828254039250508190555062000467565b805f808473ffffffffffffffffffffffffffffffffffffffff1673ffffffffffffffffffffffffffffffffffffffff1681526020019081526020015f205f82825401925050819055505b8173ffffffffffffffffffffffffffffffffffffffff168373ffffffffffffffffffffffffffffffffffffffff167fddf252ad1be2c89b69c2b068fc378daa952ba7f163c4a11628f55a4df523b3ef83604051620004c6919062000d79565b60405180910390a3505050565b5f604051905090565b5f80fd5b5f80fd5b5f80fd5b5f80fd5b5f601f19601f8301169050919050565b7f4e487b71000000000000000000000000000000000000000000000000000000005f52604160045260245ffd5b6200053482620004ec565b810181811067ffffffffffffffff82111715620005565762000555620004fc565b5b80604052505050565b5f6200056a620004d3565b905062000578828262000529565b919050565b5f67ffffffffffffffff8211156200059a5762000599620004fc565b5b620005a582620004ec565b9050602081019050919050565b5f5b83811015620005d1578082015181840152602081019050620005b4565b5f8484015250505050565b5f620005f2620005ec846200057d565b6200055f565b905082815260208101848484011115620006115762000610620004e8565b5b6200061e848285620005b2565b509392505050565b5f82601f8301126200063d576200063c620004e4565b5b81516200064f848260208601620005dc565b91505092915050565b5f819050919050565b6200066c8162000658565b811462000677575f80fd5b50565b5f815190506200068a8162000661565b92915050565b5f73ffffffffffffffffffffffffffffffffffffffff82169050919050565b5f620006bb8262000690565b9050919050565b620006cd81620006af565b8114620006d8575f80fd5b50565b5f81519050620006eb81620006c2565b92915050565b5f805f80608085870312156200070c576200070b620004dc565b5b5f85015167ffffffffffffffff8111156200072c576200072b620004e0565b5b6200073a8782880162000626565b945050602085015167ffffffffffffffff8111156200075e576200075d620004e0565b5b6200076c8782880162000626565b93505060406200077f878288016200067a565b92505060606200079287828801620006db565b91505092959194509250565b5f81519050919050565b7f4e487b71000000000000000000000000000000000000000000000000000000005f52602260045260245ffd5b5f6002820490506001821680620007ed57607f821691505b602082108103620008035762000802620007a8565b5b50919050565b5f819050815f5260205f209050919050565b5f6020601f8301049050919050565b5f82821b905092915050565b5f60088302620008677fffffffffffffffffffffffffffffffffffffffffffffffffffffffffffffffff826200082a565b6200087386836200082a565b95508019841693508086168417925050509392505050565b5f819050919050565b5f620008b4620008ae620008a88462000658565b6200088b565b62000658565b9050919050565b5f819050919050565b620008cf8362000894565b620008e7620008de82620008bb565b84845462000836565b825550505050565b5f90565b620008fd620008ef565b6200090a818484620008c4565b505050565b5b818110156200093157620009255f82620008f3565b60018101905062000910565b5050565b601f82111562000980576200094a8162000809565b62000955846200081b565b8101602085101562000965578190505b6200097d62000974856200081b565b8301826200090f565b50505b505050565b5f82821c905092915050565b5f620009a25f198460080262000985565b1980831691505092915050565b5f620009bc838362000991565b9150826002028217905092915050565b620009d7826200079e565b67ffffffffffffffff811115620009f357620009f2620004fc565b5b620009ff8254620007d5565b62000a0c82828562000935565b5f60209050601f83116001811462000a42575f841562000a2d578287015190505b62000a398582620009af565b86555062000aa8565b601f19841662000a528662000809565b5f5b8281101562000a7b5784890151825560018201915060208501945060208101905062000a54565b8683101562000a9b578489015162000a97601f89168262000991565b8355505b6001600288020188555050505b505050505050565b62000abb81620006af565b82525050565b5f60208201905062000ad65f83018462000ab0565b92915050565b7f4e487b71000000000000000000000000000000000000000000000000000000005f52601160045260245ffd5b5f8160011c9050919050565b5f808291508390505b600185111562000b665780860481111562000b3e5762000b3d62000adc565b5b600185161562000b4e5780820291505b808102905062000b5e8562000b09565b945062000b1e565b94509492505050565b5f8262000b80576001905062000c52565b8162000b8f575f905062000c52565b816001811462000ba8576002811462000bb35762000be9565b600191505062000c52565b60ff84111562000bc85762000bc762000adc565b5b8360020a91508482111562000be25762000be162000adc565b5b5062000c52565b5060208310610133831016604e8410600b841016171562000c235782820a90508381111562000c1d5762000c1c62000adc565b5b62000c52565b62000c32848484600162000b15565b9250905081840481111562000c4c5762000c4b62000adc565b5b81810290505b9392505050565b5f62000c658262000658565b915062000c728362000658565b925062000ca17fffffffffffffffffffffffffffffffffffffffffffffffffffffffffffffffff848462000b6f565b905092915050565b5f62000cb58262000658565b915062000cc28362000658565b925082820262000cd28162000658565b9150828204841483151762000cec5762000ceb62000adc565b5b5092915050565b5f62000cff8262000658565b915062000d0c8362000658565b925082820190508082111562000d275762000d2662000adc565b5b92915050565b62000d388162000658565b82525050565b5f60608201905062000d535f83018662000ab0565b62000d62602083018562000d2d565b62000d71604083018462000d2d565b949350505050565b5f60208201905062000d8e5f83018462000d2d565b92915050565b61269d8062000da25f395ff3fe608060405234801561000f575f80fd5b506004361061018c575f3560e01c8063715018a6116100dc57806395d89b4111610095578063daf824281161006f578063daf8242814610436578063dd62ed3e14610454578063f0122bf614610484578063f2fde38b1461048e5761018c565b806395d89b41146103cc578063a9059cbb146103ea578063ac6183231461041a5761018c565b8063715018a61461033257806374eb9b681461033c5780637f81f0b91461036c5780638456cb59146103885780638da5cb5b14610392578063905295e3146103b05761018c565b80633f4ba83a1161014957806347a64f441161012357806347a64f44146102aa5780635c975abb146102c657806366da7827146102e457806370a08231146103025761018c565b80633f4ba83a1461026857806340c10f191461027257806342966c681461028e5761018c565b806306fdde0314610190578063095ea7b3146101ae57806318160ddd146101de5780631f68f20a146101fc57806323b872dd1461021a578063313ce5671461024a575b5f80fd5b6101986104aa565b6040516101a59190611cd1565b60405180910390f35b6101c860048036038101906101c39190611d82565b61053a565b6040516101d59190611dda565b60405180910390f35b6101e661055c565b6040516101f39190611e02565b60405180910390f35b610204610565565b6040516102119190611e02565b60405180910390f35b610234600480360381019061022f9190611e1b565b61056b565b6040516102419190611dda565b60405180910390f35b6102526105a1565b60405161025f9190611e86565b60405180910390f35b6102706105a9565b005b61028c60048036038101906102879190611d82565b610602565b005b6102a860048036038101906102a39190611e9f565b610660565b005b6102c460048036038101906102bf9190611eca565b6106bd565b005b6102ce61083e565b6040516102db9190611dda565b60405180910390f35b6102ec610854565b6040516102f99190611e02565b60405180910390f35b61031c60048036038101906103179190611eca565b61085a565b6040516103299190611e02565b60405180910390f35b61033a61089f565b005b61035660048036038101906103519190611eca565b6108b2565b6040516103639190611dda565b60405180910390f35b61038660048036038101906103819190611e9f565b610904565b005b610390610a0c565b005b61039a610a66565b6040516103a79190611f04565b60405180910390f35b6103ca60048036038101906103c59190611eca565b610a8e565b005b6103d4610c0c565b6040516103e19190611cd1565b60405180910390f35b61040460048036038101906103ff9190611d82565b610c9c565b6040516104119190611dda565b60405180910390f35b610434600480360381019061042f9190611f1d565b610cb2565b005b61043e610e31565b60405161044b9190611e02565b60405180910390f35b61046e60048036038101906104699190611f6d565b610e37565b60405161047b9190611e02565b60405180910390f35b61048c610eb9565b005b6104a860048036038101906104a39190611eca565b610fb5565b005b6060600380546104b990611fd8565b80601f01602080910402602001604051908101604052809291908181526020018280546104e590611fd8565b80156105305780601f1061050757610100808354040283529160200191610530565b820191905f5260205f20905b81548152906001019060200180831161051357829003601f168201915b5050505050905090565b5f80610544611039565b9050610551818585611040565b600191505092915050565b5f600254905090565b60085481565b5f610577848484611052565b6105968433846105878833610e37565b6105919190612035565b611040565b600190509392505050565b5f6012905090565b6105b1611376565b6105b961083e565b6105f8576040517f08c379a00000000000000000000000000000000000000000000000000000000081526004016105ef906120b2565b60405180910390fd5b6106006113fd565b565b61060a611376565b61061261083e565b15610652576040517f08c379a00000000000000000000000000000000000000000000000000000000081526004016106499061211a565b60405180910390fd5b61065c828261145f565b5050565b610668611376565b61067061083e565b156106b0576040517f08c379a00000000000000000000000000000000000000000000000000000000081526004016106a79061211a565b60405180910390fd5b6106ba33826114de565b50565b6106c5611376565b6106cd61083e565b1561070d576040517f08c379a00000000000000000000000000000000000000000000000000000000081526004016107049061211a565b60405180910390fd5b60075f8273ffffffffffffffffffffffffffffffffffffffff1673ffffffffffffffffffffffffffffffffffffffff1681526020019081526020015f205f9054906101000a900460ff1615610797576040517f08c379a000000000000000000000000000000000000000000000000000000000815260040161078e90612182565b60405180910390fd5b600160075f8373ffffffffffffffffffffffffffffffffffffffff1673ffffffffffffffffffffffffffffffffffffffff1681526020019081526020015f205f6101000a81548160ff0219169083151502179055508073ffffffffffffffffffffffffffffffffffffffff167f57ff75194cb51b1933c5aa7b9fb0db5a6e5f2e168467c29076eaa30a38fbb52b60016040516108339190611dda565b60405180910390a250565b5f600560149054906101000a900460ff16905090565b600a5481565b5f805f8373ffffffffffffffffffffffffffffffffffffffff1673ffffffffffffffffffffffffffffffffffffffff1681526020019081526020015f20549050919050565b6108a7611376565b6108b05f61155d565b565b5f60075f8373ffffffffffffffffffffffffffffffffffffffff1673ffffffffffffffffffffffffffffffffffffffff1681526020019081526020015f205f9054906101000a900460ff169050919050565b61090c610a66565b73ffffffffffffffffffffffffffffffffffffffff163373ffffffffffffffffffffffffffffffffffffffff16148061097057503073ffffffffffffffffffffffffffffffffffffffff163373ffffffffffffffffffffffffffffffffffffffff16145b6109af576040517f08c379a00000000000000000000000000000000000000000000000000000000081526004016109a6906121ea565b60405180910390fd5b6109b761083e565b156109f7576040517f08c379a00000000000000000000000000000000000000000000000000000000081526004016109ee9061211a565b60405180910390fd5b8042610a039190612208565b60068190555050565b610a14611376565b610a1c61083e565b15610a5c576040517f08c379a0000000000000000000000000000000000000000000000000000000008152600401610a539061211a565b60405180910390fd5b610a64611620565b565b5f60055f9054906101000a900473ffffffffffffffffffffffffffffffffffffffff16905090565b610a96611376565b610a9e61083e565b15610ade576040517f08c379a0000000000000000000000000000000000000000000000000000000008152600401610ad59061211a565b60405180910390fd5b60075f8273ffffffffffffffffffffffffffffffffffffffff1673ffffffffffffffffffffffffffffffffffffffff1681526020019081526020015f205f9054906101000a900460ff16610b67576040517f08c379a0000000000000000000000000000000000000000000000000000000008152600401610b5e90612285565b60405180910390fd5b5f60075f8373ffffffffffffffffffffffffffffffffffffffff1673ffffffffffffffffffffffffffffffffffffffff1681526020019081526020015f205f6101000a81548160ff0219169083151502179055508073ffffffffffffffffffffffffffffffffffffffff167f57ff75194cb51b1933c5aa7b9fb0db5a6e5f2e168467c29076eaa30a38fbb52b5f604051610c019190611dda565b60405180910390a250565b606060048054610c1b90611fd8565b80601f0160208091040260200160405190810160405280929190818152602001828054610c4790611fd8565b8015610c925780601f10610c6957610100808354040283529160200191610c92565b820191905f5260205f20905b815481529060010190602001808311610c7557829003601f168201915b5050505050905090565b5f610ca8338484611052565b6001905092915050565b610cba611376565b610cc261083e565b15610d02576040517f08c379a0000000000000000000000000000000000000000000000000000000008152600401610cf99061211a565b60405180910390fd5b825f8111610d45576040517f08c379a0000000000000000000000000000000000000000000000000000000008152600401610d3c906122ed565b60405180910390fd5b825f8111610d88576040517f08c379a0000000000000000000000000000000000000000000000000000000008152600401610d7f906122ed565b60405180910390fd5b825f8110158015610d9a575060648111155b610dd9576040517f08c379a0000000000000000000000000000000000000000000000000000000008152600401610dd09061237b565b60405180910390fd5b856008819055508460098190555083600a819055507f3e57aa3e8d0e68b0f330004600cbb803a94a7b63b8f8c99bd79f40fc9a309c3f868686604051610e2193929190612399565b60405180910390a1505050505050565b60095481565b5f60015f8473ffffffffffffffffffffffffffffffffffffffff1673ffffffffffffffffffffffffffffffffffffffff1681526020019081526020015f205f8373ffffffffffffffffffffffffffffffffffffffff1673ffffffffffffffffffffffffffffffffffffffff1681526020019081526020015f2054905092915050565b610ec1610a66565b73ffffffffffffffffffffffffffffffffffffffff163373ffffffffffffffffffffffffffffffffffffffff161480610f2557503073ffffffffffffffffffffffffffffffffffffffff163373ffffffffffffffffffffffffffffffffffffffff16145b610f64576040517f08c379a0000000000000000000000000000000000000000000000000000000008152600401610f5b906121ea565b60405180910390fd5b610f6c61083e565b15610fac576040517f08c379a0000000000000000000000000000000000000000000000000000000008152600401610fa39061211a565b60405180910390fd5b5f600681905550565b610fbd611376565b5f73ffffffffffffffffffffffffffffffffffffffff168173ffffffffffffffffffffffffffffffffffffffff160361102d575f6040517f1e4fbdf70000000000000000000000000000000000000000000000000000000081526004016110249190611f04565b60405180910390fd5b6110368161155d565b50565b5f33905090565b61104d8383836001611683565b505050565b3360075f8273ffffffffffffffffffffffffffffffffffffffff1673ffffffffffffffffffffffffffffffffffffffff1681526020019081526020015f205f9054906101000a900460ff16156110dd576040517f08c379a00000000000000000000000000000000000000000000000000000000081526004016110d490612418565b60405180910390fd5b8260075f8273ffffffffffffffffffffffffffffffffffffffff1673ffffffffffffffffffffffffffffffffffffffff1681526020019081526020015f205f9054906101000a900460ff1615611168576040517f08c379a000000000000000000000000000000000000000000000000000000000815260040161115f90612418565b60405180910390fd5b61117061083e565b156111b0576040517f08c379a00000000000000000000000000000000000000000000000000000000081526004016111a79061211a565b60405180910390fd5b8484426006541115806111f557508173ffffffffffffffffffffffffffffffffffffffff166111dd610a66565b73ffffffffffffffffffffffffffffffffffffffff16145b8061123257508073ffffffffffffffffffffffffffffffffffffffff1661121a610a66565b73ffffffffffffffffffffffffffffffffffffffff16145b611271576040517f08c379a0000000000000000000000000000000000000000000000000000000008152600401611268906124a6565b60405180910390fd5b5f61127b86611852565b90505f818761128a9190612035565b90506112978989836118ab565b6112a189836114de565b8773ffffffffffffffffffffffffffffffffffffffff168973ffffffffffffffffffffffffffffffffffffffff167fddf252ad1be2c89b69c2b068fc378daa952ba7f163c4a11628f55a4df523b3ef836040516112fe9190611e02565b60405180910390a35f73ffffffffffffffffffffffffffffffffffffffff168973ffffffffffffffffffffffffffffffffffffffff167fddf252ad1be2c89b69c2b068fc378daa952ba7f163c4a11628f55a4df523b3ef846040516113639190611e02565b60405180910390a3505050505050505050565b61137e611039565b73ffffffffffffffffffffffffffffffffffffffff1661139c610a66565b73ffffffffffffffffffffffffffffffffffffffff16146113fb576113bf611039565b6040517f118cdaa70000000000000000000000000000000000000000000000000000000081526004016113f29190611f04565b60405180910390fd5b565b61140561199b565b5f600560146101000a81548160ff0219169083151502179055507f5db9ee0a495bf2e6ff9c91a7834c1ba4fdd244a5e8aa4e537bd38aeae4b073aa611448611039565b6040516114559190611f04565b60405180910390a1565b5f73ffffffffffffffffffffffffffffffffffffffff168273ffffffffffffffffffffffffffffffffffffffff16036114cf575f6040517fec442f050000000000000000000000000000000000000000000000000000000081526004016114c69190611f04565b60405180910390fd5b6114da5f83836119e4565b5050565b5f73ffffffffffffffffffffffffffffffffffffffff168273ffffffffffffffffffffffffffffffffffffffff160361154e575f6040517f96c6fd1e0000000000000000000000000000000000000000000000000000000081526004016115459190611f04565b60405180910390fd5b611559825f836119e4565b5050565b5f60055f9054906101000a900473ffffffffffffffffffffffffffffffffffffffff1690508160055f6101000a81548173ffffffffffffffffffffffffffffffffffffffff021916908373ffffffffffffffffffffffffffffffffffffffff1602179055508173ffffffffffffffffffffffffffffffffffffffff168173ffffffffffffffffffffffffffffffffffffffff167f8be0079c531659141344cd1fd0a4f28419497f9722a3daafe3b4186f6b6457e060405160405180910390a35050565b611628611bfd565b6001600560146101000a81548160ff0219169083151502179055507f62e78cea01bee320cd4e420270b5ea74000d11b0c9f74754ebdbfc544b05a25861166c611039565b6040516116799190611f04565b60405180910390a1565b5f73ffffffffffffffffffffffffffffffffffffffff168473ffffffffffffffffffffffffffffffffffffffff16036116f3575f6040517fe602df050000000000000000000000000000000000000000000000000000000081526004016116ea9190611f04565b60405180910390fd5b5f73ffffffffffffffffffffffffffffffffffffffff168373ffffffffffffffffffffffffffffffffffffffff1603611763575f6040517f94280d6200000000000000000000000000000000000000000000000000000000815260040161175a9190611f04565b60405180910390fd5b8160015f8673ffffffffffffffffffffffffffffffffffffffff1673ffffffffffffffffffffffffffffffffffffffff1681526020019081526020015f205f8573ffffffffffffffffffffffffffffffffffffffff1673ffffffffffffffffffffffffffffffffffffffff1681526020019081526020015f2081905550801561184c578273ffffffffffffffffffffffffffffffffffffffff168473ffffffffffffffffffffffffffffffffffffffff167f8c5be1e5ebec7d5bd14f71427d1e84f3dd0314c0f7b2291e5b200ac8c7c3b925846040516118439190611e02565b60405180910390a35b50505050565b5f806064600a5460095461186691906124c4565b6118709190612532565b600161187c9190612208565b6008546118899190612532565b90506064818461189991906124c4565b6118a39190612532565b915050919050565b5f73ffffffffffffffffffffffffffffffffffffffff168373ffffffffffffffffffffffffffffffffffffffff160361191b575f6040517f96c6fd1e0000000000000000000000000000000000000000000000000000000081526004016119129190611f04565b60405180910390fd5b5f73ffffffffffffffffffffffffffffffffffffffff168273ffffffffffffffffffffffffffffffffffffffff160361198b575f6040517fec442f050000000000000000000000000000000000000000000000000000000081526004016119829190611f04565b60405180910390fd5b6119968383836119e4565b505050565b6119a361083e565b6119e2576040517f08c379a00000000000000000000000000000000000000000000000000000000081526004016119d9906125ac565b60405180910390fd5b565b5f73ffffffffffffffffffffffffffffffffffffffff168373ffffffffffffffffffffffffffffffffffffffff1603611a34578060025f828254611a289190612208565b92505081905550611b02565b5f805f8573ffffffffffffffffffffffffffffffffffffffff1673ffffffffffffffffffffffffffffffffffffffff1681526020019081526020015f2054905081811015611abd578381836040517fe450d38c000000000000000000000000000000000000000000000000000000008152600401611ab4939291906125ca565b60405180910390fd5b8181035f808673ffffffffffffffffffffffffffffffffffffffff1673ffffffffffffffffffffffffffffffffffffffff1681526020019081526020015f2081905550505b5f73ffffffffffffffffffffffffffffffffffffffff168273ffffffffffffffffffffffffffffffffffffffff1603611b49578060025f8282540392505081905550611b93565b805f808473ffffffffffffffffffffffffffffffffffffffff1673ffffffffffffffffffffffffffffffffffffffff1681526020019081526020015f205f82825401925050819055505b8173ffffffffffffffffffffffffffffffffffffffff168373ffffffffffffffffffffffffffffffffffffffff167fddf252ad1be2c89b69c2b068fc378daa952ba7f163c4a11628f55a4df523b3ef83604051611bf09190611e02565b60405180910390a3505050565b611c0561083e565b15611c45576040517f08c379a0000000000000000000000000000000000000000000000000000000008152600401611c3c90612649565b60405180910390fd5b565b5f81519050919050565b5f82825260208201905092915050565b5f5b83811015611c7e578082015181840152602081019050611c63565b5f8484015250505050565b5f601f19601f8301169050919050565b5f611ca382611c47565b611cad8185611c51565b9350611cbd818560208601611c61565b611cc681611c89565b840191505092915050565b5f6020820190508181035f830152611ce98184611c99565b905092915050565b5f80fd5b5f73ffffffffffffffffffffffffffffffffffffffff82169050919050565b5f611d1e82611cf5565b9050919050565b611d2e81611d14565b8114611d38575f80fd5b50565b5f81359050611d4981611d25565b92915050565b5f819050919050565b611d6181611d4f565b8114611d6b575f80fd5b50565b5f81359050611d7c81611d58565b92915050565b5f8060408385031215611d9857611d97611cf1565b5b5f611da585828601611d3b565b9250506020611db685828601611d6e565b9150509250929050565b5f8115159050919050565b611dd481611dc0565b82525050565b5f602082019050611ded5f830184611dcb565b92915050565b611dfc81611d4f565b82525050565b5f602082019050611e155f830184611df3565b92915050565b5f805f60608486031215611e3257611e31611cf1565b5b5f611e3f86828701611d3b565b9350506020611e5086828701611d3b565b9250506040611e6186828701611d6e565b9150509250925092565b5f60ff82169050919050565b611e8081611e6b565b82525050565b5f602082019050611e995f830184611e77565b92915050565b5f60208284031215611eb457611eb3611cf1565b5b5f611ec184828501611d6e565b91505092915050565b5f60208284031215611edf57611ede611cf1565b5b5f611eec84828501611d3b565b91505092915050565b611efe81611d14565b82525050565b5f602082019050611f175f830184611ef5565b92915050565b5f805f60608486031215611f3457611f33611cf1565b5b5f611f4186828701611d6e565b9350506020611f5286828701611d6e565b9250506040611f6386828701611d6e565b9150509250925092565b5f8060408385031215611f8357611f82611cf1565b5b5f611f9085828601611d3b565b9250506020611fa185828601611d3b565b9150509250929050565b7f4e487b71000000000000000000000000000000000000000000000000000000005f52602260045260245ffd5b5f6002820490506001821680611fef57607f821691505b60208210810361200257612001611fab565b5b50919050565b7f4e487b71000000000000000000000000000000000000000000000000000000005f52601160045260245ffd5b5f61203f82611d4f565b915061204a83611d4f565b925082820390508181111561206257612061612008565b5b92915050565b7f436f6e7472616374206973206e6f7420706175736564000000000000000000005f82015250565b5f61209c601683611c51565b91506120a782612068565b602082019050919050565b5f6020820190508181035f8301526120c981612090565b9050919050565b7f436f6e74726163742069732070617573656400000000000000000000000000005f82015250565b5f612104601283611c51565b915061210f826120d0565b602082019050919050565b5f6020820190508181035f830152612131816120f8565b9050919050565b7f4163636f756e7420697320616c7265616479206c6f636b6564000000000000005f82015250565b5f61216c601983611c51565b915061217782612138565b602082019050919050565b5f6020820190508181035f83015261219981612160565b9050919050565b7f4e6f7420617574686f72697a65640000000000000000000000000000000000005f82015250565b5f6121d4600e83611c51565b91506121df826121a0565b602082019050919050565b5f6020820190508181035f830152612201816121c8565b9050919050565b5f61221282611d4f565b915061221d83611d4f565b925082820190508082111561223557612234612008565b5b92915050565b7f4163636f756e74206973206e6f74206c6f636b656400000000000000000000005f82015250565b5f61226f601583611c51565b915061227a8261223b565b602082019050919050565b5f6020820190508181035f83015261229c81612263565b9050919050565b7f56616c7565206d75737420626520706f736974697665000000000000000000005f82015250565b5f6122d7601683611c51565b91506122e2826122a3565b602082019050919050565b5f6020820190508181035f830152612304816122cb565b9050919050565b7f50657263656e74616765206d757374206265206265747765656e203020616e645f8201527f2031303000000000000000000000000000000000000000000000000000000000602082015250565b5f612365602483611c51565b91506123708261230b565b604082019050919050565b5f6020820190508181035f83015261239281612359565b9050919050565b5f6060820190506123ac5f830186611df3565b6123b96020830185611df3565b6123c66040830184611df3565b949350505050565b7f4163636f756e74206973206c6f636b65640000000000000000000000000000005f82015250565b5f612402601183611c51565b915061240d826123ce565b602082019050919050565b5f6020820190508181035f83015261242f816123f6565b9050919050565b7f5472616e7366657273206172652063757272656e746c79206c6f636b6564206f5f8201527f72206e6f7420616c6c6f7765642e000000000000000000000000000000000000602082015250565b5f612490602e83611c51565b915061249b82612436565b604082019050919050565b5f6020820190508181035f8301526124bd81612484565b9050919050565b5f6124ce82611d4f565b91506124d983611d4f565b92508282026124e781611d4f565b915082820484148315176124fe576124fd612008565b5b5092915050565b7f4e487b71000000000000000000000000000000000000000000000000000000005f52601260045260245ffd5b5f61253c82611d4f565b915061254783611d4f565b92508261255757612556612505565b5b828204905092915050565b7f5061757361626c653a206e6f74207061757365640000000000000000000000005f82015250565b5f612596601483611c51565b91506125a182612562565b602082019050919050565b5f6020820190508181035f8301526125c38161258a565b9050919050565b5f6060820190506125dd5f830186611ef5565b6125ea6020830185611df3565b6125f76040830184611df3565b949350505050565b7f5061757361626c653a20706175736564000000000000000000000000000000005f82015250565b5f612633601083611c51565b915061263e826125ff565b602082019050919050565b5f6020820190508181035f83015261266081612627565b905091905056fea26469706673582212207e7129fe67a98043d1693fc69c06e1687552ed3669d03e6a545c16a176b3fd3c64736f6c63430008140033",
					"opcodes": "PUSH1 0x80 PUSH1 0x40 MSTORE PUSH1 0x1 PUSH1 0x8 SSTORE PUSH1 0x1 PUSH1 0x9 SSTORE PUSH0 PUSH1 0xA SSTORE CALLVALUE DUP1 ISZERO PUSH3 0x1E JUMPI PUSH0 DUP1 REVERT JUMPDEST POP PUSH1 0x40 MLOAD PUSH3 0x343F CODESIZE SUB DUP1 PUSH3 0x343F DUP4 CODECOPY DUP2 DUP2 ADD PUSH1 0x40 MSTORE DUP2 ADD SWAP1 PUSH3 0x44 SWAP2 SWAP1 PUSH3 0x6F1 JUMP JUMPDEST DUP1 DUP5 DUP5 DUP2 PUSH1 0x3 SWAP1 DUP2 PUSH3 0x58 SWAP2 SWAP1 PUSH3 0x9CC JUMP JUMPDEST POP DUP1 PUSH1 0x4 SWAP1 DUP2 PUSH3 0x6A SWAP2 SWAP1 PUSH3 0x9CC JUMP JUMPDEST POP POP POP PUSH0 PUSH20 0xFFFFFFFFFFFFFFFFFFFFFFFFFFFFFFFFFFFFFFFF AND DUP2 PUSH20 0xFFFFFFFFFFFFFFFFFFFFFFFFFFFFFFFFFFFFFFFF AND SUB PUSH3 0xE0 JUMPI PUSH0 PUSH1 0x40 MLOAD PUSH32 0x1E4FBDF700000000000000000000000000000000000000000000000000000000 DUP2 MSTORE PUSH1 0x4 ADD PUSH3 0xD7 SWAP2 SWAP1 PUSH3 0xAC1 JUMP JUMPDEST PUSH1 0x40 MLOAD DUP1 SWAP2 SUB SWAP1 REVERT JUMPDEST PUSH3 0xF1 DUP2 PUSH3 0x15A PUSH1 0x20 SHL PUSH1 0x20 SHR JUMP JUMPDEST POP PUSH0 PUSH1 0x5 PUSH1 0x14 PUSH2 0x100 EXP DUP2 SLOAD DUP2 PUSH1 0xFF MUL NOT AND SWAP1 DUP4 ISZERO ISZERO MUL OR SWAP1 SSTORE POP PUSH0 PUSH3 0x11D PUSH3 0x21D PUSH1 0x20 SHL PUSH1 0x20 SHR JUMP JUMPDEST PUSH1 0xFF AND PUSH1 0xA PUSH3 0x12E SWAP2 SWAP1 PUSH3 0xC59 JUMP JUMPDEST DUP4 PUSH3 0x13B SWAP2 SWAP1 PUSH3 0xCA9 JUMP JUMPDEST SWAP1 POP PUSH3 0x14F DUP3 DUP3 PUSH3 0x225 PUSH1 0x20 SHL PUSH1 0x20 SHR JUMP JUMPDEST POP POP POP POP POP PUSH3 0xD94 JUMP JUMPDEST PUSH0 PUSH1 0x5 PUSH0 SWAP1 SLOAD SWAP1 PUSH2 0x100 EXP SWAP1 DIV PUSH20 0xFFFFFFFFFFFFFFFFFFFFFFFFFFFFFFFFFFFFFFFF AND SWAP1 POP DUP2 PUSH1 0x5 PUSH0 PUSH2 0x100 EXP DUP2 SLOAD DUP2 PUSH20 0xFFFFFFFFFFFFFFFFFFFFFFFFFFFFFFFFFFFFFFFF MUL NOT AND SWAP1 DUP4 PUSH20 0xFFFFFFFFFFFFFFFFFFFFFFFFFFFFFFFFFFFFFFFF AND MUL OR SWAP1 SSTORE POP DUP2 PUSH20 0xFFFFFFFFFFFFFFFFFFFFFFFFFFFFFFFFFFFFFFFF AND DUP2 PUSH20 0xFFFFFFFFFFFFFFFFFFFFFFFFFFFFFFFFFFFFFFFF AND PUSH32 0x8BE0079C531659141344CD1FD0A4F28419497F9722A3DAAFE3B4186F6B6457E0 PUSH1 0x40 MLOAD PUSH1 0x40 MLOAD DUP1 SWAP2 SUB SWAP1 LOG3 POP POP JUMP JUMPDEST PUSH0 PUSH1 0x12 SWAP1 POP SWAP1 JUMP JUMPDEST PUSH0 PUSH20 0xFFFFFFFFFFFFFFFFFFFFFFFFFFFFFFFFFFFFFFFF AND DUP3 PUSH20 0xFFFFFFFFFFFFFFFFFFFFFFFFFFFFFFFFFFFFFFFF AND SUB PUSH3 0x298 JUMPI PUSH0 PUSH1 0x40 MLOAD PUSH32 0xEC442F0500000000000000000000000000000000000000000000000000000000 DUP2 MSTORE PUSH1 0x4 ADD PUSH3 0x28F SWAP2 SWAP1 PUSH3 0xAC1 JUMP JUMPDEST PUSH1 0x40 MLOAD DUP1 SWAP2 SUB SWAP1 REVERT JUMPDEST PUSH3 0x2AB PUSH0 DUP4 DUP4 PUSH3 0x2AF PUSH1 0x20 SHL PUSH1 0x20 SHR JUMP JUMPDEST POP POP JUMP JUMPDEST PUSH0 PUSH20 0xFFFFFFFFFFFFFFFFFFFFFFFFFFFFFFFFFFFFFFFF AND DUP4 PUSH20 0xFFFFFFFFFFFFFFFFFFFFFFFFFFFFFFFFFFFFFFFF AND SUB PUSH3 0x303 JUMPI DUP1 PUSH1 0x2 PUSH0 DUP3 DUP3 SLOAD PUSH3 0x2F6 SWAP2 SWAP1 PUSH3 0xCF3 JUMP JUMPDEST SWAP3 POP POP DUP2 SWAP1 SSTORE POP PUSH3 0x3D4 JUMP JUMPDEST PUSH0 DUP1 PUSH0 DUP6 PUSH20 0xFFFFFFFFFFFFFFFFFFFFFFFFFFFFFFFFFFFFFFFF AND PUSH20 0xFFFFFFFFFFFFFFFFFFFFFFFFFFFFFFFFFFFFFFFF AND DUP2 MSTORE PUSH1 0x20 ADD SWAP1 DUP2 MSTORE PUSH1 0x20 ADD PUSH0 KECCAK256 SLOAD SWAP1 POP DUP2 DUP2 LT ISZERO PUSH3 0x38F JUMPI DUP4 DUP2 DUP4 PUSH1 0x40 MLOAD PUSH32 0xE450D38C00000000000000000000000000000000000000000000000000000000 DUP2 MSTORE PUSH1 0x4 ADD PUSH3 0x386 SWAP4 SWAP3 SWAP2 SWAP1 PUSH3 0xD3E JUMP JUMPDEST PUSH1 0x40 MLOAD DUP1 SWAP2 SUB SWAP1 REVERT JUMPDEST DUP2 DUP2 SUB PUSH0 DUP1 DUP7 PUSH20 0xFFFFFFFFFFFFFFFFFFFFFFFFFFFFFFFFFFFFFFFF AND PUSH20 0xFFFFFFFFFFFFFFFFFFFFFFFFFFFFFFFFFFFFFFFF AND DUP2 MSTORE PUSH1 0x20 ADD SWAP1 DUP2 MSTORE PUSH1 0x20 ADD PUSH0 KECCAK256 DUP2 SWAP1 SSTORE POP POP JUMPDEST PUSH0 PUSH20 0xFFFFFFFFFFFFFFFFFFFFFFFFFFFFFFFFFFFFFFFF AND DUP3 PUSH20 0xFFFFFFFFFFFFFFFFFFFFFFFFFFFFFFFFFFFFFFFF AND SUB PUSH3 0x41D JUMPI DUP1 PUSH1 0x2 PUSH0 DUP3 DUP3 SLOAD SUB SWAP3 POP POP DUP2 SWAP1 SSTORE POP PUSH3 0x467 JUMP JUMPDEST DUP1 PUSH0 DUP1 DUP5 PUSH20 0xFFFFFFFFFFFFFFFFFFFFFFFFFFFFFFFFFFFFFFFF AND PUSH20 0xFFFFFFFFFFFFFFFFFFFFFFFFFFFFFFFFFFFFFFFF AND DUP2 MSTORE PUSH1 0x20 ADD SWAP1 DUP2 MSTORE PUSH1 0x20 ADD PUSH0 KECCAK256 PUSH0 DUP3 DUP3 SLOAD ADD SWAP3 POP POP DUP2 SWAP1 SSTORE POP JUMPDEST DUP2 PUSH20 0xFFFFFFFFFFFFFFFFFFFFFFFFFFFFFFFFFFFFFFFF AND DUP4 PUSH20 0xFFFFFFFFFFFFFFFFFFFFFFFFFFFFFFFFFFFFFFFF AND PUSH32 0xDDF252AD1BE2C89B69C2B068FC378DAA952BA7F163C4A11628F55A4DF523B3EF DUP4 PUSH1 0x40 MLOAD PUSH3 0x4C6 SWAP2 SWAP1 PUSH3 0xD79 JUMP JUMPDEST PUSH1 0x40 MLOAD DUP1 SWAP2 SUB SWAP1 LOG3 POP POP POP JUMP JUMPDEST PUSH0 PUSH1 0x40 MLOAD SWAP1 POP SWAP1 JUMP JUMPDEST PUSH0 DUP1 REVERT JUMPDEST PUSH0 DUP1 REVERT JUMPDEST PUSH0 DUP1 REVERT JUMPDEST PUSH0 DUP1 REVERT JUMPDEST PUSH0 PUSH1 0x1F NOT PUSH1 0x1F DUP4 ADD AND SWAP1 POP SWAP2 SWAP1 POP JUMP JUMPDEST PUSH32 0x4E487B7100000000000000000000000000000000000000000000000000000000 PUSH0 MSTORE PUSH1 0x41 PUSH1 0x4 MSTORE PUSH1 0x24 PUSH0 REVERT JUMPDEST PUSH3 0x534 DUP3 PUSH3 0x4EC JUMP JUMPDEST DUP2 ADD DUP2 DUP2 LT PUSH8 0xFFFFFFFFFFFFFFFF DUP3 GT OR ISZERO PUSH3 0x556 JUMPI PUSH3 0x555 PUSH3 0x4FC JUMP JUMPDEST JUMPDEST DUP1 PUSH1 0x40 MSTORE POP POP POP JUMP JUMPDEST PUSH0 PUSH3 0x56A PUSH3 0x4D3 JUMP JUMPDEST SWAP1 POP PUSH3 0x578 DUP3 DUP3 PUSH3 0x529 JUMP JUMPDEST SWAP2 SWAP1 POP JUMP JUMPDEST PUSH0 PUSH8 0xFFFFFFFFFFFFFFFF DUP3 GT ISZERO PUSH3 0x59A JUMPI PUSH3 0x599 PUSH3 0x4FC JUMP JUMPDEST JUMPDEST PUSH3 0x5A5 DUP3 PUSH3 0x4EC JUMP JUMPDEST SWAP1 POP PUSH1 0x20 DUP2 ADD SWAP1 POP SWAP2 SWAP1 POP JUMP JUMPDEST PUSH0 JUMPDEST DUP4 DUP2 LT ISZERO PUSH3 0x5D1 JUMPI DUP1 DUP3 ADD MLOAD DUP2 DUP5 ADD MSTORE PUSH1 0x20 DUP2 ADD SWAP1 POP PUSH3 0x5B4 JUMP JUMPDEST PUSH0 DUP5 DUP5 ADD MSTORE POP POP POP POP JUMP JUMPDEST PUSH0 PUSH3 0x5F2 PUSH3 0x5EC DUP5 PUSH3 0x57D JUMP JUMPDEST PUSH3 0x55F JUMP JUMPDEST SWAP1 POP DUP3 DUP2 MSTORE PUSH1 0x20 DUP2 ADD DUP5 DUP5 DUP5 ADD GT ISZERO PUSH3 0x611 JUMPI PUSH3 0x610 PUSH3 0x4E8 JUMP JUMPDEST JUMPDEST PUSH3 0x61E DUP5 DUP3 DUP6 PUSH3 0x5B2 JUMP JUMPDEST POP SWAP4 SWAP3 POP POP POP JUMP JUMPDEST PUSH0 DUP3 PUSH1 0x1F DUP4 ADD SLT PUSH3 0x63D JUMPI PUSH3 0x63C PUSH3 0x4E4 JUMP JUMPDEST JUMPDEST DUP2 MLOAD PUSH3 0x64F DUP5 DUP3 PUSH1 0x20 DUP7 ADD PUSH3 0x5DC JUMP JUMPDEST SWAP2 POP POP SWAP3 SWAP2 POP POP JUMP JUMPDEST PUSH0 DUP2 SWAP1 POP SWAP2 SWAP1 POP JUMP JUMPDEST PUSH3 0x66C DUP2 PUSH3 0x658 JUMP JUMPDEST DUP2 EQ PUSH3 0x677 JUMPI PUSH0 DUP1 REVERT JUMPDEST POP JUMP JUMPDEST PUSH0 DUP2 MLOAD SWAP1 POP PUSH3 0x68A DUP2 PUSH3 0x661 JUMP JUMPDEST SWAP3 SWAP2 POP POP JUMP JUMPDEST PUSH0 PUSH20 0xFFFFFFFFFFFFFFFFFFFFFFFFFFFFFFFFFFFFFFFF DUP3 AND SWAP1 POP SWAP2 SWAP1 POP JUMP JUMPDEST PUSH0 PUSH3 0x6BB DUP3 PUSH3 0x690 JUMP JUMPDEST SWAP1 POP SWAP2 SWAP1 POP JUMP JUMPDEST PUSH3 0x6CD DUP2 PUSH3 0x6AF JUMP JUMPDEST DUP2 EQ PUSH3 0x6D8 JUMPI PUSH0 DUP1 REVERT JUMPDEST POP JUMP JUMPDEST PUSH0 DUP2 MLOAD SWAP1 POP PUSH3 0x6EB DUP2 PUSH3 0x6C2 JUMP JUMPDEST SWAP3 SWAP2 POP POP JUMP JUMPDEST PUSH0 DUP1 PUSH0 DUP1 PUSH1 0x80 DUP6 DUP8 SUB SLT ISZERO PUSH3 0x70C JUMPI PUSH3 0x70B PUSH3 0x4DC JUMP JUMPDEST JUMPDEST PUSH0 DUP6 ADD MLOAD PUSH8 0xFFFFFFFFFFFFFFFF DUP2 GT ISZERO PUSH3 0x72C JUMPI PUSH3 0x72B PUSH3 0x4E0 JUMP JUMPDEST JUMPDEST PUSH3 0x73A DUP8 DUP3 DUP9 ADD PUSH3 0x626 JUMP JUMPDEST SWAP5 POP POP PUSH1 0x20 DUP6 ADD MLOAD PUSH8 0xFFFFFFFFFFFFFFFF DUP2 GT ISZERO PUSH3 0x75E JUMPI PUSH3 0x75D PUSH3 0x4E0 JUMP JUMPDEST JUMPDEST PUSH3 0x76C DUP8 DUP3 DUP9 ADD PUSH3 0x626 JUMP JUMPDEST SWAP4 POP POP PUSH1 0x40 PUSH3 0x77F DUP8 DUP3 DUP9 ADD PUSH3 0x67A JUMP JUMPDEST SWAP3 POP POP PUSH1 0x60 PUSH3 0x792 DUP8 DUP3 DUP9 ADD PUSH3 0x6DB JUMP JUMPDEST SWAP2 POP POP SWAP3 SWAP6 SWAP2 SWAP5 POP SWAP3 POP JUMP JUMPDEST PUSH0 DUP2 MLOAD SWAP1 POP SWAP2 SWAP1 POP JUMP JUMPDEST PUSH32 0x4E487B7100000000000000000000000000000000000000000000000000000000 PUSH0 MSTORE PUSH1 0x22 PUSH1 0x4 MSTORE PUSH1 0x24 PUSH0 REVERT JUMPDEST PUSH0 PUSH1 0x2 DUP3 DIV SWAP1 POP PUSH1 0x1 DUP3 AND DUP1 PUSH3 0x7ED JUMPI PUSH1 0x7F DUP3 AND SWAP2 POP JUMPDEST PUSH1 0x20 DUP3 LT DUP2 SUB PUSH3 0x803 JUMPI PUSH3 0x802 PUSH3 0x7A8 JUMP JUMPDEST JUMPDEST POP SWAP2 SWAP1 POP JUMP JUMPDEST PUSH0 DUP2 SWAP1 POP DUP2 PUSH0 MSTORE PUSH1 0x20 PUSH0 KECCAK256 SWAP1 POP SWAP2 SWAP1 POP JUMP JUMPDEST PUSH0 PUSH1 0x20 PUSH1 0x1F DUP4 ADD DIV SWAP1 POP SWAP2 SWAP1 POP JUMP JUMPDEST PUSH0 DUP3 DUP3 SHL SWAP1 POP SWAP3 SWAP2 POP POP JUMP JUMPDEST PUSH0 PUSH1 0x8 DUP4 MUL PUSH3 0x867 PUSH32 0xFFFFFFFFFFFFFFFFFFFFFFFFFFFFFFFFFFFFFFFFFFFFFFFFFFFFFFFFFFFFFFFF DUP3 PUSH3 0x82A JUMP JUMPDEST PUSH3 0x873 DUP7 DUP4 PUSH3 0x82A JUMP JUMPDEST SWAP6 POP DUP1 NOT DUP5 AND SWAP4 POP DUP1 DUP7 AND DUP5 OR SWAP3 POP POP POP SWAP4 SWAP3 POP POP POP JUMP JUMPDEST PUSH0 DUP2 SWAP1 POP SWAP2 SWAP1 POP JUMP JUMPDEST PUSH0 PUSH3 0x8B4 PUSH3 0x8AE PUSH3 0x8A8 DUP5 PUSH3 0x658 JUMP JUMPDEST PUSH3 0x88B JUMP JUMPDEST PUSH3 0x658 JUMP JUMPDEST SWAP1 POP SWAP2 SWAP1 POP JUMP JUMPDEST PUSH0 DUP2 SWAP1 POP SWAP2 SWAP1 POP JUMP JUMPDEST PUSH3 0x8CF DUP4 PUSH3 0x894 JUMP JUMPDEST PUSH3 0x8E7 PUSH3 0x8DE DUP3 PUSH3 0x8BB JUMP JUMPDEST DUP5 DUP5 SLOAD PUSH3 0x836 JUMP JUMPDEST DUP3 SSTORE POP POP POP POP JUMP JUMPDEST PUSH0 SWAP1 JUMP JUMPDEST PUSH3 0x8FD PUSH3 0x8EF JUMP JUMPDEST PUSH3 0x90A DUP2 DUP5 DUP5 PUSH3 0x8C4 JUMP JUMPDEST POP POP POP JUMP JUMPDEST JUMPDEST DUP2 DUP2 LT ISZERO PUSH3 0x931 JUMPI PUSH3 0x925 PUSH0 DUP3 PUSH3 0x8F3 JUMP JUMPDEST PUSH1 0x1 DUP2 ADD SWAP1 POP PUSH3 0x910 JUMP JUMPDEST POP POP JUMP JUMPDEST PUSH1 0x1F DUP3 GT ISZERO PUSH3 0x980 JUMPI PUSH3 0x94A DUP2 PUSH3 0x809 JUMP JUMPDEST PUSH3 0x955 DUP5 PUSH3 0x81B JUMP JUMPDEST DUP2 ADD PUSH1 0x20 DUP6 LT ISZERO PUSH3 0x965 JUMPI DUP2 SWAP1 POP JUMPDEST PUSH3 0x97D PUSH3 0x974 DUP6 PUSH3 0x81B JUMP JUMPDEST DUP4 ADD DUP3 PUSH3 0x90F JUMP JUMPDEST POP POP JUMPDEST POP POP POP JUMP JUMPDEST PUSH0 DUP3 DUP3 SHR SWAP1 POP SWAP3 SWAP2 POP POP JUMP JUMPDEST PUSH0 PUSH3 0x9A2 PUSH0 NOT DUP5 PUSH1 0x8 MUL PUSH3 0x985 JUMP JUMPDEST NOT DUP1 DUP4 AND SWAP2 POP POP SWAP3 SWAP2 POP POP JUMP JUMPDEST PUSH0 PUSH3 0x9BC DUP4 DUP4 PUSH3 0x991 JUMP JUMPDEST SWAP2 POP DUP3 PUSH1 0x2 MUL DUP3 OR SWAP1 POP SWAP3 SWAP2 POP POP JUMP JUMPDEST PUSH3 0x9D7 DUP3 PUSH3 0x79E JUMP JUMPDEST PUSH8 0xFFFFFFFFFFFFFFFF DUP2 GT ISZERO PUSH3 0x9F3 JUMPI PUSH3 0x9F2 PUSH3 0x4FC JUMP JUMPDEST JUMPDEST PUSH3 0x9FF DUP3 SLOAD PUSH3 0x7D5 JUMP JUMPDEST PUSH3 0xA0C DUP3 DUP3 DUP6 PUSH3 0x935 JUMP JUMPDEST PUSH0 PUSH1 0x20 SWAP1 POP PUSH1 0x1F DUP4 GT PUSH1 0x1 DUP2 EQ PUSH3 0xA42 JUMPI PUSH0 DUP5 ISZERO PUSH3 0xA2D JUMPI DUP3 DUP8 ADD MLOAD SWAP1 POP JUMPDEST PUSH3 0xA39 DUP6 DUP3 PUSH3 0x9AF JUMP JUMPDEST DUP7 SSTORE POP PUSH3 0xAA8 JUMP JUMPDEST PUSH1 0x1F NOT DUP5 AND PUSH3 0xA52 DUP7 PUSH3 0x809 JUMP JUMPDEST PUSH0 JUMPDEST DUP3 DUP2 LT ISZERO PUSH3 0xA7B JUMPI DUP5 DUP10 ADD MLOAD DUP3 SSTORE PUSH1 0x1 DUP3 ADD SWAP2 POP PUSH1 0x20 DUP6 ADD SWAP5 POP PUSH1 0x20 DUP2 ADD SWAP1 POP PUSH3 0xA54 JUMP JUMPDEST DUP7 DUP4 LT ISZERO PUSH3 0xA9B JUMPI DUP5 DUP10 ADD MLOAD PUSH3 0xA97 PUSH1 0x1F DUP10 AND DUP3 PUSH3 0x991 JUMP JUMPDEST DUP4 SSTORE POP JUMPDEST PUSH1 0x1 PUSH1 0x2 DUP9 MUL ADD DUP9 SSTORE POP POP POP JUMPDEST POP POP POP POP POP POP JUMP JUMPDEST PUSH3 0xABB DUP2 PUSH3 0x6AF JUMP JUMPDEST DUP3 MSTORE POP POP JUMP JUMPDEST PUSH0 PUSH1 0x20 DUP3 ADD SWAP1 POP PUSH3 0xAD6 PUSH0 DUP4 ADD DUP5 PUSH3 0xAB0 JUMP JUMPDEST SWAP3 SWAP2 POP POP JUMP JUMPDEST PUSH32 0x4E487B7100000000000000000000000000000000000000000000000000000000 PUSH0 MSTORE PUSH1 0x11 PUSH1 0x4 MSTORE PUSH1 0x24 PUSH0 REVERT JUMPDEST PUSH0 DUP2 PUSH1 0x1 SHR SWAP1 POP SWAP2 SWAP1 POP JUMP JUMPDEST PUSH0 DUP1 DUP3 SWAP2 POP DUP4 SWAP1 POP JUMPDEST PUSH1 0x1 DUP6 GT ISZERO PUSH3 0xB66 JUMPI DUP1 DUP7 DIV DUP2 GT ISZERO PUSH3 0xB3E JUMPI PUSH3 0xB3D PUSH3 0xADC JUMP JUMPDEST JUMPDEST PUSH1 0x1 DUP6 AND ISZERO PUSH3 0xB4E JUMPI DUP1 DUP3 MUL SWAP2 POP JUMPDEST DUP1 DUP2 MUL SWAP1 POP PUSH3 0xB5E DUP6 PUSH3 0xB09 JUMP JUMPDEST SWAP5 POP PUSH3 0xB1E JUMP JUMPDEST SWAP5 POP SWAP5 SWAP3 POP POP POP JUMP JUMPDEST PUSH0 DUP3 PUSH3 0xB80 JUMPI PUSH1 0x1 SWAP1 POP PUSH3 0xC52 JUMP JUMPDEST DUP2 PUSH3 0xB8F JUMPI PUSH0 SWAP1 POP PUSH3 0xC52 JUMP JUMPDEST DUP2 PUSH1 0x1 DUP2 EQ PUSH3 0xBA8 JUMPI PUSH1 0x2 DUP2 EQ PUSH3 0xBB3 JUMPI PUSH3 0xBE9 JUMP JUMPDEST PUSH1 0x1 SWAP2 POP POP PUSH3 0xC52 JUMP JUMPDEST PUSH1 0xFF DUP5 GT ISZERO PUSH3 0xBC8 JUMPI PUSH3 0xBC7 PUSH3 0xADC JUMP JUMPDEST JUMPDEST DUP4 PUSH1 0x2 EXP SWAP2 POP DUP5 DUP3 GT ISZERO PUSH3 0xBE2 JUMPI PUSH3 0xBE1 PUSH3 0xADC JUMP JUMPDEST JUMPDEST POP PUSH3 0xC52 JUMP JUMPDEST POP PUSH1 0x20 DUP4 LT PUSH2 0x133 DUP4 LT AND PUSH1 0x4E DUP5 LT PUSH1 0xB DUP5 LT AND OR ISZERO PUSH3 0xC23 JUMPI DUP3 DUP3 EXP SWAP1 POP DUP4 DUP2 GT ISZERO PUSH3 0xC1D JUMPI PUSH3 0xC1C PUSH3 0xADC JUMP JUMPDEST JUMPDEST PUSH3 0xC52 JUMP JUMPDEST PUSH3 0xC32 DUP5 DUP5 DUP5 PUSH1 0x1 PUSH3 0xB15 JUMP JUMPDEST SWAP3 POP SWAP1 POP DUP2 DUP5 DIV DUP2 GT ISZERO PUSH3 0xC4C JUMPI PUSH3 0xC4B PUSH3 0xADC JUMP JUMPDEST JUMPDEST DUP2 DUP2 MUL SWAP1 POP JUMPDEST SWAP4 SWAP3 POP POP POP JUMP JUMPDEST PUSH0 PUSH3 0xC65 DUP3 PUSH3 0x658 JUMP JUMPDEST SWAP2 POP PUSH3 0xC72 DUP4 PUSH3 0x658 JUMP JUMPDEST SWAP3 POP PUSH3 0xCA1 PUSH32 0xFFFFFFFFFFFFFFFFFFFFFFFFFFFFFFFFFFFFFFFFFFFFFFFFFFFFFFFFFFFFFFFF DUP5 DUP5 PUSH3 0xB6F JUMP JUMPDEST SWAP1 POP SWAP3 SWAP2 POP POP JUMP JUMPDEST PUSH0 PUSH3 0xCB5 DUP3 PUSH3 0x658 JUMP JUMPDEST SWAP2 POP PUSH3 0xCC2 DUP4 PUSH3 0x658 JUMP JUMPDEST SWAP3 POP DUP3 DUP3 MUL PUSH3 0xCD2 DUP2 PUSH3 0x658 JUMP JUMPDEST SWAP2 POP DUP3 DUP3 DIV DUP5 EQ DUP4 ISZERO OR PUSH3 0xCEC JUMPI PUSH3 0xCEB PUSH3 0xADC JUMP JUMPDEST JUMPDEST POP SWAP3 SWAP2 POP POP JUMP JUMPDEST PUSH0 PUSH3 0xCFF DUP3 PUSH3 0x658 JUMP JUMPDEST SWAP2 POP PUSH3 0xD0C DUP4 PUSH3 0x658 JUMP JUMPDEST SWAP3 POP DUP3 DUP3 ADD SWAP1 POP DUP1 DUP3 GT ISZERO PUSH3 0xD27 JUMPI PUSH3 0xD26 PUSH3 0xADC JUMP JUMPDEST JUMPDEST SWAP3 SWAP2 POP POP JUMP JUMPDEST PUSH3 0xD38 DUP2 PUSH3 0x658 JUMP JUMPDEST DUP3 MSTORE POP POP JUMP JUMPDEST PUSH0 PUSH1 0x60 DUP3 ADD SWAP1 POP PUSH3 0xD53 PUSH0 DUP4 ADD DUP7 PUSH3 0xAB0 JUMP JUMPDEST PUSH3 0xD62 PUSH1 0x20 DUP4 ADD DUP6 PUSH3 0xD2D JUMP JUMPDEST PUSH3 0xD71 PUSH1 0x40 DUP4 ADD DUP5 PUSH3 0xD2D JUMP JUMPDEST SWAP5 SWAP4 POP POP POP POP JUMP JUMPDEST PUSH0 PUSH1 0x20 DUP3 ADD SWAP1 POP PUSH3 0xD8E PUSH0 DUP4 ADD DUP5 PUSH3 0xD2D JUMP JUMPDEST SWAP3 SWAP2 POP POP JUMP JUMPDEST PUSH2 0x269D DUP1 PUSH3 0xDA2 PUSH0 CODECOPY PUSH0 RETURN INVALID PUSH1 0x80 PUSH1 0x40 MSTORE CALLVALUE DUP1 ISZERO PUSH2 0xF JUMPI PUSH0 DUP1 REVERT JUMPDEST POP PUSH1 0x4 CALLDATASIZE LT PUSH2 0x18C JUMPI PUSH0 CALLDATALOAD PUSH1 0xE0 SHR DUP1 PUSH4 0x715018A6 GT PUSH2 0xDC JUMPI DUP1 PUSH4 0x95D89B41 GT PUSH2 0x95 JUMPI DUP1 PUSH4 0xDAF82428 GT PUSH2 0x6F JUMPI DUP1 PUSH4 0xDAF82428 EQ PUSH2 0x436 JUMPI DUP1 PUSH4 0xDD62ED3E EQ PUSH2 0x454 JUMPI DUP1 PUSH4 0xF0122BF6 EQ PUSH2 0x484 JUMPI DUP1 PUSH4 0xF2FDE38B EQ PUSH2 0x48E JUMPI PUSH2 0x18C JUMP JUMPDEST DUP1 PUSH4 0x95D89B41 EQ PUSH2 0x3CC JUMPI DUP1 PUSH4 0xA9059CBB EQ PUSH2 0x3EA JUMPI DUP1 PUSH4 0xAC618323 EQ PUSH2 0x41A JUMPI PUSH2 0x18C JUMP JUMPDEST DUP1 PUSH4 0x715018A6 EQ PUSH2 0x332 JUMPI DUP1 PUSH4 0x74EB9B68 EQ PUSH2 0x33C JUMPI DUP1 PUSH4 0x7F81F0B9 EQ PUSH2 0x36C JUMPI DUP1 PUSH4 0x8456CB59 EQ PUSH2 0x388 JUMPI DUP1 PUSH4 0x8DA5CB5B EQ PUSH2 0x392 JUMPI DUP1 PUSH4 0x905295E3 EQ PUSH2 0x3B0 JUMPI PUSH2 0x18C JUMP JUMPDEST DUP1 PUSH4 0x3F4BA83A GT PUSH2 0x149 JUMPI DUP1 PUSH4 0x47A64F44 GT PUSH2 0x123 JUMPI DUP1 PUSH4 0x47A64F44 EQ PUSH2 0x2AA JUMPI DUP1 PUSH4 0x5C975ABB EQ PUSH2 0x2C6 JUMPI DUP1 PUSH4 0x66DA7827 EQ PUSH2 0x2E4 JUMPI DUP1 PUSH4 0x70A08231 EQ PUSH2 0x302 JUMPI PUSH2 0x18C JUMP JUMPDEST DUP1 PUSH4 0x3F4BA83A EQ PUSH2 0x268 JUMPI DUP1 PUSH4 0x40C10F19 EQ PUSH2 0x272 JUMPI DUP1 PUSH4 0x42966C68 EQ PUSH2 0x28E JUMPI PUSH2 0x18C JUMP JUMPDEST DUP1 PUSH4 0x6FDDE03 EQ PUSH2 0x190 JUMPI DUP1 PUSH4 0x95EA7B3 EQ PUSH2 0x1AE JUMPI DUP1 PUSH4 0x18160DDD EQ PUSH2 0x1DE JUMPI DUP1 PUSH4 0x1F68F20A EQ PUSH2 0x1FC JUMPI DUP1 PUSH4 0x23B872DD EQ PUSH2 0x21A JUMPI DUP1 PUSH4 0x313CE567 EQ PUSH2 0x24A JUMPI JUMPDEST PUSH0 DUP1 REVERT JUMPDEST PUSH2 0x198 PUSH2 0x4AA JUMP JUMPDEST PUSH1 0x40 MLOAD PUSH2 0x1A5 SWAP2 SWAP1 PUSH2 0x1CD1 JUMP JUMPDEST PUSH1 0x40 MLOAD DUP1 SWAP2 SUB SWAP1 RETURN JUMPDEST PUSH2 0x1C8 PUSH1 0x4 DUP1 CALLDATASIZE SUB DUP2 ADD SWAP1 PUSH2 0x1C3 SWAP2 SWAP1 PUSH2 0x1D82 JUMP JUMPDEST PUSH2 0x53A JUMP JUMPDEST PUSH1 0x40 MLOAD PUSH2 0x1D5 SWAP2 SWAP1 PUSH2 0x1DDA JUMP JUMPDEST PUSH1 0x40 MLOAD DUP1 SWAP2 SUB SWAP1 RETURN JUMPDEST PUSH2 0x1E6 PUSH2 0x55C JUMP JUMPDEST PUSH1 0x40 MLOAD PUSH2 0x1F3 SWAP2 SWAP1 PUSH2 0x1E02 JUMP JUMPDEST PUSH1 0x40 MLOAD DUP1 SWAP2 SUB SWAP1 RETURN JUMPDEST PUSH2 0x204 PUSH2 0x565 JUMP JUMPDEST PUSH1 0x40 MLOAD PUSH2 0x211 SWAP2 SWAP1 PUSH2 0x1E02 JUMP JUMPDEST PUSH1 0x40 MLOAD DUP1 SWAP2 SUB SWAP1 RETURN JUMPDEST PUSH2 0x234 PUSH1 0x4 DUP1 CALLDATASIZE SUB DUP2 ADD SWAP1 PUSH2 0x22F SWAP2 SWAP1 PUSH2 0x1E1B JUMP JUMPDEST PUSH2 0x56B JUMP JUMPDEST PUSH1 0x40 MLOAD PUSH2 0x241 SWAP2 SWAP1 PUSH2 0x1DDA JUMP JUMPDEST PUSH1 0x40 MLOAD DUP1 SWAP2 SUB SWAP1 RETURN JUMPDEST PUSH2 0x252 PUSH2 0x5A1 JUMP JUMPDEST PUSH1 0x40 MLOAD PUSH2 0x25F SWAP2 SWAP1 PUSH2 0x1E86 JUMP JUMPDEST PUSH1 0x40 MLOAD DUP1 SWAP2 SUB SWAP1 RETURN JUMPDEST PUSH2 0x270 PUSH2 0x5A9 JUMP JUMPDEST STOP JUMPDEST PUSH2 0x28C PUSH1 0x4 DUP1 CALLDATASIZE SUB DUP2 ADD SWAP1 PUSH2 0x287 SWAP2 SWAP1 PUSH2 0x1D82 JUMP JUMPDEST PUSH2 0x602 JUMP JUMPDEST STOP JUMPDEST PUSH2 0x2A8 PUSH1 0x4 DUP1 CALLDATASIZE SUB DUP2 ADD SWAP1 PUSH2 0x2A3 SWAP2 SWAP1 PUSH2 0x1E9F JUMP JUMPDEST PUSH2 0x660 JUMP JUMPDEST STOP JUMPDEST PUSH2 0x2C4 PUSH1 0x4 DUP1 CALLDATASIZE SUB DUP2 ADD SWAP1 PUSH2 0x2BF SWAP2 SWAP1 PUSH2 0x1ECA JUMP JUMPDEST PUSH2 0x6BD JUMP JUMPDEST STOP JUMPDEST PUSH2 0x2CE PUSH2 0x83E JUMP JUMPDEST PUSH1 0x40 MLOAD PUSH2 0x2DB SWAP2 SWAP1 PUSH2 0x1DDA JUMP JUMPDEST PUSH1 0x40 MLOAD DUP1 SWAP2 SUB SWAP1 RETURN JUMPDEST PUSH2 0x2EC PUSH2 0x854 JUMP JUMPDEST PUSH1 0x40 MLOAD PUSH2 0x2F9 SWAP2 SWAP1 PUSH2 0x1E02 JUMP JUMPDEST PUSH1 0x40 MLOAD DUP1 SWAP2 SUB SWAP1 RETURN JUMPDEST PUSH2 0x31C PUSH1 0x4 DUP1 CALLDATASIZE SUB DUP2 ADD SWAP1 PUSH2 0x317 SWAP2 SWAP1 PUSH2 0x1ECA JUMP JUMPDEST PUSH2 0x85A JUMP JUMPDEST PUSH1 0x40 MLOAD PUSH2 0x329 SWAP2 SWAP1 PUSH2 0x1E02 JUMP JUMPDEST PUSH1 0x40 MLOAD DUP1 SWAP2 SUB SWAP1 RETURN JUMPDEST PUSH2 0x33A PUSH2 0x89F JUMP JUMPDEST STOP JUMPDEST PUSH2 0x356 PUSH1 0x4 DUP1 CALLDATASIZE SUB DUP2 ADD SWAP1 PUSH2 0x351 SWAP2 SWAP1 PUSH2 0x1ECA JUMP JUMPDEST PUSH2 0x8B2 JUMP JUMPDEST PUSH1 0x40 MLOAD PUSH2 0x363 SWAP2 SWAP1 PUSH2 0x1DDA JUMP JUMPDEST PUSH1 0x40 MLOAD DUP1 SWAP2 SUB SWAP1 RETURN JUMPDEST PUSH2 0x386 PUSH1 0x4 DUP1 CALLDATASIZE SUB DUP2 ADD SWAP1 PUSH2 0x381 SWAP2 SWAP1 PUSH2 0x1E9F JUMP JUMPDEST PUSH2 0x904 JUMP JUMPDEST STOP JUMPDEST PUSH2 0x390 PUSH2 0xA0C JUMP JUMPDEST STOP JUMPDEST PUSH2 0x39A PUSH2 0xA66 JUMP JUMPDEST PUSH1 0x40 MLOAD PUSH2 0x3A7 SWAP2 SWAP1 PUSH2 0x1F04 JUMP JUMPDEST PUSH1 0x40 MLOAD DUP1 SWAP2 SUB SWAP1 RETURN JUMPDEST PUSH2 0x3CA PUSH1 0x4 DUP1 CALLDATASIZE SUB DUP2 ADD SWAP1 PUSH2 0x3C5 SWAP2 SWAP1 PUSH2 0x1ECA JUMP JUMPDEST PUSH2 0xA8E JUMP JUMPDEST STOP JUMPDEST PUSH2 0x3D4 PUSH2 0xC0C JUMP JUMPDEST PUSH1 0x40 MLOAD PUSH2 0x3E1 SWAP2 SWAP1 PUSH2 0x1CD1 JUMP JUMPDEST PUSH1 0x40 MLOAD DUP1 SWAP2 SUB SWAP1 RETURN JUMPDEST PUSH2 0x404 PUSH1 0x4 DUP1 CALLDATASIZE SUB DUP2 ADD SWAP1 PUSH2 0x3FF SWAP2 SWAP1 PUSH2 0x1D82 JUMP JUMPDEST PUSH2 0xC9C JUMP JUMPDEST PUSH1 0x40 MLOAD PUSH2 0x411 SWAP2 SWAP1 PUSH2 0x1DDA JUMP JUMPDEST PUSH1 0x40 MLOAD DUP1 SWAP2 SUB SWAP1 RETURN JUMPDEST PUSH2 0x434 PUSH1 0x4 DUP1 CALLDATASIZE SUB DUP2 ADD SWAP1 PUSH2 0x42F SWAP2 SWAP1 PUSH2 0x1F1D JUMP JUMPDEST PUSH2 0xCB2 JUMP JUMPDEST STOP JUMPDEST PUSH2 0x43E PUSH2 0xE31 JUMP JUMPDEST PUSH1 0x40 MLOAD PUSH2 0x44B SWAP2 SWAP1 PUSH2 0x1E02 JUMP JUMPDEST PUSH1 0x40 MLOAD DUP1 SWAP2 SUB SWAP1 RETURN JUMPDEST PUSH2 0x46E PUSH1 0x4 DUP1 CALLDATASIZE SUB DUP2 ADD SWAP1 PUSH2 0x469 SWAP2 SWAP1 PUSH2 0x1F6D JUMP JUMPDEST PUSH2 0xE37 JUMP JUMPDEST PUSH1 0x40 MLOAD PUSH2 0x47B SWAP2 SWAP1 PUSH2 0x1E02 JUMP JUMPDEST PUSH1 0x40 MLOAD DUP1 SWAP2 SUB SWAP1 RETURN JUMPDEST PUSH2 0x48C PUSH2 0xEB9 JUMP JUMPDEST STOP JUMPDEST PUSH2 0x4A8 PUSH1 0x4 DUP1 CALLDATASIZE SUB DUP2 ADD SWAP1 PUSH2 0x4A3 SWAP2 SWAP1 PUSH2 0x1ECA JUMP JUMPDEST PUSH2 0xFB5 JUMP JUMPDEST STOP JUMPDEST PUSH1 0x60 PUSH1 0x3 DUP1 SLOAD PUSH2 0x4B9 SWAP1 PUSH2 0x1FD8 JUMP JUMPDEST DUP1 PUSH1 0x1F ADD PUSH1 0x20 DUP1 SWAP2 DIV MUL PUSH1 0x20 ADD PUSH1 0x40 MLOAD SWAP1 DUP2 ADD PUSH1 0x40 MSTORE DUP1 SWAP3 SWAP2 SWAP1 DUP2 DUP2 MSTORE PUSH1 0x20 ADD DUP3 DUP1 SLOAD PUSH2 0x4E5 SWAP1 PUSH2 0x1FD8 JUMP JUMPDEST DUP1 ISZERO PUSH2 0x530 JUMPI DUP1 PUSH1 0x1F LT PUSH2 0x507 JUMPI PUSH2 0x100 DUP1 DUP4 SLOAD DIV MUL DUP4 MSTORE SWAP2 PUSH1 0x20 ADD SWAP2 PUSH2 0x530 JUMP JUMPDEST DUP3 ADD SWAP2 SWAP1 PUSH0 MSTORE PUSH1 0x20 PUSH0 KECCAK256 SWAP1 JUMPDEST DUP2 SLOAD DUP2 MSTORE SWAP1 PUSH1 0x1 ADD SWAP1 PUSH1 0x20 ADD DUP1 DUP4 GT PUSH2 0x513 JUMPI DUP3 SWAP1 SUB PUSH1 0x1F AND DUP3 ADD SWAP2 JUMPDEST POP POP POP POP POP SWAP1 POP SWAP1 JUMP JUMPDEST PUSH0 DUP1 PUSH2 0x544 PUSH2 0x1039 JUMP JUMPDEST SWAP1 POP PUSH2 0x551 DUP2 DUP6 DUP6 PUSH2 0x1040 JUMP JUMPDEST PUSH1 0x1 SWAP2 POP POP SWAP3 SWAP2 POP POP JUMP JUMPDEST PUSH0 PUSH1 0x2 SLOAD SWAP1 POP SWAP1 JUMP JUMPDEST PUSH1 0x8 SLOAD DUP2 JUMP JUMPDEST PUSH0 PUSH2 0x577 DUP5 DUP5 DUP5 PUSH2 0x1052 JUMP JUMPDEST PUSH2 0x596 DUP5 CALLER DUP5 PUSH2 0x587 DUP9 CALLER PUSH2 0xE37 JUMP JUMPDEST PUSH2 0x591 SWAP2 SWAP1 PUSH2 0x2035 JUMP JUMPDEST PUSH2 0x1040 JUMP JUMPDEST PUSH1 0x1 SWAP1 POP SWAP4 SWAP3 POP POP POP JUMP JUMPDEST PUSH0 PUSH1 0x12 SWAP1 POP SWAP1 JUMP JUMPDEST PUSH2 0x5B1 PUSH2 0x1376 JUMP JUMPDEST PUSH2 0x5B9 PUSH2 0x83E JUMP JUMPDEST PUSH2 0x5F8 JUMPI PUSH1 0x40 MLOAD PUSH32 0x8C379A000000000000000000000000000000000000000000000000000000000 DUP2 MSTORE PUSH1 0x4 ADD PUSH2 0x5EF SWAP1 PUSH2 0x20B2 JUMP JUMPDEST PUSH1 0x40 MLOAD DUP1 SWAP2 SUB SWAP1 REVERT JUMPDEST PUSH2 0x600 PUSH2 0x13FD JUMP JUMPDEST JUMP JUMPDEST PUSH2 0x60A PUSH2 0x1376 JUMP JUMPDEST PUSH2 0x612 PUSH2 0x83E JUMP JUMPDEST ISZERO PUSH2 0x652 JUMPI PUSH1 0x40 MLOAD PUSH32 0x8C379A000000000000000000000000000000000000000000000000000000000 DUP2 MSTORE PUSH1 0x4 ADD PUSH2 0x649 SWAP1 PUSH2 0x211A JUMP JUMPDEST PUSH1 0x40 MLOAD DUP1 SWAP2 SUB SWAP1 REVERT JUMPDEST PUSH2 0x65C DUP3 DUP3 PUSH2 0x145F JUMP JUMPDEST POP POP JUMP JUMPDEST PUSH2 0x668 PUSH2 0x1376 JUMP JUMPDEST PUSH2 0x670 PUSH2 0x83E JUMP JUMPDEST ISZERO PUSH2 0x6B0 JUMPI PUSH1 0x40 MLOAD PUSH32 0x8C379A000000000000000000000000000000000000000000000000000000000 DUP2 MSTORE PUSH1 0x4 ADD PUSH2 0x6A7 SWAP1 PUSH2 0x211A JUMP JUMPDEST PUSH1 0x40 MLOAD DUP1 SWAP2 SUB SWAP1 REVERT JUMPDEST PUSH2 0x6BA CALLER DUP3 PUSH2 0x14DE JUMP JUMPDEST POP JUMP JUMPDEST PUSH2 0x6C5 PUSH2 0x1376 JUMP JUMPDEST PUSH2 0x6CD PUSH2 0x83E JUMP JUMPDEST ISZERO PUSH2 0x70D JUMPI PUSH1 0x40 MLOAD PUSH32 0x8C379A000000000000000000000000000000000000000000000000000000000 DUP2 MSTORE PUSH1 0x4 ADD PUSH2 0x704 SWAP1 PUSH2 0x211A JUMP JUMPDEST PUSH1 0x40 MLOAD DUP1 SWAP2 SUB SWAP1 REVERT JUMPDEST PUSH1 0x7 PUSH0 DUP3 PUSH20 0xFFFFFFFFFFFFFFFFFFFFFFFFFFFFFFFFFFFFFFFF AND PUSH20 0xFFFFFFFFFFFFFFFFFFFFFFFFFFFFFFFFFFFFFFFF AND DUP2 MSTORE PUSH1 0x20 ADD SWAP1 DUP2 MSTORE PUSH1 0x20 ADD PUSH0 KECCAK256 PUSH0 SWAP1 SLOAD SWAP1 PUSH2 0x100 EXP SWAP1 DIV PUSH1 0xFF AND ISZERO PUSH2 0x797 JUMPI PUSH1 0x40 MLOAD PUSH32 0x8C379A000000000000000000000000000000000000000000000000000000000 DUP2 MSTORE PUSH1 0x4 ADD PUSH2 0x78E SWAP1 PUSH2 0x2182 JUMP JUMPDEST PUSH1 0x40 MLOAD DUP1 SWAP2 SUB SWAP1 REVERT JUMPDEST PUSH1 0x1 PUSH1 0x7 PUSH0 DUP4 PUSH20 0xFFFFFFFFFFFFFFFFFFFFFFFFFFFFFFFFFFFFFFFF AND PUSH20 0xFFFFFFFFFFFFFFFFFFFFFFFFFFFFFFFFFFFFFFFF AND DUP2 MSTORE PUSH1 0x20 ADD SWAP1 DUP2 MSTORE PUSH1 0x20 ADD PUSH0 KECCAK256 PUSH0 PUSH2 0x100 EXP DUP2 SLOAD DUP2 PUSH1 0xFF MUL NOT AND SWAP1 DUP4 ISZERO ISZERO MUL OR SWAP1 SSTORE POP DUP1 PUSH20 0xFFFFFFFFFFFFFFFFFFFFFFFFFFFFFFFFFFFFFFFF AND PUSH32 0x57FF75194CB51B1933C5AA7B9FB0DB5A6E5F2E168467C29076EAA30A38FBB52B PUSH1 0x1 PUSH1 0x40 MLOAD PUSH2 0x833 SWAP2 SWAP1 PUSH2 0x1DDA JUMP JUMPDEST PUSH1 0x40 MLOAD DUP1 SWAP2 SUB SWAP1 LOG2 POP JUMP JUMPDEST PUSH0 PUSH1 0x5 PUSH1 0x14 SWAP1 SLOAD SWAP1 PUSH2 0x100 EXP SWAP1 DIV PUSH1 0xFF AND SWAP1 POP SWAP1 JUMP JUMPDEST PUSH1 0xA SLOAD DUP2 JUMP JUMPDEST PUSH0 DUP1 PUSH0 DUP4 PUSH20 0xFFFFFFFFFFFFFFFFFFFFFFFFFFFFFFFFFFFFFFFF AND PUSH20 0xFFFFFFFFFFFFFFFFFFFFFFFFFFFFFFFFFFFFFFFF AND DUP2 MSTORE PUSH1 0x20 ADD SWAP1 DUP2 MSTORE PUSH1 0x20 ADD PUSH0 KECCAK256 SLOAD SWAP1 POP SWAP2 SWAP1 POP JUMP JUMPDEST PUSH2 0x8A7 PUSH2 0x1376 JUMP JUMPDEST PUSH2 0x8B0 PUSH0 PUSH2 0x155D JUMP JUMPDEST JUMP JUMPDEST PUSH0 PUSH1 0x7 PUSH0 DUP4 PUSH20 0xFFFFFFFFFFFFFFFFFFFFFFFFFFFFFFFFFFFFFFFF AND PUSH20 0xFFFFFFFFFFFFFFFFFFFFFFFFFFFFFFFFFFFFFFFF AND DUP2 MSTORE PUSH1 0x20 ADD SWAP1 DUP2 MSTORE PUSH1 0x20 ADD PUSH0 KECCAK256 PUSH0 SWAP1 SLOAD SWAP1 PUSH2 0x100 EXP SWAP1 DIV PUSH1 0xFF AND SWAP1 POP SWAP2 SWAP1 POP JUMP JUMPDEST PUSH2 0x90C PUSH2 0xA66 JUMP JUMPDEST PUSH20 0xFFFFFFFFFFFFFFFFFFFFFFFFFFFFFFFFFFFFFFFF AND CALLER PUSH20 0xFFFFFFFFFFFFFFFFFFFFFFFFFFFFFFFFFFFFFFFF AND EQ DUP1 PUSH2 0x970 JUMPI POP ADDRESS PUSH20 0xFFFFFFFFFFFFFFFFFFFFFFFFFFFFFFFFFFFFFFFF AND CALLER PUSH20 0xFFFFFFFFFFFFFFFFFFFFFFFFFFFFFFFFFFFFFFFF AND EQ JUMPDEST PUSH2 0x9AF JUMPI PUSH1 0x40 MLOAD PUSH32 0x8C379A000000000000000000000000000000000000000000000000000000000 DUP2 MSTORE PUSH1 0x4 ADD PUSH2 0x9A6 SWAP1 PUSH2 0x21EA JUMP JUMPDEST PUSH1 0x40 MLOAD DUP1 SWAP2 SUB SWAP1 REVERT JUMPDEST PUSH2 0x9B7 PUSH2 0x83E JUMP JUMPDEST ISZERO PUSH2 0x9F7 JUMPI PUSH1 0x40 MLOAD PUSH32 0x8C379A000000000000000000000000000000000000000000000000000000000 DUP2 MSTORE PUSH1 0x4 ADD PUSH2 0x9EE SWAP1 PUSH2 0x211A JUMP JUMPDEST PUSH1 0x40 MLOAD DUP1 SWAP2 SUB SWAP1 REVERT JUMPDEST DUP1 TIMESTAMP PUSH2 0xA03 SWAP2 SWAP1 PUSH2 0x2208 JUMP JUMPDEST PUSH1 0x6 DUP2 SWAP1 SSTORE POP POP JUMP JUMPDEST PUSH2 0xA14 PUSH2 0x1376 JUMP JUMPDEST PUSH2 0xA1C PUSH2 0x83E JUMP JUMPDEST ISZERO PUSH2 0xA5C JUMPI PUSH1 0x40 MLOAD PUSH32 0x8C379A000000000000000000000000000000000000000000000000000000000 DUP2 MSTORE PUSH1 0x4 ADD PUSH2 0xA53 SWAP1 PUSH2 0x211A JUMP JUMPDEST PUSH1 0x40 MLOAD DUP1 SWAP2 SUB SWAP1 REVERT JUMPDEST PUSH2 0xA64 PUSH2 0x1620 JUMP JUMPDEST JUMP JUMPDEST PUSH0 PUSH1 0x5 PUSH0 SWAP1 SLOAD SWAP1 PUSH2 0x100 EXP SWAP1 DIV PUSH20 0xFFFFFFFFFFFFFFFFFFFFFFFFFFFFFFFFFFFFFFFF AND SWAP1 POP SWAP1 JUMP JUMPDEST PUSH2 0xA96 PUSH2 0x1376 JUMP JUMPDEST PUSH2 0xA9E PUSH2 0x83E JUMP JUMPDEST ISZERO PUSH2 0xADE JUMPI PUSH1 0x40 MLOAD PUSH32 0x8C379A000000000000000000000000000000000000000000000000000000000 DUP2 MSTORE PUSH1 0x4 ADD PUSH2 0xAD5 SWAP1 PUSH2 0x211A JUMP JUMPDEST PUSH1 0x40 MLOAD DUP1 SWAP2 SUB SWAP1 REVERT JUMPDEST PUSH1 0x7 PUSH0 DUP3 PUSH20 0xFFFFFFFFFFFFFFFFFFFFFFFFFFFFFFFFFFFFFFFF AND PUSH20 0xFFFFFFFFFFFFFFFFFFFFFFFFFFFFFFFFFFFFFFFF AND DUP2 MSTORE PUSH1 0x20 ADD SWAP1 DUP2 MSTORE PUSH1 0x20 ADD PUSH0 KECCAK256 PUSH0 SWAP1 SLOAD SWAP1 PUSH2 0x100 EXP SWAP1 DIV PUSH1 0xFF AND PUSH2 0xB67 JUMPI PUSH1 0x40 MLOAD PUSH32 0x8C379A000000000000000000000000000000000000000000000000000000000 DUP2 MSTORE PUSH1 0x4 ADD PUSH2 0xB5E SWAP1 PUSH2 0x2285 JUMP JUMPDEST PUSH1 0x40 MLOAD DUP1 SWAP2 SUB SWAP1 REVERT JUMPDEST PUSH0 PUSH1 0x7 PUSH0 DUP4 PUSH20 0xFFFFFFFFFFFFFFFFFFFFFFFFFFFFFFFFFFFFFFFF AND PUSH20 0xFFFFFFFFFFFFFFFFFFFFFFFFFFFFFFFFFFFFFFFF AND DUP2 MSTORE PUSH1 0x20 ADD SWAP1 DUP2 MSTORE PUSH1 0x20 ADD PUSH0 KECCAK256 PUSH0 PUSH2 0x100 EXP DUP2 SLOAD DUP2 PUSH1 0xFF MUL NOT AND SWAP1 DUP4 ISZERO ISZERO MUL OR SWAP1 SSTORE POP DUP1 PUSH20 0xFFFFFFFFFFFFFFFFFFFFFFFFFFFFFFFFFFFFFFFF AND PUSH32 0x57FF75194CB51B1933C5AA7B9FB0DB5A6E5F2E168467C29076EAA30A38FBB52B PUSH0 PUSH1 0x40 MLOAD PUSH2 0xC01 SWAP2 SWAP1 PUSH2 0x1DDA JUMP JUMPDEST PUSH1 0x40 MLOAD DUP1 SWAP2 SUB SWAP1 LOG2 POP JUMP JUMPDEST PUSH1 0x60 PUSH1 0x4 DUP1 SLOAD PUSH2 0xC1B SWAP1 PUSH2 0x1FD8 JUMP JUMPDEST DUP1 PUSH1 0x1F ADD PUSH1 0x20 DUP1 SWAP2 DIV MUL PUSH1 0x20 ADD PUSH1 0x40 MLOAD SWAP1 DUP2 ADD PUSH1 0x40 MSTORE DUP1 SWAP3 SWAP2 SWAP1 DUP2 DUP2 MSTORE PUSH1 0x20 ADD DUP3 DUP1 SLOAD PUSH2 0xC47 SWAP1 PUSH2 0x1FD8 JUMP JUMPDEST DUP1 ISZERO PUSH2 0xC92 JUMPI DUP1 PUSH1 0x1F LT PUSH2 0xC69 JUMPI PUSH2 0x100 DUP1 DUP4 SLOAD DIV MUL DUP4 MSTORE SWAP2 PUSH1 0x20 ADD SWAP2 PUSH2 0xC92 JUMP JUMPDEST DUP3 ADD SWAP2 SWAP1 PUSH0 MSTORE PUSH1 0x20 PUSH0 KECCAK256 SWAP1 JUMPDEST DUP2 SLOAD DUP2 MSTORE SWAP1 PUSH1 0x1 ADD SWAP1 PUSH1 0x20 ADD DUP1 DUP4 GT PUSH2 0xC75 JUMPI DUP3 SWAP1 SUB PUSH1 0x1F AND DUP3 ADD SWAP2 JUMPDEST POP POP POP POP POP SWAP1 POP SWAP1 JUMP JUMPDEST PUSH0 PUSH2 0xCA8 CALLER DUP5 DUP5 PUSH2 0x1052 JUMP JUMPDEST PUSH1 0x1 SWAP1 POP SWAP3 SWAP2 POP POP JUMP JUMPDEST PUSH2 0xCBA PUSH2 0x1376 JUMP JUMPDEST PUSH2 0xCC2 PUSH2 0x83E JUMP JUMPDEST ISZERO PUSH2 0xD02 JUMPI PUSH1 0x40 MLOAD PUSH32 0x8C379A000000000000000000000000000000000000000000000000000000000 DUP2 MSTORE PUSH1 0x4 ADD PUSH2 0xCF9 SWAP1 PUSH2 0x211A JUMP JUMPDEST PUSH1 0x40 MLOAD DUP1 SWAP2 SUB SWAP1 REVERT JUMPDEST DUP3 PUSH0 DUP2 GT PUSH2 0xD45 JUMPI PUSH1 0x40 MLOAD PUSH32 0x8C379A000000000000000000000000000000000000000000000000000000000 DUP2 MSTORE PUSH1 0x4 ADD PUSH2 0xD3C SWAP1 PUSH2 0x22ED JUMP JUMPDEST PUSH1 0x40 MLOAD DUP1 SWAP2 SUB SWAP1 REVERT JUMPDEST DUP3 PUSH0 DUP2 GT PUSH2 0xD88 JUMPI PUSH1 0x40 MLOAD PUSH32 0x8C379A000000000000000000000000000000000000000000000000000000000 DUP2 MSTORE PUSH1 0x4 ADD PUSH2 0xD7F SWAP1 PUSH2 0x22ED JUMP JUMPDEST PUSH1 0x40 MLOAD DUP1 SWAP2 SUB SWAP1 REVERT JUMPDEST DUP3 PUSH0 DUP2 LT ISZERO DUP1 ISZERO PUSH2 0xD9A JUMPI POP PUSH1 0x64 DUP2 GT ISZERO JUMPDEST PUSH2 0xDD9 JUMPI PUSH1 0x40 MLOAD PUSH32 0x8C379A000000000000000000000000000000000000000000000000000000000 DUP2 MSTORE PUSH1 0x4 ADD PUSH2 0xDD0 SWAP1 PUSH2 0x237B JUMP JUMPDEST PUSH1 0x40 MLOAD DUP1 SWAP2 SUB SWAP1 REVERT JUMPDEST DUP6 PUSH1 0x8 DUP2 SWAP1 SSTORE POP DUP5 PUSH1 0x9 DUP2 SWAP1 SSTORE POP DUP4 PUSH1 0xA DUP2 SWAP1 SSTORE POP PUSH32 0x3E57AA3E8D0E68B0F330004600CBB803A94A7B63B8F8C99BD79F40FC9A309C3F DUP7 DUP7 DUP7 PUSH1 0x40 MLOAD PUSH2 0xE21 SWAP4 SWAP3 SWAP2 SWAP1 PUSH2 0x2399 JUMP JUMPDEST PUSH1 0x40 MLOAD DUP1 SWAP2 SUB SWAP1 LOG1 POP POP POP POP POP POP JUMP JUMPDEST PUSH1 0x9 SLOAD DUP2 JUMP JUMPDEST PUSH0 PUSH1 0x1 PUSH0 DUP5 PUSH20 0xFFFFFFFFFFFFFFFFFFFFFFFFFFFFFFFFFFFFFFFF AND PUSH20 0xFFFFFFFFFFFFFFFFFFFFFFFFFFFFFFFFFFFFFFFF AND DUP2 MSTORE PUSH1 0x20 ADD SWAP1 DUP2 MSTORE PUSH1 0x20 ADD PUSH0 KECCAK256 PUSH0 DUP4 PUSH20 0xFFFFFFFFFFFFFFFFFFFFFFFFFFFFFFFFFFFFFFFF AND PUSH20 0xFFFFFFFFFFFFFFFFFFFFFFFFFFFFFFFFFFFFFFFF AND DUP2 MSTORE PUSH1 0x20 ADD SWAP1 DUP2 MSTORE PUSH1 0x20 ADD PUSH0 KECCAK256 SLOAD SWAP1 POP SWAP3 SWAP2 POP POP JUMP JUMPDEST PUSH2 0xEC1 PUSH2 0xA66 JUMP JUMPDEST PUSH20 0xFFFFFFFFFFFFFFFFFFFFFFFFFFFFFFFFFFFFFFFF AND CALLER PUSH20 0xFFFFFFFFFFFFFFFFFFFFFFFFFFFFFFFFFFFFFFFF AND EQ DUP1 PUSH2 0xF25 JUMPI POP ADDRESS PUSH20 0xFFFFFFFFFFFFFFFFFFFFFFFFFFFFFFFFFFFFFFFF AND CALLER PUSH20 0xFFFFFFFFFFFFFFFFFFFFFFFFFFFFFFFFFFFFFFFF AND EQ JUMPDEST PUSH2 0xF64 JUMPI PUSH1 0x40 MLOAD PUSH32 0x8C379A000000000000000000000000000000000000000000000000000000000 DUP2 MSTORE PUSH1 0x4 ADD PUSH2 0xF5B SWAP1 PUSH2 0x21EA JUMP JUMPDEST PUSH1 0x40 MLOAD DUP1 SWAP2 SUB SWAP1 REVERT JUMPDEST PUSH2 0xF6C PUSH2 0x83E JUMP JUMPDEST ISZERO PUSH2 0xFAC JUMPI PUSH1 0x40 MLOAD PUSH32 0x8C379A000000000000000000000000000000000000000000000000000000000 DUP2 MSTORE PUSH1 0x4 ADD PUSH2 0xFA3 SWAP1 PUSH2 0x211A JUMP JUMPDEST PUSH1 0x40 MLOAD DUP1 SWAP2 SUB SWAP1 REVERT JUMPDEST PUSH0 PUSH1 0x6 DUP2 SWAP1 SSTORE POP JUMP JUMPDEST PUSH2 0xFBD PUSH2 0x1376 JUMP JUMPDEST PUSH0 PUSH20 0xFFFFFFFFFFFFFFFFFFFFFFFFFFFFFFFFFFFFFFFF AND DUP2 PUSH20 0xFFFFFFFFFFFFFFFFFFFFFFFFFFFFFFFFFFFFFFFF AND SUB PUSH2 0x102D JUMPI PUSH0 PUSH1 0x40 MLOAD PUSH32 0x1E4FBDF700000000000000000000000000000000000000000000000000000000 DUP2 MSTORE PUSH1 0x4 ADD PUSH2 0x1024 SWAP2 SWAP1 PUSH2 0x1F04 JUMP JUMPDEST PUSH1 0x40 MLOAD DUP1 SWAP2 SUB SWAP1 REVERT JUMPDEST PUSH2 0x1036 DUP2 PUSH2 0x155D JUMP JUMPDEST POP JUMP JUMPDEST PUSH0 CALLER SWAP1 POP SWAP1 JUMP JUMPDEST PUSH2 0x104D DUP4 DUP4 DUP4 PUSH1 0x1 PUSH2 0x1683 JUMP JUMPDEST POP POP POP JUMP JUMPDEST CALLER PUSH1 0x7 PUSH0 DUP3 PUSH20 0xFFFFFFFFFFFFFFFFFFFFFFFFFFFFFFFFFFFFFFFF AND PUSH20 0xFFFFFFFFFFFFFFFFFFFFFFFFFFFFFFFFFFFFFFFF AND DUP2 MSTORE PUSH1 0x20 ADD SWAP1 DUP2 MSTORE PUSH1 0x20 ADD PUSH0 KECCAK256 PUSH0 SWAP1 SLOAD SWAP1 PUSH2 0x100 EXP SWAP1 DIV PUSH1 0xFF AND ISZERO PUSH2 0x10DD JUMPI PUSH1 0x40 MLOAD PUSH32 0x8C379A000000000000000000000000000000000000000000000000000000000 DUP2 MSTORE PUSH1 0x4 ADD PUSH2 0x10D4 SWAP1 PUSH2 0x2418 JUMP JUMPDEST PUSH1 0x40 MLOAD DUP1 SWAP2 SUB SWAP1 REVERT JUMPDEST DUP3 PUSH1 0x7 PUSH0 DUP3 PUSH20 0xFFFFFFFFFFFFFFFFFFFFFFFFFFFFFFFFFFFFFFFF AND PUSH20 0xFFFFFFFFFFFFFFFFFFFFFFFFFFFFFFFFFFFFFFFF AND DUP2 MSTORE PUSH1 0x20 ADD SWAP1 DUP2 MSTORE PUSH1 0x20 ADD PUSH0 KECCAK256 PUSH0 SWAP1 SLOAD SWAP1 PUSH2 0x100 EXP SWAP1 DIV PUSH1 0xFF AND ISZERO PUSH2 0x1168 JUMPI PUSH1 0x40 MLOAD PUSH32 0x8C379A000000000000000000000000000000000000000000000000000000000 DUP2 MSTORE PUSH1 0x4 ADD PUSH2 0x115F SWAP1 PUSH2 0x2418 JUMP JUMPDEST PUSH1 0x40 MLOAD DUP1 SWAP2 SUB SWAP1 REVERT JUMPDEST PUSH2 0x1170 PUSH2 0x83E JUMP JUMPDEST ISZERO PUSH2 0x11B0 JUMPI PUSH1 0x40 MLOAD PUSH32 0x8C379A000000000000000000000000000000000000000000000000000000000 DUP2 MSTORE PUSH1 0x4 ADD PUSH2 0x11A7 SWAP1 PUSH2 0x211A JUMP JUMPDEST PUSH1 0x40 MLOAD DUP1 SWAP2 SUB SWAP1 REVERT JUMPDEST DUP5 DUP5 TIMESTAMP PUSH1 0x6 SLOAD GT ISZERO DUP1 PUSH2 0x11F5 JUMPI POP DUP2 PUSH20 0xFFFFFFFFFFFFFFFFFFFFFFFFFFFFFFFFFFFFFFFF AND PUSH2 0x11DD PUSH2 0xA66 JUMP JUMPDEST PUSH20 0xFFFFFFFFFFFFFFFFFFFFFFFFFFFFFFFFFFFFFFFF AND EQ JUMPDEST DUP1 PUSH2 0x1232 JUMPI POP DUP1 PUSH20 0xFFFFFFFFFFFFFFFFFFFFFFFFFFFFFFFFFFFFFFFF AND PUSH2 0x121A PUSH2 0xA66 JUMP JUMPDEST PUSH20 0xFFFFFFFFFFFFFFFFFFFFFFFFFFFFFFFFFFFFFFFF AND EQ JUMPDEST PUSH2 0x1271 JUMPI PUSH1 0x40 MLOAD PUSH32 0x8C379A000000000000000000000000000000000000000000000000000000000 DUP2 MSTORE PUSH1 0x4 ADD PUSH2 0x1268 SWAP1 PUSH2 0x24A6 JUMP JUMPDEST PUSH1 0x40 MLOAD DUP1 SWAP2 SUB SWAP1 REVERT JUMPDEST PUSH0 PUSH2 0x127B DUP7 PUSH2 0x1852 JUMP JUMPDEST SWAP1 POP PUSH0 DUP2 DUP8 PUSH2 0x128A SWAP2 SWAP1 PUSH2 0x2035 JUMP JUMPDEST SWAP1 POP PUSH2 0x1297 DUP10 DUP10 DUP4 PUSH2 0x18AB JUMP JUMPDEST PUSH2 0x12A1 DUP10 DUP4 PUSH2 0x14DE JUMP JUMPDEST DUP8 PUSH20 0xFFFFFFFFFFFFFFFFFFFFFFFFFFFFFFFFFFFFFFFF AND DUP10 PUSH20 0xFFFFFFFFFFFFFFFFFFFFFFFFFFFFFFFFFFFFFFFF AND PUSH32 0xDDF252AD1BE2C89B69C2B068FC378DAA952BA7F163C4A11628F55A4DF523B3EF DUP4 PUSH1 0x40 MLOAD PUSH2 0x12FE SWAP2 SWAP1 PUSH2 0x1E02 JUMP JUMPDEST PUSH1 0x40 MLOAD DUP1 SWAP2 SUB SWAP1 LOG3 PUSH0 PUSH20 0xFFFFFFFFFFFFFFFFFFFFFFFFFFFFFFFFFFFFFFFF AND DUP10 PUSH20 0xFFFFFFFFFFFFFFFFFFFFFFFFFFFFFFFFFFFFFFFF AND PUSH32 0xDDF252AD1BE2C89B69C2B068FC378DAA952BA7F163C4A11628F55A4DF523B3EF DUP5 PUSH1 0x40 MLOAD PUSH2 0x1363 SWAP2 SWAP1 PUSH2 0x1E02 JUMP JUMPDEST PUSH1 0x40 MLOAD DUP1 SWAP2 SUB SWAP1 LOG3 POP POP POP POP POP POP POP POP POP JUMP JUMPDEST PUSH2 0x137E PUSH2 0x1039 JUMP JUMPDEST PUSH20 0xFFFFFFFFFFFFFFFFFFFFFFFFFFFFFFFFFFFFFFFF AND PUSH2 0x139C PUSH2 0xA66 JUMP JUMPDEST PUSH20 0xFFFFFFFFFFFFFFFFFFFFFFFFFFFFFFFFFFFFFFFF AND EQ PUSH2 0x13FB JUMPI PUSH2 0x13BF PUSH2 0x1039 JUMP JUMPDEST PUSH1 0x40 MLOAD PUSH32 0x118CDAA700000000000000000000000000000000000000000000000000000000 DUP2 MSTORE PUSH1 0x4 ADD PUSH2 0x13F2 SWAP2 SWAP1 PUSH2 0x1F04 JUMP JUMPDEST PUSH1 0x40 MLOAD DUP1 SWAP2 SUB SWAP1 REVERT JUMPDEST JUMP JUMPDEST PUSH2 0x1405 PUSH2 0x199B JUMP JUMPDEST PUSH0 PUSH1 0x5 PUSH1 0x14 PUSH2 0x100 EXP DUP2 SLOAD DUP2 PUSH1 0xFF MUL NOT AND SWAP1 DUP4 ISZERO ISZERO MUL OR SWAP1 SSTORE POP PUSH32 0x5DB9EE0A495BF2E6FF9C91A7834C1BA4FDD244A5E8AA4E537BD38AEAE4B073AA PUSH2 0x1448 PUSH2 0x1039 JUMP JUMPDEST PUSH1 0x40 MLOAD PUSH2 0x1455 SWAP2 SWAP1 PUSH2 0x1F04 JUMP JUMPDEST PUSH1 0x40 MLOAD DUP1 SWAP2 SUB SWAP1 LOG1 JUMP JUMPDEST PUSH0 PUSH20 0xFFFFFFFFFFFFFFFFFFFFFFFFFFFFFFFFFFFFFFFF AND DUP3 PUSH20 0xFFFFFFFFFFFFFFFFFFFFFFFFFFFFFFFFFFFFFFFF AND SUB PUSH2 0x14CF JUMPI PUSH0 PUSH1 0x40 MLOAD PUSH32 0xEC442F0500000000000000000000000000000000000000000000000000000000 DUP2 MSTORE PUSH1 0x4 ADD PUSH2 0x14C6 SWAP2 SWAP1 PUSH2 0x1F04 JUMP JUMPDEST PUSH1 0x40 MLOAD DUP1 SWAP2 SUB SWAP1 REVERT JUMPDEST PUSH2 0x14DA PUSH0 DUP4 DUP4 PUSH2 0x19E4 JUMP JUMPDEST POP POP JUMP JUMPDEST PUSH0 PUSH20 0xFFFFFFFFFFFFFFFFFFFFFFFFFFFFFFFFFFFFFFFF AND DUP3 PUSH20 0xFFFFFFFFFFFFFFFFFFFFFFFFFFFFFFFFFFFFFFFF AND SUB PUSH2 0x154E JUMPI PUSH0 PUSH1 0x40 MLOAD PUSH32 0x96C6FD1E00000000000000000000000000000000000000000000000000000000 DUP2 MSTORE PUSH1 0x4 ADD PUSH2 0x1545 SWAP2 SWAP1 PUSH2 0x1F04 JUMP JUMPDEST PUSH1 0x40 MLOAD DUP1 SWAP2 SUB SWAP1 REVERT JUMPDEST PUSH2 0x1559 DUP3 PUSH0 DUP4 PUSH2 0x19E4 JUMP JUMPDEST POP POP JUMP JUMPDEST PUSH0 PUSH1 0x5 PUSH0 SWAP1 SLOAD SWAP1 PUSH2 0x100 EXP SWAP1 DIV PUSH20 0xFFFFFFFFFFFFFFFFFFFFFFFFFFFFFFFFFFFFFFFF AND SWAP1 POP DUP2 PUSH1 0x5 PUSH0 PUSH2 0x100 EXP DUP2 SLOAD DUP2 PUSH20 0xFFFFFFFFFFFFFFFFFFFFFFFFFFFFFFFFFFFFFFFF MUL NOT AND SWAP1 DUP4 PUSH20 0xFFFFFFFFFFFFFFFFFFFFFFFFFFFFFFFFFFFFFFFF AND MUL OR SWAP1 SSTORE POP DUP2 PUSH20 0xFFFFFFFFFFFFFFFFFFFFFFFFFFFFFFFFFFFFFFFF AND DUP2 PUSH20 0xFFFFFFFFFFFFFFFFFFFFFFFFFFFFFFFFFFFFFFFF AND PUSH32 0x8BE0079C531659141344CD1FD0A4F28419497F9722A3DAAFE3B4186F6B6457E0 PUSH1 0x40 MLOAD PUSH1 0x40 MLOAD DUP1 SWAP2 SUB SWAP1 LOG3 POP POP JUMP JUMPDEST PUSH2 0x1628 PUSH2 0x1BFD JUMP JUMPDEST PUSH1 0x1 PUSH1 0x5 PUSH1 0x14 PUSH2 0x100 EXP DUP2 SLOAD DUP2 PUSH1 0xFF MUL NOT AND SWAP1 DUP4 ISZERO ISZERO MUL OR SWAP1 SSTORE POP PUSH32 0x62E78CEA01BEE320CD4E420270B5EA74000D11B0C9F74754EBDBFC544B05A258 PUSH2 0x166C PUSH2 0x1039 JUMP JUMPDEST PUSH1 0x40 MLOAD PUSH2 0x1679 SWAP2 SWAP1 PUSH2 0x1F04 JUMP JUMPDEST PUSH1 0x40 MLOAD DUP1 SWAP2 SUB SWAP1 LOG1 JUMP JUMPDEST PUSH0 PUSH20 0xFFFFFFFFFFFFFFFFFFFFFFFFFFFFFFFFFFFFFFFF AND DUP5 PUSH20 0xFFFFFFFFFFFFFFFFFFFFFFFFFFFFFFFFFFFFFFFF AND SUB PUSH2 0x16F3 JUMPI PUSH0 PUSH1 0x40 MLOAD PUSH32 0xE602DF0500000000000000000000000000000000000000000000000000000000 DUP2 MSTORE PUSH1 0x4 ADD PUSH2 0x16EA SWAP2 SWAP1 PUSH2 0x1F04 JUMP JUMPDEST PUSH1 0x40 MLOAD DUP1 SWAP2 SUB SWAP1 REVERT JUMPDEST PUSH0 PUSH20 0xFFFFFFFFFFFFFFFFFFFFFFFFFFFFFFFFFFFFFFFF AND DUP4 PUSH20 0xFFFFFFFFFFFFFFFFFFFFFFFFFFFFFFFFFFFFFFFF AND SUB PUSH2 0x1763 JUMPI PUSH0 PUSH1 0x40 MLOAD PUSH32 0x94280D6200000000000000000000000000000000000000000000000000000000 DUP2 MSTORE PUSH1 0x4 ADD PUSH2 0x175A SWAP2 SWAP1 PUSH2 0x1F04 JUMP JUMPDEST PUSH1 0x40 MLOAD DUP1 SWAP2 SUB SWAP1 REVERT JUMPDEST DUP2 PUSH1 0x1 PUSH0 DUP7 PUSH20 0xFFFFFFFFFFFFFFFFFFFFFFFFFFFFFFFFFFFFFFFF AND PUSH20 0xFFFFFFFFFFFFFFFFFFFFFFFFFFFFFFFFFFFFFFFF AND DUP2 MSTORE PUSH1 0x20 ADD SWAP1 DUP2 MSTORE PUSH1 0x20 ADD PUSH0 KECCAK256 PUSH0 DUP6 PUSH20 0xFFFFFFFFFFFFFFFFFFFFFFFFFFFFFFFFFFFFFFFF AND PUSH20 0xFFFFFFFFFFFFFFFFFFFFFFFFFFFFFFFFFFFFFFFF AND DUP2 MSTORE PUSH1 0x20 ADD SWAP1 DUP2 MSTORE PUSH1 0x20 ADD PUSH0 KECCAK256 DUP2 SWAP1 SSTORE POP DUP1 ISZERO PUSH2 0x184C JUMPI DUP3 PUSH20 0xFFFFFFFFFFFFFFFFFFFFFFFFFFFFFFFFFFFFFFFF AND DUP5 PUSH20 0xFFFFFFFFFFFFFFFFFFFFFFFFFFFFFFFFFFFFFFFF AND PUSH32 0x8C5BE1E5EBEC7D5BD14F71427D1E84F3DD0314C0F7B2291E5B200AC8C7C3B925 DUP5 PUSH1 0x40 MLOAD PUSH2 0x1843 SWAP2 SWAP1 PUSH2 0x1E02 JUMP JUMPDEST PUSH1 0x40 MLOAD DUP1 SWAP2 SUB SWAP1 LOG3 JUMPDEST POP POP POP POP JUMP JUMPDEST PUSH0 DUP1 PUSH1 0x64 PUSH1 0xA SLOAD PUSH1 0x9 SLOAD PUSH2 0x1866 SWAP2 SWAP1 PUSH2 0x24C4 JUMP JUMPDEST PUSH2 0x1870 SWAP2 SWAP1 PUSH2 0x2532 JUMP JUMPDEST PUSH1 0x1 PUSH2 0x187C SWAP2 SWAP1 PUSH2 0x2208 JUMP JUMPDEST PUSH1 0x8 SLOAD PUSH2 0x1889 SWAP2 SWAP1 PUSH2 0x2532 JUMP JUMPDEST SWAP1 POP PUSH1 0x64 DUP2 DUP5 PUSH2 0x1899 SWAP2 SWAP1 PUSH2 0x24C4 JUMP JUMPDEST PUSH2 0x18A3 SWAP2 SWAP1 PUSH2 0x2532 JUMP JUMPDEST SWAP2 POP POP SWAP2 SWAP1 POP JUMP JUMPDEST PUSH0 PUSH20 0xFFFFFFFFFFFFFFFFFFFFFFFFFFFFFFFFFFFFFFFF AND DUP4 PUSH20 0xFFFFFFFFFFFFFFFFFFFFFFFFFFFFFFFFFFFFFFFF AND SUB PUSH2 0x191B JUMPI PUSH0 PUSH1 0x40 MLOAD PUSH32 0x96C6FD1E00000000000000000000000000000000000000000000000000000000 DUP2 MSTORE PUSH1 0x4 ADD PUSH2 0x1912 SWAP2 SWAP1 PUSH2 0x1F04 JUMP JUMPDEST PUSH1 0x40 MLOAD DUP1 SWAP2 SUB SWAP1 REVERT JUMPDEST PUSH0 PUSH20 0xFFFFFFFFFFFFFFFFFFFFFFFFFFFFFFFFFFFFFFFF AND DUP3 PUSH20 0xFFFFFFFFFFFFFFFFFFFFFFFFFFFFFFFFFFFFFFFF AND SUB PUSH2 0x198B JUMPI PUSH0 PUSH1 0x40 MLOAD PUSH32 0xEC442F0500000000000000000000000000000000000000000000000000000000 DUP2 MSTORE PUSH1 0x4 ADD PUSH2 0x1982 SWAP2 SWAP1 PUSH2 0x1F04 JUMP JUMPDEST PUSH1 0x40 MLOAD DUP1 SWAP2 SUB SWAP1 REVERT JUMPDEST PUSH2 0x1996 DUP4 DUP4 DUP4 PUSH2 0x19E4 JUMP JUMPDEST POP POP POP JUMP JUMPDEST PUSH2 0x19A3 PUSH2 0x83E JUMP JUMPDEST PUSH2 0x19E2 JUMPI PUSH1 0x40 MLOAD PUSH32 0x8C379A000000000000000000000000000000000000000000000000000000000 DUP2 MSTORE PUSH1 0x4 ADD PUSH2 0x19D9 SWAP1 PUSH2 0x25AC JUMP JUMPDEST PUSH1 0x40 MLOAD DUP1 SWAP2 SUB SWAP1 REVERT JUMPDEST JUMP JUMPDEST PUSH0 PUSH20 0xFFFFFFFFFFFFFFFFFFFFFFFFFFFFFFFFFFFFFFFF AND DUP4 PUSH20 0xFFFFFFFFFFFFFFFFFFFFFFFFFFFFFFFFFFFFFFFF AND SUB PUSH2 0x1A34 JUMPI DUP1 PUSH1 0x2 PUSH0 DUP3 DUP3 SLOAD PUSH2 0x1A28 SWAP2 SWAP1 PUSH2 0x2208 JUMP JUMPDEST SWAP3 POP POP DUP2 SWAP1 SSTORE POP PUSH2 0x1B02 JUMP JUMPDEST PUSH0 DUP1 PUSH0 DUP6 PUSH20 0xFFFFFFFFFFFFFFFFFFFFFFFFFFFFFFFFFFFFFFFF AND PUSH20 0xFFFFFFFFFFFFFFFFFFFFFFFFFFFFFFFFFFFFFFFF AND DUP2 MSTORE PUSH1 0x20 ADD SWAP1 DUP2 MSTORE PUSH1 0x20 ADD PUSH0 KECCAK256 SLOAD SWAP1 POP DUP2 DUP2 LT ISZERO PUSH2 0x1ABD JUMPI DUP4 DUP2 DUP4 PUSH1 0x40 MLOAD PUSH32 0xE450D38C00000000000000000000000000000000000000000000000000000000 DUP2 MSTORE PUSH1 0x4 ADD PUSH2 0x1AB4 SWAP4 SWAP3 SWAP2 SWAP1 PUSH2 0x25CA JUMP JUMPDEST PUSH1 0x40 MLOAD DUP1 SWAP2 SUB SWAP1 REVERT JUMPDEST DUP2 DUP2 SUB PUSH0 DUP1 DUP7 PUSH20 0xFFFFFFFFFFFFFFFFFFFFFFFFFFFFFFFFFFFFFFFF AND PUSH20 0xFFFFFFFFFFFFFFFFFFFFFFFFFFFFFFFFFFFFFFFF AND DUP2 MSTORE PUSH1 0x20 ADD SWAP1 DUP2 MSTORE PUSH1 0x20 ADD PUSH0 KECCAK256 DUP2 SWAP1 SSTORE POP POP JUMPDEST PUSH0 PUSH20 0xFFFFFFFFFFFFFFFFFFFFFFFFFFFFFFFFFFFFFFFF AND DUP3 PUSH20 0xFFFFFFFFFFFFFFFFFFFFFFFFFFFFFFFFFFFFFFFF AND SUB PUSH2 0x1B49 JUMPI DUP1 PUSH1 0x2 PUSH0 DUP3 DUP3 SLOAD SUB SWAP3 POP POP DUP2 SWAP1 SSTORE POP PUSH2 0x1B93 JUMP JUMPDEST DUP1 PUSH0 DUP1 DUP5 PUSH20 0xFFFFFFFFFFFFFFFFFFFFFFFFFFFFFFFFFFFFFFFF AND PUSH20 0xFFFFFFFFFFFFFFFFFFFFFFFFFFFFFFFFFFFFFFFF AND DUP2 MSTORE PUSH1 0x20 ADD SWAP1 DUP2 MSTORE PUSH1 0x20 ADD PUSH0 KECCAK256 PUSH0 DUP3 DUP3 SLOAD ADD SWAP3 POP POP DUP2 SWAP1 SSTORE POP JUMPDEST DUP2 PUSH20 0xFFFFFFFFFFFFFFFFFFFFFFFFFFFFFFFFFFFFFFFF AND DUP4 PUSH20 0xFFFFFFFFFFFFFFFFFFFFFFFFFFFFFFFFFFFFFFFF AND PUSH32 0xDDF252AD1BE2C89B69C2B068FC378DAA952BA7F163C4A11628F55A4DF523B3EF DUP4 PUSH1 0x40 MLOAD PUSH2 0x1BF0 SWAP2 SWAP1 PUSH2 0x1E02 JUMP JUMPDEST PUSH1 0x40 MLOAD DUP1 SWAP2 SUB SWAP1 LOG3 POP POP POP JUMP JUMPDEST PUSH2 0x1C05 PUSH2 0x83E JUMP JUMPDEST ISZERO PUSH2 0x1C45 JUMPI PUSH1 0x40 MLOAD PUSH32 0x8C379A000000000000000000000000000000000000000000000000000000000 DUP2 MSTORE PUSH1 0x4 ADD PUSH2 0x1C3C SWAP1 PUSH2 0x2649 JUMP JUMPDEST PUSH1 0x40 MLOAD DUP1 SWAP2 SUB SWAP1 REVERT JUMPDEST JUMP JUMPDEST PUSH0 DUP2 MLOAD SWAP1 POP SWAP2 SWAP1 POP JUMP JUMPDEST PUSH0 DUP3 DUP3 MSTORE PUSH1 0x20 DUP3 ADD SWAP1 POP SWAP3 SWAP2 POP POP JUMP JUMPDEST PUSH0 JUMPDEST DUP4 DUP2 LT ISZERO PUSH2 0x1C7E JUMPI DUP1 DUP3 ADD MLOAD DUP2 DUP5 ADD MSTORE PUSH1 0x20 DUP2 ADD SWAP1 POP PUSH2 0x1C63 JUMP JUMPDEST PUSH0 DUP5 DUP5 ADD MSTORE POP POP POP POP JUMP JUMPDEST PUSH0 PUSH1 0x1F NOT PUSH1 0x1F DUP4 ADD AND SWAP1 POP SWAP2 SWAP1 POP JUMP JUMPDEST PUSH0 PUSH2 0x1CA3 DUP3 PUSH2 0x1C47 JUMP JUMPDEST PUSH2 0x1CAD DUP2 DUP6 PUSH2 0x1C51 JUMP JUMPDEST SWAP4 POP PUSH2 0x1CBD DUP2 DUP6 PUSH1 0x20 DUP7 ADD PUSH2 0x1C61 JUMP JUMPDEST PUSH2 0x1CC6 DUP2 PUSH2 0x1C89 JUMP JUMPDEST DUP5 ADD SWAP2 POP POP SWAP3 SWAP2 POP POP JUMP JUMPDEST PUSH0 PUSH1 0x20 DUP3 ADD SWAP1 POP DUP2 DUP2 SUB PUSH0 DUP4 ADD MSTORE PUSH2 0x1CE9 DUP2 DUP5 PUSH2 0x1C99 JUMP JUMPDEST SWAP1 POP SWAP3 SWAP2 POP POP JUMP JUMPDEST PUSH0 DUP1 REVERT JUMPDEST PUSH0 PUSH20 0xFFFFFFFFFFFFFFFFFFFFFFFFFFFFFFFFFFFFFFFF DUP3 AND SWAP1 POP SWAP2 SWAP1 POP JUMP JUMPDEST PUSH0 PUSH2 0x1D1E DUP3 PUSH2 0x1CF5 JUMP JUMPDEST SWAP1 POP SWAP2 SWAP1 POP JUMP JUMPDEST PUSH2 0x1D2E DUP2 PUSH2 0x1D14 JUMP JUMPDEST DUP2 EQ PUSH2 0x1D38 JUMPI PUSH0 DUP1 REVERT JUMPDEST POP JUMP JUMPDEST PUSH0 DUP2 CALLDATALOAD SWAP1 POP PUSH2 0x1D49 DUP2 PUSH2 0x1D25 JUMP JUMPDEST SWAP3 SWAP2 POP POP JUMP JUMPDEST PUSH0 DUP2 SWAP1 POP SWAP2 SWAP1 POP JUMP JUMPDEST PUSH2 0x1D61 DUP2 PUSH2 0x1D4F JUMP JUMPDEST DUP2 EQ PUSH2 0x1D6B JUMPI PUSH0 DUP1 REVERT JUMPDEST POP JUMP JUMPDEST PUSH0 DUP2 CALLDATALOAD SWAP1 POP PUSH2 0x1D7C DUP2 PUSH2 0x1D58 JUMP JUMPDEST SWAP3 SWAP2 POP POP JUMP JUMPDEST PUSH0 DUP1 PUSH1 0x40 DUP4 DUP6 SUB SLT ISZERO PUSH2 0x1D98 JUMPI PUSH2 0x1D97 PUSH2 0x1CF1 JUMP JUMPDEST JUMPDEST PUSH0 PUSH2 0x1DA5 DUP6 DUP3 DUP7 ADD PUSH2 0x1D3B JUMP JUMPDEST SWAP3 POP POP PUSH1 0x20 PUSH2 0x1DB6 DUP6 DUP3 DUP7 ADD PUSH2 0x1D6E JUMP JUMPDEST SWAP2 POP POP SWAP3 POP SWAP3 SWAP1 POP JUMP JUMPDEST PUSH0 DUP2 ISZERO ISZERO SWAP1 POP SWAP2 SWAP1 POP JUMP JUMPDEST PUSH2 0x1DD4 DUP2 PUSH2 0x1DC0 JUMP JUMPDEST DUP3 MSTORE POP POP JUMP JUMPDEST PUSH0 PUSH1 0x20 DUP3 ADD SWAP1 POP PUSH2 0x1DED PUSH0 DUP4 ADD DUP5 PUSH2 0x1DCB JUMP JUMPDEST SWAP3 SWAP2 POP POP JUMP JUMPDEST PUSH2 0x1DFC DUP2 PUSH2 0x1D4F JUMP JUMPDEST DUP3 MSTORE POP POP JUMP JUMPDEST PUSH0 PUSH1 0x20 DUP3 ADD SWAP1 POP PUSH2 0x1E15 PUSH0 DUP4 ADD DUP5 PUSH2 0x1DF3 JUMP JUMPDEST SWAP3 SWAP2 POP POP JUMP JUMPDEST PUSH0 DUP1 PUSH0 PUSH1 0x60 DUP5 DUP7 SUB SLT ISZERO PUSH2 0x1E32 JUMPI PUSH2 0x1E31 PUSH2 0x1CF1 JUMP JUMPDEST JUMPDEST PUSH0 PUSH2 0x1E3F DUP7 DUP3 DUP8 ADD PUSH2 0x1D3B JUMP JUMPDEST SWAP4 POP POP PUSH1 0x20 PUSH2 0x1E50 DUP7 DUP3 DUP8 ADD PUSH2 0x1D3B JUMP JUMPDEST SWAP3 POP POP PUSH1 0x40 PUSH2 0x1E61 DUP7 DUP3 DUP8 ADD PUSH2 0x1D6E JUMP JUMPDEST SWAP2 POP POP SWAP3 POP SWAP3 POP SWAP3 JUMP JUMPDEST PUSH0 PUSH1 0xFF DUP3 AND SWAP1 POP SWAP2 SWAP1 POP JUMP JUMPDEST PUSH2 0x1E80 DUP2 PUSH2 0x1E6B JUMP JUMPDEST DUP3 MSTORE POP POP JUMP JUMPDEST PUSH0 PUSH1 0x20 DUP3 ADD SWAP1 POP PUSH2 0x1E99 PUSH0 DUP4 ADD DUP5 PUSH2 0x1E77 JUMP JUMPDEST SWAP3 SWAP2 POP POP JUMP JUMPDEST PUSH0 PUSH1 0x20 DUP3 DUP5 SUB SLT ISZERO PUSH2 0x1EB4 JUMPI PUSH2 0x1EB3 PUSH2 0x1CF1 JUMP JUMPDEST JUMPDEST PUSH0 PUSH2 0x1EC1 DUP5 DUP3 DUP6 ADD PUSH2 0x1D6E JUMP JUMPDEST SWAP2 POP POP SWAP3 SWAP2 POP POP JUMP JUMPDEST PUSH0 PUSH1 0x20 DUP3 DUP5 SUB SLT ISZERO PUSH2 0x1EDF JUMPI PUSH2 0x1EDE PUSH2 0x1CF1 JUMP JUMPDEST JUMPDEST PUSH0 PUSH2 0x1EEC DUP5 DUP3 DUP6 ADD PUSH2 0x1D3B JUMP JUMPDEST SWAP2 POP POP SWAP3 SWAP2 POP POP JUMP JUMPDEST PUSH2 0x1EFE DUP2 PUSH2 0x1D14 JUMP JUMPDEST DUP3 MSTORE POP POP JUMP JUMPDEST PUSH0 PUSH1 0x20 DUP3 ADD SWAP1 POP PUSH2 0x1F17 PUSH0 DUP4 ADD DUP5 PUSH2 0x1EF5 JUMP JUMPDEST SWAP3 SWAP2 POP POP JUMP JUMPDEST PUSH0 DUP1 PUSH0 PUSH1 0x60 DUP5 DUP7 SUB SLT ISZERO PUSH2 0x1F34 JUMPI PUSH2 0x1F33 PUSH2 0x1CF1 JUMP JUMPDEST JUMPDEST PUSH0 PUSH2 0x1F41 DUP7 DUP3 DUP8 ADD PUSH2 0x1D6E JUMP JUMPDEST SWAP4 POP POP PUSH1 0x20 PUSH2 0x1F52 DUP7 DUP3 DUP8 ADD PUSH2 0x1D6E JUMP JUMPDEST SWAP3 POP POP PUSH1 0x40 PUSH2 0x1F63 DUP7 DUP3 DUP8 ADD PUSH2 0x1D6E JUMP JUMPDEST SWAP2 POP POP SWAP3 POP SWAP3 POP SWAP3 JUMP JUMPDEST PUSH0 DUP1 PUSH1 0x40 DUP4 DUP6 SUB SLT ISZERO PUSH2 0x1F83 JUMPI PUSH2 0x1F82 PUSH2 0x1CF1 JUMP JUMPDEST JUMPDEST PUSH0 PUSH2 0x1F90 DUP6 DUP3 DUP7 ADD PUSH2 0x1D3B JUMP JUMPDEST SWAP3 POP POP PUSH1 0x20 PUSH2 0x1FA1 DUP6 DUP3 DUP7 ADD PUSH2 0x1D3B JUMP JUMPDEST SWAP2 POP POP SWAP3 POP SWAP3 SWAP1 POP JUMP JUMPDEST PUSH32 0x4E487B7100000000000000000000000000000000000000000000000000000000 PUSH0 MSTORE PUSH1 0x22 PUSH1 0x4 MSTORE PUSH1 0x24 PUSH0 REVERT JUMPDEST PUSH0 PUSH1 0x2 DUP3 DIV SWAP1 POP PUSH1 0x1 DUP3 AND DUP1 PUSH2 0x1FEF JUMPI PUSH1 0x7F DUP3 AND SWAP2 POP JUMPDEST PUSH1 0x20 DUP3 LT DUP2 SUB PUSH2 0x2002 JUMPI PUSH2 0x2001 PUSH2 0x1FAB JUMP JUMPDEST JUMPDEST POP SWAP2 SWAP1 POP JUMP JUMPDEST PUSH32 0x4E487B7100000000000000000000000000000000000000000000000000000000 PUSH0 MSTORE PUSH1 0x11 PUSH1 0x4 MSTORE PUSH1 0x24 PUSH0 REVERT JUMPDEST PUSH0 PUSH2 0x203F DUP3 PUSH2 0x1D4F JUMP JUMPDEST SWAP2 POP PUSH2 0x204A DUP4 PUSH2 0x1D4F JUMP JUMPDEST SWAP3 POP DUP3 DUP3 SUB SWAP1 POP DUP2 DUP2 GT ISZERO PUSH2 0x2062 JUMPI PUSH2 0x2061 PUSH2 0x2008 JUMP JUMPDEST JUMPDEST SWAP3 SWAP2 POP POP JUMP JUMPDEST PUSH32 0x436F6E7472616374206973206E6F742070617573656400000000000000000000 PUSH0 DUP3 ADD MSTORE POP JUMP JUMPDEST PUSH0 PUSH2 0x209C PUSH1 0x16 DUP4 PUSH2 0x1C51 JUMP JUMPDEST SWAP2 POP PUSH2 0x20A7 DUP3 PUSH2 0x2068 JUMP JUMPDEST PUSH1 0x20 DUP3 ADD SWAP1 POP SWAP2 SWAP1 POP JUMP JUMPDEST PUSH0 PUSH1 0x20 DUP3 ADD SWAP1 POP DUP2 DUP2 SUB PUSH0 DUP4 ADD MSTORE PUSH2 0x20C9 DUP2 PUSH2 0x2090 JUMP JUMPDEST SWAP1 POP SWAP2 SWAP1 POP JUMP JUMPDEST PUSH32 0x436F6E7472616374206973207061757365640000000000000000000000000000 PUSH0 DUP3 ADD MSTORE POP JUMP JUMPDEST PUSH0 PUSH2 0x2104 PUSH1 0x12 DUP4 PUSH2 0x1C51 JUMP JUMPDEST SWAP2 POP PUSH2 0x210F DUP3 PUSH2 0x20D0 JUMP JUMPDEST PUSH1 0x20 DUP3 ADD SWAP1 POP SWAP2 SWAP1 POP JUMP JUMPDEST PUSH0 PUSH1 0x20 DUP3 ADD SWAP1 POP DUP2 DUP2 SUB PUSH0 DUP4 ADD MSTORE PUSH2 0x2131 DUP2 PUSH2 0x20F8 JUMP JUMPDEST SWAP1 POP SWAP2 SWAP1 POP JUMP JUMPDEST PUSH32 0x4163636F756E7420697320616C7265616479206C6F636B656400000000000000 PUSH0 DUP3 ADD MSTORE POP JUMP JUMPDEST PUSH0 PUSH2 0x216C PUSH1 0x19 DUP4 PUSH2 0x1C51 JUMP JUMPDEST SWAP2 POP PUSH2 0x2177 DUP3 PUSH2 0x2138 JUMP JUMPDEST PUSH1 0x20 DUP3 ADD SWAP1 POP SWAP2 SWAP1 POP JUMP JUMPDEST PUSH0 PUSH1 0x20 DUP3 ADD SWAP1 POP DUP2 DUP2 SUB PUSH0 DUP4 ADD MSTORE PUSH2 0x2199 DUP2 PUSH2 0x2160 JUMP JUMPDEST SWAP1 POP SWAP2 SWAP1 POP JUMP JUMPDEST PUSH32 0x4E6F7420617574686F72697A6564000000000000000000000000000000000000 PUSH0 DUP3 ADD MSTORE POP JUMP JUMPDEST PUSH0 PUSH2 0x21D4 PUSH1 0xE DUP4 PUSH2 0x1C51 JUMP JUMPDEST SWAP2 POP PUSH2 0x21DF DUP3 PUSH2 0x21A0 JUMP JUMPDEST PUSH1 0x20 DUP3 ADD SWAP1 POP SWAP2 SWAP1 POP JUMP JUMPDEST PUSH0 PUSH1 0x20 DUP3 ADD SWAP1 POP DUP2 DUP2 SUB PUSH0 DUP4 ADD MSTORE PUSH2 0x2201 DUP2 PUSH2 0x21C8 JUMP JUMPDEST SWAP1 POP SWAP2 SWAP1 POP JUMP JUMPDEST PUSH0 PUSH2 0x2212 DUP3 PUSH2 0x1D4F JUMP JUMPDEST SWAP2 POP PUSH2 0x221D DUP4 PUSH2 0x1D4F JUMP JUMPDEST SWAP3 POP DUP3 DUP3 ADD SWAP1 POP DUP1 DUP3 GT ISZERO PUSH2 0x2235 JUMPI PUSH2 0x2234 PUSH2 0x2008 JUMP JUMPDEST JUMPDEST SWAP3 SWAP2 POP POP JUMP JUMPDEST PUSH32 0x4163636F756E74206973206E6F74206C6F636B65640000000000000000000000 PUSH0 DUP3 ADD MSTORE POP JUMP JUMPDEST PUSH0 PUSH2 0x226F PUSH1 0x15 DUP4 PUSH2 0x1C51 JUMP JUMPDEST SWAP2 POP PUSH2 0x227A DUP3 PUSH2 0x223B JUMP JUMPDEST PUSH1 0x20 DUP3 ADD SWAP1 POP SWAP2 SWAP1 POP JUMP JUMPDEST PUSH0 PUSH1 0x20 DUP3 ADD SWAP1 POP DUP2 DUP2 SUB PUSH0 DUP4 ADD MSTORE PUSH2 0x229C DUP2 PUSH2 0x2263 JUMP JUMPDEST SWAP1 POP SWAP2 SWAP1 POP JUMP JUMPDEST PUSH32 0x56616C7565206D75737420626520706F73697469766500000000000000000000 PUSH0 DUP3 ADD MSTORE POP JUMP JUMPDEST PUSH0 PUSH2 0x22D7 PUSH1 0x16 DUP4 PUSH2 0x1C51 JUMP JUMPDEST SWAP2 POP PUSH2 0x22E2 DUP3 PUSH2 0x22A3 JUMP JUMPDEST PUSH1 0x20 DUP3 ADD SWAP1 POP SWAP2 SWAP1 POP JUMP JUMPDEST PUSH0 PUSH1 0x20 DUP3 ADD SWAP1 POP DUP2 DUP2 SUB PUSH0 DUP4 ADD MSTORE PUSH2 0x2304 DUP2 PUSH2 0x22CB JUMP JUMPDEST SWAP1 POP SWAP2 SWAP1 POP JUMP JUMPDEST PUSH32 0x50657263656E74616765206D757374206265206265747765656E203020616E64 PUSH0 DUP3 ADD MSTORE PUSH32 0x2031303000000000000000000000000000000000000000000000000000000000 PUSH1 0x20 DUP3 ADD MSTORE POP JUMP JUMPDEST PUSH0 PUSH2 0x2365 PUSH1 0x24 DUP4 PUSH2 0x1C51 JUMP JUMPDEST SWAP2 POP PUSH2 0x2370 DUP3 PUSH2 0x230B JUMP JUMPDEST PUSH1 0x40 DUP3 ADD SWAP1 POP SWAP2 SWAP1 POP JUMP JUMPDEST PUSH0 PUSH1 0x20 DUP3 ADD SWAP1 POP DUP2 DUP2 SUB PUSH0 DUP4 ADD MSTORE PUSH2 0x2392 DUP2 PUSH2 0x2359 JUMP JUMPDEST SWAP1 POP SWAP2 SWAP1 POP JUMP JUMPDEST PUSH0 PUSH1 0x60 DUP3 ADD SWAP1 POP PUSH2 0x23AC PUSH0 DUP4 ADD DUP7 PUSH2 0x1DF3 JUMP JUMPDEST PUSH2 0x23B9 PUSH1 0x20 DUP4 ADD DUP6 PUSH2 0x1DF3 JUMP JUMPDEST PUSH2 0x23C6 PUSH1 0x40 DUP4 ADD DUP5 PUSH2 0x1DF3 JUMP JUMPDEST SWAP5 SWAP4 POP POP POP POP JUMP JUMPDEST PUSH32 0x4163636F756E74206973206C6F636B6564000000000000000000000000000000 PUSH0 DUP3 ADD MSTORE POP JUMP JUMPDEST PUSH0 PUSH2 0x2402 PUSH1 0x11 DUP4 PUSH2 0x1C51 JUMP JUMPDEST SWAP2 POP PUSH2 0x240D DUP3 PUSH2 0x23CE JUMP JUMPDEST PUSH1 0x20 DUP3 ADD SWAP1 POP SWAP2 SWAP1 POP JUMP JUMPDEST PUSH0 PUSH1 0x20 DUP3 ADD SWAP1 POP DUP2 DUP2 SUB PUSH0 DUP4 ADD MSTORE PUSH2 0x242F DUP2 PUSH2 0x23F6 JUMP JUMPDEST SWAP1 POP SWAP2 SWAP1 POP JUMP JUMPDEST PUSH32 0x5472616E7366657273206172652063757272656E746C79206C6F636B6564206F PUSH0 DUP3 ADD MSTORE PUSH32 0x72206E6F7420616C6C6F7765642E000000000000000000000000000000000000 PUSH1 0x20 DUP3 ADD MSTORE POP JUMP JUMPDEST PUSH0 PUSH2 0x2490 PUSH1 0x2E DUP4 PUSH2 0x1C51 JUMP JUMPDEST SWAP2 POP PUSH2 0x249B DUP3 PUSH2 0x2436 JUMP JUMPDEST PUSH1 0x40 DUP3 ADD SWAP1 POP SWAP2 SWAP1 POP JUMP JUMPDEST PUSH0 PUSH1 0x20 DUP3 ADD SWAP1 POP DUP2 DUP2 SUB PUSH0 DUP4 ADD MSTORE PUSH2 0x24BD DUP2 PUSH2 0x2484 JUMP JUMPDEST SWAP1 POP SWAP2 SWAP1 POP JUMP JUMPDEST PUSH0 PUSH2 0x24CE DUP3 PUSH2 0x1D4F JUMP JUMPDEST SWAP2 POP PUSH2 0x24D9 DUP4 PUSH2 0x1D4F JUMP JUMPDEST SWAP3 POP DUP3 DUP3 MUL PUSH2 0x24E7 DUP2 PUSH2 0x1D4F JUMP JUMPDEST SWAP2 POP DUP3 DUP3 DIV DUP5 EQ DUP4 ISZERO OR PUSH2 0x24FE JUMPI PUSH2 0x24FD PUSH2 0x2008 JUMP JUMPDEST JUMPDEST POP SWAP3 SWAP2 POP POP JUMP JUMPDEST PUSH32 0x4E487B7100000000000000000000000000000000000000000000000000000000 PUSH0 MSTORE PUSH1 0x12 PUSH1 0x4 MSTORE PUSH1 0x24 PUSH0 REVERT JUMPDEST PUSH0 PUSH2 0x253C DUP3 PUSH2 0x1D4F JUMP JUMPDEST SWAP2 POP PUSH2 0x2547 DUP4 PUSH2 0x1D4F JUMP JUMPDEST SWAP3 POP DUP3 PUSH2 0x2557 JUMPI PUSH2 0x2556 PUSH2 0x2505 JUMP JUMPDEST JUMPDEST DUP3 DUP3 DIV SWAP1 POP SWAP3 SWAP2 POP POP JUMP JUMPDEST PUSH32 0x5061757361626C653A206E6F7420706175736564000000000000000000000000 PUSH0 DUP3 ADD MSTORE POP JUMP JUMPDEST PUSH0 PUSH2 0x2596 PUSH1 0x14 DUP4 PUSH2 0x1C51 JUMP JUMPDEST SWAP2 POP PUSH2 0x25A1 DUP3 PUSH2 0x2562 JUMP JUMPDEST PUSH1 0x20 DUP3 ADD SWAP1 POP SWAP2 SWAP1 POP JUMP JUMPDEST PUSH0 PUSH1 0x20 DUP3 ADD SWAP1 POP DUP2 DUP2 SUB PUSH0 DUP4 ADD MSTORE PUSH2 0x25C3 DUP2 PUSH2 0x258A JUMP JUMPDEST SWAP1 POP SWAP2 SWAP1 POP JUMP JUMPDEST PUSH0 PUSH1 0x60 DUP3 ADD SWAP1 POP PUSH2 0x25DD PUSH0 DUP4 ADD DUP7 PUSH2 0x1EF5 JUMP JUMPDEST PUSH2 0x25EA PUSH1 0x20 DUP4 ADD DUP6 PUSH2 0x1DF3 JUMP JUMPDEST PUSH2 0x25F7 PUSH1 0x40 DUP4 ADD DUP5 PUSH2 0x1DF3 JUMP JUMPDEST SWAP5 SWAP4 POP POP POP POP JUMP JUMPDEST PUSH32 0x5061757361626C653A2070617573656400000000000000000000000000000000 PUSH0 DUP3 ADD MSTORE POP JUMP JUMPDEST PUSH0 PUSH2 0x2633 PUSH1 0x10 DUP4 PUSH2 0x1C51 JUMP JUMPDEST SWAP2 POP PUSH2 0x263E DUP3 PUSH2 0x25FF JUMP JUMPDEST PUSH1 0x20 DUP3 ADD SWAP1 POP SWAP2 SWAP1 POP JUMP JUMPDEST PUSH0 PUSH1 0x20 DUP3 ADD SWAP1 POP DUP2 DUP2 SUB PUSH0 DUP4 ADD MSTORE PUSH2 0x2660 DUP2 PUSH2 0x2627 JUMP JUMPDEST SWAP1 POP SWAP2 SWAP1 POP JUMP INVALID LOG2 PUSH5 0x6970667358 0x22 SLT KECCAK256 PUSH31 0x7129FE67A98043D1693FC69C06E1687552ED3669D03E6A545C16A176B3FD3C PUSH5 0x736F6C6343 STOP ADDMOD EQ STOP CALLER "
				},
				"gasEstimates": {
					"creation": {
						"codeDepositCost": "1977000",
						"executionCost": "infinite",
						"totalCost": "infinite"
					},
					"external": {
						"adoptionFactor()": "2469",
						"adoptionPercentage()": "2514",
						"allowance(address,address)": "infinite",
						"approve(address,uint256)": "infinite",
						"balanceOf(address)": "2940",
						"baseRate()": "2515",
						"burn(uint256)": "infinite",
						"decimals()": "472",
						"isAccountLocked(address)": "2915",
						"lockAccount(address)": "infinite",
						"mint(address,uint256)": "infinite",
						"name()": "infinite",
						"owner()": "2626",
						"pause()": "infinite",
						"paused()": "2591",
						"renounceOwnership()": "infinite",
						"setGeneralFee(uint256,uint256,uint256)": "infinite",
						"setTransferLock(uint256)": "infinite",
						"setTransferUnlock()": "9725",
						"symbol()": "infinite",
						"totalSupply()": "2500",
						"transfer(address,uint256)": "infinite",
						"transferFrom(address,address,uint256)": "infinite",
						"transferOwnership(address)": "infinite",
						"unlockAccount(address)": "infinite",
						"unpause()": "infinite"
					},
					"internal": {
						"_transferWithFee(address,address,uint256)": "infinite",
						"calculateTransactionFee(uint256)": "infinite"
					}
				},
				"methodIdentifiers": {
					"adoptionFactor()": "daf82428",
					"adoptionPercentage()": "66da7827",
					"allowance(address,address)": "dd62ed3e",
					"approve(address,uint256)": "095ea7b3",
					"balanceOf(address)": "70a08231",
					"baseRate()": "1f68f20a",
					"burn(uint256)": "42966c68",
					"decimals()": "313ce567",
					"isAccountLocked(address)": "74eb9b68",
					"lockAccount(address)": "47a64f44",
					"mint(address,uint256)": "40c10f19",
					"name()": "06fdde03",
					"owner()": "8da5cb5b",
					"pause()": "8456cb59",
					"paused()": "5c975abb",
					"renounceOwnership()": "715018a6",
					"setGeneralFee(uint256,uint256,uint256)": "ac618323",
					"setTransferLock(uint256)": "7f81f0b9",
					"setTransferUnlock()": "f0122bf6",
					"symbol()": "95d89b41",
					"totalSupply()": "18160ddd",
					"transfer(address,uint256)": "a9059cbb",
					"transferFrom(address,address,uint256)": "23b872dd",
					"transferOwnership(address)": "f2fde38b",
					"unlockAccount(address)": "905295e3",
					"unpause()": "3f4ba83a"
				}
			},
			"storageLayout": {
				"storage": [
					{
						"astId": 480,
						"contract": "contracts/NNTHToken.sol:NNTHToken",
						"label": "_balances",
						"offset": 0,
						"slot": "0",
						"type": "t_mapping(t_address,t_uint256)"
					},
					{
						"astId": 486,
						"contract": "contracts/NNTHToken.sol:NNTHToken",
						"label": "_allowances",
						"offset": 0,
						"slot": "1",
						"type": "t_mapping(t_address,t_mapping(t_address,t_uint256))"
					},
					{
						"astId": 488,
						"contract": "contracts/NNTHToken.sol:NNTHToken",
						"label": "_totalSupply",
						"offset": 0,
						"slot": "2",
						"type": "t_uint256"
					},
					{
						"astId": 490,
						"contract": "contracts/NNTHToken.sol:NNTHToken",
						"label": "_name",
						"offset": 0,
						"slot": "3",
						"type": "t_string_storage"
					},
					{
						"astId": 492,
						"contract": "contracts/NNTHToken.sol:NNTHToken",
						"label": "_symbol",
						"offset": 0,
						"slot": "4",
						"type": "t_string_storage"
					},
					{
						"astId": 8,
						"contract": "contracts/NNTHToken.sol:NNTHToken",
						"label": "_owner",
						"offset": 0,
						"slot": "5",
						"type": "t_address"
					},
					{
						"astId": 302,
						"contract": "contracts/NNTHToken.sol:NNTHToken",
						"label": "_paused",
						"offset": 20,
						"slot": "5",
						"type": "t_bool"
					},
					{
						"astId": 1111,
						"contract": "contracts/NNTHToken.sol:NNTHToken",
						"label": "_transferLockEndTime",
						"offset": 0,
						"slot": "6",
						"type": "t_uint256"
					},
					{
						"astId": 1115,
						"contract": "contracts/NNTHToken.sol:NNTHToken",
						"label": "_isLocked",
						"offset": 0,
						"slot": "7",
						"type": "t_mapping(t_address,t_bool)"
					},
					{
						"astId": 1118,
						"contract": "contracts/NNTHToken.sol:NNTHToken",
						"label": "baseRate",
						"offset": 0,
						"slot": "8",
						"type": "t_uint256"
					},
					{
						"astId": 1121,
						"contract": "contracts/NNTHToken.sol:NNTHToken",
						"label": "adoptionFactor",
						"offset": 0,
						"slot": "9",
						"type": "t_uint256"
					},
					{
						"astId": 1124,
						"contract": "contracts/NNTHToken.sol:NNTHToken",
						"label": "adoptionPercentage",
						"offset": 0,
						"slot": "10",
						"type": "t_uint256"
					}
				],
				"types": {
					"t_address": {
						"encoding": "inplace",
						"label": "address",
						"numberOfBytes": "20"
					},
					"t_bool": {
						"encoding": "inplace",
						"label": "bool",
						"numberOfBytes": "1"
					},
					"t_mapping(t_address,t_bool)": {
						"encoding": "mapping",
						"key": "t_address",
						"label": "mapping(address => bool)",
						"numberOfBytes": "32",
						"value": "t_bool"
					},
					"t_mapping(t_address,t_mapping(t_address,t_uint256))": {
						"encoding": "mapping",
						"key": "t_address",
						"label": "mapping(address => mapping(address => uint256))",
						"numberOfBytes": "32",
						"value": "t_mapping(t_address,t_uint256)"
					},
					"t_mapping(t_address,t_uint256)": {
						"encoding": "mapping",
						"key": "t_address",
						"label": "mapping(address => uint256)",
						"numberOfBytes": "32",
						"value": "t_uint256"
					},
					"t_string_storage": {
						"encoding": "bytes",
						"label": "string",
						"numberOfBytes": "32"
					},
					"t_uint256": {
						"encoding": "inplace",
						"label": "uint256",
						"numberOfBytes": "32"
					}
				}
			},
			"userdoc": {
				"kind": "user",
				"methods": {},
				"version": 1
			}
		}
	}
}