{
	"contracts/ProofOfStudy.sol": {
		"ProofOfStudy": {
			"abi": [
				{
					"inputs": [
						{
							"internalType": "address",
							"name": "_tokenAddress",
							"type": "address"
						},
						{
							"internalType": "uint256",
							"name": "_totalAvailableRewards",
							"type": "uint256"
						},
						{
							"internalType": "uint256",
							"name": "_totalTokenCirculation",
							"type": "uint256"
						}
					],
					"stateMutability": "nonpayable",
					"type": "constructor"
				},
				{
					"anonymous": false,
					"inputs": [
						{
							"indexed": true,
							"internalType": "address",
							"name": "student",
							"type": "address"
						},
						{
							"indexed": false,
							"internalType": "uint256",
							"name": "amount",
							"type": "uint256"
						}
					],
					"name": "RewardsClaimed",
					"type": "event"
				},
				{
					"inputs": [],
					"name": "CATEGORY_A_PERCENTAGE",
					"outputs": [
						{
							"internalType": "uint8",
							"name": "",
							"type": "uint8"
						}
					],
					"stateMutability": "view",
					"type": "function"
				},
				{
					"inputs": [],
					"name": "CATEGORY_B_PERCENTAGE",
					"outputs": [
						{
							"internalType": "uint8",
							"name": "",
							"type": "uint8"
						}
					],
					"stateMutability": "view",
					"type": "function"
				},
				{
					"inputs": [],
					"name": "CATEGORY_C_PERCENTAGE",
					"outputs": [
						{
							"internalType": "uint8",
							"name": "",
							"type": "uint8"
						}
					],
					"stateMutability": "view",
					"type": "function"
				},
				{
					"inputs": [],
					"name": "CATEGORY_D_PERCENTAGE",
					"outputs": [
						{
							"internalType": "uint8",
							"name": "",
							"type": "uint8"
						}
					],
					"stateMutability": "view",
					"type": "function"
				},
				{
					"inputs": [],
					"name": "CATEGORY_E_PERCENTAGE",
					"outputs": [
						{
							"internalType": "uint8",
							"name": "",
							"type": "uint8"
						}
					],
					"stateMutability": "view",
					"type": "function"
				},
				{
					"inputs": [
						{
							"internalType": "uint8",
							"name": "category",
							"type": "uint8"
						}
					],
					"name": "calculateCategoryReward",
					"outputs": [
						{
							"internalType": "uint256",
							"name": "",
							"type": "uint256"
						}
					],
					"stateMutability": "view",
					"type": "function"
				},
				{
					"inputs": [
						{
							"internalType": "address",
							"name": "student",
							"type": "address"
						},
						{
							"internalType": "uint8",
							"name": "category",
							"type": "uint8"
						}
					],
					"name": "checkCategoryStatus",
					"outputs": [
						{
							"internalType": "bool",
							"name": "",
							"type": "bool"
						}
					],
					"stateMutability": "view",
					"type": "function"
				},
				{
					"inputs": [
						{
							"internalType": "uint8",
							"name": "category",
							"type": "uint8"
						}
					],
					"name": "claimReward",
					"outputs": [],
					"stateMutability": "nonpayable",
					"type": "function"
				},
				{
					"inputs": [
						{
							"internalType": "address",
							"name": "",
							"type": "address"
						}
					],
					"name": "hasCompletedCategoryA",
					"outputs": [
						{
							"internalType": "bool",
							"name": "",
							"type": "bool"
						}
					],
					"stateMutability": "view",
					"type": "function"
				},
				{
					"inputs": [
						{
							"internalType": "address",
							"name": "",
							"type": "address"
						}
					],
					"name": "hasCompletedCategoryB",
					"outputs": [
						{
							"internalType": "bool",
							"name": "",
							"type": "bool"
						}
					],
					"stateMutability": "view",
					"type": "function"
				},
				{
					"inputs": [
						{
							"internalType": "address",
							"name": "",
							"type": "address"
						}
					],
					"name": "hasCompletedCategoryC",
					"outputs": [
						{
							"internalType": "bool",
							"name": "",
							"type": "bool"
						}
					],
					"stateMutability": "view",
					"type": "function"
				},
				{
					"inputs": [
						{
							"internalType": "address",
							"name": "",
							"type": "address"
						}
					],
					"name": "hasCompletedCategoryD",
					"outputs": [
						{
							"internalType": "bool",
							"name": "",
							"type": "bool"
						}
					],
					"stateMutability": "view",
					"type": "function"
				},
				{
					"inputs": [
						{
							"internalType": "address",
							"name": "",
							"type": "address"
						}
					],
					"name": "hasCompletedCategoryE",
					"outputs": [
						{
							"internalType": "bool",
							"name": "",
							"type": "bool"
						}
					],
					"stateMutability": "view",
					"type": "function"
				},
				{
					"inputs": [],
					"name": "owner",
					"outputs": [
						{
							"internalType": "address",
							"name": "",
							"type": "address"
						}
					],
					"stateMutability": "view",
					"type": "function"
				},
				{
					"inputs": [
						{
							"internalType": "address",
							"name": "student",
							"type": "address"
						},
						{
							"internalType": "uint8",
							"name": "category",
							"type": "uint8"
						}
					],
					"name": "removeCategoryCompletion",
					"outputs": [],
					"stateMutability": "nonpayable",
					"type": "function"
				},
				{
					"inputs": [
						{
							"internalType": "address",
							"name": "student",
							"type": "address"
						},
						{
							"internalType": "uint8",
							"name": "category",
							"type": "uint8"
						}
					],
					"name": "setCategoryCompletion",
					"outputs": [],
					"stateMutability": "nonpayable",
					"type": "function"
				},
				{
					"inputs": [
						{
							"internalType": "uint256",
							"name": "amount",
							"type": "uint256"
						}
					],
					"name": "setTotalAvailableRewards",
					"outputs": [],
					"stateMutability": "nonpayable",
					"type": "function"
				},
				{
					"inputs": [
						{
							"internalType": "uint256",
							"name": "amount",
							"type": "uint256"
						}
					],
					"name": "setTotalTokenCirculation",
					"outputs": [],
					"stateMutability": "nonpayable",
					"type": "function"
				},
				{
					"inputs": [],
					"name": "totalAvailableRewards",
					"outputs": [
						{
							"internalType": "uint256",
							"name": "",
							"type": "uint256"
						}
					],
					"stateMutability": "view",
					"type": "function"
				},
				{
					"inputs": [],
					"name": "totalTokenCirculation",
					"outputs": [
						{
							"internalType": "uint256",
							"name": "",
							"type": "uint256"
						}
					],
					"stateMutability": "view",
					"type": "function"
				}
			],
			"devdoc": {
				"kind": "dev",
				"methods": {},
				"version": 1
			},
			"evm": {
				"assembly": "    /* \"contracts/ProofOfStudy.sol\":147:5120  contract ProofOfStudy is ReentrancyGuard {... */\n  mstore(0x40, 0x80)\n    /* \"contracts/ProofOfStudy.sol\":1476:1769  constructor(address _tokenAddress, uint256 _totalAvailableRewards, uint256 _totalTokenCirculation) {... */\n  callvalue\n  dup1\n  iszero\n  tag_1\n  jumpi\n  0x00\n  dup1\n  revert\ntag_1:\n  pop\n  mload(0x40)\n  sub(codesize, bytecodeSize)\n  dup1\n  bytecodeSize\n  dup4\n  codecopy\n  dup2\n  dup2\n  add\n  0x40\n  mstore\n  dup2\n  add\n  swap1\n  tag_2\n  swap2\n  swap1\n  tag_3\n  jump\t// in\ntag_2:\n    /* \"@openzeppelin/contracts/security/ReentrancyGuard.sol\":1716:1717  1 */\n  0x01\n    /* \"@openzeppelin/contracts/security/ReentrancyGuard.sol\":1821:1828  _status */\n  0x00\n    /* \"@openzeppelin/contracts/security/ReentrancyGuard.sol\":1821:1843  _status = _NOT_ENTERED */\n  dup2\n  swap1\n  sstore\n  pop\n    /* \"contracts/ProofOfStudy.sol\":1608:1621  _tokenAddress */\n  dup3\n    /* \"contracts/ProofOfStudy.sol\":1585:1595  _nnthToken */\n  0x01\n  0x00\n    /* \"contracts/ProofOfStudy.sol\":1585:1622  _nnthToken = NNTHToken(_tokenAddress) */\n  0x0100\n  exp\n  dup2\n  sload\n  dup2\n  0xffffffffffffffffffffffffffffffffffffffff\n  mul\n  not\n  and\n  swap1\n  dup4\n  0xffffffffffffffffffffffffffffffffffffffff\n  and\n  mul\n  or\n  swap1\n  sstore\n  pop\n    /* \"contracts/ProofOfStudy.sol\":1640:1650  msg.sender */\n  caller\n    /* \"contracts/ProofOfStudy.sol\":1632:1637  owner */\n  0x02\n  0x00\n    /* \"contracts/ProofOfStudy.sol\":1632:1650  owner = msg.sender */\n  0x0100\n  exp\n  dup2\n  sload\n  dup2\n  0xffffffffffffffffffffffffffffffffffffffff\n  mul\n  not\n  and\n  swap1\n  dup4\n  0xffffffffffffffffffffffffffffffffffffffff\n  and\n  mul\n  or\n  swap1\n  sstore\n  pop\n    /* \"contracts/ProofOfStudy.sol\":1684:1706  _totalAvailableRewards */\n  dup2\n    /* \"contracts/ProofOfStudy.sol\":1660:1681  totalAvailableRewards */\n  0x03\n    /* \"contracts/ProofOfStudy.sol\":1660:1706  totalAvailableRewards = _totalAvailableRewards */\n  dup2\n  swap1\n  sstore\n  pop\n    /* \"contracts/ProofOfStudy.sol\":1740:1762  _totalTokenCirculation */\n  dup1\n    /* \"contracts/ProofOfStudy.sol\":1716:1737  totalTokenCirculation */\n  0x04\n    /* \"contracts/ProofOfStudy.sol\":1716:1762  totalTokenCirculation = _totalTokenCirculation */\n  dup2\n  swap1\n  sstore\n  pop\n    /* \"contracts/ProofOfStudy.sol\":1476:1769  constructor(address _tokenAddress, uint256 _totalAvailableRewards, uint256 _totalTokenCirculation) {... */\n  pop\n  pop\n  pop\n    /* \"contracts/ProofOfStudy.sol\":147:5120  contract ProofOfStudy is ReentrancyGuard {... */\n  jump(tag_8)\n    /* \"#utility.yul\":88:205   */\ntag_10:\n    /* \"#utility.yul\":197:198   */\n  0x00\n    /* \"#utility.yul\":194:195   */\n  dup1\n    /* \"#utility.yul\":187:199   */\n  revert\n    /* \"#utility.yul\":334:460   */\ntag_12:\n    /* \"#utility.yul\":371:378   */\n  0x00\n    /* \"#utility.yul\":411:453   */\n  0xffffffffffffffffffffffffffffffffffffffff\n    /* \"#utility.yul\":404:409   */\n  dup3\n    /* \"#utility.yul\":400:454   */\n  and\n    /* \"#utility.yul\":389:454   */\n  swap1\n  pop\n    /* \"#utility.yul\":334:460   */\n  swap2\n  swap1\n  pop\n  jump\t// out\n    /* \"#utility.yul\":466:562   */\ntag_13:\n    /* \"#utility.yul\":503:510   */\n  0x00\n    /* \"#utility.yul\":532:556   */\n  tag_25\n    /* \"#utility.yul\":550:555   */\n  dup3\n    /* \"#utility.yul\":532:556   */\n  tag_12\n  jump\t// in\ntag_25:\n    /* \"#utility.yul\":521:556   */\n  swap1\n  pop\n    /* \"#utility.yul\":466:562   */\n  swap2\n  swap1\n  pop\n  jump\t// out\n    /* \"#utility.yul\":568:690   */\ntag_14:\n    /* \"#utility.yul\":641:665   */\n  tag_27\n    /* \"#utility.yul\":659:664   */\n  dup2\n    /* \"#utility.yul\":641:665   */\n  tag_13\n  jump\t// in\ntag_27:\n    /* \"#utility.yul\":634:639   */\n  dup2\n    /* \"#utility.yul\":631:666   */\n  eq\n    /* \"#utility.yul\":621:684   */\n  tag_28\n  jumpi\n    /* \"#utility.yul\":680:681   */\n  0x00\n    /* \"#utility.yul\":677:678   */\n  dup1\n    /* \"#utility.yul\":670:682   */\n  revert\n    /* \"#utility.yul\":621:684   */\ntag_28:\n    /* \"#utility.yul\":568:690   */\n  pop\n  jump\t// out\n    /* \"#utility.yul\":696:839   */\ntag_15:\n    /* \"#utility.yul\":753:758   */\n  0x00\n    /* \"#utility.yul\":784:790   */\n  dup2\n    /* \"#utility.yul\":778:791   */\n  mload\n    /* \"#utility.yul\":769:791   */\n  swap1\n  pop\n    /* \"#utility.yul\":800:833   */\n  tag_30\n    /* \"#utility.yul\":827:832   */\n  dup2\n    /* \"#utility.yul\":800:833   */\n  tag_14\n  jump\t// in\ntag_30:\n    /* \"#utility.yul\":696:839   */\n  swap3\n  swap2\n  pop\n  pop\n  jump\t// out\n    /* \"#utility.yul\":845:922   */\ntag_16:\n    /* \"#utility.yul\":882:889   */\n  0x00\n    /* \"#utility.yul\":911:916   */\n  dup2\n    /* \"#utility.yul\":900:916   */\n  swap1\n  pop\n    /* \"#utility.yul\":845:922   */\n  swap2\n  swap1\n  pop\n  jump\t// out\n    /* \"#utility.yul\":928:1050   */\ntag_17:\n    /* \"#utility.yul\":1001:1025   */\n  tag_33\n    /* \"#utility.yul\":1019:1024   */\n  dup2\n    /* \"#utility.yul\":1001:1025   */\n  tag_16\n  jump\t// in\ntag_33:\n    /* \"#utility.yul\":994:999   */\n  dup2\n    /* \"#utility.yul\":991:1026   */\n  eq\n    /* \"#utility.yul\":981:1044   */\n  tag_34\n  jumpi\n    /* \"#utility.yul\":1040:1041   */\n  0x00\n    /* \"#utility.yul\":1037:1038   */\n  dup1\n    /* \"#utility.yul\":1030:1042   */\n  revert\n    /* \"#utility.yul\":981:1044   */\ntag_34:\n    /* \"#utility.yul\":928:1050   */\n  pop\n  jump\t// out\n    /* \"#utility.yul\":1056:1199   */\ntag_18:\n    /* \"#utility.yul\":1113:1118   */\n  0x00\n    /* \"#utility.yul\":1144:1150   */\n  dup2\n    /* \"#utility.yul\":1138:1151   */\n  mload\n    /* \"#utility.yul\":1129:1151   */\n  swap1\n  pop\n    /* \"#utility.yul\":1160:1193   */\n  tag_36\n    /* \"#utility.yul\":1187:1192   */\n  dup2\n    /* \"#utility.yul\":1160:1193   */\n  tag_17\n  jump\t// in\ntag_36:\n    /* \"#utility.yul\":1056:1199   */\n  swap3\n  swap2\n  pop\n  pop\n  jump\t// out\n    /* \"#utility.yul\":1205:1868   */\ntag_3:\n    /* \"#utility.yul\":1293:1299   */\n  0x00\n    /* \"#utility.yul\":1301:1307   */\n  dup1\n    /* \"#utility.yul\":1309:1315   */\n  0x00\n    /* \"#utility.yul\":1358:1360   */\n  0x60\n    /* \"#utility.yul\":1346:1355   */\n  dup5\n    /* \"#utility.yul\":1337:1344   */\n  dup7\n    /* \"#utility.yul\":1333:1356   */\n  sub\n    /* \"#utility.yul\":1329:1361   */\n  slt\n    /* \"#utility.yul\":1326:1445   */\n  iszero\n  tag_38\n  jumpi\n    /* \"#utility.yul\":1364:1443   */\n  tag_39\n  tag_10\n  jump\t// in\ntag_39:\n    /* \"#utility.yul\":1326:1445   */\ntag_38:\n    /* \"#utility.yul\":1484:1485   */\n  0x00\n    /* \"#utility.yul\":1509:1573   */\n  tag_40\n    /* \"#utility.yul\":1565:1572   */\n  dup7\n    /* \"#utility.yul\":1556:1562   */\n  dup3\n    /* \"#utility.yul\":1545:1554   */\n  dup8\n    /* \"#utility.yul\":1541:1563   */\n  add\n    /* \"#utility.yul\":1509:1573   */\n  tag_15\n  jump\t// in\ntag_40:\n    /* \"#utility.yul\":1499:1573   */\n  swap4\n  pop\n    /* \"#utility.yul\":1455:1583   */\n  pop\n    /* \"#utility.yul\":1622:1624   */\n  0x20\n    /* \"#utility.yul\":1648:1712   */\n  tag_41\n    /* \"#utility.yul\":1704:1711   */\n  dup7\n    /* \"#utility.yul\":1695:1701   */\n  dup3\n    /* \"#utility.yul\":1684:1693   */\n  dup8\n    /* \"#utility.yul\":1680:1702   */\n  add\n    /* \"#utility.yul\":1648:1712   */\n  tag_18\n  jump\t// in\ntag_41:\n    /* \"#utility.yul\":1638:1712   */\n  swap3\n  pop\n    /* \"#utility.yul\":1593:1722   */\n  pop\n    /* \"#utility.yul\":1761:1763   */\n  0x40\n    /* \"#utility.yul\":1787:1851   */\n  tag_42\n    /* \"#utility.yul\":1843:1850   */\n  dup7\n    /* \"#utility.yul\":1834:1840   */\n  dup3\n    /* \"#utility.yul\":1823:1832   */\n  dup8\n    /* \"#utility.yul\":1819:1841   */\n  add\n    /* \"#utility.yul\":1787:1851   */\n  tag_18\n  jump\t// in\ntag_42:\n    /* \"#utility.yul\":1777:1851   */\n  swap2\n  pop\n    /* \"#utility.yul\":1732:1861   */\n  pop\n    /* \"#utility.yul\":1205:1868   */\n  swap3\n  pop\n  swap3\n  pop\n  swap3\n  jump\t// out\n    /* \"contracts/ProofOfStudy.sol\":147:5120  contract ProofOfStudy is ReentrancyGuard {... */\ntag_8:\n  dataSize(sub_0)\n  dup1\n  dataOffset(sub_0)\n  0x00\n  codecopy\n  0x00\n  return\nstop\n\nsub_0: assembly {\n        /* \"contracts/ProofOfStudy.sol\":147:5120  contract ProofOfStudy is ReentrancyGuard {... */\n      mstore(0x40, 0x80)\n      callvalue\n      dup1\n      iszero\n      tag_1\n      jumpi\n      0x00\n      dup1\n      revert\n    tag_1:\n      pop\n      jumpi(tag_2, lt(calldatasize, 0x04))\n      shr(0xe0, calldataload(0x00))\n      dup1\n      0xa390e9f6\n      gt\n      tag_23\n      jumpi\n      dup1\n      0xd52b429e\n      gt\n      tag_24\n      jumpi\n      dup1\n      0xd52b429e\n      eq\n      tag_18\n      jumpi\n      dup1\n      0xe397655b\n      eq\n      tag_19\n      jumpi\n      dup1\n      0xe5f229c7\n      eq\n      tag_20\n      jumpi\n      dup1\n      0xeb74b683\n      eq\n      tag_21\n      jumpi\n      dup1\n      0xf240e1ec\n      eq\n      tag_22\n      jumpi\n      jump(tag_2)\n    tag_24:\n      dup1\n      0xa390e9f6\n      eq\n      tag_13\n      jumpi\n      dup1\n      0xaedbe682\n      eq\n      tag_14\n      jumpi\n      dup1\n      0xb0d90a75\n      eq\n      tag_15\n      jumpi\n      dup1\n      0xb681bcb3\n      eq\n      tag_16\n      jumpi\n      dup1\n      0xcd74234e\n      eq\n      tag_17\n      jumpi\n      jump(tag_2)\n    tag_23:\n      dup1\n      0x65cdab41\n      gt\n      tag_25\n      jumpi\n      dup1\n      0x65cdab41\n      eq\n      tag_8\n      jumpi\n      dup1\n      0x689f1623\n      eq\n      tag_9\n      jumpi\n      dup1\n      0x71004a2f\n      eq\n      tag_10\n      jumpi\n      dup1\n      0x7cb74e57\n      eq\n      tag_11\n      jumpi\n      dup1\n      0x8da5cb5b\n      eq\n      tag_12\n      jumpi\n      jump(tag_2)\n    tag_25:\n      dup1\n      0xae9975\n      eq\n      tag_3\n      jumpi\n      dup1\n      0x07e437a0\n      eq\n      tag_4\n      jumpi\n      dup1\n      0x34669805\n      eq\n      tag_5\n      jumpi\n      dup1\n      0x4571fdc5\n      eq\n      tag_6\n      jumpi\n      dup1\n      0x614b1751\n      eq\n      tag_7\n      jumpi\n    tag_2:\n      0x00\n      dup1\n      revert\n        /* \"contracts/ProofOfStudy.sol\":847:900  mapping(address => bool) public hasCompletedCategoryE */\n    tag_3:\n      tag_26\n      0x04\n      dup1\n      calldatasize\n      sub\n      dup2\n      add\n      swap1\n      tag_27\n      swap2\n      swap1\n      tag_28\n      jump\t// in\n    tag_27:\n      tag_29\n      jump\t// in\n    tag_26:\n      mload(0x40)\n      tag_30\n      swap2\n      swap1\n      tag_31\n      jump\t// in\n    tag_30:\n      mload(0x40)\n      dup1\n      swap2\n      sub\n      swap1\n      return\n        /* \"contracts/ProofOfStudy.sol\":297:333  uint256 public totalTokenCirculation */\n    tag_4:\n      tag_32\n      tag_33\n      jump\t// in\n    tag_32:\n      mload(0x40)\n      tag_34\n      swap2\n      swap1\n      tag_35\n      jump\t// in\n    tag_34:\n      mload(0x40)\n      dup1\n      swap2\n      sub\n      swap1\n      return\n        /* \"contracts/ProofOfStudy.sol\":394:442  uint8 public constant CATEGORY_B_PERCENTAGE = 15 */\n    tag_5:\n      tag_36\n      tag_37\n      jump\t// in\n    tag_36:\n      mload(0x40)\n      tag_38\n      swap2\n      swap1\n      tag_39\n      jump\t// in\n    tag_38:\n      mload(0x40)\n      dup1\n      swap2\n      sub\n      swap1\n      return\n        /* \"contracts/ProofOfStudy.sol\":1775:2461  function calculateCategoryReward(uint8 category) public view returns (uint256) {... */\n    tag_6:\n      tag_40\n      0x04\n      dup1\n      calldatasize\n      sub\n      dup2\n      add\n      swap1\n      tag_41\n      swap2\n      swap1\n      tag_42\n      jump\t// in\n    tag_41:\n      tag_43\n      jump\t// in\n    tag_40:\n      mload(0x40)\n      tag_44\n      swap2\n      swap1\n      tag_35\n      jump\t// in\n    tag_44:\n      mload(0x40)\n      dup1\n      swap2\n      sub\n      swap1\n      return\n        /* \"contracts/ProofOfStudy.sol\":4147:4753  function removeCategoryCompletion(address student, uint8 category) external onlyOwner {... */\n    tag_7:\n      tag_45\n      0x04\n      dup1\n      calldatasize\n      sub\n      dup2\n      add\n      swap1\n      tag_46\n      swap2\n      swap1\n      tag_47\n      jump\t// in\n    tag_46:\n      tag_48\n      jump\t// in\n    tag_45:\n      stop\n        /* \"contracts/ProofOfStudy.sol\":556:604  uint8 public constant CATEGORY_E_PERCENTAGE = 30 */\n    tag_8:\n      tag_49\n      tag_50\n      jump\t// in\n    tag_49:\n      mload(0x40)\n      tag_51\n      swap2\n      swap1\n      tag_39\n      jump\t// in\n    tag_51:\n      mload(0x40)\n      dup1\n      swap2\n      sub\n      swap1\n      return\n        /* \"contracts/ProofOfStudy.sol\":2467:2902  function claimReward(uint8 category) external nonReentrant hasCompletedCategory(msg.sender, category) {... */\n    tag_9:\n      tag_52\n      0x04\n      dup1\n      calldatasize\n      sub\n      dup2\n      add\n      swap1\n      tag_53\n      swap2\n      swap1\n      tag_42\n      jump\t// in\n    tag_53:\n      tag_54\n      jump\t// in\n    tag_52:\n      stop\n        /* \"contracts/ProofOfStudy.sol\":4759:4875  function setTotalAvailableRewards(uint256 amount) external onlyOwner {... */\n    tag_10:\n      tag_55\n      0x04\n      dup1\n      calldatasize\n      sub\n      dup2\n      add\n      swap1\n      tag_56\n      swap2\n      swap1\n      tag_57\n      jump\t// in\n    tag_56:\n      tag_58\n      jump\t// in\n    tag_55:\n      stop\n        /* \"contracts/ProofOfStudy.sol\":340:388  uint8 public constant CATEGORY_A_PERCENTAGE = 10 */\n    tag_11:\n      tag_59\n      tag_60\n      jump\t// in\n    tag_59:\n      mload(0x40)\n      tag_61\n      swap2\n      swap1\n      tag_39\n      jump\t// in\n    tag_61:\n      mload(0x40)\n      dup1\n      swap2\n      sub\n      swap1\n      return\n        /* \"contracts/ProofOfStudy.sol\":228:248  address public owner */\n    tag_12:\n      tag_62\n      tag_63\n      jump\t// in\n    tag_62:\n      mload(0x40)\n      tag_64\n      swap2\n      swap1\n      tag_65\n      jump\t// in\n    tag_64:\n      mload(0x40)\n      dup1\n      swap2\n      sub\n      swap1\n      return\n        /* \"contracts/ProofOfStudy.sol\":448:496  uint8 public constant CATEGORY_C_PERCENTAGE = 20 */\n    tag_13:\n      tag_66\n      tag_67\n      jump\t// in\n    tag_66:\n      mload(0x40)\n      tag_68\n      swap2\n      swap1\n      tag_39\n      jump\t// in\n    tag_68:\n      mload(0x40)\n      dup1\n      swap2\n      sub\n      swap1\n      return\n        /* \"contracts/ProofOfStudy.sol\":788:841  mapping(address => bool) public hasCompletedCategoryD */\n    tag_14:\n      tag_69\n      0x04\n      dup1\n      calldatasize\n      sub\n      dup2\n      add\n      swap1\n      tag_70\n      swap2\n      swap1\n      tag_28\n      jump\t// in\n    tag_70:\n      tag_71\n      jump\t// in\n    tag_69:\n      mload(0x40)\n      tag_72\n      swap2\n      swap1\n      tag_31\n      jump\t// in\n    tag_72:\n      mload(0x40)\n      dup1\n      swap2\n      sub\n      swap1\n      return\n        /* \"contracts/ProofOfStudy.sol\":670:723  mapping(address => bool) public hasCompletedCategoryB */\n    tag_15:\n      tag_73\n      0x04\n      dup1\n      calldatasize\n      sub\n      dup2\n      add\n      swap1\n      tag_74\n      swap2\n      swap1\n      tag_28\n      jump\t// in\n    tag_74:\n      tag_75\n      jump\t// in\n    tag_73:\n      mload(0x40)\n      tag_76\n      swap2\n      swap1\n      tag_31\n      jump\t// in\n    tag_76:\n      mload(0x40)\n      dup1\n      swap2\n      sub\n      swap1\n      return\n        /* \"contracts/ProofOfStudy.sol\":729:782  mapping(address => bool) public hasCompletedCategoryC */\n    tag_16:\n      tag_77\n      0x04\n      dup1\n      calldatasize\n      sub\n      dup2\n      add\n      swap1\n      tag_78\n      swap2\n      swap1\n      tag_28\n      jump\t// in\n    tag_78:\n      tag_79\n      jump\t// in\n    tag_77:\n      mload(0x40)\n      tag_80\n      swap2\n      swap1\n      tag_31\n      jump\t// in\n    tag_80:\n      mload(0x40)\n      dup1\n      swap2\n      sub\n      swap1\n      return\n        /* \"contracts/ProofOfStudy.sol\":255:291  uint256 public totalAvailableRewards */\n    tag_17:\n      tag_81\n      tag_82\n      jump\t// in\n    tag_81:\n      mload(0x40)\n      tag_83\n      swap2\n      swap1\n      tag_35\n      jump\t// in\n    tag_83:\n      mload(0x40)\n      dup1\n      swap2\n      sub\n      swap1\n      return\n        /* \"contracts/ProofOfStudy.sol\":3543:4141  function setCategoryCompletion(address student, uint8 category) external onlyOwner {... */\n    tag_18:\n      tag_84\n      0x04\n      dup1\n      calldatasize\n      sub\n      dup2\n      add\n      swap1\n      tag_85\n      swap2\n      swap1\n      tag_47\n      jump\t// in\n    tag_85:\n      tag_86\n      jump\t// in\n    tag_84:\n      stop\n        /* \"contracts/ProofOfStudy.sol\":2908:3537  function checkCategoryStatus(address student, uint8 category) external view returns (bool) {... */\n    tag_19:\n      tag_87\n      0x04\n      dup1\n      calldatasize\n      sub\n      dup2\n      add\n      swap1\n      tag_88\n      swap2\n      swap1\n      tag_47\n      jump\t// in\n    tag_88:\n      tag_89\n      jump\t// in\n    tag_87:\n      mload(0x40)\n      tag_90\n      swap2\n      swap1\n      tag_31\n      jump\t// in\n    tag_90:\n      mload(0x40)\n      dup1\n      swap2\n      sub\n      swap1\n      return\n        /* \"contracts/ProofOfStudy.sol\":611:664  mapping(address => bool) public hasCompletedCategoryA */\n    tag_20:\n      tag_91\n      0x04\n      dup1\n      calldatasize\n      sub\n      dup2\n      add\n      swap1\n      tag_92\n      swap2\n      swap1\n      tag_28\n      jump\t// in\n    tag_92:\n      tag_93\n      jump\t// in\n    tag_91:\n      mload(0x40)\n      tag_94\n      swap2\n      swap1\n      tag_31\n      jump\t// in\n    tag_94:\n      mload(0x40)\n      dup1\n      swap2\n      sub\n      swap1\n      return\n        /* \"contracts/ProofOfStudy.sol\":4881:4997  function setTotalTokenCirculation(uint256 amount) external onlyOwner {... */\n    tag_21:\n      tag_95\n      0x04\n      dup1\n      calldatasize\n      sub\n      dup2\n      add\n      swap1\n      tag_96\n      swap2\n      swap1\n      tag_57\n      jump\t// in\n    tag_96:\n      tag_97\n      jump\t// in\n    tag_95:\n      stop\n        /* \"contracts/ProofOfStudy.sol\":502:550  uint8 public constant CATEGORY_D_PERCENTAGE = 25 */\n    tag_22:\n      tag_98\n      tag_99\n      jump\t// in\n    tag_98:\n      mload(0x40)\n      tag_100\n      swap2\n      swap1\n      tag_39\n      jump\t// in\n    tag_100:\n      mload(0x40)\n      dup1\n      swap2\n      sub\n      swap1\n      return\n        /* \"contracts/ProofOfStudy.sol\":847:900  mapping(address => bool) public hasCompletedCategoryE */\n    tag_29:\n      mstore(0x20, 0x09)\n      dup1\n      0x00\n      mstore\n      keccak256(0x00, 0x40)\n      0x00\n      swap2\n      pop\n      sload\n      swap1\n      0x0100\n      exp\n      swap1\n      div\n      0xff\n      and\n      dup2\n      jump\t// out\n        /* \"contracts/ProofOfStudy.sol\":297:333  uint256 public totalTokenCirculation */\n    tag_33:\n      sload(0x04)\n      dup2\n      jump\t// out\n        /* \"contracts/ProofOfStudy.sol\":394:442  uint8 public constant CATEGORY_B_PERCENTAGE = 15 */\n    tag_37:\n        /* \"contracts/ProofOfStudy.sol\":440:442  15 */\n      0x0f\n        /* \"contracts/ProofOfStudy.sol\":394:442  uint8 public constant CATEGORY_B_PERCENTAGE = 15 */\n      dup2\n      jump\t// out\n        /* \"contracts/ProofOfStudy.sol\":1775:2461  function calculateCategoryReward(uint8 category) public view returns (uint256) {... */\n    tag_43:\n        /* \"contracts/ProofOfStudy.sol\":1845:1852  uint256 */\n      0x00\n        /* \"contracts/ProofOfStudy.sol\":1884:1885  1 */\n      0x01\n        /* \"contracts/ProofOfStudy.sol\":1872:1880  category */\n      dup3\n        /* \"contracts/ProofOfStudy.sol\":1872:1885  category >= 1 */\n      0xff\n      and\n      lt\n      iszero\n        /* \"contracts/ProofOfStudy.sol\":1872:1902  category >= 1 && category <= 5 */\n      dup1\n      iszero\n      tag_102\n      jumpi\n      pop\n        /* \"contracts/ProofOfStudy.sol\":1901:1902  5 */\n      0x05\n        /* \"contracts/ProofOfStudy.sol\":1889:1897  category */\n      dup3\n        /* \"contracts/ProofOfStudy.sol\":1889:1902  category <= 5 */\n      0xff\n      and\n      gt\n      iszero\n        /* \"contracts/ProofOfStudy.sol\":1872:1902  category >= 1 && category <= 5 */\n    tag_102:\n        /* \"contracts/ProofOfStudy.sol\":1864:1923  require(category >= 1 && category <= 5, \"Invalid category\") */\n      tag_103\n      jumpi\n      mload(0x40)\n      0x08c379a000000000000000000000000000000000000000000000000000000000\n      dup2\n      mstore\n      0x04\n      add\n      tag_104\n      swap1\n      tag_105\n      jump\t// in\n    tag_104:\n      mload(0x40)\n      dup1\n      swap2\n      sub\n      swap1\n      revert\n    tag_103:\n        /* \"contracts/ProofOfStudy.sol\":1934:1952  uint256 percentage */\n      0x00\n        /* \"contracts/ProofOfStudy.sol\":1979:1980  1 */\n      0x01\n        /* \"contracts/ProofOfStudy.sol\":1967:1975  category */\n      dup4\n        /* \"contracts/ProofOfStudy.sol\":1967:1980  category == 1 */\n      0xff\n      and\n      sub\n        /* \"contracts/ProofOfStudy.sol\":1963:2377  if (category == 1) {... */\n      tag_106\n      jumpi\n        /* \"contracts/ProofOfStudy.sol\":386:388  10 */\n      0x0a\n        /* \"contracts/ProofOfStudy.sol\":1996:2030  percentage = CATEGORY_A_PERCENTAGE */\n      0xff\n      and\n      swap1\n      pop\n        /* \"contracts/ProofOfStudy.sol\":1963:2377  if (category == 1) {... */\n      jump(tag_107)\n    tag_106:\n        /* \"contracts/ProofOfStudy.sol\":2063:2064  2 */\n      0x02\n        /* \"contracts/ProofOfStudy.sol\":2051:2059  category */\n      dup4\n        /* \"contracts/ProofOfStudy.sol\":2051:2064  category == 2 */\n      0xff\n      and\n      sub\n        /* \"contracts/ProofOfStudy.sol\":2047:2377  if (category == 2) {... */\n      tag_108\n      jumpi\n        /* \"contracts/ProofOfStudy.sol\":440:442  15 */\n      0x0f\n        /* \"contracts/ProofOfStudy.sol\":2080:2114  percentage = CATEGORY_B_PERCENTAGE */\n      0xff\n      and\n      swap1\n      pop\n        /* \"contracts/ProofOfStudy.sol\":2047:2377  if (category == 2) {... */\n      jump(tag_109)\n    tag_108:\n        /* \"contracts/ProofOfStudy.sol\":2147:2148  3 */\n      0x03\n        /* \"contracts/ProofOfStudy.sol\":2135:2143  category */\n      dup4\n        /* \"contracts/ProofOfStudy.sol\":2135:2148  category == 3 */\n      0xff\n      and\n      sub\n        /* \"contracts/ProofOfStudy.sol\":2131:2377  if (category == 3) {... */\n      tag_110\n      jumpi\n        /* \"contracts/ProofOfStudy.sol\":494:496  20 */\n      0x14\n        /* \"contracts/ProofOfStudy.sol\":2164:2198  percentage = CATEGORY_C_PERCENTAGE */\n      0xff\n      and\n      swap1\n      pop\n        /* \"contracts/ProofOfStudy.sol\":2131:2377  if (category == 3) {... */\n      jump(tag_111)\n    tag_110:\n        /* \"contracts/ProofOfStudy.sol\":2231:2232  4 */\n      0x04\n        /* \"contracts/ProofOfStudy.sol\":2219:2227  category */\n      dup4\n        /* \"contracts/ProofOfStudy.sol\":2219:2232  category == 4 */\n      0xff\n      and\n      sub\n        /* \"contracts/ProofOfStudy.sol\":2215:2377  if (category == 4) {... */\n      tag_112\n      jumpi\n        /* \"contracts/ProofOfStudy.sol\":548:550  25 */\n      0x19\n        /* \"contracts/ProofOfStudy.sol\":2248:2282  percentage = CATEGORY_D_PERCENTAGE */\n      0xff\n      and\n      swap1\n      pop\n        /* \"contracts/ProofOfStudy.sol\":2215:2377  if (category == 4) {... */\n      jump(tag_113)\n    tag_112:\n        /* \"contracts/ProofOfStudy.sol\":2315:2316  5 */\n      0x05\n        /* \"contracts/ProofOfStudy.sol\":2303:2311  category */\n      dup4\n        /* \"contracts/ProofOfStudy.sol\":2303:2316  category == 5 */\n      0xff\n      and\n      sub\n        /* \"contracts/ProofOfStudy.sol\":2299:2377  if (category == 5) {... */\n      tag_114\n      jumpi\n        /* \"contracts/ProofOfStudy.sol\":602:604  30 */\n      0x1e\n        /* \"contracts/ProofOfStudy.sol\":2332:2366  percentage = CATEGORY_E_PERCENTAGE */\n      0xff\n      and\n      swap1\n      pop\n        /* \"contracts/ProofOfStudy.sol\":2299:2377  if (category == 5) {... */\n    tag_114:\n        /* \"contracts/ProofOfStudy.sol\":2215:2377  if (category == 4) {... */\n    tag_113:\n        /* \"contracts/ProofOfStudy.sol\":2131:2377  if (category == 3) {... */\n    tag_111:\n        /* \"contracts/ProofOfStudy.sol\":2047:2377  if (category == 2) {... */\n    tag_109:\n        /* \"contracts/ProofOfStudy.sol\":1963:2377  if (category == 1) {... */\n    tag_107:\n        /* \"contracts/ProofOfStudy.sol\":2433:2454  totalTokenCirculation */\n      sload(0x04)\n        /* \"contracts/ProofOfStudy.sol\":2408:2429  totalAvailableRewards */\n      sload(0x03)\n        /* \"contracts/ProofOfStudy.sol\":2395:2405  percentage */\n      dup3\n        /* \"contracts/ProofOfStudy.sol\":2395:2429  percentage * totalAvailableRewards */\n      tag_115\n      swap2\n      swap1\n      tag_116\n      jump\t// in\n    tag_115:\n        /* \"contracts/ProofOfStudy.sol\":2394:2454  (percentage * totalAvailableRewards) / totalTokenCirculation */\n      tag_117\n      swap2\n      swap1\n      tag_118\n      jump\t// in\n    tag_117:\n        /* \"contracts/ProofOfStudy.sol\":2387:2454  return (percentage * totalAvailableRewards) / totalTokenCirculation */\n      swap2\n      pop\n      pop\n        /* \"contracts/ProofOfStudy.sol\":1775:2461  function calculateCategoryReward(uint8 category) public view returns (uint256) {... */\n      swap2\n      swap1\n      pop\n      jump\t// out\n        /* \"contracts/ProofOfStudy.sol\":4147:4753  function removeCategoryCompletion(address student, uint8 category) external onlyOwner {... */\n    tag_48:\n        /* \"contracts/ProofOfStudy.sol\":5056:5061  owner */\n      0x02\n      0x00\n      swap1\n      sload\n      swap1\n      0x0100\n      exp\n      swap1\n      div\n      0xffffffffffffffffffffffffffffffffffffffff\n      and\n        /* \"contracts/ProofOfStudy.sol\":5042:5061  msg.sender == owner */\n      0xffffffffffffffffffffffffffffffffffffffff\n      and\n        /* \"contracts/ProofOfStudy.sol\":5042:5052  msg.sender */\n      caller\n        /* \"contracts/ProofOfStudy.sol\":5042:5061  msg.sender == owner */\n      0xffffffffffffffffffffffffffffffffffffffff\n      and\n      eq\n        /* \"contracts/ProofOfStudy.sol\":5034:5100  require(msg.sender == owner, \"Only owner can perform this action\") */\n      tag_120\n      jumpi\n      mload(0x40)\n      0x08c379a000000000000000000000000000000000000000000000000000000000\n      dup2\n      mstore\n      0x04\n      add\n      tag_121\n      swap1\n      tag_122\n      jump\t// in\n    tag_121:\n      mload(0x40)\n      dup1\n      swap2\n      sub\n      swap1\n      revert\n    tag_120:\n        /* \"contracts/ProofOfStudy.sol\":4263:4264  1 */\n      0x01\n        /* \"contracts/ProofOfStudy.sol\":4251:4259  category */\n      dup2\n        /* \"contracts/ProofOfStudy.sol\":4251:4264  category >= 1 */\n      0xff\n      and\n      lt\n      iszero\n        /* \"contracts/ProofOfStudy.sol\":4251:4281  category >= 1 && category <= 5 */\n      dup1\n      iszero\n      tag_124\n      jumpi\n      pop\n        /* \"contracts/ProofOfStudy.sol\":4280:4281  5 */\n      0x05\n        /* \"contracts/ProofOfStudy.sol\":4268:4276  category */\n      dup2\n        /* \"contracts/ProofOfStudy.sol\":4268:4281  category <= 5 */\n      0xff\n      and\n      gt\n      iszero\n        /* \"contracts/ProofOfStudy.sol\":4251:4281  category >= 1 && category <= 5 */\n    tag_124:\n        /* \"contracts/ProofOfStudy.sol\":4243:4302  require(category >= 1 && category <= 5, \"Invalid category\") */\n      tag_125\n      jumpi\n      mload(0x40)\n      0x08c379a000000000000000000000000000000000000000000000000000000000\n      dup2\n      mstore\n      0x04\n      add\n      tag_126\n      swap1\n      tag_105\n      jump\t// in\n    tag_126:\n      mload(0x40)\n      dup1\n      swap2\n      sub\n      swap1\n      revert\n    tag_125:\n        /* \"contracts/ProofOfStudy.sol\":4329:4330  1 */\n      0x01\n        /* \"contracts/ProofOfStudy.sol\":4317:4325  category */\n      dup2\n        /* \"contracts/ProofOfStudy.sol\":4317:4330  category == 1 */\n      0xff\n      and\n      sub\n        /* \"contracts/ProofOfStudy.sol\":4313:4747  if (category == 1) {... */\n      tag_127\n      jumpi\n        /* \"contracts/ProofOfStudy.sol\":4379:4384  false */\n      0x00\n        /* \"contracts/ProofOfStudy.sol\":4346:4367  hasCompletedCategoryA */\n      0x05\n        /* \"contracts/ProofOfStudy.sol\":4346:4376  hasCompletedCategoryA[student] */\n      0x00\n        /* \"contracts/ProofOfStudy.sol\":4368:4375  student */\n      dup5\n        /* \"contracts/ProofOfStudy.sol\":4346:4376  hasCompletedCategoryA[student] */\n      0xffffffffffffffffffffffffffffffffffffffff\n      and\n      0xffffffffffffffffffffffffffffffffffffffff\n      and\n      dup2\n      mstore\n      0x20\n      add\n      swap1\n      dup2\n      mstore\n      0x20\n      add\n      0x00\n      keccak256\n      0x00\n        /* \"contracts/ProofOfStudy.sol\":4346:4384  hasCompletedCategoryA[student] = false */\n      0x0100\n      exp\n      dup2\n      sload\n      dup2\n      0xff\n      mul\n      not\n      and\n      swap1\n      dup4\n      iszero\n      iszero\n      mul\n      or\n      swap1\n      sstore\n      pop\n        /* \"contracts/ProofOfStudy.sol\":4313:4747  if (category == 1) {... */\n      jump(tag_128)\n    tag_127:\n        /* \"contracts/ProofOfStudy.sol\":4417:4418  2 */\n      0x02\n        /* \"contracts/ProofOfStudy.sol\":4405:4413  category */\n      dup2\n        /* \"contracts/ProofOfStudy.sol\":4405:4418  category == 2 */\n      0xff\n      and\n      sub\n        /* \"contracts/ProofOfStudy.sol\":4401:4747  if (category == 2) {... */\n      tag_129\n      jumpi\n        /* \"contracts/ProofOfStudy.sol\":4467:4472  false */\n      0x00\n        /* \"contracts/ProofOfStudy.sol\":4434:4455  hasCompletedCategoryB */\n      0x06\n        /* \"contracts/ProofOfStudy.sol\":4434:4464  hasCompletedCategoryB[student] */\n      0x00\n        /* \"contracts/ProofOfStudy.sol\":4456:4463  student */\n      dup5\n        /* \"contracts/ProofOfStudy.sol\":4434:4464  hasCompletedCategoryB[student] */\n      0xffffffffffffffffffffffffffffffffffffffff\n      and\n      0xffffffffffffffffffffffffffffffffffffffff\n      and\n      dup2\n      mstore\n      0x20\n      add\n      swap1\n      dup2\n      mstore\n      0x20\n      add\n      0x00\n      keccak256\n      0x00\n        /* \"contracts/ProofOfStudy.sol\":4434:4472  hasCompletedCategoryB[student] = false */\n      0x0100\n      exp\n      dup2\n      sload\n      dup2\n      0xff\n      mul\n      not\n      and\n      swap1\n      dup4\n      iszero\n      iszero\n      mul\n      or\n      swap1\n      sstore\n      pop\n        /* \"contracts/ProofOfStudy.sol\":4401:4747  if (category == 2) {... */\n      jump(tag_130)\n    tag_129:\n        /* \"contracts/ProofOfStudy.sol\":4505:4506  3 */\n      0x03\n        /* \"contracts/ProofOfStudy.sol\":4493:4501  category */\n      dup2\n        /* \"contracts/ProofOfStudy.sol\":4493:4506  category == 3 */\n      0xff\n      and\n      sub\n        /* \"contracts/ProofOfStudy.sol\":4489:4747  if (category == 3) {... */\n      tag_131\n      jumpi\n        /* \"contracts/ProofOfStudy.sol\":4555:4560  false */\n      0x00\n        /* \"contracts/ProofOfStudy.sol\":4522:4543  hasCompletedCategoryC */\n      0x07\n        /* \"contracts/ProofOfStudy.sol\":4522:4552  hasCompletedCategoryC[student] */\n      0x00\n        /* \"contracts/ProofOfStudy.sol\":4544:4551  student */\n      dup5\n        /* \"contracts/ProofOfStudy.sol\":4522:4552  hasCompletedCategoryC[student] */\n      0xffffffffffffffffffffffffffffffffffffffff\n      and\n      0xffffffffffffffffffffffffffffffffffffffff\n      and\n      dup2\n      mstore\n      0x20\n      add\n      swap1\n      dup2\n      mstore\n      0x20\n      add\n      0x00\n      keccak256\n      0x00\n        /* \"contracts/ProofOfStudy.sol\":4522:4560  hasCompletedCategoryC[student] = false */\n      0x0100\n      exp\n      dup2\n      sload\n      dup2\n      0xff\n      mul\n      not\n      and\n      swap1\n      dup4\n      iszero\n      iszero\n      mul\n      or\n      swap1\n      sstore\n      pop\n        /* \"contracts/ProofOfStudy.sol\":4489:4747  if (category == 3) {... */\n      jump(tag_132)\n    tag_131:\n        /* \"contracts/ProofOfStudy.sol\":4593:4594  4 */\n      0x04\n        /* \"contracts/ProofOfStudy.sol\":4581:4589  category */\n      dup2\n        /* \"contracts/ProofOfStudy.sol\":4581:4594  category == 4 */\n      0xff\n      and\n      sub\n        /* \"contracts/ProofOfStudy.sol\":4577:4747  if (category == 4) {... */\n      tag_133\n      jumpi\n        /* \"contracts/ProofOfStudy.sol\":4643:4648  false */\n      0x00\n        /* \"contracts/ProofOfStudy.sol\":4610:4631  hasCompletedCategoryD */\n      0x08\n        /* \"contracts/ProofOfStudy.sol\":4610:4640  hasCompletedCategoryD[student] */\n      0x00\n        /* \"contracts/ProofOfStudy.sol\":4632:4639  student */\n      dup5\n        /* \"contracts/ProofOfStudy.sol\":4610:4640  hasCompletedCategoryD[student] */\n      0xffffffffffffffffffffffffffffffffffffffff\n      and\n      0xffffffffffffffffffffffffffffffffffffffff\n      and\n      dup2\n      mstore\n      0x20\n      add\n      swap1\n      dup2\n      mstore\n      0x20\n      add\n      0x00\n      keccak256\n      0x00\n        /* \"contracts/ProofOfStudy.sol\":4610:4648  hasCompletedCategoryD[student] = false */\n      0x0100\n      exp\n      dup2\n      sload\n      dup2\n      0xff\n      mul\n      not\n      and\n      swap1\n      dup4\n      iszero\n      iszero\n      mul\n      or\n      swap1\n      sstore\n      pop\n        /* \"contracts/ProofOfStudy.sol\":4577:4747  if (category == 4) {... */\n      jump(tag_134)\n    tag_133:\n        /* \"contracts/ProofOfStudy.sol\":4681:4682  5 */\n      0x05\n        /* \"contracts/ProofOfStudy.sol\":4669:4677  category */\n      dup2\n        /* \"contracts/ProofOfStudy.sol\":4669:4682  category == 5 */\n      0xff\n      and\n      sub\n        /* \"contracts/ProofOfStudy.sol\":4665:4747  if (category == 5) {... */\n      tag_135\n      jumpi\n        /* \"contracts/ProofOfStudy.sol\":4731:4736  false */\n      0x00\n        /* \"contracts/ProofOfStudy.sol\":4698:4719  hasCompletedCategoryE */\n      0x09\n        /* \"contracts/ProofOfStudy.sol\":4698:4728  hasCompletedCategoryE[student] */\n      0x00\n        /* \"contracts/ProofOfStudy.sol\":4720:4727  student */\n      dup5\n        /* \"contracts/ProofOfStudy.sol\":4698:4728  hasCompletedCategoryE[student] */\n      0xffffffffffffffffffffffffffffffffffffffff\n      and\n      0xffffffffffffffffffffffffffffffffffffffff\n      and\n      dup2\n      mstore\n      0x20\n      add\n      swap1\n      dup2\n      mstore\n      0x20\n      add\n      0x00\n      keccak256\n      0x00\n        /* \"contracts/ProofOfStudy.sol\":4698:4736  hasCompletedCategoryE[student] = false */\n      0x0100\n      exp\n      dup2\n      sload\n      dup2\n      0xff\n      mul\n      not\n      and\n      swap1\n      dup4\n      iszero\n      iszero\n      mul\n      or\n      swap1\n      sstore\n      pop\n        /* \"contracts/ProofOfStudy.sol\":4665:4747  if (category == 5) {... */\n    tag_135:\n        /* \"contracts/ProofOfStudy.sol\":4577:4747  if (category == 4) {... */\n    tag_134:\n        /* \"contracts/ProofOfStudy.sol\":4489:4747  if (category == 3) {... */\n    tag_132:\n        /* \"contracts/ProofOfStudy.sol\":4401:4747  if (category == 2) {... */\n    tag_130:\n        /* \"contracts/ProofOfStudy.sol\":4313:4747  if (category == 1) {... */\n    tag_128:\n        /* \"contracts/ProofOfStudy.sol\":4147:4753  function removeCategoryCompletion(address student, uint8 category) external onlyOwner {... */\n      pop\n      pop\n      jump\t// out\n        /* \"contracts/ProofOfStudy.sol\":556:604  uint8 public constant CATEGORY_E_PERCENTAGE = 30 */\n    tag_50:\n        /* \"contracts/ProofOfStudy.sol\":602:604  30 */\n      0x1e\n        /* \"contracts/ProofOfStudy.sol\":556:604  uint8 public constant CATEGORY_E_PERCENTAGE = 30 */\n      dup2\n      jump\t// out\n        /* \"contracts/ProofOfStudy.sol\":2467:2902  function claimReward(uint8 category) external nonReentrant hasCompletedCategory(msg.sender, category) {... */\n    tag_54:\n        /* \"@openzeppelin/contracts/security/ReentrancyGuard.sol\":2261:2282  _nonReentrantBefore() */\n      tag_137\n        /* \"@openzeppelin/contracts/security/ReentrancyGuard.sol\":2261:2280  _nonReentrantBefore */\n      tag_138\n        /* \"@openzeppelin/contracts/security/ReentrancyGuard.sol\":2261:2282  _nonReentrantBefore() */\n      jump\t// in\n    tag_137:\n        /* \"contracts/ProofOfStudy.sol\":2547:2557  msg.sender */\n      caller\n        /* \"contracts/ProofOfStudy.sol\":2559:2567  category */\n      dup2\n        /* \"contracts/ProofOfStudy.sol\":1082:1083  1 */\n      0x01\n        /* \"contracts/ProofOfStudy.sol\":1070:1078  category */\n      dup2\n        /* \"contracts/ProofOfStudy.sol\":1070:1083  category == 1 */\n      0xff\n      and\n      eq\n        /* \"contracts/ProofOfStudy.sol\":1070:1117  category == 1 && hasCompletedCategoryA[student] */\n      dup1\n      iszero\n      tag_140\n      jumpi\n      pop\n        /* \"contracts/ProofOfStudy.sol\":1087:1108  hasCompletedCategoryA */\n      0x05\n        /* \"contracts/ProofOfStudy.sol\":1087:1117  hasCompletedCategoryA[student] */\n      0x00\n        /* \"contracts/ProofOfStudy.sol\":1109:1116  student */\n      dup4\n        /* \"contracts/ProofOfStudy.sol\":1087:1117  hasCompletedCategoryA[student] */\n      0xffffffffffffffffffffffffffffffffffffffff\n      and\n      0xffffffffffffffffffffffffffffffffffffffff\n      and\n      dup2\n      mstore\n      0x20\n      add\n      swap1\n      dup2\n      mstore\n      0x20\n      add\n      0x00\n      keccak256\n      0x00\n      swap1\n      sload\n      swap1\n      0x0100\n      exp\n      swap1\n      div\n      0xff\n      and\n        /* \"contracts/ProofOfStudy.sol\":1070:1117  category == 1 && hasCompletedCategoryA[student] */\n    tag_140:\n        /* \"contracts/ProofOfStudy.sol\":1069:1183  (category == 1 && hasCompletedCategoryA[student]) ||... */\n      dup1\n      tag_141\n      jumpi\n      pop\n        /* \"contracts/ProofOfStudy.sol\":1147:1148  2 */\n      0x02\n        /* \"contracts/ProofOfStudy.sol\":1135:1143  category */\n      dup2\n        /* \"contracts/ProofOfStudy.sol\":1135:1148  category == 2 */\n      0xff\n      and\n      eq\n        /* \"contracts/ProofOfStudy.sol\":1135:1182  category == 2 && hasCompletedCategoryB[student] */\n      dup1\n      iszero\n      tag_142\n      jumpi\n      pop\n        /* \"contracts/ProofOfStudy.sol\":1152:1173  hasCompletedCategoryB */\n      0x06\n        /* \"contracts/ProofOfStudy.sol\":1152:1182  hasCompletedCategoryB[student] */\n      0x00\n        /* \"contracts/ProofOfStudy.sol\":1174:1181  student */\n      dup4\n        /* \"contracts/ProofOfStudy.sol\":1152:1182  hasCompletedCategoryB[student] */\n      0xffffffffffffffffffffffffffffffffffffffff\n      and\n      0xffffffffffffffffffffffffffffffffffffffff\n      and\n      dup2\n      mstore\n      0x20\n      add\n      swap1\n      dup2\n      mstore\n      0x20\n      add\n      0x00\n      keccak256\n      0x00\n      swap1\n      sload\n      swap1\n      0x0100\n      exp\n      swap1\n      div\n      0xff\n      and\n        /* \"contracts/ProofOfStudy.sol\":1135:1182  category == 2 && hasCompletedCategoryB[student] */\n    tag_142:\n        /* \"contracts/ProofOfStudy.sol\":1069:1183  (category == 1 && hasCompletedCategoryA[student]) ||... */\n    tag_141:\n        /* \"contracts/ProofOfStudy.sol\":1069:1248  (category == 1 && hasCompletedCategoryA[student]) ||... */\n      dup1\n      tag_143\n      jumpi\n      pop\n        /* \"contracts/ProofOfStudy.sol\":1212:1213  3 */\n      0x03\n        /* \"contracts/ProofOfStudy.sol\":1200:1208  category */\n      dup2\n        /* \"contracts/ProofOfStudy.sol\":1200:1213  category == 3 */\n      0xff\n      and\n      eq\n        /* \"contracts/ProofOfStudy.sol\":1200:1247  category == 3 && hasCompletedCategoryC[student] */\n      dup1\n      iszero\n      tag_144\n      jumpi\n      pop\n        /* \"contracts/ProofOfStudy.sol\":1217:1238  hasCompletedCategoryC */\n      0x07\n        /* \"contracts/ProofOfStudy.sol\":1217:1247  hasCompletedCategoryC[student] */\n      0x00\n        /* \"contracts/ProofOfStudy.sol\":1239:1246  student */\n      dup4\n        /* \"contracts/ProofOfStudy.sol\":1217:1247  hasCompletedCategoryC[student] */\n      0xffffffffffffffffffffffffffffffffffffffff\n      and\n      0xffffffffffffffffffffffffffffffffffffffff\n      and\n      dup2\n      mstore\n      0x20\n      add\n      swap1\n      dup2\n      mstore\n      0x20\n      add\n      0x00\n      keccak256\n      0x00\n      swap1\n      sload\n      swap1\n      0x0100\n      exp\n      swap1\n      div\n      0xff\n      and\n        /* \"contracts/ProofOfStudy.sol\":1200:1247  category == 3 && hasCompletedCategoryC[student] */\n    tag_144:\n        /* \"contracts/ProofOfStudy.sol\":1069:1248  (category == 1 && hasCompletedCategoryA[student]) ||... */\n    tag_143:\n        /* \"contracts/ProofOfStudy.sol\":1069:1313  (category == 1 && hasCompletedCategoryA[student]) ||... */\n      dup1\n      tag_145\n      jumpi\n      pop\n        /* \"contracts/ProofOfStudy.sol\":1277:1278  4 */\n      0x04\n        /* \"contracts/ProofOfStudy.sol\":1265:1273  category */\n      dup2\n        /* \"contracts/ProofOfStudy.sol\":1265:1278  category == 4 */\n      0xff\n      and\n      eq\n        /* \"contracts/ProofOfStudy.sol\":1265:1312  category == 4 && hasCompletedCategoryD[student] */\n      dup1\n      iszero\n      tag_146\n      jumpi\n      pop\n        /* \"contracts/ProofOfStudy.sol\":1282:1303  hasCompletedCategoryD */\n      0x08\n        /* \"contracts/ProofOfStudy.sol\":1282:1312  hasCompletedCategoryD[student] */\n      0x00\n        /* \"contracts/ProofOfStudy.sol\":1304:1311  student */\n      dup4\n        /* \"contracts/ProofOfStudy.sol\":1282:1312  hasCompletedCategoryD[student] */\n      0xffffffffffffffffffffffffffffffffffffffff\n      and\n      0xffffffffffffffffffffffffffffffffffffffff\n      and\n      dup2\n      mstore\n      0x20\n      add\n      swap1\n      dup2\n      mstore\n      0x20\n      add\n      0x00\n      keccak256\n      0x00\n      swap1\n      sload\n      swap1\n      0x0100\n      exp\n      swap1\n      div\n      0xff\n      and\n        /* \"contracts/ProofOfStudy.sol\":1265:1312  category == 4 && hasCompletedCategoryD[student] */\n    tag_146:\n        /* \"contracts/ProofOfStudy.sol\":1069:1313  (category == 1 && hasCompletedCategoryA[student]) ||... */\n    tag_145:\n        /* \"contracts/ProofOfStudy.sol\":1069:1378  (category == 1 && hasCompletedCategoryA[student]) ||... */\n      dup1\n      tag_147\n      jumpi\n      pop\n        /* \"contracts/ProofOfStudy.sol\":1342:1343  5 */\n      0x05\n        /* \"contracts/ProofOfStudy.sol\":1330:1338  category */\n      dup2\n        /* \"contracts/ProofOfStudy.sol\":1330:1343  category == 5 */\n      0xff\n      and\n      eq\n        /* \"contracts/ProofOfStudy.sol\":1330:1377  category == 5 && hasCompletedCategoryE[student] */\n      dup1\n      iszero\n      tag_148\n      jumpi\n      pop\n        /* \"contracts/ProofOfStudy.sol\":1347:1368  hasCompletedCategoryE */\n      0x09\n        /* \"contracts/ProofOfStudy.sol\":1347:1377  hasCompletedCategoryE[student] */\n      0x00\n        /* \"contracts/ProofOfStudy.sol\":1369:1376  student */\n      dup4\n        /* \"contracts/ProofOfStudy.sol\":1347:1377  hasCompletedCategoryE[student] */\n      0xffffffffffffffffffffffffffffffffffffffff\n      and\n      0xffffffffffffffffffffffffffffffffffffffff\n      and\n      dup2\n      mstore\n      0x20\n      add\n      swap1\n      dup2\n      mstore\n      0x20\n      add\n      0x00\n      keccak256\n      0x00\n      swap1\n      sload\n      swap1\n      0x0100\n      exp\n      swap1\n      div\n      0xff\n      and\n        /* \"contracts/ProofOfStudy.sol\":1330:1377  category == 5 && hasCompletedCategoryE[student] */\n    tag_148:\n        /* \"contracts/ProofOfStudy.sol\":1069:1378  (category == 1 && hasCompletedCategoryA[student]) ||... */\n    tag_147:\n        /* \"contracts/ProofOfStudy.sol\":1048:1452  require(... */\n      tag_149\n      jumpi\n      mload(0x40)\n      0x08c379a000000000000000000000000000000000000000000000000000000000\n      dup2\n      mstore\n      0x04\n      add\n      tag_150\n      swap1\n      tag_151\n      jump\t// in\n    tag_150:\n      mload(0x40)\n      dup1\n      swap2\n      sub\n      swap1\n      revert\n    tag_149:\n        /* \"contracts/ProofOfStudy.sol\":2579:2599  uint256 rewardAmount */\n      0x00\n        /* \"contracts/ProofOfStudy.sol\":2602:2635  calculateCategoryReward(category) */\n      tag_153\n        /* \"contracts/ProofOfStudy.sol\":2626:2634  category */\n      dup5\n        /* \"contracts/ProofOfStudy.sol\":2602:2625  calculateCategoryReward */\n      tag_43\n        /* \"contracts/ProofOfStudy.sol\":2602:2635  calculateCategoryReward(category) */\n      jump\t// in\n    tag_153:\n        /* \"contracts/ProofOfStudy.sol\":2579:2635  uint256 rewardAmount = calculateCategoryReward(category) */\n      swap1\n      pop\n        /* \"contracts/ProofOfStudy.sol\":2668:2669  0 */\n      0x00\n        /* \"contracts/ProofOfStudy.sol\":2653:2665  rewardAmount */\n      dup2\n        /* \"contracts/ProofOfStudy.sol\":2653:2669  rewardAmount > 0 */\n      gt\n        /* \"contracts/ProofOfStudy.sol\":2645:2712  require(rewardAmount > 0, \"No rewards available for this category\") */\n      tag_154\n      jumpi\n      mload(0x40)\n      0x08c379a000000000000000000000000000000000000000000000000000000000\n      dup2\n      mstore\n      0x04\n      add\n      tag_155\n      swap1\n      tag_156\n      jump\t// in\n    tag_155:\n      mload(0x40)\n      dup1\n      swap2\n      sub\n      swap1\n      revert\n    tag_154:\n        /* \"contracts/ProofOfStudy.sol\":2771:2783  rewardAmount */\n      dup1\n        /* \"contracts/ProofOfStudy.sol\":2747:2768  totalAvailableRewards */\n      sload(0x03)\n        /* \"contracts/ProofOfStudy.sol\":2747:2783  totalAvailableRewards - rewardAmount */\n      tag_157\n      swap2\n      swap1\n      tag_158\n      jump\t// in\n    tag_157:\n        /* \"contracts/ProofOfStudy.sol\":2723:2744  totalAvailableRewards */\n      0x03\n        /* \"contracts/ProofOfStudy.sol\":2723:2783  totalAvailableRewards = totalAvailableRewards - rewardAmount */\n      dup2\n      swap1\n      sstore\n      pop\n        /* \"contracts/ProofOfStudy.sol\":2794:2804  _nnthToken */\n      0x01\n      0x00\n      swap1\n      sload\n      swap1\n      0x0100\n      exp\n      swap1\n      div\n      0xffffffffffffffffffffffffffffffffffffffff\n      and\n        /* \"contracts/ProofOfStudy.sol\":2794:2813  _nnthToken.transfer */\n      0xffffffffffffffffffffffffffffffffffffffff\n      and\n      0xa9059cbb\n        /* \"contracts/ProofOfStudy.sol\":2814:2824  msg.sender */\n      caller\n        /* \"contracts/ProofOfStudy.sol\":2826:2838  rewardAmount */\n      dup4\n        /* \"contracts/ProofOfStudy.sol\":2794:2839  _nnthToken.transfer(msg.sender, rewardAmount) */\n      mload(0x40)\n      dup4\n      0xffffffff\n      and\n      0xe0\n      shl\n      dup2\n      mstore\n      0x04\n      add\n      tag_159\n      swap3\n      swap2\n      swap1\n      tag_160\n      jump\t// in\n    tag_159:\n      0x20\n      mload(0x40)\n      dup1\n      dup4\n      sub\n      dup2\n      0x00\n      dup8\n      gas\n      call\n      iszero\n      dup1\n      iszero\n      tag_162\n      jumpi\n      returndatasize\n      0x00\n      dup1\n      returndatacopy\n      revert(0x00, returndatasize)\n    tag_162:\n      pop\n      pop\n      pop\n      pop\n      mload(0x40)\n      returndatasize\n      not(0x1f)\n      0x1f\n      dup3\n      add\n      and\n      dup3\n      add\n      dup1\n      0x40\n      mstore\n      pop\n      dup2\n      add\n      swap1\n      tag_163\n      swap2\n      swap1\n      tag_164\n      jump\t// in\n    tag_163:\n      pop\n        /* \"contracts/ProofOfStudy.sol\":2870:2880  msg.sender */\n      caller\n        /* \"contracts/ProofOfStudy.sol\":2855:2895  RewardsClaimed(msg.sender, rewardAmount) */\n      0xffffffffffffffffffffffffffffffffffffffff\n      and\n      0xfc30cddea38e2bf4d6ea7d3f9ed3b6ad7f176419f4963bd81318067a4aee73fe\n        /* \"contracts/ProofOfStudy.sol\":2882:2894  rewardAmount */\n      dup3\n        /* \"contracts/ProofOfStudy.sol\":2855:2895  RewardsClaimed(msg.sender, rewardAmount) */\n      mload(0x40)\n      tag_165\n      swap2\n      swap1\n      tag_35\n      jump\t// in\n    tag_165:\n      mload(0x40)\n      dup1\n      swap2\n      sub\n      swap1\n      log2\n        /* \"contracts/ProofOfStudy.sol\":2569:2902  {... */\n      pop\n        /* \"@openzeppelin/contracts/security/ReentrancyGuard.sol\":2292:2293  _ */\n      pop\n      pop\n        /* \"@openzeppelin/contracts/security/ReentrancyGuard.sol\":2303:2323  _nonReentrantAfter() */\n      tag_166\n        /* \"@openzeppelin/contracts/security/ReentrancyGuard.sol\":2303:2321  _nonReentrantAfter */\n      tag_167\n        /* \"@openzeppelin/contracts/security/ReentrancyGuard.sol\":2303:2323  _nonReentrantAfter() */\n      jump\t// in\n    tag_166:\n        /* \"contracts/ProofOfStudy.sol\":2467:2902  function claimReward(uint8 category) external nonReentrant hasCompletedCategory(msg.sender, category) {... */\n      pop\n      jump\t// out\n        /* \"contracts/ProofOfStudy.sol\":4759:4875  function setTotalAvailableRewards(uint256 amount) external onlyOwner {... */\n    tag_58:\n        /* \"contracts/ProofOfStudy.sol\":5056:5061  owner */\n      0x02\n      0x00\n      swap1\n      sload\n      swap1\n      0x0100\n      exp\n      swap1\n      div\n      0xffffffffffffffffffffffffffffffffffffffff\n      and\n        /* \"contracts/ProofOfStudy.sol\":5042:5061  msg.sender == owner */\n      0xffffffffffffffffffffffffffffffffffffffff\n      and\n        /* \"contracts/ProofOfStudy.sol\":5042:5052  msg.sender */\n      caller\n        /* \"contracts/ProofOfStudy.sol\":5042:5061  msg.sender == owner */\n      0xffffffffffffffffffffffffffffffffffffffff\n      and\n      eq\n        /* \"contracts/ProofOfStudy.sol\":5034:5100  require(msg.sender == owner, \"Only owner can perform this action\") */\n      tag_169\n      jumpi\n      mload(0x40)\n      0x08c379a000000000000000000000000000000000000000000000000000000000\n      dup2\n      mstore\n      0x04\n      add\n      tag_170\n      swap1\n      tag_122\n      jump\t// in\n    tag_170:\n      mload(0x40)\n      dup1\n      swap2\n      sub\n      swap1\n      revert\n    tag_169:\n        /* \"contracts/ProofOfStudy.sol\":4862:4868  amount */\n      dup1\n        /* \"contracts/ProofOfStudy.sol\":4838:4859  totalAvailableRewards */\n      0x03\n        /* \"contracts/ProofOfStudy.sol\":4838:4868  totalAvailableRewards = amount */\n      dup2\n      swap1\n      sstore\n      pop\n        /* \"contracts/ProofOfStudy.sol\":4759:4875  function setTotalAvailableRewards(uint256 amount) external onlyOwner {... */\n      pop\n      jump\t// out\n        /* \"contracts/ProofOfStudy.sol\":340:388  uint8 public constant CATEGORY_A_PERCENTAGE = 10 */\n    tag_60:\n        /* \"contracts/ProofOfStudy.sol\":386:388  10 */\n      0x0a\n        /* \"contracts/ProofOfStudy.sol\":340:388  uint8 public constant CATEGORY_A_PERCENTAGE = 10 */\n      dup2\n      jump\t// out\n        /* \"contracts/ProofOfStudy.sol\":228:248  address public owner */\n    tag_63:\n      0x02\n      0x00\n      swap1\n      sload\n      swap1\n      0x0100\n      exp\n      swap1\n      div\n      0xffffffffffffffffffffffffffffffffffffffff\n      and\n      dup2\n      jump\t// out\n        /* \"contracts/ProofOfStudy.sol\":448:496  uint8 public constant CATEGORY_C_PERCENTAGE = 20 */\n    tag_67:\n        /* \"contracts/ProofOfStudy.sol\":494:496  20 */\n      0x14\n        /* \"contracts/ProofOfStudy.sol\":448:496  uint8 public constant CATEGORY_C_PERCENTAGE = 20 */\n      dup2\n      jump\t// out\n        /* \"contracts/ProofOfStudy.sol\":788:841  mapping(address => bool) public hasCompletedCategoryD */\n    tag_71:\n      mstore(0x20, 0x08)\n      dup1\n      0x00\n      mstore\n      keccak256(0x00, 0x40)\n      0x00\n      swap2\n      pop\n      sload\n      swap1\n      0x0100\n      exp\n      swap1\n      div\n      0xff\n      and\n      dup2\n      jump\t// out\n        /* \"contracts/ProofOfStudy.sol\":670:723  mapping(address => bool) public hasCompletedCategoryB */\n    tag_75:\n      mstore(0x20, 0x06)\n      dup1\n      0x00\n      mstore\n      keccak256(0x00, 0x40)\n      0x00\n      swap2\n      pop\n      sload\n      swap1\n      0x0100\n      exp\n      swap1\n      div\n      0xff\n      and\n      dup2\n      jump\t// out\n        /* \"contracts/ProofOfStudy.sol\":729:782  mapping(address => bool) public hasCompletedCategoryC */\n    tag_79:\n      mstore(0x20, 0x07)\n      dup1\n      0x00\n      mstore\n      keccak256(0x00, 0x40)\n      0x00\n      swap2\n      pop\n      sload\n      swap1\n      0x0100\n      exp\n      swap1\n      div\n      0xff\n      and\n      dup2\n      jump\t// out\n        /* \"contracts/ProofOfStudy.sol\":255:291  uint256 public totalAvailableRewards */\n    tag_82:\n      sload(0x03)\n      dup2\n      jump\t// out\n        /* \"contracts/ProofOfStudy.sol\":3543:4141  function setCategoryCompletion(address student, uint8 category) external onlyOwner {... */\n    tag_86:\n        /* \"contracts/ProofOfStudy.sol\":5056:5061  owner */\n      0x02\n      0x00\n      swap1\n      sload\n      swap1\n      0x0100\n      exp\n      swap1\n      div\n      0xffffffffffffffffffffffffffffffffffffffff\n      and\n        /* \"contracts/ProofOfStudy.sol\":5042:5061  msg.sender == owner */\n      0xffffffffffffffffffffffffffffffffffffffff\n      and\n        /* \"contracts/ProofOfStudy.sol\":5042:5052  msg.sender */\n      caller\n        /* \"contracts/ProofOfStudy.sol\":5042:5061  msg.sender == owner */\n      0xffffffffffffffffffffffffffffffffffffffff\n      and\n      eq\n        /* \"contracts/ProofOfStudy.sol\":5034:5100  require(msg.sender == owner, \"Only owner can perform this action\") */\n      tag_173\n      jumpi\n      mload(0x40)\n      0x08c379a000000000000000000000000000000000000000000000000000000000\n      dup2\n      mstore\n      0x04\n      add\n      tag_174\n      swap1\n      tag_122\n      jump\t// in\n    tag_174:\n      mload(0x40)\n      dup1\n      swap2\n      sub\n      swap1\n      revert\n    tag_173:\n        /* \"contracts/ProofOfStudy.sol\":3656:3657  1 */\n      0x01\n        /* \"contracts/ProofOfStudy.sol\":3644:3652  category */\n      dup2\n        /* \"contracts/ProofOfStudy.sol\":3644:3657  category >= 1 */\n      0xff\n      and\n      lt\n      iszero\n        /* \"contracts/ProofOfStudy.sol\":3644:3674  category >= 1 && category <= 5 */\n      dup1\n      iszero\n      tag_176\n      jumpi\n      pop\n        /* \"contracts/ProofOfStudy.sol\":3673:3674  5 */\n      0x05\n        /* \"contracts/ProofOfStudy.sol\":3661:3669  category */\n      dup2\n        /* \"contracts/ProofOfStudy.sol\":3661:3674  category <= 5 */\n      0xff\n      and\n      gt\n      iszero\n        /* \"contracts/ProofOfStudy.sol\":3644:3674  category >= 1 && category <= 5 */\n    tag_176:\n        /* \"contracts/ProofOfStudy.sol\":3636:3695  require(category >= 1 && category <= 5, \"Invalid category\") */\n      tag_177\n      jumpi\n      mload(0x40)\n      0x08c379a000000000000000000000000000000000000000000000000000000000\n      dup2\n      mstore\n      0x04\n      add\n      tag_178\n      swap1\n      tag_105\n      jump\t// in\n    tag_178:\n      mload(0x40)\n      dup1\n      swap2\n      sub\n      swap1\n      revert\n    tag_177:\n        /* \"contracts/ProofOfStudy.sol\":3722:3723  1 */\n      0x01\n        /* \"contracts/ProofOfStudy.sol\":3710:3718  category */\n      dup2\n        /* \"contracts/ProofOfStudy.sol\":3710:3723  category == 1 */\n      0xff\n      and\n      sub\n        /* \"contracts/ProofOfStudy.sol\":3706:4135  if (category == 1) {... */\n      tag_179\n      jumpi\n        /* \"contracts/ProofOfStudy.sol\":3772:3776  true */\n      0x01\n        /* \"contracts/ProofOfStudy.sol\":3739:3760  hasCompletedCategoryA */\n      0x05\n        /* \"contracts/ProofOfStudy.sol\":3739:3769  hasCompletedCategoryA[student] */\n      0x00\n        /* \"contracts/ProofOfStudy.sol\":3761:3768  student */\n      dup5\n        /* \"contracts/ProofOfStudy.sol\":3739:3769  hasCompletedCategoryA[student] */\n      0xffffffffffffffffffffffffffffffffffffffff\n      and\n      0xffffffffffffffffffffffffffffffffffffffff\n      and\n      dup2\n      mstore\n      0x20\n      add\n      swap1\n      dup2\n      mstore\n      0x20\n      add\n      0x00\n      keccak256\n      0x00\n        /* \"contracts/ProofOfStudy.sol\":3739:3776  hasCompletedCategoryA[student] = true */\n      0x0100\n      exp\n      dup2\n      sload\n      dup2\n      0xff\n      mul\n      not\n      and\n      swap1\n      dup4\n      iszero\n      iszero\n      mul\n      or\n      swap1\n      sstore\n      pop\n        /* \"contracts/ProofOfStudy.sol\":3706:4135  if (category == 1) {... */\n      jump(tag_180)\n    tag_179:\n        /* \"contracts/ProofOfStudy.sol\":3809:3810  2 */\n      0x02\n        /* \"contracts/ProofOfStudy.sol\":3797:3805  category */\n      dup2\n        /* \"contracts/ProofOfStudy.sol\":3797:3810  category == 2 */\n      0xff\n      and\n      sub\n        /* \"contracts/ProofOfStudy.sol\":3793:4135  if (category == 2) {... */\n      tag_181\n      jumpi\n        /* \"contracts/ProofOfStudy.sol\":3859:3863  true */\n      0x01\n        /* \"contracts/ProofOfStudy.sol\":3826:3847  hasCompletedCategoryB */\n      0x06\n        /* \"contracts/ProofOfStudy.sol\":3826:3856  hasCompletedCategoryB[student] */\n      0x00\n        /* \"contracts/ProofOfStudy.sol\":3848:3855  student */\n      dup5\n        /* \"contracts/ProofOfStudy.sol\":3826:3856  hasCompletedCategoryB[student] */\n      0xffffffffffffffffffffffffffffffffffffffff\n      and\n      0xffffffffffffffffffffffffffffffffffffffff\n      and\n      dup2\n      mstore\n      0x20\n      add\n      swap1\n      dup2\n      mstore\n      0x20\n      add\n      0x00\n      keccak256\n      0x00\n        /* \"contracts/ProofOfStudy.sol\":3826:3863  hasCompletedCategoryB[student] = true */\n      0x0100\n      exp\n      dup2\n      sload\n      dup2\n      0xff\n      mul\n      not\n      and\n      swap1\n      dup4\n      iszero\n      iszero\n      mul\n      or\n      swap1\n      sstore\n      pop\n        /* \"contracts/ProofOfStudy.sol\":3793:4135  if (category == 2) {... */\n      jump(tag_182)\n    tag_181:\n        /* \"contracts/ProofOfStudy.sol\":3896:3897  3 */\n      0x03\n        /* \"contracts/ProofOfStudy.sol\":3884:3892  category */\n      dup2\n        /* \"contracts/ProofOfStudy.sol\":3884:3897  category == 3 */\n      0xff\n      and\n      sub\n        /* \"contracts/ProofOfStudy.sol\":3880:4135  if (category == 3) {... */\n      tag_183\n      jumpi\n        /* \"contracts/ProofOfStudy.sol\":3946:3950  true */\n      0x01\n        /* \"contracts/ProofOfStudy.sol\":3913:3934  hasCompletedCategoryC */\n      0x07\n        /* \"contracts/ProofOfStudy.sol\":3913:3943  hasCompletedCategoryC[student] */\n      0x00\n        /* \"contracts/ProofOfStudy.sol\":3935:3942  student */\n      dup5\n        /* \"contracts/ProofOfStudy.sol\":3913:3943  hasCompletedCategoryC[student] */\n      0xffffffffffffffffffffffffffffffffffffffff\n      and\n      0xffffffffffffffffffffffffffffffffffffffff\n      and\n      dup2\n      mstore\n      0x20\n      add\n      swap1\n      dup2\n      mstore\n      0x20\n      add\n      0x00\n      keccak256\n      0x00\n        /* \"contracts/ProofOfStudy.sol\":3913:3950  hasCompletedCategoryC[student] = true */\n      0x0100\n      exp\n      dup2\n      sload\n      dup2\n      0xff\n      mul\n      not\n      and\n      swap1\n      dup4\n      iszero\n      iszero\n      mul\n      or\n      swap1\n      sstore\n      pop\n        /* \"contracts/ProofOfStudy.sol\":3880:4135  if (category == 3) {... */\n      jump(tag_184)\n    tag_183:\n        /* \"contracts/ProofOfStudy.sol\":3983:3984  4 */\n      0x04\n        /* \"contracts/ProofOfStudy.sol\":3971:3979  category */\n      dup2\n        /* \"contracts/ProofOfStudy.sol\":3971:3984  category == 4 */\n      0xff\n      and\n      sub\n        /* \"contracts/ProofOfStudy.sol\":3967:4135  if (category == 4) {... */\n      tag_185\n      jumpi\n        /* \"contracts/ProofOfStudy.sol\":4033:4037  true */\n      0x01\n        /* \"contracts/ProofOfStudy.sol\":4000:4021  hasCompletedCategoryD */\n      0x08\n        /* \"contracts/ProofOfStudy.sol\":4000:4030  hasCompletedCategoryD[student] */\n      0x00\n        /* \"contracts/ProofOfStudy.sol\":4022:4029  student */\n      dup5\n        /* \"contracts/ProofOfStudy.sol\":4000:4030  hasCompletedCategoryD[student] */\n      0xffffffffffffffffffffffffffffffffffffffff\n      and\n      0xffffffffffffffffffffffffffffffffffffffff\n      and\n      dup2\n      mstore\n      0x20\n      add\n      swap1\n      dup2\n      mstore\n      0x20\n      add\n      0x00\n      keccak256\n      0x00\n        /* \"contracts/ProofOfStudy.sol\":4000:4037  hasCompletedCategoryD[student] = true */\n      0x0100\n      exp\n      dup2\n      sload\n      dup2\n      0xff\n      mul\n      not\n      and\n      swap1\n      dup4\n      iszero\n      iszero\n      mul\n      or\n      swap1\n      sstore\n      pop\n        /* \"contracts/ProofOfStudy.sol\":3967:4135  if (category == 4) {... */\n      jump(tag_186)\n    tag_185:\n        /* \"contracts/ProofOfStudy.sol\":4070:4071  5 */\n      0x05\n        /* \"contracts/ProofOfStudy.sol\":4058:4066  category */\n      dup2\n        /* \"contracts/ProofOfStudy.sol\":4058:4071  category == 5 */\n      0xff\n      and\n      sub\n        /* \"contracts/ProofOfStudy.sol\":4054:4135  if (category == 5) {... */\n      tag_187\n      jumpi\n        /* \"contracts/ProofOfStudy.sol\":4120:4124  true */\n      0x01\n        /* \"contracts/ProofOfStudy.sol\":4087:4108  hasCompletedCategoryE */\n      0x09\n        /* \"contracts/ProofOfStudy.sol\":4087:4117  hasCompletedCategoryE[student] */\n      0x00\n        /* \"contracts/ProofOfStudy.sol\":4109:4116  student */\n      dup5\n        /* \"contracts/ProofOfStudy.sol\":4087:4117  hasCompletedCategoryE[student] */\n      0xffffffffffffffffffffffffffffffffffffffff\n      and\n      0xffffffffffffffffffffffffffffffffffffffff\n      and\n      dup2\n      mstore\n      0x20\n      add\n      swap1\n      dup2\n      mstore\n      0x20\n      add\n      0x00\n      keccak256\n      0x00\n        /* \"contracts/ProofOfStudy.sol\":4087:4124  hasCompletedCategoryE[student] = true */\n      0x0100\n      exp\n      dup2\n      sload\n      dup2\n      0xff\n      mul\n      not\n      and\n      swap1\n      dup4\n      iszero\n      iszero\n      mul\n      or\n      swap1\n      sstore\n      pop\n        /* \"contracts/ProofOfStudy.sol\":4054:4135  if (category == 5) {... */\n    tag_187:\n        /* \"contracts/ProofOfStudy.sol\":3967:4135  if (category == 4) {... */\n    tag_186:\n        /* \"contracts/ProofOfStudy.sol\":3880:4135  if (category == 3) {... */\n    tag_184:\n        /* \"contracts/ProofOfStudy.sol\":3793:4135  if (category == 2) {... */\n    tag_182:\n        /* \"contracts/ProofOfStudy.sol\":3706:4135  if (category == 1) {... */\n    tag_180:\n        /* \"contracts/ProofOfStudy.sol\":3543:4141  function setCategoryCompletion(address student, uint8 category) external onlyOwner {... */\n      pop\n      pop\n      jump\t// out\n        /* \"contracts/ProofOfStudy.sol\":2908:3537  function checkCategoryStatus(address student, uint8 category) external view returns (bool) {... */\n    tag_89:\n        /* \"contracts/ProofOfStudy.sol\":2993:2997  bool */\n      0x00\n        /* \"contracts/ProofOfStudy.sol\":3029:3030  1 */\n      0x01\n        /* \"contracts/ProofOfStudy.sol\":3017:3025  category */\n      dup3\n        /* \"contracts/ProofOfStudy.sol\":3017:3030  category >= 1 */\n      0xff\n      and\n      lt\n      iszero\n        /* \"contracts/ProofOfStudy.sol\":3017:3047  category >= 1 && category <= 5 */\n      dup1\n      iszero\n      tag_189\n      jumpi\n      pop\n        /* \"contracts/ProofOfStudy.sol\":3046:3047  5 */\n      0x05\n        /* \"contracts/ProofOfStudy.sol\":3034:3042  category */\n      dup3\n        /* \"contracts/ProofOfStudy.sol\":3034:3047  category <= 5 */\n      0xff\n      and\n      gt\n      iszero\n        /* \"contracts/ProofOfStudy.sol\":3017:3047  category >= 1 && category <= 5 */\n    tag_189:\n        /* \"contracts/ProofOfStudy.sol\":3009:3068  require(category >= 1 && category <= 5, \"Invalid category\") */\n      tag_190\n      jumpi\n      mload(0x40)\n      0x08c379a000000000000000000000000000000000000000000000000000000000\n      dup2\n      mstore\n      0x04\n      add\n      tag_191\n      swap1\n      tag_105\n      jump\t// in\n    tag_191:\n      mload(0x40)\n      dup1\n      swap2\n      sub\n      swap1\n      revert\n    tag_190:\n        /* \"contracts/ProofOfStudy.sol\":3095:3096  1 */\n      0x01\n        /* \"contracts/ProofOfStudy.sol\":3083:3091  category */\n      dup3\n        /* \"contracts/ProofOfStudy.sol\":3083:3096  category == 1 */\n      0xff\n      and\n      sub\n        /* \"contracts/ProofOfStudy.sol\":3079:3508  if (category == 1) {... */\n      tag_192\n      jumpi\n        /* \"contracts/ProofOfStudy.sol\":3119:3140  hasCompletedCategoryA */\n      0x05\n        /* \"contracts/ProofOfStudy.sol\":3119:3149  hasCompletedCategoryA[student] */\n      0x00\n        /* \"contracts/ProofOfStudy.sol\":3141:3148  student */\n      dup5\n        /* \"contracts/ProofOfStudy.sol\":3119:3149  hasCompletedCategoryA[student] */\n      0xffffffffffffffffffffffffffffffffffffffff\n      and\n      0xffffffffffffffffffffffffffffffffffffffff\n      and\n      dup2\n      mstore\n      0x20\n      add\n      swap1\n      dup2\n      mstore\n      0x20\n      add\n      0x00\n      keccak256\n      0x00\n      swap1\n      sload\n      swap1\n      0x0100\n      exp\n      swap1\n      div\n      0xff\n      and\n        /* \"contracts/ProofOfStudy.sol\":3112:3149  return hasCompletedCategoryA[student] */\n      swap1\n      pop\n      jump(tag_188)\n        /* \"contracts/ProofOfStudy.sol\":3079:3508  if (category == 1) {... */\n    tag_192:\n        /* \"contracts/ProofOfStudy.sol\":3182:3183  2 */\n      0x02\n        /* \"contracts/ProofOfStudy.sol\":3170:3178  category */\n      dup3\n        /* \"contracts/ProofOfStudy.sol\":3170:3183  category == 2 */\n      0xff\n      and\n      sub\n        /* \"contracts/ProofOfStudy.sol\":3166:3508  if (category == 2) {... */\n      tag_194\n      jumpi\n        /* \"contracts/ProofOfStudy.sol\":3206:3227  hasCompletedCategoryB */\n      0x06\n        /* \"contracts/ProofOfStudy.sol\":3206:3236  hasCompletedCategoryB[student] */\n      0x00\n        /* \"contracts/ProofOfStudy.sol\":3228:3235  student */\n      dup5\n        /* \"contracts/ProofOfStudy.sol\":3206:3236  hasCompletedCategoryB[student] */\n      0xffffffffffffffffffffffffffffffffffffffff\n      and\n      0xffffffffffffffffffffffffffffffffffffffff\n      and\n      dup2\n      mstore\n      0x20\n      add\n      swap1\n      dup2\n      mstore\n      0x20\n      add\n      0x00\n      keccak256\n      0x00\n      swap1\n      sload\n      swap1\n      0x0100\n      exp\n      swap1\n      div\n      0xff\n      and\n        /* \"contracts/ProofOfStudy.sol\":3199:3236  return hasCompletedCategoryB[student] */\n      swap1\n      pop\n      jump(tag_188)\n        /* \"contracts/ProofOfStudy.sol\":3166:3508  if (category == 2) {... */\n    tag_194:\n        /* \"contracts/ProofOfStudy.sol\":3269:3270  3 */\n      0x03\n        /* \"contracts/ProofOfStudy.sol\":3257:3265  category */\n      dup3\n        /* \"contracts/ProofOfStudy.sol\":3257:3270  category == 3 */\n      0xff\n      and\n      sub\n        /* \"contracts/ProofOfStudy.sol\":3253:3508  if (category == 3) {... */\n      tag_196\n      jumpi\n        /* \"contracts/ProofOfStudy.sol\":3293:3314  hasCompletedCategoryC */\n      0x07\n        /* \"contracts/ProofOfStudy.sol\":3293:3323  hasCompletedCategoryC[student] */\n      0x00\n        /* \"contracts/ProofOfStudy.sol\":3315:3322  student */\n      dup5\n        /* \"contracts/ProofOfStudy.sol\":3293:3323  hasCompletedCategoryC[student] */\n      0xffffffffffffffffffffffffffffffffffffffff\n      and\n      0xffffffffffffffffffffffffffffffffffffffff\n      and\n      dup2\n      mstore\n      0x20\n      add\n      swap1\n      dup2\n      mstore\n      0x20\n      add\n      0x00\n      keccak256\n      0x00\n      swap1\n      sload\n      swap1\n      0x0100\n      exp\n      swap1\n      div\n      0xff\n      and\n        /* \"contracts/ProofOfStudy.sol\":3286:3323  return hasCompletedCategoryC[student] */\n      swap1\n      pop\n      jump(tag_188)\n        /* \"contracts/ProofOfStudy.sol\":3253:3508  if (category == 3) {... */\n    tag_196:\n        /* \"contracts/ProofOfStudy.sol\":3356:3357  4 */\n      0x04\n        /* \"contracts/ProofOfStudy.sol\":3344:3352  category */\n      dup3\n        /* \"contracts/ProofOfStudy.sol\":3344:3357  category == 4 */\n      0xff\n      and\n      sub\n        /* \"contracts/ProofOfStudy.sol\":3340:3508  if (category == 4) {... */\n      tag_198\n      jumpi\n        /* \"contracts/ProofOfStudy.sol\":3380:3401  hasCompletedCategoryD */\n      0x08\n        /* \"contracts/ProofOfStudy.sol\":3380:3410  hasCompletedCategoryD[student] */\n      0x00\n        /* \"contracts/ProofOfStudy.sol\":3402:3409  student */\n      dup5\n        /* \"contracts/ProofOfStudy.sol\":3380:3410  hasCompletedCategoryD[student] */\n      0xffffffffffffffffffffffffffffffffffffffff\n      and\n      0xffffffffffffffffffffffffffffffffffffffff\n      and\n      dup2\n      mstore\n      0x20\n      add\n      swap1\n      dup2\n      mstore\n      0x20\n      add\n      0x00\n      keccak256\n      0x00\n      swap1\n      sload\n      swap1\n      0x0100\n      exp\n      swap1\n      div\n      0xff\n      and\n        /* \"contracts/ProofOfStudy.sol\":3373:3410  return hasCompletedCategoryD[student] */\n      swap1\n      pop\n      jump(tag_188)\n        /* \"contracts/ProofOfStudy.sol\":3340:3508  if (category == 4) {... */\n    tag_198:\n        /* \"contracts/ProofOfStudy.sol\":3443:3444  5 */\n      0x05\n        /* \"contracts/ProofOfStudy.sol\":3431:3439  category */\n      dup3\n        /* \"contracts/ProofOfStudy.sol\":3431:3444  category == 5 */\n      0xff\n      and\n      sub\n        /* \"contracts/ProofOfStudy.sol\":3427:3508  if (category == 5) {... */\n      tag_200\n      jumpi\n        /* \"contracts/ProofOfStudy.sol\":3467:3488  hasCompletedCategoryE */\n      0x09\n        /* \"contracts/ProofOfStudy.sol\":3467:3497  hasCompletedCategoryE[student] */\n      0x00\n        /* \"contracts/ProofOfStudy.sol\":3489:3496  student */\n      dup5\n        /* \"contracts/ProofOfStudy.sol\":3467:3497  hasCompletedCategoryE[student] */\n      0xffffffffffffffffffffffffffffffffffffffff\n      and\n      0xffffffffffffffffffffffffffffffffffffffff\n      and\n      dup2\n      mstore\n      0x20\n      add\n      swap1\n      dup2\n      mstore\n      0x20\n      add\n      0x00\n      keccak256\n      0x00\n      swap1\n      sload\n      swap1\n      0x0100\n      exp\n      swap1\n      div\n      0xff\n      and\n        /* \"contracts/ProofOfStudy.sol\":3460:3497  return hasCompletedCategoryE[student] */\n      swap1\n      pop\n      jump(tag_188)\n        /* \"contracts/ProofOfStudy.sol\":3427:3508  if (category == 5) {... */\n    tag_200:\n        /* \"contracts/ProofOfStudy.sol\":3525:3530  false */\n      0x00\n        /* \"contracts/ProofOfStudy.sol\":3518:3530  return false */\n      swap1\n      pop\n        /* \"contracts/ProofOfStudy.sol\":2908:3537  function checkCategoryStatus(address student, uint8 category) external view returns (bool) {... */\n    tag_188:\n      swap3\n      swap2\n      pop\n      pop\n      jump\t// out\n        /* \"contracts/ProofOfStudy.sol\":611:664  mapping(address => bool) public hasCompletedCategoryA */\n    tag_93:\n      mstore(0x20, 0x05)\n      dup1\n      0x00\n      mstore\n      keccak256(0x00, 0x40)\n      0x00\n      swap2\n      pop\n      sload\n      swap1\n      0x0100\n      exp\n      swap1\n      div\n      0xff\n      and\n      dup2\n      jump\t// out\n        /* \"contracts/ProofOfStudy.sol\":4881:4997  function setTotalTokenCirculation(uint256 amount) external onlyOwner {... */\n    tag_97:\n        /* \"contracts/ProofOfStudy.sol\":5056:5061  owner */\n      0x02\n      0x00\n      swap1\n      sload\n      swap1\n      0x0100\n      exp\n      swap1\n      div\n      0xffffffffffffffffffffffffffffffffffffffff\n      and\n        /* \"contracts/ProofOfStudy.sol\":5042:5061  msg.sender == owner */\n      0xffffffffffffffffffffffffffffffffffffffff\n      and\n        /* \"contracts/ProofOfStudy.sol\":5042:5052  msg.sender */\n      caller\n        /* \"contracts/ProofOfStudy.sol\":5042:5061  msg.sender == owner */\n      0xffffffffffffffffffffffffffffffffffffffff\n      and\n      eq\n        /* \"contracts/ProofOfStudy.sol\":5034:5100  require(msg.sender == owner, \"Only owner can perform this action\") */\n      tag_202\n      jumpi\n      mload(0x40)\n      0x08c379a000000000000000000000000000000000000000000000000000000000\n      dup2\n      mstore\n      0x04\n      add\n      tag_203\n      swap1\n      tag_122\n      jump\t// in\n    tag_203:\n      mload(0x40)\n      dup1\n      swap2\n      sub\n      swap1\n      revert\n    tag_202:\n        /* \"contracts/ProofOfStudy.sol\":4984:4990  amount */\n      dup1\n        /* \"contracts/ProofOfStudy.sol\":4960:4981  totalTokenCirculation */\n      0x04\n        /* \"contracts/ProofOfStudy.sol\":4960:4990  totalTokenCirculation = amount */\n      dup2\n      swap1\n      sstore\n      pop\n        /* \"contracts/ProofOfStudy.sol\":4881:4997  function setTotalTokenCirculation(uint256 amount) external onlyOwner {... */\n      pop\n      jump\t// out\n        /* \"contracts/ProofOfStudy.sol\":502:550  uint8 public constant CATEGORY_D_PERCENTAGE = 25 */\n    tag_99:\n        /* \"contracts/ProofOfStudy.sol\":548:550  25 */\n      0x19\n        /* \"contracts/ProofOfStudy.sol\":502:550  uint8 public constant CATEGORY_D_PERCENTAGE = 25 */\n      dup2\n      jump\t// out\n        /* \"@openzeppelin/contracts/security/ReentrancyGuard.sol\":2336:2623  function _nonReentrantBefore() private {... */\n    tag_138:\n        /* \"@openzeppelin/contracts/security/ReentrancyGuard.sol\":1759:1760  2 */\n      0x02\n        /* \"@openzeppelin/contracts/security/ReentrancyGuard.sol\":2468:2475  _status */\n      sload(0x00)\n        /* \"@openzeppelin/contracts/security/ReentrancyGuard.sol\":2468:2487  _status != _ENTERED */\n      sub\n        /* \"@openzeppelin/contracts/security/ReentrancyGuard.sol\":2460:2523  require(_status != _ENTERED, \"ReentrancyGuard: reentrant call\") */\n      tag_206\n      jumpi\n      mload(0x40)\n      0x08c379a000000000000000000000000000000000000000000000000000000000\n      dup2\n      mstore\n      0x04\n      add\n      tag_207\n      swap1\n      tag_208\n      jump\t// in\n    tag_207:\n      mload(0x40)\n      dup1\n      swap2\n      sub\n      swap1\n      revert\n    tag_206:\n        /* \"@openzeppelin/contracts/security/ReentrancyGuard.sol\":1759:1760  2 */\n      0x02\n        /* \"@openzeppelin/contracts/security/ReentrancyGuard.sol\":2598:2605  _status */\n      0x00\n        /* \"@openzeppelin/contracts/security/ReentrancyGuard.sol\":2598:2616  _status = _ENTERED */\n      dup2\n      swap1\n      sstore\n      pop\n        /* \"@openzeppelin/contracts/security/ReentrancyGuard.sol\":2336:2623  function _nonReentrantBefore() private {... */\n      jump\t// out\n        /* \"@openzeppelin/contracts/security/ReentrancyGuard.sol\":2629:2838  function _nonReentrantAfter() private {... */\n    tag_167:\n        /* \"@openzeppelin/contracts/security/ReentrancyGuard.sol\":1716:1717  1 */\n      0x01\n        /* \"@openzeppelin/contracts/security/ReentrancyGuard.sol\":2809:2816  _status */\n      0x00\n        /* \"@openzeppelin/contracts/security/ReentrancyGuard.sol\":2809:2831  _status = _NOT_ENTERED */\n      dup2\n      swap1\n      sstore\n      pop\n        /* \"@openzeppelin/contracts/security/ReentrancyGuard.sol\":2629:2838  function _nonReentrantAfter() private {... */\n      jump\t// out\n        /* \"#utility.yul\":88:205   */\n    tag_211:\n        /* \"#utility.yul\":197:198   */\n      0x00\n        /* \"#utility.yul\":194:195   */\n      dup1\n        /* \"#utility.yul\":187:199   */\n      revert\n        /* \"#utility.yul\":334:460   */\n    tag_213:\n        /* \"#utility.yul\":371:378   */\n      0x00\n        /* \"#utility.yul\":411:453   */\n      0xffffffffffffffffffffffffffffffffffffffff\n        /* \"#utility.yul\":404:409   */\n      dup3\n        /* \"#utility.yul\":400:454   */\n      and\n        /* \"#utility.yul\":389:454   */\n      swap1\n      pop\n        /* \"#utility.yul\":334:460   */\n      swap2\n      swap1\n      pop\n      jump\t// out\n        /* \"#utility.yul\":466:562   */\n    tag_214:\n        /* \"#utility.yul\":503:510   */\n      0x00\n        /* \"#utility.yul\":532:556   */\n      tag_249\n        /* \"#utility.yul\":550:555   */\n      dup3\n        /* \"#utility.yul\":532:556   */\n      tag_213\n      jump\t// in\n    tag_249:\n        /* \"#utility.yul\":521:556   */\n      swap1\n      pop\n        /* \"#utility.yul\":466:562   */\n      swap2\n      swap1\n      pop\n      jump\t// out\n        /* \"#utility.yul\":568:690   */\n    tag_215:\n        /* \"#utility.yul\":641:665   */\n      tag_251\n        /* \"#utility.yul\":659:664   */\n      dup2\n        /* \"#utility.yul\":641:665   */\n      tag_214\n      jump\t// in\n    tag_251:\n        /* \"#utility.yul\":634:639   */\n      dup2\n        /* \"#utility.yul\":631:666   */\n      eq\n        /* \"#utility.yul\":621:684   */\n      tag_252\n      jumpi\n        /* \"#utility.yul\":680:681   */\n      0x00\n        /* \"#utility.yul\":677:678   */\n      dup1\n        /* \"#utility.yul\":670:682   */\n      revert\n        /* \"#utility.yul\":621:684   */\n    tag_252:\n        /* \"#utility.yul\":568:690   */\n      pop\n      jump\t// out\n        /* \"#utility.yul\":696:835   */\n    tag_216:\n        /* \"#utility.yul\":742:747   */\n      0x00\n        /* \"#utility.yul\":780:786   */\n      dup2\n        /* \"#utility.yul\":767:787   */\n      calldataload\n        /* \"#utility.yul\":758:787   */\n      swap1\n      pop\n        /* \"#utility.yul\":796:829   */\n      tag_254\n        /* \"#utility.yul\":823:828   */\n      dup2\n        /* \"#utility.yul\":796:829   */\n      tag_215\n      jump\t// in\n    tag_254:\n        /* \"#utility.yul\":696:835   */\n      swap3\n      swap2\n      pop\n      pop\n      jump\t// out\n        /* \"#utility.yul\":841:1170   */\n    tag_28:\n        /* \"#utility.yul\":900:906   */\n      0x00\n        /* \"#utility.yul\":949:951   */\n      0x20\n        /* \"#utility.yul\":937:946   */\n      dup3\n        /* \"#utility.yul\":928:935   */\n      dup5\n        /* \"#utility.yul\":924:947   */\n      sub\n        /* \"#utility.yul\":920:952   */\n      slt\n        /* \"#utility.yul\":917:1036   */\n      iszero\n      tag_256\n      jumpi\n        /* \"#utility.yul\":955:1034   */\n      tag_257\n      tag_211\n      jump\t// in\n    tag_257:\n        /* \"#utility.yul\":917:1036   */\n    tag_256:\n        /* \"#utility.yul\":1075:1076   */\n      0x00\n        /* \"#utility.yul\":1100:1153   */\n      tag_258\n        /* \"#utility.yul\":1145:1152   */\n      dup5\n        /* \"#utility.yul\":1136:1142   */\n      dup3\n        /* \"#utility.yul\":1125:1134   */\n      dup6\n        /* \"#utility.yul\":1121:1143   */\n      add\n        /* \"#utility.yul\":1100:1153   */\n      tag_216\n      jump\t// in\n    tag_258:\n        /* \"#utility.yul\":1090:1153   */\n      swap2\n      pop\n        /* \"#utility.yul\":1046:1163   */\n      pop\n        /* \"#utility.yul\":841:1170   */\n      swap3\n      swap2\n      pop\n      pop\n      jump\t// out\n        /* \"#utility.yul\":1176:1266   */\n    tag_217:\n        /* \"#utility.yul\":1210:1217   */\n      0x00\n        /* \"#utility.yul\":1253:1258   */\n      dup2\n        /* \"#utility.yul\":1246:1259   */\n      iszero\n        /* \"#utility.yul\":1239:1260   */\n      iszero\n        /* \"#utility.yul\":1228:1260   */\n      swap1\n      pop\n        /* \"#utility.yul\":1176:1266   */\n      swap2\n      swap1\n      pop\n      jump\t// out\n        /* \"#utility.yul\":1272:1381   */\n    tag_218:\n        /* \"#utility.yul\":1353:1374   */\n      tag_261\n        /* \"#utility.yul\":1368:1373   */\n      dup2\n        /* \"#utility.yul\":1353:1374   */\n      tag_217\n      jump\t// in\n    tag_261:\n        /* \"#utility.yul\":1348:1351   */\n      dup3\n        /* \"#utility.yul\":1341:1375   */\n      mstore\n        /* \"#utility.yul\":1272:1381   */\n      pop\n      pop\n      jump\t// out\n        /* \"#utility.yul\":1387:1597   */\n    tag_31:\n        /* \"#utility.yul\":1474:1478   */\n      0x00\n        /* \"#utility.yul\":1512:1514   */\n      0x20\n        /* \"#utility.yul\":1501:1510   */\n      dup3\n        /* \"#utility.yul\":1497:1515   */\n      add\n        /* \"#utility.yul\":1489:1515   */\n      swap1\n      pop\n        /* \"#utility.yul\":1525:1590   */\n      tag_263\n        /* \"#utility.yul\":1587:1588   */\n      0x00\n        /* \"#utility.yul\":1576:1585   */\n      dup4\n        /* \"#utility.yul\":1572:1589   */\n      add\n        /* \"#utility.yul\":1563:1569   */\n      dup5\n        /* \"#utility.yul\":1525:1590   */\n      tag_218\n      jump\t// in\n    tag_263:\n        /* \"#utility.yul\":1387:1597   */\n      swap3\n      swap2\n      pop\n      pop\n      jump\t// out\n        /* \"#utility.yul\":1603:1680   */\n    tag_219:\n        /* \"#utility.yul\":1640:1647   */\n      0x00\n        /* \"#utility.yul\":1669:1674   */\n      dup2\n        /* \"#utility.yul\":1658:1674   */\n      swap1\n      pop\n        /* \"#utility.yul\":1603:1680   */\n      swap2\n      swap1\n      pop\n      jump\t// out\n        /* \"#utility.yul\":1686:1804   */\n    tag_220:\n        /* \"#utility.yul\":1773:1797   */\n      tag_266\n        /* \"#utility.yul\":1791:1796   */\n      dup2\n        /* \"#utility.yul\":1773:1797   */\n      tag_219\n      jump\t// in\n    tag_266:\n        /* \"#utility.yul\":1768:1771   */\n      dup3\n        /* \"#utility.yul\":1761:1798   */\n      mstore\n        /* \"#utility.yul\":1686:1804   */\n      pop\n      pop\n      jump\t// out\n        /* \"#utility.yul\":1810:2032   */\n    tag_35:\n        /* \"#utility.yul\":1903:1907   */\n      0x00\n        /* \"#utility.yul\":1941:1943   */\n      0x20\n        /* \"#utility.yul\":1930:1939   */\n      dup3\n        /* \"#utility.yul\":1926:1944   */\n      add\n        /* \"#utility.yul\":1918:1944   */\n      swap1\n      pop\n        /* \"#utility.yul\":1954:2025   */\n      tag_268\n        /* \"#utility.yul\":2022:2023   */\n      0x00\n        /* \"#utility.yul\":2011:2020   */\n      dup4\n        /* \"#utility.yul\":2007:2024   */\n      add\n        /* \"#utility.yul\":1998:2004   */\n      dup5\n        /* \"#utility.yul\":1954:2025   */\n      tag_220\n      jump\t// in\n    tag_268:\n        /* \"#utility.yul\":1810:2032   */\n      swap3\n      swap2\n      pop\n      pop\n      jump\t// out\n        /* \"#utility.yul\":2038:2124   */\n    tag_221:\n        /* \"#utility.yul\":2073:2080   */\n      0x00\n        /* \"#utility.yul\":2113:2117   */\n      0xff\n        /* \"#utility.yul\":2106:2111   */\n      dup3\n        /* \"#utility.yul\":2102:2118   */\n      and\n        /* \"#utility.yul\":2091:2118   */\n      swap1\n      pop\n        /* \"#utility.yul\":2038:2124   */\n      swap2\n      swap1\n      pop\n      jump\t// out\n        /* \"#utility.yul\":2130:2242   */\n    tag_222:\n        /* \"#utility.yul\":2213:2235   */\n      tag_271\n        /* \"#utility.yul\":2229:2234   */\n      dup2\n        /* \"#utility.yul\":2213:2235   */\n      tag_221\n      jump\t// in\n    tag_271:\n        /* \"#utility.yul\":2208:2211   */\n      dup3\n        /* \"#utility.yul\":2201:2236   */\n      mstore\n        /* \"#utility.yul\":2130:2242   */\n      pop\n      pop\n      jump\t// out\n        /* \"#utility.yul\":2248:2462   */\n    tag_39:\n        /* \"#utility.yul\":2337:2341   */\n      0x00\n        /* \"#utility.yul\":2375:2377   */\n      0x20\n        /* \"#utility.yul\":2364:2373   */\n      dup3\n        /* \"#utility.yul\":2360:2378   */\n      add\n        /* \"#utility.yul\":2352:2378   */\n      swap1\n      pop\n        /* \"#utility.yul\":2388:2455   */\n      tag_273\n        /* \"#utility.yul\":2452:2453   */\n      0x00\n        /* \"#utility.yul\":2441:2450   */\n      dup4\n        /* \"#utility.yul\":2437:2454   */\n      add\n        /* \"#utility.yul\":2428:2434   */\n      dup5\n        /* \"#utility.yul\":2388:2455   */\n      tag_222\n      jump\t// in\n    tag_273:\n        /* \"#utility.yul\":2248:2462   */\n      swap3\n      swap2\n      pop\n      pop\n      jump\t// out\n        /* \"#utility.yul\":2468:2586   */\n    tag_223:\n        /* \"#utility.yul\":2539:2561   */\n      tag_275\n        /* \"#utility.yul\":2555:2560   */\n      dup2\n        /* \"#utility.yul\":2539:2561   */\n      tag_221\n      jump\t// in\n    tag_275:\n        /* \"#utility.yul\":2532:2537   */\n      dup2\n        /* \"#utility.yul\":2529:2562   */\n      eq\n        /* \"#utility.yul\":2519:2580   */\n      tag_276\n      jumpi\n        /* \"#utility.yul\":2576:2577   */\n      0x00\n        /* \"#utility.yul\":2573:2574   */\n      dup1\n        /* \"#utility.yul\":2566:2578   */\n      revert\n        /* \"#utility.yul\":2519:2580   */\n    tag_276:\n        /* \"#utility.yul\":2468:2586   */\n      pop\n      jump\t// out\n        /* \"#utility.yul\":2592:2727   */\n    tag_224:\n        /* \"#utility.yul\":2636:2641   */\n      0x00\n        /* \"#utility.yul\":2674:2680   */\n      dup2\n        /* \"#utility.yul\":2661:2681   */\n      calldataload\n        /* \"#utility.yul\":2652:2681   */\n      swap1\n      pop\n        /* \"#utility.yul\":2690:2721   */\n      tag_278\n        /* \"#utility.yul\":2715:2720   */\n      dup2\n        /* \"#utility.yul\":2690:2721   */\n      tag_223\n      jump\t// in\n    tag_278:\n        /* \"#utility.yul\":2592:2727   */\n      swap3\n      swap2\n      pop\n      pop\n      jump\t// out\n        /* \"#utility.yul\":2733:3058   */\n    tag_42:\n        /* \"#utility.yul\":2790:2796   */\n      0x00\n        /* \"#utility.yul\":2839:2841   */\n      0x20\n        /* \"#utility.yul\":2827:2836   */\n      dup3\n        /* \"#utility.yul\":2818:2825   */\n      dup5\n        /* \"#utility.yul\":2814:2837   */\n      sub\n        /* \"#utility.yul\":2810:2842   */\n      slt\n        /* \"#utility.yul\":2807:2926   */\n      iszero\n      tag_280\n      jumpi\n        /* \"#utility.yul\":2845:2924   */\n      tag_281\n      tag_211\n      jump\t// in\n    tag_281:\n        /* \"#utility.yul\":2807:2926   */\n    tag_280:\n        /* \"#utility.yul\":2965:2966   */\n      0x00\n        /* \"#utility.yul\":2990:3041   */\n      tag_282\n        /* \"#utility.yul\":3033:3040   */\n      dup5\n        /* \"#utility.yul\":3024:3030   */\n      dup3\n        /* \"#utility.yul\":3013:3022   */\n      dup6\n        /* \"#utility.yul\":3009:3031   */\n      add\n        /* \"#utility.yul\":2990:3041   */\n      tag_224\n      jump\t// in\n    tag_282:\n        /* \"#utility.yul\":2980:3041   */\n      swap2\n      pop\n        /* \"#utility.yul\":2936:3051   */\n      pop\n        /* \"#utility.yul\":2733:3058   */\n      swap3\n      swap2\n      pop\n      pop\n      jump\t// out\n        /* \"#utility.yul\":3064:3534   */\n    tag_47:\n        /* \"#utility.yul\":3130:3136   */\n      0x00\n        /* \"#utility.yul\":3138:3144   */\n      dup1\n        /* \"#utility.yul\":3187:3189   */\n      0x40\n        /* \"#utility.yul\":3175:3184   */\n      dup4\n        /* \"#utility.yul\":3166:3173   */\n      dup6\n        /* \"#utility.yul\":3162:3185   */\n      sub\n        /* \"#utility.yul\":3158:3190   */\n      slt\n        /* \"#utility.yul\":3155:3274   */\n      iszero\n      tag_284\n      jumpi\n        /* \"#utility.yul\":3193:3272   */\n      tag_285\n      tag_211\n      jump\t// in\n    tag_285:\n        /* \"#utility.yul\":3155:3274   */\n    tag_284:\n        /* \"#utility.yul\":3313:3314   */\n      0x00\n        /* \"#utility.yul\":3338:3391   */\n      tag_286\n        /* \"#utility.yul\":3383:3390   */\n      dup6\n        /* \"#utility.yul\":3374:3380   */\n      dup3\n        /* \"#utility.yul\":3363:3372   */\n      dup7\n        /* \"#utility.yul\":3359:3381   */\n      add\n        /* \"#utility.yul\":3338:3391   */\n      tag_216\n      jump\t// in\n    tag_286:\n        /* \"#utility.yul\":3328:3391   */\n      swap3\n      pop\n        /* \"#utility.yul\":3284:3401   */\n      pop\n        /* \"#utility.yul\":3440:3442   */\n      0x20\n        /* \"#utility.yul\":3466:3517   */\n      tag_287\n        /* \"#utility.yul\":3509:3516   */\n      dup6\n        /* \"#utility.yul\":3500:3506   */\n      dup3\n        /* \"#utility.yul\":3489:3498   */\n      dup7\n        /* \"#utility.yul\":3485:3507   */\n      add\n        /* \"#utility.yul\":3466:3517   */\n      tag_224\n      jump\t// in\n    tag_287:\n        /* \"#utility.yul\":3456:3517   */\n      swap2\n      pop\n        /* \"#utility.yul\":3411:3527   */\n      pop\n        /* \"#utility.yul\":3064:3534   */\n      swap3\n      pop\n      swap3\n      swap1\n      pop\n      jump\t// out\n        /* \"#utility.yul\":3540:3662   */\n    tag_225:\n        /* \"#utility.yul\":3613:3637   */\n      tag_289\n        /* \"#utility.yul\":3631:3636   */\n      dup2\n        /* \"#utility.yul\":3613:3637   */\n      tag_219\n      jump\t// in\n    tag_289:\n        /* \"#utility.yul\":3606:3611   */\n      dup2\n        /* \"#utility.yul\":3603:3638   */\n      eq\n        /* \"#utility.yul\":3593:3656   */\n      tag_290\n      jumpi\n        /* \"#utility.yul\":3652:3653   */\n      0x00\n        /* \"#utility.yul\":3649:3650   */\n      dup1\n        /* \"#utility.yul\":3642:3654   */\n      revert\n        /* \"#utility.yul\":3593:3656   */\n    tag_290:\n        /* \"#utility.yul\":3540:3662   */\n      pop\n      jump\t// out\n        /* \"#utility.yul\":3668:3807   */\n    tag_226:\n        /* \"#utility.yul\":3714:3719   */\n      0x00\n        /* \"#utility.yul\":3752:3758   */\n      dup2\n        /* \"#utility.yul\":3739:3759   */\n      calldataload\n        /* \"#utility.yul\":3730:3759   */\n      swap1\n      pop\n        /* \"#utility.yul\":3768:3801   */\n      tag_292\n        /* \"#utility.yul\":3795:3800   */\n      dup2\n        /* \"#utility.yul\":3768:3801   */\n      tag_225\n      jump\t// in\n    tag_292:\n        /* \"#utility.yul\":3668:3807   */\n      swap3\n      swap2\n      pop\n      pop\n      jump\t// out\n        /* \"#utility.yul\":3813:4142   */\n    tag_57:\n        /* \"#utility.yul\":3872:3878   */\n      0x00\n        /* \"#utility.yul\":3921:3923   */\n      0x20\n        /* \"#utility.yul\":3909:3918   */\n      dup3\n        /* \"#utility.yul\":3900:3907   */\n      dup5\n        /* \"#utility.yul\":3896:3919   */\n      sub\n        /* \"#utility.yul\":3892:3924   */\n      slt\n        /* \"#utility.yul\":3889:4008   */\n      iszero\n      tag_294\n      jumpi\n        /* \"#utility.yul\":3927:4006   */\n      tag_295\n      tag_211\n      jump\t// in\n    tag_295:\n        /* \"#utility.yul\":3889:4008   */\n    tag_294:\n        /* \"#utility.yul\":4047:4048   */\n      0x00\n        /* \"#utility.yul\":4072:4125   */\n      tag_296\n        /* \"#utility.yul\":4117:4124   */\n      dup5\n        /* \"#utility.yul\":4108:4114   */\n      dup3\n        /* \"#utility.yul\":4097:4106   */\n      dup6\n        /* \"#utility.yul\":4093:4115   */\n      add\n        /* \"#utility.yul\":4072:4125   */\n      tag_226\n      jump\t// in\n    tag_296:\n        /* \"#utility.yul\":4062:4125   */\n      swap2\n      pop\n        /* \"#utility.yul\":4018:4135   */\n      pop\n        /* \"#utility.yul\":3813:4142   */\n      swap3\n      swap2\n      pop\n      pop\n      jump\t// out\n        /* \"#utility.yul\":4148:4266   */\n    tag_227:\n        /* \"#utility.yul\":4235:4259   */\n      tag_298\n        /* \"#utility.yul\":4253:4258   */\n      dup2\n        /* \"#utility.yul\":4235:4259   */\n      tag_214\n      jump\t// in\n    tag_298:\n        /* \"#utility.yul\":4230:4233   */\n      dup3\n        /* \"#utility.yul\":4223:4260   */\n      mstore\n        /* \"#utility.yul\":4148:4266   */\n      pop\n      pop\n      jump\t// out\n        /* \"#utility.yul\":4272:4494   */\n    tag_65:\n        /* \"#utility.yul\":4365:4369   */\n      0x00\n        /* \"#utility.yul\":4403:4405   */\n      0x20\n        /* \"#utility.yul\":4392:4401   */\n      dup3\n        /* \"#utility.yul\":4388:4406   */\n      add\n        /* \"#utility.yul\":4380:4406   */\n      swap1\n      pop\n        /* \"#utility.yul\":4416:4487   */\n      tag_300\n        /* \"#utility.yul\":4484:4485   */\n      0x00\n        /* \"#utility.yul\":4473:4482   */\n      dup4\n        /* \"#utility.yul\":4469:4486   */\n      add\n        /* \"#utility.yul\":4460:4466   */\n      dup5\n        /* \"#utility.yul\":4416:4487   */\n      tag_227\n      jump\t// in\n    tag_300:\n        /* \"#utility.yul\":4272:4494   */\n      swap3\n      swap2\n      pop\n      pop\n      jump\t// out\n        /* \"#utility.yul\":4500:4669   */\n    tag_228:\n        /* \"#utility.yul\":4584:4595   */\n      0x00\n        /* \"#utility.yul\":4618:4624   */\n      dup3\n        /* \"#utility.yul\":4613:4616   */\n      dup3\n        /* \"#utility.yul\":4606:4625   */\n      mstore\n        /* \"#utility.yul\":4658:4662   */\n      0x20\n        /* \"#utility.yul\":4653:4656   */\n      dup3\n        /* \"#utility.yul\":4649:4663   */\n      add\n        /* \"#utility.yul\":4634:4663   */\n      swap1\n      pop\n        /* \"#utility.yul\":4500:4669   */\n      swap3\n      swap2\n      pop\n      pop\n      jump\t// out\n        /* \"#utility.yul\":4675:4841   */\n    tag_229:\n        /* \"#utility.yul\":4815:4833   */\n      0x496e76616c69642063617465676f727900000000000000000000000000000000\n        /* \"#utility.yul\":4811:4812   */\n      0x00\n        /* \"#utility.yul\":4803:4809   */\n      dup3\n        /* \"#utility.yul\":4799:4813   */\n      add\n        /* \"#utility.yul\":4792:4834   */\n      mstore\n        /* \"#utility.yul\":4675:4841   */\n      pop\n      jump\t// out\n        /* \"#utility.yul\":4847:5213   */\n    tag_230:\n        /* \"#utility.yul\":4989:4992   */\n      0x00\n        /* \"#utility.yul\":5010:5077   */\n      tag_304\n        /* \"#utility.yul\":5074:5076   */\n      0x10\n        /* \"#utility.yul\":5069:5072   */\n      dup4\n        /* \"#utility.yul\":5010:5077   */\n      tag_228\n      jump\t// in\n    tag_304:\n        /* \"#utility.yul\":5003:5077   */\n      swap2\n      pop\n        /* \"#utility.yul\":5086:5179   */\n      tag_305\n        /* \"#utility.yul\":5175:5178   */\n      dup3\n        /* \"#utility.yul\":5086:5179   */\n      tag_229\n      jump\t// in\n    tag_305:\n        /* \"#utility.yul\":5204:5206   */\n      0x20\n        /* \"#utility.yul\":5199:5202   */\n      dup3\n        /* \"#utility.yul\":5195:5207   */\n      add\n        /* \"#utility.yul\":5188:5207   */\n      swap1\n      pop\n        /* \"#utility.yul\":4847:5213   */\n      swap2\n      swap1\n      pop\n      jump\t// out\n        /* \"#utility.yul\":5219:5638   */\n    tag_105:\n        /* \"#utility.yul\":5385:5389   */\n      0x00\n        /* \"#utility.yul\":5423:5425   */\n      0x20\n        /* \"#utility.yul\":5412:5421   */\n      dup3\n        /* \"#utility.yul\":5408:5426   */\n      add\n        /* \"#utility.yul\":5400:5426   */\n      swap1\n      pop\n        /* \"#utility.yul\":5472:5481   */\n      dup2\n        /* \"#utility.yul\":5466:5470   */\n      dup2\n        /* \"#utility.yul\":5462:5482   */\n      sub\n        /* \"#utility.yul\":5458:5459   */\n      0x00\n        /* \"#utility.yul\":5447:5456   */\n      dup4\n        /* \"#utility.yul\":5443:5460   */\n      add\n        /* \"#utility.yul\":5436:5483   */\n      mstore\n        /* \"#utility.yul\":5500:5631   */\n      tag_307\n        /* \"#utility.yul\":5626:5630   */\n      dup2\n        /* \"#utility.yul\":5500:5631   */\n      tag_230\n      jump\t// in\n    tag_307:\n        /* \"#utility.yul\":5492:5631   */\n      swap1\n      pop\n        /* \"#utility.yul\":5219:5638   */\n      swap2\n      swap1\n      pop\n      jump\t// out\n        /* \"#utility.yul\":5644:5824   */\n    tag_231:\n        /* \"#utility.yul\":5692:5769   */\n      0x4e487b7100000000000000000000000000000000000000000000000000000000\n        /* \"#utility.yul\":5689:5690   */\n      0x00\n        /* \"#utility.yul\":5682:5770   */\n      mstore\n        /* \"#utility.yul\":5789:5793   */\n      0x11\n        /* \"#utility.yul\":5786:5787   */\n      0x04\n        /* \"#utility.yul\":5779:5794   */\n      mstore\n        /* \"#utility.yul\":5813:5817   */\n      0x24\n        /* \"#utility.yul\":5810:5811   */\n      0x00\n        /* \"#utility.yul\":5803:5818   */\n      revert\n        /* \"#utility.yul\":5830:6240   */\n    tag_116:\n        /* \"#utility.yul\":5870:5877   */\n      0x00\n        /* \"#utility.yul\":5893:5913   */\n      tag_310\n        /* \"#utility.yul\":5911:5912   */\n      dup3\n        /* \"#utility.yul\":5893:5913   */\n      tag_219\n      jump\t// in\n    tag_310:\n        /* \"#utility.yul\":5888:5913   */\n      swap2\n      pop\n        /* \"#utility.yul\":5927:5947   */\n      tag_311\n        /* \"#utility.yul\":5945:5946   */\n      dup4\n        /* \"#utility.yul\":5927:5947   */\n      tag_219\n      jump\t// in\n    tag_311:\n        /* \"#utility.yul\":5922:5947   */\n      swap3\n      pop\n        /* \"#utility.yul\":5982:5983   */\n      dup3\n        /* \"#utility.yul\":5979:5980   */\n      dup3\n        /* \"#utility.yul\":5975:5984   */\n      mul\n        /* \"#utility.yul\":6004:6034   */\n      tag_312\n        /* \"#utility.yul\":6022:6033   */\n      dup2\n        /* \"#utility.yul\":6004:6034   */\n      tag_219\n      jump\t// in\n    tag_312:\n        /* \"#utility.yul\":5993:6034   */\n      swap2\n      pop\n        /* \"#utility.yul\":6183:6184   */\n      dup3\n        /* \"#utility.yul\":6174:6181   */\n      dup3\n        /* \"#utility.yul\":6170:6185   */\n      div\n        /* \"#utility.yul\":6167:6168   */\n      dup5\n        /* \"#utility.yul\":6164:6186   */\n      eq\n        /* \"#utility.yul\":6144:6145   */\n      dup4\n        /* \"#utility.yul\":6137:6146   */\n      iszero\n        /* \"#utility.yul\":6117:6200   */\n      or\n        /* \"#utility.yul\":6094:6233   */\n      tag_313\n      jumpi\n        /* \"#utility.yul\":6213:6231   */\n      tag_314\n      tag_231\n      jump\t// in\n    tag_314:\n        /* \"#utility.yul\":6094:6233   */\n    tag_313:\n        /* \"#utility.yul\":5878:6240   */\n      pop\n        /* \"#utility.yul\":5830:6240   */\n      swap3\n      swap2\n      pop\n      pop\n      jump\t// out\n        /* \"#utility.yul\":6246:6426   */\n    tag_232:\n        /* \"#utility.yul\":6294:6371   */\n      0x4e487b7100000000000000000000000000000000000000000000000000000000\n        /* \"#utility.yul\":6291:6292   */\n      0x00\n        /* \"#utility.yul\":6284:6372   */\n      mstore\n        /* \"#utility.yul\":6391:6395   */\n      0x12\n        /* \"#utility.yul\":6388:6389   */\n      0x04\n        /* \"#utility.yul\":6381:6396   */\n      mstore\n        /* \"#utility.yul\":6415:6419   */\n      0x24\n        /* \"#utility.yul\":6412:6413   */\n      0x00\n        /* \"#utility.yul\":6405:6420   */\n      revert\n        /* \"#utility.yul\":6432:6617   */\n    tag_118:\n        /* \"#utility.yul\":6472:6473   */\n      0x00\n        /* \"#utility.yul\":6489:6509   */\n      tag_317\n        /* \"#utility.yul\":6507:6508   */\n      dup3\n        /* \"#utility.yul\":6489:6509   */\n      tag_219\n      jump\t// in\n    tag_317:\n        /* \"#utility.yul\":6484:6509   */\n      swap2\n      pop\n        /* \"#utility.yul\":6523:6543   */\n      tag_318\n        /* \"#utility.yul\":6541:6542   */\n      dup4\n        /* \"#utility.yul\":6523:6543   */\n      tag_219\n      jump\t// in\n    tag_318:\n        /* \"#utility.yul\":6518:6543   */\n      swap3\n      pop\n        /* \"#utility.yul\":6562:6563   */\n      dup3\n        /* \"#utility.yul\":6552:6587   */\n      tag_319\n      jumpi\n        /* \"#utility.yul\":6567:6585   */\n      tag_320\n      tag_232\n      jump\t// in\n    tag_320:\n        /* \"#utility.yul\":6552:6587   */\n    tag_319:\n        /* \"#utility.yul\":6609:6610   */\n      dup3\n        /* \"#utility.yul\":6606:6607   */\n      dup3\n        /* \"#utility.yul\":6602:6611   */\n      div\n        /* \"#utility.yul\":6597:6611   */\n      swap1\n      pop\n        /* \"#utility.yul\":6432:6617   */\n      swap3\n      swap2\n      pop\n      pop\n      jump\t// out\n        /* \"#utility.yul\":6623:6844   */\n    tag_233:\n        /* \"#utility.yul\":6763:6797   */\n      0x4f6e6c79206f776e65722063616e20706572666f726d20746869732061637469\n        /* \"#utility.yul\":6759:6760   */\n      0x00\n        /* \"#utility.yul\":6751:6757   */\n      dup3\n        /* \"#utility.yul\":6747:6761   */\n      add\n        /* \"#utility.yul\":6740:6798   */\n      mstore\n        /* \"#utility.yul\":6832:6836   */\n      0x6f6e000000000000000000000000000000000000000000000000000000000000\n        /* \"#utility.yul\":6827:6829   */\n      0x20\n        /* \"#utility.yul\":6819:6825   */\n      dup3\n        /* \"#utility.yul\":6815:6830   */\n      add\n        /* \"#utility.yul\":6808:6837   */\n      mstore\n        /* \"#utility.yul\":6623:6844   */\n      pop\n      jump\t// out\n        /* \"#utility.yul\":6850:7216   */\n    tag_234:\n        /* \"#utility.yul\":6992:6995   */\n      0x00\n        /* \"#utility.yul\":7013:7080   */\n      tag_323\n        /* \"#utility.yul\":7077:7079   */\n      0x22\n        /* \"#utility.yul\":7072:7075   */\n      dup4\n        /* \"#utility.yul\":7013:7080   */\n      tag_228\n      jump\t// in\n    tag_323:\n        /* \"#utility.yul\":7006:7080   */\n      swap2\n      pop\n        /* \"#utility.yul\":7089:7182   */\n      tag_324\n        /* \"#utility.yul\":7178:7181   */\n      dup3\n        /* \"#utility.yul\":7089:7182   */\n      tag_233\n      jump\t// in\n    tag_324:\n        /* \"#utility.yul\":7207:7209   */\n      0x40\n        /* \"#utility.yul\":7202:7205   */\n      dup3\n        /* \"#utility.yul\":7198:7210   */\n      add\n        /* \"#utility.yul\":7191:7210   */\n      swap1\n      pop\n        /* \"#utility.yul\":6850:7216   */\n      swap2\n      swap1\n      pop\n      jump\t// out\n        /* \"#utility.yul\":7222:7641   */\n    tag_122:\n        /* \"#utility.yul\":7388:7392   */\n      0x00\n        /* \"#utility.yul\":7426:7428   */\n      0x20\n        /* \"#utility.yul\":7415:7424   */\n      dup3\n        /* \"#utility.yul\":7411:7429   */\n      add\n        /* \"#utility.yul\":7403:7429   */\n      swap1\n      pop\n        /* \"#utility.yul\":7475:7484   */\n      dup2\n        /* \"#utility.yul\":7469:7473   */\n      dup2\n        /* \"#utility.yul\":7465:7485   */\n      sub\n        /* \"#utility.yul\":7461:7462   */\n      0x00\n        /* \"#utility.yul\":7450:7459   */\n      dup4\n        /* \"#utility.yul\":7446:7463   */\n      add\n        /* \"#utility.yul\":7439:7486   */\n      mstore\n        /* \"#utility.yul\":7503:7634   */\n      tag_326\n        /* \"#utility.yul\":7629:7633   */\n      dup2\n        /* \"#utility.yul\":7503:7634   */\n      tag_234\n      jump\t// in\n    tag_326:\n        /* \"#utility.yul\":7495:7634   */\n      swap1\n      pop\n        /* \"#utility.yul\":7222:7641   */\n      swap2\n      swap1\n      pop\n      jump\t// out\n        /* \"#utility.yul\":7647:7882   */\n    tag_235:\n        /* \"#utility.yul\":7787:7821   */\n      0x53747564656e7420686173206e6f7420636f6d706c6574656420746865207370\n        /* \"#utility.yul\":7783:7784   */\n      0x00\n        /* \"#utility.yul\":7775:7781   */\n      dup3\n        /* \"#utility.yul\":7771:7785   */\n      add\n        /* \"#utility.yul\":7764:7822   */\n      mstore\n        /* \"#utility.yul\":7856:7874   */\n      0x656369666965642063617465676f727900000000000000000000000000000000\n        /* \"#utility.yul\":7851:7853   */\n      0x20\n        /* \"#utility.yul\":7843:7849   */\n      dup3\n        /* \"#utility.yul\":7839:7854   */\n      add\n        /* \"#utility.yul\":7832:7875   */\n      mstore\n        /* \"#utility.yul\":7647:7882   */\n      pop\n      jump\t// out\n        /* \"#utility.yul\":7888:8254   */\n    tag_236:\n        /* \"#utility.yul\":8030:8033   */\n      0x00\n        /* \"#utility.yul\":8051:8118   */\n      tag_329\n        /* \"#utility.yul\":8115:8117   */\n      0x30\n        /* \"#utility.yul\":8110:8113   */\n      dup4\n        /* \"#utility.yul\":8051:8118   */\n      tag_228\n      jump\t// in\n    tag_329:\n        /* \"#utility.yul\":8044:8118   */\n      swap2\n      pop\n        /* \"#utility.yul\":8127:8220   */\n      tag_330\n        /* \"#utility.yul\":8216:8219   */\n      dup3\n        /* \"#utility.yul\":8127:8220   */\n      tag_235\n      jump\t// in\n    tag_330:\n        /* \"#utility.yul\":8245:8247   */\n      0x40\n        /* \"#utility.yul\":8240:8243   */\n      dup3\n        /* \"#utility.yul\":8236:8248   */\n      add\n        /* \"#utility.yul\":8229:8248   */\n      swap1\n      pop\n        /* \"#utility.yul\":7888:8254   */\n      swap2\n      swap1\n      pop\n      jump\t// out\n        /* \"#utility.yul\":8260:8679   */\n    tag_151:\n        /* \"#utility.yul\":8426:8430   */\n      0x00\n        /* \"#utility.yul\":8464:8466   */\n      0x20\n        /* \"#utility.yul\":8453:8462   */\n      dup3\n        /* \"#utility.yul\":8449:8467   */\n      add\n        /* \"#utility.yul\":8441:8467   */\n      swap1\n      pop\n        /* \"#utility.yul\":8513:8522   */\n      dup2\n        /* \"#utility.yul\":8507:8511   */\n      dup2\n        /* \"#utility.yul\":8503:8523   */\n      sub\n        /* \"#utility.yul\":8499:8500   */\n      0x00\n        /* \"#utility.yul\":8488:8497   */\n      dup4\n        /* \"#utility.yul\":8484:8501   */\n      add\n        /* \"#utility.yul\":8477:8524   */\n      mstore\n        /* \"#utility.yul\":8541:8672   */\n      tag_332\n        /* \"#utility.yul\":8667:8671   */\n      dup2\n        /* \"#utility.yul\":8541:8672   */\n      tag_236\n      jump\t// in\n    tag_332:\n        /* \"#utility.yul\":8533:8672   */\n      swap1\n      pop\n        /* \"#utility.yul\":8260:8679   */\n      swap2\n      swap1\n      pop\n      jump\t// out\n        /* \"#utility.yul\":8685:8910   */\n    tag_237:\n        /* \"#utility.yul\":8825:8859   */\n      0x4e6f207265776172647320617661696c61626c6520666f722074686973206361\n        /* \"#utility.yul\":8821:8822   */\n      0x00\n        /* \"#utility.yul\":8813:8819   */\n      dup3\n        /* \"#utility.yul\":8809:8823   */\n      add\n        /* \"#utility.yul\":8802:8860   */\n      mstore\n        /* \"#utility.yul\":8894:8902   */\n      0x7465676f72790000000000000000000000000000000000000000000000000000\n        /* \"#utility.yul\":8889:8891   */\n      0x20\n        /* \"#utility.yul\":8881:8887   */\n      dup3\n        /* \"#utility.yul\":8877:8892   */\n      add\n        /* \"#utility.yul\":8870:8903   */\n      mstore\n        /* \"#utility.yul\":8685:8910   */\n      pop\n      jump\t// out\n        /* \"#utility.yul\":8916:9282   */\n    tag_238:\n        /* \"#utility.yul\":9058:9061   */\n      0x00\n        /* \"#utility.yul\":9079:9146   */\n      tag_335\n        /* \"#utility.yul\":9143:9145   */\n      0x26\n        /* \"#utility.yul\":9138:9141   */\n      dup4\n        /* \"#utility.yul\":9079:9146   */\n      tag_228\n      jump\t// in\n    tag_335:\n        /* \"#utility.yul\":9072:9146   */\n      swap2\n      pop\n        /* \"#utility.yul\":9155:9248   */\n      tag_336\n        /* \"#utility.yul\":9244:9247   */\n      dup3\n        /* \"#utility.yul\":9155:9248   */\n      tag_237\n      jump\t// in\n    tag_336:\n        /* \"#utility.yul\":9273:9275   */\n      0x40\n        /* \"#utility.yul\":9268:9271   */\n      dup3\n        /* \"#utility.yul\":9264:9276   */\n      add\n        /* \"#utility.yul\":9257:9276   */\n      swap1\n      pop\n        /* \"#utility.yul\":8916:9282   */\n      swap2\n      swap1\n      pop\n      jump\t// out\n        /* \"#utility.yul\":9288:9707   */\n    tag_156:\n        /* \"#utility.yul\":9454:9458   */\n      0x00\n        /* \"#utility.yul\":9492:9494   */\n      0x20\n        /* \"#utility.yul\":9481:9490   */\n      dup3\n        /* \"#utility.yul\":9477:9495   */\n      add\n        /* \"#utility.yul\":9469:9495   */\n      swap1\n      pop\n        /* \"#utility.yul\":9541:9550   */\n      dup2\n        /* \"#utility.yul\":9535:9539   */\n      dup2\n        /* \"#utility.yul\":9531:9551   */\n      sub\n        /* \"#utility.yul\":9527:9528   */\n      0x00\n        /* \"#utility.yul\":9516:9525   */\n      dup4\n        /* \"#utility.yul\":9512:9529   */\n      add\n        /* \"#utility.yul\":9505:9552   */\n      mstore\n        /* \"#utility.yul\":9569:9700   */\n      tag_338\n        /* \"#utility.yul\":9695:9699   */\n      dup2\n        /* \"#utility.yul\":9569:9700   */\n      tag_238\n      jump\t// in\n    tag_338:\n        /* \"#utility.yul\":9561:9700   */\n      swap1\n      pop\n        /* \"#utility.yul\":9288:9707   */\n      swap2\n      swap1\n      pop\n      jump\t// out\n        /* \"#utility.yul\":9713:9907   */\n    tag_158:\n        /* \"#utility.yul\":9753:9757   */\n      0x00\n        /* \"#utility.yul\":9773:9793   */\n      tag_340\n        /* \"#utility.yul\":9791:9792   */\n      dup3\n        /* \"#utility.yul\":9773:9793   */\n      tag_219\n      jump\t// in\n    tag_340:\n        /* \"#utility.yul\":9768:9793   */\n      swap2\n      pop\n        /* \"#utility.yul\":9807:9827   */\n      tag_341\n        /* \"#utility.yul\":9825:9826   */\n      dup4\n        /* \"#utility.yul\":9807:9827   */\n      tag_219\n      jump\t// in\n    tag_341:\n        /* \"#utility.yul\":9802:9827   */\n      swap3\n      pop\n        /* \"#utility.yul\":9851:9852   */\n      dup3\n        /* \"#utility.yul\":9848:9849   */\n      dup3\n        /* \"#utility.yul\":9844:9853   */\n      sub\n        /* \"#utility.yul\":9836:9853   */\n      swap1\n      pop\n        /* \"#utility.yul\":9875:9876   */\n      dup2\n        /* \"#utility.yul\":9869:9873   */\n      dup2\n        /* \"#utility.yul\":9866:9877   */\n      gt\n        /* \"#utility.yul\":9863:9900   */\n      iszero\n      tag_342\n      jumpi\n        /* \"#utility.yul\":9880:9898   */\n      tag_343\n      tag_231\n      jump\t// in\n    tag_343:\n        /* \"#utility.yul\":9863:9900   */\n    tag_342:\n        /* \"#utility.yul\":9713:9907   */\n      swap3\n      swap2\n      pop\n      pop\n      jump\t// out\n        /* \"#utility.yul\":9913:10245   */\n    tag_160:\n        /* \"#utility.yul\":10034:10038   */\n      0x00\n        /* \"#utility.yul\":10072:10074   */\n      0x40\n        /* \"#utility.yul\":10061:10070   */\n      dup3\n        /* \"#utility.yul\":10057:10075   */\n      add\n        /* \"#utility.yul\":10049:10075   */\n      swap1\n      pop\n        /* \"#utility.yul\":10085:10156   */\n      tag_345\n        /* \"#utility.yul\":10153:10154   */\n      0x00\n        /* \"#utility.yul\":10142:10151   */\n      dup4\n        /* \"#utility.yul\":10138:10155   */\n      add\n        /* \"#utility.yul\":10129:10135   */\n      dup6\n        /* \"#utility.yul\":10085:10156   */\n      tag_227\n      jump\t// in\n    tag_345:\n        /* \"#utility.yul\":10166:10238   */\n      tag_346\n        /* \"#utility.yul\":10234:10236   */\n      0x20\n        /* \"#utility.yul\":10223:10232   */\n      dup4\n        /* \"#utility.yul\":10219:10237   */\n      add\n        /* \"#utility.yul\":10210:10216   */\n      dup5\n        /* \"#utility.yul\":10166:10238   */\n      tag_220\n      jump\t// in\n    tag_346:\n        /* \"#utility.yul\":9913:10245   */\n      swap4\n      swap3\n      pop\n      pop\n      pop\n      jump\t// out\n        /* \"#utility.yul\":10251:10367   */\n    tag_239:\n        /* \"#utility.yul\":10321:10342   */\n      tag_348\n        /* \"#utility.yul\":10336:10341   */\n      dup2\n        /* \"#utility.yul\":10321:10342   */\n      tag_217\n      jump\t// in\n    tag_348:\n        /* \"#utility.yul\":10314:10319   */\n      dup2\n        /* \"#utility.yul\":10311:10343   */\n      eq\n        /* \"#utility.yul\":10301:10361   */\n      tag_349\n      jumpi\n        /* \"#utility.yul\":10357:10358   */\n      0x00\n        /* \"#utility.yul\":10354:10355   */\n      dup1\n        /* \"#utility.yul\":10347:10359   */\n      revert\n        /* \"#utility.yul\":10301:10361   */\n    tag_349:\n        /* \"#utility.yul\":10251:10367   */\n      pop\n      jump\t// out\n        /* \"#utility.yul\":10373:10510   */\n    tag_240:\n        /* \"#utility.yul\":10427:10432   */\n      0x00\n        /* \"#utility.yul\":10458:10464   */\n      dup2\n        /* \"#utility.yul\":10452:10465   */\n      mload\n        /* \"#utility.yul\":10443:10465   */\n      swap1\n      pop\n        /* \"#utility.yul\":10474:10504   */\n      tag_351\n        /* \"#utility.yul\":10498:10503   */\n      dup2\n        /* \"#utility.yul\":10474:10504   */\n      tag_239\n      jump\t// in\n    tag_351:\n        /* \"#utility.yul\":10373:10510   */\n      swap3\n      swap2\n      pop\n      pop\n      jump\t// out\n        /* \"#utility.yul\":10516:10861   */\n    tag_164:\n        /* \"#utility.yul\":10583:10589   */\n      0x00\n        /* \"#utility.yul\":10632:10634   */\n      0x20\n        /* \"#utility.yul\":10620:10629   */\n      dup3\n        /* \"#utility.yul\":10611:10618   */\n      dup5\n        /* \"#utility.yul\":10607:10630   */\n      sub\n        /* \"#utility.yul\":10603:10635   */\n      slt\n        /* \"#utility.yul\":10600:10719   */\n      iszero\n      tag_353\n      jumpi\n        /* \"#utility.yul\":10638:10717   */\n      tag_354\n      tag_211\n      jump\t// in\n    tag_354:\n        /* \"#utility.yul\":10600:10719   */\n    tag_353:\n        /* \"#utility.yul\":10758:10759   */\n      0x00\n        /* \"#utility.yul\":10783:10844   */\n      tag_355\n        /* \"#utility.yul\":10836:10843   */\n      dup5\n        /* \"#utility.yul\":10827:10833   */\n      dup3\n        /* \"#utility.yul\":10816:10825   */\n      dup6\n        /* \"#utility.yul\":10812:10834   */\n      add\n        /* \"#utility.yul\":10783:10844   */\n      tag_240\n      jump\t// in\n    tag_355:\n        /* \"#utility.yul\":10773:10844   */\n      swap2\n      pop\n        /* \"#utility.yul\":10729:10854   */\n      pop\n        /* \"#utility.yul\":10516:10861   */\n      swap3\n      swap2\n      pop\n      pop\n      jump\t// out\n        /* \"#utility.yul\":10867:11048   */\n    tag_241:\n        /* \"#utility.yul\":11007:11040   */\n      0x5265656e7472616e637947756172643a207265656e7472616e742063616c6c00\n        /* \"#utility.yul\":11003:11004   */\n      0x00\n        /* \"#utility.yul\":10995:11001   */\n      dup3\n        /* \"#utility.yul\":10991:11005   */\n      add\n        /* \"#utility.yul\":10984:11041   */\n      mstore\n        /* \"#utility.yul\":10867:11048   */\n      pop\n      jump\t// out\n        /* \"#utility.yul\":11054:11420   */\n    tag_242:\n        /* \"#utility.yul\":11196:11199   */\n      0x00\n        /* \"#utility.yul\":11217:11284   */\n      tag_358\n        /* \"#utility.yul\":11281:11283   */\n      0x1f\n        /* \"#utility.yul\":11276:11279   */\n      dup4\n        /* \"#utility.yul\":11217:11284   */\n      tag_228\n      jump\t// in\n    tag_358:\n        /* \"#utility.yul\":11210:11284   */\n      swap2\n      pop\n        /* \"#utility.yul\":11293:11386   */\n      tag_359\n        /* \"#utility.yul\":11382:11385   */\n      dup3\n        /* \"#utility.yul\":11293:11386   */\n      tag_241\n      jump\t// in\n    tag_359:\n        /* \"#utility.yul\":11411:11413   */\n      0x20\n        /* \"#utility.yul\":11406:11409   */\n      dup3\n        /* \"#utility.yul\":11402:11414   */\n      add\n        /* \"#utility.yul\":11395:11414   */\n      swap1\n      pop\n        /* \"#utility.yul\":11054:11420   */\n      swap2\n      swap1\n      pop\n      jump\t// out\n        /* \"#utility.yul\":11426:11845   */\n    tag_208:\n        /* \"#utility.yul\":11592:11596   */\n      0x00\n        /* \"#utility.yul\":11630:11632   */\n      0x20\n        /* \"#utility.yul\":11619:11628   */\n      dup3\n        /* \"#utility.yul\":11615:11633   */\n      add\n        /* \"#utility.yul\":11607:11633   */\n      swap1\n      pop\n        /* \"#utility.yul\":11679:11688   */\n      dup2\n        /* \"#utility.yul\":11673:11677   */\n      dup2\n        /* \"#utility.yul\":11669:11689   */\n      sub\n        /* \"#utility.yul\":11665:11666   */\n      0x00\n        /* \"#utility.yul\":11654:11663   */\n      dup4\n        /* \"#utility.yul\":11650:11667   */\n      add\n        /* \"#utility.yul\":11643:11690   */\n      mstore\n        /* \"#utility.yul\":11707:11838   */\n      tag_361\n        /* \"#utility.yul\":11833:11837   */\n      dup2\n        /* \"#utility.yul\":11707:11838   */\n      tag_242\n      jump\t// in\n    tag_361:\n        /* \"#utility.yul\":11699:11838   */\n      swap1\n      pop\n        /* \"#utility.yul\":11426:11845   */\n      swap2\n      swap1\n      pop\n      jump\t// out\n\n    auxdata: 0xa2646970667358221220880c1ff5d7bd72e967b9d88d16af8e96bafaa23703764bd96487c8a415c9f70c64736f6c63430008140033\n}\n",
				"bytecode": {
					"linkReferences": {},
					"object": "608060405234801562000010575f80fd5b5060405162001afa38038062001afa833981810160405281019062000036919062000171565b60015f819055508260015f6101000a81548173ffffffffffffffffffffffffffffffffffffffff021916908373ffffffffffffffffffffffffffffffffffffffff1602179055503360025f6101000a81548173ffffffffffffffffffffffffffffffffffffffff021916908373ffffffffffffffffffffffffffffffffffffffff1602179055508160038190555080600481905550505050620001ca565b5f80fd5b5f73ffffffffffffffffffffffffffffffffffffffff82169050919050565b5f6200010382620000d8565b9050919050565b6200011581620000f7565b811462000120575f80fd5b50565b5f8151905062000133816200010a565b92915050565b5f819050919050565b6200014d8162000139565b811462000158575f80fd5b50565b5f815190506200016b8162000142565b92915050565b5f805f606084860312156200018b576200018a620000d4565b5b5f6200019a8682870162000123565b9350506020620001ad868287016200015b565b9250506040620001c0868287016200015b565b9150509250925092565b61192280620001d85f395ff3fe608060405234801561000f575f80fd5b5060043610610129575f3560e01c8063a390e9f6116100ab578063d52b429e1161006f578063d52b429e14610343578063e397655b1461035f578063e5f229c71461038f578063eb74b683146103bf578063f240e1ec146103db57610129565b8063a390e9f614610277578063aedbe68214610295578063b0d90a75146102c5578063b681bcb3146102f5578063cd74234e1461032557610129565b806365cdab41116100f257806365cdab41146101e5578063689f16231461020357806371004a2f1461021f5780637cb74e571461023b5780638da5cb5b1461025957610129565b8062ae99751461012d57806307e437a01461015d578063346698051461017b5780634571fdc514610199578063614b1751146101c9575b5f80fd5b61014760048036038101906101429190611315565b6103f9565b604051610154919061135a565b60405180910390f35b610165610416565b604051610172919061138b565b60405180910390f35b61018361041c565b60405161019091906113bf565b60405180910390f35b6101b360048036038101906101ae9190611402565b610421565b6040516101c0919061138b565b60405180910390f35b6101e360048036038101906101de919061142d565b610510565b005b6101ed6107ee565b6040516101fa91906113bf565b60405180910390f35b61021d60048036038101906102189190611402565b6107f3565b005b61023960048036038101906102349190611495565b610b70565b005b610243610c09565b60405161025091906113bf565b60405180910390f35b610261610c0e565b60405161026e91906114cf565b60405180910390f35b61027f610c33565b60405161028c91906113bf565b60405180910390f35b6102af60048036038101906102aa9190611315565b610c38565b6040516102bc919061135a565b60405180910390f35b6102df60048036038101906102da9190611315565b610c55565b6040516102ec919061135a565b60405180910390f35b61030f600480360381019061030a9190611315565b610c72565b60405161031c919061135a565b60405180910390f35b61032d610c8f565b60405161033a919061138b565b60405180910390f35b61035d6004803603810190610358919061142d565b610c95565b005b6103796004803603810190610374919061142d565b610f78565b604051610386919061135a565b60405180910390f35b6103a960048036038101906103a49190611315565b6111a6565b6040516103b6919061135a565b60405180910390f35b6103d960048036038101906103d49190611495565b6111c3565b005b6103e361125c565b6040516103f091906113bf565b60405180910390f35b6009602052805f5260405f205f915054906101000a900460ff1681565b60045481565b600f81565b5f60018260ff161015801561043a575060058260ff1611155b610479576040517f08c379a000000000000000000000000000000000000000000000000000000000815260040161047090611542565b60405180910390fd5b5f60018360ff160361049157600a60ff1690506104ed565b60028360ff16036104a857600f60ff1690506104ec565b60038360ff16036104bf57601460ff1690506104eb565b60048360ff16036104d657601960ff1690506104ea565b60058360ff16036104e957601e60ff1690505b5b5b5b5b600454600354826104fe919061158d565b61050891906115fb565b915050919050565b60025f9054906101000a900473ffffffffffffffffffffffffffffffffffffffff1673ffffffffffffffffffffffffffffffffffffffff163373ffffffffffffffffffffffffffffffffffffffff161461059f576040517f08c379a00000000000000000000000000000000000000000000000000000000081526004016105969061169b565b60405180910390fd5b60018160ff16101580156105b7575060058160ff1611155b6105f6576040517f08c379a00000000000000000000000000000000000000000000000000000000081526004016105ed90611542565b60405180910390fd5b60018160ff160361065a575f60055f8473ffffffffffffffffffffffffffffffffffffffff1673ffffffffffffffffffffffffffffffffffffffff1681526020019081526020015f205f6101000a81548160ff0219169083151502179055506107ea565b60028160ff16036106be575f60065f8473ffffffffffffffffffffffffffffffffffffffff1673ffffffffffffffffffffffffffffffffffffffff1681526020019081526020015f205f6101000a81548160ff0219169083151502179055506107e9565b60038160ff1603610722575f60075f8473ffffffffffffffffffffffffffffffffffffffff1673ffffffffffffffffffffffffffffffffffffffff1681526020019081526020015f205f6101000a81548160ff0219169083151502179055506107e8565b60048160ff1603610786575f60085f8473ffffffffffffffffffffffffffffffffffffffff1673ffffffffffffffffffffffffffffffffffffffff1681526020019081526020015f205f6101000a81548160ff0219169083151502179055506107e7565b60058160ff16036107e6575f60095f8473ffffffffffffffffffffffffffffffffffffffff1673ffffffffffffffffffffffffffffffffffffffff1681526020019081526020015f205f6101000a81548160ff0219169083151502179055505b5b5b5b5b5050565b601e81565b6107fb611261565b338160018160ff16148015610856575060055f8373ffffffffffffffffffffffffffffffffffffffff1673ffffffffffffffffffffffffffffffffffffffff1681526020019081526020015f205f9054906101000a900460ff165b806108b6575060028160ff161480156108b5575060065f8373ffffffffffffffffffffffffffffffffffffffff1673ffffffffffffffffffffffffffffffffffffffff1681526020019081526020015f205f9054906101000a900460ff165b5b80610916575060038160ff16148015610915575060075f8373ffffffffffffffffffffffffffffffffffffffff1673ffffffffffffffffffffffffffffffffffffffff1681526020019081526020015f205f9054906101000a900460ff165b5b80610976575060048160ff16148015610975575060085f8373ffffffffffffffffffffffffffffffffffffffff1673ffffffffffffffffffffffffffffffffffffffff1681526020019081526020015f205f9054906101000a900460ff165b5b806109d6575060058160ff161480156109d5575060095f8373ffffffffffffffffffffffffffffffffffffffff1673ffffffffffffffffffffffffffffffffffffffff1681526020019081526020015f205f9054906101000a900460ff165b5b610a15576040517f08c379a0000000000000000000000000000000000000000000000000000000008152600401610a0c90611729565b60405180910390fd5b5f610a1f84610421565b90505f8111610a63576040517f08c379a0000000000000000000000000000000000000000000000000000000008152600401610a5a906117b7565b60405180910390fd5b80600354610a7191906117d5565b60038190555060015f9054906101000a900473ffffffffffffffffffffffffffffffffffffffff1673ffffffffffffffffffffffffffffffffffffffff1663a9059cbb33836040518363ffffffff1660e01b8152600401610ad3929190611808565b6020604051808303815f875af1158015610aef573d5f803e3d5ffd5b505050506040513d601f19601f82011682018060405250810190610b139190611859565b503373ffffffffffffffffffffffffffffffffffffffff167ffc30cddea38e2bf4d6ea7d3f9ed3b6ad7f176419f4963bd81318067a4aee73fe82604051610b5a919061138b565b60405180910390a2505050610b6d6112ae565b50565b60025f9054906101000a900473ffffffffffffffffffffffffffffffffffffffff1673ffffffffffffffffffffffffffffffffffffffff163373ffffffffffffffffffffffffffffffffffffffff1614610bff576040517f08c379a0000000000000000000000000000000000000000000000000000000008152600401610bf69061169b565b60405180910390fd5b8060038190555050565b600a81565b60025f9054906101000a900473ffffffffffffffffffffffffffffffffffffffff1681565b601481565b6008602052805f5260405f205f915054906101000a900460ff1681565b6006602052805f5260405f205f915054906101000a900460ff1681565b6007602052805f5260405f205f915054906101000a900460ff1681565b60035481565b60025f9054906101000a900473ffffffffffffffffffffffffffffffffffffffff1673ffffffffffffffffffffffffffffffffffffffff163373ffffffffffffffffffffffffffffffffffffffff1614610d24576040517f08c379a0000000000000000000000000000000000000000000000000000000008152600401610d1b9061169b565b60405180910390fd5b60018160ff1610158015610d3c575060058160ff1611155b610d7b576040517f08c379a0000000000000000000000000000000000000000000000000000000008152600401610d7290611542565b60405180910390fd5b60018160ff1603610de057600160055f8473ffffffffffffffffffffffffffffffffffffffff1673ffffffffffffffffffffffffffffffffffffffff1681526020019081526020015f205f6101000a81548160ff021916908315150217905550610f74565b60028160ff1603610e4557600160065f8473ffffffffffffffffffffffffffffffffffffffff1673ffffffffffffffffffffffffffffffffffffffff1681526020019081526020015f205f6101000a81548160ff021916908315150217905550610f73565b60038160ff1603610eaa57600160075f8473ffffffffffffffffffffffffffffffffffffffff1673ffffffffffffffffffffffffffffffffffffffff1681526020019081526020015f205f6101000a81548160ff021916908315150217905550610f72565b60048160ff1603610f0f57600160085f8473ffffffffffffffffffffffffffffffffffffffff1673ffffffffffffffffffffffffffffffffffffffff1681526020019081526020015f205f6101000a81548160ff021916908315150217905550610f71565b60058160ff1603610f7057600160095f8473ffffffffffffffffffffffffffffffffffffffff1673ffffffffffffffffffffffffffffffffffffffff1681526020019081526020015f205f6101000a81548160ff0219169083151502179055505b5b5b5b5b5050565b5f60018260ff1610158015610f91575060058260ff1611155b610fd0576040517f08c379a0000000000000000000000000000000000000000000000000000000008152600401610fc790611542565b60405180910390fd5b60018260ff160361102c5760055f8473ffffffffffffffffffffffffffffffffffffffff1673ffffffffffffffffffffffffffffffffffffffff1681526020019081526020015f205f9054906101000a900460ff1690506111a0565b60028260ff16036110885760065f8473ffffffffffffffffffffffffffffffffffffffff1673ffffffffffffffffffffffffffffffffffffffff1681526020019081526020015f205f9054906101000a900460ff1690506111a0565b60038260ff16036110e45760075f8473ffffffffffffffffffffffffffffffffffffffff1673ffffffffffffffffffffffffffffffffffffffff1681526020019081526020015f205f9054906101000a900460ff1690506111a0565b60048260ff16036111405760085f8473ffffffffffffffffffffffffffffffffffffffff1673ffffffffffffffffffffffffffffffffffffffff1681526020019081526020015f205f9054906101000a900460ff1690506111a0565b60058260ff160361119c5760095f8473ffffffffffffffffffffffffffffffffffffffff1673ffffffffffffffffffffffffffffffffffffffff1681526020019081526020015f205f9054906101000a900460ff1690506111a0565b5f90505b92915050565b6005602052805f5260405f205f915054906101000a900460ff1681565b60025f9054906101000a900473ffffffffffffffffffffffffffffffffffffffff1673ffffffffffffffffffffffffffffffffffffffff163373ffffffffffffffffffffffffffffffffffffffff1614611252576040517f08c379a00000000000000000000000000000000000000000000000000000000081526004016112499061169b565b60405180910390fd5b8060048190555050565b601981565b60025f54036112a5576040517f08c379a000000000000000000000000000000000000000000000000000000000815260040161129c906118ce565b60405180910390fd5b60025f81905550565b60015f81905550565b5f80fd5b5f73ffffffffffffffffffffffffffffffffffffffff82169050919050565b5f6112e4826112bb565b9050919050565b6112f4816112da565b81146112fe575f80fd5b50565b5f8135905061130f816112eb565b92915050565b5f6020828403121561132a576113296112b7565b5b5f61133784828501611301565b91505092915050565b5f8115159050919050565b61135481611340565b82525050565b5f60208201905061136d5f83018461134b565b92915050565b5f819050919050565b61138581611373565b82525050565b5f60208201905061139e5f83018461137c565b92915050565b5f60ff82169050919050565b6113b9816113a4565b82525050565b5f6020820190506113d25f8301846113b0565b92915050565b6113e1816113a4565b81146113eb575f80fd5b50565b5f813590506113fc816113d8565b92915050565b5f60208284031215611417576114166112b7565b5b5f611424848285016113ee565b91505092915050565b5f8060408385031215611443576114426112b7565b5b5f61145085828601611301565b9250506020611461858286016113ee565b9150509250929050565b61147481611373565b811461147e575f80fd5b50565b5f8135905061148f8161146b565b92915050565b5f602082840312156114aa576114a96112b7565b5b5f6114b784828501611481565b91505092915050565b6114c9816112da565b82525050565b5f6020820190506114e25f8301846114c0565b92915050565b5f82825260208201905092915050565b7f496e76616c69642063617465676f7279000000000000000000000000000000005f82015250565b5f61152c6010836114e8565b9150611537826114f8565b602082019050919050565b5f6020820190508181035f83015261155981611520565b9050919050565b7f4e487b71000000000000000000000000000000000000000000000000000000005f52601160045260245ffd5b5f61159782611373565b91506115a283611373565b92508282026115b081611373565b915082820484148315176115c7576115c6611560565b5b5092915050565b7f4e487b71000000000000000000000000000000000000000000000000000000005f52601260045260245ffd5b5f61160582611373565b915061161083611373565b9250826116205761161f6115ce565b5b828204905092915050565b7f4f6e6c79206f776e65722063616e20706572666f726d207468697320616374695f8201527f6f6e000000000000000000000000000000000000000000000000000000000000602082015250565b5f6116856022836114e8565b91506116908261162b565b604082019050919050565b5f6020820190508181035f8301526116b281611679565b9050919050565b7f53747564656e7420686173206e6f7420636f6d706c65746564207468652073705f8201527f656369666965642063617465676f727900000000000000000000000000000000602082015250565b5f6117136030836114e8565b915061171e826116b9565b604082019050919050565b5f6020820190508181035f83015261174081611707565b9050919050565b7f4e6f207265776172647320617661696c61626c6520666f7220746869732063615f8201527f7465676f72790000000000000000000000000000000000000000000000000000602082015250565b5f6117a16026836114e8565b91506117ac82611747565b604082019050919050565b5f6020820190508181035f8301526117ce81611795565b9050919050565b5f6117df82611373565b91506117ea83611373565b925082820390508181111561180257611801611560565b5b92915050565b5f60408201905061181b5f8301856114c0565b611828602083018461137c565b9392505050565b61183881611340565b8114611842575f80fd5b50565b5f815190506118538161182f565b92915050565b5f6020828403121561186e5761186d6112b7565b5b5f61187b84828501611845565b91505092915050565b7f5265656e7472616e637947756172643a207265656e7472616e742063616c6c005f82015250565b5f6118b8601f836114e8565b91506118c382611884565b602082019050919050565b5f6020820190508181035f8301526118e5816118ac565b905091905056fea2646970667358221220880c1ff5d7bd72e967b9d88d16af8e96bafaa23703764bd96487c8a415c9f70c64736f6c63430008140033",
					"opcodes": "PUSH1 0x80 PUSH1 0x40 MSTORE CALLVALUE DUP1 ISZERO PUSH3 0x10 JUMPI PUSH0 DUP1 REVERT JUMPDEST POP PUSH1 0x40 MLOAD PUSH3 0x1AFA CODESIZE SUB DUP1 PUSH3 0x1AFA DUP4 CODECOPY DUP2 DUP2 ADD PUSH1 0x40 MSTORE DUP2 ADD SWAP1 PUSH3 0x36 SWAP2 SWAP1 PUSH3 0x171 JUMP JUMPDEST PUSH1 0x1 PUSH0 DUP2 SWAP1 SSTORE POP DUP3 PUSH1 0x1 PUSH0 PUSH2 0x100 EXP DUP2 SLOAD DUP2 PUSH20 0xFFFFFFFFFFFFFFFFFFFFFFFFFFFFFFFFFFFFFFFF MUL NOT AND SWAP1 DUP4 PUSH20 0xFFFFFFFFFFFFFFFFFFFFFFFFFFFFFFFFFFFFFFFF AND MUL OR SWAP1 SSTORE POP CALLER PUSH1 0x2 PUSH0 PUSH2 0x100 EXP DUP2 SLOAD DUP2 PUSH20 0xFFFFFFFFFFFFFFFFFFFFFFFFFFFFFFFFFFFFFFFF MUL NOT AND SWAP1 DUP4 PUSH20 0xFFFFFFFFFFFFFFFFFFFFFFFFFFFFFFFFFFFFFFFF AND MUL OR SWAP1 SSTORE POP DUP2 PUSH1 0x3 DUP2 SWAP1 SSTORE POP DUP1 PUSH1 0x4 DUP2 SWAP1 SSTORE POP POP POP POP PUSH3 0x1CA JUMP JUMPDEST PUSH0 DUP1 REVERT JUMPDEST PUSH0 PUSH20 0xFFFFFFFFFFFFFFFFFFFFFFFFFFFFFFFFFFFFFFFF DUP3 AND SWAP1 POP SWAP2 SWAP1 POP JUMP JUMPDEST PUSH0 PUSH3 0x103 DUP3 PUSH3 0xD8 JUMP JUMPDEST SWAP1 POP SWAP2 SWAP1 POP JUMP JUMPDEST PUSH3 0x115 DUP2 PUSH3 0xF7 JUMP JUMPDEST DUP2 EQ PUSH3 0x120 JUMPI PUSH0 DUP1 REVERT JUMPDEST POP JUMP JUMPDEST PUSH0 DUP2 MLOAD SWAP1 POP PUSH3 0x133 DUP2 PUSH3 0x10A JUMP JUMPDEST SWAP3 SWAP2 POP POP JUMP JUMPDEST PUSH0 DUP2 SWAP1 POP SWAP2 SWAP1 POP JUMP JUMPDEST PUSH3 0x14D DUP2 PUSH3 0x139 JUMP JUMPDEST DUP2 EQ PUSH3 0x158 JUMPI PUSH0 DUP1 REVERT JUMPDEST POP JUMP JUMPDEST PUSH0 DUP2 MLOAD SWAP1 POP PUSH3 0x16B DUP2 PUSH3 0x142 JUMP JUMPDEST SWAP3 SWAP2 POP POP JUMP JUMPDEST PUSH0 DUP1 PUSH0 PUSH1 0x60 DUP5 DUP7 SUB SLT ISZERO PUSH3 0x18B JUMPI PUSH3 0x18A PUSH3 0xD4 JUMP JUMPDEST JUMPDEST PUSH0 PUSH3 0x19A DUP7 DUP3 DUP8 ADD PUSH3 0x123 JUMP JUMPDEST SWAP4 POP POP PUSH1 0x20 PUSH3 0x1AD DUP7 DUP3 DUP8 ADD PUSH3 0x15B JUMP JUMPDEST SWAP3 POP POP PUSH1 0x40 PUSH3 0x1C0 DUP7 DUP3 DUP8 ADD PUSH3 0x15B JUMP JUMPDEST SWAP2 POP POP SWAP3 POP SWAP3 POP SWAP3 JUMP JUMPDEST PUSH2 0x1922 DUP1 PUSH3 0x1D8 PUSH0 CODECOPY PUSH0 RETURN INVALID PUSH1 0x80 PUSH1 0x40 MSTORE CALLVALUE DUP1 ISZERO PUSH2 0xF JUMPI PUSH0 DUP1 REVERT JUMPDEST POP PUSH1 0x4 CALLDATASIZE LT PUSH2 0x129 JUMPI PUSH0 CALLDATALOAD PUSH1 0xE0 SHR DUP1 PUSH4 0xA390E9F6 GT PUSH2 0xAB JUMPI DUP1 PUSH4 0xD52B429E GT PUSH2 0x6F JUMPI DUP1 PUSH4 0xD52B429E EQ PUSH2 0x343 JUMPI DUP1 PUSH4 0xE397655B EQ PUSH2 0x35F JUMPI DUP1 PUSH4 0xE5F229C7 EQ PUSH2 0x38F JUMPI DUP1 PUSH4 0xEB74B683 EQ PUSH2 0x3BF JUMPI DUP1 PUSH4 0xF240E1EC EQ PUSH2 0x3DB JUMPI PUSH2 0x129 JUMP JUMPDEST DUP1 PUSH4 0xA390E9F6 EQ PUSH2 0x277 JUMPI DUP1 PUSH4 0xAEDBE682 EQ PUSH2 0x295 JUMPI DUP1 PUSH4 0xB0D90A75 EQ PUSH2 0x2C5 JUMPI DUP1 PUSH4 0xB681BCB3 EQ PUSH2 0x2F5 JUMPI DUP1 PUSH4 0xCD74234E EQ PUSH2 0x325 JUMPI PUSH2 0x129 JUMP JUMPDEST DUP1 PUSH4 0x65CDAB41 GT PUSH2 0xF2 JUMPI DUP1 PUSH4 0x65CDAB41 EQ PUSH2 0x1E5 JUMPI DUP1 PUSH4 0x689F1623 EQ PUSH2 0x203 JUMPI DUP1 PUSH4 0x71004A2F EQ PUSH2 0x21F JUMPI DUP1 PUSH4 0x7CB74E57 EQ PUSH2 0x23B JUMPI DUP1 PUSH4 0x8DA5CB5B EQ PUSH2 0x259 JUMPI PUSH2 0x129 JUMP JUMPDEST DUP1 PUSH3 0xAE9975 EQ PUSH2 0x12D JUMPI DUP1 PUSH4 0x7E437A0 EQ PUSH2 0x15D JUMPI DUP1 PUSH4 0x34669805 EQ PUSH2 0x17B JUMPI DUP1 PUSH4 0x4571FDC5 EQ PUSH2 0x199 JUMPI DUP1 PUSH4 0x614B1751 EQ PUSH2 0x1C9 JUMPI JUMPDEST PUSH0 DUP1 REVERT JUMPDEST PUSH2 0x147 PUSH1 0x4 DUP1 CALLDATASIZE SUB DUP2 ADD SWAP1 PUSH2 0x142 SWAP2 SWAP1 PUSH2 0x1315 JUMP JUMPDEST PUSH2 0x3F9 JUMP JUMPDEST PUSH1 0x40 MLOAD PUSH2 0x154 SWAP2 SWAP1 PUSH2 0x135A JUMP JUMPDEST PUSH1 0x40 MLOAD DUP1 SWAP2 SUB SWAP1 RETURN JUMPDEST PUSH2 0x165 PUSH2 0x416 JUMP JUMPDEST PUSH1 0x40 MLOAD PUSH2 0x172 SWAP2 SWAP1 PUSH2 0x138B JUMP JUMPDEST PUSH1 0x40 MLOAD DUP1 SWAP2 SUB SWAP1 RETURN JUMPDEST PUSH2 0x183 PUSH2 0x41C JUMP JUMPDEST PUSH1 0x40 MLOAD PUSH2 0x190 SWAP2 SWAP1 PUSH2 0x13BF JUMP JUMPDEST PUSH1 0x40 MLOAD DUP1 SWAP2 SUB SWAP1 RETURN JUMPDEST PUSH2 0x1B3 PUSH1 0x4 DUP1 CALLDATASIZE SUB DUP2 ADD SWAP1 PUSH2 0x1AE SWAP2 SWAP1 PUSH2 0x1402 JUMP JUMPDEST PUSH2 0x421 JUMP JUMPDEST PUSH1 0x40 MLOAD PUSH2 0x1C0 SWAP2 SWAP1 PUSH2 0x138B JUMP JUMPDEST PUSH1 0x40 MLOAD DUP1 SWAP2 SUB SWAP1 RETURN JUMPDEST PUSH2 0x1E3 PUSH1 0x4 DUP1 CALLDATASIZE SUB DUP2 ADD SWAP1 PUSH2 0x1DE SWAP2 SWAP1 PUSH2 0x142D JUMP JUMPDEST PUSH2 0x510 JUMP JUMPDEST STOP JUMPDEST PUSH2 0x1ED PUSH2 0x7EE JUMP JUMPDEST PUSH1 0x40 MLOAD PUSH2 0x1FA SWAP2 SWAP1 PUSH2 0x13BF JUMP JUMPDEST PUSH1 0x40 MLOAD DUP1 SWAP2 SUB SWAP1 RETURN JUMPDEST PUSH2 0x21D PUSH1 0x4 DUP1 CALLDATASIZE SUB DUP2 ADD SWAP1 PUSH2 0x218 SWAP2 SWAP1 PUSH2 0x1402 JUMP JUMPDEST PUSH2 0x7F3 JUMP JUMPDEST STOP JUMPDEST PUSH2 0x239 PUSH1 0x4 DUP1 CALLDATASIZE SUB DUP2 ADD SWAP1 PUSH2 0x234 SWAP2 SWAP1 PUSH2 0x1495 JUMP JUMPDEST PUSH2 0xB70 JUMP JUMPDEST STOP JUMPDEST PUSH2 0x243 PUSH2 0xC09 JUMP JUMPDEST PUSH1 0x40 MLOAD PUSH2 0x250 SWAP2 SWAP1 PUSH2 0x13BF JUMP JUMPDEST PUSH1 0x40 MLOAD DUP1 SWAP2 SUB SWAP1 RETURN JUMPDEST PUSH2 0x261 PUSH2 0xC0E JUMP JUMPDEST PUSH1 0x40 MLOAD PUSH2 0x26E SWAP2 SWAP1 PUSH2 0x14CF JUMP JUMPDEST PUSH1 0x40 MLOAD DUP1 SWAP2 SUB SWAP1 RETURN JUMPDEST PUSH2 0x27F PUSH2 0xC33 JUMP JUMPDEST PUSH1 0x40 MLOAD PUSH2 0x28C SWAP2 SWAP1 PUSH2 0x13BF JUMP JUMPDEST PUSH1 0x40 MLOAD DUP1 SWAP2 SUB SWAP1 RETURN JUMPDEST PUSH2 0x2AF PUSH1 0x4 DUP1 CALLDATASIZE SUB DUP2 ADD SWAP1 PUSH2 0x2AA SWAP2 SWAP1 PUSH2 0x1315 JUMP JUMPDEST PUSH2 0xC38 JUMP JUMPDEST PUSH1 0x40 MLOAD PUSH2 0x2BC SWAP2 SWAP1 PUSH2 0x135A JUMP JUMPDEST PUSH1 0x40 MLOAD DUP1 SWAP2 SUB SWAP1 RETURN JUMPDEST PUSH2 0x2DF PUSH1 0x4 DUP1 CALLDATASIZE SUB DUP2 ADD SWAP1 PUSH2 0x2DA SWAP2 SWAP1 PUSH2 0x1315 JUMP JUMPDEST PUSH2 0xC55 JUMP JUMPDEST PUSH1 0x40 MLOAD PUSH2 0x2EC SWAP2 SWAP1 PUSH2 0x135A JUMP JUMPDEST PUSH1 0x40 MLOAD DUP1 SWAP2 SUB SWAP1 RETURN JUMPDEST PUSH2 0x30F PUSH1 0x4 DUP1 CALLDATASIZE SUB DUP2 ADD SWAP1 PUSH2 0x30A SWAP2 SWAP1 PUSH2 0x1315 JUMP JUMPDEST PUSH2 0xC72 JUMP JUMPDEST PUSH1 0x40 MLOAD PUSH2 0x31C SWAP2 SWAP1 PUSH2 0x135A JUMP JUMPDEST PUSH1 0x40 MLOAD DUP1 SWAP2 SUB SWAP1 RETURN JUMPDEST PUSH2 0x32D PUSH2 0xC8F JUMP JUMPDEST PUSH1 0x40 MLOAD PUSH2 0x33A SWAP2 SWAP1 PUSH2 0x138B JUMP JUMPDEST PUSH1 0x40 MLOAD DUP1 SWAP2 SUB SWAP1 RETURN JUMPDEST PUSH2 0x35D PUSH1 0x4 DUP1 CALLDATASIZE SUB DUP2 ADD SWAP1 PUSH2 0x358 SWAP2 SWAP1 PUSH2 0x142D JUMP JUMPDEST PUSH2 0xC95 JUMP JUMPDEST STOP JUMPDEST PUSH2 0x379 PUSH1 0x4 DUP1 CALLDATASIZE SUB DUP2 ADD SWAP1 PUSH2 0x374 SWAP2 SWAP1 PUSH2 0x142D JUMP JUMPDEST PUSH2 0xF78 JUMP JUMPDEST PUSH1 0x40 MLOAD PUSH2 0x386 SWAP2 SWAP1 PUSH2 0x135A JUMP JUMPDEST PUSH1 0x40 MLOAD DUP1 SWAP2 SUB SWAP1 RETURN JUMPDEST PUSH2 0x3A9 PUSH1 0x4 DUP1 CALLDATASIZE SUB DUP2 ADD SWAP1 PUSH2 0x3A4 SWAP2 SWAP1 PUSH2 0x1315 JUMP JUMPDEST PUSH2 0x11A6 JUMP JUMPDEST PUSH1 0x40 MLOAD PUSH2 0x3B6 SWAP2 SWAP1 PUSH2 0x135A JUMP JUMPDEST PUSH1 0x40 MLOAD DUP1 SWAP2 SUB SWAP1 RETURN JUMPDEST PUSH2 0x3D9 PUSH1 0x4 DUP1 CALLDATASIZE SUB DUP2 ADD SWAP1 PUSH2 0x3D4 SWAP2 SWAP1 PUSH2 0x1495 JUMP JUMPDEST PUSH2 0x11C3 JUMP JUMPDEST STOP JUMPDEST PUSH2 0x3E3 PUSH2 0x125C JUMP JUMPDEST PUSH1 0x40 MLOAD PUSH2 0x3F0 SWAP2 SWAP1 PUSH2 0x13BF JUMP JUMPDEST PUSH1 0x40 MLOAD DUP1 SWAP2 SUB SWAP1 RETURN JUMPDEST PUSH1 0x9 PUSH1 0x20 MSTORE DUP1 PUSH0 MSTORE PUSH1 0x40 PUSH0 KECCAK256 PUSH0 SWAP2 POP SLOAD SWAP1 PUSH2 0x100 EXP SWAP1 DIV PUSH1 0xFF AND DUP2 JUMP JUMPDEST PUSH1 0x4 SLOAD DUP2 JUMP JUMPDEST PUSH1 0xF DUP2 JUMP JUMPDEST PUSH0 PUSH1 0x1 DUP3 PUSH1 0xFF AND LT ISZERO DUP1 ISZERO PUSH2 0x43A JUMPI POP PUSH1 0x5 DUP3 PUSH1 0xFF AND GT ISZERO JUMPDEST PUSH2 0x479 JUMPI PUSH1 0x40 MLOAD PUSH32 0x8C379A000000000000000000000000000000000000000000000000000000000 DUP2 MSTORE PUSH1 0x4 ADD PUSH2 0x470 SWAP1 PUSH2 0x1542 JUMP JUMPDEST PUSH1 0x40 MLOAD DUP1 SWAP2 SUB SWAP1 REVERT JUMPDEST PUSH0 PUSH1 0x1 DUP4 PUSH1 0xFF AND SUB PUSH2 0x491 JUMPI PUSH1 0xA PUSH1 0xFF AND SWAP1 POP PUSH2 0x4ED JUMP JUMPDEST PUSH1 0x2 DUP4 PUSH1 0xFF AND SUB PUSH2 0x4A8 JUMPI PUSH1 0xF PUSH1 0xFF AND SWAP1 POP PUSH2 0x4EC JUMP JUMPDEST PUSH1 0x3 DUP4 PUSH1 0xFF AND SUB PUSH2 0x4BF JUMPI PUSH1 0x14 PUSH1 0xFF AND SWAP1 POP PUSH2 0x4EB JUMP JUMPDEST PUSH1 0x4 DUP4 PUSH1 0xFF AND SUB PUSH2 0x4D6 JUMPI PUSH1 0x19 PUSH1 0xFF AND SWAP1 POP PUSH2 0x4EA JUMP JUMPDEST PUSH1 0x5 DUP4 PUSH1 0xFF AND SUB PUSH2 0x4E9 JUMPI PUSH1 0x1E PUSH1 0xFF AND SWAP1 POP JUMPDEST JUMPDEST JUMPDEST JUMPDEST JUMPDEST PUSH1 0x4 SLOAD PUSH1 0x3 SLOAD DUP3 PUSH2 0x4FE SWAP2 SWAP1 PUSH2 0x158D JUMP JUMPDEST PUSH2 0x508 SWAP2 SWAP1 PUSH2 0x15FB JUMP JUMPDEST SWAP2 POP POP SWAP2 SWAP1 POP JUMP JUMPDEST PUSH1 0x2 PUSH0 SWAP1 SLOAD SWAP1 PUSH2 0x100 EXP SWAP1 DIV PUSH20 0xFFFFFFFFFFFFFFFFFFFFFFFFFFFFFFFFFFFFFFFF AND PUSH20 0xFFFFFFFFFFFFFFFFFFFFFFFFFFFFFFFFFFFFFFFF AND CALLER PUSH20 0xFFFFFFFFFFFFFFFFFFFFFFFFFFFFFFFFFFFFFFFF AND EQ PUSH2 0x59F JUMPI PUSH1 0x40 MLOAD PUSH32 0x8C379A000000000000000000000000000000000000000000000000000000000 DUP2 MSTORE PUSH1 0x4 ADD PUSH2 0x596 SWAP1 PUSH2 0x169B JUMP JUMPDEST PUSH1 0x40 MLOAD DUP1 SWAP2 SUB SWAP1 REVERT JUMPDEST PUSH1 0x1 DUP2 PUSH1 0xFF AND LT ISZERO DUP1 ISZERO PUSH2 0x5B7 JUMPI POP PUSH1 0x5 DUP2 PUSH1 0xFF AND GT ISZERO JUMPDEST PUSH2 0x5F6 JUMPI PUSH1 0x40 MLOAD PUSH32 0x8C379A000000000000000000000000000000000000000000000000000000000 DUP2 MSTORE PUSH1 0x4 ADD PUSH2 0x5ED SWAP1 PUSH2 0x1542 JUMP JUMPDEST PUSH1 0x40 MLOAD DUP1 SWAP2 SUB SWAP1 REVERT JUMPDEST PUSH1 0x1 DUP2 PUSH1 0xFF AND SUB PUSH2 0x65A JUMPI PUSH0 PUSH1 0x5 PUSH0 DUP5 PUSH20 0xFFFFFFFFFFFFFFFFFFFFFFFFFFFFFFFFFFFFFFFF AND PUSH20 0xFFFFFFFFFFFFFFFFFFFFFFFFFFFFFFFFFFFFFFFF AND DUP2 MSTORE PUSH1 0x20 ADD SWAP1 DUP2 MSTORE PUSH1 0x20 ADD PUSH0 KECCAK256 PUSH0 PUSH2 0x100 EXP DUP2 SLOAD DUP2 PUSH1 0xFF MUL NOT AND SWAP1 DUP4 ISZERO ISZERO MUL OR SWAP1 SSTORE POP PUSH2 0x7EA JUMP JUMPDEST PUSH1 0x2 DUP2 PUSH1 0xFF AND SUB PUSH2 0x6BE JUMPI PUSH0 PUSH1 0x6 PUSH0 DUP5 PUSH20 0xFFFFFFFFFFFFFFFFFFFFFFFFFFFFFFFFFFFFFFFF AND PUSH20 0xFFFFFFFFFFFFFFFFFFFFFFFFFFFFFFFFFFFFFFFF AND DUP2 MSTORE PUSH1 0x20 ADD SWAP1 DUP2 MSTORE PUSH1 0x20 ADD PUSH0 KECCAK256 PUSH0 PUSH2 0x100 EXP DUP2 SLOAD DUP2 PUSH1 0xFF MUL NOT AND SWAP1 DUP4 ISZERO ISZERO MUL OR SWAP1 SSTORE POP PUSH2 0x7E9 JUMP JUMPDEST PUSH1 0x3 DUP2 PUSH1 0xFF AND SUB PUSH2 0x722 JUMPI PUSH0 PUSH1 0x7 PUSH0 DUP5 PUSH20 0xFFFFFFFFFFFFFFFFFFFFFFFFFFFFFFFFFFFFFFFF AND PUSH20 0xFFFFFFFFFFFFFFFFFFFFFFFFFFFFFFFFFFFFFFFF AND DUP2 MSTORE PUSH1 0x20 ADD SWAP1 DUP2 MSTORE PUSH1 0x20 ADD PUSH0 KECCAK256 PUSH0 PUSH2 0x100 EXP DUP2 SLOAD DUP2 PUSH1 0xFF MUL NOT AND SWAP1 DUP4 ISZERO ISZERO MUL OR SWAP1 SSTORE POP PUSH2 0x7E8 JUMP JUMPDEST PUSH1 0x4 DUP2 PUSH1 0xFF AND SUB PUSH2 0x786 JUMPI PUSH0 PUSH1 0x8 PUSH0 DUP5 PUSH20 0xFFFFFFFFFFFFFFFFFFFFFFFFFFFFFFFFFFFFFFFF AND PUSH20 0xFFFFFFFFFFFFFFFFFFFFFFFFFFFFFFFFFFFFFFFF AND DUP2 MSTORE PUSH1 0x20 ADD SWAP1 DUP2 MSTORE PUSH1 0x20 ADD PUSH0 KECCAK256 PUSH0 PUSH2 0x100 EXP DUP2 SLOAD DUP2 PUSH1 0xFF MUL NOT AND SWAP1 DUP4 ISZERO ISZERO MUL OR SWAP1 SSTORE POP PUSH2 0x7E7 JUMP JUMPDEST PUSH1 0x5 DUP2 PUSH1 0xFF AND SUB PUSH2 0x7E6 JUMPI PUSH0 PUSH1 0x9 PUSH0 DUP5 PUSH20 0xFFFFFFFFFFFFFFFFFFFFFFFFFFFFFFFFFFFFFFFF AND PUSH20 0xFFFFFFFFFFFFFFFFFFFFFFFFFFFFFFFFFFFFFFFF AND DUP2 MSTORE PUSH1 0x20 ADD SWAP1 DUP2 MSTORE PUSH1 0x20 ADD PUSH0 KECCAK256 PUSH0 PUSH2 0x100 EXP DUP2 SLOAD DUP2 PUSH1 0xFF MUL NOT AND SWAP1 DUP4 ISZERO ISZERO MUL OR SWAP1 SSTORE POP JUMPDEST JUMPDEST JUMPDEST JUMPDEST JUMPDEST POP POP JUMP JUMPDEST PUSH1 0x1E DUP2 JUMP JUMPDEST PUSH2 0x7FB PUSH2 0x1261 JUMP JUMPDEST CALLER DUP2 PUSH1 0x1 DUP2 PUSH1 0xFF AND EQ DUP1 ISZERO PUSH2 0x856 JUMPI POP PUSH1 0x5 PUSH0 DUP4 PUSH20 0xFFFFFFFFFFFFFFFFFFFFFFFFFFFFFFFFFFFFFFFF AND PUSH20 0xFFFFFFFFFFFFFFFFFFFFFFFFFFFFFFFFFFFFFFFF AND DUP2 MSTORE PUSH1 0x20 ADD SWAP1 DUP2 MSTORE PUSH1 0x20 ADD PUSH0 KECCAK256 PUSH0 SWAP1 SLOAD SWAP1 PUSH2 0x100 EXP SWAP1 DIV PUSH1 0xFF AND JUMPDEST DUP1 PUSH2 0x8B6 JUMPI POP PUSH1 0x2 DUP2 PUSH1 0xFF AND EQ DUP1 ISZERO PUSH2 0x8B5 JUMPI POP PUSH1 0x6 PUSH0 DUP4 PUSH20 0xFFFFFFFFFFFFFFFFFFFFFFFFFFFFFFFFFFFFFFFF AND PUSH20 0xFFFFFFFFFFFFFFFFFFFFFFFFFFFFFFFFFFFFFFFF AND DUP2 MSTORE PUSH1 0x20 ADD SWAP1 DUP2 MSTORE PUSH1 0x20 ADD PUSH0 KECCAK256 PUSH0 SWAP1 SLOAD SWAP1 PUSH2 0x100 EXP SWAP1 DIV PUSH1 0xFF AND JUMPDEST JUMPDEST DUP1 PUSH2 0x916 JUMPI POP PUSH1 0x3 DUP2 PUSH1 0xFF AND EQ DUP1 ISZERO PUSH2 0x915 JUMPI POP PUSH1 0x7 PUSH0 DUP4 PUSH20 0xFFFFFFFFFFFFFFFFFFFFFFFFFFFFFFFFFFFFFFFF AND PUSH20 0xFFFFFFFFFFFFFFFFFFFFFFFFFFFFFFFFFFFFFFFF AND DUP2 MSTORE PUSH1 0x20 ADD SWAP1 DUP2 MSTORE PUSH1 0x20 ADD PUSH0 KECCAK256 PUSH0 SWAP1 SLOAD SWAP1 PUSH2 0x100 EXP SWAP1 DIV PUSH1 0xFF AND JUMPDEST JUMPDEST DUP1 PUSH2 0x976 JUMPI POP PUSH1 0x4 DUP2 PUSH1 0xFF AND EQ DUP1 ISZERO PUSH2 0x975 JUMPI POP PUSH1 0x8 PUSH0 DUP4 PUSH20 0xFFFFFFFFFFFFFFFFFFFFFFFFFFFFFFFFFFFFFFFF AND PUSH20 0xFFFFFFFFFFFFFFFFFFFFFFFFFFFFFFFFFFFFFFFF AND DUP2 MSTORE PUSH1 0x20 ADD SWAP1 DUP2 MSTORE PUSH1 0x20 ADD PUSH0 KECCAK256 PUSH0 SWAP1 SLOAD SWAP1 PUSH2 0x100 EXP SWAP1 DIV PUSH1 0xFF AND JUMPDEST JUMPDEST DUP1 PUSH2 0x9D6 JUMPI POP PUSH1 0x5 DUP2 PUSH1 0xFF AND EQ DUP1 ISZERO PUSH2 0x9D5 JUMPI POP PUSH1 0x9 PUSH0 DUP4 PUSH20 0xFFFFFFFFFFFFFFFFFFFFFFFFFFFFFFFFFFFFFFFF AND PUSH20 0xFFFFFFFFFFFFFFFFFFFFFFFFFFFFFFFFFFFFFFFF AND DUP2 MSTORE PUSH1 0x20 ADD SWAP1 DUP2 MSTORE PUSH1 0x20 ADD PUSH0 KECCAK256 PUSH0 SWAP1 SLOAD SWAP1 PUSH2 0x100 EXP SWAP1 DIV PUSH1 0xFF AND JUMPDEST JUMPDEST PUSH2 0xA15 JUMPI PUSH1 0x40 MLOAD PUSH32 0x8C379A000000000000000000000000000000000000000000000000000000000 DUP2 MSTORE PUSH1 0x4 ADD PUSH2 0xA0C SWAP1 PUSH2 0x1729 JUMP JUMPDEST PUSH1 0x40 MLOAD DUP1 SWAP2 SUB SWAP1 REVERT JUMPDEST PUSH0 PUSH2 0xA1F DUP5 PUSH2 0x421 JUMP JUMPDEST SWAP1 POP PUSH0 DUP2 GT PUSH2 0xA63 JUMPI PUSH1 0x40 MLOAD PUSH32 0x8C379A000000000000000000000000000000000000000000000000000000000 DUP2 MSTORE PUSH1 0x4 ADD PUSH2 0xA5A SWAP1 PUSH2 0x17B7 JUMP JUMPDEST PUSH1 0x40 MLOAD DUP1 SWAP2 SUB SWAP1 REVERT JUMPDEST DUP1 PUSH1 0x3 SLOAD PUSH2 0xA71 SWAP2 SWAP1 PUSH2 0x17D5 JUMP JUMPDEST PUSH1 0x3 DUP2 SWAP1 SSTORE POP PUSH1 0x1 PUSH0 SWAP1 SLOAD SWAP1 PUSH2 0x100 EXP SWAP1 DIV PUSH20 0xFFFFFFFFFFFFFFFFFFFFFFFFFFFFFFFFFFFFFFFF AND PUSH20 0xFFFFFFFFFFFFFFFFFFFFFFFFFFFFFFFFFFFFFFFF AND PUSH4 0xA9059CBB CALLER DUP4 PUSH1 0x40 MLOAD DUP4 PUSH4 0xFFFFFFFF AND PUSH1 0xE0 SHL DUP2 MSTORE PUSH1 0x4 ADD PUSH2 0xAD3 SWAP3 SWAP2 SWAP1 PUSH2 0x1808 JUMP JUMPDEST PUSH1 0x20 PUSH1 0x40 MLOAD DUP1 DUP4 SUB DUP2 PUSH0 DUP8 GAS CALL ISZERO DUP1 ISZERO PUSH2 0xAEF JUMPI RETURNDATASIZE PUSH0 DUP1 RETURNDATACOPY RETURNDATASIZE PUSH0 REVERT JUMPDEST POP POP POP POP PUSH1 0x40 MLOAD RETURNDATASIZE PUSH1 0x1F NOT PUSH1 0x1F DUP3 ADD AND DUP3 ADD DUP1 PUSH1 0x40 MSTORE POP DUP2 ADD SWAP1 PUSH2 0xB13 SWAP2 SWAP1 PUSH2 0x1859 JUMP JUMPDEST POP CALLER PUSH20 0xFFFFFFFFFFFFFFFFFFFFFFFFFFFFFFFFFFFFFFFF AND PUSH32 0xFC30CDDEA38E2BF4D6EA7D3F9ED3B6AD7F176419F4963BD81318067A4AEE73FE DUP3 PUSH1 0x40 MLOAD PUSH2 0xB5A SWAP2 SWAP1 PUSH2 0x138B JUMP JUMPDEST PUSH1 0x40 MLOAD DUP1 SWAP2 SUB SWAP1 LOG2 POP POP POP PUSH2 0xB6D PUSH2 0x12AE JUMP JUMPDEST POP JUMP JUMPDEST PUSH1 0x2 PUSH0 SWAP1 SLOAD SWAP1 PUSH2 0x100 EXP SWAP1 DIV PUSH20 0xFFFFFFFFFFFFFFFFFFFFFFFFFFFFFFFFFFFFFFFF AND PUSH20 0xFFFFFFFFFFFFFFFFFFFFFFFFFFFFFFFFFFFFFFFF AND CALLER PUSH20 0xFFFFFFFFFFFFFFFFFFFFFFFFFFFFFFFFFFFFFFFF AND EQ PUSH2 0xBFF JUMPI PUSH1 0x40 MLOAD PUSH32 0x8C379A000000000000000000000000000000000000000000000000000000000 DUP2 MSTORE PUSH1 0x4 ADD PUSH2 0xBF6 SWAP1 PUSH2 0x169B JUMP JUMPDEST PUSH1 0x40 MLOAD DUP1 SWAP2 SUB SWAP1 REVERT JUMPDEST DUP1 PUSH1 0x3 DUP2 SWAP1 SSTORE POP POP JUMP JUMPDEST PUSH1 0xA DUP2 JUMP JUMPDEST PUSH1 0x2 PUSH0 SWAP1 SLOAD SWAP1 PUSH2 0x100 EXP SWAP1 DIV PUSH20 0xFFFFFFFFFFFFFFFFFFFFFFFFFFFFFFFFFFFFFFFF AND DUP2 JUMP JUMPDEST PUSH1 0x14 DUP2 JUMP JUMPDEST PUSH1 0x8 PUSH1 0x20 MSTORE DUP1 PUSH0 MSTORE PUSH1 0x40 PUSH0 KECCAK256 PUSH0 SWAP2 POP SLOAD SWAP1 PUSH2 0x100 EXP SWAP1 DIV PUSH1 0xFF AND DUP2 JUMP JUMPDEST PUSH1 0x6 PUSH1 0x20 MSTORE DUP1 PUSH0 MSTORE PUSH1 0x40 PUSH0 KECCAK256 PUSH0 SWAP2 POP SLOAD SWAP1 PUSH2 0x100 EXP SWAP1 DIV PUSH1 0xFF AND DUP2 JUMP JUMPDEST PUSH1 0x7 PUSH1 0x20 MSTORE DUP1 PUSH0 MSTORE PUSH1 0x40 PUSH0 KECCAK256 PUSH0 SWAP2 POP SLOAD SWAP1 PUSH2 0x100 EXP SWAP1 DIV PUSH1 0xFF AND DUP2 JUMP JUMPDEST PUSH1 0x3 SLOAD DUP2 JUMP JUMPDEST PUSH1 0x2 PUSH0 SWAP1 SLOAD SWAP1 PUSH2 0x100 EXP SWAP1 DIV PUSH20 0xFFFFFFFFFFFFFFFFFFFFFFFFFFFFFFFFFFFFFFFF AND PUSH20 0xFFFFFFFFFFFFFFFFFFFFFFFFFFFFFFFFFFFFFFFF AND CALLER PUSH20 0xFFFFFFFFFFFFFFFFFFFFFFFFFFFFFFFFFFFFFFFF AND EQ PUSH2 0xD24 JUMPI PUSH1 0x40 MLOAD PUSH32 0x8C379A000000000000000000000000000000000000000000000000000000000 DUP2 MSTORE PUSH1 0x4 ADD PUSH2 0xD1B SWAP1 PUSH2 0x169B JUMP JUMPDEST PUSH1 0x40 MLOAD DUP1 SWAP2 SUB SWAP1 REVERT JUMPDEST PUSH1 0x1 DUP2 PUSH1 0xFF AND LT ISZERO DUP1 ISZERO PUSH2 0xD3C JUMPI POP PUSH1 0x5 DUP2 PUSH1 0xFF AND GT ISZERO JUMPDEST PUSH2 0xD7B JUMPI PUSH1 0x40 MLOAD PUSH32 0x8C379A000000000000000000000000000000000000000000000000000000000 DUP2 MSTORE PUSH1 0x4 ADD PUSH2 0xD72 SWAP1 PUSH2 0x1542 JUMP JUMPDEST PUSH1 0x40 MLOAD DUP1 SWAP2 SUB SWAP1 REVERT JUMPDEST PUSH1 0x1 DUP2 PUSH1 0xFF AND SUB PUSH2 0xDE0 JUMPI PUSH1 0x1 PUSH1 0x5 PUSH0 DUP5 PUSH20 0xFFFFFFFFFFFFFFFFFFFFFFFFFFFFFFFFFFFFFFFF AND PUSH20 0xFFFFFFFFFFFFFFFFFFFFFFFFFFFFFFFFFFFFFFFF AND DUP2 MSTORE PUSH1 0x20 ADD SWAP1 DUP2 MSTORE PUSH1 0x20 ADD PUSH0 KECCAK256 PUSH0 PUSH2 0x100 EXP DUP2 SLOAD DUP2 PUSH1 0xFF MUL NOT AND SWAP1 DUP4 ISZERO ISZERO MUL OR SWAP1 SSTORE POP PUSH2 0xF74 JUMP JUMPDEST PUSH1 0x2 DUP2 PUSH1 0xFF AND SUB PUSH2 0xE45 JUMPI PUSH1 0x1 PUSH1 0x6 PUSH0 DUP5 PUSH20 0xFFFFFFFFFFFFFFFFFFFFFFFFFFFFFFFFFFFFFFFF AND PUSH20 0xFFFFFFFFFFFFFFFFFFFFFFFFFFFFFFFFFFFFFFFF AND DUP2 MSTORE PUSH1 0x20 ADD SWAP1 DUP2 MSTORE PUSH1 0x20 ADD PUSH0 KECCAK256 PUSH0 PUSH2 0x100 EXP DUP2 SLOAD DUP2 PUSH1 0xFF MUL NOT AND SWAP1 DUP4 ISZERO ISZERO MUL OR SWAP1 SSTORE POP PUSH2 0xF73 JUMP JUMPDEST PUSH1 0x3 DUP2 PUSH1 0xFF AND SUB PUSH2 0xEAA JUMPI PUSH1 0x1 PUSH1 0x7 PUSH0 DUP5 PUSH20 0xFFFFFFFFFFFFFFFFFFFFFFFFFFFFFFFFFFFFFFFF AND PUSH20 0xFFFFFFFFFFFFFFFFFFFFFFFFFFFFFFFFFFFFFFFF AND DUP2 MSTORE PUSH1 0x20 ADD SWAP1 DUP2 MSTORE PUSH1 0x20 ADD PUSH0 KECCAK256 PUSH0 PUSH2 0x100 EXP DUP2 SLOAD DUP2 PUSH1 0xFF MUL NOT AND SWAP1 DUP4 ISZERO ISZERO MUL OR SWAP1 SSTORE POP PUSH2 0xF72 JUMP JUMPDEST PUSH1 0x4 DUP2 PUSH1 0xFF AND SUB PUSH2 0xF0F JUMPI PUSH1 0x1 PUSH1 0x8 PUSH0 DUP5 PUSH20 0xFFFFFFFFFFFFFFFFFFFFFFFFFFFFFFFFFFFFFFFF AND PUSH20 0xFFFFFFFFFFFFFFFFFFFFFFFFFFFFFFFFFFFFFFFF AND DUP2 MSTORE PUSH1 0x20 ADD SWAP1 DUP2 MSTORE PUSH1 0x20 ADD PUSH0 KECCAK256 PUSH0 PUSH2 0x100 EXP DUP2 SLOAD DUP2 PUSH1 0xFF MUL NOT AND SWAP1 DUP4 ISZERO ISZERO MUL OR SWAP1 SSTORE POP PUSH2 0xF71 JUMP JUMPDEST PUSH1 0x5 DUP2 PUSH1 0xFF AND SUB PUSH2 0xF70 JUMPI PUSH1 0x1 PUSH1 0x9 PUSH0 DUP5 PUSH20 0xFFFFFFFFFFFFFFFFFFFFFFFFFFFFFFFFFFFFFFFF AND PUSH20 0xFFFFFFFFFFFFFFFFFFFFFFFFFFFFFFFFFFFFFFFF AND DUP2 MSTORE PUSH1 0x20 ADD SWAP1 DUP2 MSTORE PUSH1 0x20 ADD PUSH0 KECCAK256 PUSH0 PUSH2 0x100 EXP DUP2 SLOAD DUP2 PUSH1 0xFF MUL NOT AND SWAP1 DUP4 ISZERO ISZERO MUL OR SWAP1 SSTORE POP JUMPDEST JUMPDEST JUMPDEST JUMPDEST JUMPDEST POP POP JUMP JUMPDEST PUSH0 PUSH1 0x1 DUP3 PUSH1 0xFF AND LT ISZERO DUP1 ISZERO PUSH2 0xF91 JUMPI POP PUSH1 0x5 DUP3 PUSH1 0xFF AND GT ISZERO JUMPDEST PUSH2 0xFD0 JUMPI PUSH1 0x40 MLOAD PUSH32 0x8C379A000000000000000000000000000000000000000000000000000000000 DUP2 MSTORE PUSH1 0x4 ADD PUSH2 0xFC7 SWAP1 PUSH2 0x1542 JUMP JUMPDEST PUSH1 0x40 MLOAD DUP1 SWAP2 SUB SWAP1 REVERT JUMPDEST PUSH1 0x1 DUP3 PUSH1 0xFF AND SUB PUSH2 0x102C JUMPI PUSH1 0x5 PUSH0 DUP5 PUSH20 0xFFFFFFFFFFFFFFFFFFFFFFFFFFFFFFFFFFFFFFFF AND PUSH20 0xFFFFFFFFFFFFFFFFFFFFFFFFFFFFFFFFFFFFFFFF AND DUP2 MSTORE PUSH1 0x20 ADD SWAP1 DUP2 MSTORE PUSH1 0x20 ADD PUSH0 KECCAK256 PUSH0 SWAP1 SLOAD SWAP1 PUSH2 0x100 EXP SWAP1 DIV PUSH1 0xFF AND SWAP1 POP PUSH2 0x11A0 JUMP JUMPDEST PUSH1 0x2 DUP3 PUSH1 0xFF AND SUB PUSH2 0x1088 JUMPI PUSH1 0x6 PUSH0 DUP5 PUSH20 0xFFFFFFFFFFFFFFFFFFFFFFFFFFFFFFFFFFFFFFFF AND PUSH20 0xFFFFFFFFFFFFFFFFFFFFFFFFFFFFFFFFFFFFFFFF AND DUP2 MSTORE PUSH1 0x20 ADD SWAP1 DUP2 MSTORE PUSH1 0x20 ADD PUSH0 KECCAK256 PUSH0 SWAP1 SLOAD SWAP1 PUSH2 0x100 EXP SWAP1 DIV PUSH1 0xFF AND SWAP1 POP PUSH2 0x11A0 JUMP JUMPDEST PUSH1 0x3 DUP3 PUSH1 0xFF AND SUB PUSH2 0x10E4 JUMPI PUSH1 0x7 PUSH0 DUP5 PUSH20 0xFFFFFFFFFFFFFFFFFFFFFFFFFFFFFFFFFFFFFFFF AND PUSH20 0xFFFFFFFFFFFFFFFFFFFFFFFFFFFFFFFFFFFFFFFF AND DUP2 MSTORE PUSH1 0x20 ADD SWAP1 DUP2 MSTORE PUSH1 0x20 ADD PUSH0 KECCAK256 PUSH0 SWAP1 SLOAD SWAP1 PUSH2 0x100 EXP SWAP1 DIV PUSH1 0xFF AND SWAP1 POP PUSH2 0x11A0 JUMP JUMPDEST PUSH1 0x4 DUP3 PUSH1 0xFF AND SUB PUSH2 0x1140 JUMPI PUSH1 0x8 PUSH0 DUP5 PUSH20 0xFFFFFFFFFFFFFFFFFFFFFFFFFFFFFFFFFFFFFFFF AND PUSH20 0xFFFFFFFFFFFFFFFFFFFFFFFFFFFFFFFFFFFFFFFF AND DUP2 MSTORE PUSH1 0x20 ADD SWAP1 DUP2 MSTORE PUSH1 0x20 ADD PUSH0 KECCAK256 PUSH0 SWAP1 SLOAD SWAP1 PUSH2 0x100 EXP SWAP1 DIV PUSH1 0xFF AND SWAP1 POP PUSH2 0x11A0 JUMP JUMPDEST PUSH1 0x5 DUP3 PUSH1 0xFF AND SUB PUSH2 0x119C JUMPI PUSH1 0x9 PUSH0 DUP5 PUSH20 0xFFFFFFFFFFFFFFFFFFFFFFFFFFFFFFFFFFFFFFFF AND PUSH20 0xFFFFFFFFFFFFFFFFFFFFFFFFFFFFFFFFFFFFFFFF AND DUP2 MSTORE PUSH1 0x20 ADD SWAP1 DUP2 MSTORE PUSH1 0x20 ADD PUSH0 KECCAK256 PUSH0 SWAP1 SLOAD SWAP1 PUSH2 0x100 EXP SWAP1 DIV PUSH1 0xFF AND SWAP1 POP PUSH2 0x11A0 JUMP JUMPDEST PUSH0 SWAP1 POP JUMPDEST SWAP3 SWAP2 POP POP JUMP JUMPDEST PUSH1 0x5 PUSH1 0x20 MSTORE DUP1 PUSH0 MSTORE PUSH1 0x40 PUSH0 KECCAK256 PUSH0 SWAP2 POP SLOAD SWAP1 PUSH2 0x100 EXP SWAP1 DIV PUSH1 0xFF AND DUP2 JUMP JUMPDEST PUSH1 0x2 PUSH0 SWAP1 SLOAD SWAP1 PUSH2 0x100 EXP SWAP1 DIV PUSH20 0xFFFFFFFFFFFFFFFFFFFFFFFFFFFFFFFFFFFFFFFF AND PUSH20 0xFFFFFFFFFFFFFFFFFFFFFFFFFFFFFFFFFFFFFFFF AND CALLER PUSH20 0xFFFFFFFFFFFFFFFFFFFFFFFFFFFFFFFFFFFFFFFF AND EQ PUSH2 0x1252 JUMPI PUSH1 0x40 MLOAD PUSH32 0x8C379A000000000000000000000000000000000000000000000000000000000 DUP2 MSTORE PUSH1 0x4 ADD PUSH2 0x1249 SWAP1 PUSH2 0x169B JUMP JUMPDEST PUSH1 0x40 MLOAD DUP1 SWAP2 SUB SWAP1 REVERT JUMPDEST DUP1 PUSH1 0x4 DUP2 SWAP1 SSTORE POP POP JUMP JUMPDEST PUSH1 0x19 DUP2 JUMP JUMPDEST PUSH1 0x2 PUSH0 SLOAD SUB PUSH2 0x12A5 JUMPI PUSH1 0x40 MLOAD PUSH32 0x8C379A000000000000000000000000000000000000000000000000000000000 DUP2 MSTORE PUSH1 0x4 ADD PUSH2 0x129C SWAP1 PUSH2 0x18CE JUMP JUMPDEST PUSH1 0x40 MLOAD DUP1 SWAP2 SUB SWAP1 REVERT JUMPDEST PUSH1 0x2 PUSH0 DUP2 SWAP1 SSTORE POP JUMP JUMPDEST PUSH1 0x1 PUSH0 DUP2 SWAP1 SSTORE POP JUMP JUMPDEST PUSH0 DUP1 REVERT JUMPDEST PUSH0 PUSH20 0xFFFFFFFFFFFFFFFFFFFFFFFFFFFFFFFFFFFFFFFF DUP3 AND SWAP1 POP SWAP2 SWAP1 POP JUMP JUMPDEST PUSH0 PUSH2 0x12E4 DUP3 PUSH2 0x12BB JUMP JUMPDEST SWAP1 POP SWAP2 SWAP1 POP JUMP JUMPDEST PUSH2 0x12F4 DUP2 PUSH2 0x12DA JUMP JUMPDEST DUP2 EQ PUSH2 0x12FE JUMPI PUSH0 DUP1 REVERT JUMPDEST POP JUMP JUMPDEST PUSH0 DUP2 CALLDATALOAD SWAP1 POP PUSH2 0x130F DUP2 PUSH2 0x12EB JUMP JUMPDEST SWAP3 SWAP2 POP POP JUMP JUMPDEST PUSH0 PUSH1 0x20 DUP3 DUP5 SUB SLT ISZERO PUSH2 0x132A JUMPI PUSH2 0x1329 PUSH2 0x12B7 JUMP JUMPDEST JUMPDEST PUSH0 PUSH2 0x1337 DUP5 DUP3 DUP6 ADD PUSH2 0x1301 JUMP JUMPDEST SWAP2 POP POP SWAP3 SWAP2 POP POP JUMP JUMPDEST PUSH0 DUP2 ISZERO ISZERO SWAP1 POP SWAP2 SWAP1 POP JUMP JUMPDEST PUSH2 0x1354 DUP2 PUSH2 0x1340 JUMP JUMPDEST DUP3 MSTORE POP POP JUMP JUMPDEST PUSH0 PUSH1 0x20 DUP3 ADD SWAP1 POP PUSH2 0x136D PUSH0 DUP4 ADD DUP5 PUSH2 0x134B JUMP JUMPDEST SWAP3 SWAP2 POP POP JUMP JUMPDEST PUSH0 DUP2 SWAP1 POP SWAP2 SWAP1 POP JUMP JUMPDEST PUSH2 0x1385 DUP2 PUSH2 0x1373 JUMP JUMPDEST DUP3 MSTORE POP POP JUMP JUMPDEST PUSH0 PUSH1 0x20 DUP3 ADD SWAP1 POP PUSH2 0x139E PUSH0 DUP4 ADD DUP5 PUSH2 0x137C JUMP JUMPDEST SWAP3 SWAP2 POP POP JUMP JUMPDEST PUSH0 PUSH1 0xFF DUP3 AND SWAP1 POP SWAP2 SWAP1 POP JUMP JUMPDEST PUSH2 0x13B9 DUP2 PUSH2 0x13A4 JUMP JUMPDEST DUP3 MSTORE POP POP JUMP JUMPDEST PUSH0 PUSH1 0x20 DUP3 ADD SWAP1 POP PUSH2 0x13D2 PUSH0 DUP4 ADD DUP5 PUSH2 0x13B0 JUMP JUMPDEST SWAP3 SWAP2 POP POP JUMP JUMPDEST PUSH2 0x13E1 DUP2 PUSH2 0x13A4 JUMP JUMPDEST DUP2 EQ PUSH2 0x13EB JUMPI PUSH0 DUP1 REVERT JUMPDEST POP JUMP JUMPDEST PUSH0 DUP2 CALLDATALOAD SWAP1 POP PUSH2 0x13FC DUP2 PUSH2 0x13D8 JUMP JUMPDEST SWAP3 SWAP2 POP POP JUMP JUMPDEST PUSH0 PUSH1 0x20 DUP3 DUP5 SUB SLT ISZERO PUSH2 0x1417 JUMPI PUSH2 0x1416 PUSH2 0x12B7 JUMP JUMPDEST JUMPDEST PUSH0 PUSH2 0x1424 DUP5 DUP3 DUP6 ADD PUSH2 0x13EE JUMP JUMPDEST SWAP2 POP POP SWAP3 SWAP2 POP POP JUMP JUMPDEST PUSH0 DUP1 PUSH1 0x40 DUP4 DUP6 SUB SLT ISZERO PUSH2 0x1443 JUMPI PUSH2 0x1442 PUSH2 0x12B7 JUMP JUMPDEST JUMPDEST PUSH0 PUSH2 0x1450 DUP6 DUP3 DUP7 ADD PUSH2 0x1301 JUMP JUMPDEST SWAP3 POP POP PUSH1 0x20 PUSH2 0x1461 DUP6 DUP3 DUP7 ADD PUSH2 0x13EE JUMP JUMPDEST SWAP2 POP POP SWAP3 POP SWAP3 SWAP1 POP JUMP JUMPDEST PUSH2 0x1474 DUP2 PUSH2 0x1373 JUMP JUMPDEST DUP2 EQ PUSH2 0x147E JUMPI PUSH0 DUP1 REVERT JUMPDEST POP JUMP JUMPDEST PUSH0 DUP2 CALLDATALOAD SWAP1 POP PUSH2 0x148F DUP2 PUSH2 0x146B JUMP JUMPDEST SWAP3 SWAP2 POP POP JUMP JUMPDEST PUSH0 PUSH1 0x20 DUP3 DUP5 SUB SLT ISZERO PUSH2 0x14AA JUMPI PUSH2 0x14A9 PUSH2 0x12B7 JUMP JUMPDEST JUMPDEST PUSH0 PUSH2 0x14B7 DUP5 DUP3 DUP6 ADD PUSH2 0x1481 JUMP JUMPDEST SWAP2 POP POP SWAP3 SWAP2 POP POP JUMP JUMPDEST PUSH2 0x14C9 DUP2 PUSH2 0x12DA JUMP JUMPDEST DUP3 MSTORE POP POP JUMP JUMPDEST PUSH0 PUSH1 0x20 DUP3 ADD SWAP1 POP PUSH2 0x14E2 PUSH0 DUP4 ADD DUP5 PUSH2 0x14C0 JUMP JUMPDEST SWAP3 SWAP2 POP POP JUMP JUMPDEST PUSH0 DUP3 DUP3 MSTORE PUSH1 0x20 DUP3 ADD SWAP1 POP SWAP3 SWAP2 POP POP JUMP JUMPDEST PUSH32 0x496E76616C69642063617465676F727900000000000000000000000000000000 PUSH0 DUP3 ADD MSTORE POP JUMP JUMPDEST PUSH0 PUSH2 0x152C PUSH1 0x10 DUP4 PUSH2 0x14E8 JUMP JUMPDEST SWAP2 POP PUSH2 0x1537 DUP3 PUSH2 0x14F8 JUMP JUMPDEST PUSH1 0x20 DUP3 ADD SWAP1 POP SWAP2 SWAP1 POP JUMP JUMPDEST PUSH0 PUSH1 0x20 DUP3 ADD SWAP1 POP DUP2 DUP2 SUB PUSH0 DUP4 ADD MSTORE PUSH2 0x1559 DUP2 PUSH2 0x1520 JUMP JUMPDEST SWAP1 POP SWAP2 SWAP1 POP JUMP JUMPDEST PUSH32 0x4E487B7100000000000000000000000000000000000000000000000000000000 PUSH0 MSTORE PUSH1 0x11 PUSH1 0x4 MSTORE PUSH1 0x24 PUSH0 REVERT JUMPDEST PUSH0 PUSH2 0x1597 DUP3 PUSH2 0x1373 JUMP JUMPDEST SWAP2 POP PUSH2 0x15A2 DUP4 PUSH2 0x1373 JUMP JUMPDEST SWAP3 POP DUP3 DUP3 MUL PUSH2 0x15B0 DUP2 PUSH2 0x1373 JUMP JUMPDEST SWAP2 POP DUP3 DUP3 DIV DUP5 EQ DUP4 ISZERO OR PUSH2 0x15C7 JUMPI PUSH2 0x15C6 PUSH2 0x1560 JUMP JUMPDEST JUMPDEST POP SWAP3 SWAP2 POP POP JUMP JUMPDEST PUSH32 0x4E487B7100000000000000000000000000000000000000000000000000000000 PUSH0 MSTORE PUSH1 0x12 PUSH1 0x4 MSTORE PUSH1 0x24 PUSH0 REVERT JUMPDEST PUSH0 PUSH2 0x1605 DUP3 PUSH2 0x1373 JUMP JUMPDEST SWAP2 POP PUSH2 0x1610 DUP4 PUSH2 0x1373 JUMP JUMPDEST SWAP3 POP DUP3 PUSH2 0x1620 JUMPI PUSH2 0x161F PUSH2 0x15CE JUMP JUMPDEST JUMPDEST DUP3 DUP3 DIV SWAP1 POP SWAP3 SWAP2 POP POP JUMP JUMPDEST PUSH32 0x4F6E6C79206F776E65722063616E20706572666F726D20746869732061637469 PUSH0 DUP3 ADD MSTORE PUSH32 0x6F6E000000000000000000000000000000000000000000000000000000000000 PUSH1 0x20 DUP3 ADD MSTORE POP JUMP JUMPDEST PUSH0 PUSH2 0x1685 PUSH1 0x22 DUP4 PUSH2 0x14E8 JUMP JUMPDEST SWAP2 POP PUSH2 0x1690 DUP3 PUSH2 0x162B JUMP JUMPDEST PUSH1 0x40 DUP3 ADD SWAP1 POP SWAP2 SWAP1 POP JUMP JUMPDEST PUSH0 PUSH1 0x20 DUP3 ADD SWAP1 POP DUP2 DUP2 SUB PUSH0 DUP4 ADD MSTORE PUSH2 0x16B2 DUP2 PUSH2 0x1679 JUMP JUMPDEST SWAP1 POP SWAP2 SWAP1 POP JUMP JUMPDEST PUSH32 0x53747564656E7420686173206E6F7420636F6D706C6574656420746865207370 PUSH0 DUP3 ADD MSTORE PUSH32 0x656369666965642063617465676F727900000000000000000000000000000000 PUSH1 0x20 DUP3 ADD MSTORE POP JUMP JUMPDEST PUSH0 PUSH2 0x1713 PUSH1 0x30 DUP4 PUSH2 0x14E8 JUMP JUMPDEST SWAP2 POP PUSH2 0x171E DUP3 PUSH2 0x16B9 JUMP JUMPDEST PUSH1 0x40 DUP3 ADD SWAP1 POP SWAP2 SWAP1 POP JUMP JUMPDEST PUSH0 PUSH1 0x20 DUP3 ADD SWAP1 POP DUP2 DUP2 SUB PUSH0 DUP4 ADD MSTORE PUSH2 0x1740 DUP2 PUSH2 0x1707 JUMP JUMPDEST SWAP1 POP SWAP2 SWAP1 POP JUMP JUMPDEST PUSH32 0x4E6F207265776172647320617661696C61626C6520666F722074686973206361 PUSH0 DUP3 ADD MSTORE PUSH32 0x7465676F72790000000000000000000000000000000000000000000000000000 PUSH1 0x20 DUP3 ADD MSTORE POP JUMP JUMPDEST PUSH0 PUSH2 0x17A1 PUSH1 0x26 DUP4 PUSH2 0x14E8 JUMP JUMPDEST SWAP2 POP PUSH2 0x17AC DUP3 PUSH2 0x1747 JUMP JUMPDEST PUSH1 0x40 DUP3 ADD SWAP1 POP SWAP2 SWAP1 POP JUMP JUMPDEST PUSH0 PUSH1 0x20 DUP3 ADD SWAP1 POP DUP2 DUP2 SUB PUSH0 DUP4 ADD MSTORE PUSH2 0x17CE DUP2 PUSH2 0x1795 JUMP JUMPDEST SWAP1 POP SWAP2 SWAP1 POP JUMP JUMPDEST PUSH0 PUSH2 0x17DF DUP3 PUSH2 0x1373 JUMP JUMPDEST SWAP2 POP PUSH2 0x17EA DUP4 PUSH2 0x1373 JUMP JUMPDEST SWAP3 POP DUP3 DUP3 SUB SWAP1 POP DUP2 DUP2 GT ISZERO PUSH2 0x1802 JUMPI PUSH2 0x1801 PUSH2 0x1560 JUMP JUMPDEST JUMPDEST SWAP3 SWAP2 POP POP JUMP JUMPDEST PUSH0 PUSH1 0x40 DUP3 ADD SWAP1 POP PUSH2 0x181B PUSH0 DUP4 ADD DUP6 PUSH2 0x14C0 JUMP JUMPDEST PUSH2 0x1828 PUSH1 0x20 DUP4 ADD DUP5 PUSH2 0x137C JUMP JUMPDEST SWAP4 SWAP3 POP POP POP JUMP JUMPDEST PUSH2 0x1838 DUP2 PUSH2 0x1340 JUMP JUMPDEST DUP2 EQ PUSH2 0x1842 JUMPI PUSH0 DUP1 REVERT JUMPDEST POP JUMP JUMPDEST PUSH0 DUP2 MLOAD SWAP1 POP PUSH2 0x1853 DUP2 PUSH2 0x182F JUMP JUMPDEST SWAP3 SWAP2 POP POP JUMP JUMPDEST PUSH0 PUSH1 0x20 DUP3 DUP5 SUB SLT ISZERO PUSH2 0x186E JUMPI PUSH2 0x186D PUSH2 0x12B7 JUMP JUMPDEST JUMPDEST PUSH0 PUSH2 0x187B DUP5 DUP3 DUP6 ADD PUSH2 0x1845 JUMP JUMPDEST SWAP2 POP POP SWAP3 SWAP2 POP POP JUMP JUMPDEST PUSH32 0x5265656E7472616E637947756172643A207265656E7472616E742063616C6C00 PUSH0 DUP3 ADD MSTORE POP JUMP JUMPDEST PUSH0 PUSH2 0x18B8 PUSH1 0x1F DUP4 PUSH2 0x14E8 JUMP JUMPDEST SWAP2 POP PUSH2 0x18C3 DUP3 PUSH2 0x1884 JUMP JUMPDEST PUSH1 0x20 DUP3 ADD SWAP1 POP SWAP2 SWAP1 POP JUMP JUMPDEST PUSH0 PUSH1 0x20 DUP3 ADD SWAP1 POP DUP2 DUP2 SUB PUSH0 DUP4 ADD MSTORE PUSH2 0x18E5 DUP2 PUSH2 0x18AC JUMP JUMPDEST SWAP1 POP SWAP2 SWAP1 POP JUMP INVALID LOG2 PUSH5 0x6970667358 0x22 SLT KECCAK256 DUP9 0xC 0x1F CREATE2 0xD7 0xBD PUSH19 0xE967B9D88D16AF8E96BAFAA23703764BD96487 0xC8 LOG4 ISZERO 0xC9 0xF7 0xC PUSH5 0x736F6C6343 STOP ADDMOD EQ STOP CALLER "
				},
				"gasEstimates": {
					"creation": {
						"codeDepositCost": "1286800",
						"executionCost": "infinite",
						"totalCost": "infinite"
					},
					"external": {
						"CATEGORY_A_PERCENTAGE()": "420",
						"CATEGORY_B_PERCENTAGE()": "399",
						"CATEGORY_C_PERCENTAGE()": "354",
						"CATEGORY_D_PERCENTAGE()": "441",
						"CATEGORY_E_PERCENTAGE()": "354",
						"calculateCategoryReward(uint8)": "infinite",
						"checkCategoryStatus(address,uint8)": "3319",
						"claimReward(uint8)": "infinite",
						"hasCompletedCategoryA(address)": "2899",
						"hasCompletedCategoryB(address)": "2900",
						"hasCompletedCategoryC(address)": "2922",
						"hasCompletedCategoryD(address)": "2878",
						"hasCompletedCategoryE(address)": "2857",
						"owner()": "2619",
						"removeCategoryCompletion(address,uint8)": "27481",
						"setCategoryCompletion(address,uint8)": "27392",
						"setTotalAvailableRewards(uint256)": "24751",
						"setTotalTokenCirculation(uint256)": "24772",
						"totalAvailableRewards()": "2536",
						"totalTokenCirculation()": "2471"
					}
				},
				"methodIdentifiers": {
					"CATEGORY_A_PERCENTAGE()": "7cb74e57",
					"CATEGORY_B_PERCENTAGE()": "34669805",
					"CATEGORY_C_PERCENTAGE()": "a390e9f6",
					"CATEGORY_D_PERCENTAGE()": "f240e1ec",
					"CATEGORY_E_PERCENTAGE()": "65cdab41",
					"calculateCategoryReward(uint8)": "4571fdc5",
					"checkCategoryStatus(address,uint8)": "e397655b",
					"claimReward(uint8)": "689f1623",
					"hasCompletedCategoryA(address)": "e5f229c7",
					"hasCompletedCategoryB(address)": "b0d90a75",
					"hasCompletedCategoryC(address)": "b681bcb3",
					"hasCompletedCategoryD(address)": "aedbe682",
					"hasCompletedCategoryE(address)": "00ae9975",
					"owner()": "8da5cb5b",
					"removeCategoryCompletion(address,uint8)": "614b1751",
					"setCategoryCompletion(address,uint8)": "d52b429e",
					"setTotalAvailableRewards(uint256)": "71004a2f",
					"setTotalTokenCirculation(uint256)": "eb74b683",
					"totalAvailableRewards()": "cd74234e",
					"totalTokenCirculation()": "07e437a0"
				}
			},
			"storageLayout": {
				"storage": [
					{
						"astId": 403,
						"contract": "contracts/ProofOfStudy.sol:ProofOfStudy",
						"label": "_status",
						"offset": 0,
						"slot": "0",
						"type": "t_uint256"
					},
					{
						"astId": 1636,
						"contract": "contracts/ProofOfStudy.sol:ProofOfStudy",
						"label": "_nnthToken",
						"offset": 0,
						"slot": "1",
						"type": "t_contract(NNTHToken)1627"
					},
					{
						"astId": 1638,
						"contract": "contracts/ProofOfStudy.sol:ProofOfStudy",
						"label": "owner",
						"offset": 0,
						"slot": "2",
						"type": "t_address"
					},
					{
						"astId": 1640,
						"contract": "contracts/ProofOfStudy.sol:ProofOfStudy",
						"label": "totalAvailableRewards",
						"offset": 0,
						"slot": "3",
						"type": "t_uint256"
					},
					{
						"astId": 1642,
						"contract": "contracts/ProofOfStudy.sol:ProofOfStudy",
						"label": "totalTokenCirculation",
						"offset": 0,
						"slot": "4",
						"type": "t_uint256"
					},
					{
						"astId": 1661,
						"contract": "contracts/ProofOfStudy.sol:ProofOfStudy",
						"label": "hasCompletedCategoryA",
						"offset": 0,
						"slot": "5",
						"type": "t_mapping(t_address,t_bool)"
					},
					{
						"astId": 1665,
						"contract": "contracts/ProofOfStudy.sol:ProofOfStudy",
						"label": "hasCompletedCategoryB",
						"offset": 0,
						"slot": "6",
						"type": "t_mapping(t_address,t_bool)"
					},
					{
						"astId": 1669,
						"contract": "contracts/ProofOfStudy.sol:ProofOfStudy",
						"label": "hasCompletedCategoryC",
						"offset": 0,
						"slot": "7",
						"type": "t_mapping(t_address,t_bool)"
					},
					{
						"astId": 1673,
						"contract": "contracts/ProofOfStudy.sol:ProofOfStudy",
						"label": "hasCompletedCategoryD",
						"offset": 0,
						"slot": "8",
						"type": "t_mapping(t_address,t_bool)"
					},
					{
						"astId": 1677,
						"contract": "contracts/ProofOfStudy.sol:ProofOfStudy",
						"label": "hasCompletedCategoryE",
						"offset": 0,
						"slot": "9",
						"type": "t_mapping(t_address,t_bool)"
					}
				],
				"types": {
					"t_address": {
						"encoding": "inplace",
						"label": "address",
						"numberOfBytes": "20"
					},
					"t_bool": {
						"encoding": "inplace",
						"label": "bool",
						"numberOfBytes": "1"
					},
					"t_contract(NNTHToken)1627": {
						"encoding": "inplace",
						"label": "contract NNTHToken",
						"numberOfBytes": "20"
					},
					"t_mapping(t_address,t_bool)": {
						"encoding": "mapping",
						"key": "t_address",
						"label": "mapping(address => bool)",
						"numberOfBytes": "32",
						"value": "t_bool"
					},
					"t_uint256": {
						"encoding": "inplace",
						"label": "uint256",
						"numberOfBytes": "32"
					}
				}
			},
			"userdoc": {
				"kind": "user",
				"methods": {},
				"version": 1
			}
		}
	}
}