{
	"data": {
		"bytecode": {
			"linkReferences": {},
			"object": "608060405234801562000010575f80fd5b50604051620010943803806200109483398181016040528101906200003691906200020b565b815f806101000a81548173ffffffffffffffffffffffffffffffffffffffff021916908373ffffffffffffffffffffffffffffffffffffffff1602179055503360015f6101000a81548173ffffffffffffffffffffffffffffffffffffffff021916908373ffffffffffffffffffffffffffffffffffffffff1602179055505f8054906101000a900473ffffffffffffffffffffffffffffffffffffffff1673ffffffffffffffffffffffffffffffffffffffff166318160ddd6040518163ffffffff1660e01b8152600401602060405180830381865afa1580156200011e573d5f803e3d5ffd5b505050506040513d601f19601f8201168201806040525081019062000144919062000250565b600281905550670de0b6b3a764000081620001609190620002ad565b6003819055505050620002f7565b5f80fd5b5f73ffffffffffffffffffffffffffffffffffffffff82169050919050565b5f6200019d8262000172565b9050919050565b620001af8162000191565b8114620001ba575f80fd5b50565b5f81519050620001cd81620001a4565b92915050565b5f819050919050565b620001e781620001d3565b8114620001f2575f80fd5b50565b5f815190506200020581620001dc565b92915050565b5f80604083850312156200022457620002236200016e565b5b5f6200023385828601620001bd565b92505060206200024685828601620001f5565b9150509250929050565b5f602082840312156200026857620002676200016e565b5b5f6200027784828501620001f5565b91505092915050565b7f4e487b71000000000000000000000000000000000000000000000000000000005f52601160045260245ffd5b5f620002b982620001d3565b9150620002c683620001d3565b9250828202620002d681620001d3565b91508282048414831517620002f057620002ef62000280565b5b5092915050565b610d8f80620003055f395ff3fe608060405234801561000f575f80fd5b506004361061009c575f3560e01c80639c8140c6116100645780639c8140c614610146578063a87430ba14610150578063c147e53214610181578063c5a49d511461019f578063f25d7ef2146101bd5761009c565b80630faf1d9e146100a05780636512e817146100be5780636f9fb98a146100da5780637481af90146100f85780638da5cb5b14610128575b5f80fd5b6100a86101db565b6040516100b591906107c4565b60405180910390f35b6100d860048036038101906100d3919061080b565b6101e1565b005b6100e261027a565b6040516100ef91906107c4565b60405180910390f35b610112600480360381019061010d9190610836565b610281565b60405161011f91906107c4565b60405180910390f35b610130610366565b60405161013d91906108b3565b60405180910390f35b61014e61038b565b005b61016a600480360381019061016591906108f6565b6106c5565b60405161017892919061093b565b60405180910390f35b6101896106f1565b60405161019691906107c4565b60405180910390f35b6101a76106f7565b6040516101b491906107c4565b60405180910390f35b6101c56106fd565b6040516101d291906107c4565b60405180910390f35b60035481565b60015f9054906101000a900473ffffffffffffffffffffffffffffffffffffffff1673ffffffffffffffffffffffffffffffffffffffff163373ffffffffffffffffffffffffffffffffffffffff1614610270576040517f08c379a0000000000000000000000000000000000000000000000000000000008152600401610267906109e2565b60405180910390fd5b8060048190555050565b5f47905090565b5f808311801561029057505f82115b6102cf576040517f08c379a00000000000000000000000000000000000000000000000000000000081526004016102c690610a4a565b60405180910390fd5b5f670de0b6b3a76400008385670de0b6b3a76400006002546102f19190610a95565b6102fb9190610b03565b600354670de0b6b3a76400006004546103149190610a95565b61031e9190610b03565b670de0b6b3a76400006103319190610b33565b8761033c9190610a95565b6103469190610a95565b6103509190610b03565b61035a9190610b03565b90508091505092915050565b60015f9054906101000a900473ffffffffffffffffffffffffffffffffffffffff1681565b5f60055f3373ffffffffffffffffffffffffffffffffffffffff1673ffffffffffffffffffffffffffffffffffffffff1681526020019081526020015f205f01541161040c576040517f08c379a000000000000000000000000000000000000000000000000000000000815260040161040390610bb0565b60405180910390fd5b60055f3373ffffffffffffffffffffffffffffffffffffffff1673ffffffffffffffffffffffffffffffffffffffff1681526020019081526020015f206001015f9054906101000a900460ff1615610499576040517f08c379a000000000000000000000000000000000000000000000000000000000815260040161049090610c18565b60405180910390fd5b5f61053d6004545f8054906101000a900473ffffffffffffffffffffffffffffffffffffffff1673ffffffffffffffffffffffffffffffffffffffff166318160ddd6040518163ffffffff1660e01b8152600401602060405180830381865afa158015610508573d5f803e3d5ffd5b505050506040513d601f19601f8201168201806040525081019061052c9190610c4a565b6105369190610b33565b6001610281565b90505f8111610581576040517f08c379a000000000000000000000000000000000000000000000000000000000815260040161057890610cbf565b60405180910390fd5b600160055f3373ffffffffffffffffffffffffffffffffffffffff1673ffffffffffffffffffffffffffffffffffffffff1681526020019081526020015f206001015f6101000a81548160ff0219169083151502179055505f8054906101000a900473ffffffffffffffffffffffffffffffffffffffff1673ffffffffffffffffffffffffffffffffffffffff1663a9059cbb33836040518363ffffffff1660e01b8152600401610633929190610cdd565b6020604051808303815f875af115801561064f573d5f803e3d5ffd5b505050506040513d601f19601f820116820180604052508101906106739190610d2e565b503373ffffffffffffffffffffffffffffffffffffffff167ff40877132359ddcacd3a023b16ed67e8da4a6a9edbf6a28bb70ebacebd426a70826040516106ba91906107c4565b60405180910390a250565b6005602052805f5260405f205f91509050805f015490806001015f9054906101000a900460ff16905082565b60045481565b60025481565b5f805f8054906101000a900473ffffffffffffffffffffffffffffffffffffffff1673ffffffffffffffffffffffffffffffffffffffff166318160ddd6040518163ffffffff1660e01b8152600401602060405180830381865afa158015610767573d5f803e3d5ffd5b505050506040513d601f19601f8201168201806040525081019061078b9190610c4a565b9050606460328261079c9190610a95565b6107a69190610b03565b91505090565b5f819050919050565b6107be816107ac565b82525050565b5f6020820190506107d75f8301846107b5565b92915050565b5f80fd5b6107ea816107ac565b81146107f4575f80fd5b50565b5f81359050610805816107e1565b92915050565b5f602082840312156108205761081f6107dd565b5b5f61082d848285016107f7565b91505092915050565b5f806040838503121561084c5761084b6107dd565b5b5f610859858286016107f7565b925050602061086a858286016107f7565b9150509250929050565b5f73ffffffffffffffffffffffffffffffffffffffff82169050919050565b5f61089d82610874565b9050919050565b6108ad81610893565b82525050565b5f6020820190506108c65f8301846108a4565b92915050565b6108d581610893565b81146108df575f80fd5b50565b5f813590506108f0816108cc565b92915050565b5f6020828403121561090b5761090a6107dd565b5b5f610918848285016108e2565b91505092915050565b5f8115159050919050565b61093581610921565b82525050565b5f60408201905061094e5f8301856107b5565b61095b602083018461092c565b9392505050565b5f82825260208201905092915050565b7f4f6e6c79206f776e65722063616e20706572666f726d207468697320616374695f8201527f6f6e000000000000000000000000000000000000000000000000000000000000602082015250565b5f6109cc602283610962565b91506109d782610972565b604082019050919050565b5f6020820190508181035f8301526109f9816109c0565b9050919050565b7f496e76616c696420696e707574730000000000000000000000000000000000005f82015250565b5f610a34600e83610962565b9150610a3f82610a00565b602082019050919050565b5f6020820190508181035f830152610a6181610a28565b9050919050565b7f4e487b71000000000000000000000000000000000000000000000000000000005f52601160045260245ffd5b5f610a9f826107ac565b9150610aaa836107ac565b9250828202610ab8816107ac565b91508282048414831517610acf57610ace610a68565b5b5092915050565b7f4e487b71000000000000000000000000000000000000000000000000000000005f52601260045260245ffd5b5f610b0d826107ac565b9150610b18836107ac565b925082610b2857610b27610ad6565b5b828204905092915050565b5f610b3d826107ac565b9150610b48836107ac565b9250828203905081811115610b6057610b5f610a68565b5b92915050565b7f4e6f20746f6b656e7320746f20636c61696d00000000000000000000000000005f82015250565b5f610b9a601283610962565b9150610ba582610b66565b602082019050919050565b5f6020820190508181035f830152610bc781610b8e565b9050919050565b7f416c726561647920636c61696d656400000000000000000000000000000000005f82015250565b5f610c02600f83610962565b9150610c0d82610bce565b602082019050919050565b5f6020820190508181035f830152610c2f81610bf6565b9050919050565b5f81519050610c44816107e1565b92915050565b5f60208284031215610c5f57610c5e6107dd565b5b5f610c6c84828501610c36565b91505092915050565b7f4275696c64657220726577617264206973207a65726f000000000000000000005f82015250565b5f610ca9601683610962565b9150610cb482610c75565b602082019050919050565b5f6020820190508181035f830152610cd681610c9d565b9050919050565b5f604082019050610cf05f8301856108a4565b610cfd60208301846107b5565b9392505050565b610d0d81610921565b8114610d17575f80fd5b50565b5f81519050610d2881610d04565b92915050565b5f60208284031215610d4357610d426107dd565b5b5f610d5084828501610d1a565b9150509291505056fea264697066735822122025b5e9519121922c43d1348d182b4e3e686d61e588f1388512949710cfaa0b5f64736f6c63430008140033",
			"opcodes": "PUSH1 0x80 PUSH1 0x40 MSTORE CALLVALUE DUP1 ISZERO PUSH3 0x10 JUMPI PUSH0 DUP1 REVERT JUMPDEST POP PUSH1 0x40 MLOAD PUSH3 0x1094 CODESIZE SUB DUP1 PUSH3 0x1094 DUP4 CODECOPY DUP2 DUP2 ADD PUSH1 0x40 MSTORE DUP2 ADD SWAP1 PUSH3 0x36 SWAP2 SWAP1 PUSH3 0x20B JUMP JUMPDEST DUP2 PUSH0 DUP1 PUSH2 0x100 EXP DUP2 SLOAD DUP2 PUSH20 0xFFFFFFFFFFFFFFFFFFFFFFFFFFFFFFFFFFFFFFFF MUL NOT AND SWAP1 DUP4 PUSH20 0xFFFFFFFFFFFFFFFFFFFFFFFFFFFFFFFFFFFFFFFF AND MUL OR SWAP1 SSTORE POP CALLER PUSH1 0x1 PUSH0 PUSH2 0x100 EXP DUP2 SLOAD DUP2 PUSH20 0xFFFFFFFFFFFFFFFFFFFFFFFFFFFFFFFFFFFFFFFF MUL NOT AND SWAP1 DUP4 PUSH20 0xFFFFFFFFFFFFFFFFFFFFFFFFFFFFFFFFFFFFFFFF AND MUL OR SWAP1 SSTORE POP PUSH0 DUP1 SLOAD SWAP1 PUSH2 0x100 EXP SWAP1 DIV PUSH20 0xFFFFFFFFFFFFFFFFFFFFFFFFFFFFFFFFFFFFFFFF AND PUSH20 0xFFFFFFFFFFFFFFFFFFFFFFFFFFFFFFFFFFFFFFFF AND PUSH4 0x18160DDD PUSH1 0x40 MLOAD DUP2 PUSH4 0xFFFFFFFF AND PUSH1 0xE0 SHL DUP2 MSTORE PUSH1 0x4 ADD PUSH1 0x20 PUSH1 0x40 MLOAD DUP1 DUP4 SUB DUP2 DUP7 GAS STATICCALL ISZERO DUP1 ISZERO PUSH3 0x11E JUMPI RETURNDATASIZE PUSH0 DUP1 RETURNDATACOPY RETURNDATASIZE PUSH0 REVERT JUMPDEST POP POP POP POP PUSH1 0x40 MLOAD RETURNDATASIZE PUSH1 0x1F NOT PUSH1 0x1F DUP3 ADD AND DUP3 ADD DUP1 PUSH1 0x40 MSTORE POP DUP2 ADD SWAP1 PUSH3 0x144 SWAP2 SWAP1 PUSH3 0x250 JUMP JUMPDEST PUSH1 0x2 DUP2 SWAP1 SSTORE POP PUSH8 0xDE0B6B3A7640000 DUP2 PUSH3 0x160 SWAP2 SWAP1 PUSH3 0x2AD JUMP JUMPDEST PUSH1 0x3 DUP2 SWAP1 SSTORE POP POP POP PUSH3 0x2F7 JUMP JUMPDEST PUSH0 DUP1 REVERT JUMPDEST PUSH0 PUSH20 0xFFFFFFFFFFFFFFFFFFFFFFFFFFFFFFFFFFFFFFFF DUP3 AND SWAP1 POP SWAP2 SWAP1 POP JUMP JUMPDEST PUSH0 PUSH3 0x19D DUP3 PUSH3 0x172 JUMP JUMPDEST SWAP1 POP SWAP2 SWAP1 POP JUMP JUMPDEST PUSH3 0x1AF DUP2 PUSH3 0x191 JUMP JUMPDEST DUP2 EQ PUSH3 0x1BA JUMPI PUSH0 DUP1 REVERT JUMPDEST POP JUMP JUMPDEST PUSH0 DUP2 MLOAD SWAP1 POP PUSH3 0x1CD DUP2 PUSH3 0x1A4 JUMP JUMPDEST SWAP3 SWAP2 POP POP JUMP JUMPDEST PUSH0 DUP2 SWAP1 POP SWAP2 SWAP1 POP JUMP JUMPDEST PUSH3 0x1E7 DUP2 PUSH3 0x1D3 JUMP JUMPDEST DUP2 EQ PUSH3 0x1F2 JUMPI PUSH0 DUP1 REVERT JUMPDEST POP JUMP JUMPDEST PUSH0 DUP2 MLOAD SWAP1 POP PUSH3 0x205 DUP2 PUSH3 0x1DC JUMP JUMPDEST SWAP3 SWAP2 POP POP JUMP JUMPDEST PUSH0 DUP1 PUSH1 0x40 DUP4 DUP6 SUB SLT ISZERO PUSH3 0x224 JUMPI PUSH3 0x223 PUSH3 0x16E JUMP JUMPDEST JUMPDEST PUSH0 PUSH3 0x233 DUP6 DUP3 DUP7 ADD PUSH3 0x1BD JUMP JUMPDEST SWAP3 POP POP PUSH1 0x20 PUSH3 0x246 DUP6 DUP3 DUP7 ADD PUSH3 0x1F5 JUMP JUMPDEST SWAP2 POP POP SWAP3 POP SWAP3 SWAP1 POP JUMP JUMPDEST PUSH0 PUSH1 0x20 DUP3 DUP5 SUB SLT ISZERO PUSH3 0x268 JUMPI PUSH3 0x267 PUSH3 0x16E JUMP JUMPDEST JUMPDEST PUSH0 PUSH3 0x277 DUP5 DUP3 DUP6 ADD PUSH3 0x1F5 JUMP JUMPDEST SWAP2 POP POP SWAP3 SWAP2 POP POP JUMP JUMPDEST PUSH32 0x4E487B7100000000000000000000000000000000000000000000000000000000 PUSH0 MSTORE PUSH1 0x11 PUSH1 0x4 MSTORE PUSH1 0x24 PUSH0 REVERT JUMPDEST PUSH0 PUSH3 0x2B9 DUP3 PUSH3 0x1D3 JUMP JUMPDEST SWAP2 POP PUSH3 0x2C6 DUP4 PUSH3 0x1D3 JUMP JUMPDEST SWAP3 POP DUP3 DUP3 MUL PUSH3 0x2D6 DUP2 PUSH3 0x1D3 JUMP JUMPDEST SWAP2 POP DUP3 DUP3 DIV DUP5 EQ DUP4 ISZERO OR PUSH3 0x2F0 JUMPI PUSH3 0x2EF PUSH3 0x280 JUMP JUMPDEST JUMPDEST POP SWAP3 SWAP2 POP POP JUMP JUMPDEST PUSH2 0xD8F DUP1 PUSH3 0x305 PUSH0 CODECOPY PUSH0 RETURN INVALID PUSH1 0x80 PUSH1 0x40 MSTORE CALLVALUE DUP1 ISZERO PUSH2 0xF JUMPI PUSH0 DUP1 REVERT JUMPDEST POP PUSH1 0x4 CALLDATASIZE LT PUSH2 0x9C JUMPI PUSH0 CALLDATALOAD PUSH1 0xE0 SHR DUP1 PUSH4 0x9C8140C6 GT PUSH2 0x64 JUMPI DUP1 PUSH4 0x9C8140C6 EQ PUSH2 0x146 JUMPI DUP1 PUSH4 0xA87430BA EQ PUSH2 0x150 JUMPI DUP1 PUSH4 0xC147E532 EQ PUSH2 0x181 JUMPI DUP1 PUSH4 0xC5A49D51 EQ PUSH2 0x19F JUMPI DUP1 PUSH4 0xF25D7EF2 EQ PUSH2 0x1BD JUMPI PUSH2 0x9C JUMP JUMPDEST DUP1 PUSH4 0xFAF1D9E EQ PUSH2 0xA0 JUMPI DUP1 PUSH4 0x6512E817 EQ PUSH2 0xBE JUMPI DUP1 PUSH4 0x6F9FB98A EQ PUSH2 0xDA JUMPI DUP1 PUSH4 0x7481AF90 EQ PUSH2 0xF8 JUMPI DUP1 PUSH4 0x8DA5CB5B EQ PUSH2 0x128 JUMPI JUMPDEST PUSH0 DUP1 REVERT JUMPDEST PUSH2 0xA8 PUSH2 0x1DB JUMP JUMPDEST PUSH1 0x40 MLOAD PUSH2 0xB5 SWAP2 SWAP1 PUSH2 0x7C4 JUMP JUMPDEST PUSH1 0x40 MLOAD DUP1 SWAP2 SUB SWAP1 RETURN JUMPDEST PUSH2 0xD8 PUSH1 0x4 DUP1 CALLDATASIZE SUB DUP2 ADD SWAP1 PUSH2 0xD3 SWAP2 SWAP1 PUSH2 0x80B JUMP JUMPDEST PUSH2 0x1E1 JUMP JUMPDEST STOP JUMPDEST PUSH2 0xE2 PUSH2 0x27A JUMP JUMPDEST PUSH1 0x40 MLOAD PUSH2 0xEF SWAP2 SWAP1 PUSH2 0x7C4 JUMP JUMPDEST PUSH1 0x40 MLOAD DUP1 SWAP2 SUB SWAP1 RETURN JUMPDEST PUSH2 0x112 PUSH1 0x4 DUP1 CALLDATASIZE SUB DUP2 ADD SWAP1 PUSH2 0x10D SWAP2 SWAP1 PUSH2 0x836 JUMP JUMPDEST PUSH2 0x281 JUMP JUMPDEST PUSH1 0x40 MLOAD PUSH2 0x11F SWAP2 SWAP1 PUSH2 0x7C4 JUMP JUMPDEST PUSH1 0x40 MLOAD DUP1 SWAP2 SUB SWAP1 RETURN JUMPDEST PUSH2 0x130 PUSH2 0x366 JUMP JUMPDEST PUSH1 0x40 MLOAD PUSH2 0x13D SWAP2 SWAP1 PUSH2 0x8B3 JUMP JUMPDEST PUSH1 0x40 MLOAD DUP1 SWAP2 SUB SWAP1 RETURN JUMPDEST PUSH2 0x14E PUSH2 0x38B JUMP JUMPDEST STOP JUMPDEST PUSH2 0x16A PUSH1 0x4 DUP1 CALLDATASIZE SUB DUP2 ADD SWAP1 PUSH2 0x165 SWAP2 SWAP1 PUSH2 0x8F6 JUMP JUMPDEST PUSH2 0x6C5 JUMP JUMPDEST PUSH1 0x40 MLOAD PUSH2 0x178 SWAP3 SWAP2 SWAP1 PUSH2 0x93B JUMP JUMPDEST PUSH1 0x40 MLOAD DUP1 SWAP2 SUB SWAP1 RETURN JUMPDEST PUSH2 0x189 PUSH2 0x6F1 JUMP JUMPDEST PUSH1 0x40 MLOAD PUSH2 0x196 SWAP2 SWAP1 PUSH2 0x7C4 JUMP JUMPDEST PUSH1 0x40 MLOAD DUP1 SWAP2 SUB SWAP1 RETURN JUMPDEST PUSH2 0x1A7 PUSH2 0x6F7 JUMP JUMPDEST PUSH1 0x40 MLOAD PUSH2 0x1B4 SWAP2 SWAP1 PUSH2 0x7C4 JUMP JUMPDEST PUSH1 0x40 MLOAD DUP1 SWAP2 SUB SWAP1 RETURN JUMPDEST PUSH2 0x1C5 PUSH2 0x6FD JUMP JUMPDEST PUSH1 0x40 MLOAD PUSH2 0x1D2 SWAP2 SWAP1 PUSH2 0x7C4 JUMP JUMPDEST PUSH1 0x40 MLOAD DUP1 SWAP2 SUB SWAP1 RETURN JUMPDEST PUSH1 0x3 SLOAD DUP2 JUMP JUMPDEST PUSH1 0x1 PUSH0 SWAP1 SLOAD SWAP1 PUSH2 0x100 EXP SWAP1 DIV PUSH20 0xFFFFFFFFFFFFFFFFFFFFFFFFFFFFFFFFFFFFFFFF AND PUSH20 0xFFFFFFFFFFFFFFFFFFFFFFFFFFFFFFFFFFFFFFFF AND CALLER PUSH20 0xFFFFFFFFFFFFFFFFFFFFFFFFFFFFFFFFFFFFFFFF AND EQ PUSH2 0x270 JUMPI PUSH1 0x40 MLOAD PUSH32 0x8C379A000000000000000000000000000000000000000000000000000000000 DUP2 MSTORE PUSH1 0x4 ADD PUSH2 0x267 SWAP1 PUSH2 0x9E2 JUMP JUMPDEST PUSH1 0x40 MLOAD DUP1 SWAP2 SUB SWAP1 REVERT JUMPDEST DUP1 PUSH1 0x4 DUP2 SWAP1 SSTORE POP POP JUMP JUMPDEST PUSH0 SELFBALANCE SWAP1 POP SWAP1 JUMP JUMPDEST PUSH0 DUP1 DUP4 GT DUP1 ISZERO PUSH2 0x290 JUMPI POP PUSH0 DUP3 GT JUMPDEST PUSH2 0x2CF JUMPI PUSH1 0x40 MLOAD PUSH32 0x8C379A000000000000000000000000000000000000000000000000000000000 DUP2 MSTORE PUSH1 0x4 ADD PUSH2 0x2C6 SWAP1 PUSH2 0xA4A JUMP JUMPDEST PUSH1 0x40 MLOAD DUP1 SWAP2 SUB SWAP1 REVERT JUMPDEST PUSH0 PUSH8 0xDE0B6B3A7640000 DUP4 DUP6 PUSH8 0xDE0B6B3A7640000 PUSH1 0x2 SLOAD PUSH2 0x2F1 SWAP2 SWAP1 PUSH2 0xA95 JUMP JUMPDEST PUSH2 0x2FB SWAP2 SWAP1 PUSH2 0xB03 JUMP JUMPDEST PUSH1 0x3 SLOAD PUSH8 0xDE0B6B3A7640000 PUSH1 0x4 SLOAD PUSH2 0x314 SWAP2 SWAP1 PUSH2 0xA95 JUMP JUMPDEST PUSH2 0x31E SWAP2 SWAP1 PUSH2 0xB03 JUMP JUMPDEST PUSH8 0xDE0B6B3A7640000 PUSH2 0x331 SWAP2 SWAP1 PUSH2 0xB33 JUMP JUMPDEST DUP8 PUSH2 0x33C SWAP2 SWAP1 PUSH2 0xA95 JUMP JUMPDEST PUSH2 0x346 SWAP2 SWAP1 PUSH2 0xA95 JUMP JUMPDEST PUSH2 0x350 SWAP2 SWAP1 PUSH2 0xB03 JUMP JUMPDEST PUSH2 0x35A SWAP2 SWAP1 PUSH2 0xB03 JUMP JUMPDEST SWAP1 POP DUP1 SWAP2 POP POP SWAP3 SWAP2 POP POP JUMP JUMPDEST PUSH1 0x1 PUSH0 SWAP1 SLOAD SWAP1 PUSH2 0x100 EXP SWAP1 DIV PUSH20 0xFFFFFFFFFFFFFFFFFFFFFFFFFFFFFFFFFFFFFFFF AND DUP2 JUMP JUMPDEST PUSH0 PUSH1 0x5 PUSH0 CALLER PUSH20 0xFFFFFFFFFFFFFFFFFFFFFFFFFFFFFFFFFFFFFFFF AND PUSH20 0xFFFFFFFFFFFFFFFFFFFFFFFFFFFFFFFFFFFFFFFF AND DUP2 MSTORE PUSH1 0x20 ADD SWAP1 DUP2 MSTORE PUSH1 0x20 ADD PUSH0 KECCAK256 PUSH0 ADD SLOAD GT PUSH2 0x40C JUMPI PUSH1 0x40 MLOAD PUSH32 0x8C379A000000000000000000000000000000000000000000000000000000000 DUP2 MSTORE PUSH1 0x4 ADD PUSH2 0x403 SWAP1 PUSH2 0xBB0 JUMP JUMPDEST PUSH1 0x40 MLOAD DUP1 SWAP2 SUB SWAP1 REVERT JUMPDEST PUSH1 0x5 PUSH0 CALLER PUSH20 0xFFFFFFFFFFFFFFFFFFFFFFFFFFFFFFFFFFFFFFFF AND PUSH20 0xFFFFFFFFFFFFFFFFFFFFFFFFFFFFFFFFFFFFFFFF AND DUP2 MSTORE PUSH1 0x20 ADD SWAP1 DUP2 MSTORE PUSH1 0x20 ADD PUSH0 KECCAK256 PUSH1 0x1 ADD PUSH0 SWAP1 SLOAD SWAP1 PUSH2 0x100 EXP SWAP1 DIV PUSH1 0xFF AND ISZERO PUSH2 0x499 JUMPI PUSH1 0x40 MLOAD PUSH32 0x8C379A000000000000000000000000000000000000000000000000000000000 DUP2 MSTORE PUSH1 0x4 ADD PUSH2 0x490 SWAP1 PUSH2 0xC18 JUMP JUMPDEST PUSH1 0x40 MLOAD DUP1 SWAP2 SUB SWAP1 REVERT JUMPDEST PUSH0 PUSH2 0x53D PUSH1 0x4 SLOAD PUSH0 DUP1 SLOAD SWAP1 PUSH2 0x100 EXP SWAP1 DIV PUSH20 0xFFFFFFFFFFFFFFFFFFFFFFFFFFFFFFFFFFFFFFFF AND PUSH20 0xFFFFFFFFFFFFFFFFFFFFFFFFFFFFFFFFFFFFFFFF AND PUSH4 0x18160DDD PUSH1 0x40 MLOAD DUP2 PUSH4 0xFFFFFFFF AND PUSH1 0xE0 SHL DUP2 MSTORE PUSH1 0x4 ADD PUSH1 0x20 PUSH1 0x40 MLOAD DUP1 DUP4 SUB DUP2 DUP7 GAS STATICCALL ISZERO DUP1 ISZERO PUSH2 0x508 JUMPI RETURNDATASIZE PUSH0 DUP1 RETURNDATACOPY RETURNDATASIZE PUSH0 REVERT JUMPDEST POP POP POP POP PUSH1 0x40 MLOAD RETURNDATASIZE PUSH1 0x1F NOT PUSH1 0x1F DUP3 ADD AND DUP3 ADD DUP1 PUSH1 0x40 MSTORE POP DUP2 ADD SWAP1 PUSH2 0x52C SWAP2 SWAP1 PUSH2 0xC4A JUMP JUMPDEST PUSH2 0x536 SWAP2 SWAP1 PUSH2 0xB33 JUMP JUMPDEST PUSH1 0x1 PUSH2 0x281 JUMP JUMPDEST SWAP1 POP PUSH0 DUP2 GT PUSH2 0x581 JUMPI PUSH1 0x40 MLOAD PUSH32 0x8C379A000000000000000000000000000000000000000000000000000000000 DUP2 MSTORE PUSH1 0x4 ADD PUSH2 0x578 SWAP1 PUSH2 0xCBF JUMP JUMPDEST PUSH1 0x40 MLOAD DUP1 SWAP2 SUB SWAP1 REVERT JUMPDEST PUSH1 0x1 PUSH1 0x5 PUSH0 CALLER PUSH20 0xFFFFFFFFFFFFFFFFFFFFFFFFFFFFFFFFFFFFFFFF AND PUSH20 0xFFFFFFFFFFFFFFFFFFFFFFFFFFFFFFFFFFFFFFFF AND DUP2 MSTORE PUSH1 0x20 ADD SWAP1 DUP2 MSTORE PUSH1 0x20 ADD PUSH0 KECCAK256 PUSH1 0x1 ADD PUSH0 PUSH2 0x100 EXP DUP2 SLOAD DUP2 PUSH1 0xFF MUL NOT AND SWAP1 DUP4 ISZERO ISZERO MUL OR SWAP1 SSTORE POP PUSH0 DUP1 SLOAD SWAP1 PUSH2 0x100 EXP SWAP1 DIV PUSH20 0xFFFFFFFFFFFFFFFFFFFFFFFFFFFFFFFFFFFFFFFF AND PUSH20 0xFFFFFFFFFFFFFFFFFFFFFFFFFFFFFFFFFFFFFFFF AND PUSH4 0xA9059CBB CALLER DUP4 PUSH1 0x40 MLOAD DUP4 PUSH4 0xFFFFFFFF AND PUSH1 0xE0 SHL DUP2 MSTORE PUSH1 0x4 ADD PUSH2 0x633 SWAP3 SWAP2 SWAP1 PUSH2 0xCDD JUMP JUMPDEST PUSH1 0x20 PUSH1 0x40 MLOAD DUP1 DUP4 SUB DUP2 PUSH0 DUP8 GAS CALL ISZERO DUP1 ISZERO PUSH2 0x64F JUMPI RETURNDATASIZE PUSH0 DUP1 RETURNDATACOPY RETURNDATASIZE PUSH0 REVERT JUMPDEST POP POP POP POP PUSH1 0x40 MLOAD RETURNDATASIZE PUSH1 0x1F NOT PUSH1 0x1F DUP3 ADD AND DUP3 ADD DUP1 PUSH1 0x40 MSTORE POP DUP2 ADD SWAP1 PUSH2 0x673 SWAP2 SWAP1 PUSH2 0xD2E JUMP JUMPDEST POP CALLER PUSH20 0xFFFFFFFFFFFFFFFFFFFFFFFFFFFFFFFFFFFFFFFF AND PUSH32 0xF40877132359DDCACD3A023B16ED67E8DA4A6A9EDBF6A28BB70EBACEBD426A70 DUP3 PUSH1 0x40 MLOAD PUSH2 0x6BA SWAP2 SWAP1 PUSH2 0x7C4 JUMP JUMPDEST PUSH1 0x40 MLOAD DUP1 SWAP2 SUB SWAP1 LOG2 POP JUMP JUMPDEST PUSH1 0x5 PUSH1 0x20 MSTORE DUP1 PUSH0 MSTORE PUSH1 0x40 PUSH0 KECCAK256 PUSH0 SWAP2 POP SWAP1 POP DUP1 PUSH0 ADD SLOAD SWAP1 DUP1 PUSH1 0x1 ADD PUSH0 SWAP1 SLOAD SWAP1 PUSH2 0x100 EXP SWAP1 DIV PUSH1 0xFF AND SWAP1 POP DUP3 JUMP JUMPDEST PUSH1 0x4 SLOAD DUP2 JUMP JUMPDEST PUSH1 0x2 SLOAD DUP2 JUMP JUMPDEST PUSH0 DUP1 PUSH0 DUP1 SLOAD SWAP1 PUSH2 0x100 EXP SWAP1 DIV PUSH20 0xFFFFFFFFFFFFFFFFFFFFFFFFFFFFFFFFFFFFFFFF AND PUSH20 0xFFFFFFFFFFFFFFFFFFFFFFFFFFFFFFFFFFFFFFFF AND PUSH4 0x18160DDD PUSH1 0x40 MLOAD DUP2 PUSH4 0xFFFFFFFF AND PUSH1 0xE0 SHL DUP2 MSTORE PUSH1 0x4 ADD PUSH1 0x20 PUSH1 0x40 MLOAD DUP1 DUP4 SUB DUP2 DUP7 GAS STATICCALL ISZERO DUP1 ISZERO PUSH2 0x767 JUMPI RETURNDATASIZE PUSH0 DUP1 RETURNDATACOPY RETURNDATASIZE PUSH0 REVERT JUMPDEST POP POP POP POP PUSH1 0x40 MLOAD RETURNDATASIZE PUSH1 0x1F NOT PUSH1 0x1F DUP3 ADD AND DUP3 ADD DUP1 PUSH1 0x40 MSTORE POP DUP2 ADD SWAP1 PUSH2 0x78B SWAP2 SWAP1 PUSH2 0xC4A JUMP JUMPDEST SWAP1 POP PUSH1 0x64 PUSH1 0x32 DUP3 PUSH2 0x79C SWAP2 SWAP1 PUSH2 0xA95 JUMP JUMPDEST PUSH2 0x7A6 SWAP2 SWAP1 PUSH2 0xB03 JUMP JUMPDEST SWAP2 POP POP SWAP1 JUMP JUMPDEST PUSH0 DUP2 SWAP1 POP SWAP2 SWAP1 POP JUMP JUMPDEST PUSH2 0x7BE DUP2 PUSH2 0x7AC JUMP JUMPDEST DUP3 MSTORE POP POP JUMP JUMPDEST PUSH0 PUSH1 0x20 DUP3 ADD SWAP1 POP PUSH2 0x7D7 PUSH0 DUP4 ADD DUP5 PUSH2 0x7B5 JUMP JUMPDEST SWAP3 SWAP2 POP POP JUMP JUMPDEST PUSH0 DUP1 REVERT JUMPDEST PUSH2 0x7EA DUP2 PUSH2 0x7AC JUMP JUMPDEST DUP2 EQ PUSH2 0x7F4 JUMPI PUSH0 DUP1 REVERT JUMPDEST POP JUMP JUMPDEST PUSH0 DUP2 CALLDATALOAD SWAP1 POP PUSH2 0x805 DUP2 PUSH2 0x7E1 JUMP JUMPDEST SWAP3 SWAP2 POP POP JUMP JUMPDEST PUSH0 PUSH1 0x20 DUP3 DUP5 SUB SLT ISZERO PUSH2 0x820 JUMPI PUSH2 0x81F PUSH2 0x7DD JUMP JUMPDEST JUMPDEST PUSH0 PUSH2 0x82D DUP5 DUP3 DUP6 ADD PUSH2 0x7F7 JUMP JUMPDEST SWAP2 POP POP SWAP3 SWAP2 POP POP JUMP JUMPDEST PUSH0 DUP1 PUSH1 0x40 DUP4 DUP6 SUB SLT ISZERO PUSH2 0x84C JUMPI PUSH2 0x84B PUSH2 0x7DD JUMP JUMPDEST JUMPDEST PUSH0 PUSH2 0x859 DUP6 DUP3 DUP7 ADD PUSH2 0x7F7 JUMP JUMPDEST SWAP3 POP POP PUSH1 0x20 PUSH2 0x86A DUP6 DUP3 DUP7 ADD PUSH2 0x7F7 JUMP JUMPDEST SWAP2 POP POP SWAP3 POP SWAP3 SWAP1 POP JUMP JUMPDEST PUSH0 PUSH20 0xFFFFFFFFFFFFFFFFFFFFFFFFFFFFFFFFFFFFFFFF DUP3 AND SWAP1 POP SWAP2 SWAP1 POP JUMP JUMPDEST PUSH0 PUSH2 0x89D DUP3 PUSH2 0x874 JUMP JUMPDEST SWAP1 POP SWAP2 SWAP1 POP JUMP JUMPDEST PUSH2 0x8AD DUP2 PUSH2 0x893 JUMP JUMPDEST DUP3 MSTORE POP POP JUMP JUMPDEST PUSH0 PUSH1 0x20 DUP3 ADD SWAP1 POP PUSH2 0x8C6 PUSH0 DUP4 ADD DUP5 PUSH2 0x8A4 JUMP JUMPDEST SWAP3 SWAP2 POP POP JUMP JUMPDEST PUSH2 0x8D5 DUP2 PUSH2 0x893 JUMP JUMPDEST DUP2 EQ PUSH2 0x8DF JUMPI PUSH0 DUP1 REVERT JUMPDEST POP JUMP JUMPDEST PUSH0 DUP2 CALLDATALOAD SWAP1 POP PUSH2 0x8F0 DUP2 PUSH2 0x8CC JUMP JUMPDEST SWAP3 SWAP2 POP POP JUMP JUMPDEST PUSH0 PUSH1 0x20 DUP3 DUP5 SUB SLT ISZERO PUSH2 0x90B JUMPI PUSH2 0x90A PUSH2 0x7DD JUMP JUMPDEST JUMPDEST PUSH0 PUSH2 0x918 DUP5 DUP3 DUP6 ADD PUSH2 0x8E2 JUMP JUMPDEST SWAP2 POP POP SWAP3 SWAP2 POP POP JUMP JUMPDEST PUSH0 DUP2 ISZERO ISZERO SWAP1 POP SWAP2 SWAP1 POP JUMP JUMPDEST PUSH2 0x935 DUP2 PUSH2 0x921 JUMP JUMPDEST DUP3 MSTORE POP POP JUMP JUMPDEST PUSH0 PUSH1 0x40 DUP3 ADD SWAP1 POP PUSH2 0x94E PUSH0 DUP4 ADD DUP6 PUSH2 0x7B5 JUMP JUMPDEST PUSH2 0x95B PUSH1 0x20 DUP4 ADD DUP5 PUSH2 0x92C JUMP JUMPDEST SWAP4 SWAP3 POP POP POP JUMP JUMPDEST PUSH0 DUP3 DUP3 MSTORE PUSH1 0x20 DUP3 ADD SWAP1 POP SWAP3 SWAP2 POP POP JUMP JUMPDEST PUSH32 0x4F6E6C79206F776E65722063616E20706572666F726D20746869732061637469 PUSH0 DUP3 ADD MSTORE PUSH32 0x6F6E000000000000000000000000000000000000000000000000000000000000 PUSH1 0x20 DUP3 ADD MSTORE POP JUMP JUMPDEST PUSH0 PUSH2 0x9CC PUSH1 0x22 DUP4 PUSH2 0x962 JUMP JUMPDEST SWAP2 POP PUSH2 0x9D7 DUP3 PUSH2 0x972 JUMP JUMPDEST PUSH1 0x40 DUP3 ADD SWAP1 POP SWAP2 SWAP1 POP JUMP JUMPDEST PUSH0 PUSH1 0x20 DUP3 ADD SWAP1 POP DUP2 DUP2 SUB PUSH0 DUP4 ADD MSTORE PUSH2 0x9F9 DUP2 PUSH2 0x9C0 JUMP JUMPDEST SWAP1 POP SWAP2 SWAP1 POP JUMP JUMPDEST PUSH32 0x496E76616C696420696E70757473000000000000000000000000000000000000 PUSH0 DUP3 ADD MSTORE POP JUMP JUMPDEST PUSH0 PUSH2 0xA34 PUSH1 0xE DUP4 PUSH2 0x962 JUMP JUMPDEST SWAP2 POP PUSH2 0xA3F DUP3 PUSH2 0xA00 JUMP JUMPDEST PUSH1 0x20 DUP3 ADD SWAP1 POP SWAP2 SWAP1 POP JUMP JUMPDEST PUSH0 PUSH1 0x20 DUP3 ADD SWAP1 POP DUP2 DUP2 SUB PUSH0 DUP4 ADD MSTORE PUSH2 0xA61 DUP2 PUSH2 0xA28 JUMP JUMPDEST SWAP1 POP SWAP2 SWAP1 POP JUMP JUMPDEST PUSH32 0x4E487B7100000000000000000000000000000000000000000000000000000000 PUSH0 MSTORE PUSH1 0x11 PUSH1 0x4 MSTORE PUSH1 0x24 PUSH0 REVERT JUMPDEST PUSH0 PUSH2 0xA9F DUP3 PUSH2 0x7AC JUMP JUMPDEST SWAP2 POP PUSH2 0xAAA DUP4 PUSH2 0x7AC JUMP JUMPDEST SWAP3 POP DUP3 DUP3 MUL PUSH2 0xAB8 DUP2 PUSH2 0x7AC JUMP JUMPDEST SWAP2 POP DUP3 DUP3 DIV DUP5 EQ DUP4 ISZERO OR PUSH2 0xACF JUMPI PUSH2 0xACE PUSH2 0xA68 JUMP JUMPDEST JUMPDEST POP SWAP3 SWAP2 POP POP JUMP JUMPDEST PUSH32 0x4E487B7100000000000000000000000000000000000000000000000000000000 PUSH0 MSTORE PUSH1 0x12 PUSH1 0x4 MSTORE PUSH1 0x24 PUSH0 REVERT JUMPDEST PUSH0 PUSH2 0xB0D DUP3 PUSH2 0x7AC JUMP JUMPDEST SWAP2 POP PUSH2 0xB18 DUP4 PUSH2 0x7AC JUMP JUMPDEST SWAP3 POP DUP3 PUSH2 0xB28 JUMPI PUSH2 0xB27 PUSH2 0xAD6 JUMP JUMPDEST JUMPDEST DUP3 DUP3 DIV SWAP1 POP SWAP3 SWAP2 POP POP JUMP JUMPDEST PUSH0 PUSH2 0xB3D DUP3 PUSH2 0x7AC JUMP JUMPDEST SWAP2 POP PUSH2 0xB48 DUP4 PUSH2 0x7AC JUMP JUMPDEST SWAP3 POP DUP3 DUP3 SUB SWAP1 POP DUP2 DUP2 GT ISZERO PUSH2 0xB60 JUMPI PUSH2 0xB5F PUSH2 0xA68 JUMP JUMPDEST JUMPDEST SWAP3 SWAP2 POP POP JUMP JUMPDEST PUSH32 0x4E6F20746F6B656E7320746F20636C61696D0000000000000000000000000000 PUSH0 DUP3 ADD MSTORE POP JUMP JUMPDEST PUSH0 PUSH2 0xB9A PUSH1 0x12 DUP4 PUSH2 0x962 JUMP JUMPDEST SWAP2 POP PUSH2 0xBA5 DUP3 PUSH2 0xB66 JUMP JUMPDEST PUSH1 0x20 DUP3 ADD SWAP1 POP SWAP2 SWAP1 POP JUMP JUMPDEST PUSH0 PUSH1 0x20 DUP3 ADD SWAP1 POP DUP2 DUP2 SUB PUSH0 DUP4 ADD MSTORE PUSH2 0xBC7 DUP2 PUSH2 0xB8E JUMP JUMPDEST SWAP1 POP SWAP2 SWAP1 POP JUMP JUMPDEST PUSH32 0x416C726561647920636C61696D65640000000000000000000000000000000000 PUSH0 DUP3 ADD MSTORE POP JUMP JUMPDEST PUSH0 PUSH2 0xC02 PUSH1 0xF DUP4 PUSH2 0x962 JUMP JUMPDEST SWAP2 POP PUSH2 0xC0D DUP3 PUSH2 0xBCE JUMP JUMPDEST PUSH1 0x20 DUP3 ADD SWAP1 POP SWAP2 SWAP1 POP JUMP JUMPDEST PUSH0 PUSH1 0x20 DUP3 ADD SWAP1 POP DUP2 DUP2 SUB PUSH0 DUP4 ADD MSTORE PUSH2 0xC2F DUP2 PUSH2 0xBF6 JUMP JUMPDEST SWAP1 POP SWAP2 SWAP1 POP JUMP JUMPDEST PUSH0 DUP2 MLOAD SWAP1 POP PUSH2 0xC44 DUP2 PUSH2 0x7E1 JUMP JUMPDEST SWAP3 SWAP2 POP POP JUMP JUMPDEST PUSH0 PUSH1 0x20 DUP3 DUP5 SUB SLT ISZERO PUSH2 0xC5F JUMPI PUSH2 0xC5E PUSH2 0x7DD JUMP JUMPDEST JUMPDEST PUSH0 PUSH2 0xC6C DUP5 DUP3 DUP6 ADD PUSH2 0xC36 JUMP JUMPDEST SWAP2 POP POP SWAP3 SWAP2 POP POP JUMP JUMPDEST PUSH32 0x4275696C64657220726577617264206973207A65726F00000000000000000000 PUSH0 DUP3 ADD MSTORE POP JUMP JUMPDEST PUSH0 PUSH2 0xCA9 PUSH1 0x16 DUP4 PUSH2 0x962 JUMP JUMPDEST SWAP2 POP PUSH2 0xCB4 DUP3 PUSH2 0xC75 JUMP JUMPDEST PUSH1 0x20 DUP3 ADD SWAP1 POP SWAP2 SWAP1 POP JUMP JUMPDEST PUSH0 PUSH1 0x20 DUP3 ADD SWAP1 POP DUP2 DUP2 SUB PUSH0 DUP4 ADD MSTORE PUSH2 0xCD6 DUP2 PUSH2 0xC9D JUMP JUMPDEST SWAP1 POP SWAP2 SWAP1 POP JUMP JUMPDEST PUSH0 PUSH1 0x40 DUP3 ADD SWAP1 POP PUSH2 0xCF0 PUSH0 DUP4 ADD DUP6 PUSH2 0x8A4 JUMP JUMPDEST PUSH2 0xCFD PUSH1 0x20 DUP4 ADD DUP5 PUSH2 0x7B5 JUMP JUMPDEST SWAP4 SWAP3 POP POP POP JUMP JUMPDEST PUSH2 0xD0D DUP2 PUSH2 0x921 JUMP JUMPDEST DUP2 EQ PUSH2 0xD17 JUMPI PUSH0 DUP1 REVERT JUMPDEST POP JUMP JUMPDEST PUSH0 DUP2 MLOAD SWAP1 POP PUSH2 0xD28 DUP2 PUSH2 0xD04 JUMP JUMPDEST SWAP3 SWAP2 POP POP JUMP JUMPDEST PUSH0 PUSH1 0x20 DUP3 DUP5 SUB SLT ISZERO PUSH2 0xD43 JUMPI PUSH2 0xD42 PUSH2 0x7DD JUMP JUMPDEST JUMPDEST PUSH0 PUSH2 0xD50 DUP5 DUP3 DUP6 ADD PUSH2 0xD1A JUMP JUMPDEST SWAP2 POP POP SWAP3 SWAP2 POP POP JUMP INVALID LOG2 PUSH5 0x6970667358 0x22 SLT KECCAK256 0x25 0xB5 0xE9 MLOAD SWAP2 0x21 SWAP3 0x2C NUMBER 0xD1 CALLVALUE DUP14 XOR 0x2B 0x4E RETURNDATACOPY PUSH9 0x6D61E588F138851294 SWAP8 LT 0xCF 0xAA SIGNEXTEND PUSH0 PUSH5 0x736F6C6343 STOP ADDMOD EQ STOP CALLER "
		},
		"gasEstimates": {
			"creation": {
				"codeDepositCost": "694200",
				"executionCost": "infinite",
				"totalCost": "infinite"
			},
			"external": {
				"calculateBuilderReward(uint256,uint256)": "infinite",
				"calculateEcosystemFund()": "infinite",
				"claimBuilderReward()": "infinite",
				"getContractBalance()": "379",
				"initialCirculation()": "2491",
				"limitBuilderReward()": "2426",
				"owner()": "2597",
				"setTokensAlreadyReceived(uint256)": "24707",
				"tokensAlreadyReceived()": "2469",
				"users(address)": "5089"
			}
		},
		"methodIdentifiers": {
			"calculateBuilderReward(uint256,uint256)": "7481af90",
			"calculateEcosystemFund()": "f25d7ef2",
			"claimBuilderReward()": "9c8140c6",
			"getContractBalance()": "6f9fb98a",
			"initialCirculation()": "c5a49d51",
			"limitBuilderReward()": "0faf1d9e",
			"owner()": "8da5cb5b",
			"setTokensAlreadyReceived(uint256)": "6512e817",
			"tokensAlreadyReceived()": "c147e532",
			"users(address)": "a87430ba"
		}
	},
	"abi": [
		{
			"inputs": [
				{
					"internalType": "address",
					"name": "_tokenAddress",
					"type": "address"
				},
				{
					"internalType": "uint256",
					"name": "_maxRewardTokens",
					"type": "uint256"
				}
			],
			"stateMutability": "nonpayable",
			"type": "constructor"
		},
		{
			"anonymous": false,
			"inputs": [
				{
					"indexed": true,
					"internalType": "address",
					"name": "user",
					"type": "address"
				},
				{
					"indexed": false,
					"internalType": "uint256",
					"name": "reward",
					"type": "uint256"
				}
			],
			"name": "BuilderRewardClaimed",
			"type": "event"
		},
		{
			"inputs": [
				{
					"internalType": "uint256",
					"name": "tokensInCirculation",
					"type": "uint256"
				},
				{
					"internalType": "uint256",
					"name": "numberOfRegisteredUsers",
					"type": "uint256"
				}
			],
			"name": "calculateBuilderReward",
			"outputs": [
				{
					"internalType": "uint256",
					"name": "",
					"type": "uint256"
				}
			],
			"stateMutability": "view",
			"type": "function"
		},
		{
			"inputs": [],
			"name": "calculateEcosystemFund",
			"outputs": [
				{
					"internalType": "uint256",
					"name": "",
					"type": "uint256"
				}
			],
			"stateMutability": "view",
			"type": "function"
		},
		{
			"inputs": [],
			"name": "claimBuilderReward",
			"outputs": [],
			"stateMutability": "nonpayable",
			"type": "function"
		},
		{
			"inputs": [],
			"name": "getContractBalance",
			"outputs": [
				{
					"internalType": "uint256",
					"name": "",
					"type": "uint256"
				}
			],
			"stateMutability": "view",
			"type": "function"
		},
		{
			"inputs": [],
			"name": "initialCirculation",
			"outputs": [
				{
					"internalType": "uint256",
					"name": "",
					"type": "uint256"
				}
			],
			"stateMutability": "view",
			"type": "function"
		},
		{
			"inputs": [],
			"name": "limitBuilderReward",
			"outputs": [
				{
					"internalType": "uint256",
					"name": "",
					"type": "uint256"
				}
			],
			"stateMutability": "view",
			"type": "function"
		},
		{
			"inputs": [],
			"name": "owner",
			"outputs": [
				{
					"internalType": "address",
					"name": "",
					"type": "address"
				}
			],
			"stateMutability": "view",
			"type": "function"
		},
		{
			"inputs": [
				{
					"internalType": "uint256",
					"name": "tokens",
					"type": "uint256"
				}
			],
			"name": "setTokensAlreadyReceived",
			"outputs": [],
			"stateMutability": "nonpayable",
			"type": "function"
		},
		{
			"inputs": [],
			"name": "tokensAlreadyReceived",
			"outputs": [
				{
					"internalType": "uint256",
					"name": "",
					"type": "uint256"
				}
			],
			"stateMutability": "view",
			"type": "function"
		},
		{
			"inputs": [
				{
					"internalType": "address",
					"name": "",
					"type": "address"
				}
			],
			"name": "users",
			"outputs": [
				{
					"internalType": "uint256",
					"name": "tokensReceived",
					"type": "uint256"
				},
				{
					"internalType": "bool",
					"name": "hasClaimed",
					"type": "bool"
				}
			],
			"stateMutability": "view",
			"type": "function"
		}
	]
}