{
	"data": {
		"bytecode": {
			"linkReferences": {},
			"object": "608060405260018060146101000a81548160ff021916908360ff1602179055506005600160156101000a81548160ff021916908360ff16021790555060018060166101000a81548160ff021916908360ff16021790555060018060176101000a81548160ff021916908360ff1602179055503480156200007d575f80fd5b506040516200119b3803806200119b8339818101604052810190620000a391906200018e565b805f806101000a81548173ffffffffffffffffffffffffffffffffffffffff021916908373ffffffffffffffffffffffffffffffffffffffff1602179055503360015f6101000a81548173ffffffffffffffffffffffffffffffffffffffff021916908373ffffffffffffffffffffffffffffffffffffffff16021790555050620001be565b5f80fd5b5f73ffffffffffffffffffffffffffffffffffffffff82169050919050565b5f62000158826200012d565b9050919050565b6200016a816200014c565b811462000175575f80fd5b50565b5f8151905062000188816200015f565b92915050565b5f60208284031215620001a657620001a562000129565b5b5f620001b58482850162000178565b91505092915050565b610fcf80620001cc5f395ff3fe608060405234801561000f575f80fd5b506004361061011f575f3560e01c80636d1b229d116100ab578063b78dec2f1161006f578063b78dec2f14610303578063c1eb49f014610321578063c9f959381461033f578063d20dff791461035d578063faf3a2f41461037b5761011f565b80636d1b229d1461025f57806384173cf71461027b5780638da5cb5b14610299578063a93f3779146102b7578063b23d694d146102e75761011f565b80633cadf8ef116100f25780633cadf8ef146101955780634d74815b146101c557806366f6103e146101f55780636b0f01c8146102255780636c061c24146102415761011f565b806309f276c5146101235780631502c9621461013f5780632216b6551461015b578063309dd82d14610177575b5f80fd5b61013d60048036038101906101389190610bf0565b610397565b005b61015960048036038101906101549190610c4e565b610444565b005b61017560048036038101906101709190610c4e565b6104dd565b005b61017f610576565b60405161018c9190610c88565b60405180910390f35b6101af60048036038101906101aa9190610c4e565b610589565b6040516101bc9190610cb0565b60405180910390f35b6101df60048036038101906101da9190610c4e565b6105e1565b6040516101ec9190610cb0565b60405180910390f35b61020f600480360381019061020a9190610c4e565b610638565b60405161021c9190610cb0565b60405180910390f35b61023f600480360381019061023a9190610bf0565b61066a565b005b610249610717565b6040516102569190610c88565b60405180910390f35b61027960048036038101906102749190610c4e565b61072a565b005b610283610993565b6040516102909190610cb0565b60405180910390f35b6102a1610999565b6040516102ae9190610d08565b60405180910390f35b6102d160048036038101906102cc9190610c4e565b6109be565b6040516102de9190610cb0565b60405180910390f35b61030160048036038101906102fc9190610bf0565b610a23565b005b61030b610ad0565b6040516103189190610cb0565b60405180910390f35b610329610ad6565b6040516103369190610cb0565b60405180910390f35b610347610ae3565b6040516103549190610c88565b60405180910390f35b610365610af6565b6040516103729190610c88565b60405180910390f35b61039560048036038101906103909190610bf0565b610b09565b005b60015f9054906101000a900473ffffffffffffffffffffffffffffffffffffffff1673ffffffffffffffffffffffffffffffffffffffff163373ffffffffffffffffffffffffffffffffffffffff1614610426576040517f08c379a000000000000000000000000000000000000000000000000000000000815260040161041d90610da1565b60405180910390fd5b80600160156101000a81548160ff021916908360ff16021790555050565b60015f9054906101000a900473ffffffffffffffffffffffffffffffffffffffff1673ffffffffffffffffffffffffffffffffffffffff163373ffffffffffffffffffffffffffffffffffffffff16146104d3576040517f08c379a00000000000000000000000000000000000000000000000000000000081526004016104ca90610da1565b60405180910390fd5b8060038190555050565b60015f9054906101000a900473ffffffffffffffffffffffffffffffffffffffff1673ffffffffffffffffffffffffffffffffffffffff163373ffffffffffffffffffffffffffffffffffffffff161461056c576040517f08c379a000000000000000000000000000000000000000000000000000000000815260040161056390610da1565b60405180910390fd5b8060028190555050565b600160149054906101000a900460ff1681565b5f806103e8600160149054906101000a900460ff1660ff16846105ac9190610dec565b6105b69190610e5a565b9050683635c9adc5dea0000081116105ce57806105d9565b683635c9adc5dea000005b915050919050565b5f806064600160179054906101000a900460ff1660ff16846106039190610dec565b61060d9190610e5a565b9050683635c9adc5dea0000081116106255780610630565b683635c9adc5dea000005b915050919050565b5f6064600160169054906101000a900460ff1660ff16836106599190610dec565b6106639190610e5a565b9050919050565b60015f9054906101000a900473ffffffffffffffffffffffffffffffffffffffff1673ffffffffffffffffffffffffffffffffffffffff163373ffffffffffffffffffffffffffffffffffffffff16146106f9576040517f08c379a00000000000000000000000000000000000000000000000000000000081526004016106f090610da1565b60405180910390fd5b80600160176101000a81548160ff021916908360ff16021790555050565b600160159054906101000a900460ff1681565b60015f9054906101000a900473ffffffffffffffffffffffffffffffffffffffff1673ffffffffffffffffffffffffffffffffffffffff163373ffffffffffffffffffffffffffffffffffffffff16146107b9576040517f08c379a00000000000000000000000000000000000000000000000000000000081526004016107b090610da1565b60405180910390fd5b5f81116107fb576040517f08c379a00000000000000000000000000000000000000000000000000000000081526004016107f290610ed4565b60405180910390fd5b805f8054906101000a900473ffffffffffffffffffffffffffffffffffffffff1673ffffffffffffffffffffffffffffffffffffffff166370a08231306040518263ffffffff1660e01b81526004016108549190610d08565b602060405180830381865afa15801561086f573d5f803e3d5ffd5b505050506040513d601f19601f820116820180604052508101906108939190610f06565b10156108d4576040517f08c379a00000000000000000000000000000000000000000000000000000000081526004016108cb90610f7b565b60405180910390fd5b5f8054906101000a900473ffffffffffffffffffffffffffffffffffffffff1673ffffffffffffffffffffffffffffffffffffffff166342966c68826040518263ffffffff1660e01b815260040161092c9190610cb0565b5f604051808303815f87803b158015610943575f80fd5b505af1158015610955573d5f803e3d5ffd5b505050507f6ef4855b666dcc7884561072e4358b28dfe01feb1b7f4dcebc00e62d50394ac7816040516109889190610cb0565b60405180910390a150565b60035481565b60015f9054906101000a900473ffffffffffffffffffffffffffffffffffffffff1681565b5f8061271060035484600160159054906101000a900460ff1660ff166109e49190610dec565b6109ee9190610dec565b6109f89190610e5a565b9050683635c9adc5dea000008111610a105780610a1b565b683635c9adc5dea000005b915050919050565b60015f9054906101000a900473ffffffffffffffffffffffffffffffffffffffff1673ffffffffffffffffffffffffffffffffffffffff163373ffffffffffffffffffffffffffffffffffffffff1614610ab2576040517f08c379a0000000000000000000000000000000000000000000000000000000008152600401610aa990610da1565b60405180910390fd5b80600160166101000a81548160ff021916908360ff16021790555050565b60025481565b683635c9adc5dea0000081565b600160179054906101000a900460ff1681565b600160169054906101000a900460ff1681565b60015f9054906101000a900473ffffffffffffffffffffffffffffffffffffffff1673ffffffffffffffffffffffffffffffffffffffff163373ffffffffffffffffffffffffffffffffffffffff1614610b98576040517f08c379a0000000000000000000000000000000000000000000000000000000008152600401610b8f90610da1565b60405180910390fd5b80600160146101000a81548160ff021916908360ff16021790555050565b5f80fd5b5f60ff82169050919050565b610bcf81610bba565b8114610bd9575f80fd5b50565b5f81359050610bea81610bc6565b92915050565b5f60208284031215610c0557610c04610bb6565b5b5f610c1284828501610bdc565b91505092915050565b5f819050919050565b610c2d81610c1b565b8114610c37575f80fd5b50565b5f81359050610c4881610c24565b92915050565b5f60208284031215610c6357610c62610bb6565b5b5f610c7084828501610c3a565b91505092915050565b610c8281610bba565b82525050565b5f602082019050610c9b5f830184610c79565b92915050565b610caa81610c1b565b82525050565b5f602082019050610cc35f830184610ca1565b92915050565b5f73ffffffffffffffffffffffffffffffffffffffff82169050919050565b5f610cf282610cc9565b9050919050565b610d0281610ce8565b82525050565b5f602082019050610d1b5f830184610cf9565b92915050565b5f82825260208201905092915050565b7f4f6e6c79206f776e65722063616e20706572666f726d207468697320616374695f8201527f6f6e000000000000000000000000000000000000000000000000000000000000602082015250565b5f610d8b602283610d21565b9150610d9682610d31565b604082019050919050565b5f6020820190508181035f830152610db881610d7f565b9050919050565b7f4e487b71000000000000000000000000000000000000000000000000000000005f52601160045260245ffd5b5f610df682610c1b565b9150610e0183610c1b565b9250828202610e0f81610c1b565b91508282048414831517610e2657610e25610dbf565b5b5092915050565b7f4e487b71000000000000000000000000000000000000000000000000000000005f52601260045260245ffd5b5f610e6482610c1b565b9150610e6f83610c1b565b925082610e7f57610e7e610e2d565b5b828204905092915050565b7f416d6f756e74206d7573742062652067726561746572207468616e207a65726f5f82015250565b5f610ebe602083610d21565b9150610ec982610e8a565b602082019050919050565b5f6020820190508181035f830152610eeb81610eb2565b9050919050565b5f81519050610f0081610c24565b92915050565b5f60208284031215610f1b57610f1a610bb6565b5b5f610f2884828501610ef2565b91505092915050565b7f496e73756666696369656e742062616c616e636520696e20636f6e74726163745f82015250565b5f610f65602083610d21565b9150610f7082610f31565b602082019050919050565b5f6020820190508181035f830152610f9281610f59565b905091905056fea2646970667358221220fffc5c3a07d8e8a77a92266dcd3a5834e88a38ecd30478434693223eda66571564736f6c63430008140033",
			"opcodes": "PUSH1 0x80 PUSH1 0x40 MSTORE PUSH1 0x1 DUP1 PUSH1 0x14 PUSH2 0x100 EXP DUP2 SLOAD DUP2 PUSH1 0xFF MUL NOT AND SWAP1 DUP4 PUSH1 0xFF AND MUL OR SWAP1 SSTORE POP PUSH1 0x5 PUSH1 0x1 PUSH1 0x15 PUSH2 0x100 EXP DUP2 SLOAD DUP2 PUSH1 0xFF MUL NOT AND SWAP1 DUP4 PUSH1 0xFF AND MUL OR SWAP1 SSTORE POP PUSH1 0x1 DUP1 PUSH1 0x16 PUSH2 0x100 EXP DUP2 SLOAD DUP2 PUSH1 0xFF MUL NOT AND SWAP1 DUP4 PUSH1 0xFF AND MUL OR SWAP1 SSTORE POP PUSH1 0x1 DUP1 PUSH1 0x17 PUSH2 0x100 EXP DUP2 SLOAD DUP2 PUSH1 0xFF MUL NOT AND SWAP1 DUP4 PUSH1 0xFF AND MUL OR SWAP1 SSTORE POP CALLVALUE DUP1 ISZERO PUSH3 0x7D JUMPI PUSH0 DUP1 REVERT JUMPDEST POP PUSH1 0x40 MLOAD PUSH3 0x119B CODESIZE SUB DUP1 PUSH3 0x119B DUP4 CODECOPY DUP2 DUP2 ADD PUSH1 0x40 MSTORE DUP2 ADD SWAP1 PUSH3 0xA3 SWAP2 SWAP1 PUSH3 0x18E JUMP JUMPDEST DUP1 PUSH0 DUP1 PUSH2 0x100 EXP DUP2 SLOAD DUP2 PUSH20 0xFFFFFFFFFFFFFFFFFFFFFFFFFFFFFFFFFFFFFFFF MUL NOT AND SWAP1 DUP4 PUSH20 0xFFFFFFFFFFFFFFFFFFFFFFFFFFFFFFFFFFFFFFFF AND MUL OR SWAP1 SSTORE POP CALLER PUSH1 0x1 PUSH0 PUSH2 0x100 EXP DUP2 SLOAD DUP2 PUSH20 0xFFFFFFFFFFFFFFFFFFFFFFFFFFFFFFFFFFFFFFFF MUL NOT AND SWAP1 DUP4 PUSH20 0xFFFFFFFFFFFFFFFFFFFFFFFFFFFFFFFFFFFFFFFF AND MUL OR SWAP1 SSTORE POP POP PUSH3 0x1BE JUMP JUMPDEST PUSH0 DUP1 REVERT JUMPDEST PUSH0 PUSH20 0xFFFFFFFFFFFFFFFFFFFFFFFFFFFFFFFFFFFFFFFF DUP3 AND SWAP1 POP SWAP2 SWAP1 POP JUMP JUMPDEST PUSH0 PUSH3 0x158 DUP3 PUSH3 0x12D JUMP JUMPDEST SWAP1 POP SWAP2 SWAP1 POP JUMP JUMPDEST PUSH3 0x16A DUP2 PUSH3 0x14C JUMP JUMPDEST DUP2 EQ PUSH3 0x175 JUMPI PUSH0 DUP1 REVERT JUMPDEST POP JUMP JUMPDEST PUSH0 DUP2 MLOAD SWAP1 POP PUSH3 0x188 DUP2 PUSH3 0x15F JUMP JUMPDEST SWAP3 SWAP2 POP POP JUMP JUMPDEST PUSH0 PUSH1 0x20 DUP3 DUP5 SUB SLT ISZERO PUSH3 0x1A6 JUMPI PUSH3 0x1A5 PUSH3 0x129 JUMP JUMPDEST JUMPDEST PUSH0 PUSH3 0x1B5 DUP5 DUP3 DUP6 ADD PUSH3 0x178 JUMP JUMPDEST SWAP2 POP POP SWAP3 SWAP2 POP POP JUMP JUMPDEST PUSH2 0xFCF DUP1 PUSH3 0x1CC PUSH0 CODECOPY PUSH0 RETURN INVALID PUSH1 0x80 PUSH1 0x40 MSTORE CALLVALUE DUP1 ISZERO PUSH2 0xF JUMPI PUSH0 DUP1 REVERT JUMPDEST POP PUSH1 0x4 CALLDATASIZE LT PUSH2 0x11F JUMPI PUSH0 CALLDATALOAD PUSH1 0xE0 SHR DUP1 PUSH4 0x6D1B229D GT PUSH2 0xAB JUMPI DUP1 PUSH4 0xB78DEC2F GT PUSH2 0x6F JUMPI DUP1 PUSH4 0xB78DEC2F EQ PUSH2 0x303 JUMPI DUP1 PUSH4 0xC1EB49F0 EQ PUSH2 0x321 JUMPI DUP1 PUSH4 0xC9F95938 EQ PUSH2 0x33F JUMPI DUP1 PUSH4 0xD20DFF79 EQ PUSH2 0x35D JUMPI DUP1 PUSH4 0xFAF3A2F4 EQ PUSH2 0x37B JUMPI PUSH2 0x11F JUMP JUMPDEST DUP1 PUSH4 0x6D1B229D EQ PUSH2 0x25F JUMPI DUP1 PUSH4 0x84173CF7 EQ PUSH2 0x27B JUMPI DUP1 PUSH4 0x8DA5CB5B EQ PUSH2 0x299 JUMPI DUP1 PUSH4 0xA93F3779 EQ PUSH2 0x2B7 JUMPI DUP1 PUSH4 0xB23D694D EQ PUSH2 0x2E7 JUMPI PUSH2 0x11F JUMP JUMPDEST DUP1 PUSH4 0x3CADF8EF GT PUSH2 0xF2 JUMPI DUP1 PUSH4 0x3CADF8EF EQ PUSH2 0x195 JUMPI DUP1 PUSH4 0x4D74815B EQ PUSH2 0x1C5 JUMPI DUP1 PUSH4 0x66F6103E EQ PUSH2 0x1F5 JUMPI DUP1 PUSH4 0x6B0F01C8 EQ PUSH2 0x225 JUMPI DUP1 PUSH4 0x6C061C24 EQ PUSH2 0x241 JUMPI PUSH2 0x11F JUMP JUMPDEST DUP1 PUSH4 0x9F276C5 EQ PUSH2 0x123 JUMPI DUP1 PUSH4 0x1502C962 EQ PUSH2 0x13F JUMPI DUP1 PUSH4 0x2216B655 EQ PUSH2 0x15B JUMPI DUP1 PUSH4 0x309DD82D EQ PUSH2 0x177 JUMPI JUMPDEST PUSH0 DUP1 REVERT JUMPDEST PUSH2 0x13D PUSH1 0x4 DUP1 CALLDATASIZE SUB DUP2 ADD SWAP1 PUSH2 0x138 SWAP2 SWAP1 PUSH2 0xBF0 JUMP JUMPDEST PUSH2 0x397 JUMP JUMPDEST STOP JUMPDEST PUSH2 0x159 PUSH1 0x4 DUP1 CALLDATASIZE SUB DUP2 ADD SWAP1 PUSH2 0x154 SWAP2 SWAP1 PUSH2 0xC4E JUMP JUMPDEST PUSH2 0x444 JUMP JUMPDEST STOP JUMPDEST PUSH2 0x175 PUSH1 0x4 DUP1 CALLDATASIZE SUB DUP2 ADD SWAP1 PUSH2 0x170 SWAP2 SWAP1 PUSH2 0xC4E JUMP JUMPDEST PUSH2 0x4DD JUMP JUMPDEST STOP JUMPDEST PUSH2 0x17F PUSH2 0x576 JUMP JUMPDEST PUSH1 0x40 MLOAD PUSH2 0x18C SWAP2 SWAP1 PUSH2 0xC88 JUMP JUMPDEST PUSH1 0x40 MLOAD DUP1 SWAP2 SUB SWAP1 RETURN JUMPDEST PUSH2 0x1AF PUSH1 0x4 DUP1 CALLDATASIZE SUB DUP2 ADD SWAP1 PUSH2 0x1AA SWAP2 SWAP1 PUSH2 0xC4E JUMP JUMPDEST PUSH2 0x589 JUMP JUMPDEST PUSH1 0x40 MLOAD PUSH2 0x1BC SWAP2 SWAP1 PUSH2 0xCB0 JUMP JUMPDEST PUSH1 0x40 MLOAD DUP1 SWAP2 SUB SWAP1 RETURN JUMPDEST PUSH2 0x1DF PUSH1 0x4 DUP1 CALLDATASIZE SUB DUP2 ADD SWAP1 PUSH2 0x1DA SWAP2 SWAP1 PUSH2 0xC4E JUMP JUMPDEST PUSH2 0x5E1 JUMP JUMPDEST PUSH1 0x40 MLOAD PUSH2 0x1EC SWAP2 SWAP1 PUSH2 0xCB0 JUMP JUMPDEST PUSH1 0x40 MLOAD DUP1 SWAP2 SUB SWAP1 RETURN JUMPDEST PUSH2 0x20F PUSH1 0x4 DUP1 CALLDATASIZE SUB DUP2 ADD SWAP1 PUSH2 0x20A SWAP2 SWAP1 PUSH2 0xC4E JUMP JUMPDEST PUSH2 0x638 JUMP JUMPDEST PUSH1 0x40 MLOAD PUSH2 0x21C SWAP2 SWAP1 PUSH2 0xCB0 JUMP JUMPDEST PUSH1 0x40 MLOAD DUP1 SWAP2 SUB SWAP1 RETURN JUMPDEST PUSH2 0x23F PUSH1 0x4 DUP1 CALLDATASIZE SUB DUP2 ADD SWAP1 PUSH2 0x23A SWAP2 SWAP1 PUSH2 0xBF0 JUMP JUMPDEST PUSH2 0x66A JUMP JUMPDEST STOP JUMPDEST PUSH2 0x249 PUSH2 0x717 JUMP JUMPDEST PUSH1 0x40 MLOAD PUSH2 0x256 SWAP2 SWAP1 PUSH2 0xC88 JUMP JUMPDEST PUSH1 0x40 MLOAD DUP1 SWAP2 SUB SWAP1 RETURN JUMPDEST PUSH2 0x279 PUSH1 0x4 DUP1 CALLDATASIZE SUB DUP2 ADD SWAP1 PUSH2 0x274 SWAP2 SWAP1 PUSH2 0xC4E JUMP JUMPDEST PUSH2 0x72A JUMP JUMPDEST STOP JUMPDEST PUSH2 0x283 PUSH2 0x993 JUMP JUMPDEST PUSH1 0x40 MLOAD PUSH2 0x290 SWAP2 SWAP1 PUSH2 0xCB0 JUMP JUMPDEST PUSH1 0x40 MLOAD DUP1 SWAP2 SUB SWAP1 RETURN JUMPDEST PUSH2 0x2A1 PUSH2 0x999 JUMP JUMPDEST PUSH1 0x40 MLOAD PUSH2 0x2AE SWAP2 SWAP1 PUSH2 0xD08 JUMP JUMPDEST PUSH1 0x40 MLOAD DUP1 SWAP2 SUB SWAP1 RETURN JUMPDEST PUSH2 0x2D1 PUSH1 0x4 DUP1 CALLDATASIZE SUB DUP2 ADD SWAP1 PUSH2 0x2CC SWAP2 SWAP1 PUSH2 0xC4E JUMP JUMPDEST PUSH2 0x9BE JUMP JUMPDEST PUSH1 0x40 MLOAD PUSH2 0x2DE SWAP2 SWAP1 PUSH2 0xCB0 JUMP JUMPDEST PUSH1 0x40 MLOAD DUP1 SWAP2 SUB SWAP1 RETURN JUMPDEST PUSH2 0x301 PUSH1 0x4 DUP1 CALLDATASIZE SUB DUP2 ADD SWAP1 PUSH2 0x2FC SWAP2 SWAP1 PUSH2 0xBF0 JUMP JUMPDEST PUSH2 0xA23 JUMP JUMPDEST STOP JUMPDEST PUSH2 0x30B PUSH2 0xAD0 JUMP JUMPDEST PUSH1 0x40 MLOAD PUSH2 0x318 SWAP2 SWAP1 PUSH2 0xCB0 JUMP JUMPDEST PUSH1 0x40 MLOAD DUP1 SWAP2 SUB SWAP1 RETURN JUMPDEST PUSH2 0x329 PUSH2 0xAD6 JUMP JUMPDEST PUSH1 0x40 MLOAD PUSH2 0x336 SWAP2 SWAP1 PUSH2 0xCB0 JUMP JUMPDEST PUSH1 0x40 MLOAD DUP1 SWAP2 SUB SWAP1 RETURN JUMPDEST PUSH2 0x347 PUSH2 0xAE3 JUMP JUMPDEST PUSH1 0x40 MLOAD PUSH2 0x354 SWAP2 SWAP1 PUSH2 0xC88 JUMP JUMPDEST PUSH1 0x40 MLOAD DUP1 SWAP2 SUB SWAP1 RETURN JUMPDEST PUSH2 0x365 PUSH2 0xAF6 JUMP JUMPDEST PUSH1 0x40 MLOAD PUSH2 0x372 SWAP2 SWAP1 PUSH2 0xC88 JUMP JUMPDEST PUSH1 0x40 MLOAD DUP1 SWAP2 SUB SWAP1 RETURN JUMPDEST PUSH2 0x395 PUSH1 0x4 DUP1 CALLDATASIZE SUB DUP2 ADD SWAP1 PUSH2 0x390 SWAP2 SWAP1 PUSH2 0xBF0 JUMP JUMPDEST PUSH2 0xB09 JUMP JUMPDEST STOP JUMPDEST PUSH1 0x1 PUSH0 SWAP1 SLOAD SWAP1 PUSH2 0x100 EXP SWAP1 DIV PUSH20 0xFFFFFFFFFFFFFFFFFFFFFFFFFFFFFFFFFFFFFFFF AND PUSH20 0xFFFFFFFFFFFFFFFFFFFFFFFFFFFFFFFFFFFFFFFF AND CALLER PUSH20 0xFFFFFFFFFFFFFFFFFFFFFFFFFFFFFFFFFFFFFFFF AND EQ PUSH2 0x426 JUMPI PUSH1 0x40 MLOAD PUSH32 0x8C379A000000000000000000000000000000000000000000000000000000000 DUP2 MSTORE PUSH1 0x4 ADD PUSH2 0x41D SWAP1 PUSH2 0xDA1 JUMP JUMPDEST PUSH1 0x40 MLOAD DUP1 SWAP2 SUB SWAP1 REVERT JUMPDEST DUP1 PUSH1 0x1 PUSH1 0x15 PUSH2 0x100 EXP DUP2 SLOAD DUP2 PUSH1 0xFF MUL NOT AND SWAP1 DUP4 PUSH1 0xFF AND MUL OR SWAP1 SSTORE POP POP JUMP JUMPDEST PUSH1 0x1 PUSH0 SWAP1 SLOAD SWAP1 PUSH2 0x100 EXP SWAP1 DIV PUSH20 0xFFFFFFFFFFFFFFFFFFFFFFFFFFFFFFFFFFFFFFFF AND PUSH20 0xFFFFFFFFFFFFFFFFFFFFFFFFFFFFFFFFFFFFFFFF AND CALLER PUSH20 0xFFFFFFFFFFFFFFFFFFFFFFFFFFFFFFFFFFFFFFFF AND EQ PUSH2 0x4D3 JUMPI PUSH1 0x40 MLOAD PUSH32 0x8C379A000000000000000000000000000000000000000000000000000000000 DUP2 MSTORE PUSH1 0x4 ADD PUSH2 0x4CA SWAP1 PUSH2 0xDA1 JUMP JUMPDEST PUSH1 0x40 MLOAD DUP1 SWAP2 SUB SWAP1 REVERT JUMPDEST DUP1 PUSH1 0x3 DUP2 SWAP1 SSTORE POP POP JUMP JUMPDEST PUSH1 0x1 PUSH0 SWAP1 SLOAD SWAP1 PUSH2 0x100 EXP SWAP1 DIV PUSH20 0xFFFFFFFFFFFFFFFFFFFFFFFFFFFFFFFFFFFFFFFF AND PUSH20 0xFFFFFFFFFFFFFFFFFFFFFFFFFFFFFFFFFFFFFFFF AND CALLER PUSH20 0xFFFFFFFFFFFFFFFFFFFFFFFFFFFFFFFFFFFFFFFF AND EQ PUSH2 0x56C JUMPI PUSH1 0x40 MLOAD PUSH32 0x8C379A000000000000000000000000000000000000000000000000000000000 DUP2 MSTORE PUSH1 0x4 ADD PUSH2 0x563 SWAP1 PUSH2 0xDA1 JUMP JUMPDEST PUSH1 0x40 MLOAD DUP1 SWAP2 SUB SWAP1 REVERT JUMPDEST DUP1 PUSH1 0x2 DUP2 SWAP1 SSTORE POP POP JUMP JUMPDEST PUSH1 0x1 PUSH1 0x14 SWAP1 SLOAD SWAP1 PUSH2 0x100 EXP SWAP1 DIV PUSH1 0xFF AND DUP2 JUMP JUMPDEST PUSH0 DUP1 PUSH2 0x3E8 PUSH1 0x1 PUSH1 0x14 SWAP1 SLOAD SWAP1 PUSH2 0x100 EXP SWAP1 DIV PUSH1 0xFF AND PUSH1 0xFF AND DUP5 PUSH2 0x5AC SWAP2 SWAP1 PUSH2 0xDEC JUMP JUMPDEST PUSH2 0x5B6 SWAP2 SWAP1 PUSH2 0xE5A JUMP JUMPDEST SWAP1 POP PUSH9 0x3635C9ADC5DEA00000 DUP2 GT PUSH2 0x5CE JUMPI DUP1 PUSH2 0x5D9 JUMP JUMPDEST PUSH9 0x3635C9ADC5DEA00000 JUMPDEST SWAP2 POP POP SWAP2 SWAP1 POP JUMP JUMPDEST PUSH0 DUP1 PUSH1 0x64 PUSH1 0x1 PUSH1 0x17 SWAP1 SLOAD SWAP1 PUSH2 0x100 EXP SWAP1 DIV PUSH1 0xFF AND PUSH1 0xFF AND DUP5 PUSH2 0x603 SWAP2 SWAP1 PUSH2 0xDEC JUMP JUMPDEST PUSH2 0x60D SWAP2 SWAP1 PUSH2 0xE5A JUMP JUMPDEST SWAP1 POP PUSH9 0x3635C9ADC5DEA00000 DUP2 GT PUSH2 0x625 JUMPI DUP1 PUSH2 0x630 JUMP JUMPDEST PUSH9 0x3635C9ADC5DEA00000 JUMPDEST SWAP2 POP POP SWAP2 SWAP1 POP JUMP JUMPDEST PUSH0 PUSH1 0x64 PUSH1 0x1 PUSH1 0x16 SWAP1 SLOAD SWAP1 PUSH2 0x100 EXP SWAP1 DIV PUSH1 0xFF AND PUSH1 0xFF AND DUP4 PUSH2 0x659 SWAP2 SWAP1 PUSH2 0xDEC JUMP JUMPDEST PUSH2 0x663 SWAP2 SWAP1 PUSH2 0xE5A JUMP JUMPDEST SWAP1 POP SWAP2 SWAP1 POP JUMP JUMPDEST PUSH1 0x1 PUSH0 SWAP1 SLOAD SWAP1 PUSH2 0x100 EXP SWAP1 DIV PUSH20 0xFFFFFFFFFFFFFFFFFFFFFFFFFFFFFFFFFFFFFFFF AND PUSH20 0xFFFFFFFFFFFFFFFFFFFFFFFFFFFFFFFFFFFFFFFF AND CALLER PUSH20 0xFFFFFFFFFFFFFFFFFFFFFFFFFFFFFFFFFFFFFFFF AND EQ PUSH2 0x6F9 JUMPI PUSH1 0x40 MLOAD PUSH32 0x8C379A000000000000000000000000000000000000000000000000000000000 DUP2 MSTORE PUSH1 0x4 ADD PUSH2 0x6F0 SWAP1 PUSH2 0xDA1 JUMP JUMPDEST PUSH1 0x40 MLOAD DUP1 SWAP2 SUB SWAP1 REVERT JUMPDEST DUP1 PUSH1 0x1 PUSH1 0x17 PUSH2 0x100 EXP DUP2 SLOAD DUP2 PUSH1 0xFF MUL NOT AND SWAP1 DUP4 PUSH1 0xFF AND MUL OR SWAP1 SSTORE POP POP JUMP JUMPDEST PUSH1 0x1 PUSH1 0x15 SWAP1 SLOAD SWAP1 PUSH2 0x100 EXP SWAP1 DIV PUSH1 0xFF AND DUP2 JUMP JUMPDEST PUSH1 0x1 PUSH0 SWAP1 SLOAD SWAP1 PUSH2 0x100 EXP SWAP1 DIV PUSH20 0xFFFFFFFFFFFFFFFFFFFFFFFFFFFFFFFFFFFFFFFF AND PUSH20 0xFFFFFFFFFFFFFFFFFFFFFFFFFFFFFFFFFFFFFFFF AND CALLER PUSH20 0xFFFFFFFFFFFFFFFFFFFFFFFFFFFFFFFFFFFFFFFF AND EQ PUSH2 0x7B9 JUMPI PUSH1 0x40 MLOAD PUSH32 0x8C379A000000000000000000000000000000000000000000000000000000000 DUP2 MSTORE PUSH1 0x4 ADD PUSH2 0x7B0 SWAP1 PUSH2 0xDA1 JUMP JUMPDEST PUSH1 0x40 MLOAD DUP1 SWAP2 SUB SWAP1 REVERT JUMPDEST PUSH0 DUP2 GT PUSH2 0x7FB JUMPI PUSH1 0x40 MLOAD PUSH32 0x8C379A000000000000000000000000000000000000000000000000000000000 DUP2 MSTORE PUSH1 0x4 ADD PUSH2 0x7F2 SWAP1 PUSH2 0xED4 JUMP JUMPDEST PUSH1 0x40 MLOAD DUP1 SWAP2 SUB SWAP1 REVERT JUMPDEST DUP1 PUSH0 DUP1 SLOAD SWAP1 PUSH2 0x100 EXP SWAP1 DIV PUSH20 0xFFFFFFFFFFFFFFFFFFFFFFFFFFFFFFFFFFFFFFFF AND PUSH20 0xFFFFFFFFFFFFFFFFFFFFFFFFFFFFFFFFFFFFFFFF AND PUSH4 0x70A08231 ADDRESS PUSH1 0x40 MLOAD DUP3 PUSH4 0xFFFFFFFF AND PUSH1 0xE0 SHL DUP2 MSTORE PUSH1 0x4 ADD PUSH2 0x854 SWAP2 SWAP1 PUSH2 0xD08 JUMP JUMPDEST PUSH1 0x20 PUSH1 0x40 MLOAD DUP1 DUP4 SUB DUP2 DUP7 GAS STATICCALL ISZERO DUP1 ISZERO PUSH2 0x86F JUMPI RETURNDATASIZE PUSH0 DUP1 RETURNDATACOPY RETURNDATASIZE PUSH0 REVERT JUMPDEST POP POP POP POP PUSH1 0x40 MLOAD RETURNDATASIZE PUSH1 0x1F NOT PUSH1 0x1F DUP3 ADD AND DUP3 ADD DUP1 PUSH1 0x40 MSTORE POP DUP2 ADD SWAP1 PUSH2 0x893 SWAP2 SWAP1 PUSH2 0xF06 JUMP JUMPDEST LT ISZERO PUSH2 0x8D4 JUMPI PUSH1 0x40 MLOAD PUSH32 0x8C379A000000000000000000000000000000000000000000000000000000000 DUP2 MSTORE PUSH1 0x4 ADD PUSH2 0x8CB SWAP1 PUSH2 0xF7B JUMP JUMPDEST PUSH1 0x40 MLOAD DUP1 SWAP2 SUB SWAP1 REVERT JUMPDEST PUSH0 DUP1 SLOAD SWAP1 PUSH2 0x100 EXP SWAP1 DIV PUSH20 0xFFFFFFFFFFFFFFFFFFFFFFFFFFFFFFFFFFFFFFFF AND PUSH20 0xFFFFFFFFFFFFFFFFFFFFFFFFFFFFFFFFFFFFFFFF AND PUSH4 0x42966C68 DUP3 PUSH1 0x40 MLOAD DUP3 PUSH4 0xFFFFFFFF AND PUSH1 0xE0 SHL DUP2 MSTORE PUSH1 0x4 ADD PUSH2 0x92C SWAP2 SWAP1 PUSH2 0xCB0 JUMP JUMPDEST PUSH0 PUSH1 0x40 MLOAD DUP1 DUP4 SUB DUP2 PUSH0 DUP8 DUP1 EXTCODESIZE ISZERO DUP1 ISZERO PUSH2 0x943 JUMPI PUSH0 DUP1 REVERT JUMPDEST POP GAS CALL ISZERO DUP1 ISZERO PUSH2 0x955 JUMPI RETURNDATASIZE PUSH0 DUP1 RETURNDATACOPY RETURNDATASIZE PUSH0 REVERT JUMPDEST POP POP POP POP PUSH32 0x6EF4855B666DCC7884561072E4358B28DFE01FEB1B7F4DCEBC00E62D50394AC7 DUP2 PUSH1 0x40 MLOAD PUSH2 0x988 SWAP2 SWAP1 PUSH2 0xCB0 JUMP JUMPDEST PUSH1 0x40 MLOAD DUP1 SWAP2 SUB SWAP1 LOG1 POP JUMP JUMPDEST PUSH1 0x3 SLOAD DUP2 JUMP JUMPDEST PUSH1 0x1 PUSH0 SWAP1 SLOAD SWAP1 PUSH2 0x100 EXP SWAP1 DIV PUSH20 0xFFFFFFFFFFFFFFFFFFFFFFFFFFFFFFFFFFFFFFFF AND DUP2 JUMP JUMPDEST PUSH0 DUP1 PUSH2 0x2710 PUSH1 0x3 SLOAD DUP5 PUSH1 0x1 PUSH1 0x15 SWAP1 SLOAD SWAP1 PUSH2 0x100 EXP SWAP1 DIV PUSH1 0xFF AND PUSH1 0xFF AND PUSH2 0x9E4 SWAP2 SWAP1 PUSH2 0xDEC JUMP JUMPDEST PUSH2 0x9EE SWAP2 SWAP1 PUSH2 0xDEC JUMP JUMPDEST PUSH2 0x9F8 SWAP2 SWAP1 PUSH2 0xE5A JUMP JUMPDEST SWAP1 POP PUSH9 0x3635C9ADC5DEA00000 DUP2 GT PUSH2 0xA10 JUMPI DUP1 PUSH2 0xA1B JUMP JUMPDEST PUSH9 0x3635C9ADC5DEA00000 JUMPDEST SWAP2 POP POP SWAP2 SWAP1 POP JUMP JUMPDEST PUSH1 0x1 PUSH0 SWAP1 SLOAD SWAP1 PUSH2 0x100 EXP SWAP1 DIV PUSH20 0xFFFFFFFFFFFFFFFFFFFFFFFFFFFFFFFFFFFFFFFF AND PUSH20 0xFFFFFFFFFFFFFFFFFFFFFFFFFFFFFFFFFFFFFFFF AND CALLER PUSH20 0xFFFFFFFFFFFFFFFFFFFFFFFFFFFFFFFFFFFFFFFF AND EQ PUSH2 0xAB2 JUMPI PUSH1 0x40 MLOAD PUSH32 0x8C379A000000000000000000000000000000000000000000000000000000000 DUP2 MSTORE PUSH1 0x4 ADD PUSH2 0xAA9 SWAP1 PUSH2 0xDA1 JUMP JUMPDEST PUSH1 0x40 MLOAD DUP1 SWAP2 SUB SWAP1 REVERT JUMPDEST DUP1 PUSH1 0x1 PUSH1 0x16 PUSH2 0x100 EXP DUP2 SLOAD DUP2 PUSH1 0xFF MUL NOT AND SWAP1 DUP4 PUSH1 0xFF AND MUL OR SWAP1 SSTORE POP POP JUMP JUMPDEST PUSH1 0x2 SLOAD DUP2 JUMP JUMPDEST PUSH9 0x3635C9ADC5DEA00000 DUP2 JUMP JUMPDEST PUSH1 0x1 PUSH1 0x17 SWAP1 SLOAD SWAP1 PUSH2 0x100 EXP SWAP1 DIV PUSH1 0xFF AND DUP2 JUMP JUMPDEST PUSH1 0x1 PUSH1 0x16 SWAP1 SLOAD SWAP1 PUSH2 0x100 EXP SWAP1 DIV PUSH1 0xFF AND DUP2 JUMP JUMPDEST PUSH1 0x1 PUSH0 SWAP1 SLOAD SWAP1 PUSH2 0x100 EXP SWAP1 DIV PUSH20 0xFFFFFFFFFFFFFFFFFFFFFFFFFFFFFFFFFFFFFFFF AND PUSH20 0xFFFFFFFFFFFFFFFFFFFFFFFFFFFFFFFFFFFFFFFF AND CALLER PUSH20 0xFFFFFFFFFFFFFFFFFFFFFFFFFFFFFFFFFFFFFFFF AND EQ PUSH2 0xB98 JUMPI PUSH1 0x40 MLOAD PUSH32 0x8C379A000000000000000000000000000000000000000000000000000000000 DUP2 MSTORE PUSH1 0x4 ADD PUSH2 0xB8F SWAP1 PUSH2 0xDA1 JUMP JUMPDEST PUSH1 0x40 MLOAD DUP1 SWAP2 SUB SWAP1 REVERT JUMPDEST DUP1 PUSH1 0x1 PUSH1 0x14 PUSH2 0x100 EXP DUP2 SLOAD DUP2 PUSH1 0xFF MUL NOT AND SWAP1 DUP4 PUSH1 0xFF AND MUL OR SWAP1 SSTORE POP POP JUMP JUMPDEST PUSH0 DUP1 REVERT JUMPDEST PUSH0 PUSH1 0xFF DUP3 AND SWAP1 POP SWAP2 SWAP1 POP JUMP JUMPDEST PUSH2 0xBCF DUP2 PUSH2 0xBBA JUMP JUMPDEST DUP2 EQ PUSH2 0xBD9 JUMPI PUSH0 DUP1 REVERT JUMPDEST POP JUMP JUMPDEST PUSH0 DUP2 CALLDATALOAD SWAP1 POP PUSH2 0xBEA DUP2 PUSH2 0xBC6 JUMP JUMPDEST SWAP3 SWAP2 POP POP JUMP JUMPDEST PUSH0 PUSH1 0x20 DUP3 DUP5 SUB SLT ISZERO PUSH2 0xC05 JUMPI PUSH2 0xC04 PUSH2 0xBB6 JUMP JUMPDEST JUMPDEST PUSH0 PUSH2 0xC12 DUP5 DUP3 DUP6 ADD PUSH2 0xBDC JUMP JUMPDEST SWAP2 POP POP SWAP3 SWAP2 POP POP JUMP JUMPDEST PUSH0 DUP2 SWAP1 POP SWAP2 SWAP1 POP JUMP JUMPDEST PUSH2 0xC2D DUP2 PUSH2 0xC1B JUMP JUMPDEST DUP2 EQ PUSH2 0xC37 JUMPI PUSH0 DUP1 REVERT JUMPDEST POP JUMP JUMPDEST PUSH0 DUP2 CALLDATALOAD SWAP1 POP PUSH2 0xC48 DUP2 PUSH2 0xC24 JUMP JUMPDEST SWAP3 SWAP2 POP POP JUMP JUMPDEST PUSH0 PUSH1 0x20 DUP3 DUP5 SUB SLT ISZERO PUSH2 0xC63 JUMPI PUSH2 0xC62 PUSH2 0xBB6 JUMP JUMPDEST JUMPDEST PUSH0 PUSH2 0xC70 DUP5 DUP3 DUP6 ADD PUSH2 0xC3A JUMP JUMPDEST SWAP2 POP POP SWAP3 SWAP2 POP POP JUMP JUMPDEST PUSH2 0xC82 DUP2 PUSH2 0xBBA JUMP JUMPDEST DUP3 MSTORE POP POP JUMP JUMPDEST PUSH0 PUSH1 0x20 DUP3 ADD SWAP1 POP PUSH2 0xC9B PUSH0 DUP4 ADD DUP5 PUSH2 0xC79 JUMP JUMPDEST SWAP3 SWAP2 POP POP JUMP JUMPDEST PUSH2 0xCAA DUP2 PUSH2 0xC1B JUMP JUMPDEST DUP3 MSTORE POP POP JUMP JUMPDEST PUSH0 PUSH1 0x20 DUP3 ADD SWAP1 POP PUSH2 0xCC3 PUSH0 DUP4 ADD DUP5 PUSH2 0xCA1 JUMP JUMPDEST SWAP3 SWAP2 POP POP JUMP JUMPDEST PUSH0 PUSH20 0xFFFFFFFFFFFFFFFFFFFFFFFFFFFFFFFFFFFFFFFF DUP3 AND SWAP1 POP SWAP2 SWAP1 POP JUMP JUMPDEST PUSH0 PUSH2 0xCF2 DUP3 PUSH2 0xCC9 JUMP JUMPDEST SWAP1 POP SWAP2 SWAP1 POP JUMP JUMPDEST PUSH2 0xD02 DUP2 PUSH2 0xCE8 JUMP JUMPDEST DUP3 MSTORE POP POP JUMP JUMPDEST PUSH0 PUSH1 0x20 DUP3 ADD SWAP1 POP PUSH2 0xD1B PUSH0 DUP4 ADD DUP5 PUSH2 0xCF9 JUMP JUMPDEST SWAP3 SWAP2 POP POP JUMP JUMPDEST PUSH0 DUP3 DUP3 MSTORE PUSH1 0x20 DUP3 ADD SWAP1 POP SWAP3 SWAP2 POP POP JUMP JUMPDEST PUSH32 0x4F6E6C79206F776E65722063616E20706572666F726D20746869732061637469 PUSH0 DUP3 ADD MSTORE PUSH32 0x6F6E000000000000000000000000000000000000000000000000000000000000 PUSH1 0x20 DUP3 ADD MSTORE POP JUMP JUMPDEST PUSH0 PUSH2 0xD8B PUSH1 0x22 DUP4 PUSH2 0xD21 JUMP JUMPDEST SWAP2 POP PUSH2 0xD96 DUP3 PUSH2 0xD31 JUMP JUMPDEST PUSH1 0x40 DUP3 ADD SWAP1 POP SWAP2 SWAP1 POP JUMP JUMPDEST PUSH0 PUSH1 0x20 DUP3 ADD SWAP1 POP DUP2 DUP2 SUB PUSH0 DUP4 ADD MSTORE PUSH2 0xDB8 DUP2 PUSH2 0xD7F JUMP JUMPDEST SWAP1 POP SWAP2 SWAP1 POP JUMP JUMPDEST PUSH32 0x4E487B7100000000000000000000000000000000000000000000000000000000 PUSH0 MSTORE PUSH1 0x11 PUSH1 0x4 MSTORE PUSH1 0x24 PUSH0 REVERT JUMPDEST PUSH0 PUSH2 0xDF6 DUP3 PUSH2 0xC1B JUMP JUMPDEST SWAP2 POP PUSH2 0xE01 DUP4 PUSH2 0xC1B JUMP JUMPDEST SWAP3 POP DUP3 DUP3 MUL PUSH2 0xE0F DUP2 PUSH2 0xC1B JUMP JUMPDEST SWAP2 POP DUP3 DUP3 DIV DUP5 EQ DUP4 ISZERO OR PUSH2 0xE26 JUMPI PUSH2 0xE25 PUSH2 0xDBF JUMP JUMPDEST JUMPDEST POP SWAP3 SWAP2 POP POP JUMP JUMPDEST PUSH32 0x4E487B7100000000000000000000000000000000000000000000000000000000 PUSH0 MSTORE PUSH1 0x12 PUSH1 0x4 MSTORE PUSH1 0x24 PUSH0 REVERT JUMPDEST PUSH0 PUSH2 0xE64 DUP3 PUSH2 0xC1B JUMP JUMPDEST SWAP2 POP PUSH2 0xE6F DUP4 PUSH2 0xC1B JUMP JUMPDEST SWAP3 POP DUP3 PUSH2 0xE7F JUMPI PUSH2 0xE7E PUSH2 0xE2D JUMP JUMPDEST JUMPDEST DUP3 DUP3 DIV SWAP1 POP SWAP3 SWAP2 POP POP JUMP JUMPDEST PUSH32 0x416D6F756E74206D7573742062652067726561746572207468616E207A65726F PUSH0 DUP3 ADD MSTORE POP JUMP JUMPDEST PUSH0 PUSH2 0xEBE PUSH1 0x20 DUP4 PUSH2 0xD21 JUMP JUMPDEST SWAP2 POP PUSH2 0xEC9 DUP3 PUSH2 0xE8A JUMP JUMPDEST PUSH1 0x20 DUP3 ADD SWAP1 POP SWAP2 SWAP1 POP JUMP JUMPDEST PUSH0 PUSH1 0x20 DUP3 ADD SWAP1 POP DUP2 DUP2 SUB PUSH0 DUP4 ADD MSTORE PUSH2 0xEEB DUP2 PUSH2 0xEB2 JUMP JUMPDEST SWAP1 POP SWAP2 SWAP1 POP JUMP JUMPDEST PUSH0 DUP2 MLOAD SWAP1 POP PUSH2 0xF00 DUP2 PUSH2 0xC24 JUMP JUMPDEST SWAP3 SWAP2 POP POP JUMP JUMPDEST PUSH0 PUSH1 0x20 DUP3 DUP5 SUB SLT ISZERO PUSH2 0xF1B JUMPI PUSH2 0xF1A PUSH2 0xBB6 JUMP JUMPDEST JUMPDEST PUSH0 PUSH2 0xF28 DUP5 DUP3 DUP6 ADD PUSH2 0xEF2 JUMP JUMPDEST SWAP2 POP POP SWAP3 SWAP2 POP POP JUMP JUMPDEST PUSH32 0x496E73756666696369656E742062616C616E636520696E20636F6E7472616374 PUSH0 DUP3 ADD MSTORE POP JUMP JUMPDEST PUSH0 PUSH2 0xF65 PUSH1 0x20 DUP4 PUSH2 0xD21 JUMP JUMPDEST SWAP2 POP PUSH2 0xF70 DUP3 PUSH2 0xF31 JUMP JUMPDEST PUSH1 0x20 DUP3 ADD SWAP1 POP SWAP2 SWAP1 POP JUMP JUMPDEST PUSH0 PUSH1 0x20 DUP3 ADD SWAP1 POP DUP2 DUP2 SUB PUSH0 DUP4 ADD MSTORE PUSH2 0xF92 DUP2 PUSH2 0xF59 JUMP JUMPDEST SWAP1 POP SWAP2 SWAP1 POP JUMP INVALID LOG2 PUSH5 0x6970667358 0x22 SLT KECCAK256 SELFDESTRUCT 0xFC 0x5C GASPRICE SMOD 0xD8 0xE8 0xA7 PUSH27 0x92266DCD3A5834E88A38ECD30478434693223EDA66571564736F6C PUSH4 0x43000814 STOP CALLER "
		},
		"gasEstimates": {
			"creation": {
				"codeDepositCost": "809400",
				"executionCost": "infinite",
				"totalCost": "infinite"
			},
			"external": {
				"MAX_BURN_LIMIT()": "369",
				"burnTokens(uint256)": "infinite",
				"calculateCertificateAssociatedBurning(uint256)": "infinite",
				"calculateCommunityGrowthBurning(uint256)": "infinite",
				"calculateLiquidityOperationsBurning(uint256)": "infinite",
				"calculateTransactionBurning(uint256)": "infinite",
				"certificateAssociatedBurningPercentage()": "2605",
				"communityGrowthBurningPercentage()": "2628",
				"currentActiveTokenSupply()": "2470",
				"lastUserCount()": "2447",
				"liquidityOperationsBurningRate()": "2583",
				"owner()": "2575",
				"transactionBurningRate()": "2607",
				"updateCertificateAssociatedBurningPercentage(uint8)": "27004",
				"updateCommunityGrowthBurningPercentage(uint8)": "26917",
				"updateCurrentActiveTokenSupply(uint256)": "24730",
				"updateLastUserCount(uint256)": "24752",
				"updateLiquidityOperationsBurningRate(uint8)": "26982",
				"updateTransactionBurningRate(uint8)": "27003"
			}
		},
		"methodIdentifiers": {
			"MAX_BURN_LIMIT()": "c1eb49f0",
			"burnTokens(uint256)": "6d1b229d",
			"calculateCertificateAssociatedBurning(uint256)": "66f6103e",
			"calculateCommunityGrowthBurning(uint256)": "a93f3779",
			"calculateLiquidityOperationsBurning(uint256)": "4d74815b",
			"calculateTransactionBurning(uint256)": "3cadf8ef",
			"certificateAssociatedBurningPercentage()": "d20dff79",
			"communityGrowthBurningPercentage()": "6c061c24",
			"currentActiveTokenSupply()": "84173cf7",
			"lastUserCount()": "b78dec2f",
			"liquidityOperationsBurningRate()": "c9f95938",
			"owner()": "8da5cb5b",
			"transactionBurningRate()": "309dd82d",
			"updateCertificateAssociatedBurningPercentage(uint8)": "b23d694d",
			"updateCommunityGrowthBurningPercentage(uint8)": "09f276c5",
			"updateCurrentActiveTokenSupply(uint256)": "1502c962",
			"updateLastUserCount(uint256)": "2216b655",
			"updateLiquidityOperationsBurningRate(uint8)": "6b0f01c8",
			"updateTransactionBurningRate(uint8)": "faf3a2f4"
		}
	},
	"abi": [
		{
			"inputs": [
				{
					"internalType": "address",
					"name": "_tokenAddress",
					"type": "address"
				}
			],
			"stateMutability": "nonpayable",
			"type": "constructor"
		},
		{
			"anonymous": false,
			"inputs": [
				{
					"indexed": false,
					"internalType": "uint256",
					"name": "amount",
					"type": "uint256"
				}
			],
			"name": "TokensBurned",
			"type": "event"
		},
		{
			"inputs": [],
			"name": "MAX_BURN_LIMIT",
			"outputs": [
				{
					"internalType": "uint256",
					"name": "",
					"type": "uint256"
				}
			],
			"stateMutability": "view",
			"type": "function"
		},
		{
			"inputs": [
				{
					"internalType": "uint256",
					"name": "amount",
					"type": "uint256"
				}
			],
			"name": "burnTokens",
			"outputs": [],
			"stateMutability": "nonpayable",
			"type": "function"
		},
		{
			"inputs": [
				{
					"internalType": "uint256",
					"name": "certificateReward",
					"type": "uint256"
				}
			],
			"name": "calculateCertificateAssociatedBurning",
			"outputs": [
				{
					"internalType": "uint256",
					"name": "",
					"type": "uint256"
				}
			],
			"stateMutability": "view",
			"type": "function"
		},
		{
			"inputs": [
				{
					"internalType": "uint256",
					"name": "differenceInUserCount",
					"type": "uint256"
				}
			],
			"name": "calculateCommunityGrowthBurning",
			"outputs": [
				{
					"internalType": "uint256",
					"name": "",
					"type": "uint256"
				}
			],
			"stateMutability": "view",
			"type": "function"
		},
		{
			"inputs": [
				{
					"internalType": "uint256",
					"name": "quantityOfTokensInLiquidity",
					"type": "uint256"
				}
			],
			"name": "calculateLiquidityOperationsBurning",
			"outputs": [
				{
					"internalType": "uint256",
					"name": "",
					"type": "uint256"
				}
			],
			"stateMutability": "view",
			"type": "function"
		},
		{
			"inputs": [
				{
					"internalType": "uint256",
					"name": "transactionValue",
					"type": "uint256"
				}
			],
			"name": "calculateTransactionBurning",
			"outputs": [
				{
					"internalType": "uint256",
					"name": "",
					"type": "uint256"
				}
			],
			"stateMutability": "view",
			"type": "function"
		},
		{
			"inputs": [],
			"name": "certificateAssociatedBurningPercentage",
			"outputs": [
				{
					"internalType": "uint8",
					"name": "",
					"type": "uint8"
				}
			],
			"stateMutability": "view",
			"type": "function"
		},
		{
			"inputs": [],
			"name": "communityGrowthBurningPercentage",
			"outputs": [
				{
					"internalType": "uint8",
					"name": "",
					"type": "uint8"
				}
			],
			"stateMutability": "view",
			"type": "function"
		},
		{
			"inputs": [],
			"name": "currentActiveTokenSupply",
			"outputs": [
				{
					"internalType": "uint256",
					"name": "",
					"type": "uint256"
				}
			],
			"stateMutability": "view",
			"type": "function"
		},
		{
			"inputs": [],
			"name": "lastUserCount",
			"outputs": [
				{
					"internalType": "uint256",
					"name": "",
					"type": "uint256"
				}
			],
			"stateMutability": "view",
			"type": "function"
		},
		{
			"inputs": [],
			"name": "liquidityOperationsBurningRate",
			"outputs": [
				{
					"internalType": "uint8",
					"name": "",
					"type": "uint8"
				}
			],
			"stateMutability": "view",
			"type": "function"
		},
		{
			"inputs": [],
			"name": "owner",
			"outputs": [
				{
					"internalType": "address",
					"name": "",
					"type": "address"
				}
			],
			"stateMutability": "view",
			"type": "function"
		},
		{
			"inputs": [],
			"name": "transactionBurningRate",
			"outputs": [
				{
					"internalType": "uint8",
					"name": "",
					"type": "uint8"
				}
			],
			"stateMutability": "view",
			"type": "function"
		},
		{
			"inputs": [
				{
					"internalType": "uint8",
					"name": "_newPercentage",
					"type": "uint8"
				}
			],
			"name": "updateCertificateAssociatedBurningPercentage",
			"outputs": [],
			"stateMutability": "nonpayable",
			"type": "function"
		},
		{
			"inputs": [
				{
					"internalType": "uint8",
					"name": "_newPercentage",
					"type": "uint8"
				}
			],
			"name": "updateCommunityGrowthBurningPercentage",
			"outputs": [],
			"stateMutability": "nonpayable",
			"type": "function"
		},
		{
			"inputs": [
				{
					"internalType": "uint256",
					"name": "_newSupply",
					"type": "uint256"
				}
			],
			"name": "updateCurrentActiveTokenSupply",
			"outputs": [],
			"stateMutability": "nonpayable",
			"type": "function"
		},
		{
			"inputs": [
				{
					"internalType": "uint256",
					"name": "_newUserCount",
					"type": "uint256"
				}
			],
			"name": "updateLastUserCount",
			"outputs": [],
			"stateMutability": "nonpayable",
			"type": "function"
		},
		{
			"inputs": [
				{
					"internalType": "uint8",
					"name": "_newRate",
					"type": "uint8"
				}
			],
			"name": "updateLiquidityOperationsBurningRate",
			"outputs": [],
			"stateMutability": "nonpayable",
			"type": "function"
		},
		{
			"inputs": [
				{
					"internalType": "uint8",
					"name": "_newRate",
					"type": "uint8"
				}
			],
			"name": "updateTransactionBurningRate",
			"outputs": [],
			"stateMutability": "nonpayable",
			"type": "function"
		}
	]
}