{
	"data": {
		"bytecode": {
			"linkReferences": {},
			"object": "608060405234801562000010575f80fd5b5060405162001ef238038062001ef2833981810160405281019062000036919062000171565b835f806101000a81548173ffffffffffffffffffffffffffffffffffffffff021916908373ffffffffffffffffffffffffffffffffffffffff1602179055503360015f6101000a81548173ffffffffffffffffffffffffffffffffffffffff021916908373ffffffffffffffffffffffffffffffffffffffff16021790555082600381905550816004819055508060078190555050505050620001e0565b5f80fd5b5f73ffffffffffffffffffffffffffffffffffffffff82169050919050565b5f6200010382620000d8565b9050919050565b6200011581620000f7565b811462000120575f80fd5b50565b5f8151905062000133816200010a565b92915050565b5f819050919050565b6200014d8162000139565b811462000158575f80fd5b50565b5f815190506200016b8162000142565b92915050565b5f805f80608085870312156200018c576200018b620000d4565b5b5f6200019b8782880162000123565b9450506020620001ae878288016200015b565b9350506040620001c1878288016200015b565b9250506060620001d4878288016200015b565b91505092959194509250565b611d0480620001ee5f395ff3fe608060405234801561000f575f80fd5b5060043610610108575f3560e01c8063523fba7f116100a0578063da35c6641161006f578063da35c66414610296578063dd49756e146102b4578063deb0e09b146102d0578063fa7f1bae146102ee578063feac729d1461030c57610108565b8063523fba7f1461020e5780635b9400811461023e5780638da5cb5b1461025c578063c9d27afe1461027a57610108565b80631703a018116100dc5780631703a0181461019a578063315a095d146101b8578063373d6d5e146101d4578063459b4c16146101f057610108565b80627ed0581461010c578063013cf08b1461012a5780630d61b51914610160578063132002fc1461017c575b5f80fd5b61011461032a565b6040516101219190610eae565b60405180910390f35b610144600480360381019061013f9190610f02565b610330565b6040516101579796959493929190610fd1565b60405180910390f35b61017a60048036038101906101759190610f02565b610400565b005b610184610619565b6040516101919190610eae565b60405180910390f35b6101a261061f565b6040516101af9190610eae565b60405180910390f35b6101d260048036038101906101cd9190610f02565b610625565b005b6101ee60048036038101906101e99190611171565b6107d4565b005b6101f86109e7565b6040516102059190611232565b60405180910390f35b61022860048036038101906102239190611286565b610a0a565b6040516102359190610eae565b60405180910390f35b610246610a1f565b6040516102539190610eae565b60405180910390f35b610264610b16565b60405161027191906112c0565b60405180910390f35b610294600480360381019061028f9190611303565b610b3b565b005b61029e610d3e565b6040516102ab9190610eae565b60405180910390f35b6102ce60048036038101906102c99190610f02565b610d44565b005b6102d8610e75565b6040516102e59190610eae565b60405180910390f35b6102f6610e7e565b6040516103039190611341565b60405180910390f35b610314610e90565b6040516103219190610eae565b60405180910390f35b60045481565b6008602052805f5260405f205f91509050805f01549080600101805461035590611387565b80601f016020809104026020016040519081016040528092919081815260200182805461038190611387565b80156103cc5780601f106103a3576101008083540402835291602001916103cc565b820191905f5260205f20905b8154815290600101906020018083116103af57829003601f168201915b505050505090806002015490806003015490806004015490806005015490806006015f9054906101000a900460ff16905087565b60015f9054906101000a900473ffffffffffffffffffffffffffffffffffffffff1673ffffffffffffffffffffffffffffffffffffffff163373ffffffffffffffffffffffffffffffffffffffff161461048f576040517f08c379a000000000000000000000000000000000000000000000000000000000815260040161048690611427565b60405180910390fd5b5f60085f8381526020019081526020015f20905080600301544210156104ea576040517f08c379a00000000000000000000000000000000000000000000000000000000081526004016104e1906114b5565b60405180910390fd5b806006015f9054906101000a900460ff161561053b576040517f08c379a000000000000000000000000000000000000000000000000000000000815260040161053290611543565b60405180910390fd5b5f81600501548260040154610550919061158e565b9050600354811015610597576040517f08c379a000000000000000000000000000000000000000000000000000000000815260040161058e9061160b565b60405180910390fd5b8160050154826004015411156105fb576001826006015f6101000a81548160ff0219169083151502179055507f712ae1383f79ac853f8d882153778e0260ef8f03b504e2866e0593e04d2b291f836040516105f29190610eae565b60405180910390a15b5f60055f6101000a81548160ff021916908315150217905550505050565b60075481565b60035481565b8060095f3373ffffffffffffffffffffffffffffffffffffffff1673ffffffffffffffffffffffffffffffffffffffff1681526020019081526020015f205410156106a5576040517f08c379a000000000000000000000000000000000000000000000000000000000815260040161069c90611673565b60405180910390fd5b8060095f3373ffffffffffffffffffffffffffffffffffffffff1673ffffffffffffffffffffffffffffffffffffffff1681526020019081526020015f205f8282546106f19190611691565b925050819055505f8054906101000a900473ffffffffffffffffffffffffffffffffffffffff1673ffffffffffffffffffffffffffffffffffffffff1663a9059cbb33836040518363ffffffff1660e01b81526004016107529291906116c4565b6020604051808303815f875af115801561076e573d5f803e3d5ffd5b505050506040513d601f19601f8201168201806040525081019061079291906116ff565b6107d1576040517f08c379a00000000000000000000000000000000000000000000000000000000081526004016107c890611774565b60405180910390fd5b50565b60015f9054906101000a900473ffffffffffffffffffffffffffffffffffffffff1673ffffffffffffffffffffffffffffffffffffffff163373ffffffffffffffffffffffffffffffffffffffff1614610863576040517f08c379a000000000000000000000000000000000000000000000000000000000815260040161085a90611427565b60405180910390fd5b60055f9054906101000a900460ff16156108b2576040517f08c379a00000000000000000000000000000000000000000000000000000000081526004016108a9906117dc565b60405180910390fd5b60065f8154809291906108c4906117fa565b91905055506040518060e0016040528060065481526020018281526020014281526020016108f0610e75565b426108fb919061158e565b81526020015f81526020015f81526020015f151581525060085f60065481526020019081526020015f205f820151815f0155602082015181600101908161094291906119d5565b5060408201518160020155606082015181600301556080820151816004015560a0820151816005015560c0820151816006015f6101000a81548160ff0219169083151502179055509050507fdc252f306703b21a06942a9125a974da8820ba330c08939ece178742bbc439a760065482336040516109c293929190611aa4565b60405180910390a1600160055f6101000a81548160ff02191690831515021790555050565b5f8054906101000a900473ffffffffffffffffffffffffffffffffffffffff1681565b6009602052805f5260405f205f915090505481565b5f60085f60065481526020019081526020015f2060030154421015610a46575f9050610b13565b5f60085f60065481526020019081526020015f206005015460085f60065481526020019081526020015f2060040154610a7f919061158e565b9050600354811015610a94575f915050610b13565b60085f60065481526020019081526020015f206005015460085f60065481526020019081526020015f20600401541115610b0e5760095f3373ffffffffffffffffffffffffffffffffffffffff1673ffffffffffffffffffffffffffffffffffffffff1681526020019081526020015f2054915050610b13565b5f9150505b90565b60015f9054906101000a900473ffffffffffffffffffffffffffffffffffffffff1681565b60055f9054906101000a900460ff16610b89576040517f08c379a0000000000000000000000000000000000000000000000000000000008152600401610b8090611b50565b60405180910390fd5b60045460095f3373ffffffffffffffffffffffffffffffffffffffff1673ffffffffffffffffffffffffffffffffffffffff1681526020019081526020015f20541015610c0b576040517f08c379a0000000000000000000000000000000000000000000000000000000008152600401610c0290611bb8565b60405180910390fd5b5f60085f8481526020019081526020015f20905080600301544210610c65576040517f08c379a0000000000000000000000000000000000000000000000000000000008152600401610c5c90611c46565b60405180910390fd5b60045460095f3373ffffffffffffffffffffffffffffffffffffffff1673ffffffffffffffffffffffffffffffffffffffff1681526020019081526020015f205f828254610cb39190611691565b925050819055508115610ce157600454816004015f828254610cd5919061158e565b92505081905550610cfe565b600454816005015f828254610cf6919061158e565b925050819055505b7ff2913dbe661ee2acc4a046d8fbcdc792373bda34c41c6086484b5345e5785e5f833384604051610d3193929190611c64565b60405180910390a1505050565b60025481565b5f8054906101000a900473ffffffffffffffffffffffffffffffffffffffff1673ffffffffffffffffffffffffffffffffffffffff166323b872dd3330846040518463ffffffff1660e01b8152600401610da093929190611c99565b6020604051808303815f875af1158015610dbc573d5f803e3d5ffd5b505050506040513d601f19601f82011682018060405250810190610de091906116ff565b610e1f576040517f08c379a0000000000000000000000000000000000000000000000000000000008152600401610e1690611774565b60405180910390fd5b8060095f3373ffffffffffffffffffffffffffffffffffffffff1673ffffffffffffffffffffffffffffffffffffffff1681526020019081526020015f205f828254610e6b919061158e565b9250508190555050565b5f600754905090565b60055f9054906101000a900460ff1681565b60065481565b5f819050919050565b610ea881610e96565b82525050565b5f602082019050610ec15f830184610e9f565b92915050565b5f604051905090565b5f80fd5b5f80fd5b610ee181610e96565b8114610eeb575f80fd5b50565b5f81359050610efc81610ed8565b92915050565b5f60208284031215610f1757610f16610ed0565b5b5f610f2484828501610eee565b91505092915050565b5f81519050919050565b5f82825260208201905092915050565b5f5b83811015610f64578082015181840152602081019050610f49565b5f8484015250505050565b5f601f19601f8301169050919050565b5f610f8982610f2d565b610f938185610f37565b9350610fa3818560208601610f47565b610fac81610f6f565b840191505092915050565b5f8115159050919050565b610fcb81610fb7565b82525050565b5f60e082019050610fe45f83018a610e9f565b8181036020830152610ff68189610f7f565b90506110056040830188610e9f565b6110126060830187610e9f565b61101f6080830186610e9f565b61102c60a0830185610e9f565b61103960c0830184610fc2565b98975050505050505050565b5f80fd5b5f80fd5b7f4e487b71000000000000000000000000000000000000000000000000000000005f52604160045260245ffd5b61108382610f6f565b810181811067ffffffffffffffff821117156110a2576110a161104d565b5b80604052505050565b5f6110b4610ec7565b90506110c0828261107a565b919050565b5f67ffffffffffffffff8211156110df576110de61104d565b5b6110e882610f6f565b9050602081019050919050565b828183375f83830152505050565b5f611115611110846110c5565b6110ab565b90508281526020810184848401111561113157611130611049565b5b61113c8482856110f5565b509392505050565b5f82601f83011261115857611157611045565b5b8135611168848260208601611103565b91505092915050565b5f6020828403121561118657611185610ed0565b5b5f82013567ffffffffffffffff8111156111a3576111a2610ed4565b5b6111af84828501611144565b91505092915050565b5f73ffffffffffffffffffffffffffffffffffffffff82169050919050565b5f819050919050565b5f6111fa6111f56111f0846111b8565b6111d7565b6111b8565b9050919050565b5f61120b826111e0565b9050919050565b5f61121c82611201565b9050919050565b61122c81611212565b82525050565b5f6020820190506112455f830184611223565b92915050565b5f611255826111b8565b9050919050565b6112658161124b565b811461126f575f80fd5b50565b5f813590506112808161125c565b92915050565b5f6020828403121561129b5761129a610ed0565b5b5f6112a884828501611272565b91505092915050565b6112ba8161124b565b82525050565b5f6020820190506112d35f8301846112b1565b92915050565b6112e281610fb7565b81146112ec575f80fd5b50565b5f813590506112fd816112d9565b92915050565b5f806040838503121561131957611318610ed0565b5b5f61132685828601610eee565b9250506020611337858286016112ef565b9150509250929050565b5f6020820190506113545f830184610fc2565b92915050565b7f4e487b71000000000000000000000000000000000000000000000000000000005f52602260045260245ffd5b5f600282049050600182168061139e57607f821691505b6020821081036113b1576113b061135a565b5b50919050565b7f4f6e6c7920746865206f776e65722063616e20706572666f726d2074686973205f8201527f616374696f6e0000000000000000000000000000000000000000000000000000602082015250565b5f611411602683610f37565b915061141c826113b7565b604082019050919050565b5f6020820190508181035f83015261143e81611405565b9050919050565b7f566f74696e67206973207374696c6c206f70656e20666f7220746869732070725f8201527f6f706f73616c0000000000000000000000000000000000000000000000000000602082015250565b5f61149f602683610f37565b91506114aa82611445565b604082019050919050565b5f6020820190508181035f8301526114cc81611493565b9050919050565b7f50726f706f73616c2068617320616c7265616479206265656e206578656375745f8201527f6564000000000000000000000000000000000000000000000000000000000000602082015250565b5f61152d602283610f37565b9150611538826114d3565b604082019050919050565b5f6020820190508181035f83015261155a81611521565b9050919050565b7f4e487b71000000000000000000000000000000000000000000000000000000005f52601160045260245ffd5b5f61159882610e96565b91506115a383610e96565b92508282019050808211156115bb576115ba611561565b5b92915050565b7f51756f72756d206e6f74206d65740000000000000000000000000000000000005f82015250565b5f6115f5600e83610f37565b9150611600826115c1565b602082019050919050565b5f6020820190508181035f830152611622816115e9565b9050919050565b7f496e73756666696369656e742062616c616e63650000000000000000000000005f82015250565b5f61165d601483610f37565b915061166882611629565b602082019050919050565b5f6020820190508181035f83015261168a81611651565b9050919050565b5f61169b82610e96565b91506116a683610e96565b92508282039050818111156116be576116bd611561565b5b92915050565b5f6040820190506116d75f8301856112b1565b6116e46020830184610e9f565b9392505050565b5f815190506116f9816112d9565b92915050565b5f6020828403121561171457611713610ed0565b5b5f611721848285016116eb565b91505092915050565b7f546f6b656e207472616e73666572206661696c656400000000000000000000005f82015250565b5f61175e601583610f37565b91506117698261172a565b602082019050919050565b5f6020820190508181035f83015261178b81611752565b9050919050565b7f546865726520697320616e206163746976652070726f706f73616c00000000005f82015250565b5f6117c6601b83610f37565b91506117d182611792565b602082019050919050565b5f6020820190508181035f8301526117f3816117ba565b9050919050565b5f61180482610e96565b91507fffffffffffffffffffffffffffffffffffffffffffffffffffffffffffffffff820361183657611835611561565b5b600182019050919050565b5f819050815f5260205f209050919050565b5f6020601f8301049050919050565b5f82821b905092915050565b5f6008830261189d7fffffffffffffffffffffffffffffffffffffffffffffffffffffffffffffffff82611862565b6118a78683611862565b95508019841693508086168417925050509392505050565b5f6118d96118d46118cf84610e96565b6111d7565b610e96565b9050919050565b5f819050919050565b6118f2836118bf565b6119066118fe826118e0565b84845461186e565b825550505050565b5f90565b61191a61190e565b6119258184846118e9565b505050565b5b818110156119485761193d5f82611912565b60018101905061192b565b5050565b601f82111561198d5761195e81611841565b61196784611853565b81016020851015611976578190505b61198a61198285611853565b83018261192a565b50505b505050565b5f82821c905092915050565b5f6119ad5f1984600802611992565b1980831691505092915050565b5f6119c5838361199e565b9150826002028217905092915050565b6119de82610f2d565b67ffffffffffffffff8111156119f7576119f661104d565b5b611a018254611387565b611a0c82828561194c565b5f60209050601f831160018114611a3d575f8415611a2b578287015190505b611a3585826119ba565b865550611a9c565b601f198416611a4b86611841565b5f5b82811015611a7257848901518255600182019150602085019450602081019050611a4d565b86831015611a8f5784890151611a8b601f89168261199e565b8355505b6001600288020188555050505b505050505050565b5f606082019050611ab75f830186610e9f565b8181036020830152611ac98185610f7f565b9050611ad860408301846112b1565b949350505050565b7f566f74696e6720697320636c6f73656420666f72207468652063757272656e745f8201527f2070726f706f73616c0000000000000000000000000000000000000000000000602082015250565b5f611b3a602983610f37565b9150611b4582611ae0565b604082019050919050565b5f6020820190508181035f830152611b6781611b2e565b9050919050565b7f496e73756666696369656e7420746f6b656e7320746f20766f746500000000005f82015250565b5f611ba2601b83610f37565b9150611bad82611b6e565b602082019050919050565b5f6020820190508181035f830152611bcf81611b96565b9050919050565b7f566f74696e672068617320656e64656420666f7220746869732070726f706f735f8201527f616c000000000000000000000000000000000000000000000000000000000000602082015250565b5f611c30602283610f37565b9150611c3b82611bd6565b604082019050919050565b5f6020820190508181035f830152611c5d81611c24565b9050919050565b5f606082019050611c775f830186610e9f565b611c8460208301856112b1565b611c916040830184610fc2565b949350505050565b5f606082019050611cac5f8301866112b1565b611cb960208301856112b1565b611cc66040830184610e9f565b94935050505056fea2646970667358221220fae4c5b2955e5a53fc9733c51e183f07a6d69c7bfa4cca9571e6a3d6f742c33464736f6c63430008140033",
			"opcodes": "PUSH1 0x80 PUSH1 0x40 MSTORE CALLVALUE DUP1 ISZERO PUSH3 0x10 JUMPI PUSH0 DUP1 REVERT JUMPDEST POP PUSH1 0x40 MLOAD PUSH3 0x1EF2 CODESIZE SUB DUP1 PUSH3 0x1EF2 DUP4 CODECOPY DUP2 DUP2 ADD PUSH1 0x40 MSTORE DUP2 ADD SWAP1 PUSH3 0x36 SWAP2 SWAP1 PUSH3 0x171 JUMP JUMPDEST DUP4 PUSH0 DUP1 PUSH2 0x100 EXP DUP2 SLOAD DUP2 PUSH20 0xFFFFFFFFFFFFFFFFFFFFFFFFFFFFFFFFFFFFFFFF MUL NOT AND SWAP1 DUP4 PUSH20 0xFFFFFFFFFFFFFFFFFFFFFFFFFFFFFFFFFFFFFFFF AND MUL OR SWAP1 SSTORE POP CALLER PUSH1 0x1 PUSH0 PUSH2 0x100 EXP DUP2 SLOAD DUP2 PUSH20 0xFFFFFFFFFFFFFFFFFFFFFFFFFFFFFFFFFFFFFFFF MUL NOT AND SWAP1 DUP4 PUSH20 0xFFFFFFFFFFFFFFFFFFFFFFFFFFFFFFFFFFFFFFFF AND MUL OR SWAP1 SSTORE POP DUP3 PUSH1 0x3 DUP2 SWAP1 SSTORE POP DUP2 PUSH1 0x4 DUP2 SWAP1 SSTORE POP DUP1 PUSH1 0x7 DUP2 SWAP1 SSTORE POP POP POP POP POP PUSH3 0x1E0 JUMP JUMPDEST PUSH0 DUP1 REVERT JUMPDEST PUSH0 PUSH20 0xFFFFFFFFFFFFFFFFFFFFFFFFFFFFFFFFFFFFFFFF DUP3 AND SWAP1 POP SWAP2 SWAP1 POP JUMP JUMPDEST PUSH0 PUSH3 0x103 DUP3 PUSH3 0xD8 JUMP JUMPDEST SWAP1 POP SWAP2 SWAP1 POP JUMP JUMPDEST PUSH3 0x115 DUP2 PUSH3 0xF7 JUMP JUMPDEST DUP2 EQ PUSH3 0x120 JUMPI PUSH0 DUP1 REVERT JUMPDEST POP JUMP JUMPDEST PUSH0 DUP2 MLOAD SWAP1 POP PUSH3 0x133 DUP2 PUSH3 0x10A JUMP JUMPDEST SWAP3 SWAP2 POP POP JUMP JUMPDEST PUSH0 DUP2 SWAP1 POP SWAP2 SWAP1 POP JUMP JUMPDEST PUSH3 0x14D DUP2 PUSH3 0x139 JUMP JUMPDEST DUP2 EQ PUSH3 0x158 JUMPI PUSH0 DUP1 REVERT JUMPDEST POP JUMP JUMPDEST PUSH0 DUP2 MLOAD SWAP1 POP PUSH3 0x16B DUP2 PUSH3 0x142 JUMP JUMPDEST SWAP3 SWAP2 POP POP JUMP JUMPDEST PUSH0 DUP1 PUSH0 DUP1 PUSH1 0x80 DUP6 DUP8 SUB SLT ISZERO PUSH3 0x18C JUMPI PUSH3 0x18B PUSH3 0xD4 JUMP JUMPDEST JUMPDEST PUSH0 PUSH3 0x19B DUP8 DUP3 DUP9 ADD PUSH3 0x123 JUMP JUMPDEST SWAP5 POP POP PUSH1 0x20 PUSH3 0x1AE DUP8 DUP3 DUP9 ADD PUSH3 0x15B JUMP JUMPDEST SWAP4 POP POP PUSH1 0x40 PUSH3 0x1C1 DUP8 DUP3 DUP9 ADD PUSH3 0x15B JUMP JUMPDEST SWAP3 POP POP PUSH1 0x60 PUSH3 0x1D4 DUP8 DUP3 DUP9 ADD PUSH3 0x15B JUMP JUMPDEST SWAP2 POP POP SWAP3 SWAP6 SWAP2 SWAP5 POP SWAP3 POP JUMP JUMPDEST PUSH2 0x1D04 DUP1 PUSH3 0x1EE PUSH0 CODECOPY PUSH0 RETURN INVALID PUSH1 0x80 PUSH1 0x40 MSTORE CALLVALUE DUP1 ISZERO PUSH2 0xF JUMPI PUSH0 DUP1 REVERT JUMPDEST POP PUSH1 0x4 CALLDATASIZE LT PUSH2 0x108 JUMPI PUSH0 CALLDATALOAD PUSH1 0xE0 SHR DUP1 PUSH4 0x523FBA7F GT PUSH2 0xA0 JUMPI DUP1 PUSH4 0xDA35C664 GT PUSH2 0x6F JUMPI DUP1 PUSH4 0xDA35C664 EQ PUSH2 0x296 JUMPI DUP1 PUSH4 0xDD49756E EQ PUSH2 0x2B4 JUMPI DUP1 PUSH4 0xDEB0E09B EQ PUSH2 0x2D0 JUMPI DUP1 PUSH4 0xFA7F1BAE EQ PUSH2 0x2EE JUMPI DUP1 PUSH4 0xFEAC729D EQ PUSH2 0x30C JUMPI PUSH2 0x108 JUMP JUMPDEST DUP1 PUSH4 0x523FBA7F EQ PUSH2 0x20E JUMPI DUP1 PUSH4 0x5B940081 EQ PUSH2 0x23E JUMPI DUP1 PUSH4 0x8DA5CB5B EQ PUSH2 0x25C JUMPI DUP1 PUSH4 0xC9D27AFE EQ PUSH2 0x27A JUMPI PUSH2 0x108 JUMP JUMPDEST DUP1 PUSH4 0x1703A018 GT PUSH2 0xDC JUMPI DUP1 PUSH4 0x1703A018 EQ PUSH2 0x19A JUMPI DUP1 PUSH4 0x315A095D EQ PUSH2 0x1B8 JUMPI DUP1 PUSH4 0x373D6D5E EQ PUSH2 0x1D4 JUMPI DUP1 PUSH4 0x459B4C16 EQ PUSH2 0x1F0 JUMPI PUSH2 0x108 JUMP JUMPDEST DUP1 PUSH3 0x7ED058 EQ PUSH2 0x10C JUMPI DUP1 PUSH4 0x13CF08B EQ PUSH2 0x12A JUMPI DUP1 PUSH4 0xD61B519 EQ PUSH2 0x160 JUMPI DUP1 PUSH4 0x132002FC EQ PUSH2 0x17C JUMPI JUMPDEST PUSH0 DUP1 REVERT JUMPDEST PUSH2 0x114 PUSH2 0x32A JUMP JUMPDEST PUSH1 0x40 MLOAD PUSH2 0x121 SWAP2 SWAP1 PUSH2 0xEAE JUMP JUMPDEST PUSH1 0x40 MLOAD DUP1 SWAP2 SUB SWAP1 RETURN JUMPDEST PUSH2 0x144 PUSH1 0x4 DUP1 CALLDATASIZE SUB DUP2 ADD SWAP1 PUSH2 0x13F SWAP2 SWAP1 PUSH2 0xF02 JUMP JUMPDEST PUSH2 0x330 JUMP JUMPDEST PUSH1 0x40 MLOAD PUSH2 0x157 SWAP8 SWAP7 SWAP6 SWAP5 SWAP4 SWAP3 SWAP2 SWAP1 PUSH2 0xFD1 JUMP JUMPDEST PUSH1 0x40 MLOAD DUP1 SWAP2 SUB SWAP1 RETURN JUMPDEST PUSH2 0x17A PUSH1 0x4 DUP1 CALLDATASIZE SUB DUP2 ADD SWAP1 PUSH2 0x175 SWAP2 SWAP1 PUSH2 0xF02 JUMP JUMPDEST PUSH2 0x400 JUMP JUMPDEST STOP JUMPDEST PUSH2 0x184 PUSH2 0x619 JUMP JUMPDEST PUSH1 0x40 MLOAD PUSH2 0x191 SWAP2 SWAP1 PUSH2 0xEAE JUMP JUMPDEST PUSH1 0x40 MLOAD DUP1 SWAP2 SUB SWAP1 RETURN JUMPDEST PUSH2 0x1A2 PUSH2 0x61F JUMP JUMPDEST PUSH1 0x40 MLOAD PUSH2 0x1AF SWAP2 SWAP1 PUSH2 0xEAE JUMP JUMPDEST PUSH1 0x40 MLOAD DUP1 SWAP2 SUB SWAP1 RETURN JUMPDEST PUSH2 0x1D2 PUSH1 0x4 DUP1 CALLDATASIZE SUB DUP2 ADD SWAP1 PUSH2 0x1CD SWAP2 SWAP1 PUSH2 0xF02 JUMP JUMPDEST PUSH2 0x625 JUMP JUMPDEST STOP JUMPDEST PUSH2 0x1EE PUSH1 0x4 DUP1 CALLDATASIZE SUB DUP2 ADD SWAP1 PUSH2 0x1E9 SWAP2 SWAP1 PUSH2 0x1171 JUMP JUMPDEST PUSH2 0x7D4 JUMP JUMPDEST STOP JUMPDEST PUSH2 0x1F8 PUSH2 0x9E7 JUMP JUMPDEST PUSH1 0x40 MLOAD PUSH2 0x205 SWAP2 SWAP1 PUSH2 0x1232 JUMP JUMPDEST PUSH1 0x40 MLOAD DUP1 SWAP2 SUB SWAP1 RETURN JUMPDEST PUSH2 0x228 PUSH1 0x4 DUP1 CALLDATASIZE SUB DUP2 ADD SWAP1 PUSH2 0x223 SWAP2 SWAP1 PUSH2 0x1286 JUMP JUMPDEST PUSH2 0xA0A JUMP JUMPDEST PUSH1 0x40 MLOAD PUSH2 0x235 SWAP2 SWAP1 PUSH2 0xEAE JUMP JUMPDEST PUSH1 0x40 MLOAD DUP1 SWAP2 SUB SWAP1 RETURN JUMPDEST PUSH2 0x246 PUSH2 0xA1F JUMP JUMPDEST PUSH1 0x40 MLOAD PUSH2 0x253 SWAP2 SWAP1 PUSH2 0xEAE JUMP JUMPDEST PUSH1 0x40 MLOAD DUP1 SWAP2 SUB SWAP1 RETURN JUMPDEST PUSH2 0x264 PUSH2 0xB16 JUMP JUMPDEST PUSH1 0x40 MLOAD PUSH2 0x271 SWAP2 SWAP1 PUSH2 0x12C0 JUMP JUMPDEST PUSH1 0x40 MLOAD DUP1 SWAP2 SUB SWAP1 RETURN JUMPDEST PUSH2 0x294 PUSH1 0x4 DUP1 CALLDATASIZE SUB DUP2 ADD SWAP1 PUSH2 0x28F SWAP2 SWAP1 PUSH2 0x1303 JUMP JUMPDEST PUSH2 0xB3B JUMP JUMPDEST STOP JUMPDEST PUSH2 0x29E PUSH2 0xD3E JUMP JUMPDEST PUSH1 0x40 MLOAD PUSH2 0x2AB SWAP2 SWAP1 PUSH2 0xEAE JUMP JUMPDEST PUSH1 0x40 MLOAD DUP1 SWAP2 SUB SWAP1 RETURN JUMPDEST PUSH2 0x2CE PUSH1 0x4 DUP1 CALLDATASIZE SUB DUP2 ADD SWAP1 PUSH2 0x2C9 SWAP2 SWAP1 PUSH2 0xF02 JUMP JUMPDEST PUSH2 0xD44 JUMP JUMPDEST STOP JUMPDEST PUSH2 0x2D8 PUSH2 0xE75 JUMP JUMPDEST PUSH1 0x40 MLOAD PUSH2 0x2E5 SWAP2 SWAP1 PUSH2 0xEAE JUMP JUMPDEST PUSH1 0x40 MLOAD DUP1 SWAP2 SUB SWAP1 RETURN JUMPDEST PUSH2 0x2F6 PUSH2 0xE7E JUMP JUMPDEST PUSH1 0x40 MLOAD PUSH2 0x303 SWAP2 SWAP1 PUSH2 0x1341 JUMP JUMPDEST PUSH1 0x40 MLOAD DUP1 SWAP2 SUB SWAP1 RETURN JUMPDEST PUSH2 0x314 PUSH2 0xE90 JUMP JUMPDEST PUSH1 0x40 MLOAD PUSH2 0x321 SWAP2 SWAP1 PUSH2 0xEAE JUMP JUMPDEST PUSH1 0x40 MLOAD DUP1 SWAP2 SUB SWAP1 RETURN JUMPDEST PUSH1 0x4 SLOAD DUP2 JUMP JUMPDEST PUSH1 0x8 PUSH1 0x20 MSTORE DUP1 PUSH0 MSTORE PUSH1 0x40 PUSH0 KECCAK256 PUSH0 SWAP2 POP SWAP1 POP DUP1 PUSH0 ADD SLOAD SWAP1 DUP1 PUSH1 0x1 ADD DUP1 SLOAD PUSH2 0x355 SWAP1 PUSH2 0x1387 JUMP JUMPDEST DUP1 PUSH1 0x1F ADD PUSH1 0x20 DUP1 SWAP2 DIV MUL PUSH1 0x20 ADD PUSH1 0x40 MLOAD SWAP1 DUP2 ADD PUSH1 0x40 MSTORE DUP1 SWAP3 SWAP2 SWAP1 DUP2 DUP2 MSTORE PUSH1 0x20 ADD DUP3 DUP1 SLOAD PUSH2 0x381 SWAP1 PUSH2 0x1387 JUMP JUMPDEST DUP1 ISZERO PUSH2 0x3CC JUMPI DUP1 PUSH1 0x1F LT PUSH2 0x3A3 JUMPI PUSH2 0x100 DUP1 DUP4 SLOAD DIV MUL DUP4 MSTORE SWAP2 PUSH1 0x20 ADD SWAP2 PUSH2 0x3CC JUMP JUMPDEST DUP3 ADD SWAP2 SWAP1 PUSH0 MSTORE PUSH1 0x20 PUSH0 KECCAK256 SWAP1 JUMPDEST DUP2 SLOAD DUP2 MSTORE SWAP1 PUSH1 0x1 ADD SWAP1 PUSH1 0x20 ADD DUP1 DUP4 GT PUSH2 0x3AF JUMPI DUP3 SWAP1 SUB PUSH1 0x1F AND DUP3 ADD SWAP2 JUMPDEST POP POP POP POP POP SWAP1 DUP1 PUSH1 0x2 ADD SLOAD SWAP1 DUP1 PUSH1 0x3 ADD SLOAD SWAP1 DUP1 PUSH1 0x4 ADD SLOAD SWAP1 DUP1 PUSH1 0x5 ADD SLOAD SWAP1 DUP1 PUSH1 0x6 ADD PUSH0 SWAP1 SLOAD SWAP1 PUSH2 0x100 EXP SWAP1 DIV PUSH1 0xFF AND SWAP1 POP DUP8 JUMP JUMPDEST PUSH1 0x1 PUSH0 SWAP1 SLOAD SWAP1 PUSH2 0x100 EXP SWAP1 DIV PUSH20 0xFFFFFFFFFFFFFFFFFFFFFFFFFFFFFFFFFFFFFFFF AND PUSH20 0xFFFFFFFFFFFFFFFFFFFFFFFFFFFFFFFFFFFFFFFF AND CALLER PUSH20 0xFFFFFFFFFFFFFFFFFFFFFFFFFFFFFFFFFFFFFFFF AND EQ PUSH2 0x48F JUMPI PUSH1 0x40 MLOAD PUSH32 0x8C379A000000000000000000000000000000000000000000000000000000000 DUP2 MSTORE PUSH1 0x4 ADD PUSH2 0x486 SWAP1 PUSH2 0x1427 JUMP JUMPDEST PUSH1 0x40 MLOAD DUP1 SWAP2 SUB SWAP1 REVERT JUMPDEST PUSH0 PUSH1 0x8 PUSH0 DUP4 DUP2 MSTORE PUSH1 0x20 ADD SWAP1 DUP2 MSTORE PUSH1 0x20 ADD PUSH0 KECCAK256 SWAP1 POP DUP1 PUSH1 0x3 ADD SLOAD TIMESTAMP LT ISZERO PUSH2 0x4EA JUMPI PUSH1 0x40 MLOAD PUSH32 0x8C379A000000000000000000000000000000000000000000000000000000000 DUP2 MSTORE PUSH1 0x4 ADD PUSH2 0x4E1 SWAP1 PUSH2 0x14B5 JUMP JUMPDEST PUSH1 0x40 MLOAD DUP1 SWAP2 SUB SWAP1 REVERT JUMPDEST DUP1 PUSH1 0x6 ADD PUSH0 SWAP1 SLOAD SWAP1 PUSH2 0x100 EXP SWAP1 DIV PUSH1 0xFF AND ISZERO PUSH2 0x53B JUMPI PUSH1 0x40 MLOAD PUSH32 0x8C379A000000000000000000000000000000000000000000000000000000000 DUP2 MSTORE PUSH1 0x4 ADD PUSH2 0x532 SWAP1 PUSH2 0x1543 JUMP JUMPDEST PUSH1 0x40 MLOAD DUP1 SWAP2 SUB SWAP1 REVERT JUMPDEST PUSH0 DUP2 PUSH1 0x5 ADD SLOAD DUP3 PUSH1 0x4 ADD SLOAD PUSH2 0x550 SWAP2 SWAP1 PUSH2 0x158E JUMP JUMPDEST SWAP1 POP PUSH1 0x3 SLOAD DUP2 LT ISZERO PUSH2 0x597 JUMPI PUSH1 0x40 MLOAD PUSH32 0x8C379A000000000000000000000000000000000000000000000000000000000 DUP2 MSTORE PUSH1 0x4 ADD PUSH2 0x58E SWAP1 PUSH2 0x160B JUMP JUMPDEST PUSH1 0x40 MLOAD DUP1 SWAP2 SUB SWAP1 REVERT JUMPDEST DUP2 PUSH1 0x5 ADD SLOAD DUP3 PUSH1 0x4 ADD SLOAD GT ISZERO PUSH2 0x5FB JUMPI PUSH1 0x1 DUP3 PUSH1 0x6 ADD PUSH0 PUSH2 0x100 EXP DUP2 SLOAD DUP2 PUSH1 0xFF MUL NOT AND SWAP1 DUP4 ISZERO ISZERO MUL OR SWAP1 SSTORE POP PUSH32 0x712AE1383F79AC853F8D882153778E0260EF8F03B504E2866E0593E04D2B291F DUP4 PUSH1 0x40 MLOAD PUSH2 0x5F2 SWAP2 SWAP1 PUSH2 0xEAE JUMP JUMPDEST PUSH1 0x40 MLOAD DUP1 SWAP2 SUB SWAP1 LOG1 JUMPDEST PUSH0 PUSH1 0x5 PUSH0 PUSH2 0x100 EXP DUP2 SLOAD DUP2 PUSH1 0xFF MUL NOT AND SWAP1 DUP4 ISZERO ISZERO MUL OR SWAP1 SSTORE POP POP POP POP JUMP JUMPDEST PUSH1 0x7 SLOAD DUP2 JUMP JUMPDEST PUSH1 0x3 SLOAD DUP2 JUMP JUMPDEST DUP1 PUSH1 0x9 PUSH0 CALLER PUSH20 0xFFFFFFFFFFFFFFFFFFFFFFFFFFFFFFFFFFFFFFFF AND PUSH20 0xFFFFFFFFFFFFFFFFFFFFFFFFFFFFFFFFFFFFFFFF AND DUP2 MSTORE PUSH1 0x20 ADD SWAP1 DUP2 MSTORE PUSH1 0x20 ADD PUSH0 KECCAK256 SLOAD LT ISZERO PUSH2 0x6A5 JUMPI PUSH1 0x40 MLOAD PUSH32 0x8C379A000000000000000000000000000000000000000000000000000000000 DUP2 MSTORE PUSH1 0x4 ADD PUSH2 0x69C SWAP1 PUSH2 0x1673 JUMP JUMPDEST PUSH1 0x40 MLOAD DUP1 SWAP2 SUB SWAP1 REVERT JUMPDEST DUP1 PUSH1 0x9 PUSH0 CALLER PUSH20 0xFFFFFFFFFFFFFFFFFFFFFFFFFFFFFFFFFFFFFFFF AND PUSH20 0xFFFFFFFFFFFFFFFFFFFFFFFFFFFFFFFFFFFFFFFF AND DUP2 MSTORE PUSH1 0x20 ADD SWAP1 DUP2 MSTORE PUSH1 0x20 ADD PUSH0 KECCAK256 PUSH0 DUP3 DUP3 SLOAD PUSH2 0x6F1 SWAP2 SWAP1 PUSH2 0x1691 JUMP JUMPDEST SWAP3 POP POP DUP2 SWAP1 SSTORE POP PUSH0 DUP1 SLOAD SWAP1 PUSH2 0x100 EXP SWAP1 DIV PUSH20 0xFFFFFFFFFFFFFFFFFFFFFFFFFFFFFFFFFFFFFFFF AND PUSH20 0xFFFFFFFFFFFFFFFFFFFFFFFFFFFFFFFFFFFFFFFF AND PUSH4 0xA9059CBB CALLER DUP4 PUSH1 0x40 MLOAD DUP4 PUSH4 0xFFFFFFFF AND PUSH1 0xE0 SHL DUP2 MSTORE PUSH1 0x4 ADD PUSH2 0x752 SWAP3 SWAP2 SWAP1 PUSH2 0x16C4 JUMP JUMPDEST PUSH1 0x20 PUSH1 0x40 MLOAD DUP1 DUP4 SUB DUP2 PUSH0 DUP8 GAS CALL ISZERO DUP1 ISZERO PUSH2 0x76E JUMPI RETURNDATASIZE PUSH0 DUP1 RETURNDATACOPY RETURNDATASIZE PUSH0 REVERT JUMPDEST POP POP POP POP PUSH1 0x40 MLOAD RETURNDATASIZE PUSH1 0x1F NOT PUSH1 0x1F DUP3 ADD AND DUP3 ADD DUP1 PUSH1 0x40 MSTORE POP DUP2 ADD SWAP1 PUSH2 0x792 SWAP2 SWAP1 PUSH2 0x16FF JUMP JUMPDEST PUSH2 0x7D1 JUMPI PUSH1 0x40 MLOAD PUSH32 0x8C379A000000000000000000000000000000000000000000000000000000000 DUP2 MSTORE PUSH1 0x4 ADD PUSH2 0x7C8 SWAP1 PUSH2 0x1774 JUMP JUMPDEST PUSH1 0x40 MLOAD DUP1 SWAP2 SUB SWAP1 REVERT JUMPDEST POP JUMP JUMPDEST PUSH1 0x1 PUSH0 SWAP1 SLOAD SWAP1 PUSH2 0x100 EXP SWAP1 DIV PUSH20 0xFFFFFFFFFFFFFFFFFFFFFFFFFFFFFFFFFFFFFFFF AND PUSH20 0xFFFFFFFFFFFFFFFFFFFFFFFFFFFFFFFFFFFFFFFF AND CALLER PUSH20 0xFFFFFFFFFFFFFFFFFFFFFFFFFFFFFFFFFFFFFFFF AND EQ PUSH2 0x863 JUMPI PUSH1 0x40 MLOAD PUSH32 0x8C379A000000000000000000000000000000000000000000000000000000000 DUP2 MSTORE PUSH1 0x4 ADD PUSH2 0x85A SWAP1 PUSH2 0x1427 JUMP JUMPDEST PUSH1 0x40 MLOAD DUP1 SWAP2 SUB SWAP1 REVERT JUMPDEST PUSH1 0x5 PUSH0 SWAP1 SLOAD SWAP1 PUSH2 0x100 EXP SWAP1 DIV PUSH1 0xFF AND ISZERO PUSH2 0x8B2 JUMPI PUSH1 0x40 MLOAD PUSH32 0x8C379A000000000000000000000000000000000000000000000000000000000 DUP2 MSTORE PUSH1 0x4 ADD PUSH2 0x8A9 SWAP1 PUSH2 0x17DC JUMP JUMPDEST PUSH1 0x40 MLOAD DUP1 SWAP2 SUB SWAP1 REVERT JUMPDEST PUSH1 0x6 PUSH0 DUP2 SLOAD DUP1 SWAP3 SWAP2 SWAP1 PUSH2 0x8C4 SWAP1 PUSH2 0x17FA JUMP JUMPDEST SWAP2 SWAP1 POP SSTORE POP PUSH1 0x40 MLOAD DUP1 PUSH1 0xE0 ADD PUSH1 0x40 MSTORE DUP1 PUSH1 0x6 SLOAD DUP2 MSTORE PUSH1 0x20 ADD DUP3 DUP2 MSTORE PUSH1 0x20 ADD TIMESTAMP DUP2 MSTORE PUSH1 0x20 ADD PUSH2 0x8F0 PUSH2 0xE75 JUMP JUMPDEST TIMESTAMP PUSH2 0x8FB SWAP2 SWAP1 PUSH2 0x158E JUMP JUMPDEST DUP2 MSTORE PUSH1 0x20 ADD PUSH0 DUP2 MSTORE PUSH1 0x20 ADD PUSH0 DUP2 MSTORE PUSH1 0x20 ADD PUSH0 ISZERO ISZERO DUP2 MSTORE POP PUSH1 0x8 PUSH0 PUSH1 0x6 SLOAD DUP2 MSTORE PUSH1 0x20 ADD SWAP1 DUP2 MSTORE PUSH1 0x20 ADD PUSH0 KECCAK256 PUSH0 DUP3 ADD MLOAD DUP2 PUSH0 ADD SSTORE PUSH1 0x20 DUP3 ADD MLOAD DUP2 PUSH1 0x1 ADD SWAP1 DUP2 PUSH2 0x942 SWAP2 SWAP1 PUSH2 0x19D5 JUMP JUMPDEST POP PUSH1 0x40 DUP3 ADD MLOAD DUP2 PUSH1 0x2 ADD SSTORE PUSH1 0x60 DUP3 ADD MLOAD DUP2 PUSH1 0x3 ADD SSTORE PUSH1 0x80 DUP3 ADD MLOAD DUP2 PUSH1 0x4 ADD SSTORE PUSH1 0xA0 DUP3 ADD MLOAD DUP2 PUSH1 0x5 ADD SSTORE PUSH1 0xC0 DUP3 ADD MLOAD DUP2 PUSH1 0x6 ADD PUSH0 PUSH2 0x100 EXP DUP2 SLOAD DUP2 PUSH1 0xFF MUL NOT AND SWAP1 DUP4 ISZERO ISZERO MUL OR SWAP1 SSTORE POP SWAP1 POP POP PUSH32 0xDC252F306703B21A06942A9125A974DA8820BA330C08939ECE178742BBC439A7 PUSH1 0x6 SLOAD DUP3 CALLER PUSH1 0x40 MLOAD PUSH2 0x9C2 SWAP4 SWAP3 SWAP2 SWAP1 PUSH2 0x1AA4 JUMP JUMPDEST PUSH1 0x40 MLOAD DUP1 SWAP2 SUB SWAP1 LOG1 PUSH1 0x1 PUSH1 0x5 PUSH0 PUSH2 0x100 EXP DUP2 SLOAD DUP2 PUSH1 0xFF MUL NOT AND SWAP1 DUP4 ISZERO ISZERO MUL OR SWAP1 SSTORE POP POP JUMP JUMPDEST PUSH0 DUP1 SLOAD SWAP1 PUSH2 0x100 EXP SWAP1 DIV PUSH20 0xFFFFFFFFFFFFFFFFFFFFFFFFFFFFFFFFFFFFFFFF AND DUP2 JUMP JUMPDEST PUSH1 0x9 PUSH1 0x20 MSTORE DUP1 PUSH0 MSTORE PUSH1 0x40 PUSH0 KECCAK256 PUSH0 SWAP2 POP SWAP1 POP SLOAD DUP2 JUMP JUMPDEST PUSH0 PUSH1 0x8 PUSH0 PUSH1 0x6 SLOAD DUP2 MSTORE PUSH1 0x20 ADD SWAP1 DUP2 MSTORE PUSH1 0x20 ADD PUSH0 KECCAK256 PUSH1 0x3 ADD SLOAD TIMESTAMP LT ISZERO PUSH2 0xA46 JUMPI PUSH0 SWAP1 POP PUSH2 0xB13 JUMP JUMPDEST PUSH0 PUSH1 0x8 PUSH0 PUSH1 0x6 SLOAD DUP2 MSTORE PUSH1 0x20 ADD SWAP1 DUP2 MSTORE PUSH1 0x20 ADD PUSH0 KECCAK256 PUSH1 0x5 ADD SLOAD PUSH1 0x8 PUSH0 PUSH1 0x6 SLOAD DUP2 MSTORE PUSH1 0x20 ADD SWAP1 DUP2 MSTORE PUSH1 0x20 ADD PUSH0 KECCAK256 PUSH1 0x4 ADD SLOAD PUSH2 0xA7F SWAP2 SWAP1 PUSH2 0x158E JUMP JUMPDEST SWAP1 POP PUSH1 0x3 SLOAD DUP2 LT ISZERO PUSH2 0xA94 JUMPI PUSH0 SWAP2 POP POP PUSH2 0xB13 JUMP JUMPDEST PUSH1 0x8 PUSH0 PUSH1 0x6 SLOAD DUP2 MSTORE PUSH1 0x20 ADD SWAP1 DUP2 MSTORE PUSH1 0x20 ADD PUSH0 KECCAK256 PUSH1 0x5 ADD SLOAD PUSH1 0x8 PUSH0 PUSH1 0x6 SLOAD DUP2 MSTORE PUSH1 0x20 ADD SWAP1 DUP2 MSTORE PUSH1 0x20 ADD PUSH0 KECCAK256 PUSH1 0x4 ADD SLOAD GT ISZERO PUSH2 0xB0E JUMPI PUSH1 0x9 PUSH0 CALLER PUSH20 0xFFFFFFFFFFFFFFFFFFFFFFFFFFFFFFFFFFFFFFFF AND PUSH20 0xFFFFFFFFFFFFFFFFFFFFFFFFFFFFFFFFFFFFFFFF AND DUP2 MSTORE PUSH1 0x20 ADD SWAP1 DUP2 MSTORE PUSH1 0x20 ADD PUSH0 KECCAK256 SLOAD SWAP2 POP POP PUSH2 0xB13 JUMP JUMPDEST PUSH0 SWAP2 POP POP JUMPDEST SWAP1 JUMP JUMPDEST PUSH1 0x1 PUSH0 SWAP1 SLOAD SWAP1 PUSH2 0x100 EXP SWAP1 DIV PUSH20 0xFFFFFFFFFFFFFFFFFFFFFFFFFFFFFFFFFFFFFFFF AND DUP2 JUMP JUMPDEST PUSH1 0x5 PUSH0 SWAP1 SLOAD SWAP1 PUSH2 0x100 EXP SWAP1 DIV PUSH1 0xFF AND PUSH2 0xB89 JUMPI PUSH1 0x40 MLOAD PUSH32 0x8C379A000000000000000000000000000000000000000000000000000000000 DUP2 MSTORE PUSH1 0x4 ADD PUSH2 0xB80 SWAP1 PUSH2 0x1B50 JUMP JUMPDEST PUSH1 0x40 MLOAD DUP1 SWAP2 SUB SWAP1 REVERT JUMPDEST PUSH1 0x4 SLOAD PUSH1 0x9 PUSH0 CALLER PUSH20 0xFFFFFFFFFFFFFFFFFFFFFFFFFFFFFFFFFFFFFFFF AND PUSH20 0xFFFFFFFFFFFFFFFFFFFFFFFFFFFFFFFFFFFFFFFF AND DUP2 MSTORE PUSH1 0x20 ADD SWAP1 DUP2 MSTORE PUSH1 0x20 ADD PUSH0 KECCAK256 SLOAD LT ISZERO PUSH2 0xC0B JUMPI PUSH1 0x40 MLOAD PUSH32 0x8C379A000000000000000000000000000000000000000000000000000000000 DUP2 MSTORE PUSH1 0x4 ADD PUSH2 0xC02 SWAP1 PUSH2 0x1BB8 JUMP JUMPDEST PUSH1 0x40 MLOAD DUP1 SWAP2 SUB SWAP1 REVERT JUMPDEST PUSH0 PUSH1 0x8 PUSH0 DUP5 DUP2 MSTORE PUSH1 0x20 ADD SWAP1 DUP2 MSTORE PUSH1 0x20 ADD PUSH0 KECCAK256 SWAP1 POP DUP1 PUSH1 0x3 ADD SLOAD TIMESTAMP LT PUSH2 0xC65 JUMPI PUSH1 0x40 MLOAD PUSH32 0x8C379A000000000000000000000000000000000000000000000000000000000 DUP2 MSTORE PUSH1 0x4 ADD PUSH2 0xC5C SWAP1 PUSH2 0x1C46 JUMP JUMPDEST PUSH1 0x40 MLOAD DUP1 SWAP2 SUB SWAP1 REVERT JUMPDEST PUSH1 0x4 SLOAD PUSH1 0x9 PUSH0 CALLER PUSH20 0xFFFFFFFFFFFFFFFFFFFFFFFFFFFFFFFFFFFFFFFF AND PUSH20 0xFFFFFFFFFFFFFFFFFFFFFFFFFFFFFFFFFFFFFFFF AND DUP2 MSTORE PUSH1 0x20 ADD SWAP1 DUP2 MSTORE PUSH1 0x20 ADD PUSH0 KECCAK256 PUSH0 DUP3 DUP3 SLOAD PUSH2 0xCB3 SWAP2 SWAP1 PUSH2 0x1691 JUMP JUMPDEST SWAP3 POP POP DUP2 SWAP1 SSTORE POP DUP2 ISZERO PUSH2 0xCE1 JUMPI PUSH1 0x4 SLOAD DUP2 PUSH1 0x4 ADD PUSH0 DUP3 DUP3 SLOAD PUSH2 0xCD5 SWAP2 SWAP1 PUSH2 0x158E JUMP JUMPDEST SWAP3 POP POP DUP2 SWAP1 SSTORE POP PUSH2 0xCFE JUMP JUMPDEST PUSH1 0x4 SLOAD DUP2 PUSH1 0x5 ADD PUSH0 DUP3 DUP3 SLOAD PUSH2 0xCF6 SWAP2 SWAP1 PUSH2 0x158E JUMP JUMPDEST SWAP3 POP POP DUP2 SWAP1 SSTORE POP JUMPDEST PUSH32 0xF2913DBE661EE2ACC4A046D8FBCDC792373BDA34C41C6086484B5345E5785E5F DUP4 CALLER DUP5 PUSH1 0x40 MLOAD PUSH2 0xD31 SWAP4 SWAP3 SWAP2 SWAP1 PUSH2 0x1C64 JUMP JUMPDEST PUSH1 0x40 MLOAD DUP1 SWAP2 SUB SWAP1 LOG1 POP POP POP JUMP JUMPDEST PUSH1 0x2 SLOAD DUP2 JUMP JUMPDEST PUSH0 DUP1 SLOAD SWAP1 PUSH2 0x100 EXP SWAP1 DIV PUSH20 0xFFFFFFFFFFFFFFFFFFFFFFFFFFFFFFFFFFFFFFFF AND PUSH20 0xFFFFFFFFFFFFFFFFFFFFFFFFFFFFFFFFFFFFFFFF AND PUSH4 0x23B872DD CALLER ADDRESS DUP5 PUSH1 0x40 MLOAD DUP5 PUSH4 0xFFFFFFFF AND PUSH1 0xE0 SHL DUP2 MSTORE PUSH1 0x4 ADD PUSH2 0xDA0 SWAP4 SWAP3 SWAP2 SWAP1 PUSH2 0x1C99 JUMP JUMPDEST PUSH1 0x20 PUSH1 0x40 MLOAD DUP1 DUP4 SUB DUP2 PUSH0 DUP8 GAS CALL ISZERO DUP1 ISZERO PUSH2 0xDBC JUMPI RETURNDATASIZE PUSH0 DUP1 RETURNDATACOPY RETURNDATASIZE PUSH0 REVERT JUMPDEST POP POP POP POP PUSH1 0x40 MLOAD RETURNDATASIZE PUSH1 0x1F NOT PUSH1 0x1F DUP3 ADD AND DUP3 ADD DUP1 PUSH1 0x40 MSTORE POP DUP2 ADD SWAP1 PUSH2 0xDE0 SWAP2 SWAP1 PUSH2 0x16FF JUMP JUMPDEST PUSH2 0xE1F JUMPI PUSH1 0x40 MLOAD PUSH32 0x8C379A000000000000000000000000000000000000000000000000000000000 DUP2 MSTORE PUSH1 0x4 ADD PUSH2 0xE16 SWAP1 PUSH2 0x1774 JUMP JUMPDEST PUSH1 0x40 MLOAD DUP1 SWAP2 SUB SWAP1 REVERT JUMPDEST DUP1 PUSH1 0x9 PUSH0 CALLER PUSH20 0xFFFFFFFFFFFFFFFFFFFFFFFFFFFFFFFFFFFFFFFF AND PUSH20 0xFFFFFFFFFFFFFFFFFFFFFFFFFFFFFFFFFFFFFFFF AND DUP2 MSTORE PUSH1 0x20 ADD SWAP1 DUP2 MSTORE PUSH1 0x20 ADD PUSH0 KECCAK256 PUSH0 DUP3 DUP3 SLOAD PUSH2 0xE6B SWAP2 SWAP1 PUSH2 0x158E JUMP JUMPDEST SWAP3 POP POP DUP2 SWAP1 SSTORE POP POP JUMP JUMPDEST PUSH0 PUSH1 0x7 SLOAD SWAP1 POP SWAP1 JUMP JUMPDEST PUSH1 0x5 PUSH0 SWAP1 SLOAD SWAP1 PUSH2 0x100 EXP SWAP1 DIV PUSH1 0xFF AND DUP2 JUMP JUMPDEST PUSH1 0x6 SLOAD DUP2 JUMP JUMPDEST PUSH0 DUP2 SWAP1 POP SWAP2 SWAP1 POP JUMP JUMPDEST PUSH2 0xEA8 DUP2 PUSH2 0xE96 JUMP JUMPDEST DUP3 MSTORE POP POP JUMP JUMPDEST PUSH0 PUSH1 0x20 DUP3 ADD SWAP1 POP PUSH2 0xEC1 PUSH0 DUP4 ADD DUP5 PUSH2 0xE9F JUMP JUMPDEST SWAP3 SWAP2 POP POP JUMP JUMPDEST PUSH0 PUSH1 0x40 MLOAD SWAP1 POP SWAP1 JUMP JUMPDEST PUSH0 DUP1 REVERT JUMPDEST PUSH0 DUP1 REVERT JUMPDEST PUSH2 0xEE1 DUP2 PUSH2 0xE96 JUMP JUMPDEST DUP2 EQ PUSH2 0xEEB JUMPI PUSH0 DUP1 REVERT JUMPDEST POP JUMP JUMPDEST PUSH0 DUP2 CALLDATALOAD SWAP1 POP PUSH2 0xEFC DUP2 PUSH2 0xED8 JUMP JUMPDEST SWAP3 SWAP2 POP POP JUMP JUMPDEST PUSH0 PUSH1 0x20 DUP3 DUP5 SUB SLT ISZERO PUSH2 0xF17 JUMPI PUSH2 0xF16 PUSH2 0xED0 JUMP JUMPDEST JUMPDEST PUSH0 PUSH2 0xF24 DUP5 DUP3 DUP6 ADD PUSH2 0xEEE JUMP JUMPDEST SWAP2 POP POP SWAP3 SWAP2 POP POP JUMP JUMPDEST PUSH0 DUP2 MLOAD SWAP1 POP SWAP2 SWAP1 POP JUMP JUMPDEST PUSH0 DUP3 DUP3 MSTORE PUSH1 0x20 DUP3 ADD SWAP1 POP SWAP3 SWAP2 POP POP JUMP JUMPDEST PUSH0 JUMPDEST DUP4 DUP2 LT ISZERO PUSH2 0xF64 JUMPI DUP1 DUP3 ADD MLOAD DUP2 DUP5 ADD MSTORE PUSH1 0x20 DUP2 ADD SWAP1 POP PUSH2 0xF49 JUMP JUMPDEST PUSH0 DUP5 DUP5 ADD MSTORE POP POP POP POP JUMP JUMPDEST PUSH0 PUSH1 0x1F NOT PUSH1 0x1F DUP4 ADD AND SWAP1 POP SWAP2 SWAP1 POP JUMP JUMPDEST PUSH0 PUSH2 0xF89 DUP3 PUSH2 0xF2D JUMP JUMPDEST PUSH2 0xF93 DUP2 DUP6 PUSH2 0xF37 JUMP JUMPDEST SWAP4 POP PUSH2 0xFA3 DUP2 DUP6 PUSH1 0x20 DUP7 ADD PUSH2 0xF47 JUMP JUMPDEST PUSH2 0xFAC DUP2 PUSH2 0xF6F JUMP JUMPDEST DUP5 ADD SWAP2 POP POP SWAP3 SWAP2 POP POP JUMP JUMPDEST PUSH0 DUP2 ISZERO ISZERO SWAP1 POP SWAP2 SWAP1 POP JUMP JUMPDEST PUSH2 0xFCB DUP2 PUSH2 0xFB7 JUMP JUMPDEST DUP3 MSTORE POP POP JUMP JUMPDEST PUSH0 PUSH1 0xE0 DUP3 ADD SWAP1 POP PUSH2 0xFE4 PUSH0 DUP4 ADD DUP11 PUSH2 0xE9F JUMP JUMPDEST DUP2 DUP2 SUB PUSH1 0x20 DUP4 ADD MSTORE PUSH2 0xFF6 DUP2 DUP10 PUSH2 0xF7F JUMP JUMPDEST SWAP1 POP PUSH2 0x1005 PUSH1 0x40 DUP4 ADD DUP9 PUSH2 0xE9F JUMP JUMPDEST PUSH2 0x1012 PUSH1 0x60 DUP4 ADD DUP8 PUSH2 0xE9F JUMP JUMPDEST PUSH2 0x101F PUSH1 0x80 DUP4 ADD DUP7 PUSH2 0xE9F JUMP JUMPDEST PUSH2 0x102C PUSH1 0xA0 DUP4 ADD DUP6 PUSH2 0xE9F JUMP JUMPDEST PUSH2 0x1039 PUSH1 0xC0 DUP4 ADD DUP5 PUSH2 0xFC2 JUMP JUMPDEST SWAP9 SWAP8 POP POP POP POP POP POP POP POP JUMP JUMPDEST PUSH0 DUP1 REVERT JUMPDEST PUSH0 DUP1 REVERT JUMPDEST PUSH32 0x4E487B7100000000000000000000000000000000000000000000000000000000 PUSH0 MSTORE PUSH1 0x41 PUSH1 0x4 MSTORE PUSH1 0x24 PUSH0 REVERT JUMPDEST PUSH2 0x1083 DUP3 PUSH2 0xF6F JUMP JUMPDEST DUP2 ADD DUP2 DUP2 LT PUSH8 0xFFFFFFFFFFFFFFFF DUP3 GT OR ISZERO PUSH2 0x10A2 JUMPI PUSH2 0x10A1 PUSH2 0x104D JUMP JUMPDEST JUMPDEST DUP1 PUSH1 0x40 MSTORE POP POP POP JUMP JUMPDEST PUSH0 PUSH2 0x10B4 PUSH2 0xEC7 JUMP JUMPDEST SWAP1 POP PUSH2 0x10C0 DUP3 DUP3 PUSH2 0x107A JUMP JUMPDEST SWAP2 SWAP1 POP JUMP JUMPDEST PUSH0 PUSH8 0xFFFFFFFFFFFFFFFF DUP3 GT ISZERO PUSH2 0x10DF JUMPI PUSH2 0x10DE PUSH2 0x104D JUMP JUMPDEST JUMPDEST PUSH2 0x10E8 DUP3 PUSH2 0xF6F JUMP JUMPDEST SWAP1 POP PUSH1 0x20 DUP2 ADD SWAP1 POP SWAP2 SWAP1 POP JUMP JUMPDEST DUP3 DUP2 DUP4 CALLDATACOPY PUSH0 DUP4 DUP4 ADD MSTORE POP POP POP JUMP JUMPDEST PUSH0 PUSH2 0x1115 PUSH2 0x1110 DUP5 PUSH2 0x10C5 JUMP JUMPDEST PUSH2 0x10AB JUMP JUMPDEST SWAP1 POP DUP3 DUP2 MSTORE PUSH1 0x20 DUP2 ADD DUP5 DUP5 DUP5 ADD GT ISZERO PUSH2 0x1131 JUMPI PUSH2 0x1130 PUSH2 0x1049 JUMP JUMPDEST JUMPDEST PUSH2 0x113C DUP5 DUP3 DUP6 PUSH2 0x10F5 JUMP JUMPDEST POP SWAP4 SWAP3 POP POP POP JUMP JUMPDEST PUSH0 DUP3 PUSH1 0x1F DUP4 ADD SLT PUSH2 0x1158 JUMPI PUSH2 0x1157 PUSH2 0x1045 JUMP JUMPDEST JUMPDEST DUP2 CALLDATALOAD PUSH2 0x1168 DUP5 DUP3 PUSH1 0x20 DUP7 ADD PUSH2 0x1103 JUMP JUMPDEST SWAP2 POP POP SWAP3 SWAP2 POP POP JUMP JUMPDEST PUSH0 PUSH1 0x20 DUP3 DUP5 SUB SLT ISZERO PUSH2 0x1186 JUMPI PUSH2 0x1185 PUSH2 0xED0 JUMP JUMPDEST JUMPDEST PUSH0 DUP3 ADD CALLDATALOAD PUSH8 0xFFFFFFFFFFFFFFFF DUP2 GT ISZERO PUSH2 0x11A3 JUMPI PUSH2 0x11A2 PUSH2 0xED4 JUMP JUMPDEST JUMPDEST PUSH2 0x11AF DUP5 DUP3 DUP6 ADD PUSH2 0x1144 JUMP JUMPDEST SWAP2 POP POP SWAP3 SWAP2 POP POP JUMP JUMPDEST PUSH0 PUSH20 0xFFFFFFFFFFFFFFFFFFFFFFFFFFFFFFFFFFFFFFFF DUP3 AND SWAP1 POP SWAP2 SWAP1 POP JUMP JUMPDEST PUSH0 DUP2 SWAP1 POP SWAP2 SWAP1 POP JUMP JUMPDEST PUSH0 PUSH2 0x11FA PUSH2 0x11F5 PUSH2 0x11F0 DUP5 PUSH2 0x11B8 JUMP JUMPDEST PUSH2 0x11D7 JUMP JUMPDEST PUSH2 0x11B8 JUMP JUMPDEST SWAP1 POP SWAP2 SWAP1 POP JUMP JUMPDEST PUSH0 PUSH2 0x120B DUP3 PUSH2 0x11E0 JUMP JUMPDEST SWAP1 POP SWAP2 SWAP1 POP JUMP JUMPDEST PUSH0 PUSH2 0x121C DUP3 PUSH2 0x1201 JUMP JUMPDEST SWAP1 POP SWAP2 SWAP1 POP JUMP JUMPDEST PUSH2 0x122C DUP2 PUSH2 0x1212 JUMP JUMPDEST DUP3 MSTORE POP POP JUMP JUMPDEST PUSH0 PUSH1 0x20 DUP3 ADD SWAP1 POP PUSH2 0x1245 PUSH0 DUP4 ADD DUP5 PUSH2 0x1223 JUMP JUMPDEST SWAP3 SWAP2 POP POP JUMP JUMPDEST PUSH0 PUSH2 0x1255 DUP3 PUSH2 0x11B8 JUMP JUMPDEST SWAP1 POP SWAP2 SWAP1 POP JUMP JUMPDEST PUSH2 0x1265 DUP2 PUSH2 0x124B JUMP JUMPDEST DUP2 EQ PUSH2 0x126F JUMPI PUSH0 DUP1 REVERT JUMPDEST POP JUMP JUMPDEST PUSH0 DUP2 CALLDATALOAD SWAP1 POP PUSH2 0x1280 DUP2 PUSH2 0x125C JUMP JUMPDEST SWAP3 SWAP2 POP POP JUMP JUMPDEST PUSH0 PUSH1 0x20 DUP3 DUP5 SUB SLT ISZERO PUSH2 0x129B JUMPI PUSH2 0x129A PUSH2 0xED0 JUMP JUMPDEST JUMPDEST PUSH0 PUSH2 0x12A8 DUP5 DUP3 DUP6 ADD PUSH2 0x1272 JUMP JUMPDEST SWAP2 POP POP SWAP3 SWAP2 POP POP JUMP JUMPDEST PUSH2 0x12BA DUP2 PUSH2 0x124B JUMP JUMPDEST DUP3 MSTORE POP POP JUMP JUMPDEST PUSH0 PUSH1 0x20 DUP3 ADD SWAP1 POP PUSH2 0x12D3 PUSH0 DUP4 ADD DUP5 PUSH2 0x12B1 JUMP JUMPDEST SWAP3 SWAP2 POP POP JUMP JUMPDEST PUSH2 0x12E2 DUP2 PUSH2 0xFB7 JUMP JUMPDEST DUP2 EQ PUSH2 0x12EC JUMPI PUSH0 DUP1 REVERT JUMPDEST POP JUMP JUMPDEST PUSH0 DUP2 CALLDATALOAD SWAP1 POP PUSH2 0x12FD DUP2 PUSH2 0x12D9 JUMP JUMPDEST SWAP3 SWAP2 POP POP JUMP JUMPDEST PUSH0 DUP1 PUSH1 0x40 DUP4 DUP6 SUB SLT ISZERO PUSH2 0x1319 JUMPI PUSH2 0x1318 PUSH2 0xED0 JUMP JUMPDEST JUMPDEST PUSH0 PUSH2 0x1326 DUP6 DUP3 DUP7 ADD PUSH2 0xEEE JUMP JUMPDEST SWAP3 POP POP PUSH1 0x20 PUSH2 0x1337 DUP6 DUP3 DUP7 ADD PUSH2 0x12EF JUMP JUMPDEST SWAP2 POP POP SWAP3 POP SWAP3 SWAP1 POP JUMP JUMPDEST PUSH0 PUSH1 0x20 DUP3 ADD SWAP1 POP PUSH2 0x1354 PUSH0 DUP4 ADD DUP5 PUSH2 0xFC2 JUMP JUMPDEST SWAP3 SWAP2 POP POP JUMP JUMPDEST PUSH32 0x4E487B7100000000000000000000000000000000000000000000000000000000 PUSH0 MSTORE PUSH1 0x22 PUSH1 0x4 MSTORE PUSH1 0x24 PUSH0 REVERT JUMPDEST PUSH0 PUSH1 0x2 DUP3 DIV SWAP1 POP PUSH1 0x1 DUP3 AND DUP1 PUSH2 0x139E JUMPI PUSH1 0x7F DUP3 AND SWAP2 POP JUMPDEST PUSH1 0x20 DUP3 LT DUP2 SUB PUSH2 0x13B1 JUMPI PUSH2 0x13B0 PUSH2 0x135A JUMP JUMPDEST JUMPDEST POP SWAP2 SWAP1 POP JUMP JUMPDEST PUSH32 0x4F6E6C7920746865206F776E65722063616E20706572666F726D207468697320 PUSH0 DUP3 ADD MSTORE PUSH32 0x616374696F6E0000000000000000000000000000000000000000000000000000 PUSH1 0x20 DUP3 ADD MSTORE POP JUMP JUMPDEST PUSH0 PUSH2 0x1411 PUSH1 0x26 DUP4 PUSH2 0xF37 JUMP JUMPDEST SWAP2 POP PUSH2 0x141C DUP3 PUSH2 0x13B7 JUMP JUMPDEST PUSH1 0x40 DUP3 ADD SWAP1 POP SWAP2 SWAP1 POP JUMP JUMPDEST PUSH0 PUSH1 0x20 DUP3 ADD SWAP1 POP DUP2 DUP2 SUB PUSH0 DUP4 ADD MSTORE PUSH2 0x143E DUP2 PUSH2 0x1405 JUMP JUMPDEST SWAP1 POP SWAP2 SWAP1 POP JUMP JUMPDEST PUSH32 0x566F74696E67206973207374696C6C206F70656E20666F722074686973207072 PUSH0 DUP3 ADD MSTORE PUSH32 0x6F706F73616C0000000000000000000000000000000000000000000000000000 PUSH1 0x20 DUP3 ADD MSTORE POP JUMP JUMPDEST PUSH0 PUSH2 0x149F PUSH1 0x26 DUP4 PUSH2 0xF37 JUMP JUMPDEST SWAP2 POP PUSH2 0x14AA DUP3 PUSH2 0x1445 JUMP JUMPDEST PUSH1 0x40 DUP3 ADD SWAP1 POP SWAP2 SWAP1 POP JUMP JUMPDEST PUSH0 PUSH1 0x20 DUP3 ADD SWAP1 POP DUP2 DUP2 SUB PUSH0 DUP4 ADD MSTORE PUSH2 0x14CC DUP2 PUSH2 0x1493 JUMP JUMPDEST SWAP1 POP SWAP2 SWAP1 POP JUMP JUMPDEST PUSH32 0x50726F706F73616C2068617320616C7265616479206265656E20657865637574 PUSH0 DUP3 ADD MSTORE PUSH32 0x6564000000000000000000000000000000000000000000000000000000000000 PUSH1 0x20 DUP3 ADD MSTORE POP JUMP JUMPDEST PUSH0 PUSH2 0x152D PUSH1 0x22 DUP4 PUSH2 0xF37 JUMP JUMPDEST SWAP2 POP PUSH2 0x1538 DUP3 PUSH2 0x14D3 JUMP JUMPDEST PUSH1 0x40 DUP3 ADD SWAP1 POP SWAP2 SWAP1 POP JUMP JUMPDEST PUSH0 PUSH1 0x20 DUP3 ADD SWAP1 POP DUP2 DUP2 SUB PUSH0 DUP4 ADD MSTORE PUSH2 0x155A DUP2 PUSH2 0x1521 JUMP JUMPDEST SWAP1 POP SWAP2 SWAP1 POP JUMP JUMPDEST PUSH32 0x4E487B7100000000000000000000000000000000000000000000000000000000 PUSH0 MSTORE PUSH1 0x11 PUSH1 0x4 MSTORE PUSH1 0x24 PUSH0 REVERT JUMPDEST PUSH0 PUSH2 0x1598 DUP3 PUSH2 0xE96 JUMP JUMPDEST SWAP2 POP PUSH2 0x15A3 DUP4 PUSH2 0xE96 JUMP JUMPDEST SWAP3 POP DUP3 DUP3 ADD SWAP1 POP DUP1 DUP3 GT ISZERO PUSH2 0x15BB JUMPI PUSH2 0x15BA PUSH2 0x1561 JUMP JUMPDEST JUMPDEST SWAP3 SWAP2 POP POP JUMP JUMPDEST PUSH32 0x51756F72756D206E6F74206D6574000000000000000000000000000000000000 PUSH0 DUP3 ADD MSTORE POP JUMP JUMPDEST PUSH0 PUSH2 0x15F5 PUSH1 0xE DUP4 PUSH2 0xF37 JUMP JUMPDEST SWAP2 POP PUSH2 0x1600 DUP3 PUSH2 0x15C1 JUMP JUMPDEST PUSH1 0x20 DUP3 ADD SWAP1 POP SWAP2 SWAP1 POP JUMP JUMPDEST PUSH0 PUSH1 0x20 DUP3 ADD SWAP1 POP DUP2 DUP2 SUB PUSH0 DUP4 ADD MSTORE PUSH2 0x1622 DUP2 PUSH2 0x15E9 JUMP JUMPDEST SWAP1 POP SWAP2 SWAP1 POP JUMP JUMPDEST PUSH32 0x496E73756666696369656E742062616C616E6365000000000000000000000000 PUSH0 DUP3 ADD MSTORE POP JUMP JUMPDEST PUSH0 PUSH2 0x165D PUSH1 0x14 DUP4 PUSH2 0xF37 JUMP JUMPDEST SWAP2 POP PUSH2 0x1668 DUP3 PUSH2 0x1629 JUMP JUMPDEST PUSH1 0x20 DUP3 ADD SWAP1 POP SWAP2 SWAP1 POP JUMP JUMPDEST PUSH0 PUSH1 0x20 DUP3 ADD SWAP1 POP DUP2 DUP2 SUB PUSH0 DUP4 ADD MSTORE PUSH2 0x168A DUP2 PUSH2 0x1651 JUMP JUMPDEST SWAP1 POP SWAP2 SWAP1 POP JUMP JUMPDEST PUSH0 PUSH2 0x169B DUP3 PUSH2 0xE96 JUMP JUMPDEST SWAP2 POP PUSH2 0x16A6 DUP4 PUSH2 0xE96 JUMP JUMPDEST SWAP3 POP DUP3 DUP3 SUB SWAP1 POP DUP2 DUP2 GT ISZERO PUSH2 0x16BE JUMPI PUSH2 0x16BD PUSH2 0x1561 JUMP JUMPDEST JUMPDEST SWAP3 SWAP2 POP POP JUMP JUMPDEST PUSH0 PUSH1 0x40 DUP3 ADD SWAP1 POP PUSH2 0x16D7 PUSH0 DUP4 ADD DUP6 PUSH2 0x12B1 JUMP JUMPDEST PUSH2 0x16E4 PUSH1 0x20 DUP4 ADD DUP5 PUSH2 0xE9F JUMP JUMPDEST SWAP4 SWAP3 POP POP POP JUMP JUMPDEST PUSH0 DUP2 MLOAD SWAP1 POP PUSH2 0x16F9 DUP2 PUSH2 0x12D9 JUMP JUMPDEST SWAP3 SWAP2 POP POP JUMP JUMPDEST PUSH0 PUSH1 0x20 DUP3 DUP5 SUB SLT ISZERO PUSH2 0x1714 JUMPI PUSH2 0x1713 PUSH2 0xED0 JUMP JUMPDEST JUMPDEST PUSH0 PUSH2 0x1721 DUP5 DUP3 DUP6 ADD PUSH2 0x16EB JUMP JUMPDEST SWAP2 POP POP SWAP3 SWAP2 POP POP JUMP JUMPDEST PUSH32 0x546F6B656E207472616E73666572206661696C65640000000000000000000000 PUSH0 DUP3 ADD MSTORE POP JUMP JUMPDEST PUSH0 PUSH2 0x175E PUSH1 0x15 DUP4 PUSH2 0xF37 JUMP JUMPDEST SWAP2 POP PUSH2 0x1769 DUP3 PUSH2 0x172A JUMP JUMPDEST PUSH1 0x20 DUP3 ADD SWAP1 POP SWAP2 SWAP1 POP JUMP JUMPDEST PUSH0 PUSH1 0x20 DUP3 ADD SWAP1 POP DUP2 DUP2 SUB PUSH0 DUP4 ADD MSTORE PUSH2 0x178B DUP2 PUSH2 0x1752 JUMP JUMPDEST SWAP1 POP SWAP2 SWAP1 POP JUMP JUMPDEST PUSH32 0x546865726520697320616E206163746976652070726F706F73616C0000000000 PUSH0 DUP3 ADD MSTORE POP JUMP JUMPDEST PUSH0 PUSH2 0x17C6 PUSH1 0x1B DUP4 PUSH2 0xF37 JUMP JUMPDEST SWAP2 POP PUSH2 0x17D1 DUP3 PUSH2 0x1792 JUMP JUMPDEST PUSH1 0x20 DUP3 ADD SWAP1 POP SWAP2 SWAP1 POP JUMP JUMPDEST PUSH0 PUSH1 0x20 DUP3 ADD SWAP1 POP DUP2 DUP2 SUB PUSH0 DUP4 ADD MSTORE PUSH2 0x17F3 DUP2 PUSH2 0x17BA JUMP JUMPDEST SWAP1 POP SWAP2 SWAP1 POP JUMP JUMPDEST PUSH0 PUSH2 0x1804 DUP3 PUSH2 0xE96 JUMP JUMPDEST SWAP2 POP PUSH32 0xFFFFFFFFFFFFFFFFFFFFFFFFFFFFFFFFFFFFFFFFFFFFFFFFFFFFFFFFFFFFFFFF DUP3 SUB PUSH2 0x1836 JUMPI PUSH2 0x1835 PUSH2 0x1561 JUMP JUMPDEST JUMPDEST PUSH1 0x1 DUP3 ADD SWAP1 POP SWAP2 SWAP1 POP JUMP JUMPDEST PUSH0 DUP2 SWAP1 POP DUP2 PUSH0 MSTORE PUSH1 0x20 PUSH0 KECCAK256 SWAP1 POP SWAP2 SWAP1 POP JUMP JUMPDEST PUSH0 PUSH1 0x20 PUSH1 0x1F DUP4 ADD DIV SWAP1 POP SWAP2 SWAP1 POP JUMP JUMPDEST PUSH0 DUP3 DUP3 SHL SWAP1 POP SWAP3 SWAP2 POP POP JUMP JUMPDEST PUSH0 PUSH1 0x8 DUP4 MUL PUSH2 0x189D PUSH32 0xFFFFFFFFFFFFFFFFFFFFFFFFFFFFFFFFFFFFFFFFFFFFFFFFFFFFFFFFFFFFFFFF DUP3 PUSH2 0x1862 JUMP JUMPDEST PUSH2 0x18A7 DUP7 DUP4 PUSH2 0x1862 JUMP JUMPDEST SWAP6 POP DUP1 NOT DUP5 AND SWAP4 POP DUP1 DUP7 AND DUP5 OR SWAP3 POP POP POP SWAP4 SWAP3 POP POP POP JUMP JUMPDEST PUSH0 PUSH2 0x18D9 PUSH2 0x18D4 PUSH2 0x18CF DUP5 PUSH2 0xE96 JUMP JUMPDEST PUSH2 0x11D7 JUMP JUMPDEST PUSH2 0xE96 JUMP JUMPDEST SWAP1 POP SWAP2 SWAP1 POP JUMP JUMPDEST PUSH0 DUP2 SWAP1 POP SWAP2 SWAP1 POP JUMP JUMPDEST PUSH2 0x18F2 DUP4 PUSH2 0x18BF JUMP JUMPDEST PUSH2 0x1906 PUSH2 0x18FE DUP3 PUSH2 0x18E0 JUMP JUMPDEST DUP5 DUP5 SLOAD PUSH2 0x186E JUMP JUMPDEST DUP3 SSTORE POP POP POP POP JUMP JUMPDEST PUSH0 SWAP1 JUMP JUMPDEST PUSH2 0x191A PUSH2 0x190E JUMP JUMPDEST PUSH2 0x1925 DUP2 DUP5 DUP5 PUSH2 0x18E9 JUMP JUMPDEST POP POP POP JUMP JUMPDEST JUMPDEST DUP2 DUP2 LT ISZERO PUSH2 0x1948 JUMPI PUSH2 0x193D PUSH0 DUP3 PUSH2 0x1912 JUMP JUMPDEST PUSH1 0x1 DUP2 ADD SWAP1 POP PUSH2 0x192B JUMP JUMPDEST POP POP JUMP JUMPDEST PUSH1 0x1F DUP3 GT ISZERO PUSH2 0x198D JUMPI PUSH2 0x195E DUP2 PUSH2 0x1841 JUMP JUMPDEST PUSH2 0x1967 DUP5 PUSH2 0x1853 JUMP JUMPDEST DUP2 ADD PUSH1 0x20 DUP6 LT ISZERO PUSH2 0x1976 JUMPI DUP2 SWAP1 POP JUMPDEST PUSH2 0x198A PUSH2 0x1982 DUP6 PUSH2 0x1853 JUMP JUMPDEST DUP4 ADD DUP3 PUSH2 0x192A JUMP JUMPDEST POP POP JUMPDEST POP POP POP JUMP JUMPDEST PUSH0 DUP3 DUP3 SHR SWAP1 POP SWAP3 SWAP2 POP POP JUMP JUMPDEST PUSH0 PUSH2 0x19AD PUSH0 NOT DUP5 PUSH1 0x8 MUL PUSH2 0x1992 JUMP JUMPDEST NOT DUP1 DUP4 AND SWAP2 POP POP SWAP3 SWAP2 POP POP JUMP JUMPDEST PUSH0 PUSH2 0x19C5 DUP4 DUP4 PUSH2 0x199E JUMP JUMPDEST SWAP2 POP DUP3 PUSH1 0x2 MUL DUP3 OR SWAP1 POP SWAP3 SWAP2 POP POP JUMP JUMPDEST PUSH2 0x19DE DUP3 PUSH2 0xF2D JUMP JUMPDEST PUSH8 0xFFFFFFFFFFFFFFFF DUP2 GT ISZERO PUSH2 0x19F7 JUMPI PUSH2 0x19F6 PUSH2 0x104D JUMP JUMPDEST JUMPDEST PUSH2 0x1A01 DUP3 SLOAD PUSH2 0x1387 JUMP JUMPDEST PUSH2 0x1A0C DUP3 DUP3 DUP6 PUSH2 0x194C JUMP JUMPDEST PUSH0 PUSH1 0x20 SWAP1 POP PUSH1 0x1F DUP4 GT PUSH1 0x1 DUP2 EQ PUSH2 0x1A3D JUMPI PUSH0 DUP5 ISZERO PUSH2 0x1A2B JUMPI DUP3 DUP8 ADD MLOAD SWAP1 POP JUMPDEST PUSH2 0x1A35 DUP6 DUP3 PUSH2 0x19BA JUMP JUMPDEST DUP7 SSTORE POP PUSH2 0x1A9C JUMP JUMPDEST PUSH1 0x1F NOT DUP5 AND PUSH2 0x1A4B DUP7 PUSH2 0x1841 JUMP JUMPDEST PUSH0 JUMPDEST DUP3 DUP2 LT ISZERO PUSH2 0x1A72 JUMPI DUP5 DUP10 ADD MLOAD DUP3 SSTORE PUSH1 0x1 DUP3 ADD SWAP2 POP PUSH1 0x20 DUP6 ADD SWAP5 POP PUSH1 0x20 DUP2 ADD SWAP1 POP PUSH2 0x1A4D JUMP JUMPDEST DUP7 DUP4 LT ISZERO PUSH2 0x1A8F JUMPI DUP5 DUP10 ADD MLOAD PUSH2 0x1A8B PUSH1 0x1F DUP10 AND DUP3 PUSH2 0x199E JUMP JUMPDEST DUP4 SSTORE POP JUMPDEST PUSH1 0x1 PUSH1 0x2 DUP9 MUL ADD DUP9 SSTORE POP POP POP JUMPDEST POP POP POP POP POP POP JUMP JUMPDEST PUSH0 PUSH1 0x60 DUP3 ADD SWAP1 POP PUSH2 0x1AB7 PUSH0 DUP4 ADD DUP7 PUSH2 0xE9F JUMP JUMPDEST DUP2 DUP2 SUB PUSH1 0x20 DUP4 ADD MSTORE PUSH2 0x1AC9 DUP2 DUP6 PUSH2 0xF7F JUMP JUMPDEST SWAP1 POP PUSH2 0x1AD8 PUSH1 0x40 DUP4 ADD DUP5 PUSH2 0x12B1 JUMP JUMPDEST SWAP5 SWAP4 POP POP POP POP JUMP JUMPDEST PUSH32 0x566F74696E6720697320636C6F73656420666F72207468652063757272656E74 PUSH0 DUP3 ADD MSTORE PUSH32 0x2070726F706F73616C0000000000000000000000000000000000000000000000 PUSH1 0x20 DUP3 ADD MSTORE POP JUMP JUMPDEST PUSH0 PUSH2 0x1B3A PUSH1 0x29 DUP4 PUSH2 0xF37 JUMP JUMPDEST SWAP2 POP PUSH2 0x1B45 DUP3 PUSH2 0x1AE0 JUMP JUMPDEST PUSH1 0x40 DUP3 ADD SWAP1 POP SWAP2 SWAP1 POP JUMP JUMPDEST PUSH0 PUSH1 0x20 DUP3 ADD SWAP1 POP DUP2 DUP2 SUB PUSH0 DUP4 ADD MSTORE PUSH2 0x1B67 DUP2 PUSH2 0x1B2E JUMP JUMPDEST SWAP1 POP SWAP2 SWAP1 POP JUMP JUMPDEST PUSH32 0x496E73756666696369656E7420746F6B656E7320746F20766F74650000000000 PUSH0 DUP3 ADD MSTORE POP JUMP JUMPDEST PUSH0 PUSH2 0x1BA2 PUSH1 0x1B DUP4 PUSH2 0xF37 JUMP JUMPDEST SWAP2 POP PUSH2 0x1BAD DUP3 PUSH2 0x1B6E JUMP JUMPDEST PUSH1 0x20 DUP3 ADD SWAP1 POP SWAP2 SWAP1 POP JUMP JUMPDEST PUSH0 PUSH1 0x20 DUP3 ADD SWAP1 POP DUP2 DUP2 SUB PUSH0 DUP4 ADD MSTORE PUSH2 0x1BCF DUP2 PUSH2 0x1B96 JUMP JUMPDEST SWAP1 POP SWAP2 SWAP1 POP JUMP JUMPDEST PUSH32 0x566F74696E672068617320656E64656420666F7220746869732070726F706F73 PUSH0 DUP3 ADD MSTORE PUSH32 0x616C000000000000000000000000000000000000000000000000000000000000 PUSH1 0x20 DUP3 ADD MSTORE POP JUMP JUMPDEST PUSH0 PUSH2 0x1C30 PUSH1 0x22 DUP4 PUSH2 0xF37 JUMP JUMPDEST SWAP2 POP PUSH2 0x1C3B DUP3 PUSH2 0x1BD6 JUMP JUMPDEST PUSH1 0x40 DUP3 ADD SWAP1 POP SWAP2 SWAP1 POP JUMP JUMPDEST PUSH0 PUSH1 0x20 DUP3 ADD SWAP1 POP DUP2 DUP2 SUB PUSH0 DUP4 ADD MSTORE PUSH2 0x1C5D DUP2 PUSH2 0x1C24 JUMP JUMPDEST SWAP1 POP SWAP2 SWAP1 POP JUMP JUMPDEST PUSH0 PUSH1 0x60 DUP3 ADD SWAP1 POP PUSH2 0x1C77 PUSH0 DUP4 ADD DUP7 PUSH2 0xE9F JUMP JUMPDEST PUSH2 0x1C84 PUSH1 0x20 DUP4 ADD DUP6 PUSH2 0x12B1 JUMP JUMPDEST PUSH2 0x1C91 PUSH1 0x40 DUP4 ADD DUP5 PUSH2 0xFC2 JUMP JUMPDEST SWAP5 SWAP4 POP POP POP POP JUMP JUMPDEST PUSH0 PUSH1 0x60 DUP3 ADD SWAP1 POP PUSH2 0x1CAC PUSH0 DUP4 ADD DUP7 PUSH2 0x12B1 JUMP JUMPDEST PUSH2 0x1CB9 PUSH1 0x20 DUP4 ADD DUP6 PUSH2 0x12B1 JUMP JUMPDEST PUSH2 0x1CC6 PUSH1 0x40 DUP4 ADD DUP5 PUSH2 0xE9F JUMP JUMPDEST SWAP5 SWAP4 POP POP POP POP JUMP INVALID LOG2 PUSH5 0x6970667358 0x22 SLT KECCAK256 STATICCALL 0xE4 0xC5 0xB2 SWAP6 0x5E GAS MSTORE8 0xFC SWAP8 CALLER 0xC5 0x1E XOR EXTCODEHASH SMOD 0xA6 0xD6 SWAP13 PUSH28 0xFA4CCA9571E6A3D6F742C33464736F6C634300081400330000000000 "
		},
		"gasEstimates": {
			"creation": {
				"codeDepositCost": "1485600",
				"executionCost": "infinite",
				"totalCost": "infinite"
			},
			"external": {
				"currentProposalId()": "2535",
				"depositTokens(uint256)": "infinite",
				"executeProposal(uint256)": "infinite",
				"getVotingDuration()": "2498",
				"isVotingOpen()": "2554",
				"minimumTokensToVote()": "2449",
				"nnthToken()": "infinite",
				"owner()": "2575",
				"proposalCount()": "2447",
				"proposals(uint256)": "infinite",
				"quorum()": "2448",
				"releasableAmount()": "infinite",
				"submitProposal(string)": "infinite",
				"tokenBalances(address)": "2825",
				"vote(uint256,bool)": "infinite",
				"votingDuration()": "2515",
				"withdrawTokens(uint256)": "infinite"
			}
		},
		"methodIdentifiers": {
			"currentProposalId()": "feac729d",
			"depositTokens(uint256)": "dd49756e",
			"executeProposal(uint256)": "0d61b519",
			"getVotingDuration()": "deb0e09b",
			"isVotingOpen()": "fa7f1bae",
			"minimumTokensToVote()": "007ed058",
			"nnthToken()": "459b4c16",
			"owner()": "8da5cb5b",
			"proposalCount()": "da35c664",
			"proposals(uint256)": "013cf08b",
			"quorum()": "1703a018",
			"releasableAmount()": "5b940081",
			"submitProposal(string)": "373d6d5e",
			"tokenBalances(address)": "523fba7f",
			"vote(uint256,bool)": "c9d27afe",
			"votingDuration()": "132002fc",
			"withdrawTokens(uint256)": "315a095d"
		}
	},
	"abi": [
		{
			"inputs": [
				{
					"internalType": "address",
					"name": "_nnthToken",
					"type": "address"
				},
				{
					"internalType": "uint256",
					"name": "_quorum",
					"type": "uint256"
				},
				{
					"internalType": "uint256",
					"name": "_minimumTokensToVote",
					"type": "uint256"
				},
				{
					"internalType": "uint256",
					"name": "_votingDuration",
					"type": "uint256"
				}
			],
			"stateMutability": "nonpayable",
			"type": "constructor"
		},
		{
			"anonymous": false,
			"inputs": [
				{
					"indexed": false,
					"internalType": "uint256",
					"name": "proposalId",
					"type": "uint256"
				}
			],
			"name": "ProposalExecuted",
			"type": "event"
		},
		{
			"anonymous": false,
			"inputs": [
				{
					"indexed": false,
					"internalType": "uint256",
					"name": "proposalId",
					"type": "uint256"
				},
				{
					"indexed": false,
					"internalType": "string",
					"name": "description",
					"type": "string"
				},
				{
					"indexed": false,
					"internalType": "address",
					"name": "proposer",
					"type": "address"
				}
			],
			"name": "ProposalSubmitted",
			"type": "event"
		},
		{
			"anonymous": false,
			"inputs": [
				{
					"indexed": false,
					"internalType": "uint256",
					"name": "proposalId",
					"type": "uint256"
				},
				{
					"indexed": false,
					"internalType": "address",
					"name": "voter",
					"type": "address"
				},
				{
					"indexed": false,
					"internalType": "bool",
					"name": "inSupport",
					"type": "bool"
				}
			],
			"name": "Voted",
			"type": "event"
		},
		{
			"inputs": [],
			"name": "currentProposalId",
			"outputs": [
				{
					"internalType": "uint256",
					"name": "",
					"type": "uint256"
				}
			],
			"stateMutability": "view",
			"type": "function"
		},
		{
			"inputs": [
				{
					"internalType": "uint256",
					"name": "_amount",
					"type": "uint256"
				}
			],
			"name": "depositTokens",
			"outputs": [],
			"stateMutability": "nonpayable",
			"type": "function"
		},
		{
			"inputs": [
				{
					"internalType": "uint256",
					"name": "_proposalId",
					"type": "uint256"
				}
			],
			"name": "executeProposal",
			"outputs": [],
			"stateMutability": "nonpayable",
			"type": "function"
		},
		{
			"inputs": [],
			"name": "getVotingDuration",
			"outputs": [
				{
					"internalType": "uint256",
					"name": "",
					"type": "uint256"
				}
			],
			"stateMutability": "view",
			"type": "function"
		},
		{
			"inputs": [],
			"name": "isVotingOpen",
			"outputs": [
				{
					"internalType": "bool",
					"name": "",
					"type": "bool"
				}
			],
			"stateMutability": "view",
			"type": "function"
		},
		{
			"inputs": [],
			"name": "minimumTokensToVote",
			"outputs": [
				{
					"internalType": "uint256",
					"name": "",
					"type": "uint256"
				}
			],
			"stateMutability": "view",
			"type": "function"
		},
		{
			"inputs": [],
			"name": "nnthToken",
			"outputs": [
				{
					"internalType": "contract NNTHToken",
					"name": "",
					"type": "address"
				}
			],
			"stateMutability": "view",
			"type": "function"
		},
		{
			"inputs": [],
			"name": "owner",
			"outputs": [
				{
					"internalType": "address",
					"name": "",
					"type": "address"
				}
			],
			"stateMutability": "view",
			"type": "function"
		},
		{
			"inputs": [],
			"name": "proposalCount",
			"outputs": [
				{
					"internalType": "uint256",
					"name": "",
					"type": "uint256"
				}
			],
			"stateMutability": "view",
			"type": "function"
		},
		{
			"inputs": [
				{
					"internalType": "uint256",
					"name": "",
					"type": "uint256"
				}
			],
			"name": "proposals",
			"outputs": [
				{
					"internalType": "uint256",
					"name": "id",
					"type": "uint256"
				},
				{
					"internalType": "string",
					"name": "description",
					"type": "string"
				},
				{
					"internalType": "uint256",
					"name": "startTime",
					"type": "uint256"
				},
				{
					"internalType": "uint256",
					"name": "endTime",
					"type": "uint256"
				},
				{
					"internalType": "uint256",
					"name": "votesFor",
					"type": "uint256"
				},
				{
					"internalType": "uint256",
					"name": "votesAgainst",
					"type": "uint256"
				},
				{
					"internalType": "bool",
					"name": "executed",
					"type": "bool"
				}
			],
			"stateMutability": "view",
			"type": "function"
		},
		{
			"inputs": [],
			"name": "quorum",
			"outputs": [
				{
					"internalType": "uint256",
					"name": "",
					"type": "uint256"
				}
			],
			"stateMutability": "view",
			"type": "function"
		},
		{
			"inputs": [],
			"name": "releasableAmount",
			"outputs": [
				{
					"internalType": "uint256",
					"name": "",
					"type": "uint256"
				}
			],
			"stateMutability": "view",
			"type": "function"
		},
		{
			"inputs": [
				{
					"internalType": "string",
					"name": "_description",
					"type": "string"
				}
			],
			"name": "submitProposal",
			"outputs": [],
			"stateMutability": "nonpayable",
			"type": "function"
		},
		{
			"inputs": [
				{
					"internalType": "address",
					"name": "",
					"type": "address"
				}
			],
			"name": "tokenBalances",
			"outputs": [
				{
					"internalType": "uint256",
					"name": "",
					"type": "uint256"
				}
			],
			"stateMutability": "view",
			"type": "function"
		},
		{
			"inputs": [
				{
					"internalType": "uint256",
					"name": "_proposalId",
					"type": "uint256"
				},
				{
					"internalType": "bool",
					"name": "_inSupport",
					"type": "bool"
				}
			],
			"name": "vote",
			"outputs": [],
			"stateMutability": "nonpayable",
			"type": "function"
		},
		{
			"inputs": [],
			"name": "votingDuration",
			"outputs": [
				{
					"internalType": "uint256",
					"name": "",
					"type": "uint256"
				}
			],
			"stateMutability": "view",
			"type": "function"
		},
		{
			"inputs": [
				{
					"internalType": "uint256",
					"name": "_amount",
					"type": "uint256"
				}
			],
			"name": "withdrawTokens",
			"outputs": [],
			"stateMutability": "nonpayable",
			"type": "function"
		}
	]
}